{
  "contractName": "BlackMarket",
  "abi": [
    {
      "inputs": [
        {
          "internalType": "contract Utils",
          "name": "_util",
          "type": "address"
        },
        {
          "internalType": "contract GANG",
          "name": "gang",
          "type": "address"
        },
        {
          "internalType": "contract GameItem",
          "name": "_gameItem",
          "type": "address"
        },
        {
          "internalType": "contract SeasonManager",
          "name": "_season",
          "type": "address"
        },
        {
          "internalType": "contract CoreInGame",
          "name": "_core",
          "type": "address"
        }
      ],
      "stateMutability": "nonpayable",
      "type": "constructor"
    },
    {
      "anonymous": false,
      "inputs": [
        {
          "indexed": true,
          "internalType": "uint256",
          "name": "role",
          "type": "uint256"
        },
        {
          "indexed": true,
          "internalType": "uint256",
          "name": "previousAdminRole",
          "type": "uint256"
        },
        {
          "indexed": true,
          "internalType": "uint256",
          "name": "newAdminRole",
          "type": "uint256"
        }
      ],
      "name": "RoleAdminChanged",
      "type": "event"
    },
    {
      "anonymous": false,
      "inputs": [
        {
          "indexed": true,
          "internalType": "uint256",
          "name": "role",
          "type": "uint256"
        },
        {
          "indexed": true,
          "internalType": "address",
          "name": "account",
          "type": "address"
        },
        {
          "indexed": true,
          "internalType": "address",
          "name": "sender",
          "type": "address"
        }
      ],
      "name": "RoleGranted",
      "type": "event"
    },
    {
      "anonymous": false,
      "inputs": [
        {
          "indexed": true,
          "internalType": "uint256",
          "name": "role",
          "type": "uint256"
        },
        {
          "indexed": true,
          "internalType": "address",
          "name": "account",
          "type": "address"
        },
        {
          "indexed": true,
          "internalType": "address",
          "name": "sender",
          "type": "address"
        }
      ],
      "name": "RoleRevoked",
      "type": "event"
    },
    {
      "inputs": [],
      "name": "DEFAULT_ADMIN_ROLE",
      "outputs": [
        {
          "internalType": "uint256",
          "name": "",
          "type": "uint256"
        }
      ],
      "stateMutability": "view",
      "type": "function",
      "constant": true
    },
    {
      "inputs": [],
      "name": "DEFAULT_CORE_ROLE",
      "outputs": [
        {
          "internalType": "uint256",
          "name": "",
          "type": "uint256"
        }
      ],
      "stateMutability": "view",
      "type": "function",
      "constant": true
    },
    {
      "inputs": [
        {
          "internalType": "uint256",
          "name": "role",
          "type": "uint256"
        }
      ],
      "name": "getRoleAdmin",
      "outputs": [
        {
          "internalType": "uint256",
          "name": "",
          "type": "uint256"
        }
      ],
      "stateMutability": "view",
      "type": "function",
      "constant": true
    },
    {
      "inputs": [
        {
          "internalType": "uint256",
          "name": "role",
          "type": "uint256"
        },
        {
          "internalType": "address",
          "name": "account",
          "type": "address"
        }
      ],
      "name": "grantRole",
      "outputs": [],
      "stateMutability": "nonpayable",
      "type": "function"
    },
    {
      "inputs": [
        {
          "internalType": "uint256",
          "name": "role",
          "type": "uint256"
        },
        {
          "internalType": "address",
          "name": "account",
          "type": "address"
        }
      ],
      "name": "hasRole",
      "outputs": [
        {
          "internalType": "bool",
          "name": "",
          "type": "bool"
        }
      ],
      "stateMutability": "view",
      "type": "function",
      "constant": true
    },
    {
      "inputs": [
        {
          "internalType": "uint256",
          "name": "role",
          "type": "uint256"
        },
        {
          "internalType": "address",
          "name": "account",
          "type": "address"
        }
      ],
      "name": "renounceRole",
      "outputs": [],
      "stateMutability": "nonpayable",
      "type": "function"
    },
    {
      "inputs": [
        {
          "internalType": "uint256",
          "name": "role",
          "type": "uint256"
        },
        {
          "internalType": "address",
          "name": "account",
          "type": "address"
        }
      ],
      "name": "revokeRole",
      "outputs": [],
      "stateMutability": "nonpayable",
      "type": "function"
    },
    {
      "inputs": [
        {
          "internalType": "address",
          "name": "newAdmin",
          "type": "address"
        }
      ],
      "name": "changeAdmin",
      "outputs": [],
      "stateMutability": "nonpayable",
      "type": "function"
    },
    {
      "inputs": [
        {
          "internalType": "address",
          "name": "",
          "type": "address"
        },
        {
          "internalType": "address",
          "name": "",
          "type": "address"
        },
        {
          "internalType": "uint256",
          "name": "",
          "type": "uint256"
        },
        {
          "internalType": "bytes",
          "name": "",
          "type": "bytes"
        }
      ],
      "name": "onERC721Received",
      "outputs": [
        {
          "internalType": "bytes4",
          "name": "",
          "type": "bytes4"
        }
      ],
      "stateMutability": "nonpayable",
      "type": "function"
    },
    {
      "inputs": [
        {
          "internalType": "bytes4",
          "name": "interfaceId",
          "type": "bytes4"
        }
      ],
      "name": "supportsInterface",
      "outputs": [
        {
          "internalType": "bool",
          "name": "",
          "type": "bool"
        }
      ],
      "stateMutability": "pure",
      "type": "function",
      "constant": true
    },
    {
      "inputs": [
        {
          "internalType": "uint256",
          "name": "quantity",
          "type": "uint256"
        },
        {
          "internalType": "uint256",
          "name": "itemId",
          "type": "uint256"
        }
      ],
      "name": "sellDrugs",
      "outputs": [],
      "stateMutability": "nonpayable",
      "type": "function"
    }
  ],
  "bytecode": "0x60806040523480156200001157600080fd5b5060405162002b3d38038062002b3d833981810160405281019062000037919062000621565b33600160006101000a81548173ffffffffffffffffffffffffffffffffffffffff021916908373ffffffffffffffffffffffffffffffffffffffff16021790555073bf752eb4b851b241a36e22767b304ef28242198a600260006101000a81548173ffffffffffffffffffffffffffffffffffffffff021916908373ffffffffffffffffffffffffffffffffffffffff160217905550600060038190555082600560006101000a81548173ffffffffffffffffffffffffffffffffffffffff021916908373ffffffffffffffffffffffffffffffffffffffff16021790555084600460006101000a81548173ffffffffffffffffffffffffffffffffffffffff021916908373ffffffffffffffffffffffffffffffffffffffff16021790555081600660006101000a81548173ffffffffffffffffffffffffffffffffffffffff021916908373ffffffffffffffffffffffffffffffffffffffff16021790555083600760006101000a81548173ffffffffffffffffffffffffffffffffffffffff021916908373ffffffffffffffffffffffffffffffffffffffff16021790555080600860006101000a81548173ffffffffffffffffffffffffffffffffffffffff021916908373ffffffffffffffffffffffffffffffffffffffff1602179055506200022d601e806200029460201b60201c565b62000241601f601e6200029460201b60201c565b62000254601e33620002f760201b60201c565b62000289601e600260009054906101000a900473ffffffffffffffffffffffffffffffffffffffff16620002f760201b60201c565b5050505050620006a9565b6000620002a7836200030d60201b60201c565b905081600080858152602001908152602001600020600101819055508181847f6620dedee755c284a7e221a3279487b734830c1f76c026c797b4d019c6b4b2f460405160405180910390a4505050565b6200030982826200032c60201b60201c565b5050565b6000806000838152602001908152602001600020600101549050919050565b6200033e82826200041d60201b60201c565b6200041957600160008084815260200190815260200160002060000160008373ffffffffffffffffffffffffffffffffffffffff1673ffffffffffffffffffffffffffffffffffffffff16815260200190815260200160002060006101000a81548160ff021916908315150217905550620003be6200048760201b60201c565b73ffffffffffffffffffffffffffffffffffffffff168173ffffffffffffffffffffffffffffffffffffffff16837f1ec1667fba5e43c5c76fff54e76d7a4a20a4fecf7b49724ad8d52a3f726e9dbd60405160405180910390a45b5050565b600080600084815260200190815260200160002060000160008373ffffffffffffffffffffffffffffffffffffffff1673ffffffffffffffffffffffffffffffffffffffff16815260200190815260200160002060009054906101000a900460ff16905092915050565b600033905090565b600080fd5b600073ffffffffffffffffffffffffffffffffffffffff82169050919050565b6000620004c18262000494565b9050919050565b6000620004d582620004b4565b9050919050565b620004e781620004c8565b8114620004f357600080fd5b50565b6000815190506200050781620004dc565b92915050565b60006200051a82620004b4565b9050919050565b6200052c816200050d565b81146200053857600080fd5b50565b6000815190506200054c8162000521565b92915050565b60006200055f82620004b4565b9050919050565b620005718162000552565b81146200057d57600080fd5b50565b600081519050620005918162000566565b92915050565b6000620005a482620004b4565b9050919050565b620005b68162000597565b8114620005c257600080fd5b50565b600081519050620005d681620005ab565b92915050565b6000620005e982620004b4565b9050919050565b620005fb81620005dc565b81146200060757600080fd5b50565b6000815190506200061b81620005f0565b92915050565b600080600080600060a0868803121562000640576200063f6200048f565b5b60006200065088828901620004f6565b955050602062000663888289016200053b565b9450506040620006768882890162000580565b93505060606200068988828901620005c5565b92505060806200069c888289016200060a565b9150509295509295909350565b61248480620006b96000396000f3fe608060405234801561001057600080fd5b50600436106100a95760003560e01c80636f45e4e5116100715780636f45e4e5146101625780638f28397014610180578063a217fddf1461019c578063a42f64a3146101ba578063ec2606c0146101d6578063fb2990ad14610206576100a9565b806301ffc9a7146100ae578063150b7a02146100de5780631d0b19e71461010e5780631fe5f5891461012a5780632308d23614610146575b600080fd5b6100c860048036038101906100c3919061142c565b610236565b6040516100d59190611474565b60405180910390f35b6100f860048036038101906100f39190611669565b6102a0565b60405161010591906116fb565b60405180910390f35b61012860048036038101906101239190611716565b6102b4565b005b610144600480360381019061013f9190611716565b6102dd565b005b610160600480360381019061015b9190611716565b610306565b005b61016a610389565b6040516101779190611765565b60405180910390f35b61019a60048036038101906101959190611780565b61038e565b005b6101a46103e6565b6040516101b19190611765565b60405180910390f35b6101d460048036038101906101cf91906117ad565b6103eb565b005b6101f060048036038101906101eb9190611716565b610e98565b6040516101fd9190611474565b60405180910390f35b610220600480360381019061021b91906117ed565b610f02565b60405161022d9190611765565b60405180910390f35b60007f150b7a02000000000000000000000000000000000000000000000000000000007bffffffffffffffffffffffffffffffffffffffffffffffffffffffff1916827bffffffffffffffffffffffffffffffffffffffffffffffffffffffff1916149050919050565b600063150b7a0260e01b9050949350505050565b6102bd82610f02565b6102ce816102c9610f21565b610f29565b6102d88383610fc3565b505050565b6102e682610f02565b6102f7816102f2610f21565b610f29565b61030183836110a4565b505050565b61030e610f21565b73ffffffffffffffffffffffffffffffffffffffff168173ffffffffffffffffffffffffffffffffffffffff161461037b576040517f08c379a00000000000000000000000000000000000000000000000000000000081526004016103729061189d565b60405180910390fd5b6103858282610fc3565b5050565b601f81565b601e6103a18161039c610f21565b610f29565b81600160006101000a81548173ffffffffffffffffffffffffffffffffffffffff021916908373ffffffffffffffffffffffffffffffffffffffff1602179055505050565b601e81565b6000600660009054906101000a900473ffffffffffffffffffffffffffffffffffffffff1673ffffffffffffffffffffffffffffffffffffffff16633f9d2aea6040518163ffffffff1660e01b8152600401600060405180830381865afa15801561045a573d6000803e3d6000fd5b505050506040513d6000823e3d601f19601f820116820180604052508101906104839190611a58565b9050600460009054906101000a900473ffffffffffffffffffffffffffffffffffffffff1673ffffffffffffffffffffffffffffffffffffffff16639cfbe1a682608001516040518263ffffffff1660e01b81526004016104e49190611b31565b602060405180830381865afa158015610501573d6000803e3d6000fd5b505050506040513d601f19601f820116820180604052508101906105259190611b92565b610564576040517f08c379a000000000000000000000000000000000000000000000000000000000815260040161055b90611c0b565b60405180910390fd5b600a82101580156105755750600e82105b6105b4576040517f08c379a00000000000000000000000000000000000000000000000000000000081526004016105ab90611c77565b60405180910390fd5b600080600860009054906101000a900473ffffffffffffffffffffffffffffffffffffffff1673ffffffffffffffffffffffffffffffffffffffff1663a65e83c3336040518263ffffffff1660e01b81526004016106129190611ca6565b61016060405180830381865afa158015610630573d6000803e3d6000fd5b505050506040513d601f19601f820116820180604052508101906106549190611dcd565b9050600a84141561079157848160c0015110156106a6576040517f08c379a000000000000000000000000000000000000000000000000000000000815260040161069d90611e47565b60405180910390fd5b846006602d6003600460009054906101000a900473ffffffffffffffffffffffffffffffffffffffff1673ffffffffffffffffffffffffffffffffffffffff1663a7f93ebd6040518163ffffffff1660e01b8152600401602060405180830381865afa15801561071a573d6000803e3d6000fd5b505050506040513d601f19601f8201168201806040525081019061073e9190611e67565b6107489190611ec3565b6107529190611f4c565b61075c9190611f4c565b6107669190611ec3565b826107719190611f7d565b9150848160c0018181516107859190611fd3565b91508181525050610b3b565b600b8414156108cc57848160e0015110156107e1576040517f08c379a00000000000000000000000000000000000000000000000000000000081526004016107d890611e47565b60405180910390fd5b84600660236003600460009054906101000a900473ffffffffffffffffffffffffffffffffffffffff1673ffffffffffffffffffffffffffffffffffffffff1663a7f93ebd6040518163ffffffff1660e01b8152600401602060405180830381865afa158015610855573d6000803e3d6000fd5b505050506040513d601f19601f820116820180604052508101906108799190611e67565b6108839190611ec3565b61088d9190611f4c565b6108979190611f4c565b6108a19190611ec3565b826108ac9190611f7d565b9150848160e0018181516108c09190611fd3565b91508181525050610b3a565b600c841415610a095784816101000151101561091d576040517f08c379a000000000000000000000000000000000000000000000000000000000815260040161091490611e47565b60405180910390fd5b84600660196003600460009054906101000a900473ffffffffffffffffffffffffffffffffffffffff1673ffffffffffffffffffffffffffffffffffffffff1663a7f93ebd6040518163ffffffff1660e01b8152600401602060405180830381865afa158015610991573d6000803e3d6000fd5b505050506040513d601f19601f820116820180604052508101906109b59190611e67565b6109bf9190611ec3565b6109c99190611f4c565b6109d39190611f4c565b6109dd9190611ec3565b826109e89190611f7d565b91508481610100018181516109fd9190611fd3565b91508181525050610b39565b848161012001511015610a51576040517f08c379a0000000000000000000000000000000000000000000000000000000008152600401610a4890611e47565b60405180910390fd5b846006600f6003600460009054906101000a900473ffffffffffffffffffffffffffffffffffffffff1673ffffffffffffffffffffffffffffffffffffffff1663a7f93ebd6040518163ffffffff1660e01b8152600401602060405180830381865afa158015610ac5573d6000803e3d6000fd5b505050506040513d601f19601f82011682018060405250810190610ae99190611e67565b610af39190611ec3565b610afd9190611f4c565b610b079190611f4c565b610b119190611ec3565b82610b1c9190611f7d565b9150848161012001818151610b319190611fd3565b915081815250505b5b5b81600760009054906101000a900473ffffffffffffffffffffffffffffffffffffffff1673ffffffffffffffffffffffffffffffffffffffff1663dd62ed3e600160009054906101000a900473ffffffffffffffffffffffffffffffffffffffff16306040518363ffffffff1660e01b8152600401610bbb929190612007565b602060405180830381865afa158015610bd8573d6000803e3d6000fd5b505050506040513d601f19601f82011682018060405250810190610bfc9190611e67565b1015610c3d576040517f08c379a0000000000000000000000000000000000000000000000000000000008152600401610c349061207c565b60405180910390fd5b81600760009054906101000a900473ffffffffffffffffffffffffffffffffffffffff1673ffffffffffffffffffffffffffffffffffffffff166370a08231600160009054906101000a900473ffffffffffffffffffffffffffffffffffffffff166040518263ffffffff1660e01b8152600401610cbb9190611ca6565b602060405180830381865afa158015610cd8573d6000803e3d6000fd5b505050506040513d601f19601f82011682018060405250810190610cfc9190611e67565b1015610d3d576040517f08c379a0000000000000000000000000000000000000000000000000000000008152600401610d34906120e8565b60405180910390fd5b600860009054906101000a900473ffffffffffffffffffffffffffffffffffffffff1673ffffffffffffffffffffffffffffffffffffffff1663a28fe11333836040518363ffffffff1660e01b8152600401610d9a9291906121f8565b600060405180830381600087803b158015610db457600080fd5b505af1158015610dc8573d6000803e3d6000fd5b50505050600760009054906101000a900473ffffffffffffffffffffffffffffffffffffffff1673ffffffffffffffffffffffffffffffffffffffff166323b872dd600160009054906101000a900473ffffffffffffffffffffffffffffffffffffffff1633856040518463ffffffff1660e01b8152600401610e4d93929190612222565b6020604051808303816000875af1158015610e6c573d6000803e3d6000fd5b505050506040513d601f19601f82011682018060405250810190610e909190611b92565b505050505050565b600080600084815260200190815260200160002060000160008373ffffffffffffffffffffffffffffffffffffffff1673ffffffffffffffffffffffffffffffffffffffff16815260200190815260200160002060009054906101000a900460ff16905092915050565b6000806000838152602001908152602001600020600101549050919050565b600033905090565b610f338282610e98565b610fbf57610f588173ffffffffffffffffffffffffffffffffffffffff166014611184565b610f63836020611184565b604051602001610f7492919061232d565b6040516020818303038152906040526040517f08c379a0000000000000000000000000000000000000000000000000000000008152600401610fb69190612367565b60405180910390fd5b5050565b610fcd8282610e98565b156110a057600080600084815260200190815260200160002060000160008373ffffffffffffffffffffffffffffffffffffffff1673ffffffffffffffffffffffffffffffffffffffff16815260200190815260200160002060006101000a81548160ff021916908315150217905550611045610f21565b73ffffffffffffffffffffffffffffffffffffffff168173ffffffffffffffffffffffffffffffffffffffff16837fe0df21b65c73c27081b8f042a012b124085b41d78d27b7e3c4780f5650f5ebb860405160405180910390a45b5050565b6110ae8282610e98565b61118057600160008084815260200190815260200160002060000160008373ffffffffffffffffffffffffffffffffffffffff1673ffffffffffffffffffffffffffffffffffffffff16815260200190815260200160002060006101000a81548160ff021916908315150217905550611125610f21565b73ffffffffffffffffffffffffffffffffffffffff168173ffffffffffffffffffffffffffffffffffffffff16837f1ec1667fba5e43c5c76fff54e76d7a4a20a4fecf7b49724ad8d52a3f726e9dbd60405160405180910390a45b5050565b6060600060028360026111979190611ec3565b6111a19190611f7d565b67ffffffffffffffff8111156111ba576111b961153e565b5b6040519080825280601f01601f1916602001820160405280156111ec5781602001600182028036833780820191505090505b5090507f30000000000000000000000000000000000000000000000000000000000000008160008151811061122457611223612389565b5b60200101907effffffffffffffffffffffffffffffffffffffffffffffffffffffffffffff1916908160001a9053507f78000000000000000000000000000000000000000000000000000000000000008160018151811061128857611287612389565b5b60200101907effffffffffffffffffffffffffffffffffffffffffffffffffffffffffffff1916908160001a905350600060018460026112c89190611ec3565b6112d29190611f7d565b90505b6001811115611372577f3031323334353637383961626364656600000000000000000000000000000000600f86166010811061131457611313612389565b5b1a60f81b82828151811061132b5761132a612389565b5b60200101907effffffffffffffffffffffffffffffffffffffffffffffffffffffffffffff1916908160001a905350600485901c94508061136b906123b8565b90506112d5565b50600084146113b6576040517f08c379a00000000000000000000000000000000000000000000000000000000081526004016113ad9061242e565b60405180910390fd5b8091505092915050565b6000604051905090565b600080fd5b600080fd5b60007fffffffff0000000000000000000000000000000000000000000000000000000082169050919050565b611409816113d4565b811461141457600080fd5b50565b60008135905061142681611400565b92915050565b600060208284031215611442576114416113ca565b5b600061145084828501611417565b91505092915050565b60008115159050919050565b61146e81611459565b82525050565b60006020820190506114896000830184611465565b92915050565b600073ffffffffffffffffffffffffffffffffffffffff82169050919050565b60006114ba8261148f565b9050919050565b6114ca816114af565b81146114d557600080fd5b50565b6000813590506114e7816114c1565b92915050565b6000819050919050565b611500816114ed565b811461150b57600080fd5b50565b60008135905061151d816114f7565b92915050565b600080fd5b600080fd5b6000601f19601f8301169050919050565b7f4e487b7100000000000000000000000000000000000000000000000000000000600052604160045260246000fd5b6115768261152d565b810181811067ffffffffffffffff821117156115955761159461153e565b5b80604052505050565b60006115a86113c0565b90506115b4828261156d565b919050565b600067ffffffffffffffff8211156115d4576115d361153e565b5b6115dd8261152d565b9050602081019050919050565b82818337600083830152505050565b600061160c611607846115b9565b61159e565b90508281526020810184848401111561162857611627611528565b5b6116338482856115ea565b509392505050565b600082601f8301126116505761164f611523565b5b81356116608482602086016115f9565b91505092915050565b60008060008060808587031215611683576116826113ca565b5b6000611691878288016114d8565b94505060206116a2878288016114d8565b93505060406116b38782880161150e565b925050606085013567ffffffffffffffff8111156116d4576116d36113cf565b5b6116e08782880161163b565b91505092959194509250565b6116f5816113d4565b82525050565b600060208201905061171060008301846116ec565b92915050565b6000806040838503121561172d5761172c6113ca565b5b600061173b8582860161150e565b925050602061174c858286016114d8565b9150509250929050565b61175f816114ed565b82525050565b600060208201905061177a6000830184611756565b92915050565b600060208284031215611796576117956113ca565b5b60006117a4848285016114d8565b91505092915050565b600080604083850312156117c4576117c36113ca565b5b60006117d28582860161150e565b92505060206117e38582860161150e565b9150509250929050565b600060208284031215611803576118026113ca565b5b60006118118482850161150e565b91505092915050565b600082825260208201905092915050565b7f416363657373436f6e74726f6c3a2063616e206f6e6c792072656e6f756e636560008201527f20726f6c657320666f722073656c660000000000000000000000000000000000602082015250565b6000611887602f8361181a565b91506118928261182b565b604082019050919050565b600060208201905081810360008301526118b68161187a565b9050919050565b600080fd5b600080fd5b6000815190506118d6816114f7565b92915050565b600067ffffffffffffffff8211156118f7576118f661153e565b5b6119008261152d565b9050602081019050919050565b60005b8381101561192b578082015181840152602081019050611910565b8381111561193a576000848401525b50505050565b600061195361194e846118dc565b61159e565b90508281526020810184848401111561196f5761196e611528565b5b61197a84828561190d565b509392505050565b600082601f83011261199757611996611523565b5b81516119a7848260208601611940565b91505092915050565b600060a082840312156119c6576119c56118bd565b5b6119d060a061159e565b905060006119e0848285016118c7565b60008301525060206119f4848285016118c7565b6020830152506040611a08848285016118c7565b6040830152506060611a1c848285016118c7565b606083015250608082015167ffffffffffffffff811115611a4057611a3f6118c2565b5b611a4c84828501611982565b60808301525092915050565b600060208284031215611a6e57611a6d6113ca565b5b600082015167ffffffffffffffff811115611a8c57611a8b6113cf565b5b611a98848285016119b0565b91505092915050565b600081519050919050565b6000611ab782611aa1565b611ac1818561181a565b9350611ad181856020860161190d565b611ada8161152d565b840191505092915050565b7f52554e4e494e4700000000000000000000000000000000000000000000000000600082015250565b6000611b1b60078361181a565b9150611b2682611ae5565b602082019050919050565b60006040820190508181036000830152611b4b8184611aac565b90508181036020830152611b5e81611b0e565b905092915050565b611b6f81611459565b8114611b7a57600080fd5b50565b600081519050611b8c81611b66565b92915050565b600060208284031215611ba857611ba76113ca565b5b6000611bb684828501611b7d565b91505092915050565b7f536561736f6e206e6f7420737461727465640000000000000000000000000000600082015250565b6000611bf560128361181a565b9150611c0082611bbf565b602082019050919050565b60006020820190508181036000830152611c2481611be8565b9050919050565b7f43616e6e6f742062652050726f647563652074686973206974656d0000000000600082015250565b6000611c61601b8361181a565b9150611c6c82611c2b565b602082019050919050565b60006020820190508181036000830152611c9081611c54565b9050919050565b611ca0816114af565b82525050565b6000602082019050611cbb6000830184611c97565b92915050565b60006101608284031215611cd857611cd76118bd565b5b611ce361016061159e565b90506000611cf3848285016118c7565b6000830152506020611d07848285016118c7565b6020830152506040611d1b848285016118c7565b6040830152506060611d2f848285016118c7565b6060830152506080611d43848285016118c7565b60808301525060a0611d57848285016118c7565b60a08301525060c0611d6b848285016118c7565b60c08301525060e0611d7f848285016118c7565b60e083015250610100611d94848285016118c7565b61010083015250610120611daa848285016118c7565b61012083015250610140611dc0848285016118c7565b6101408301525092915050565b60006101608284031215611de457611de36113ca565b5b6000611df284828501611cc1565b91505092915050565b7f496e73737566696369656e742062616c616e6365000000000000000000000000600082015250565b6000611e3160148361181a565b9150611e3c82611dfb565b602082019050919050565b60006020820190508181036000830152611e6081611e24565b9050919050565b600060208284031215611e7d57611e7c6113ca565b5b6000611e8b848285016118c7565b91505092915050565b7f4e487b7100000000000000000000000000000000000000000000000000000000600052601160045260246000fd5b6000611ece826114ed565b9150611ed9836114ed565b9250817fffffffffffffffffffffffffffffffffffffffffffffffffffffffffffffffff0483118215151615611f1257611f11611e94565b5b828202905092915050565b7f4e487b7100000000000000000000000000000000000000000000000000000000600052601260045260246000fd5b6000611f57826114ed565b9150611f62836114ed565b925082611f7257611f71611f1d565b5b828204905092915050565b6000611f88826114ed565b9150611f93836114ed565b9250827fffffffffffffffffffffffffffffffffffffffffffffffffffffffffffffffff03821115611fc857611fc7611e94565b5b828201905092915050565b6000611fde826114ed565b9150611fe9836114ed565b925082821015611ffc57611ffb611e94565b5b828203905092915050565b600060408201905061201c6000830185611c97565b6120296020830184611c97565b9392505050565b7f5265717569726520617070726f76650000000000000000000000000000000000600082015250565b6000612066600f8361181a565b915061207182612030565b602082019050919050565b6000602082019050818103600083015261209581612059565b9050919050565b7f496e73756666696369656e742042616c616e6365000000000000000000000000600082015250565b60006120d260148361181a565b91506120dd8261209c565b602082019050919050565b60006020820190508181036000830152612101816120c5565b9050919050565b612111816114ed565b82525050565b6101608201600082015161212e6000850182612108565b5060208201516121416020850182612108565b5060408201516121546040850182612108565b5060608201516121676060850182612108565b50608082015161217a6080850182612108565b5060a082015161218d60a0850182612108565b5060c08201516121a060c0850182612108565b5060e08201516121b360e0850182612108565b506101008201516121c8610100850182612108565b506101208201516121dd610120850182612108565b506101408201516121f2610140850182612108565b50505050565b60006101808201905061220e6000830185611c97565b61221b6020830184612117565b9392505050565b60006060820190506122376000830186611c97565b6122446020830185611c97565b6122516040830184611756565b949350505050565b600081905092915050565b7f416363657373436f6e74726f6c3a206163636f756e7420000000000000000000600082015250565b600061229a601783612259565b91506122a582612264565b601782019050919050565b60006122bb82611aa1565b6122c58185612259565b93506122d581856020860161190d565b80840191505092915050565b7f206973206d697373696e6720726f6c6520000000000000000000000000000000600082015250565b6000612317601183612259565b9150612322826122e1565b601182019050919050565b60006123388261228d565b915061234482856122b0565b915061234f8261230a565b915061235b82846122b0565b91508190509392505050565b600060208201905081810360008301526123818184611aac565b905092915050565b7f4e487b7100000000000000000000000000000000000000000000000000000000600052603260045260246000fd5b60006123c3826114ed565b915060008214156123d7576123d6611e94565b5b600182039050919050565b7f537472696e67733a20686578206c656e67746820696e73756666696369656e74600082015250565b600061241860208361181a565b9150612423826123e2565b602082019050919050565b600060208201905081810360008301526124478161240b565b905091905056fea264697066735822122031284023d2fd7f710470d8da4d8be9166ea014d0e5d4d6b03c3cfbf38b02066464736f6c634300080a0033",
  "immutableReferences": {},
  "source": "// SPDX-License-Identifier: UNLICENSED\r\npragma solidity >=0.4.22 <0.9.0;\r\n\r\n/**\r\n * @title SampleBEP20Token\r\n * @dev Very simple BEP20 Token example, where all tokens are pre-assigned to the creator.\r\n * Note they can later distribute these tokens as they wish using `transfer` and other\r\n * `BEP20` functions.\r\n * USE IT ONLY FOR LEARNING PURPOSES. SHOULD BE MODIFIED FOR PRODUCTION\r\n */\r\n\r\nimport \"../../node_modules/@openzeppelin/contracts/token/ERC721/IERC721Receiver.sol\";\r\nimport \"./../utils/Admin.sol\";\r\nimport \"./../utils/Utils.sol\";\r\n\r\nimport \"./../tokens/GANG.sol\";\r\nimport \"./../tokens/GameItem.sol\";\r\nimport \"./../CoreInGame.sol\";\r\nimport \"./../SeasonManager.sol\";\r\n\r\ncontract BlackMarket is Admin, IERC721Receiver {\r\n    address private _contractowner;\r\n    address private _secondowner;\r\n\r\n    uint256 private bnbBalance;\r\n\r\n    Utils private utils;\r\n    GameItem private crimeItem;\r\n    SeasonManager private season;\r\n    GANG private gangToken;\r\n    CoreInGame private game;\r\n\r\n    constructor(Utils _util, GANG gang, GameItem _gameItem, SeasonManager _season, CoreInGame _core) Admin()\r\n    {\r\n        _contractowner = msg.sender;\r\n        _secondowner = address(0xbf752Eb4b851B241A36e22767b304ef28242198A);\r\n        bnbBalance = 0;\r\n        crimeItem = _gameItem;\r\n        utils = _util;\r\n        season = _season;\r\n        gangToken = gang;\r\n        game = _core;\r\n\r\n        _setRoleAdmin(DEFAULT_ADMIN_ROLE, DEFAULT_ADMIN_ROLE);\r\n        _setRoleAdmin(DEFAULT_CORE_ROLE, DEFAULT_ADMIN_ROLE);\r\n        _setupRole(DEFAULT_ADMIN_ROLE, msg.sender);\r\n        _setupRole(DEFAULT_ADMIN_ROLE, _secondowner);\r\n    }\r\n\r\n    function changeAdmin(address newAdmin) public onlyRole(DEFAULT_ADMIN_ROLE)\r\n    {\r\n        _contractowner = newAdmin;\r\n    }\r\n\r\n    function onERC721Received(address, address, uint256, bytes memory) public virtual override returns (bytes4) {\r\n        return this.onERC721Received.selector;\r\n    }\r\n\r\n    function supportsInterface(bytes4 interfaceId) public pure returns (bool) {\r\n        return interfaceId == type(IERC721Receiver).interfaceId;\r\n    }\r\n\r\n    function sellDrugs(uint256 quantity, uint256 itemId) public{\r\n        gameSeason memory seasonManager = season.getSeasonManager();\r\n        require(utils.strcmp(seasonManager.seasonState, \"RUNNING\"), \"Season not started\");\r\n        require(itemId >= 10 && itemId < 14, \"Cannot be Produce this item\");\r\n        uint256 totalPrice = 0;\r\n        InGame memory acc = game.getIngameAccount(msg.sender);\r\n        if(itemId == 10)\r\n        {\r\n            require(acc.beer >= quantity, \"Inssuficient balance\");\r\n            totalPrice += ((((utils.getMintPrice() * 3) / 45) / 6) * quantity);\r\n            acc.beer -= quantity;\r\n        }\r\n        else if(itemId == 11)\r\n        {\r\n            require(acc.cannabis >= quantity, \"Inssuficient balance\");\r\n            totalPrice += ((((utils.getMintPrice() * 3) / 35) / 6) * quantity);\r\n            acc.cannabis -= quantity;\r\n        }\r\n        else if(itemId == 12) \r\n        {\r\n            require(acc.opio >= quantity, \"Inssuficient balance\");\r\n            totalPrice += ((((utils.getMintPrice() * 3) / 25) / 6) * quantity);\r\n            acc.opio -= quantity;\r\n        }\r\n        else \r\n        {\r\n            require(acc.cocaine >= quantity, \"Inssuficient balance\");\r\n            totalPrice += ((((utils.getMintPrice() * 3) / 15) / 6) * quantity);\r\n            acc.cocaine -= quantity;\r\n        }\r\n\r\n        require(gangToken.allowance(_contractowner, address(this)) >= totalPrice, \"Require approve\");\r\n        require(gangToken.balanceOf(_contractowner) >= totalPrice, \"Insufficient Balance\");\r\n        game.UpdateInGameAccount(msg.sender, acc);\r\n        gangToken.transferFrom(_contractowner, msg.sender, totalPrice);\r\n    }\r\n\r\n}",
  "sourcePath": "D:\\CrimeCity\\contracts\\Features\\BlackMarket.sol",
  "compiler": {
    "name": "solc",
    "version": "0.8.10+commit.fc410830.Emscripten.clang"
  },
  "schemaVersion": "3.4.3",
  "updatedAt": "2022-01-22T20:23:21.694Z",
  "networkType": "ethereum",
  "devdoc": {
    "kind": "dev",
    "methods": {
      "getRoleAdmin(uint256)": {
        "details": "Returns the admin role that controls `role`. See {grantRole} and {revokeRole}. To change a role's admin, use {_setRoleAdmin}."
      },
      "grantRole(uint256,address)": {
        "details": "Grants `role` to `account`. If `account` had not been already granted `role`, emits a {RoleGranted} event. Requirements: - the caller must have ``role``'s admin role."
      },
      "hasRole(uint256,address)": {
        "details": "Returns `true` if `account` has been granted `role`."
      },
      "renounceRole(uint256,address)": {
        "details": "Revokes `role` from the calling account. Roles are often managed via {grantRole} and {revokeRole}: this function's purpose is to provide a mechanism for accounts to lose their privileges if they are compromised (such as when a trusted device is misplaced). If the calling account had been granted `role`, emits a {RoleRevoked} event. Requirements: - the caller must be `account`."
      },
      "revokeRole(uint256,address)": {
        "details": "Revokes `role` from `account`. If `account` had been granted `role`, emits a {RoleRevoked} event. Requirements: - the caller must have ``role``'s admin role."
      }
    },
    "version": 1
  },
  "userdoc": {
    "kind": "user",
    "methods": {},
    "version": 1
  }
}