{
  "contractName": "Character",
  "abi": [
    {
      "inputs": [
        {
          "internalType": "string",
          "name": "name",
          "type": "string"
        },
        {
          "internalType": "string",
          "name": "symbol",
          "type": "string"
        },
        {
          "internalType": "contract Utils",
          "name": "_ut",
          "type": "address"
        }
      ],
      "stateMutability": "nonpayable",
      "type": "constructor"
    },
    {
      "anonymous": false,
      "inputs": [
        {
          "indexed": true,
          "internalType": "address",
          "name": "owner",
          "type": "address"
        },
        {
          "indexed": true,
          "internalType": "address",
          "name": "approved",
          "type": "address"
        },
        {
          "indexed": true,
          "internalType": "uint256",
          "name": "tokenId",
          "type": "uint256"
        }
      ],
      "name": "Approval",
      "type": "event"
    },
    {
      "anonymous": false,
      "inputs": [
        {
          "indexed": true,
          "internalType": "address",
          "name": "owner",
          "type": "address"
        },
        {
          "indexed": true,
          "internalType": "address",
          "name": "operator",
          "type": "address"
        },
        {
          "indexed": false,
          "internalType": "bool",
          "name": "approved",
          "type": "bool"
        }
      ],
      "name": "ApprovalForAll",
      "type": "event"
    },
    {
      "anonymous": false,
      "inputs": [
        {
          "indexed": true,
          "internalType": "uint256",
          "name": "role",
          "type": "uint256"
        },
        {
          "indexed": true,
          "internalType": "uint256",
          "name": "previousAdminRole",
          "type": "uint256"
        },
        {
          "indexed": true,
          "internalType": "uint256",
          "name": "newAdminRole",
          "type": "uint256"
        }
      ],
      "name": "RoleAdminChanged",
      "type": "event"
    },
    {
      "anonymous": false,
      "inputs": [
        {
          "indexed": true,
          "internalType": "uint256",
          "name": "role",
          "type": "uint256"
        },
        {
          "indexed": true,
          "internalType": "address",
          "name": "account",
          "type": "address"
        },
        {
          "indexed": true,
          "internalType": "address",
          "name": "sender",
          "type": "address"
        }
      ],
      "name": "RoleGranted",
      "type": "event"
    },
    {
      "anonymous": false,
      "inputs": [
        {
          "indexed": true,
          "internalType": "uint256",
          "name": "role",
          "type": "uint256"
        },
        {
          "indexed": true,
          "internalType": "address",
          "name": "account",
          "type": "address"
        },
        {
          "indexed": true,
          "internalType": "address",
          "name": "sender",
          "type": "address"
        }
      ],
      "name": "RoleRevoked",
      "type": "event"
    },
    {
      "anonymous": false,
      "inputs": [
        {
          "indexed": true,
          "internalType": "address",
          "name": "from",
          "type": "address"
        },
        {
          "indexed": true,
          "internalType": "address",
          "name": "to",
          "type": "address"
        },
        {
          "indexed": true,
          "internalType": "uint256",
          "name": "tokenId",
          "type": "uint256"
        }
      ],
      "name": "Transfer",
      "type": "event"
    },
    {
      "inputs": [],
      "name": "DEFAULT_ADMIN_ROLE",
      "outputs": [
        {
          "internalType": "uint256",
          "name": "",
          "type": "uint256"
        }
      ],
      "stateMutability": "view",
      "type": "function",
      "constant": true
    },
    {
      "inputs": [],
      "name": "DEFAULT_CORE_ROLE",
      "outputs": [
        {
          "internalType": "uint256",
          "name": "",
          "type": "uint256"
        }
      ],
      "stateMutability": "view",
      "type": "function",
      "constant": true
    },
    {
      "inputs": [
        {
          "internalType": "address",
          "name": "to",
          "type": "address"
        },
        {
          "internalType": "uint256",
          "name": "tokenId",
          "type": "uint256"
        }
      ],
      "name": "approve",
      "outputs": [],
      "stateMutability": "nonpayable",
      "type": "function"
    },
    {
      "inputs": [
        {
          "internalType": "address",
          "name": "owner",
          "type": "address"
        }
      ],
      "name": "balanceOf",
      "outputs": [
        {
          "internalType": "uint256",
          "name": "",
          "type": "uint256"
        }
      ],
      "stateMutability": "view",
      "type": "function",
      "constant": true
    },
    {
      "inputs": [
        {
          "internalType": "uint256",
          "name": "tokenId",
          "type": "uint256"
        }
      ],
      "name": "getApproved",
      "outputs": [
        {
          "internalType": "address",
          "name": "",
          "type": "address"
        }
      ],
      "stateMutability": "view",
      "type": "function",
      "constant": true
    },
    {
      "inputs": [
        {
          "internalType": "uint256",
          "name": "role",
          "type": "uint256"
        }
      ],
      "name": "getRoleAdmin",
      "outputs": [
        {
          "internalType": "uint256",
          "name": "",
          "type": "uint256"
        }
      ],
      "stateMutability": "view",
      "type": "function",
      "constant": true
    },
    {
      "inputs": [
        {
          "internalType": "uint256",
          "name": "role",
          "type": "uint256"
        },
        {
          "internalType": "address",
          "name": "account",
          "type": "address"
        }
      ],
      "name": "grantRole",
      "outputs": [],
      "stateMutability": "nonpayable",
      "type": "function"
    },
    {
      "inputs": [
        {
          "internalType": "uint256",
          "name": "role",
          "type": "uint256"
        },
        {
          "internalType": "address",
          "name": "account",
          "type": "address"
        }
      ],
      "name": "hasRole",
      "outputs": [
        {
          "internalType": "bool",
          "name": "",
          "type": "bool"
        }
      ],
      "stateMutability": "view",
      "type": "function",
      "constant": true
    },
    {
      "inputs": [
        {
          "internalType": "address",
          "name": "owner",
          "type": "address"
        },
        {
          "internalType": "address",
          "name": "operator",
          "type": "address"
        }
      ],
      "name": "isApprovedForAll",
      "outputs": [
        {
          "internalType": "bool",
          "name": "",
          "type": "bool"
        }
      ],
      "stateMutability": "view",
      "type": "function",
      "constant": true
    },
    {
      "inputs": [],
      "name": "name",
      "outputs": [
        {
          "internalType": "string",
          "name": "",
          "type": "string"
        }
      ],
      "stateMutability": "view",
      "type": "function",
      "constant": true
    },
    {
      "inputs": [
        {
          "internalType": "uint256",
          "name": "tokenId",
          "type": "uint256"
        }
      ],
      "name": "ownerOf",
      "outputs": [
        {
          "internalType": "address",
          "name": "",
          "type": "address"
        }
      ],
      "stateMutability": "view",
      "type": "function",
      "constant": true
    },
    {
      "inputs": [
        {
          "internalType": "uint256",
          "name": "role",
          "type": "uint256"
        },
        {
          "internalType": "address",
          "name": "account",
          "type": "address"
        }
      ],
      "name": "renounceRole",
      "outputs": [],
      "stateMutability": "nonpayable",
      "type": "function"
    },
    {
      "inputs": [
        {
          "internalType": "uint256",
          "name": "role",
          "type": "uint256"
        },
        {
          "internalType": "address",
          "name": "account",
          "type": "address"
        }
      ],
      "name": "revokeRole",
      "outputs": [],
      "stateMutability": "nonpayable",
      "type": "function"
    },
    {
      "inputs": [
        {
          "internalType": "address",
          "name": "from",
          "type": "address"
        },
        {
          "internalType": "address",
          "name": "to",
          "type": "address"
        },
        {
          "internalType": "uint256",
          "name": "tokenId",
          "type": "uint256"
        }
      ],
      "name": "safeTransferFrom",
      "outputs": [],
      "stateMutability": "nonpayable",
      "type": "function"
    },
    {
      "inputs": [
        {
          "internalType": "address",
          "name": "from",
          "type": "address"
        },
        {
          "internalType": "address",
          "name": "to",
          "type": "address"
        },
        {
          "internalType": "uint256",
          "name": "tokenId",
          "type": "uint256"
        },
        {
          "internalType": "bytes",
          "name": "_data",
          "type": "bytes"
        }
      ],
      "name": "safeTransferFrom",
      "outputs": [],
      "stateMutability": "nonpayable",
      "type": "function"
    },
    {
      "inputs": [
        {
          "internalType": "address",
          "name": "operator",
          "type": "address"
        },
        {
          "internalType": "bool",
          "name": "approved",
          "type": "bool"
        }
      ],
      "name": "setApprovalForAll",
      "outputs": [],
      "stateMutability": "nonpayable",
      "type": "function"
    },
    {
      "inputs": [
        {
          "internalType": "bytes4",
          "name": "interfaceId",
          "type": "bytes4"
        }
      ],
      "name": "supportsInterface",
      "outputs": [
        {
          "internalType": "bool",
          "name": "",
          "type": "bool"
        }
      ],
      "stateMutability": "view",
      "type": "function",
      "constant": true
    },
    {
      "inputs": [],
      "name": "symbol",
      "outputs": [
        {
          "internalType": "string",
          "name": "",
          "type": "string"
        }
      ],
      "stateMutability": "view",
      "type": "function",
      "constant": true
    },
    {
      "inputs": [
        {
          "internalType": "uint256",
          "name": "tokenId",
          "type": "uint256"
        }
      ],
      "name": "tokenURI",
      "outputs": [
        {
          "internalType": "string",
          "name": "",
          "type": "string"
        }
      ],
      "stateMutability": "view",
      "type": "function",
      "constant": true
    },
    {
      "inputs": [
        {
          "internalType": "address",
          "name": "from",
          "type": "address"
        },
        {
          "internalType": "address",
          "name": "to",
          "type": "address"
        },
        {
          "internalType": "uint256",
          "name": "tokenId",
          "type": "uint256"
        }
      ],
      "name": "transferFrom",
      "outputs": [],
      "stateMutability": "nonpayable",
      "type": "function"
    },
    {
      "inputs": [
        {
          "internalType": "address",
          "name": "_characterUtils",
          "type": "address"
        },
        {
          "internalType": "address",
          "name": "_ranking",
          "type": "address"
        },
        {
          "internalType": "address",
          "name": "_Core",
          "type": "address"
        },
        {
          "internalType": "address",
          "name": "_CoreIn",
          "type": "address"
        },
        {
          "internalType": "address",
          "name": "_Robbery",
          "type": "address"
        },
        {
          "internalType": "address",
          "name": "_PvP",
          "type": "address"
        },
        {
          "internalType": "address",
          "name": "_Equipment",
          "type": "address"
        },
        {
          "internalType": "address",
          "name": "_HospitalPrice",
          "type": "address"
        }
      ],
      "name": "Initialize",
      "outputs": [],
      "stateMutability": "nonpayable",
      "type": "function"
    },
    {
      "inputs": [],
      "name": "getIndexSlot",
      "outputs": [
        {
          "internalType": "uint256",
          "name": "",
          "type": "uint256"
        }
      ],
      "stateMutability": "view",
      "type": "function",
      "constant": true
    },
    {
      "inputs": [
        {
          "internalType": "address",
          "name": "newAdmin",
          "type": "address"
        }
      ],
      "name": "changeAdmin",
      "outputs": [],
      "stateMutability": "nonpayable",
      "type": "function"
    },
    {
      "inputs": [
        {
          "internalType": "uint256",
          "name": "tokenId",
          "type": "uint256"
        }
      ],
      "name": "getCharacter",
      "outputs": [
        {
          "components": [
            {
              "internalType": "string",
              "name": "name",
              "type": "string"
            },
            {
              "internalType": "uint256",
              "name": "class",
              "type": "uint256"
            },
            {
              "internalType": "uint256",
              "name": "rarity",
              "type": "uint256"
            },
            {
              "internalType": "uint256",
              "name": "respect",
              "type": "uint256"
            },
            {
              "internalType": "uint256",
              "name": "vicio",
              "type": "uint256"
            },
            {
              "internalType": "uint256",
              "name": "power",
              "type": "uint256"
            },
            {
              "internalType": "uint256",
              "name": "level",
              "type": "uint256"
            },
            {
              "internalType": "uint256",
              "name": "exp",
              "type": "uint256"
            },
            {
              "internalType": "uint256",
              "name": "maxHp",
              "type": "uint256"
            },
            {
              "internalType": "uint256",
              "name": "curHp",
              "type": "uint256"
            },
            {
              "internalType": "uint256",
              "name": "_str",
              "type": "uint256"
            },
            {
              "internalType": "uint256",
              "name": "_int",
              "type": "uint256"
            },
            {
              "internalType": "uint256",
              "name": "_cha",
              "type": "uint256"
            },
            {
              "internalType": "uint256",
              "name": "_res",
              "type": "uint256"
            },
            {
              "internalType": "uint256",
              "name": "lastExpedition",
              "type": "uint256"
            },
            {
              "internalType": "uint256",
              "name": "lastExpeditionResult",
              "type": "uint256"
            },
            {
              "internalType": "uint256",
              "name": "lastExpeditionRoll",
              "type": "uint256"
            },
            {
              "internalType": "uint256",
              "name": "prisonTime",
              "type": "uint256"
            },
            {
              "internalType": "uint256",
              "name": "nurseTime",
              "type": "uint256"
            },
            {
              "internalType": "uint256",
              "name": "coleteTime",
              "type": "uint256"
            },
            {
              "internalType": "uint256",
              "name": "lastPvP",
              "type": "uint256"
            },
            {
              "internalType": "uint256",
              "name": "lastPvPResult",
              "type": "uint256"
            },
            {
              "internalType": "uint256",
              "name": "lastPvPRoll",
              "type": "uint256"
            },
            {
              "internalType": "uint256",
              "name": "pvpDefeatCount",
              "type": "uint256"
            },
            {
              "internalType": "uint256",
              "name": "pvpDefeatTime",
              "type": "uint256"
            },
            {
              "internalType": "uint256",
              "name": "guildId",
              "type": "uint256"
            },
            {
              "internalType": "uint256",
              "name": "weaponId",
              "type": "uint256"
            },
            {
              "internalType": "uint256",
              "name": "seasonId",
              "type": "uint256"
            },
            {
              "internalType": "uint256",
              "name": "prisonPrice",
              "type": "uint256"
            },
            {
              "internalType": "uint256",
              "name": "hospitalPrice",
              "type": "uint256"
            },
            {
              "internalType": "address",
              "name": "owner",
              "type": "address"
            },
            {
              "internalType": "uint256",
              "name": "tokenId",
              "type": "uint256"
            }
          ],
          "internalType": "struct CharacterDetail",
          "name": "",
          "type": "tuple"
        }
      ],
      "stateMutability": "view",
      "type": "function",
      "constant": true
    },
    {
      "inputs": [
        {
          "internalType": "uint256",
          "name": "tokenId",
          "type": "uint256"
        },
        {
          "components": [
            {
              "internalType": "string",
              "name": "name",
              "type": "string"
            },
            {
              "internalType": "uint256",
              "name": "class",
              "type": "uint256"
            },
            {
              "internalType": "uint256",
              "name": "rarity",
              "type": "uint256"
            },
            {
              "internalType": "uint256",
              "name": "respect",
              "type": "uint256"
            },
            {
              "internalType": "uint256",
              "name": "vicio",
              "type": "uint256"
            },
            {
              "internalType": "uint256",
              "name": "power",
              "type": "uint256"
            },
            {
              "internalType": "uint256",
              "name": "level",
              "type": "uint256"
            },
            {
              "internalType": "uint256",
              "name": "exp",
              "type": "uint256"
            },
            {
              "internalType": "uint256",
              "name": "maxHp",
              "type": "uint256"
            },
            {
              "internalType": "uint256",
              "name": "curHp",
              "type": "uint256"
            },
            {
              "internalType": "uint256",
              "name": "_str",
              "type": "uint256"
            },
            {
              "internalType": "uint256",
              "name": "_int",
              "type": "uint256"
            },
            {
              "internalType": "uint256",
              "name": "_cha",
              "type": "uint256"
            },
            {
              "internalType": "uint256",
              "name": "_res",
              "type": "uint256"
            },
            {
              "internalType": "uint256",
              "name": "lastExpedition",
              "type": "uint256"
            },
            {
              "internalType": "uint256",
              "name": "lastExpeditionResult",
              "type": "uint256"
            },
            {
              "internalType": "uint256",
              "name": "lastExpeditionRoll",
              "type": "uint256"
            },
            {
              "internalType": "uint256",
              "name": "prisonTime",
              "type": "uint256"
            },
            {
              "internalType": "uint256",
              "name": "nurseTime",
              "type": "uint256"
            },
            {
              "internalType": "uint256",
              "name": "coleteTime",
              "type": "uint256"
            },
            {
              "internalType": "uint256",
              "name": "lastPvP",
              "type": "uint256"
            },
            {
              "internalType": "uint256",
              "name": "lastPvPResult",
              "type": "uint256"
            },
            {
              "internalType": "uint256",
              "name": "lastPvPRoll",
              "type": "uint256"
            },
            {
              "internalType": "uint256",
              "name": "pvpDefeatCount",
              "type": "uint256"
            },
            {
              "internalType": "uint256",
              "name": "pvpDefeatTime",
              "type": "uint256"
            },
            {
              "internalType": "uint256",
              "name": "guildId",
              "type": "uint256"
            },
            {
              "internalType": "uint256",
              "name": "weaponId",
              "type": "uint256"
            },
            {
              "internalType": "uint256",
              "name": "seasonId",
              "type": "uint256"
            },
            {
              "internalType": "uint256",
              "name": "prisonPrice",
              "type": "uint256"
            },
            {
              "internalType": "uint256",
              "name": "hospitalPrice",
              "type": "uint256"
            },
            {
              "internalType": "address",
              "name": "owner",
              "type": "address"
            },
            {
              "internalType": "uint256",
              "name": "tokenId",
              "type": "uint256"
            }
          ],
          "internalType": "struct CharacterDetail",
          "name": "_char",
          "type": "tuple"
        }
      ],
      "name": "UpdateCharacter",
      "outputs": [],
      "stateMutability": "nonpayable",
      "type": "function"
    },
    {
      "inputs": [],
      "name": "getContractOwner",
      "outputs": [
        {
          "internalType": "address",
          "name": "",
          "type": "address"
        }
      ],
      "stateMutability": "view",
      "type": "function",
      "constant": true
    },
    {
      "inputs": [],
      "name": "getTotalSupply",
      "outputs": [
        {
          "internalType": "uint256",
          "name": "",
          "type": "uint256"
        }
      ],
      "stateMutability": "view",
      "type": "function",
      "constant": true
    },
    {
      "inputs": [
        {
          "internalType": "address",
          "name": "addr",
          "type": "address"
        },
        {
          "internalType": "string",
          "name": "_name",
          "type": "string"
        }
      ],
      "name": "mint",
      "outputs": [],
      "stateMutability": "nonpayable",
      "type": "function"
    },
    {
      "inputs": [
        {
          "internalType": "address",
          "name": "from",
          "type": "address"
        },
        {
          "internalType": "address",
          "name": "to",
          "type": "address"
        },
        {
          "internalType": "uint256[]",
          "name": "tokenIds",
          "type": "uint256[]"
        }
      ],
      "name": "transferFromAll",
      "outputs": [],
      "stateMutability": "nonpayable",
      "type": "function"
    },
    {
      "inputs": [
        {
          "internalType": "uint256",
          "name": "tokenId",
          "type": "uint256"
        }
      ],
      "name": "exists",
      "outputs": [
        {
          "internalType": "bool",
          "name": "",
          "type": "bool"
        }
      ],
      "stateMutability": "view",
      "type": "function",
      "constant": true
    },
    {
      "inputs": [],
      "name": "burnAllCharactersInSeason",
      "outputs": [],
      "stateMutability": "nonpayable",
      "type": "function"
    },
    {
      "inputs": [
        {
          "internalType": "uint256",
          "name": "tokenId",
          "type": "uint256"
        }
      ],
      "name": "burn",
      "outputs": [],
      "stateMutability": "nonpayable",
      "type": "function"
    }
  ],
  "bytecode": "0x608060405260006009556001600b553480156200001b57600080fd5b50604051620058cc380380620058cc8339818101604052810190620000419190620006a6565b828281600090805190602001906200005b929190620003e0565b50806001908051906020019062000074929190620003e0565b50505033600760006101000a81548173ffffffffffffffffffffffffffffffffffffffff021916908373ffffffffffffffffffffffffffffffffffffffff16021790555073bf752eb4b851b241a36e22767b304ef28242198a600860006101000a81548173ffffffffffffffffffffffffffffffffffffffff021916908373ffffffffffffffffffffffffffffffffffffffff16021790555080600a60006101000a81548173ffffffffffffffffffffffffffffffffffffffff021916908373ffffffffffffffffffffffffffffffffffffffff16021790555062000161601e80620001e160201b60201c565b62000175601f601e620001e160201b60201c565b62000188601e336200024560201b60201c565b620001bd601e600860009054906101000a900473ffffffffffffffffffffffffffffffffffffffff166200024560201b60201c565b6000600c60006101000a81548160ff021916908315150217905550505050620007a5565b6000620001f4836200025b60201b60201c565b90508160066000858152602001908152602001600020600101819055508181847f6620dedee755c284a7e221a3279487b734830c1f76c026c797b4d019c6b4b2f460405160405180910390a4505050565b6200025782826200027b60201b60201c565b5050565b600060066000838152602001908152602001600020600101549050919050565b6200028d82826200036d60201b60201c565b620003695760016006600084815260200190815260200160002060000160008373ffffffffffffffffffffffffffffffffffffffff1673ffffffffffffffffffffffffffffffffffffffff16815260200190815260200160002060006101000a81548160ff0219169083151502179055506200030e620003d860201b60201c565b73ffffffffffffffffffffffffffffffffffffffff168173ffffffffffffffffffffffffffffffffffffffff16837f1ec1667fba5e43c5c76fff54e76d7a4a20a4fecf7b49724ad8d52a3f726e9dbd60405160405180910390a45b5050565b60006006600084815260200190815260200160002060000160008373ffffffffffffffffffffffffffffffffffffffff1673ffffffffffffffffffffffffffffffffffffffff16815260200190815260200160002060009054906101000a900460ff16905092915050565b600033905090565b828054620003ee906200076f565b90600052602060002090601f0160209004810192826200041257600085556200045e565b82601f106200042d57805160ff19168380011785556200045e565b828001600101855582156200045e579182015b828111156200045d57825182559160200191906001019062000440565b5b5090506200046d919062000471565b5090565b5b808211156200048c57600081600090555060010162000472565b5090565b6000604051905090565b600080fd5b600080fd5b600080fd5b600080fd5b6000601f19601f8301169050919050565b7f4e487b7100000000000000000000000000000000000000000000000000000000600052604160045260246000fd5b620004f982620004ae565b810181811067ffffffffffffffff821117156200051b576200051a620004bf565b5b80604052505050565b60006200053062000490565b90506200053e8282620004ee565b919050565b600067ffffffffffffffff821115620005615762000560620004bf565b5b6200056c82620004ae565b9050602081019050919050565b60005b83811015620005995780820151818401526020810190506200057c565b83811115620005a9576000848401525b50505050565b6000620005c6620005c08462000543565b62000524565b905082815260208101848484011115620005e557620005e4620004a9565b5b620005f284828562000579565b509392505050565b600082601f830112620006125762000611620004a4565b5b815162000624848260208601620005af565b91505092915050565b600073ffffffffffffffffffffffffffffffffffffffff82169050919050565b60006200065a826200062d565b9050919050565b60006200066e826200064d565b9050919050565b620006808162000661565b81146200068c57600080fd5b50565b600081519050620006a08162000675565b92915050565b600080600060608486031215620006c257620006c16200049a565b5b600084015167ffffffffffffffff811115620006e357620006e26200049f565b5b620006f186828701620005fa565b935050602084015167ffffffffffffffff8111156200071557620007146200049f565b5b6200072386828701620005fa565b925050604062000736868287016200068f565b9150509250925092565b7f4e487b7100000000000000000000000000000000000000000000000000000000600052602260045260246000fd5b600060028204905060018216806200078857607f821691505b602082108114156200079f576200079e62000740565b5b50919050565b61511780620007b56000396000f3fe608060405234801561001057600080fd5b50600436106101f05760003560e01c806370a082311161010f578063c87b56dd116100a2578063e985e9c511610071578063e985e9c51461058d578063ec2606c0146105bd578063f8973b9a146105ed578063fb2990ad14610609576101f0565b8063c87b56dd14610507578063d0def52114610537578063dabb053114610553578063e01d6be614610583576101f0565b8063a217fddf116100de578063a217fddf14610493578063a22cb465146104b1578063b88d4fde146104cd578063c4e41b22146104e9576101f0565b806370a082311461040d5780637ee82bee1461043d5780638f2839701461045957806395d89b4114610475576101f0565b806323b872dd116101875780634c2ac399116101565780634c2ac399146103735780634f558e791461038f5780636352211e146103bf5780636f45e4e5146103ef576101f0565b806323b872dd1461030157806342842e0e1461031d57806342966c6814610339578063442890d514610355576101f0565b80631ae4a969116101c35780631ae4a9691461028f5780631d0b19e7146102ad5780631fe5f589146102c95780632308d236146102e5576101f0565b806301ffc9a7146101f557806306fdde0314610225578063081812fc14610243578063095ea7b314610273575b600080fd5b61020f600480360381019061020a91906131bc565b610639565b60405161021c9190613204565b60405180910390f35b61022d61071b565b60405161023a91906132b8565b60405180910390f35b61025d60048036038101906102589190613310565b6107ad565b60405161026a919061337e565b60405180910390f35b61028d600480360381019061028891906133c5565b610832565b005b61029761094a565b6040516102a49190613414565b60405180910390f35b6102c760048036038101906102c2919061342f565b610998565b005b6102e360048036038101906102de919061342f565b6109c1565b005b6102ff60048036038101906102fa919061342f565b6109ea565b005b61031b6004803603810190610316919061346f565b610a6d565b005b6103376004803603810190610332919061346f565b610acd565b005b610353600480360381019061034e9190613310565b610aed565b005b61035d610b0b565b60405161036a919061337e565b60405180910390f35b61038d600480360381019061038891906138f7565b610b35565b005b6103a960048036038101906103a49190613310565b610d52565b6040516103b69190613204565b60405180910390f35b6103d960048036038101906103d49190613310565b610d64565b6040516103e6919061337e565b60405180910390f35b6103f7610e16565b6040516104049190613414565b60405180910390f35b61042760048036038101906104229190613953565b610e1b565b6040516104349190613414565b60405180910390f35b61045760048036038101906104529190613a48565b610ed3565b005b610473600480360381019061046e9190613953565b610f40565b005b61047d610f98565b60405161048a91906132b8565b60405180910390f35b61049b61102a565b6040516104a89190613414565b60405180910390f35b6104cb60048036038101906104c69190613ae3565b61102f565b005b6104e760048036038101906104e29190613bc4565b6111b0565b005b6104f1611212565b6040516104fe9190613414565b60405180910390f35b610521600480360381019061051c9190613310565b61121c565b60405161052e91906132b8565b60405180910390f35b610551600480360381019061054c9190613c47565b6112c3565b005b61056d60048036038101906105689190613310565b611ac3565b60405161057a9190613fb3565b60405180910390f35b61058b611d05565b005b6105a760048036038101906105a29190613fd5565b611d75565b6040516105b49190613204565b60405180910390f35b6105d760048036038101906105d2919061342f565b611e09565b6040516105e49190613204565b60405180910390f35b61060760048036038101906106029190614015565b611e74565b005b610623600480360381019061061e9190613310565b611f19565b6040516106309190613414565b60405180910390f35b60007f80ac58cd000000000000000000000000000000000000000000000000000000007bffffffffffffffffffffffffffffffffffffffffffffffffffffffff1916827bffffffffffffffffffffffffffffffffffffffffffffffffffffffff1916148061070457507f5b5e139f000000000000000000000000000000000000000000000000000000007bffffffffffffffffffffffffffffffffffffffffffffffffffffffff1916827bffffffffffffffffffffffffffffffffffffffffffffffffffffffff1916145b80610714575061071382611f39565b5b9050919050565b60606000805461072a906140fa565b80601f0160208091040260200160405190810160405280929190818152602001828054610756906140fa565b80156107a35780601f10610778576101008083540402835291602001916107a3565b820191906000526020600020905b81548152906001019060200180831161078657829003601f168201915b5050505050905090565b60006107b882611fa3565b6107f7576040517f08c379a00000000000000000000000000000000000000000000000000000000081526004016107ee9061419e565b60405180910390fd5b6004600083815260200190815260200160002060009054906101000a900473ffffffffffffffffffffffffffffffffffffffff169050919050565b600061083d82610d64565b90508073ffffffffffffffffffffffffffffffffffffffff168373ffffffffffffffffffffffffffffffffffffffff1614156108ae576040517f08c379a00000000000000000000000000000000000000000000000000000000081526004016108a590614230565b60405180910390fd5b8073ffffffffffffffffffffffffffffffffffffffff166108cd61200f565b73ffffffffffffffffffffffffffffffffffffffff1614806108fc57506108fb816108f661200f565b611d75565b5b61093b576040517f08c379a0000000000000000000000000000000000000000000000000000000008152600401610932906142c2565b60405180910390fd5b6109458383612017565b505050565b600080600b5490506000600190505b600b54811161098f5761096b81611fa3565b61097c578091508192505050610995565b808061098790614311565b915050610959565b50809150505b90565b6109a182611f19565b6109b2816109ad61200f565b6120d0565b6109bc838361216a565b505050565b6109ca82611f19565b6109db816109d661200f565b6120d0565b6109e5838361224c565b505050565b6109f261200f565b73ffffffffffffffffffffffffffffffffffffffff168173ffffffffffffffffffffffffffffffffffffffff1614610a5f576040517f08c379a0000000000000000000000000000000000000000000000000000000008152600401610a56906143cc565b60405180910390fd5b610a69828261216a565b5050565b610a7e610a7861200f565b8261232d565b610abd576040517f08c379a0000000000000000000000000000000000000000000000000000000008152600401610ab49061445e565b60405180910390fd5b610ac883838361240b565b505050565b610ae8838383604051806020016040528060008152506111b0565b505050565b610aff601f610afa61200f565b6120d0565b610b0881612667565b50565b6000600760009054906101000a900473ffffffffffffffffffffffffffffffffffffffff16905090565b610b47601f610b4261200f565b6120d0565b610b5082611fa3565b610b8f576040517f08c379a0000000000000000000000000000000000000000000000000000000008152600401610b86906144ca565b60405180910390fd5b80600d60008481526020019081526020016000206000820151816000019080519060200190610bbf929190612faa565b506020820151816001015560408201518160020155606082015181600301556080820151816004015560a0820151816005015560c0820151816006015560e082015181600701556101008201518160080155610120820151816009015561014082015181600a015561016082015181600b015561018082015181600c01556101a082015181600d01556101c082015181600e01556101e082015181600f0155610200820151816010015561022082015181601101556102408201518160120155610260820151816013015561028082015181601401556102a082015181601501556102c082015181601601556102e082015181601701556103008201518160180155610320820151816019015561034082015181601a015561036082015181601b015561038082015181601c01556103a082015181601d01556103c082015181601e0160006101000a81548173ffffffffffffffffffffffffffffffffffffffff021916908373ffffffffffffffffffffffffffffffffffffffff1602179055506103e082015181601f01559050505050565b6000610d5d82611fa3565b9050919050565b6000806002600084815260200190815260200160002060009054906101000a900473ffffffffffffffffffffffffffffffffffffffff169050600073ffffffffffffffffffffffffffffffffffffffff168173ffffffffffffffffffffffffffffffffffffffff161415610e0d576040517f08c379a0000000000000000000000000000000000000000000000000000000008152600401610e049061455c565b60405180910390fd5b80915050919050565b601f81565b60008073ffffffffffffffffffffffffffffffffffffffff168273ffffffffffffffffffffffffffffffffffffffff161415610e8c576040517f08c379a0000000000000000000000000000000000000000000000000000000008152600401610e83906145ee565b60405180910390fd5b600360008373ffffffffffffffffffffffffffffffffffffffff1673ffffffffffffffffffffffffffffffffffffffff168152602001908152602001600020549050919050565b601f610ee681610ee161200f565b6120d0565b6000825111610ef457610f3a565b60005b8251811015610f3857610f258585858481518110610f1857610f1761460e565b5b6020026020010151610a6d565b8080610f3090614311565b915050610ef7565b505b50505050565b601e610f5381610f4e61200f565b6120d0565b81600760006101000a81548173ffffffffffffffffffffffffffffffffffffffff021916908373ffffffffffffffffffffffffffffffffffffffff1602179055505050565b606060018054610fa7906140fa565b80601f0160208091040260200160405190810160405280929190818152602001828054610fd3906140fa565b80156110205780601f10610ff557610100808354040283529160200191611020565b820191906000526020600020905b81548152906001019060200180831161100357829003601f168201915b5050505050905090565b601e81565b61103761200f565b73ffffffffffffffffffffffffffffffffffffffff168273ffffffffffffffffffffffffffffffffffffffff1614156110a5576040517f08c379a000000000000000000000000000000000000000000000000000000000815260040161109c90614689565b60405180910390fd5b80600560006110b261200f565b73ffffffffffffffffffffffffffffffffffffffff1673ffffffffffffffffffffffffffffffffffffffff16815260200190815260200160002060008473ffffffffffffffffffffffffffffffffffffffff1673ffffffffffffffffffffffffffffffffffffffff16815260200190815260200160002060006101000a81548160ff0219169083151502179055508173ffffffffffffffffffffffffffffffffffffffff1661115f61200f565b73ffffffffffffffffffffffffffffffffffffffff167f17307eab39ab6107e8899845ad3d59bd9653f200f220920489ca2b5937696c31836040516111a49190613204565b60405180910390a35050565b6111c16111bb61200f565b8361232d565b611200576040517f08c379a00000000000000000000000000000000000000000000000000000000081526004016111f79061445e565b60405180910390fd5b61120c8484848461276c565b50505050565b6000600b54905090565b606061122782611fa3565b611266576040517f08c379a000000000000000000000000000000000000000000000000000000000815260040161125d9061471b565b60405180910390fd5b60006112706127c8565b9050600081511161129057604051806020016040528060008152506112bb565b8061129a846127df565b6040516020016112ab929190614777565b6040516020818303038152906040525b915050919050565b6112d5601f6112d061200f565b6120d0565b6000600a60009054906101000a900473ffffffffffffffffffffffffffffffffffffffff1673ffffffffffffffffffffffffffffffffffffffff16632530c90560646040518263ffffffff1660e01b815260040161133391906147e0565b6020604051808303816000875af1158015611352573d6000803e3d6000fd5b505050506040513d601f19601f820116820180604052508101906113769190614810565b9050600060019050600060019050600080600080601987116113ab576005935060039250600291506004905060019550611404565b603287116113cc576002935060059250600491506003905060029550611403565b604b87116113ed576002935060049250600591506003905060039550611402565b60049350600392506002915060059050600495505b5b5b6000600a60009054906101000a900473ffffffffffffffffffffffffffffffffffffffff1673ffffffffffffffffffffffffffffffffffffffff16632530c90560646040518263ffffffff1660e01b815260040161146291906147e0565b6020604051808303816000875af1158015611481573d6000803e3d6000fd5b505050506040513d601f19601f820116820180604052508101906114a59190614810565b9050603e81116114b857600195506114e1565b605981116114c957600295506114e0565b606081116114da57600395506114df565b600495505b5b5b6000600187141561159e57600a60009054906101000a900473ffffffffffffffffffffffffffffffffffffffff1673ffffffffffffffffffffffffffffffffffffffff16632530c90560e16040518263ffffffff1660e01b81526004016115489190614878565b6020604051808303816000875af1158015611567573d6000803e3d6000fd5b505050506040513d601f19601f8201168201806040525081019061158b9190614810565b604b6115979190614893565b90506117c8565b600287141561165a57600a60009054906101000a900473ffffffffffffffffffffffffffffffffffffffff1673ffffffffffffffffffffffffffffffffffffffff16632530c90560fa6040518263ffffffff1660e01b81526004016116039190614924565b6020604051808303816000875af1158015611622573d6000803e3d6000fd5b505050506040513d601f19601f820116820180604052508101906116469190614810565b61012c6116539190614893565b90506117c7565b600387141561171657600a60009054906101000a900473ffffffffffffffffffffffffffffffffffffffff1673ffffffffffffffffffffffffffffffffffffffff16632530c90560786040518263ffffffff1660e01b81526004016116bf919061497a565b6020604051808303816000875af11580156116de573d6000803e3d6000fd5b505050506040513d601f19601f820116820180604052508101906117029190614810565b61022661170f9190614893565b90506117c6565b600a60009054906101000a900473ffffffffffffffffffffffffffffffffffffffff1673ffffffffffffffffffffffffffffffffffffffff16632530c90561012c6040518263ffffffff1660e01b815260040161177391906149d0565b6020604051808303816000875af1158015611792573d6000803e3d6000fd5b505050506040513d601f19601f820116820180604052508101906117b69190614810565b6102bc6117c39190614893565b90505b5b5b60006117d261094a565b90506040518061040001604052808c81526020018a8152602001898152602001600281526020016000815260200183815260200160018152602001600081526020016032815260200160328152602001888152602001878152602001868152602001858152602001600081526020016000815260200160008152602001600081526020016000815260200160008152602001600081526020016000815260200160008152602001600081526020016000815260200160008152602001600081526020016000815260200160008152602001600081526020018d73ffffffffffffffffffffffffffffffffffffffff16815260200182815250600d600083815260200190815260200160002060008201518160000190805190602001906118f9929190612faa565b506020820151816001015560408201518160020155606082015181600301556080820151816004015560a0820151816005015560c0820151816006015560e082015181600701556101008201518160080155610120820151816009015561014082015181600a015561016082015181600b015561018082015181600c01556101a082015181600d01556101c082015181600e01556101e082015181600f0155610200820151816010015561022082015181601101556102408201518160120155610260820151816013015561028082015181601401556102a082015181601501556102c082015181601601556102e082015181601701556103008201518160180155610320820151816019015561034082015181601a015561036082015181601b015561038082015181601c01556103a082015181601d01556103c082015181601e0160006101000a81548173ffffffffffffffffffffffffffffffffffffffff021916908373ffffffffffffffffffffffffffffffffffffffff1602179055506103e082015181601f0155905050611a928c82612940565b600b54811415611ab557600b6000815480929190611aaf90614311565b91905055505b505050505050505050505050565b611acb613030565b600d600083815260200190815260200160002060405180610400016040529081600082018054611afa906140fa565b80601f0160208091040260200160405190810160405280929190818152602001828054611b26906140fa565b8015611b735780601f10611b4857610100808354040283529160200191611b73565b820191906000526020600020905b815481529060010190602001808311611b5657829003601f168201915b50505050508152602001600182015481526020016002820154815260200160038201548152602001600482015481526020016005820154815260200160068201548152602001600782015481526020016008820154815260200160098201548152602001600a8201548152602001600b8201548152602001600c8201548152602001600d8201548152602001600e8201548152602001600f820154815260200160108201548152602001601182015481526020016012820154815260200160138201548152602001601482015481526020016015820154815260200160168201548152602001601782015481526020016018820154815260200160198201548152602001601a8201548152602001601b8201548152602001601c8201548152602001601d8201548152602001601e820160009054906101000a900473ffffffffffffffffffffffffffffffffffffffff1673ffffffffffffffffffffffffffffffffffffffff1673ffffffffffffffffffffffffffffffffffffffff168152602001601f820154815250509050919050565b611d17601f611d1261200f565b6120d0565b6000600190505b600b54811015611d7257611d3181611fa3565b15611d5f576000600d6000838152602001908152602001600020601b015414611d5e57611d5d81612667565b5b5b8080611d6a90614311565b915050611d1e565b50565b6000600560008473ffffffffffffffffffffffffffffffffffffffff1673ffffffffffffffffffffffffffffffffffffffff16815260200190815260200160002060008373ffffffffffffffffffffffffffffffffffffffff1673ffffffffffffffffffffffffffffffffffffffff16815260200190815260200160002060009054906101000a900460ff16905092915050565b60006006600084815260200190815260200160002060000160008373ffffffffffffffffffffffffffffffffffffffff1673ffffffffffffffffffffffffffffffffffffffff16815260200190815260200160002060009054906101000a900460ff16905092915050565b60001515600c60009054906101000a900460ff1615151415611f0f57611e9b601f89612b0e565b611ea6601f88612b0e565b611eb1601f87612b0e565b611ebc601f86612b0e565b611ec7601f85612b0e565b611ed2601f84612b0e565b611edd601f83612b0e565b611ee8601f82612b0e565b611ef3601e33612b0e565b6001600c60006101000a81548160ff0219169083151502179055505b5050505050505050565b600060066000838152602001908152602001600020600101549050919050565b60007f01ffc9a7000000000000000000000000000000000000000000000000000000007bffffffffffffffffffffffffffffffffffffffffffffffffffffffff1916827bffffffffffffffffffffffffffffffffffffffffffffffffffffffff1916149050919050565b60008073ffffffffffffffffffffffffffffffffffffffff166002600084815260200190815260200160002060009054906101000a900473ffffffffffffffffffffffffffffffffffffffff1673ffffffffffffffffffffffffffffffffffffffff1614159050919050565b600033905090565b816004600083815260200190815260200160002060006101000a81548173ffffffffffffffffffffffffffffffffffffffff021916908373ffffffffffffffffffffffffffffffffffffffff160217905550808273ffffffffffffffffffffffffffffffffffffffff1661208a83610d64565b73ffffffffffffffffffffffffffffffffffffffff167f8c5be1e5ebec7d5bd14f71427d1e84f3dd0314c0f7b2291e5b200ac8c7c3b92560405160405180910390a45050565b6120da8282611e09565b612166576120ff8173ffffffffffffffffffffffffffffffffffffffff166014612b1c565b61210a836020612b1c565b60405160200161211b929190614a83565b6040516020818303038152906040526040517f08c379a000000000000000000000000000000000000000000000000000000000815260040161215d91906132b8565b60405180910390fd5b5050565b6121748282611e09565b156122485760006006600084815260200190815260200160002060000160008373ffffffffffffffffffffffffffffffffffffffff1673ffffffffffffffffffffffffffffffffffffffff16815260200190815260200160002060006101000a81548160ff0219169083151502179055506121ed61200f565b73ffffffffffffffffffffffffffffffffffffffff168173ffffffffffffffffffffffffffffffffffffffff16837fe0df21b65c73c27081b8f042a012b124085b41d78d27b7e3c4780f5650f5ebb860405160405180910390a45b5050565b6122568282611e09565b6123295760016006600084815260200190815260200160002060000160008373ffffffffffffffffffffffffffffffffffffffff1673ffffffffffffffffffffffffffffffffffffffff16815260200190815260200160002060006101000a81548160ff0219169083151502179055506122ce61200f565b73ffffffffffffffffffffffffffffffffffffffff168173ffffffffffffffffffffffffffffffffffffffff16837f1ec1667fba5e43c5c76fff54e76d7a4a20a4fecf7b49724ad8d52a3f726e9dbd60405160405180910390a45b5050565b600061233882611fa3565b612377576040517f08c379a000000000000000000000000000000000000000000000000000000000815260040161236e90614b2f565b60405180910390fd5b600061238283610d64565b90508073ffffffffffffffffffffffffffffffffffffffff168473ffffffffffffffffffffffffffffffffffffffff1614806123f157508373ffffffffffffffffffffffffffffffffffffffff166123d9846107ad565b73ffffffffffffffffffffffffffffffffffffffff16145b8061240257506124018185611d75565b5b91505092915050565b8273ffffffffffffffffffffffffffffffffffffffff1661242b82610d64565b73ffffffffffffffffffffffffffffffffffffffff1614612481576040517f08c379a000000000000000000000000000000000000000000000000000000000815260040161247890614bc1565b60405180910390fd5b600073ffffffffffffffffffffffffffffffffffffffff168273ffffffffffffffffffffffffffffffffffffffff1614156124f1576040517f08c379a00000000000000000000000000000000000000000000000000000000081526004016124e890614c53565b60405180910390fd5b6124fc838383612d58565b612507600082612017565b6001600360008573ffffffffffffffffffffffffffffffffffffffff1673ffffffffffffffffffffffffffffffffffffffff16815260200190815260200160002060008282546125579190614c73565b925050819055506001600360008473ffffffffffffffffffffffffffffffffffffffff1673ffffffffffffffffffffffffffffffffffffffff16815260200190815260200160002060008282546125ae9190614893565b92505081905550816002600083815260200190815260200160002060006101000a81548173ffffffffffffffffffffffffffffffffffffffff021916908373ffffffffffffffffffffffffffffffffffffffff160217905550808273ffffffffffffffffffffffffffffffffffffffff168473ffffffffffffffffffffffffffffffffffffffff167fddf252ad1be2c89b69c2b068fc378daa952ba7f163c4a11628f55a4df523b3ef60405160405180910390a4505050565b600061267282610d64565b905061267f600083612017565b6001600360008373ffffffffffffffffffffffffffffffffffffffff1673ffffffffffffffffffffffffffffffffffffffff16815260200190815260200160002060008282546126cf9190614c73565b925050819055506002600083815260200190815260200160002060006101000a81549073ffffffffffffffffffffffffffffffffffffffff021916905581600073ffffffffffffffffffffffffffffffffffffffff168273ffffffffffffffffffffffffffffffffffffffff167fddf252ad1be2c89b69c2b068fc378daa952ba7f163c4a11628f55a4df523b3ef60405160405180910390a45050565b61277784848461240b565b61278384848484612e0f565b6127c2576040517f08c379a00000000000000000000000000000000000000000000000000000000081526004016127b990614d19565b60405180910390fd5b50505050565b606060405180602001604052806000815250905090565b60606000821415612827576040518060400160405280600181526020017f3000000000000000000000000000000000000000000000000000000000000000815250905061293b565b600082905060005b6000821461285957808061284290614311565b915050600a826128529190614d68565b915061282f565b60008167ffffffffffffffff811115612875576128746134c7565b5b6040519080825280601f01601f1916602001820160405280156128a75781602001600182028036833780820191505090505b5090505b60008514612934576001826128c09190614c73565b9150600a856128cf9190614d99565b60306128db9190614893565b60f81b8183815181106128f1576128f061460e565b5b60200101907effffffffffffffffffffffffffffffffffffffffffffffffffffffffffffff1916908160001a905350600a8561292d9190614d68565b94506128ab565b8093505050505b919050565b600073ffffffffffffffffffffffffffffffffffffffff168273ffffffffffffffffffffffffffffffffffffffff1614156129b0576040517f08c379a00000000000000000000000000000000000000000000000000000000081526004016129a790614e16565b60405180910390fd5b6129b981611fa3565b156129f9576040517f08c379a00000000000000000000000000000000000000000000000000000000081526004016129f090614e82565b60405180910390fd5b612a0560008383612d58565b6001600360008473ffffffffffffffffffffffffffffffffffffffff1673ffffffffffffffffffffffffffffffffffffffff1681526020019081526020016000206000828254612a559190614893565b92505081905550816002600083815260200190815260200160002060006101000a81548173ffffffffffffffffffffffffffffffffffffffff021916908373ffffffffffffffffffffffffffffffffffffffff160217905550808273ffffffffffffffffffffffffffffffffffffffff16600073ffffffffffffffffffffffffffffffffffffffff167fddf252ad1be2c89b69c2b068fc378daa952ba7f163c4a11628f55a4df523b3ef60405160405180910390a45050565b612b18828261224c565b5050565b606060006002836002612b2f9190614ea2565b612b399190614893565b67ffffffffffffffff811115612b5257612b516134c7565b5b6040519080825280601f01601f191660200182016040528015612b845781602001600182028036833780820191505090505b5090507f300000000000000000000000000000000000000000000000000000000000000081600081518110612bbc57612bbb61460e565b5b60200101907effffffffffffffffffffffffffffffffffffffffffffffffffffffffffffff1916908160001a9053507f780000000000000000000000000000000000000000000000000000000000000081600181518110612c2057612c1f61460e565b5b60200101907effffffffffffffffffffffffffffffffffffffffffffffffffffffffffffff1916908160001a90535060006001846002612c609190614ea2565b612c6a9190614893565b90505b6001811115612d0a577f3031323334353637383961626364656600000000000000000000000000000000600f861660108110612cac57612cab61460e565b5b1a60f81b828281518110612cc357612cc261460e565b5b60200101907effffffffffffffffffffffffffffffffffffffffffffffffffffffffffffff1916908160001a905350600485901c945080612d0390614efc565b9050612c6d565b5060008414612d4e576040517f08c379a0000000000000000000000000000000000000000000000000000000008152600401612d4590614f72565b60405180910390fd5b8091505092915050565b6000600d60008381526020019081526020016000209050600081601a0154148015612d875750600081601b0154145b612dc6576040517f08c379a0000000000000000000000000000000000000000000000000000000008152600401612dbd90614fde565b60405180910390fd5b8281601e0160006101000a81548173ffffffffffffffffffffffffffffffffffffffff021916908373ffffffffffffffffffffffffffffffffffffffff16021790555050505050565b6000612e308473ffffffffffffffffffffffffffffffffffffffff16612f97565b15612f8a578373ffffffffffffffffffffffffffffffffffffffff1663150b7a02612e5961200f565b8786866040518563ffffffff1660e01b8152600401612e7b9493929190615053565b6020604051808303816000875af1925050508015612eb757506040513d601f19601f82011682018060405250810190612eb491906150b4565b60015b612f3a573d8060008114612ee7576040519150601f19603f3d011682016040523d82523d6000602084013e612eec565b606091505b50600081511415612f32576040517f08c379a0000000000000000000000000000000000000000000000000000000008152600401612f2990614d19565b60405180910390fd5b805181602001fd5b63150b7a0260e01b7bffffffffffffffffffffffffffffffffffffffffffffffffffffffff1916817bffffffffffffffffffffffffffffffffffffffffffffffffffffffff191614915050612f8f565b600190505b949350505050565b600080823b905060008111915050919050565b828054612fb6906140fa565b90600052602060002090601f016020900481019282612fd8576000855561301f565b82601f10612ff157805160ff191683800117855561301f565b8280016001018555821561301f579182015b8281111561301e578251825591602001919060010190613003565b5b50905061302c9190613133565b5090565b604051806104000160405280606081526020016000815260200160008152602001600081526020016000815260200160008152602001600081526020016000815260200160008152602001600081526020016000815260200160008152602001600081526020016000815260200160008152602001600081526020016000815260200160008152602001600081526020016000815260200160008152602001600081526020016000815260200160008152602001600081526020016000815260200160008152602001600081526020016000815260200160008152602001600073ffffffffffffffffffffffffffffffffffffffff168152602001600081525090565b5b8082111561314c576000816000905550600101613134565b5090565b6000604051905090565b600080fd5b600080fd5b60007fffffffff0000000000000000000000000000000000000000000000000000000082169050919050565b61319981613164565b81146131a457600080fd5b50565b6000813590506131b681613190565b92915050565b6000602082840312156131d2576131d161315a565b5b60006131e0848285016131a7565b91505092915050565b60008115159050919050565b6131fe816131e9565b82525050565b600060208201905061321960008301846131f5565b92915050565b600081519050919050565b600082825260208201905092915050565b60005b8381101561325957808201518184015260208101905061323e565b83811115613268576000848401525b50505050565b6000601f19601f8301169050919050565b600061328a8261321f565b613294818561322a565b93506132a481856020860161323b565b6132ad8161326e565b840191505092915050565b600060208201905081810360008301526132d2818461327f565b905092915050565b6000819050919050565b6132ed816132da565b81146132f857600080fd5b50565b60008135905061330a816132e4565b92915050565b6000602082840312156133265761332561315a565b5b6000613334848285016132fb565b91505092915050565b600073ffffffffffffffffffffffffffffffffffffffff82169050919050565b60006133688261333d565b9050919050565b6133788161335d565b82525050565b6000602082019050613393600083018461336f565b92915050565b6133a28161335d565b81146133ad57600080fd5b50565b6000813590506133bf81613399565b92915050565b600080604083850312156133dc576133db61315a565b5b60006133ea858286016133b0565b92505060206133fb858286016132fb565b9150509250929050565b61340e816132da565b82525050565b60006020820190506134296000830184613405565b92915050565b600080604083850312156134465761344561315a565b5b6000613454858286016132fb565b9250506020613465858286016133b0565b9150509250929050565b6000806000606084860312156134885761348761315a565b5b6000613496868287016133b0565b93505060206134a7868287016133b0565b92505060406134b8868287016132fb565b9150509250925092565b600080fd5b7f4e487b7100000000000000000000000000000000000000000000000000000000600052604160045260246000fd5b6134ff8261326e565b810181811067ffffffffffffffff8211171561351e5761351d6134c7565b5b80604052505050565b6000613531613150565b905061353d82826134f6565b919050565b600080fd5b600080fd5b600080fd5b600067ffffffffffffffff82111561356c5761356b6134c7565b5b6135758261326e565b9050602081019050919050565b82818337600083830152505050565b60006135a461359f84613551565b613527565b9050828152602081018484840111156135c0576135bf61354c565b5b6135cb848285613582565b509392505050565b600082601f8301126135e8576135e7613547565b5b81356135f8848260208601613591565b91505092915050565b60006104008284031215613618576136176134c2565b5b613623610400613527565b9050600082013567ffffffffffffffff81111561364357613642613542565b5b61364f848285016135d3565b6000830152506020613663848285016132fb565b6020830152506040613677848285016132fb565b604083015250606061368b848285016132fb565b606083015250608061369f848285016132fb565b60808301525060a06136b3848285016132fb565b60a08301525060c06136c7848285016132fb565b60c08301525060e06136db848285016132fb565b60e0830152506101006136f0848285016132fb565b61010083015250610120613706848285016132fb565b6101208301525061014061371c848285016132fb565b61014083015250610160613732848285016132fb565b61016083015250610180613748848285016132fb565b610180830152506101a061375e848285016132fb565b6101a0830152506101c0613774848285016132fb565b6101c0830152506101e061378a848285016132fb565b6101e0830152506102006137a0848285016132fb565b610200830152506102206137b6848285016132fb565b610220830152506102406137cc848285016132fb565b610240830152506102606137e2848285016132fb565b610260830152506102806137f8848285016132fb565b610280830152506102a061380e848285016132fb565b6102a0830152506102c0613824848285016132fb565b6102c0830152506102e061383a848285016132fb565b6102e083015250610300613850848285016132fb565b61030083015250610320613866848285016132fb565b6103208301525061034061387c848285016132fb565b61034083015250610360613892848285016132fb565b610360830152506103806138a8848285016132fb565b610380830152506103a06138be848285016132fb565b6103a0830152506103c06138d4848285016133b0565b6103c0830152506103e06138ea848285016132fb565b6103e08301525092915050565b6000806040838503121561390e5761390d61315a565b5b600061391c858286016132fb565b925050602083013567ffffffffffffffff81111561393d5761393c61315f565b5b61394985828601613601565b9150509250929050565b6000602082840312156139695761396861315a565b5b6000613977848285016133b0565b91505092915050565b600067ffffffffffffffff82111561399b5761399a6134c7565b5b602082029050602081019050919050565b600080fd5b60006139c46139bf84613980565b613527565b905080838252602082019050602084028301858111156139e7576139e66139ac565b5b835b81811015613a1057806139fc88826132fb565b8452602084019350506020810190506139e9565b5050509392505050565b600082601f830112613a2f57613a2e613547565b5b8135613a3f8482602086016139b1565b91505092915050565b600080600060608486031215613a6157613a6061315a565b5b6000613a6f868287016133b0565b9350506020613a80868287016133b0565b925050604084013567ffffffffffffffff811115613aa157613aa061315f565b5b613aad86828701613a1a565b9150509250925092565b613ac0816131e9565b8114613acb57600080fd5b50565b600081359050613add81613ab7565b92915050565b60008060408385031215613afa57613af961315a565b5b6000613b08858286016133b0565b9250506020613b1985828601613ace565b9150509250929050565b600067ffffffffffffffff821115613b3e57613b3d6134c7565b5b613b478261326e565b9050602081019050919050565b6000613b67613b6284613b23565b613527565b905082815260208101848484011115613b8357613b8261354c565b5b613b8e848285613582565b509392505050565b600082601f830112613bab57613baa613547565b5b8135613bbb848260208601613b54565b91505092915050565b60008060008060808587031215613bde57613bdd61315a565b5b6000613bec878288016133b0565b9450506020613bfd878288016133b0565b9350506040613c0e878288016132fb565b925050606085013567ffffffffffffffff811115613c2f57613c2e61315f565b5b613c3b87828801613b96565b91505092959194509250565b60008060408385031215613c5e57613c5d61315a565b5b6000613c6c858286016133b0565b925050602083013567ffffffffffffffff811115613c8d57613c8c61315f565b5b613c99858286016135d3565b9150509250929050565b600082825260208201905092915050565b6000613cbf8261321f565b613cc98185613ca3565b9350613cd981856020860161323b565b613ce28161326e565b840191505092915050565b613cf6816132da565b82525050565b613d058161335d565b82525050565b6000610400830160008301518482036000860152613d298282613cb4565b9150506020830151613d3e6020860182613ced565b506040830151613d516040860182613ced565b506060830151613d646060860182613ced565b506080830151613d776080860182613ced565b5060a0830151613d8a60a0860182613ced565b5060c0830151613d9d60c0860182613ced565b5060e0830151613db060e0860182613ced565b50610100830151613dc5610100860182613ced565b50610120830151613dda610120860182613ced565b50610140830151613def610140860182613ced565b50610160830151613e04610160860182613ced565b50610180830151613e19610180860182613ced565b506101a0830151613e2e6101a0860182613ced565b506101c0830151613e436101c0860182613ced565b506101e0830151613e586101e0860182613ced565b50610200830151613e6d610200860182613ced565b50610220830151613e82610220860182613ced565b50610240830151613e97610240860182613ced565b50610260830151613eac610260860182613ced565b50610280830151613ec1610280860182613ced565b506102a0830151613ed66102a0860182613ced565b506102c0830151613eeb6102c0860182613ced565b506102e0830151613f006102e0860182613ced565b50610300830151613f15610300860182613ced565b50610320830151613f2a610320860182613ced565b50610340830151613f3f610340860182613ced565b50610360830151613f54610360860182613ced565b50610380830151613f69610380860182613ced565b506103a0830151613f7e6103a0860182613ced565b506103c0830151613f936103c0860182613cfc565b506103e0830151613fa86103e0860182613ced565b508091505092915050565b60006020820190508181036000830152613fcd8184613d0b565b905092915050565b60008060408385031215613fec57613feb61315a565b5b6000613ffa858286016133b0565b925050602061400b858286016133b0565b9150509250929050565b600080600080600080600080610100898b0312156140365761403561315a565b5b60006140448b828c016133b0565b98505060206140558b828c016133b0565b97505060406140668b828c016133b0565b96505060606140778b828c016133b0565b95505060806140888b828c016133b0565b94505060a06140998b828c016133b0565b93505060c06140aa8b828c016133b0565b92505060e06140bb8b828c016133b0565b9150509295985092959890939650565b7f4e487b7100000000000000000000000000000000000000000000000000000000600052602260045260246000fd5b6000600282049050600182168061411257607f821691505b60208210811415614126576141256140cb565b5b50919050565b7f4552433732313a20617070726f76656420717565727920666f72206e6f6e657860008201527f697374656e7420746f6b656e0000000000000000000000000000000000000000602082015250565b6000614188602c8361322a565b91506141938261412c565b604082019050919050565b600060208201905081810360008301526141b78161417b565b9050919050565b7f4552433732313a20617070726f76616c20746f2063757272656e74206f776e6560008201527f7200000000000000000000000000000000000000000000000000000000000000602082015250565b600061421a60218361322a565b9150614225826141be565b604082019050919050565b600060208201905081810360008301526142498161420d565b9050919050565b7f4552433732313a20617070726f76652063616c6c6572206973206e6f74206f7760008201527f6e6572206e6f7220617070726f76656420666f7220616c6c0000000000000000602082015250565b60006142ac60388361322a565b91506142b782614250565b604082019050919050565b600060208201905081810360008301526142db8161429f565b9050919050565b7f4e487b7100000000000000000000000000000000000000000000000000000000600052601160045260246000fd5b600061431c826132da565b91507fffffffffffffffffffffffffffffffffffffffffffffffffffffffffffffffff82141561434f5761434e6142e2565b5b600182019050919050565b7f416363657373436f6e74726f6c3a2063616e206f6e6c792072656e6f756e636560008201527f20726f6c657320666f722073656c660000000000000000000000000000000000602082015250565b60006143b6602f8361322a565b91506143c18261435a565b604082019050919050565b600060208201905081810360008301526143e5816143a9565b9050919050565b7f4552433732313a207472616e736665722063616c6c6572206973206e6f74206f60008201527f776e6572206e6f7220617070726f766564000000000000000000000000000000602082015250565b600061444860318361322a565b9150614453826143ec565b604082019050919050565b600060208201905081810360008301526144778161443b565b9050919050565b7f6e6f204578697374000000000000000000000000000000000000000000000000600082015250565b60006144b460088361322a565b91506144bf8261447e565b602082019050919050565b600060208201905081810360008301526144e3816144a7565b9050919050565b7f4552433732313a206f776e657220717565727920666f72206e6f6e657869737460008201527f656e7420746f6b656e0000000000000000000000000000000000000000000000602082015250565b600061454660298361322a565b9150614551826144ea565b604082019050919050565b6000602082019050818103600083015261457581614539565b9050919050565b7f4552433732313a2062616c616e636520717565727920666f7220746865207a6560008201527f726f206164647265737300000000000000000000000000000000000000000000602082015250565b60006145d8602a8361322a565b91506145e38261457c565b604082019050919050565b60006020820190508181036000830152614607816145cb565b9050919050565b7f4e487b7100000000000000000000000000000000000000000000000000000000600052603260045260246000fd5b7f4552433732313a20617070726f766520746f2063616c6c657200000000000000600082015250565b600061467360198361322a565b915061467e8261463d565b602082019050919050565b600060208201905081810360008301526146a281614666565b9050919050565b7f4552433732314d657461646174613a2055524920717565727920666f72206e6f60008201527f6e6578697374656e7420746f6b656e0000000000000000000000000000000000602082015250565b6000614705602f8361322a565b9150614710826146a9565b604082019050919050565b60006020820190508181036000830152614734816146f8565b9050919050565b600081905092915050565b60006147518261321f565b61475b818561473b565b935061476b81856020860161323b565b80840191505092915050565b60006147838285614746565b915061478f8284614746565b91508190509392505050565b6000819050919050565b6000819050919050565b60006147ca6147c56147c08461479b565b6147a5565b6132da565b9050919050565b6147da816147af565b82525050565b60006020820190506147f560008301846147d1565b92915050565b60008151905061480a816132e4565b92915050565b6000602082840312156148265761482561315a565b5b6000614834848285016147fb565b91505092915050565b6000819050919050565b600061486261485d6148588461483d565b6147a5565b6132da565b9050919050565b61487281614847565b82525050565b600060208201905061488d6000830184614869565b92915050565b600061489e826132da565b91506148a9836132da565b9250827fffffffffffffffffffffffffffffffffffffffffffffffffffffffffffffffff038211156148de576148dd6142e2565b5b828201905092915050565b6000819050919050565b600061490e614909614904846148e9565b6147a5565b6132da565b9050919050565b61491e816148f3565b82525050565b60006020820190506149396000830184614915565b92915050565b6000819050919050565b600061496461495f61495a8461493f565b6147a5565b6132da565b9050919050565b61497481614949565b82525050565b600060208201905061498f600083018461496b565b92915050565b6000819050919050565b60006149ba6149b56149b084614995565b6147a5565b6132da565b9050919050565b6149ca8161499f565b82525050565b60006020820190506149e560008301846149c1565b92915050565b7f416363657373436f6e74726f6c3a206163636f756e7420000000000000000000600082015250565b6000614a2160178361473b565b9150614a2c826149eb565b601782019050919050565b7f206973206d697373696e6720726f6c6520000000000000000000000000000000600082015250565b6000614a6d60118361473b565b9150614a7882614a37565b601182019050919050565b6000614a8e82614a14565b9150614a9a8285614746565b9150614aa582614a60565b9150614ab18284614746565b91508190509392505050565b7f4552433732313a206f70657261746f7220717565727920666f72206e6f6e657860008201527f697374656e7420746f6b656e0000000000000000000000000000000000000000602082015250565b6000614b19602c8361322a565b9150614b2482614abd565b604082019050919050565b60006020820190508181036000830152614b4881614b0c565b9050919050565b7f4552433732313a207472616e73666572206f6620746f6b656e2074686174206960008201527f73206e6f74206f776e0000000000000000000000000000000000000000000000602082015250565b6000614bab60298361322a565b9150614bb682614b4f565b604082019050919050565b60006020820190508181036000830152614bda81614b9e565b9050919050565b7f4552433732313a207472616e7366657220746f20746865207a65726f2061646460008201527f7265737300000000000000000000000000000000000000000000000000000000602082015250565b6000614c3d60248361322a565b9150614c4882614be1565b604082019050919050565b60006020820190508181036000830152614c6c81614c30565b9050919050565b6000614c7e826132da565b9150614c89836132da565b925082821015614c9c57614c9b6142e2565b5b828203905092915050565b7f4552433732313a207472616e7366657220746f206e6f6e20455243373231526560008201527f63656976657220696d706c656d656e7465720000000000000000000000000000602082015250565b6000614d0360328361322a565b9150614d0e82614ca7565b604082019050919050565b60006020820190508181036000830152614d3281614cf6565b9050919050565b7f4e487b7100000000000000000000000000000000000000000000000000000000600052601260045260246000fd5b6000614d73826132da565b9150614d7e836132da565b925082614d8e57614d8d614d39565b5b828204905092915050565b6000614da4826132da565b9150614daf836132da565b925082614dbf57614dbe614d39565b5b828206905092915050565b7f4552433732313a206d696e7420746f20746865207a65726f2061646472657373600082015250565b6000614e0060208361322a565b9150614e0b82614dca565b602082019050919050565b60006020820190508181036000830152614e2f81614df3565b9050919050565b7f4552433732313a20746f6b656e20616c7265616479206d696e74656400000000600082015250565b6000614e6c601c8361322a565b9150614e7782614e36565b602082019050919050565b60006020820190508181036000830152614e9b81614e5f565b9050919050565b6000614ead826132da565b9150614eb8836132da565b9250817fffffffffffffffffffffffffffffffffffffffffffffffffffffffffffffffff0483118215151615614ef157614ef06142e2565b5b828202905092915050565b6000614f07826132da565b91506000821415614f1b57614f1a6142e2565b5b600182039050919050565b7f537472696e67733a20686578206c656e67746820696e73756666696369656e74600082015250565b6000614f5c60208361322a565b9150614f6782614f26565b602082019050919050565b60006020820190508181036000830152614f8b81614f4f565b9050919050565b7f6e6f207472616e73666572206368617261637465727320696e20736561736f6e600082015250565b6000614fc860208361322a565b9150614fd382614f92565b602082019050919050565b60006020820190508181036000830152614ff781614fbb565b9050919050565b600081519050919050565b600082825260208201905092915050565b600061502582614ffe565b61502f8185615009565b935061503f81856020860161323b565b6150488161326e565b840191505092915050565b6000608082019050615068600083018761336f565b615075602083018661336f565b6150826040830185613405565b8181036060830152615094818461501a565b905095945050505050565b6000815190506150ae81613190565b92915050565b6000602082840312156150ca576150c961315a565b5b60006150d88482850161509f565b9150509291505056fea2646970667358221220204ccdd60ba90dee02744e71674112cba533e799ebdc1042165a8da9deadba3b64736f6c634300080a0033",
  "immutableReferences": {},
  "source": "// SPDX-License-Identifier: UNLICENSED\r\npragma solidity >=0.4.22 <0.9.0;\r\n\r\n/**\r\n * @title SampleBEP20Token\r\n * @dev Very simple BEP20 Token example, where all tokens are pre-assigned to the creator.\r\n * Note they can later distribute these tokens as they wish using `transfer` and other\r\n * `BEP20` functions.\r\n * USE IT ONLY FOR LEARNING PURPOSES. SHOULD BE MODIFIED FOR PRODUCTION\r\n */\r\n \r\n\r\nimport \"../../node_modules/@openzeppelin/contracts/token/ERC721/ERC721.sol\";\r\nimport \"./../utils/Admin.sol\";\r\nimport \"./../utils/Utils.sol\";\r\n\r\nstruct CharacterDetail\r\n{\r\n    string name;\r\n    uint256 class; // (1 = ladrao, 2 = gangster, 3 = empresario, 4 = traficante)\r\n    uint256 rarity;\r\n    uint256 respect;\r\n    uint256 vicio;\r\n    uint256 power;\r\n    uint256 level;\r\n    uint256 exp;\r\n    uint256 maxHp;\r\n    uint256 curHp;\r\n    uint256 _str;\r\n    uint256 _int;\r\n    uint256 _cha;\r\n    uint256 _res;\r\n\r\n    uint256 lastExpedition;\r\n    uint256 lastExpeditionResult;\r\n    uint256 lastExpeditionRoll;\r\n    uint256 prisonTime;\r\n    uint256 nurseTime;\r\n    uint256 coleteTime;\r\n    uint256 lastPvP;\r\n    uint256 lastPvPResult;\r\n    uint256 lastPvPRoll;\r\n    uint256 pvpDefeatCount;\r\n    uint256 pvpDefeatTime;\r\n\r\n    uint256 guildId;\r\n    uint256 weaponId;\r\n    uint256 seasonId;\r\n    uint256 prisonPrice;\r\n    uint256 hospitalPrice;\r\n    address owner;\r\n    uint256 tokenId;\r\n}\r\n\r\ncontract Character is ERC721, Admin {\r\n    address private _contractowner;\r\n    address private _secondowner;\r\n    uint256 private lastSeed = 0;\r\n\r\n    Utils private utils;\r\n\r\n    uint256 private nextId = 1;\r\n\r\n    bool private Initialized;\r\n\r\n    mapping( uint256 => CharacterDetail) private _tokenStorage;\r\n\r\n    constructor(string memory name, string memory symbol, Utils _ut) Admin() ERC721(name, symbol)\r\n    {\r\n        _contractowner = msg.sender;\r\n        _secondowner = address(0xbf752Eb4b851B241A36e22767b304ef28242198A);\r\n        utils = _ut;\r\n\r\n        _setRoleAdmin(DEFAULT_ADMIN_ROLE, DEFAULT_ADMIN_ROLE);\r\n        _setRoleAdmin(DEFAULT_CORE_ROLE, DEFAULT_ADMIN_ROLE);\r\n        _setupRole(DEFAULT_ADMIN_ROLE, msg.sender);\r\n        _setupRole(DEFAULT_ADMIN_ROLE, _secondowner);\r\n        Initialized = false;\r\n    }\r\n\r\n    function Initialize(address _characterUtils, address _ranking, address _Core, address _CoreIn, address _Robbery, address _PvP, address _Equipment, address _HospitalPrice) public\r\n    {\r\n        if(Initialized == false)\r\n        {\r\n            _setupRole(DEFAULT_CORE_ROLE, _characterUtils);\r\n            _setupRole(DEFAULT_CORE_ROLE, _ranking);\r\n            _setupRole(DEFAULT_CORE_ROLE, _Core);\r\n            _setupRole(DEFAULT_CORE_ROLE, _CoreIn);\r\n            _setupRole(DEFAULT_CORE_ROLE, _Robbery);\r\n            _setupRole(DEFAULT_CORE_ROLE, _PvP);\r\n            _setupRole(DEFAULT_CORE_ROLE, _Equipment);\r\n            _setupRole(DEFAULT_CORE_ROLE, _HospitalPrice);\r\n            _setupRole(DEFAULT_ADMIN_ROLE, msg.sender);\r\n            Initialized = true;\r\n        }\r\n    }\r\n\r\n    function getIndexSlot() public view returns (uint256)\r\n    {\r\n        uint256 result = nextId;\r\n        for(uint256 x = 1; x <= nextId; x++)\r\n        {\r\n            if(!_exists(x))\r\n            {\r\n                result = x;\r\n                return result;\r\n            }\r\n        }\r\n        return result;\r\n    }\r\n\r\n    function changeAdmin(address newAdmin) public onlyRole(DEFAULT_ADMIN_ROLE)\r\n    {\r\n        _contractowner = newAdmin;\r\n    }\r\n\r\n    function getCharacter(uint256 tokenId) public view returns (CharacterDetail memory)\r\n    {\r\n        //require(_exists(tokenId), \"Non Exists\");\r\n        return _tokenStorage[tokenId];\r\n    }\r\n    \r\n    function UpdateCharacter(uint256 tokenId, CharacterDetail memory _char) onlyCore() public\r\n    {\r\n        require(_exists(tokenId), \"no Exist\");\r\n        _tokenStorage[tokenId] = _char;\r\n    }\r\n\r\n    function getContractOwner() public view returns (address)\r\n    {\r\n        return _contractowner;\r\n    }\r\n\r\n    function getTotalSupply() public view returns (uint256)\r\n    {\r\n        return nextId;\r\n    }\r\n\r\n    function mint(address addr, string memory _name) onlyCore() public {\r\n\r\n        uint256 _randChar = utils.rand(100);\r\n        uint256 _class = 1;\r\n        uint256 _rarity = 1;\r\n\r\n        uint256 _str;\r\n        uint256 _int;\r\n        uint256 _cha;\r\n        uint256 _res;\r\n\r\n        if(_randChar <= 25)\r\n        {\r\n            _str = 5;\r\n            _int = 3;\r\n            _cha = 2;\r\n            _res = 4;\r\n            _class = 1;\r\n        } \r\n        else if(_randChar <= 50) \r\n        {\r\n            _str = 2;\r\n            _int = 5;\r\n            _cha = 4;\r\n            _res = 3;\r\n            _class = 2;\r\n        }\r\n        else if(_randChar <= 75) \r\n        {\r\n            _str = 2;\r\n            _int = 4;\r\n            _cha = 5;\r\n            _res = 3;\r\n            _class = 3;\r\n        }\r\n        else \r\n        {\r\n            _str = 4;\r\n            _int = 3;\r\n            _cha = 2;\r\n            _res = 5;\r\n            _class = 4;\r\n        }\r\n\r\n        uint256 _randRarity = utils.rand(100);\r\n\r\n        if(_randRarity <= 62) _rarity = 1; //Identi\r\n        else if(_randRarity <= 89) _rarity = 2;\r\n        else if(_randRarity <= 96) _rarity = 3;\r\n        else _rarity = 4;\r\n\r\n        uint256 basePower = 0;\r\n\r\n        if(_rarity == 1)\r\n        {\r\n            basePower = 75 + utils.rand(225);\r\n        }\r\n        else if(_rarity == 2)\r\n        {\r\n            basePower = 300 + utils.rand(250);\r\n        }\r\n        else if(_rarity == 3)\r\n        {\r\n            basePower = 550 + utils.rand(120);\r\n        }\r\n        else\r\n        {\r\n            basePower = 700 + utils.rand(300);\r\n        }\r\n\r\n        uint256 slot = getIndexSlot();\r\n\r\n        _tokenStorage[slot] = CharacterDetail(_name, _class, _rarity, 2, 0, basePower, 1, 0, 50, 50, _str, _int, _cha, _res, 0, 0, 0, 0, 0, 0, 0, 0, 0, 0, 0, 0, 0, 0, 0, 0, addr, slot); \r\n        _mint(addr, slot);\r\n        if(slot == nextId) nextId++;\r\n    }\r\n\r\n    function transferFromAll(\r\n        address from,\r\n        address to,\r\n        uint256[] memory tokenIds\r\n    ) onlyRole(DEFAULT_CORE_ROLE) public {\r\n        if(tokenIds.length <= 0) return;\r\n        for(uint256 x = 0; x < tokenIds.length; x++)\r\n        {\r\n            transferFrom(from, to, tokenIds[x]);\r\n        }\r\n    }\r\n    function exists (uint256 tokenId) public view returns(bool) {\r\n        return _exists(tokenId);\r\n    }\r\n\r\n    function burnAllCharactersInSeason() onlyCore() public {\r\n        for(uint256 x = 1; x < nextId; x++)\r\n        {\r\n            if(_exists(x))\r\n            {\r\n                if(_tokenStorage[x].seasonId != 0)\r\n                {\r\n                    _burn(x);\r\n                }\r\n            }\r\n        }\r\n    }\r\n    \r\n    function burn(uint256 tokenId) onlyCore() public {\r\n        _burn(tokenId);\r\n    }\r\n    \r\n    function _beforeTokenTransfer( address from, address to, uint256 tokenId) internal override {\r\n        CharacterDetail storage Char = _tokenStorage[tokenId];\r\n        require(Char.weaponId == 0 && Char.seasonId == 0, \"no transfer characters in season\");\r\n        Char.owner = to;\r\n        //require(Char.lastMeal + Char.endurance > block.timestamp);\r\n    }\r\n}",
  "sourcePath": "D:\\CrimeCity\\contracts\\tokens\\Character.sol",
  "compiler": {
    "name": "solc",
    "version": "0.8.10+commit.fc410830.Emscripten.clang"
  },
  "schemaVersion": "3.4.3",
  "updatedAt": "2022-01-22T20:23:21.245Z",
  "networkType": "ethereum",
  "devdoc": {
    "kind": "dev",
    "methods": {
      "approve(address,uint256)": {
        "details": "See {IERC721-approve}."
      },
      "balanceOf(address)": {
        "details": "See {IERC721-balanceOf}."
      },
      "getApproved(uint256)": {
        "details": "See {IERC721-getApproved}."
      },
      "getRoleAdmin(uint256)": {
        "details": "Returns the admin role that controls `role`. See {grantRole} and {revokeRole}. To change a role's admin, use {_setRoleAdmin}."
      },
      "grantRole(uint256,address)": {
        "details": "Grants `role` to `account`. If `account` had not been already granted `role`, emits a {RoleGranted} event. Requirements: - the caller must have ``role``'s admin role."
      },
      "hasRole(uint256,address)": {
        "details": "Returns `true` if `account` has been granted `role`."
      },
      "isApprovedForAll(address,address)": {
        "details": "See {IERC721-isApprovedForAll}."
      },
      "name()": {
        "details": "See {IERC721Metadata-name}."
      },
      "ownerOf(uint256)": {
        "details": "See {IERC721-ownerOf}."
      },
      "renounceRole(uint256,address)": {
        "details": "Revokes `role` from the calling account. Roles are often managed via {grantRole} and {revokeRole}: this function's purpose is to provide a mechanism for accounts to lose their privileges if they are compromised (such as when a trusted device is misplaced). If the calling account had been granted `role`, emits a {RoleRevoked} event. Requirements: - the caller must be `account`."
      },
      "revokeRole(uint256,address)": {
        "details": "Revokes `role` from `account`. If `account` had been granted `role`, emits a {RoleRevoked} event. Requirements: - the caller must have ``role``'s admin role."
      },
      "safeTransferFrom(address,address,uint256)": {
        "details": "See {IERC721-safeTransferFrom}."
      },
      "safeTransferFrom(address,address,uint256,bytes)": {
        "details": "See {IERC721-safeTransferFrom}."
      },
      "setApprovalForAll(address,bool)": {
        "details": "See {IERC721-setApprovalForAll}."
      },
      "supportsInterface(bytes4)": {
        "details": "See {IERC165-supportsInterface}."
      },
      "symbol()": {
        "details": "See {IERC721Metadata-symbol}."
      },
      "tokenURI(uint256)": {
        "details": "See {IERC721Metadata-tokenURI}."
      },
      "transferFrom(address,address,uint256)": {
        "details": "See {IERC721-transferFrom}."
      }
    },
    "version": 1
  },
  "userdoc": {
    "kind": "user",
    "methods": {},
    "version": 1
  }
}