{
  "contractName": "CharacterUtils",
  "abi": [
    {
      "inputs": [
        {
          "internalType": "contract Utils",
          "name": "_util",
          "type": "address"
        },
        {
          "internalType": "contract Character",
          "name": "_character",
          "type": "address"
        },
        {
          "internalType": "contract GameItem",
          "name": "_gameItem",
          "type": "address"
        }
      ],
      "stateMutability": "nonpayable",
      "type": "constructor"
    },
    {
      "anonymous": false,
      "inputs": [
        {
          "indexed": true,
          "internalType": "uint256",
          "name": "role",
          "type": "uint256"
        },
        {
          "indexed": true,
          "internalType": "uint256",
          "name": "previousAdminRole",
          "type": "uint256"
        },
        {
          "indexed": true,
          "internalType": "uint256",
          "name": "newAdminRole",
          "type": "uint256"
        }
      ],
      "name": "RoleAdminChanged",
      "type": "event"
    },
    {
      "anonymous": false,
      "inputs": [
        {
          "indexed": true,
          "internalType": "uint256",
          "name": "role",
          "type": "uint256"
        },
        {
          "indexed": true,
          "internalType": "address",
          "name": "account",
          "type": "address"
        },
        {
          "indexed": true,
          "internalType": "address",
          "name": "sender",
          "type": "address"
        }
      ],
      "name": "RoleGranted",
      "type": "event"
    },
    {
      "anonymous": false,
      "inputs": [
        {
          "indexed": true,
          "internalType": "uint256",
          "name": "role",
          "type": "uint256"
        },
        {
          "indexed": true,
          "internalType": "address",
          "name": "account",
          "type": "address"
        },
        {
          "indexed": true,
          "internalType": "address",
          "name": "sender",
          "type": "address"
        }
      ],
      "name": "RoleRevoked",
      "type": "event"
    },
    {
      "inputs": [],
      "name": "DEFAULT_ADMIN_ROLE",
      "outputs": [
        {
          "internalType": "uint256",
          "name": "",
          "type": "uint256"
        }
      ],
      "stateMutability": "view",
      "type": "function",
      "constant": true
    },
    {
      "inputs": [],
      "name": "DEFAULT_CORE_ROLE",
      "outputs": [
        {
          "internalType": "uint256",
          "name": "",
          "type": "uint256"
        }
      ],
      "stateMutability": "view",
      "type": "function",
      "constant": true
    },
    {
      "inputs": [
        {
          "internalType": "uint256",
          "name": "role",
          "type": "uint256"
        }
      ],
      "name": "getRoleAdmin",
      "outputs": [
        {
          "internalType": "uint256",
          "name": "",
          "type": "uint256"
        }
      ],
      "stateMutability": "view",
      "type": "function",
      "constant": true
    },
    {
      "inputs": [
        {
          "internalType": "uint256",
          "name": "role",
          "type": "uint256"
        },
        {
          "internalType": "address",
          "name": "account",
          "type": "address"
        }
      ],
      "name": "grantRole",
      "outputs": [],
      "stateMutability": "nonpayable",
      "type": "function"
    },
    {
      "inputs": [
        {
          "internalType": "uint256",
          "name": "role",
          "type": "uint256"
        },
        {
          "internalType": "address",
          "name": "account",
          "type": "address"
        }
      ],
      "name": "hasRole",
      "outputs": [
        {
          "internalType": "bool",
          "name": "",
          "type": "bool"
        }
      ],
      "stateMutability": "view",
      "type": "function",
      "constant": true
    },
    {
      "inputs": [
        {
          "internalType": "uint256",
          "name": "role",
          "type": "uint256"
        },
        {
          "internalType": "address",
          "name": "account",
          "type": "address"
        }
      ],
      "name": "renounceRole",
      "outputs": [],
      "stateMutability": "nonpayable",
      "type": "function"
    },
    {
      "inputs": [
        {
          "internalType": "uint256",
          "name": "role",
          "type": "uint256"
        },
        {
          "internalType": "address",
          "name": "account",
          "type": "address"
        }
      ],
      "name": "revokeRole",
      "outputs": [],
      "stateMutability": "nonpayable",
      "type": "function"
    },
    {
      "inputs": [
        {
          "internalType": "address",
          "name": "newAdmin",
          "type": "address"
        }
      ],
      "name": "changeAdmin",
      "outputs": [],
      "stateMutability": "nonpayable",
      "type": "function"
    },
    {
      "inputs": [
        {
          "internalType": "address",
          "name": "",
          "type": "address"
        },
        {
          "internalType": "address",
          "name": "",
          "type": "address"
        },
        {
          "internalType": "uint256",
          "name": "",
          "type": "uint256"
        },
        {
          "internalType": "bytes",
          "name": "",
          "type": "bytes"
        }
      ],
      "name": "onERC721Received",
      "outputs": [
        {
          "internalType": "bytes4",
          "name": "",
          "type": "bytes4"
        }
      ],
      "stateMutability": "nonpayable",
      "type": "function"
    },
    {
      "inputs": [
        {
          "internalType": "bytes4",
          "name": "interfaceId",
          "type": "bytes4"
        }
      ],
      "name": "supportsInterface",
      "outputs": [
        {
          "internalType": "bool",
          "name": "",
          "type": "bool"
        }
      ],
      "stateMutability": "pure",
      "type": "function",
      "constant": true
    },
    {
      "inputs": [
        {
          "internalType": "address",
          "name": "_Core",
          "type": "address"
        },
        {
          "internalType": "address",
          "name": "_CoreIn",
          "type": "address"
        },
        {
          "internalType": "address",
          "name": "_Robbery",
          "type": "address"
        },
        {
          "internalType": "address",
          "name": "_PvP",
          "type": "address"
        },
        {
          "internalType": "address",
          "name": "_Equipment",
          "type": "address"
        }
      ],
      "name": "Initialize",
      "outputs": [],
      "stateMutability": "nonpayable",
      "type": "function"
    },
    {
      "inputs": [
        {
          "internalType": "address",
          "name": "addr",
          "type": "address"
        },
        {
          "internalType": "uint256",
          "name": "tokenId",
          "type": "uint256"
        }
      ],
      "name": "createExpedition",
      "outputs": [
        {
          "internalType": "uint256",
          "name": "",
          "type": "uint256"
        }
      ],
      "stateMutability": "nonpayable",
      "type": "function"
    },
    {
      "inputs": [
        {
          "internalType": "address",
          "name": "addr",
          "type": "address"
        },
        {
          "internalType": "uint256",
          "name": "tokenId",
          "type": "uint256"
        }
      ],
      "name": "createPvP",
      "outputs": [
        {
          "internalType": "uint256",
          "name": "",
          "type": "uint256"
        }
      ],
      "stateMutability": "nonpayable",
      "type": "function"
    },
    {
      "inputs": [
        {
          "internalType": "uint256",
          "name": "tokenId",
          "type": "uint256"
        },
        {
          "internalType": "uint256",
          "name": "gameItemTokenId",
          "type": "uint256"
        }
      ],
      "name": "UpdateCharacterItemBonus",
      "outputs": [],
      "stateMutability": "nonpayable",
      "type": "function"
    },
    {
      "inputs": [
        {
          "components": [
            {
              "internalType": "string",
              "name": "name",
              "type": "string"
            },
            {
              "internalType": "uint256",
              "name": "class",
              "type": "uint256"
            },
            {
              "internalType": "uint256",
              "name": "rarity",
              "type": "uint256"
            },
            {
              "internalType": "uint256",
              "name": "respect",
              "type": "uint256"
            },
            {
              "internalType": "uint256",
              "name": "vicio",
              "type": "uint256"
            },
            {
              "internalType": "uint256",
              "name": "power",
              "type": "uint256"
            },
            {
              "internalType": "uint256",
              "name": "level",
              "type": "uint256"
            },
            {
              "internalType": "uint256",
              "name": "exp",
              "type": "uint256"
            },
            {
              "internalType": "uint256",
              "name": "maxHp",
              "type": "uint256"
            },
            {
              "internalType": "uint256",
              "name": "curHp",
              "type": "uint256"
            },
            {
              "internalType": "uint256",
              "name": "_str",
              "type": "uint256"
            },
            {
              "internalType": "uint256",
              "name": "_int",
              "type": "uint256"
            },
            {
              "internalType": "uint256",
              "name": "_cha",
              "type": "uint256"
            },
            {
              "internalType": "uint256",
              "name": "_res",
              "type": "uint256"
            },
            {
              "internalType": "uint256",
              "name": "lastExpedition",
              "type": "uint256"
            },
            {
              "internalType": "uint256",
              "name": "lastExpeditionResult",
              "type": "uint256"
            },
            {
              "internalType": "uint256",
              "name": "lastExpeditionRoll",
              "type": "uint256"
            },
            {
              "internalType": "uint256",
              "name": "prisonTime",
              "type": "uint256"
            },
            {
              "internalType": "uint256",
              "name": "nurseTime",
              "type": "uint256"
            },
            {
              "internalType": "uint256",
              "name": "coleteTime",
              "type": "uint256"
            },
            {
              "internalType": "uint256",
              "name": "lastPvP",
              "type": "uint256"
            },
            {
              "internalType": "uint256",
              "name": "lastPvPResult",
              "type": "uint256"
            },
            {
              "internalType": "uint256",
              "name": "lastPvPRoll",
              "type": "uint256"
            },
            {
              "internalType": "uint256",
              "name": "pvpDefeatCount",
              "type": "uint256"
            },
            {
              "internalType": "uint256",
              "name": "pvpDefeatTime",
              "type": "uint256"
            },
            {
              "internalType": "uint256",
              "name": "guildId",
              "type": "uint256"
            },
            {
              "internalType": "uint256",
              "name": "weaponId",
              "type": "uint256"
            },
            {
              "internalType": "uint256",
              "name": "seasonId",
              "type": "uint256"
            },
            {
              "internalType": "uint256",
              "name": "prisonPrice",
              "type": "uint256"
            },
            {
              "internalType": "uint256",
              "name": "hospitalPrice",
              "type": "uint256"
            },
            {
              "internalType": "address",
              "name": "owner",
              "type": "address"
            },
            {
              "internalType": "uint256",
              "name": "tokenId",
              "type": "uint256"
            }
          ],
          "internalType": "struct CharacterDetail",
          "name": "char",
          "type": "tuple"
        },
        {
          "internalType": "uint256",
          "name": "result",
          "type": "uint256"
        },
        {
          "internalType": "uint256",
          "name": "roll",
          "type": "uint256"
        },
        {
          "internalType": "uint256",
          "name": "_exp",
          "type": "uint256"
        },
        {
          "internalType": "uint256",
          "name": "_respect",
          "type": "uint256"
        },
        {
          "internalType": "uint256",
          "name": "baseDamage",
          "type": "uint256"
        }
      ],
      "name": "UpdateExpeditioResult",
      "outputs": [
        {
          "internalType": "uint256",
          "name": "",
          "type": "uint256"
        }
      ],
      "stateMutability": "nonpayable",
      "type": "function"
    },
    {
      "inputs": [
        {
          "components": [
            {
              "internalType": "string",
              "name": "name",
              "type": "string"
            },
            {
              "internalType": "uint256",
              "name": "class",
              "type": "uint256"
            },
            {
              "internalType": "uint256",
              "name": "rarity",
              "type": "uint256"
            },
            {
              "internalType": "uint256",
              "name": "respect",
              "type": "uint256"
            },
            {
              "internalType": "uint256",
              "name": "vicio",
              "type": "uint256"
            },
            {
              "internalType": "uint256",
              "name": "power",
              "type": "uint256"
            },
            {
              "internalType": "uint256",
              "name": "level",
              "type": "uint256"
            },
            {
              "internalType": "uint256",
              "name": "exp",
              "type": "uint256"
            },
            {
              "internalType": "uint256",
              "name": "maxHp",
              "type": "uint256"
            },
            {
              "internalType": "uint256",
              "name": "curHp",
              "type": "uint256"
            },
            {
              "internalType": "uint256",
              "name": "_str",
              "type": "uint256"
            },
            {
              "internalType": "uint256",
              "name": "_int",
              "type": "uint256"
            },
            {
              "internalType": "uint256",
              "name": "_cha",
              "type": "uint256"
            },
            {
              "internalType": "uint256",
              "name": "_res",
              "type": "uint256"
            },
            {
              "internalType": "uint256",
              "name": "lastExpedition",
              "type": "uint256"
            },
            {
              "internalType": "uint256",
              "name": "lastExpeditionResult",
              "type": "uint256"
            },
            {
              "internalType": "uint256",
              "name": "lastExpeditionRoll",
              "type": "uint256"
            },
            {
              "internalType": "uint256",
              "name": "prisonTime",
              "type": "uint256"
            },
            {
              "internalType": "uint256",
              "name": "nurseTime",
              "type": "uint256"
            },
            {
              "internalType": "uint256",
              "name": "coleteTime",
              "type": "uint256"
            },
            {
              "internalType": "uint256",
              "name": "lastPvP",
              "type": "uint256"
            },
            {
              "internalType": "uint256",
              "name": "lastPvPResult",
              "type": "uint256"
            },
            {
              "internalType": "uint256",
              "name": "lastPvPRoll",
              "type": "uint256"
            },
            {
              "internalType": "uint256",
              "name": "pvpDefeatCount",
              "type": "uint256"
            },
            {
              "internalType": "uint256",
              "name": "pvpDefeatTime",
              "type": "uint256"
            },
            {
              "internalType": "uint256",
              "name": "guildId",
              "type": "uint256"
            },
            {
              "internalType": "uint256",
              "name": "weaponId",
              "type": "uint256"
            },
            {
              "internalType": "uint256",
              "name": "seasonId",
              "type": "uint256"
            },
            {
              "internalType": "uint256",
              "name": "prisonPrice",
              "type": "uint256"
            },
            {
              "internalType": "uint256",
              "name": "hospitalPrice",
              "type": "uint256"
            },
            {
              "internalType": "address",
              "name": "owner",
              "type": "address"
            },
            {
              "internalType": "uint256",
              "name": "tokenId",
              "type": "uint256"
            }
          ],
          "internalType": "struct CharacterDetail",
          "name": "attacker",
          "type": "tuple"
        },
        {
          "components": [
            {
              "internalType": "string",
              "name": "name",
              "type": "string"
            },
            {
              "internalType": "uint256",
              "name": "class",
              "type": "uint256"
            },
            {
              "internalType": "uint256",
              "name": "rarity",
              "type": "uint256"
            },
            {
              "internalType": "uint256",
              "name": "respect",
              "type": "uint256"
            },
            {
              "internalType": "uint256",
              "name": "vicio",
              "type": "uint256"
            },
            {
              "internalType": "uint256",
              "name": "power",
              "type": "uint256"
            },
            {
              "internalType": "uint256",
              "name": "level",
              "type": "uint256"
            },
            {
              "internalType": "uint256",
              "name": "exp",
              "type": "uint256"
            },
            {
              "internalType": "uint256",
              "name": "maxHp",
              "type": "uint256"
            },
            {
              "internalType": "uint256",
              "name": "curHp",
              "type": "uint256"
            },
            {
              "internalType": "uint256",
              "name": "_str",
              "type": "uint256"
            },
            {
              "internalType": "uint256",
              "name": "_int",
              "type": "uint256"
            },
            {
              "internalType": "uint256",
              "name": "_cha",
              "type": "uint256"
            },
            {
              "internalType": "uint256",
              "name": "_res",
              "type": "uint256"
            },
            {
              "internalType": "uint256",
              "name": "lastExpedition",
              "type": "uint256"
            },
            {
              "internalType": "uint256",
              "name": "lastExpeditionResult",
              "type": "uint256"
            },
            {
              "internalType": "uint256",
              "name": "lastExpeditionRoll",
              "type": "uint256"
            },
            {
              "internalType": "uint256",
              "name": "prisonTime",
              "type": "uint256"
            },
            {
              "internalType": "uint256",
              "name": "nurseTime",
              "type": "uint256"
            },
            {
              "internalType": "uint256",
              "name": "coleteTime",
              "type": "uint256"
            },
            {
              "internalType": "uint256",
              "name": "lastPvP",
              "type": "uint256"
            },
            {
              "internalType": "uint256",
              "name": "lastPvPResult",
              "type": "uint256"
            },
            {
              "internalType": "uint256",
              "name": "lastPvPRoll",
              "type": "uint256"
            },
            {
              "internalType": "uint256",
              "name": "pvpDefeatCount",
              "type": "uint256"
            },
            {
              "internalType": "uint256",
              "name": "pvpDefeatTime",
              "type": "uint256"
            },
            {
              "internalType": "uint256",
              "name": "guildId",
              "type": "uint256"
            },
            {
              "internalType": "uint256",
              "name": "weaponId",
              "type": "uint256"
            },
            {
              "internalType": "uint256",
              "name": "seasonId",
              "type": "uint256"
            },
            {
              "internalType": "uint256",
              "name": "prisonPrice",
              "type": "uint256"
            },
            {
              "internalType": "uint256",
              "name": "hospitalPrice",
              "type": "uint256"
            },
            {
              "internalType": "address",
              "name": "owner",
              "type": "address"
            },
            {
              "internalType": "uint256",
              "name": "tokenId",
              "type": "uint256"
            }
          ],
          "internalType": "struct CharacterDetail",
          "name": "defensor",
          "type": "tuple"
        },
        {
          "internalType": "uint256",
          "name": "result",
          "type": "uint256"
        }
      ],
      "name": "UpdatePvPResult",
      "outputs": [
        {
          "internalType": "uint256",
          "name": "",
          "type": "uint256"
        }
      ],
      "stateMutability": "nonpayable",
      "type": "function"
    }
  ],
  "bytecode": "0x60806040523480156200001157600080fd5b506040516200467f3803806200467f83398181016040528101906200003791906200052e565b33600160006101000a81548173ffffffffffffffffffffffffffffffffffffffff021916908373ffffffffffffffffffffffffffffffffffffffff16021790555073bf752eb4b851b241a36e22767b304ef28242198a600260006101000a81548173ffffffffffffffffffffffffffffffffffffffff021916908373ffffffffffffffffffffffffffffffffffffffff160217905550600060038190555081600560006101000a81548173ffffffffffffffffffffffffffffffffffffffff021916908373ffffffffffffffffffffffffffffffffffffffff16021790555082600460006101000a81548173ffffffffffffffffffffffffffffffffffffffff021916908373ffffffffffffffffffffffffffffffffffffffff16021790555080600660006101000a81548173ffffffffffffffffffffffffffffffffffffffff021916908373ffffffffffffffffffffffffffffffffffffffff160217905550620001ab601e806200022b60201b60201c565b620001bf601f601e6200022b60201b60201c565b620001d2601e336200028e60201b60201c565b62000207601e600260009054906101000a900473ffffffffffffffffffffffffffffffffffffffff166200028e60201b60201c565b6000600660146101000a81548160ff0219169083151502179055505050506200058a565b60006200023e83620002a460201b60201c565b905081600080858152602001908152602001600020600101819055508181847f6620dedee755c284a7e221a3279487b734830c1f76c026c797b4d019c6b4b2f460405160405180910390a4505050565b620002a08282620002c360201b60201c565b5050565b6000806000838152602001908152602001600020600101549050919050565b620002d58282620003b460201b60201c565b620003b057600160008084815260200190815260200160002060000160008373ffffffffffffffffffffffffffffffffffffffff1673ffffffffffffffffffffffffffffffffffffffff16815260200190815260200160002060006101000a81548160ff021916908315150217905550620003556200041e60201b60201c565b73ffffffffffffffffffffffffffffffffffffffff168173ffffffffffffffffffffffffffffffffffffffff16837f1ec1667fba5e43c5c76fff54e76d7a4a20a4fecf7b49724ad8d52a3f726e9dbd60405160405180910390a45b5050565b600080600084815260200190815260200160002060000160008373ffffffffffffffffffffffffffffffffffffffff1673ffffffffffffffffffffffffffffffffffffffff16815260200190815260200160002060009054906101000a900460ff16905092915050565b600033905090565b600080fd5b600073ffffffffffffffffffffffffffffffffffffffff82169050919050565b600062000458826200042b565b9050919050565b60006200046c826200044b565b9050919050565b6200047e816200045f565b81146200048a57600080fd5b50565b6000815190506200049e8162000473565b92915050565b6000620004b1826200044b565b9050919050565b620004c381620004a4565b8114620004cf57600080fd5b50565b600081519050620004e381620004b8565b92915050565b6000620004f6826200044b565b9050919050565b6200050881620004e9565b81146200051457600080fd5b50565b6000815190506200052881620004fd565b92915050565b6000806000606084860312156200054a576200054962000426565b5b60006200055a868287016200048d565b93505060206200056d86828701620004d2565b9250506040620005808682870162000517565b9150509250925092565b6140e5806200059a6000396000f3fe608060405234801561001057600080fd5b50600436106101005760003560e01c806357a3daf011610097578063a217fddf11610066578063a217fddf146102bb578063c0313ba2146102d9578063ec2606c014610309578063fb2990ad1461033957610100565b806357a3daf0146102355780635aef31ac146102515780636f45e4e5146102815780638f2839701461029f57610100565b80631d0b19e7116100d35780631d0b19e7146101b15780631fe5f589146101cd5780632308d236146101e95780632e5bdb171461020557610100565b806301033d7a1461010557806301ffc9a714610135578063150b7a02146101655780631bf078da14610195575b600080fd5b61011f600480360381019061011a9190612c77565b610369565b60405161012c9190612d11565b60405180910390f35b61014f600480360381019061014a9190612d84565b610c39565b60405161015c9190612dcc565b60405180910390f35b61017f600480360381019061017a9190612e88565b610ca3565b60405161018c9190612f1a565b60405180910390f35b6101af60048036038101906101aa9190612f35565b610cb7565b005b6101cb60048036038101906101c69190612f75565b611092565b005b6101e760048036038101906101e29190612f75565b6110bb565b005b61020360048036038101906101fe9190612f75565b6110e4565b005b61021f600480360381019061021a9190612fb5565b611167565b60405161022c9190612d11565b60405180910390f35b61024f600480360381019061024a919061305e565b611884565b005b61026b600480360381019061026691906130d9565b611905565b6040516102789190612d11565b60405180910390f35b610289611b78565b6040516102969190612d11565b60405180910390f35b6102b960048036038101906102b49190613119565b611b7d565b005b6102c3611bd5565b6040516102d09190612d11565b60405180910390f35b6102f360048036038101906102ee91906130d9565b611bda565b6040516103009190612d11565b60405180910390f35b610323600480360381019061031e9190612f75565b611e4d565b6040516103309190612dcc565b60405180910390f35b610353600480360381019061034e9190613146565b611eb7565b6040516103609190612d11565b60405180910390f35b600061037d601f610378611ed6565b611ede565b60008083866102a001818152505060648414156107db576064602886606001516103a791906131a2565b6103b1919061322b565b866060018181516103c2919061325c565b9150818152505060078660e0018181516103dc919061325c565b915081815250508460600151600a87606001516103f9919061322b565b111561040f576000856060018181525050610439565b600a8660600151610420919061322b565b8560600181815161043191906132b2565b915081815250505b600460009054906101000a900473ffffffffffffffffffffffffffffffffffffffff1673ffffffffffffffffffffffffffffffffffffffff1663e7a564d78760c001516040518263ffffffff1660e01b81526004016104989190612d11565b602060405180830381865afa1580156104b5573d6000803e3d6000fd5b505050506040513d601f19601f820116820180604052508101906104d991906132fb565b8660e0015110610644578560c00180518091906104f590613328565b81525050600186602001511415610526576001866101400181815161051a919061325c565b9150818152505061059e565b6002866020015114156105535760018661016001818151610547919061325c565b9150818152505061059d565b6003866020015114156105805760018661018001818151610574919061325c565b9150818152505061059c565b6001866101a001818151610594919061325c565b915081815250505b5b5b600186610140018181516105b2919061325c565b91508181525050600186610160018181516105cd919061325c565b91508181525050600186610180018181516105e8919061325c565b915081815250506001866101a001818151610603919061325c565b915081815250508561010001518661012001818152505060648660a0015161062b919061322b565b8660a00181815161063c919061325c565b915081815250505b6064600460009054906101000a900473ffffffffffffffffffffffffffffffffffffffff1673ffffffffffffffffffffffffffffffffffffffff16632530c90560066040518263ffffffff1660e01b81526004016106a291906133b6565b6020604051808303816000875af11580156106c1573d6000803e3d6000fd5b505050506040513d601f19601f820116820180604052508101906106e591906132fb565b60026106f1919061325c565b86610100015161070191906131a2565b61070b919061322b565b91506064600460009054906101000a900473ffffffffffffffffffffffffffffffffffffffff1673ffffffffffffffffffffffffffffffffffffffff16632530c905600a6040518263ffffffff1660e01b815260040161076b919061340c565b6020604051808303816000875af115801561078a573d6000803e3d6000fd5b505050506040513d601f19601f820116820180604052508101906107ae91906132fb565b60046107ba919061325c565b8761010001516107ca91906131a2565b6107d4919061322b565b9050610c1e565b6064601986606001516107ee91906131a2565b6107f8919061322b565b85606001818151610809919061325c565b915081815250508560600151600a8660600151610826919061322b565b111561083c576000866060018181525050610866565b600a866060015161084d919061322b565b8660600181815161085e91906132b2565b915081815250505b60028560e001818151610879919061325c565b91508181525050600460009054906101000a900473ffffffffffffffffffffffffffffffffffffffff1673ffffffffffffffffffffffffffffffffffffffff1663e7a564d78660c001516040518263ffffffff1660e01b81526004016108df9190612d11565b602060405180830381865afa1580156108fc573d6000803e3d6000fd5b505050506040513d601f19601f8201168201806040525081019061092091906132fb565b8560e0015110610a8b578460c001805180919061093c90613328565b8152505060018560200151141561096d5760018561014001818151610961919061325c565b915081815250506109e5565b60028560200151141561099a576001856101600181815161098e919061325c565b915081815250506109e4565b6003856020015114156109c757600185610180018181516109bb919061325c565b915081815250506109e3565b6001856101a0018181516109db919061325c565b915081815250505b5b5b600185610140018181516109f9919061325c565b9150818152505060018561016001818151610a14919061325c565b9150818152505060018561018001818151610a2f919061325c565b915081815250506001856101a001818151610a4a919061325c565b915081815250508461010001518561012001818152505060648560a00151610a72919061322b565b8560a001818151610a83919061325c565b915081815250505b6064600460009054906101000a900473ffffffffffffffffffffffffffffffffffffffff1673ffffffffffffffffffffffffffffffffffffffff16632530c905600a6040518263ffffffff1660e01b8152600401610ae9919061340c565b6020604051808303816000875af1158015610b08573d6000803e3d6000fd5b505050506040513d601f19601f82011682018060405250810190610b2c91906132fb565b6004610b38919061325c565b866101000151610b4891906131a2565b610b52919061322b565b91506064600460009054906101000a900473ffffffffffffffffffffffffffffffffffffffff1673ffffffffffffffffffffffffffffffffffffffff16632530c90560066040518263ffffffff1660e01b8152600401610bb291906133b6565b6020604051808303816000875af1158015610bd1573d6000803e3d6000fd5b505050506040513d601f19601f82011682018060405250810190610bf591906132fb565b6002610c01919061325c565b876101000151610c1191906131a2565b610c1b919061322b565b90505b610c2a86868484611f78565b60008093505050509392505050565b60007f150b7a02000000000000000000000000000000000000000000000000000000007bffffffffffffffffffffffffffffffffffffffffffffffffffffffff1916827bffffffffffffffffffffffffffffffffffffffffffffffffffffffff1916149050919050565b600063150b7a0260e01b9050949350505050565b610cc9601f610cc4611ed6565b611ede565b6000600560009054906101000a900473ffffffffffffffffffffffffffffffffffffffff1673ffffffffffffffffffffffffffffffffffffffff1663dabb0531846040518263ffffffff1660e01b8152600401610d269190612d11565b600060405180830381865afa158015610d43573d6000803e3d6000fd5b505050506040513d6000823e3d601f19601f82011682018060405250810190610d6c91906137d5565b90506000821415610ec257600081610340015190506000600660009054906101000a900473ffffffffffffffffffffffffffffffffffffffff1673ffffffffffffffffffffffffffffffffffffffff166394f13f4a836040518263ffffffff1660e01b8152600401610dde9190612d11565b600060405180830381865afa158015610dfb573d6000803e3d6000fd5b505050506040513d6000823e3d601f19601f82011682018060405250810190610e24919061399e565b905080606001518360a001818151610e3c919061325c565b9150818152505080608001518361014001818151610e5a919061325c565b915081815250508060a001518361016001818151610e78919061325c565b915081815250508060c001518361018001818151610e96919061325c565b915081815250508060e00151836101a001818151610eb4919061325c565b915081815250505050610ffe565b6000600660009054906101000a900473ffffffffffffffffffffffffffffffffffffffff1673ffffffffffffffffffffffffffffffffffffffff166394f13f4a846040518263ffffffff1660e01b8152600401610f1f9190612d11565b600060405180830381865afa158015610f3c573d6000803e3d6000fd5b505050506040513d6000823e3d601f19601f82011682018060405250810190610f65919061399e565b905080606001518260a001818151610f7d91906132b2565b9150818152505080608001518261014001818151610f9b91906132b2565b915081815250508060a001518261016001818151610fb991906132b2565b915081815250508060c001518261018001818151610fd791906132b2565b915081815250508060e00151826101a001818151610ff591906132b2565b91508181525050505b600560009054906101000a900473ffffffffffffffffffffffffffffffffffffffff1673ffffffffffffffffffffffffffffffffffffffff16634c2ac39984836040518363ffffffff1660e01b815260040161105b929190613d02565b600060405180830381600087803b15801561107557600080fd5b505af1158015611089573d6000803e3d6000fd5b50505050505050565b61109b82611eb7565b6110ac816110a7611ed6565b611ede565b6110b6838361237e565b505050565b6110c482611eb7565b6110d5816110d0611ed6565b611ede565b6110df838361245f565b505050565b6110ec611ed6565b73ffffffffffffffffffffffffffffffffffffffff168173ffffffffffffffffffffffffffffffffffffffff1614611159576040517f08c379a000000000000000000000000000000000000000000000000000000000815260040161115090613db5565b60405180910390fd5b611163828261237e565b5050565b600061117b601f611176611ed6565b611ede565b85876101e00181815250508287606001818151611198919061325c565b91508181525050838760e0018181516111b1919061325c565b9150818152505084876102000181815250506000600460009054906101000a900473ffffffffffffffffffffffffffffffffffffffff1673ffffffffffffffffffffffffffffffffffffffff1663e7a564d78960c001516040518263ffffffff1660e01b81526004016112249190612d11565b602060405180830381865afa158015611241573d6000803e3d6000fd5b505050506040513d601f19601f8201168201806040525081019061126591906132fb565b8860e00151106113d0578760c001805180919061128190613328565b815250506001886020015114156112b257600188610140018181516112a6919061325c565b9150818152505061132a565b6002886020015114156112df57600188610160018181516112d3919061325c565b91508181525050611329565b60038860200151141561130c5760018861018001818151611300919061325c565b91508181525050611328565b6001886101a001818151611320919061325c565b915081815250505b5b5b6001886101400181815161133e919061325c565b9150818152505060018861016001818151611359919061325c565b9150818152505060018861018001818151611374919061325c565b915081815250506001886101a00181815161138f919061325c565b915081815250508761010001518861012001818152505060648860a001516113b7919061322b565b8860a0018181516113c8919061325c565b915081815250505b60018860c0015114156113fe576064601e8961010001516113f191906131a2565b6113fb919061322b565b92505b42886102600151111561141f57600283611418919061322b565b925061142c565b6000886102600181815250505b87610120015183106115415760008861012001818152505061a8c06201518042611456919061325c565b611460919061325c565b886102400181815250506000886102200181815250506041600460009054906101000a900473ffffffffffffffffffffffffffffffffffffffff1673ffffffffffffffffffffffffffffffffffffffff1663a7f93ebd6040518163ffffffff1660e01b8152600401602060405180830381865afa1580156114e5573d6000803e3d6000fd5b505050506040513d601f19601f8201168201806040525081019061150991906132fb565b611513919061322b565b60648960a00151611524919061322b565b61152e91906131a2565b886103a00181815250506001905061155c565b82886101200181815161155491906132b2565b915081815250505b600283611569919061322b565b886101000181815161157b919061325c565b91508181525050600081148015611593575060648714155b156117e2576000600460009054906101000a900473ffffffffffffffffffffffffffffffffffffffff1673ffffffffffffffffffffffffffffffffffffffff16632530c90560646040518263ffffffff1660e01b81526004016115f69190613e10565b6020604051808303816000875af1158015611615573d6000803e3d6000fd5b505050506040513d601f19601f8201168201806040525081019061163991906132fb565b9050600460009054906101000a900473ffffffffffffffffffffffffffffffffffffffff1673ffffffffffffffffffffffffffffffffffffffff16638bd2e7e68a604001518b608001516040518363ffffffff1660e01b81526004016116a0929190613e2b565b602060405180830381865afa1580156116bd573d6000803e3d6000fd5b505050506040513d601f19601f820116820180604052508101906116e191906132fb565b81116117dc5761a8c062015180426116f9919061325c565b611703919061325c565b896102200181815250506000896102400181815250506041600460009054906101000a900473ffffffffffffffffffffffffffffffffffffffff1673ffffffffffffffffffffffffffffffffffffffff1663a7f93ebd6040518163ffffffff1660e01b8152600401602060405180830381865afa158015611788573d6000803e3d6000fd5b505050506040513d601f19601f820116820180604052508101906117ac91906132fb565b6117b6919061322b565b60648a60a001516117c7919061322b565b6117d191906131a2565b896103800181815250505b60029150505b600560009054906101000a900473ffffffffffffffffffffffffffffffffffffffff1673ffffffffffffffffffffffffffffffffffffffff16634c2ac399896103e001518a6040518363ffffffff1660e01b8152600401611844929190613d02565b600060405180830381600087803b15801561185e57600080fd5b505af1158015611872573d6000803e3d6000fd5b50505050809150509695505050505050565b60001515600660149054906101000a900460ff16151514156118fe576118ab601f8661253f565b6118b6601f8561253f565b6118c1601f8461253f565b6118cc601f8361253f565b6118d7601f8261253f565b6118e2601e3361253f565b6001600660146101000a81548160ff0219169083151502179055505b5050505050565b6000611919601f611914611ed6565b611ede565b60008373ffffffffffffffffffffffffffffffffffffffff16600560009054906101000a900473ffffffffffffffffffffffffffffffffffffffff1673ffffffffffffffffffffffffffffffffffffffff16636352211e856040518263ffffffff1660e01b815260040161198d9190612d11565b602060405180830381865afa1580156119aa573d6000803e3d6000fd5b505050506040513d601f19601f820116820180604052508101906119ce9190613e54565b73ffffffffffffffffffffffffffffffffffffffff16146119f25780915050611b72565b6000600560009054906101000a900473ffffffffffffffffffffffffffffffffffffffff1673ffffffffffffffffffffffffffffffffffffffff1663dabb0531856040518263ffffffff1660e01b8152600401611a4f9190612d11565b600060405180830381865afa158015611a6c573d6000803e3d6000fd5b505050506040513d6000823e3d601f19601f82011682018060405250810190611a9591906137d5565b9050806101c0015142108015611ab157506000816101c0015114155b15611ac0578192505050611b72565b6201518042611acf919061325c565b816101c0018181525050600560009054906101000a900473ffffffffffffffffffffffffffffffffffffffff1673ffffffffffffffffffffffffffffffffffffffff16634c2ac39985836040518363ffffffff1660e01b8152600401611b36929190613d02565b600060405180830381600087803b158015611b5057600080fd5b505af1158015611b64573d6000803e3d6000fd5b50505050600a915081925050505b92915050565b601f81565b601e611b9081611b8b611ed6565b611ede565b81600160006101000a81548173ffffffffffffffffffffffffffffffffffffffff021916908373ffffffffffffffffffffffffffffffffffffffff1602179055505050565b601e81565b6000611bee601f611be9611ed6565b611ede565b60008373ffffffffffffffffffffffffffffffffffffffff16600560009054906101000a900473ffffffffffffffffffffffffffffffffffffffff1673ffffffffffffffffffffffffffffffffffffffff16636352211e856040518263ffffffff1660e01b8152600401611c629190612d11565b602060405180830381865afa158015611c7f573d6000803e3d6000fd5b505050506040513d601f19601f82011682018060405250810190611ca39190613e54565b73ffffffffffffffffffffffffffffffffffffffff1614611cc75780915050611e47565b6000600560009054906101000a900473ffffffffffffffffffffffffffffffffffffffff1673ffffffffffffffffffffffffffffffffffffffff1663dabb0531856040518263ffffffff1660e01b8152600401611d249190612d11565b600060405180830381865afa158015611d41573d6000803e3d6000fd5b505050506040513d6000823e3d601f19601f82011682018060405250810190611d6a91906137d5565b905080610280015142108015611d865750600081610280015114155b15611d95578192505050611e47565b6201518042611da4919061325c565b81610280018181525050600560009054906101000a900473ffffffffffffffffffffffffffffffffffffffff1673ffffffffffffffffffffffffffffffffffffffff16634c2ac39985836040518363ffffffff1660e01b8152600401611e0b929190613d02565b600060405180830381600087803b158015611e2557600080fd5b505af1158015611e39573d6000803e3d6000fd5b50505050600a915081925050505b92915050565b600080600084815260200190815260200160002060000160008373ffffffffffffffffffffffffffffffffffffffff1673ffffffffffffffffffffffffffffffffffffffff16815260200190815260200160002060009054906101000a900460ff16905092915050565b6000806000838152602001908152602001600020600101549050919050565b600033905090565b611ee88282611e4d565b611f7457611f0d8173ffffffffffffffffffffffffffffffffffffffff16601461254d565b611f1883602061254d565b604051602001611f29929190613f55565b6040516020818303038152906040526040517f08c379a0000000000000000000000000000000000000000000000000000000008152600401611f6b9190613fc8565b60405180910390fd5b5050565b60008290506000829050428661026001511115611faf576064604183611f9e91906131a2565b611fa8919061322b565b9150611fbc565b6000866102600181815250505b428561026001511115611fe9576064604182611fd891906131a2565b611fe2919061322b565b9050611ff6565b6000856102600181815250505b85610120015181106121075760008661012001818152505061a8c06201518042612020919061325c565b61202a919061325c565b866102400181815250506000866102200181815250506041600460009054906101000a900473ffffffffffffffffffffffffffffffffffffffff1673ffffffffffffffffffffffffffffffffffffffff1663a7f93ebd6040518163ffffffff1660e01b8152600401602060405180830381865afa1580156120af573d6000803e3d6000fd5b505050506040513d601f19601f820116820180604052508101906120d391906132fb565b60648860a001516120e4919061322b565b6120ee91906131a2565b6120f8919061322b565b866103a0018181525050612122565b80866101200181815161211a91906132b2565b915081815250505b84610120015182106122335760008561012001818152505061a8c0620151804261214c919061325c565b612156919061325c565b856102400181815250506000856102200181815250506041600460009054906101000a900473ffffffffffffffffffffffffffffffffffffffff1673ffffffffffffffffffffffffffffffffffffffff1663a7f93ebd6040518163ffffffff1660e01b8152600401602060405180830381865afa1580156121db573d6000803e3d6000fd5b505050506040513d601f19601f820116820180604052508101906121ff91906132fb565b60648760a00151612210919061322b565b61221a91906131a2565b612224919061322b565b856103a001818152505061224e565b81856101200181815161224691906132b2565b915081815250505b600560009054906101000a900473ffffffffffffffffffffffffffffffffffffffff1673ffffffffffffffffffffffffffffffffffffffff16634c2ac399876103e00151886040518363ffffffff1660e01b81526004016122b0929190613d02565b600060405180830381600087803b1580156122ca57600080fd5b505af11580156122de573d6000803e3d6000fd5b50505050600560009054906101000a900473ffffffffffffffffffffffffffffffffffffffff1673ffffffffffffffffffffffffffffffffffffffff16634c2ac399866103e00151876040518363ffffffff1660e01b8152600401612344929190613d02565b600060405180830381600087803b15801561235e57600080fd5b505af1158015612372573d6000803e3d6000fd5b50505050505050505050565b6123888282611e4d565b1561245b57600080600084815260200190815260200160002060000160008373ffffffffffffffffffffffffffffffffffffffff1673ffffffffffffffffffffffffffffffffffffffff16815260200190815260200160002060006101000a81548160ff021916908315150217905550612400611ed6565b73ffffffffffffffffffffffffffffffffffffffff168173ffffffffffffffffffffffffffffffffffffffff16837fe0df21b65c73c27081b8f042a012b124085b41d78d27b7e3c4780f5650f5ebb860405160405180910390a45b5050565b6124698282611e4d565b61253b57600160008084815260200190815260200160002060000160008373ffffffffffffffffffffffffffffffffffffffff1673ffffffffffffffffffffffffffffffffffffffff16815260200190815260200160002060006101000a81548160ff0219169083151502179055506124e0611ed6565b73ffffffffffffffffffffffffffffffffffffffff168173ffffffffffffffffffffffffffffffffffffffff16837f1ec1667fba5e43c5c76fff54e76d7a4a20a4fecf7b49724ad8d52a3f726e9dbd60405160405180910390a45b5050565b612549828261245f565b5050565b60606000600283600261256091906131a2565b61256a919061325c565b67ffffffffffffffff811115612583576125826127b3565b5b6040519080825280601f01601f1916602001820160405280156125b55781602001600182028036833780820191505090505b5090507f3000000000000000000000000000000000000000000000000000000000000000816000815181106125ed576125ec613fea565b5b60200101907effffffffffffffffffffffffffffffffffffffffffffffffffffffffffffff1916908160001a9053507f78000000000000000000000000000000000000000000000000000000000000008160018151811061265157612650613fea565b5b60200101907effffffffffffffffffffffffffffffffffffffffffffffffffffffffffffff1916908160001a9053506000600184600261269191906131a2565b61269b919061325c565b90505b600181111561273b577f3031323334353637383961626364656600000000000000000000000000000000600f8616601081106126dd576126dc613fea565b5b1a60f81b8282815181106126f4576126f3613fea565b5b60200101907effffffffffffffffffffffffffffffffffffffffffffffffffffffffffffff1916908160001a905350600485901c94508061273490614019565b905061269e565b506000841461277f576040517f08c379a00000000000000000000000000000000000000000000000000000000081526004016127769061408f565b60405180910390fd5b8091505092915050565b6000604051905090565b600080fd5b600080fd5b600080fd5b6000601f19601f8301169050919050565b7f4e487b7100000000000000000000000000000000000000000000000000000000600052604160045260246000fd5b6127eb826127a2565b810181811067ffffffffffffffff8211171561280a576128096127b3565b5b80604052505050565b600061281d612789565b905061282982826127e2565b919050565b600080fd5b600080fd5b600080fd5b600067ffffffffffffffff821115612858576128576127b3565b5b612861826127a2565b9050602081019050919050565b82818337600083830152505050565b600061289061288b8461283d565b612813565b9050828152602081018484840111156128ac576128ab612838565b5b6128b784828561286e565b509392505050565b600082601f8301126128d4576128d3612833565b5b81356128e484826020860161287d565b91505092915050565b6000819050919050565b612900816128ed565b811461290b57600080fd5b50565b60008135905061291d816128f7565b92915050565b600073ffffffffffffffffffffffffffffffffffffffff82169050919050565b600061294e82612923565b9050919050565b61295e81612943565b811461296957600080fd5b50565b60008135905061297b81612955565b92915050565b600061040082840312156129985761299761279d565b5b6129a3610400612813565b9050600082013567ffffffffffffffff8111156129c3576129c261282e565b5b6129cf848285016128bf565b60008301525060206129e38482850161290e565b60208301525060406129f78482850161290e565b6040830152506060612a0b8482850161290e565b6060830152506080612a1f8482850161290e565b60808301525060a0612a338482850161290e565b60a08301525060c0612a478482850161290e565b60c08301525060e0612a5b8482850161290e565b60e083015250610100612a708482850161290e565b61010083015250610120612a868482850161290e565b61012083015250610140612a9c8482850161290e565b61014083015250610160612ab28482850161290e565b61016083015250610180612ac88482850161290e565b610180830152506101a0612ade8482850161290e565b6101a0830152506101c0612af48482850161290e565b6101c0830152506101e0612b0a8482850161290e565b6101e083015250610200612b208482850161290e565b61020083015250610220612b368482850161290e565b61022083015250610240612b4c8482850161290e565b61024083015250610260612b628482850161290e565b61026083015250610280612b788482850161290e565b610280830152506102a0612b8e8482850161290e565b6102a0830152506102c0612ba48482850161290e565b6102c0830152506102e0612bba8482850161290e565b6102e083015250610300612bd08482850161290e565b61030083015250610320612be68482850161290e565b61032083015250610340612bfc8482850161290e565b61034083015250610360612c128482850161290e565b61036083015250610380612c288482850161290e565b610380830152506103a0612c3e8482850161290e565b6103a0830152506103c0612c548482850161296c565b6103c0830152506103e0612c6a8482850161290e565b6103e08301525092915050565b600080600060608486031215612c9057612c8f612793565b5b600084013567ffffffffffffffff811115612cae57612cad612798565b5b612cba86828701612981565b935050602084013567ffffffffffffffff811115612cdb57612cda612798565b5b612ce786828701612981565b9250506040612cf88682870161290e565b9150509250925092565b612d0b816128ed565b82525050565b6000602082019050612d266000830184612d02565b92915050565b60007fffffffff0000000000000000000000000000000000000000000000000000000082169050919050565b612d6181612d2c565b8114612d6c57600080fd5b50565b600081359050612d7e81612d58565b92915050565b600060208284031215612d9a57612d99612793565b5b6000612da884828501612d6f565b91505092915050565b60008115159050919050565b612dc681612db1565b82525050565b6000602082019050612de16000830184612dbd565b92915050565b600067ffffffffffffffff821115612e0257612e016127b3565b5b612e0b826127a2565b9050602081019050919050565b6000612e2b612e2684612de7565b612813565b905082815260208101848484011115612e4757612e46612838565b5b612e5284828561286e565b509392505050565b600082601f830112612e6f57612e6e612833565b5b8135612e7f848260208601612e18565b91505092915050565b60008060008060808587031215612ea257612ea1612793565b5b6000612eb08782880161296c565b9450506020612ec18782880161296c565b9350506040612ed28782880161290e565b925050606085013567ffffffffffffffff811115612ef357612ef2612798565b5b612eff87828801612e5a565b91505092959194509250565b612f1481612d2c565b82525050565b6000602082019050612f2f6000830184612f0b565b92915050565b60008060408385031215612f4c57612f4b612793565b5b6000612f5a8582860161290e565b9250506020612f6b8582860161290e565b9150509250929050565b60008060408385031215612f8c57612f8b612793565b5b6000612f9a8582860161290e565b9250506020612fab8582860161296c565b9150509250929050565b60008060008060008060c08789031215612fd257612fd1612793565b5b600087013567ffffffffffffffff811115612ff057612fef612798565b5b612ffc89828a01612981565b965050602061300d89828a0161290e565b955050604061301e89828a0161290e565b945050606061302f89828a0161290e565b935050608061304089828a0161290e565b92505060a061305189828a0161290e565b9150509295509295509295565b600080600080600060a0868803121561307a57613079612793565b5b60006130888882890161296c565b95505060206130998882890161296c565b94505060406130aa8882890161296c565b93505060606130bb8882890161296c565b92505060806130cc8882890161296c565b9150509295509295909350565b600080604083850312156130f0576130ef612793565b5b60006130fe8582860161296c565b925050602061310f8582860161290e565b9150509250929050565b60006020828403121561312f5761312e612793565b5b600061313d8482850161296c565b91505092915050565b60006020828403121561315c5761315b612793565b5b600061316a8482850161290e565b91505092915050565b7f4e487b7100000000000000000000000000000000000000000000000000000000600052601160045260246000fd5b60006131ad826128ed565b91506131b8836128ed565b9250817fffffffffffffffffffffffffffffffffffffffffffffffffffffffffffffffff04831182151516156131f1576131f0613173565b5b828202905092915050565b7f4e487b7100000000000000000000000000000000000000000000000000000000600052601260045260246000fd5b6000613236826128ed565b9150613241836128ed565b925082613251576132506131fc565b5b828204905092915050565b6000613267826128ed565b9150613272836128ed565b9250827fffffffffffffffffffffffffffffffffffffffffffffffffffffffffffffffff038211156132a7576132a6613173565b5b828201905092915050565b60006132bd826128ed565b91506132c8836128ed565b9250828210156132db576132da613173565b5b828203905092915050565b6000815190506132f5816128f7565b92915050565b60006020828403121561331157613310612793565b5b600061331f848285016132e6565b91505092915050565b6000613333826128ed565b91507fffffffffffffffffffffffffffffffffffffffffffffffffffffffffffffffff82141561336657613365613173565b5b600182019050919050565b6000819050919050565b6000819050919050565b60006133a061339b61339684613371565b61337b565b6128ed565b9050919050565b6133b081613385565b82525050565b60006020820190506133cb60008301846133a7565b92915050565b6000819050919050565b60006133f66133f16133ec846133d1565b61337b565b6128ed565b9050919050565b613406816133db565b82525050565b600060208201905061342160008301846133fd565b92915050565b60005b8381101561344557808201518184015260208101905061342a565b83811115613454576000848401525b50505050565b600061346d6134688461283d565b612813565b90508281526020810184848401111561348957613488612838565b5b613494848285613427565b509392505050565b600082601f8301126134b1576134b0612833565b5b81516134c184826020860161345a565b91505092915050565b6000815190506134d981612955565b92915050565b600061040082840312156134f6576134f561279d565b5b613501610400612813565b9050600082015167ffffffffffffffff8111156135215761352061282e565b5b61352d8482850161349c565b6000830152506020613541848285016132e6565b6020830152506040613555848285016132e6565b6040830152506060613569848285016132e6565b606083015250608061357d848285016132e6565b60808301525060a0613591848285016132e6565b60a08301525060c06135a5848285016132e6565b60c08301525060e06135b9848285016132e6565b60e0830152506101006135ce848285016132e6565b610100830152506101206135e4848285016132e6565b610120830152506101406135fa848285016132e6565b61014083015250610160613610848285016132e6565b61016083015250610180613626848285016132e6565b610180830152506101a061363c848285016132e6565b6101a0830152506101c0613652848285016132e6565b6101c0830152506101e0613668848285016132e6565b6101e08301525061020061367e848285016132e6565b61020083015250610220613694848285016132e6565b610220830152506102406136aa848285016132e6565b610240830152506102606136c0848285016132e6565b610260830152506102806136d6848285016132e6565b610280830152506102a06136ec848285016132e6565b6102a0830152506102c0613702848285016132e6565b6102c0830152506102e0613718848285016132e6565b6102e08301525061030061372e848285016132e6565b61030083015250610320613744848285016132e6565b6103208301525061034061375a848285016132e6565b61034083015250610360613770848285016132e6565b61036083015250610380613786848285016132e6565b610380830152506103a061379c848285016132e6565b6103a0830152506103c06137b2848285016134ca565b6103c0830152506103e06137c8848285016132e6565b6103e08301525092915050565b6000602082840312156137eb576137ea612793565b5b600082015167ffffffffffffffff81111561380957613808612798565b5b613815848285016134df565b91505092915050565b61382781612db1565b811461383257600080fd5b50565b6000815190506138448161381e565b92915050565b60006101a082840312156138615761386061279d565b5b61386c6101a0612813565b9050600082015167ffffffffffffffff81111561388c5761388b61282e565b5b6138988482850161349c565b60008301525060206138ac848285016132e6565b60208301525060406138c0848285016132e6565b60408301525060606138d4848285016132e6565b60608301525060806138e8848285016132e6565b60808301525060a06138fc848285016132e6565b60a08301525060c0613910848285016132e6565b60c08301525060e0613924848285016132e6565b60e083015250610100613939848285016134ca565b6101008301525061012061394f848285016132e6565b61012083015250610140613965848285016132e6565b6101408301525061016061397b84828501613835565b61016083015250610180613991848285016132e6565b6101808301525092915050565b6000602082840312156139b4576139b3612793565b5b600082015167ffffffffffffffff8111156139d2576139d1612798565b5b6139de8482850161384a565b91505092915050565b600081519050919050565b600082825260208201905092915050565b6000613a0e826139e7565b613a1881856139f2565b9350613a28818560208601613427565b613a31816127a2565b840191505092915050565b613a45816128ed565b82525050565b613a5481612943565b82525050565b6000610400830160008301518482036000860152613a788282613a03565b9150506020830151613a8d6020860182613a3c565b506040830151613aa06040860182613a3c565b506060830151613ab36060860182613a3c565b506080830151613ac66080860182613a3c565b5060a0830151613ad960a0860182613a3c565b5060c0830151613aec60c0860182613a3c565b5060e0830151613aff60e0860182613a3c565b50610100830151613b14610100860182613a3c565b50610120830151613b29610120860182613a3c565b50610140830151613b3e610140860182613a3c565b50610160830151613b53610160860182613a3c565b50610180830151613b68610180860182613a3c565b506101a0830151613b7d6101a0860182613a3c565b506101c0830151613b926101c0860182613a3c565b506101e0830151613ba76101e0860182613a3c565b50610200830151613bbc610200860182613a3c565b50610220830151613bd1610220860182613a3c565b50610240830151613be6610240860182613a3c565b50610260830151613bfb610260860182613a3c565b50610280830151613c10610280860182613a3c565b506102a0830151613c256102a0860182613a3c565b506102c0830151613c3a6102c0860182613a3c565b506102e0830151613c4f6102e0860182613a3c565b50610300830151613c64610300860182613a3c565b50610320830151613c79610320860182613a3c565b50610340830151613c8e610340860182613a3c565b50610360830151613ca3610360860182613a3c565b50610380830151613cb8610380860182613a3c565b506103a0830151613ccd6103a0860182613a3c565b506103c0830151613ce26103c0860182613a4b565b506103e0830151613cf76103e0860182613a3c565b508091505092915050565b6000604082019050613d176000830185612d02565b8181036020830152613d298184613a5a565b90509392505050565b600082825260208201905092915050565b7f416363657373436f6e74726f6c3a2063616e206f6e6c792072656e6f756e636560008201527f20726f6c657320666f722073656c660000000000000000000000000000000000602082015250565b6000613d9f602f83613d32565b9150613daa82613d43565b604082019050919050565b60006020820190508181036000830152613dce81613d92565b9050919050565b6000819050919050565b6000613dfa613df5613df084613dd5565b61337b565b6128ed565b9050919050565b613e0a81613ddf565b82525050565b6000602082019050613e256000830184613e01565b92915050565b6000604082019050613e406000830185612d02565b613e4d6020830184612d02565b9392505050565b600060208284031215613e6a57613e69612793565b5b6000613e78848285016134ca565b91505092915050565b600081905092915050565b7f416363657373436f6e74726f6c3a206163636f756e7420000000000000000000600082015250565b6000613ec2601783613e81565b9150613ecd82613e8c565b601782019050919050565b6000613ee3826139e7565b613eed8185613e81565b9350613efd818560208601613427565b80840191505092915050565b7f206973206d697373696e6720726f6c6520000000000000000000000000000000600082015250565b6000613f3f601183613e81565b9150613f4a82613f09565b601182019050919050565b6000613f6082613eb5565b9150613f6c8285613ed8565b9150613f7782613f32565b9150613f838284613ed8565b91508190509392505050565b6000613f9a826139e7565b613fa48185613d32565b9350613fb4818560208601613427565b613fbd816127a2565b840191505092915050565b60006020820190508181036000830152613fe28184613f8f565b905092915050565b7f4e487b7100000000000000000000000000000000000000000000000000000000600052603260045260246000fd5b6000614024826128ed565b9150600082141561403857614037613173565b5b600182039050919050565b7f537472696e67733a20686578206c656e67746820696e73756666696369656e74600082015250565b6000614079602083613d32565b915061408482614043565b602082019050919050565b600060208201905081810360008301526140a88161406c565b905091905056fea2646970667358221220d96da571076587d1ad5d2c77e58f148edc4a3197318af32d524abddb371d980f64736f6c634300080a0033",
  "immutableReferences": {},
  "source": "// SPDX-License-Identifier: UNLICENSED\r\npragma solidity >=0.4.22 <0.9.0;\r\n\r\n/**\r\n * @title SampleBEP20Token\r\n * @dev Very simple BEP20 Token example, where all tokens are pre-assigned to the creator.\r\n * Note they can later distribute these tokens as they wish using `transfer` and other\r\n * `BEP20` functions.\r\n * USE IT ONLY FOR LEARNING PURPOSES. SHOULD BE MODIFIED FOR PRODUCTION\r\n */\r\n\r\nimport \"../../node_modules/@openzeppelin/contracts/token/ERC721/IERC721Receiver.sol\";\r\nimport \"./../utils/Admin.sol\";\r\nimport \"./../utils/Utils.sol\";\r\n\r\nimport \"./../tokens/Character.sol\";\r\nimport \"./../tokens/GANG.sol\";\r\nimport \"./../tokens/GameItem.sol\";\r\nimport \"./../CoreInGame.sol\";\r\n\r\ncontract CharacterUtils is Admin, IERC721Receiver {\r\n    address private _contractowner;\r\n    address private _secondowner;\r\n\r\n    uint256 private bnbBalance;\r\n\r\n    Utils private utils;\r\n    Character private crimeChar;\r\n    GameItem private crimeItem;\r\n    bool private Initialized;\r\n\r\n    constructor(Utils _util, Character _character, GameItem _gameItem) Admin()\r\n    {\r\n        _contractowner = msg.sender;\r\n        _secondowner = address(0xbf752Eb4b851B241A36e22767b304ef28242198A);\r\n        bnbBalance = 0;\r\n        crimeChar = _character;\r\n        utils = _util;\r\n        crimeItem = _gameItem;\r\n\r\n        _setRoleAdmin(DEFAULT_ADMIN_ROLE, DEFAULT_ADMIN_ROLE);\r\n        _setRoleAdmin(DEFAULT_CORE_ROLE, DEFAULT_ADMIN_ROLE);\r\n        _setupRole(DEFAULT_ADMIN_ROLE, msg.sender);\r\n        _setupRole(DEFAULT_ADMIN_ROLE, _secondowner);\r\n        Initialized = false;\r\n    }\r\n\r\n    function changeAdmin(address newAdmin) public onlyRole(DEFAULT_ADMIN_ROLE)\r\n    {\r\n        _contractowner = newAdmin;\r\n    }\r\n\r\n    function onERC721Received(address, address, uint256, bytes memory) public virtual override returns (bytes4) {\r\n        return this.onERC721Received.selector;\r\n    }\r\n\r\n    function supportsInterface(bytes4 interfaceId) public pure returns (bool) {\r\n        return interfaceId == type(IERC721Receiver).interfaceId;\r\n    }\r\n\r\n    function Initialize(address _Core, address _CoreIn, address _Robbery, address _PvP, address _Equipment) public\r\n    {\r\n        if(Initialized == false)\r\n        {\r\n            _setupRole(DEFAULT_CORE_ROLE, _Core);\r\n            _setupRole(DEFAULT_CORE_ROLE, _CoreIn);\r\n            _setupRole(DEFAULT_CORE_ROLE, _Robbery);\r\n            _setupRole(DEFAULT_CORE_ROLE, _PvP);\r\n            _setupRole(DEFAULT_CORE_ROLE, _Equipment);\r\n            _setupRole(DEFAULT_ADMIN_ROLE, msg.sender);\r\n            Initialized = true;\r\n        }\r\n    }\r\n    function createExpedition(address addr, uint256 tokenId) onlyCore() public returns (uint256){\r\n        uint256 returnValue = 0;\r\n\r\n        if(crimeChar.ownerOf(tokenId) != addr) return returnValue;\r\n\r\n        CharacterDetail memory char = crimeChar.getCharacter(tokenId);\r\n\r\n        if((block.timestamp < char.lastExpedition) && (char.lastExpedition != 0)) return returnValue;\r\n\r\n        char.lastExpedition = block.timestamp + (1 days);\r\n\r\n        crimeChar.UpdateCharacter(tokenId, char);\r\n        returnValue = 10;\r\n\r\n        return returnValue;\r\n    }\r\n\r\n    function createPvP(address addr, uint256 tokenId) onlyCore() public returns (uint256){\r\n        uint256 returnValue = 0;\r\n\r\n        if(crimeChar.ownerOf(tokenId) != addr) return returnValue;\r\n        CharacterDetail memory char = crimeChar.getCharacter(tokenId);\r\n\r\n        if((block.timestamp < char.lastPvP) && (char.lastPvP != 0)) return returnValue;\r\n\r\n        char.lastPvP = block.timestamp + (1 days);\r\n\r\n        crimeChar.UpdateCharacter(tokenId, char);\r\n        returnValue = 10;\r\n\r\n        return returnValue;\r\n    }\r\n\r\n    function UpdateCharacterItemBonus(uint256 tokenId, uint256 gameItemTokenId) onlyCore() public\r\n    {\r\n        CharacterDetail memory char = crimeChar.getCharacter(tokenId);\r\n\r\n        if(gameItemTokenId == 0)\r\n        {\r\n            uint256 weaponId = char.weaponId;\r\n            _GameItem memory item = crimeItem.getGameItem(weaponId);\r\n            char.power += item.powerBonus;\r\n            char._str += item.strBonus;\r\n            char._int += item.intBonus;\r\n            char._cha += item.chaBonus;\r\n            char._res += item.resBonus;\r\n        }\r\n        else\r\n        {\r\n            _GameItem memory item = crimeItem.getGameItem(gameItemTokenId);\r\n            char.power -= item.powerBonus;\r\n            char._str -= item.strBonus;\r\n            char._int -= item.intBonus;\r\n            char._cha -= item.chaBonus;\r\n            char._res -= item.resBonus;\r\n        }\r\n        crimeChar.UpdateCharacter(tokenId, char);\r\n    }\r\n\r\n    function UpdateExpeditioResult(CharacterDetail memory char, uint256 result, uint256 roll, uint256 _exp, uint256 _respect, uint256 baseDamage) onlyCore() public returns (uint256) {\r\n        char.lastExpeditionResult = result;\r\n        char.respect += _respect;\r\n        char.exp += _exp;\r\n        char.lastExpeditionRoll = roll;\r\n        uint256 returnValue = 0;\r\n        if(char.exp >= utils.getExperienceTable(char.level))\r\n        {\r\n            char.level++; //level\r\n            // (1 = ladrao, 2 = gangster, 3 = empresario, 4 = traficante)\r\n            if(char.class == 1) char._str += 1;\r\n            else if(char.class == 2) char._int += 1;\r\n            else if(char.class == 3) char._cha += 1;\r\n            else char._res += 1;\r\n\r\n            char._str += 1;\r\n            char._int += 1;\r\n            char._cha += 1;\r\n            char._res += 1;\r\n            char.curHp = char.maxHp;\r\n            char.power += (char.power / 100); // 1% de more Power\r\n        }\r\n\r\n        if(char.level == 1) baseDamage = ((char.maxHp * 30) / 100);\r\n\r\n        if(char.coleteTime > block.timestamp) baseDamage = baseDamage / 2; //Colete\r\n        else char.coleteTime = 0;\r\n        \r\n        if(baseDamage >= char.curHp)\r\n        {\r\n            char.curHp = 0; //curHP\r\n            char.nurseTime = block.timestamp + (1 days) + (12 hours); // Nurse\r\n            char.prisonTime = 0; // Prison\r\n            char.hospitalPrice = ((char.power / 100) * (utils.getMintPrice() / 65));\r\n            returnValue = 1;\r\n        }\r\n        else\r\n        {\r\n            char.curHp -= baseDamage;\r\n        }\r\n        char.maxHp += baseDamage / 2;\r\n        if(returnValue == 0 && result != 100)\r\n        {\r\n            uint256 _rd = utils.rand(100);\r\n            if(_rd <= utils.getBasePrisonChance(char.rarity, char.vicio))\r\n            {\r\n                char.prisonTime = block.timestamp + (1 days) + (12 hours); //Prison\r\n                char.nurseTime = 0;\r\n                char.prisonPrice = ((char.power / 100) * (utils.getMintPrice() / 65));\r\n            }\r\n            returnValue = 2;\r\n        }\r\n        crimeChar.UpdateCharacter(char.tokenId, char);\r\n        return returnValue;\r\n    }\r\n\r\n    function UpdatePvPHPResult(CharacterDetail memory attacker, CharacterDetail memory defensor, uint256 baseDamage, uint256 defDamage) internal {\r\n        uint256 bDmg = baseDamage;\r\n        uint256 dDmg = defDamage;\r\n\r\n        if(attacker.coleteTime > block.timestamp) bDmg = ((bDmg * 65) / 100); //Colete\r\n        else attacker.coleteTime = 0;\r\n\r\n        if(defensor.coleteTime > block.timestamp) dDmg = ((dDmg * 65) / 100); //Colete def\r\n        else defensor.coleteTime = 0;\r\n        \r\n        if(dDmg >= attacker.curHp)\r\n        {\r\n            attacker.curHp = 0; //curHP\r\n            attacker.nurseTime = block.timestamp + (1 days) + (12 hours); // Nurse\r\n            attacker.prisonTime = 0; // Prison\r\n            attacker.hospitalPrice = ((attacker.power / 100) * utils.getMintPrice() / 65);\r\n        }\r\n        else\r\n        {\r\n            attacker.curHp -= dDmg;\r\n        }\r\n\r\n        if(bDmg >= defensor.curHp)\r\n        {\r\n            defensor.curHp = 0; //curHP\r\n            defensor.nurseTime = block.timestamp + (1 days) + (12 hours); // Nurse\r\n            defensor.prisonTime = 0; // Prison\r\n            defensor.hospitalPrice = ((defensor.power / 100) * utils.getMintPrice() / 65);\r\n        }\r\n        else\r\n        {\r\n            defensor.curHp -= bDmg;\r\n        }\r\n\r\n        crimeChar.UpdateCharacter(attacker.tokenId, attacker);\r\n        crimeChar.UpdateCharacter(defensor.tokenId, defensor);\r\n    }\r\n\r\n    function UpdatePvPResult(CharacterDetail memory attacker, CharacterDetail memory defensor, uint256 result) onlyCore() public returns (uint256) {\r\n        uint256 baseDamage = 0;\r\n        uint256 defDamage = 0;\r\n        attacker.lastPvPResult = result;\r\n\r\n        if(result == 100)\r\n        {\r\n            attacker.respect += ((defensor.respect * 40) / 100); //respect \r\n            attacker.exp += 7; //exp\r\n            if(attacker.respect / 10 > defensor.respect) defensor.respect = 0;\r\n            else defensor.respect -= attacker.respect / 10;\r\n            \r\n            if(attacker.exp >= utils.getExperienceTable(attacker.level))\r\n            {\r\n                attacker.level++; //level\r\n                // (1 = ladrao, 2 = gangster, 3 = empresario, 4 = traficante)\r\n                if(attacker.class == 1) attacker._str += 1;\r\n                else if(attacker.class == 2) attacker._int += 1;\r\n                else if(attacker.class == 3) attacker._cha += 1;\r\n                else attacker._res += 1;\r\n\r\n                attacker._str += 1;\r\n                attacker._int += 1;\r\n                attacker._cha += 1;\r\n                attacker._res += 1;\r\n                attacker.curHp = attacker.maxHp;\r\n                attacker.power += (attacker.power / 100); // 1% de more Power9***\r\n            }\r\n            baseDamage = ((defensor.maxHp * (2 + utils.rand(6))) / 100);\r\n            defDamage = ((attacker.maxHp * (4 + utils.rand(10))) / 100);\r\n        }\r\n        else\r\n        {\r\n            defensor.respect += ((defensor.respect * 25) / 100); //respect \r\n            if(defensor.respect / 10 > attacker.respect) attacker.respect = 0;\r\n            else attacker.respect -= attacker.respect / 10;\r\n            defensor.exp += 2;\r\n            if(defensor.exp >= utils.getExperienceTable(defensor.level))\r\n            {\r\n                defensor.level++; //level\r\n                // (1 = ladrao, 2 = gangster, 3 = empresario, 4 = traficante)\r\n                if(defensor.class == 1) defensor._str += 1;\r\n                else if(defensor.class == 2) defensor._int += 1;\r\n                else if(defensor.class == 3) defensor._cha += 1;\r\n                else defensor._res += 1;\r\n\r\n                defensor._str += 1;\r\n                defensor._int += 1;\r\n                defensor._cha += 1;\r\n                defensor._res += 1;\r\n                defensor.curHp = defensor.maxHp;\r\n                defensor.power += (defensor.power / 100); // 1% de more Power\r\n            }\r\n            baseDamage = ((defensor.maxHp * (4 + utils.rand(10))) / 100);\r\n            defDamage = ((attacker.maxHp * (2 + utils.rand(6))) / 100);\r\n        }\r\n\r\n        UpdatePvPHPResult(attacker, defensor, baseDamage, defDamage);\r\n        \r\n        uint256 returnValue = 0;\r\n        return returnValue;\r\n    }\r\n}",
  "sourcePath": "D:\\CrimeCity\\contracts\\utils\\CharacterUtils.sol",
  "compiler": {
    "name": "solc",
    "version": "0.8.10+commit.fc410830.Emscripten.clang"
  },
  "schemaVersion": "3.4.3",
  "updatedAt": "2022-01-22T20:23:21.537Z",
  "networkType": "ethereum",
  "devdoc": {
    "kind": "dev",
    "methods": {
      "getRoleAdmin(uint256)": {
        "details": "Returns the admin role that controls `role`. See {grantRole} and {revokeRole}. To change a role's admin, use {_setRoleAdmin}."
      },
      "grantRole(uint256,address)": {
        "details": "Grants `role` to `account`. If `account` had not been already granted `role`, emits a {RoleGranted} event. Requirements: - the caller must have ``role``'s admin role."
      },
      "hasRole(uint256,address)": {
        "details": "Returns `true` if `account` has been granted `role`."
      },
      "renounceRole(uint256,address)": {
        "details": "Revokes `role` from the calling account. Roles are often managed via {grantRole} and {revokeRole}: this function's purpose is to provide a mechanism for accounts to lose their privileges if they are compromised (such as when a trusted device is misplaced). If the calling account had been granted `role`, emits a {RoleRevoked} event. Requirements: - the caller must be `account`."
      },
      "revokeRole(uint256,address)": {
        "details": "Revokes `role` from `account`. If `account` had been granted `role`, emits a {RoleRevoked} event. Requirements: - the caller must have ``role``'s admin role."
      }
    },
    "version": 1
  },
  "userdoc": {
    "kind": "user",
    "methods": {},
    "version": 1
  }
}