{
  "contractName": "Equipment",
  "abi": [
    {
      "inputs": [
        {
          "internalType": "contract Utils",
          "name": "_util",
          "type": "address"
        },
        {
          "internalType": "contract Character",
          "name": "_character",
          "type": "address"
        },
        {
          "internalType": "contract GameItem",
          "name": "_gameItem",
          "type": "address"
        },
        {
          "internalType": "contract CharacterUtils",
          "name": "_charUtils",
          "type": "address"
        },
        {
          "internalType": "contract CoreInGame",
          "name": "_game",
          "type": "address"
        }
      ],
      "stateMutability": "nonpayable",
      "type": "constructor"
    },
    {
      "anonymous": false,
      "inputs": [
        {
          "indexed": true,
          "internalType": "uint256",
          "name": "role",
          "type": "uint256"
        },
        {
          "indexed": true,
          "internalType": "uint256",
          "name": "previousAdminRole",
          "type": "uint256"
        },
        {
          "indexed": true,
          "internalType": "uint256",
          "name": "newAdminRole",
          "type": "uint256"
        }
      ],
      "name": "RoleAdminChanged",
      "type": "event"
    },
    {
      "anonymous": false,
      "inputs": [
        {
          "indexed": true,
          "internalType": "uint256",
          "name": "role",
          "type": "uint256"
        },
        {
          "indexed": true,
          "internalType": "address",
          "name": "account",
          "type": "address"
        },
        {
          "indexed": true,
          "internalType": "address",
          "name": "sender",
          "type": "address"
        }
      ],
      "name": "RoleGranted",
      "type": "event"
    },
    {
      "anonymous": false,
      "inputs": [
        {
          "indexed": true,
          "internalType": "uint256",
          "name": "role",
          "type": "uint256"
        },
        {
          "indexed": true,
          "internalType": "address",
          "name": "account",
          "type": "address"
        },
        {
          "indexed": true,
          "internalType": "address",
          "name": "sender",
          "type": "address"
        }
      ],
      "name": "RoleRevoked",
      "type": "event"
    },
    {
      "inputs": [],
      "name": "DEFAULT_ADMIN_ROLE",
      "outputs": [
        {
          "internalType": "uint256",
          "name": "",
          "type": "uint256"
        }
      ],
      "stateMutability": "view",
      "type": "function",
      "constant": true
    },
    {
      "inputs": [],
      "name": "DEFAULT_CORE_ROLE",
      "outputs": [
        {
          "internalType": "uint256",
          "name": "",
          "type": "uint256"
        }
      ],
      "stateMutability": "view",
      "type": "function",
      "constant": true
    },
    {
      "inputs": [
        {
          "internalType": "uint256",
          "name": "role",
          "type": "uint256"
        }
      ],
      "name": "getRoleAdmin",
      "outputs": [
        {
          "internalType": "uint256",
          "name": "",
          "type": "uint256"
        }
      ],
      "stateMutability": "view",
      "type": "function",
      "constant": true
    },
    {
      "inputs": [
        {
          "internalType": "uint256",
          "name": "role",
          "type": "uint256"
        },
        {
          "internalType": "address",
          "name": "account",
          "type": "address"
        }
      ],
      "name": "grantRole",
      "outputs": [],
      "stateMutability": "nonpayable",
      "type": "function"
    },
    {
      "inputs": [
        {
          "internalType": "uint256",
          "name": "role",
          "type": "uint256"
        },
        {
          "internalType": "address",
          "name": "account",
          "type": "address"
        }
      ],
      "name": "hasRole",
      "outputs": [
        {
          "internalType": "bool",
          "name": "",
          "type": "bool"
        }
      ],
      "stateMutability": "view",
      "type": "function",
      "constant": true
    },
    {
      "inputs": [
        {
          "internalType": "uint256",
          "name": "role",
          "type": "uint256"
        },
        {
          "internalType": "address",
          "name": "account",
          "type": "address"
        }
      ],
      "name": "renounceRole",
      "outputs": [],
      "stateMutability": "nonpayable",
      "type": "function"
    },
    {
      "inputs": [
        {
          "internalType": "uint256",
          "name": "role",
          "type": "uint256"
        },
        {
          "internalType": "address",
          "name": "account",
          "type": "address"
        }
      ],
      "name": "revokeRole",
      "outputs": [],
      "stateMutability": "nonpayable",
      "type": "function"
    },
    {
      "inputs": [
        {
          "internalType": "address",
          "name": "",
          "type": "address"
        },
        {
          "internalType": "address",
          "name": "",
          "type": "address"
        },
        {
          "internalType": "uint256",
          "name": "",
          "type": "uint256"
        },
        {
          "internalType": "bytes",
          "name": "",
          "type": "bytes"
        }
      ],
      "name": "onERC721Received",
      "outputs": [
        {
          "internalType": "bytes4",
          "name": "",
          "type": "bytes4"
        }
      ],
      "stateMutability": "nonpayable",
      "type": "function"
    },
    {
      "inputs": [
        {
          "internalType": "bytes4",
          "name": "interfaceId",
          "type": "bytes4"
        }
      ],
      "name": "supportsInterface",
      "outputs": [
        {
          "internalType": "bool",
          "name": "",
          "type": "bool"
        }
      ],
      "stateMutability": "pure",
      "type": "function",
      "constant": true
    },
    {
      "inputs": [],
      "name": "bnbWithdraw",
      "outputs": [],
      "stateMutability": "nonpayable",
      "type": "function"
    },
    {
      "inputs": [
        {
          "internalType": "address",
          "name": "newAdmin",
          "type": "address"
        }
      ],
      "name": "changeAdmin",
      "outputs": [],
      "stateMutability": "nonpayable",
      "type": "function"
    },
    {
      "inputs": [
        {
          "internalType": "uint256",
          "name": "tokenId",
          "type": "uint256"
        },
        {
          "internalType": "uint256",
          "name": "gameItemTokenId",
          "type": "uint256"
        }
      ],
      "name": "equipWeapon",
      "outputs": [],
      "stateMutability": "nonpayable",
      "type": "function"
    },
    {
      "inputs": [
        {
          "internalType": "uint256",
          "name": "tokenId",
          "type": "uint256"
        }
      ],
      "name": "unequipWeapon",
      "outputs": [],
      "stateMutability": "nonpayable",
      "type": "function"
    }
  ],
  "bytecode": "0x60806040523480156200001157600080fd5b506040516200321938038062003219833981810160405281019062000037919062000621565b33600160006101000a81548173ffffffffffffffffffffffffffffffffffffffff021916908373ffffffffffffffffffffffffffffffffffffffff16021790555073bf752eb4b851b241a36e22767b304ef28242198a600260006101000a81548173ffffffffffffffffffffffffffffffffffffffff021916908373ffffffffffffffffffffffffffffffffffffffff160217905550600060038190555083600560006101000a81548173ffffffffffffffffffffffffffffffffffffffff021916908373ffffffffffffffffffffffffffffffffffffffff16021790555082600760006101000a81548173ffffffffffffffffffffffffffffffffffffffff021916908373ffffffffffffffffffffffffffffffffffffffff16021790555084600460006101000a81548173ffffffffffffffffffffffffffffffffffffffff021916908373ffffffffffffffffffffffffffffffffffffffff16021790555080600860006101000a81548173ffffffffffffffffffffffffffffffffffffffff021916908373ffffffffffffffffffffffffffffffffffffffff16021790555081600660006101000a81548173ffffffffffffffffffffffffffffffffffffffff021916908373ffffffffffffffffffffffffffffffffffffffff1602179055506200022d601e806200029460201b60201c565b62000241601f601e6200029460201b60201c565b62000254601e33620002f760201b60201c565b62000289601e600260009054906101000a900473ffffffffffffffffffffffffffffffffffffffff16620002f760201b60201c565b5050505050620006a9565b6000620002a7836200030d60201b60201c565b905081600080858152602001908152602001600020600101819055508181847f6620dedee755c284a7e221a3279487b734830c1f76c026c797b4d019c6b4b2f460405160405180910390a4505050565b6200030982826200032c60201b60201c565b5050565b6000806000838152602001908152602001600020600101549050919050565b6200033e82826200041d60201b60201c565b6200041957600160008084815260200190815260200160002060000160008373ffffffffffffffffffffffffffffffffffffffff1673ffffffffffffffffffffffffffffffffffffffff16815260200190815260200160002060006101000a81548160ff021916908315150217905550620003be6200048760201b60201c565b73ffffffffffffffffffffffffffffffffffffffff168173ffffffffffffffffffffffffffffffffffffffff16837f1ec1667fba5e43c5c76fff54e76d7a4a20a4fecf7b49724ad8d52a3f726e9dbd60405160405180910390a45b5050565b600080600084815260200190815260200160002060000160008373ffffffffffffffffffffffffffffffffffffffff1673ffffffffffffffffffffffffffffffffffffffff16815260200190815260200160002060009054906101000a900460ff16905092915050565b600033905090565b600080fd5b600073ffffffffffffffffffffffffffffffffffffffff82169050919050565b6000620004c18262000494565b9050919050565b6000620004d582620004b4565b9050919050565b620004e781620004c8565b8114620004f357600080fd5b50565b6000815190506200050781620004dc565b92915050565b60006200051a82620004b4565b9050919050565b6200052c816200050d565b81146200053857600080fd5b50565b6000815190506200054c8162000521565b92915050565b60006200055f82620004b4565b9050919050565b620005718162000552565b81146200057d57600080fd5b50565b600081519050620005918162000566565b92915050565b6000620005a482620004b4565b9050919050565b620005b68162000597565b8114620005c257600080fd5b50565b600081519050620005d681620005ab565b92915050565b6000620005e982620004b4565b9050919050565b620005fb81620005dc565b81146200060757600080fd5b50565b6000815190506200061b81620005f0565b92915050565b600080600080600060a0868803121562000640576200063f6200048f565b5b60006200065088828901620004f6565b955050602062000663888289016200053b565b9450506040620006768882890162000580565b93505060606200068988828901620005c5565b92505060806200069c888289016200060a565b9150509295509295909350565b612b6080620006b96000396000f3fe608060405234801561001057600080fd5b50600436106100cf5760003560e01c806375bbeee71161008c578063a217fddf11610066578063a217fddf146101e8578063eb71bf0814610206578063ec2606c014610222578063fb2990ad14610252576100cf565b806375bbeee7146101a6578063785e8671146101b05780638f283970146101cc576100cf565b806301ffc9a7146100d4578063150b7a02146101045780631d0b19e7146101345780631fe5f589146101505780632308d2361461016c5780636f45e4e514610188575b600080fd5b6100ee60048036038101906100e99190611594565b610282565b6040516100fb91906115dc565b60405180910390f35b61011e600480360381019061011991906117d1565b6102ec565b60405161012b9190611863565b60405180910390f35b61014e6004803603810190610149919061187e565b610300565b005b61016a6004803603810190610165919061187e565b610329565b005b6101866004803603810190610181919061187e565b610352565b005b6101906103d5565b60405161019d91906118cd565b60405180910390f35b6101ae6103da565b005b6101ca60048036038101906101c591906118e8565b610484565b005b6101e660048036038101906101e19190611928565b6109f5565b005b6101f0610a4d565b6040516101fd91906118cd565b60405180910390f35b610220600480360381019061021b9190611955565b610a52565b005b61023c6004803603810190610237919061187e565b611000565b60405161024991906115dc565b60405180910390f35b61026c60048036038101906102679190611955565b61106a565b60405161027991906118cd565b60405180910390f35b60007f150b7a02000000000000000000000000000000000000000000000000000000007bffffffffffffffffffffffffffffffffffffffffffffffffffffffff1916827bffffffffffffffffffffffffffffffffffffffffffffffffffffffff1916149050919050565b600063150b7a0260e01b9050949350505050565b6103098261106a565b61031a81610315611089565b611091565b610324838361112b565b505050565b6103328261106a565b6103438161033e611089565b611091565b61034d838361120c565b505050565b61035a611089565b73ffffffffffffffffffffffffffffffffffffffff168173ffffffffffffffffffffffffffffffffffffffff16146103c7576040517f08c379a00000000000000000000000000000000000000000000000000000000081526004016103be90611a05565b60405180910390fd5b6103d1828261112b565b5050565b601f81565b601e6103ed816103e8611089565b611091565b6000339050600060035411610437576040517f08c379a000000000000000000000000000000000000000000000000000000000815260040161042e90611a71565b60405180910390fd5b8073ffffffffffffffffffffffffffffffffffffffff166108fc6003549081150290604051600060405180830381858888f1935050505015801561047f573d6000803e3d6000fd5b505050565b600860009054906101000a900473ffffffffffffffffffffffffffffffffffffffff1673ffffffffffffffffffffffffffffffffffffffff1663804b54ab33846040518363ffffffff1660e01b81526004016104e1929190611aa0565b602060405180830381865afa1580156104fe573d6000803e3d6000fd5b505050506040513d601f19601f820116820180604052508101906105229190611af5565b610561576040517f08c379a000000000000000000000000000000000000000000000000000000000815260040161055890611b6e565b60405180910390fd5b3373ffffffffffffffffffffffffffffffffffffffff16600760009054906101000a900473ffffffffffffffffffffffffffffffffffffffff1673ffffffffffffffffffffffffffffffffffffffff16636352211e836040518263ffffffff1660e01b81526004016105d391906118cd565b602060405180830381865afa1580156105f0573d6000803e3d6000fd5b505050506040513d601f19601f820116820180604052508101906106149190611ba3565b73ffffffffffffffffffffffffffffffffffffffff161461066a576040517f08c379a000000000000000000000000000000000000000000000000000000000815260040161066190611c1c565b60405180910390fd5b6000600760009054906101000a900473ffffffffffffffffffffffffffffffffffffffff1673ffffffffffffffffffffffffffffffffffffffff166394f13f4a836040518263ffffffff1660e01b81526004016106c791906118cd565b600060405180830381865afa1580156106e4573d6000803e3d6000fd5b505050506040513d6000823e3d601f19601f8201168201806040525081019061070d9190611e83565b90506000600560009054906101000a900473ffffffffffffffffffffffffffffffffffffffff1673ffffffffffffffffffffffffffffffffffffffff1663dabb0531856040518263ffffffff1660e01b815260040161076c91906118cd565b600060405180830381865afa158015610789573d6000803e3d6000fd5b505050506040513d6000823e3d601f19601f820116820180604052508101906107b291906121c2565b905060008161034001511480156107cc5750816101600151155b61080b576040517f08c379a000000000000000000000000000000000000000000000000000000000815260040161080290612257565b60405180910390fd5b82816103400181815250506001826101600190151590811515815250506203f4804261083791906122a6565b82610180018181525050600560009054906101000a900473ffffffffffffffffffffffffffffffffffffffff1673ffffffffffffffffffffffffffffffffffffffff16634c2ac39985836040518363ffffffff1660e01b815260040161089e929190612617565b600060405180830381600087803b1580156108b857600080fd5b505af11580156108cc573d6000803e3d6000fd5b50505050600760009054906101000a900473ffffffffffffffffffffffffffffffffffffffff1673ffffffffffffffffffffffffffffffffffffffff16636e47095384846040518363ffffffff1660e01b815260040161092d92919061276f565b600060405180830381600087803b15801561094757600080fd5b505af115801561095b573d6000803e3d6000fd5b50505050600660009054906101000a900473ffffffffffffffffffffffffffffffffffffffff1673ffffffffffffffffffffffffffffffffffffffff16631bf078da8560006040518363ffffffff1660e01b81526004016109bd9291906127e4565b600060405180830381600087803b1580156109d757600080fd5b505af11580156109eb573d6000803e3d6000fd5b5050505050505050565b601e610a0881610a03611089565b611091565b81600160006101000a81548173ffffffffffffffffffffffffffffffffffffffff021916908373ffffffffffffffffffffffffffffffffffffffff1602179055505050565b601e81565b600860009054906101000a900473ffffffffffffffffffffffffffffffffffffffff1673ffffffffffffffffffffffffffffffffffffffff1663804b54ab33836040518363ffffffff1660e01b8152600401610aaf929190611aa0565b602060405180830381865afa158015610acc573d6000803e3d6000fd5b505050506040513d601f19601f82011682018060405250810190610af09190611af5565b610b2f576040517f08c379a0000000000000000000000000000000000000000000000000000000008152600401610b2690611b6e565b60405180910390fd5b6000600560009054906101000a900473ffffffffffffffffffffffffffffffffffffffff1673ffffffffffffffffffffffffffffffffffffffff1663dabb0531836040518263ffffffff1660e01b8152600401610b8c91906118cd565b600060405180830381865afa158015610ba9573d6000803e3d6000fd5b505050506040513d6000823e3d601f19601f82011682018060405250810190610bd291906121c2565b90506000600760009054906101000a900473ffffffffffffffffffffffffffffffffffffffff1673ffffffffffffffffffffffffffffffffffffffff166394f13f4a8361034001516040518263ffffffff1660e01b8152600401610c3691906118cd565b600060405180830381865afa158015610c53573d6000803e3d6000fd5b505050506040513d6000823e3d601f19601f82011682018060405250810190610c7c9190611e83565b90506000826103400151118015610c9557508061016001515b610cd4576040517f08c379a0000000000000000000000000000000000000000000000000000000008152600401610ccb90612257565b60405180910390fd5b806101800151421015610d1c576040517f08c379a0000000000000000000000000000000000000000000000000000000008152600401610d1390612859565b60405180910390fd5b600082610340015190503373ffffffffffffffffffffffffffffffffffffffff16600760009054906101000a900473ffffffffffffffffffffffffffffffffffffffff1673ffffffffffffffffffffffffffffffffffffffff16636352211e836040518263ffffffff1660e01b8152600401610d9891906118cd565b602060405180830381865afa158015610db5573d6000803e3d6000fd5b505050506040513d601f19601f82011682018060405250810190610dd99190611ba3565b73ffffffffffffffffffffffffffffffffffffffff1614610e2f576040517f08c379a0000000000000000000000000000000000000000000000000000000008152600401610e2690611c1c565b60405180910390fd5b600083610340018181525050600082610160019015159081151581525050600560009054906101000a900473ffffffffffffffffffffffffffffffffffffffff1673ffffffffffffffffffffffffffffffffffffffff16634c2ac39985856040518363ffffffff1660e01b8152600401610eaa929190612617565b600060405180830381600087803b158015610ec457600080fd5b505af1158015610ed8573d6000803e3d6000fd5b50505050600760009054906101000a900473ffffffffffffffffffffffffffffffffffffffff1673ffffffffffffffffffffffffffffffffffffffff16636e47095382846040518363ffffffff1660e01b8152600401610f3992919061276f565b600060405180830381600087803b158015610f5357600080fd5b505af1158015610f67573d6000803e3d6000fd5b50505050600660009054906101000a900473ffffffffffffffffffffffffffffffffffffffff1673ffffffffffffffffffffffffffffffffffffffff16631bf078da85836040518363ffffffff1660e01b8152600401610fc8929190612879565b600060405180830381600087803b158015610fe257600080fd5b505af1158015610ff6573d6000803e3d6000fd5b5050505050505050565b600080600084815260200190815260200160002060000160008373ffffffffffffffffffffffffffffffffffffffff1673ffffffffffffffffffffffffffffffffffffffff16815260200190815260200160002060009054906101000a900460ff16905092915050565b6000806000838152602001908152602001600020600101549050919050565b600033905090565b61109b8282611000565b611127576110c08173ffffffffffffffffffffffffffffffffffffffff1660146112ec565b6110cb8360206112ec565b6040516020016110dc929190612976565b6040516020818303038152906040526040517f08c379a000000000000000000000000000000000000000000000000000000000815260040161111e91906129e9565b60405180910390fd5b5050565b6111358282611000565b1561120857600080600084815260200190815260200160002060000160008373ffffffffffffffffffffffffffffffffffffffff1673ffffffffffffffffffffffffffffffffffffffff16815260200190815260200160002060006101000a81548160ff0219169083151502179055506111ad611089565b73ffffffffffffffffffffffffffffffffffffffff168173ffffffffffffffffffffffffffffffffffffffff16837fe0df21b65c73c27081b8f042a012b124085b41d78d27b7e3c4780f5650f5ebb860405160405180910390a45b5050565b6112168282611000565b6112e857600160008084815260200190815260200160002060000160008373ffffffffffffffffffffffffffffffffffffffff1673ffffffffffffffffffffffffffffffffffffffff16815260200190815260200160002060006101000a81548160ff02191690831515021790555061128d611089565b73ffffffffffffffffffffffffffffffffffffffff168173ffffffffffffffffffffffffffffffffffffffff16837f1ec1667fba5e43c5c76fff54e76d7a4a20a4fecf7b49724ad8d52a3f726e9dbd60405160405180910390a45b5050565b6060600060028360026112ff9190612a0b565b61130991906122a6565b67ffffffffffffffff811115611322576113216116a6565b5b6040519080825280601f01601f1916602001820160405280156113545781602001600182028036833780820191505090505b5090507f30000000000000000000000000000000000000000000000000000000000000008160008151811061138c5761138b612a65565b5b60200101907effffffffffffffffffffffffffffffffffffffffffffffffffffffffffffff1916908160001a9053507f7800000000000000000000000000000000000000000000000000000000000000816001815181106113f0576113ef612a65565b5b60200101907effffffffffffffffffffffffffffffffffffffffffffffffffffffffffffff1916908160001a905350600060018460026114309190612a0b565b61143a91906122a6565b90505b60018111156114da577f3031323334353637383961626364656600000000000000000000000000000000600f86166010811061147c5761147b612a65565b5b1a60f81b82828151811061149357611492612a65565b5b60200101907effffffffffffffffffffffffffffffffffffffffffffffffffffffffffffff1916908160001a905350600485901c9450806114d390612a94565b905061143d565b506000841461151e576040517f08c379a000000000000000000000000000000000000000000000000000000000815260040161151590612b0a565b60405180910390fd5b8091505092915050565b6000604051905090565b600080fd5b600080fd5b60007fffffffff0000000000000000000000000000000000000000000000000000000082169050919050565b6115718161153c565b811461157c57600080fd5b50565b60008135905061158e81611568565b92915050565b6000602082840312156115aa576115a9611532565b5b60006115b88482850161157f565b91505092915050565b60008115159050919050565b6115d6816115c1565b82525050565b60006020820190506115f160008301846115cd565b92915050565b600073ffffffffffffffffffffffffffffffffffffffff82169050919050565b6000611622826115f7565b9050919050565b61163281611617565b811461163d57600080fd5b50565b60008135905061164f81611629565b92915050565b6000819050919050565b61166881611655565b811461167357600080fd5b50565b6000813590506116858161165f565b92915050565b600080fd5b600080fd5b6000601f19601f8301169050919050565b7f4e487b7100000000000000000000000000000000000000000000000000000000600052604160045260246000fd5b6116de82611695565b810181811067ffffffffffffffff821117156116fd576116fc6116a6565b5b80604052505050565b6000611710611528565b905061171c82826116d5565b919050565b600067ffffffffffffffff82111561173c5761173b6116a6565b5b61174582611695565b9050602081019050919050565b82818337600083830152505050565b600061177461176f84611721565b611706565b9050828152602081018484840111156117905761178f611690565b5b61179b848285611752565b509392505050565b600082601f8301126117b8576117b761168b565b5b81356117c8848260208601611761565b91505092915050565b600080600080608085870312156117eb576117ea611532565b5b60006117f987828801611640565b945050602061180a87828801611640565b935050604061181b87828801611676565b925050606085013567ffffffffffffffff81111561183c5761183b611537565b5b611848878288016117a3565b91505092959194509250565b61185d8161153c565b82525050565b60006020820190506118786000830184611854565b92915050565b6000806040838503121561189557611894611532565b5b60006118a385828601611676565b92505060206118b485828601611640565b9150509250929050565b6118c781611655565b82525050565b60006020820190506118e260008301846118be565b92915050565b600080604083850312156118ff576118fe611532565b5b600061190d85828601611676565b925050602061191e85828601611676565b9150509250929050565b60006020828403121561193e5761193d611532565b5b600061194c84828501611640565b91505092915050565b60006020828403121561196b5761196a611532565b5b600061197984828501611676565b91505092915050565b600082825260208201905092915050565b7f416363657373436f6e74726f6c3a2063616e206f6e6c792072656e6f756e636560008201527f20726f6c657320666f722073656c660000000000000000000000000000000000602082015250565b60006119ef602f83611982565b91506119fa82611993565b604082019050919050565b60006020820190508181036000830152611a1e816119e2565b9050919050565b7f496e73756666696369656e742042616c616e6365000000000000000000000000600082015250565b6000611a5b601483611982565b9150611a6682611a25565b602082019050919050565b60006020820190508181036000830152611a8a81611a4e565b9050919050565b611a9a81611617565b82525050565b6000604082019050611ab56000830185611a91565b611ac260208301846118be565b9392505050565b611ad2816115c1565b8114611add57600080fd5b50565b600081519050611aef81611ac9565b92915050565b600060208284031215611b0b57611b0a611532565b5b6000611b1984828501611ae0565b91505092915050565b7f4e6f742052756e20696e207468697320536561736f6e00000000000000000000600082015250565b6000611b58601683611982565b9150611b6382611b22565b602082019050919050565b60006020820190508181036000830152611b8781611b4b565b9050919050565b600081519050611b9d81611629565b92915050565b600060208284031215611bb957611bb8611532565b5b6000611bc784828501611b8e565b91505092915050565b7f4e6f206f776e6572000000000000000000000000000000000000000000000000600082015250565b6000611c06600883611982565b9150611c1182611bd0565b602082019050919050565b60006020820190508181036000830152611c3581611bf9565b9050919050565b600080fd5b600080fd5b600067ffffffffffffffff821115611c6157611c606116a6565b5b611c6a82611695565b9050602081019050919050565b60005b83811015611c95578082015181840152602081019050611c7a565b83811115611ca4576000848401525b50505050565b6000611cbd611cb884611c46565b611706565b905082815260208101848484011115611cd957611cd8611690565b5b611ce4848285611c77565b509392505050565b600082601f830112611d0157611d0061168b565b5b8151611d11848260208601611caa565b91505092915050565b600081519050611d298161165f565b92915050565b60006101a08284031215611d4657611d45611c3c565b5b611d516101a0611706565b9050600082015167ffffffffffffffff811115611d7157611d70611c41565b5b611d7d84828501611cec565b6000830152506020611d9184828501611d1a565b6020830152506040611da584828501611d1a565b6040830152506060611db984828501611d1a565b6060830152506080611dcd84828501611d1a565b60808301525060a0611de184828501611d1a565b60a08301525060c0611df584828501611d1a565b60c08301525060e0611e0984828501611d1a565b60e083015250610100611e1e84828501611b8e565b61010083015250610120611e3484828501611d1a565b61012083015250610140611e4a84828501611d1a565b61014083015250610160611e6084828501611ae0565b61016083015250610180611e7684828501611d1a565b6101808301525092915050565b600060208284031215611e9957611e98611532565b5b600082015167ffffffffffffffff811115611eb757611eb6611537565b5b611ec384828501611d2f565b91505092915050565b60006104008284031215611ee357611ee2611c3c565b5b611eee610400611706565b9050600082015167ffffffffffffffff811115611f0e57611f0d611c41565b5b611f1a84828501611cec565b6000830152506020611f2e84828501611d1a565b6020830152506040611f4284828501611d1a565b6040830152506060611f5684828501611d1a565b6060830152506080611f6a84828501611d1a565b60808301525060a0611f7e84828501611d1a565b60a08301525060c0611f9284828501611d1a565b60c08301525060e0611fa684828501611d1a565b60e083015250610100611fbb84828501611d1a565b61010083015250610120611fd184828501611d1a565b61012083015250610140611fe784828501611d1a565b61014083015250610160611ffd84828501611d1a565b6101608301525061018061201384828501611d1a565b610180830152506101a061202984828501611d1a565b6101a0830152506101c061203f84828501611d1a565b6101c0830152506101e061205584828501611d1a565b6101e08301525061020061206b84828501611d1a565b6102008301525061022061208184828501611d1a565b6102208301525061024061209784828501611d1a565b610240830152506102606120ad84828501611d1a565b610260830152506102806120c384828501611d1a565b610280830152506102a06120d984828501611d1a565b6102a0830152506102c06120ef84828501611d1a565b6102c0830152506102e061210584828501611d1a565b6102e08301525061030061211b84828501611d1a565b6103008301525061032061213184828501611d1a565b6103208301525061034061214784828501611d1a565b6103408301525061036061215d84828501611d1a565b6103608301525061038061217384828501611d1a565b610380830152506103a061218984828501611d1a565b6103a0830152506103c061219f84828501611b8e565b6103c0830152506103e06121b584828501611d1a565b6103e08301525092915050565b6000602082840312156121d8576121d7611532565b5b600082015167ffffffffffffffff8111156121f6576121f5611537565b5b61220284828501611ecc565b91505092915050565b7f4e6f204551554950000000000000000000000000000000000000000000000000600082015250565b6000612241600883611982565b915061224c8261220b565b602082019050919050565b6000602082019050818103600083015261227081612234565b9050919050565b7f4e487b7100000000000000000000000000000000000000000000000000000000600052601160045260246000fd5b60006122b182611655565b91506122bc83611655565b9250827fffffffffffffffffffffffffffffffffffffffffffffffffffffffffffffffff038211156122f1576122f0612277565b5b828201905092915050565b600081519050919050565b600082825260208201905092915050565b6000612323826122fc565b61232d8185612307565b935061233d818560208601611c77565b61234681611695565b840191505092915050565b61235a81611655565b82525050565b61236981611617565b82525050565b600061040083016000830151848203600086015261238d8282612318565b91505060208301516123a26020860182612351565b5060408301516123b56040860182612351565b5060608301516123c86060860182612351565b5060808301516123db6080860182612351565b5060a08301516123ee60a0860182612351565b5060c083015161240160c0860182612351565b5060e083015161241460e0860182612351565b50610100830151612429610100860182612351565b5061012083015161243e610120860182612351565b50610140830151612453610140860182612351565b50610160830151612468610160860182612351565b5061018083015161247d610180860182612351565b506101a08301516124926101a0860182612351565b506101c08301516124a76101c0860182612351565b506101e08301516124bc6101e0860182612351565b506102008301516124d1610200860182612351565b506102208301516124e6610220860182612351565b506102408301516124fb610240860182612351565b50610260830151612510610260860182612351565b50610280830151612525610280860182612351565b506102a083015161253a6102a0860182612351565b506102c083015161254f6102c0860182612351565b506102e08301516125646102e0860182612351565b50610300830151612579610300860182612351565b5061032083015161258e610320860182612351565b506103408301516125a3610340860182612351565b506103608301516125b8610360860182612351565b506103808301516125cd610380860182612351565b506103a08301516125e26103a0860182612351565b506103c08301516125f76103c0860182612360565b506103e083015161260c6103e0860182612351565b508091505092915050565b600060408201905061262c60008301856118be565b818103602083015261263e818461236f565b90509392505050565b612650816115c1565b82525050565b60006101a08301600083015184820360008601526126748282612318565b91505060208301516126896020860182612351565b50604083015161269c6040860182612351565b5060608301516126af6060860182612351565b5060808301516126c26080860182612351565b5060a08301516126d560a0860182612351565b5060c08301516126e860c0860182612351565b5060e08301516126fb60e0860182612351565b50610100830151612710610100860182612360565b50610120830151612725610120860182612351565b5061014083015161273a610140860182612351565b5061016083015161274f610160860182612647565b50610180830151612764610180860182612351565b508091505092915050565b600060408201905061278460008301856118be565b81810360208301526127968184612656565b90509392505050565b6000819050919050565b6000819050919050565b60006127ce6127c96127c48461279f565b6127a9565b611655565b9050919050565b6127de816127b3565b82525050565b60006040820190506127f960008301856118be565b61280660208301846127d5565b9392505050565b7f45717569706d656e7420696e20436f6f6c646f776e0000000000000000000000600082015250565b6000612843601583611982565b915061284e8261280d565b602082019050919050565b6000602082019050818103600083015261287281612836565b9050919050565b600060408201905061288e60008301856118be565b61289b60208301846118be565b9392505050565b600081905092915050565b7f416363657373436f6e74726f6c3a206163636f756e7420000000000000000000600082015250565b60006128e36017836128a2565b91506128ee826128ad565b601782019050919050565b6000612904826122fc565b61290e81856128a2565b935061291e818560208601611c77565b80840191505092915050565b7f206973206d697373696e6720726f6c6520000000000000000000000000000000600082015250565b60006129606011836128a2565b915061296b8261292a565b601182019050919050565b6000612981826128d6565b915061298d82856128f9565b915061299882612953565b91506129a482846128f9565b91508190509392505050565b60006129bb826122fc565b6129c58185611982565b93506129d5818560208601611c77565b6129de81611695565b840191505092915050565b60006020820190508181036000830152612a0381846129b0565b905092915050565b6000612a1682611655565b9150612a2183611655565b9250817fffffffffffffffffffffffffffffffffffffffffffffffffffffffffffffffff0483118215151615612a5a57612a59612277565b5b828202905092915050565b7f4e487b7100000000000000000000000000000000000000000000000000000000600052603260045260246000fd5b6000612a9f82611655565b91506000821415612ab357612ab2612277565b5b600182039050919050565b7f537472696e67733a20686578206c656e67746820696e73756666696369656e74600082015250565b6000612af4602083611982565b9150612aff82612abe565b602082019050919050565b60006020820190508181036000830152612b2381612ae7565b905091905056fea26469706673582212206e7804870919e7cf50fc5cdf6f44f9aa9efac901e64dc003de774bae4a13258364736f6c634300080a0033",
  "immutableReferences": {},
  "source": "// SPDX-License-Identifier: UNLICENSED\r\npragma solidity >=0.4.22 <0.9.0;\r\n\r\n/**\r\n * @title SampleBEP20Token\r\n * @dev Very simple BEP20 Token example, where all tokens are pre-assigned to the creator.\r\n * Note they can later distribute these tokens as they wish using `transfer` and other\r\n * `BEP20` functions.\r\n * USE IT ONLY FOR LEARNING PURPOSES. SHOULD BE MODIFIED FOR PRODUCTION\r\n */\r\n\r\nimport \"../../node_modules/@openzeppelin/contracts/token/ERC721/IERC721Receiver.sol\";\r\nimport \"./../utils/Admin.sol\";\r\nimport \"./../utils/Utils.sol\";\r\nimport \"./../utils/CharacterUtils.sol\";\r\n\r\nimport \"./../tokens/Character.sol\";\r\nimport \"./../tokens/GANG.sol\";\r\nimport \"./../tokens/GameItem.sol\";\r\nimport \"./../CoreInGame.sol\";\r\n\r\ncontract Equipment is Admin, IERC721Receiver {\r\n    address private _contractowner;\r\n    address private _secondowner;\r\n\r\n    uint256 private bnbBalance;\r\n\r\n    Utils private utils;\r\n    Character private crimeChar;\r\n    CharacterUtils private charUtils;\r\n    GameItem private crimeItem;\r\n    CoreInGame private game;\r\n\r\n    constructor(Utils _util, Character _character, GameItem _gameItem, CharacterUtils _charUtils, CoreInGame _game) Admin()\r\n    {\r\n        _contractowner = msg.sender;\r\n        _secondowner = address(0xbf752Eb4b851B241A36e22767b304ef28242198A);\r\n        bnbBalance = 0;\r\n        crimeChar = _character;\r\n        crimeItem = _gameItem;\r\n        utils = _util;\r\n        game = _game;\r\n        charUtils = _charUtils;\r\n\r\n        _setRoleAdmin(DEFAULT_ADMIN_ROLE, DEFAULT_ADMIN_ROLE);\r\n        _setRoleAdmin(DEFAULT_CORE_ROLE, DEFAULT_ADMIN_ROLE);\r\n        _setupRole(DEFAULT_ADMIN_ROLE, msg.sender);\r\n        _setupRole(DEFAULT_ADMIN_ROLE, _secondowner);\r\n    }\r\n\r\n    function onERC721Received(address, address, uint256, bytes memory) public virtual override returns (bytes4) {\r\n        return this.onERC721Received.selector;\r\n    }\r\n\r\n    function supportsInterface(bytes4 interfaceId) public pure returns (bool) {\r\n        return interfaceId == type(IERC721Receiver).interfaceId;\r\n    }\r\n\r\n    function bnbWithdraw() onlyRole(DEFAULT_ADMIN_ROLE) public\r\n    {\r\n        address payable owner = payable(msg.sender);\r\n        require(bnbBalance > 0, \"Insufficient Balance\");\r\n        owner.transfer(bnbBalance);\r\n    }\r\n\r\n    function changeAdmin(address newAdmin) public onlyRole(DEFAULT_ADMIN_ROLE)\r\n    {\r\n        _contractowner = newAdmin;\r\n    }\r\n\r\n    function equipWeapon(uint256 tokenId, uint256 gameItemTokenId) public{\r\n        require(game.checkCharacterCanRunHP(msg.sender, tokenId), \"Not Run in this Season\");\r\n        require(crimeItem.ownerOf(gameItemTokenId) == msg.sender, \"No owner\");\r\n        _GameItem memory item = crimeItem.getGameItem(gameItemTokenId);\r\n        CharacterDetail memory char = crimeChar.getCharacter(tokenId);\r\n        require(char.weaponId == 0 && !item.equiped, \"No EQUIP\");\r\n        char.weaponId = gameItemTokenId;\r\n        item.equiped = true;\r\n        item.equipedTime = (block.timestamp + (3 days));\r\n        crimeChar.UpdateCharacter(tokenId, char);\r\n        crimeItem.UpdateGameItem(gameItemTokenId, item);\r\n        charUtils.UpdateCharacterItemBonus(tokenId, 0);\r\n    }\r\n\r\n    function unequipWeapon(uint256 tokenId) public {\r\n        require(game.checkCharacterCanRunHP(msg.sender, tokenId), \"Not Run in this Season\");\r\n        CharacterDetail memory char = crimeChar.getCharacter(tokenId);\r\n        _GameItem memory item = crimeItem.getGameItem(char.weaponId);\r\n        require(char.weaponId > 0 && item.equiped, \"No EQUIP\");\r\n        require(block.timestamp >= item.equipedTime, \"Equipment in Cooldown\");\r\n        uint256 gameItemTokenId = char.weaponId;\r\n        require(crimeItem.ownerOf(gameItemTokenId) == msg.sender, \"No owner\");\r\n        char.weaponId = 0;\r\n        item.equiped = false;\r\n        crimeChar.UpdateCharacter(tokenId, char);\r\n        crimeItem.UpdateGameItem(gameItemTokenId, item);\r\n        charUtils.UpdateCharacterItemBonus(tokenId, gameItemTokenId);\r\n    }\r\n}",
  "sourcePath": "D:\\CrimeCity\\contracts\\Features\\Equipment.sol",
  "compiler": {
    "name": "solc",
    "version": "0.8.10+commit.fc410830.Emscripten.clang"
  },
  "schemaVersion": "3.4.3",
  "updatedAt": "2022-01-22T20:23:21.713Z",
  "networkType": "ethereum",
  "devdoc": {
    "kind": "dev",
    "methods": {
      "getRoleAdmin(uint256)": {
        "details": "Returns the admin role that controls `role`. See {grantRole} and {revokeRole}. To change a role's admin, use {_setRoleAdmin}."
      },
      "grantRole(uint256,address)": {
        "details": "Grants `role` to `account`. If `account` had not been already granted `role`, emits a {RoleGranted} event. Requirements: - the caller must have ``role``'s admin role."
      },
      "hasRole(uint256,address)": {
        "details": "Returns `true` if `account` has been granted `role`."
      },
      "renounceRole(uint256,address)": {
        "details": "Revokes `role` from the calling account. Roles are often managed via {grantRole} and {revokeRole}: this function's purpose is to provide a mechanism for accounts to lose their privileges if they are compromised (such as when a trusted device is misplaced). If the calling account had been granted `role`, emits a {RoleRevoked} event. Requirements: - the caller must be `account`."
      },
      "revokeRole(uint256,address)": {
        "details": "Revokes `role` from `account`. If `account` had been granted `role`, emits a {RoleRevoked} event. Requirements: - the caller must have ``role``'s admin role."
      }
    },
    "version": 1
  },
  "userdoc": {
    "kind": "user",
    "methods": {},
    "version": 1
  }
}