{
  "contractName": "Factory",
  "abi": [
    {
      "inputs": [
        {
          "internalType": "string",
          "name": "name",
          "type": "string"
        },
        {
          "internalType": "string",
          "name": "symbol",
          "type": "string"
        },
        {
          "internalType": "contract Utils",
          "name": "_ut",
          "type": "address"
        },
        {
          "internalType": "contract ItemList",
          "name": "_itemList",
          "type": "address"
        }
      ],
      "stateMutability": "nonpayable",
      "type": "constructor"
    },
    {
      "anonymous": false,
      "inputs": [
        {
          "indexed": true,
          "internalType": "address",
          "name": "owner",
          "type": "address"
        },
        {
          "indexed": true,
          "internalType": "address",
          "name": "approved",
          "type": "address"
        },
        {
          "indexed": true,
          "internalType": "uint256",
          "name": "tokenId",
          "type": "uint256"
        }
      ],
      "name": "Approval",
      "type": "event"
    },
    {
      "anonymous": false,
      "inputs": [
        {
          "indexed": true,
          "internalType": "address",
          "name": "owner",
          "type": "address"
        },
        {
          "indexed": true,
          "internalType": "address",
          "name": "operator",
          "type": "address"
        },
        {
          "indexed": false,
          "internalType": "bool",
          "name": "approved",
          "type": "bool"
        }
      ],
      "name": "ApprovalForAll",
      "type": "event"
    },
    {
      "anonymous": false,
      "inputs": [
        {
          "indexed": true,
          "internalType": "uint256",
          "name": "role",
          "type": "uint256"
        },
        {
          "indexed": true,
          "internalType": "uint256",
          "name": "previousAdminRole",
          "type": "uint256"
        },
        {
          "indexed": true,
          "internalType": "uint256",
          "name": "newAdminRole",
          "type": "uint256"
        }
      ],
      "name": "RoleAdminChanged",
      "type": "event"
    },
    {
      "anonymous": false,
      "inputs": [
        {
          "indexed": true,
          "internalType": "uint256",
          "name": "role",
          "type": "uint256"
        },
        {
          "indexed": true,
          "internalType": "address",
          "name": "account",
          "type": "address"
        },
        {
          "indexed": true,
          "internalType": "address",
          "name": "sender",
          "type": "address"
        }
      ],
      "name": "RoleGranted",
      "type": "event"
    },
    {
      "anonymous": false,
      "inputs": [
        {
          "indexed": true,
          "internalType": "uint256",
          "name": "role",
          "type": "uint256"
        },
        {
          "indexed": true,
          "internalType": "address",
          "name": "account",
          "type": "address"
        },
        {
          "indexed": true,
          "internalType": "address",
          "name": "sender",
          "type": "address"
        }
      ],
      "name": "RoleRevoked",
      "type": "event"
    },
    {
      "anonymous": false,
      "inputs": [
        {
          "indexed": true,
          "internalType": "address",
          "name": "from",
          "type": "address"
        },
        {
          "indexed": true,
          "internalType": "address",
          "name": "to",
          "type": "address"
        },
        {
          "indexed": true,
          "internalType": "uint256",
          "name": "tokenId",
          "type": "uint256"
        }
      ],
      "name": "Transfer",
      "type": "event"
    },
    {
      "inputs": [],
      "name": "DEFAULT_ADMIN_ROLE",
      "outputs": [
        {
          "internalType": "uint256",
          "name": "",
          "type": "uint256"
        }
      ],
      "stateMutability": "view",
      "type": "function",
      "constant": true
    },
    {
      "inputs": [],
      "name": "DEFAULT_CORE_ROLE",
      "outputs": [
        {
          "internalType": "uint256",
          "name": "",
          "type": "uint256"
        }
      ],
      "stateMutability": "view",
      "type": "function",
      "constant": true
    },
    {
      "inputs": [
        {
          "internalType": "address",
          "name": "to",
          "type": "address"
        },
        {
          "internalType": "uint256",
          "name": "tokenId",
          "type": "uint256"
        }
      ],
      "name": "approve",
      "outputs": [],
      "stateMutability": "nonpayable",
      "type": "function"
    },
    {
      "inputs": [
        {
          "internalType": "address",
          "name": "owner",
          "type": "address"
        }
      ],
      "name": "balanceOf",
      "outputs": [
        {
          "internalType": "uint256",
          "name": "",
          "type": "uint256"
        }
      ],
      "stateMutability": "view",
      "type": "function",
      "constant": true
    },
    {
      "inputs": [
        {
          "internalType": "uint256",
          "name": "tokenId",
          "type": "uint256"
        }
      ],
      "name": "getApproved",
      "outputs": [
        {
          "internalType": "address",
          "name": "",
          "type": "address"
        }
      ],
      "stateMutability": "view",
      "type": "function",
      "constant": true
    },
    {
      "inputs": [
        {
          "internalType": "uint256",
          "name": "role",
          "type": "uint256"
        }
      ],
      "name": "getRoleAdmin",
      "outputs": [
        {
          "internalType": "uint256",
          "name": "",
          "type": "uint256"
        }
      ],
      "stateMutability": "view",
      "type": "function",
      "constant": true
    },
    {
      "inputs": [
        {
          "internalType": "uint256",
          "name": "role",
          "type": "uint256"
        },
        {
          "internalType": "address",
          "name": "account",
          "type": "address"
        }
      ],
      "name": "grantRole",
      "outputs": [],
      "stateMutability": "nonpayable",
      "type": "function"
    },
    {
      "inputs": [
        {
          "internalType": "uint256",
          "name": "role",
          "type": "uint256"
        },
        {
          "internalType": "address",
          "name": "account",
          "type": "address"
        }
      ],
      "name": "hasRole",
      "outputs": [
        {
          "internalType": "bool",
          "name": "",
          "type": "bool"
        }
      ],
      "stateMutability": "view",
      "type": "function",
      "constant": true
    },
    {
      "inputs": [
        {
          "internalType": "address",
          "name": "owner",
          "type": "address"
        },
        {
          "internalType": "address",
          "name": "operator",
          "type": "address"
        }
      ],
      "name": "isApprovedForAll",
      "outputs": [
        {
          "internalType": "bool",
          "name": "",
          "type": "bool"
        }
      ],
      "stateMutability": "view",
      "type": "function",
      "constant": true
    },
    {
      "inputs": [],
      "name": "name",
      "outputs": [
        {
          "internalType": "string",
          "name": "",
          "type": "string"
        }
      ],
      "stateMutability": "view",
      "type": "function",
      "constant": true
    },
    {
      "inputs": [
        {
          "internalType": "uint256",
          "name": "tokenId",
          "type": "uint256"
        }
      ],
      "name": "ownerOf",
      "outputs": [
        {
          "internalType": "address",
          "name": "",
          "type": "address"
        }
      ],
      "stateMutability": "view",
      "type": "function",
      "constant": true
    },
    {
      "inputs": [
        {
          "internalType": "uint256",
          "name": "role",
          "type": "uint256"
        },
        {
          "internalType": "address",
          "name": "account",
          "type": "address"
        }
      ],
      "name": "renounceRole",
      "outputs": [],
      "stateMutability": "nonpayable",
      "type": "function"
    },
    {
      "inputs": [
        {
          "internalType": "uint256",
          "name": "role",
          "type": "uint256"
        },
        {
          "internalType": "address",
          "name": "account",
          "type": "address"
        }
      ],
      "name": "revokeRole",
      "outputs": [],
      "stateMutability": "nonpayable",
      "type": "function"
    },
    {
      "inputs": [
        {
          "internalType": "address",
          "name": "from",
          "type": "address"
        },
        {
          "internalType": "address",
          "name": "to",
          "type": "address"
        },
        {
          "internalType": "uint256",
          "name": "tokenId",
          "type": "uint256"
        }
      ],
      "name": "safeTransferFrom",
      "outputs": [],
      "stateMutability": "nonpayable",
      "type": "function"
    },
    {
      "inputs": [
        {
          "internalType": "address",
          "name": "from",
          "type": "address"
        },
        {
          "internalType": "address",
          "name": "to",
          "type": "address"
        },
        {
          "internalType": "uint256",
          "name": "tokenId",
          "type": "uint256"
        },
        {
          "internalType": "bytes",
          "name": "_data",
          "type": "bytes"
        }
      ],
      "name": "safeTransferFrom",
      "outputs": [],
      "stateMutability": "nonpayable",
      "type": "function"
    },
    {
      "inputs": [
        {
          "internalType": "address",
          "name": "operator",
          "type": "address"
        },
        {
          "internalType": "bool",
          "name": "approved",
          "type": "bool"
        }
      ],
      "name": "setApprovalForAll",
      "outputs": [],
      "stateMutability": "nonpayable",
      "type": "function"
    },
    {
      "inputs": [
        {
          "internalType": "bytes4",
          "name": "interfaceId",
          "type": "bytes4"
        }
      ],
      "name": "supportsInterface",
      "outputs": [
        {
          "internalType": "bool",
          "name": "",
          "type": "bool"
        }
      ],
      "stateMutability": "view",
      "type": "function",
      "constant": true
    },
    {
      "inputs": [],
      "name": "symbol",
      "outputs": [
        {
          "internalType": "string",
          "name": "",
          "type": "string"
        }
      ],
      "stateMutability": "view",
      "type": "function",
      "constant": true
    },
    {
      "inputs": [
        {
          "internalType": "uint256",
          "name": "tokenId",
          "type": "uint256"
        }
      ],
      "name": "tokenURI",
      "outputs": [
        {
          "internalType": "string",
          "name": "",
          "type": "string"
        }
      ],
      "stateMutability": "view",
      "type": "function",
      "constant": true
    },
    {
      "inputs": [
        {
          "internalType": "address",
          "name": "from",
          "type": "address"
        },
        {
          "internalType": "address",
          "name": "to",
          "type": "address"
        },
        {
          "internalType": "uint256",
          "name": "tokenId",
          "type": "uint256"
        }
      ],
      "name": "transferFrom",
      "outputs": [],
      "stateMutability": "nonpayable",
      "type": "function"
    },
    {
      "inputs": [
        {
          "internalType": "address",
          "name": "newAdmin",
          "type": "address"
        }
      ],
      "name": "changeAdmin",
      "outputs": [],
      "stateMutability": "nonpayable",
      "type": "function"
    },
    {
      "inputs": [
        {
          "internalType": "address",
          "name": "_Core",
          "type": "address"
        },
        {
          "internalType": "address",
          "name": "_CoreIn",
          "type": "address"
        }
      ],
      "name": "Initialize",
      "outputs": [],
      "stateMutability": "nonpayable",
      "type": "function"
    },
    {
      "inputs": [
        {
          "internalType": "address",
          "name": "addr",
          "type": "address"
        }
      ],
      "name": "mint",
      "outputs": [],
      "stateMutability": "nonpayable",
      "type": "function"
    },
    {
      "inputs": [
        {
          "internalType": "uint256",
          "name": "tokenId",
          "type": "uint256"
        },
        {
          "components": [
            {
              "internalType": "uint256",
              "name": "rarity",
              "type": "uint256"
            },
            {
              "internalType": "uint256",
              "name": "class",
              "type": "uint256"
            },
            {
              "internalType": "uint256",
              "name": "itemIdProduce",
              "type": "uint256"
            },
            {
              "internalType": "uint256",
              "name": "quantity",
              "type": "uint256"
            },
            {
              "internalType": "address",
              "name": "owner",
              "type": "address"
            },
            {
              "internalType": "uint256",
              "name": "claimTime",
              "type": "uint256"
            },
            {
              "internalType": "uint256",
              "name": "tokenId",
              "type": "uint256"
            },
            {
              "internalType": "bool",
              "name": "transfer",
              "type": "bool"
            }
          ],
          "internalType": "struct _Factory",
          "name": "_factory",
          "type": "tuple"
        }
      ],
      "name": "UpdateFactory",
      "outputs": [],
      "stateMutability": "nonpayable",
      "type": "function"
    },
    {
      "inputs": [
        {
          "internalType": "uint256",
          "name": "tokenId",
          "type": "uint256"
        }
      ],
      "name": "getFactory",
      "outputs": [
        {
          "components": [
            {
              "internalType": "uint256",
              "name": "rarity",
              "type": "uint256"
            },
            {
              "internalType": "uint256",
              "name": "class",
              "type": "uint256"
            },
            {
              "internalType": "uint256",
              "name": "itemIdProduce",
              "type": "uint256"
            },
            {
              "internalType": "uint256",
              "name": "quantity",
              "type": "uint256"
            },
            {
              "internalType": "address",
              "name": "owner",
              "type": "address"
            },
            {
              "internalType": "uint256",
              "name": "claimTime",
              "type": "uint256"
            },
            {
              "internalType": "uint256",
              "name": "tokenId",
              "type": "uint256"
            },
            {
              "internalType": "bool",
              "name": "transfer",
              "type": "bool"
            }
          ],
          "internalType": "struct _Factory",
          "name": "",
          "type": "tuple"
        }
      ],
      "stateMutability": "view",
      "type": "function",
      "constant": true
    },
    {
      "inputs": [],
      "name": "getContractOwner",
      "outputs": [
        {
          "internalType": "address",
          "name": "",
          "type": "address"
        }
      ],
      "stateMutability": "view",
      "type": "function",
      "constant": true
    },
    {
      "inputs": [],
      "name": "getIndexSlot",
      "outputs": [
        {
          "internalType": "uint256",
          "name": "",
          "type": "uint256"
        }
      ],
      "stateMutability": "view",
      "type": "function",
      "constant": true
    },
    {
      "inputs": [],
      "name": "getTotalSupply",
      "outputs": [
        {
          "internalType": "uint256",
          "name": "",
          "type": "uint256"
        }
      ],
      "stateMutability": "view",
      "type": "function",
      "constant": true
    },
    {
      "inputs": [
        {
          "internalType": "uint256",
          "name": "tokenId",
          "type": "uint256"
        }
      ],
      "name": "exists",
      "outputs": [
        {
          "internalType": "bool",
          "name": "",
          "type": "bool"
        }
      ],
      "stateMutability": "view",
      "type": "function",
      "constant": true
    },
    {
      "inputs": [
        {
          "internalType": "address",
          "name": "from",
          "type": "address"
        },
        {
          "internalType": "address",
          "name": "to",
          "type": "address"
        },
        {
          "internalType": "uint256[]",
          "name": "tokenIds",
          "type": "uint256[]"
        }
      ],
      "name": "transferFromAll",
      "outputs": [],
      "stateMutability": "nonpayable",
      "type": "function"
    },
    {
      "inputs": [],
      "name": "burnAllFactorysInSeason",
      "outputs": [],
      "stateMutability": "nonpayable",
      "type": "function"
    },
    {
      "inputs": [
        {
          "internalType": "address",
          "name": "user",
          "type": "address"
        }
      ],
      "name": "getAllFactorysForUser",
      "outputs": [
        {
          "internalType": "uint256[]",
          "name": "",
          "type": "uint256[]"
        }
      ],
      "stateMutability": "view",
      "type": "function",
      "constant": true
    },
    {
      "inputs": [
        {
          "internalType": "int256",
          "name": "max",
          "type": "int256"
        },
        {
          "internalType": "int256",
          "name": "min",
          "type": "int256"
        },
        {
          "internalType": "int256[]",
          "name": "tokenIds",
          "type": "int256[]"
        }
      ],
      "name": "getAllFactorysByTokenIds",
      "outputs": [
        {
          "components": [
            {
              "internalType": "uint256",
              "name": "rarity",
              "type": "uint256"
            },
            {
              "internalType": "uint256",
              "name": "class",
              "type": "uint256"
            },
            {
              "internalType": "uint256",
              "name": "itemIdProduce",
              "type": "uint256"
            },
            {
              "internalType": "uint256",
              "name": "quantity",
              "type": "uint256"
            },
            {
              "internalType": "address",
              "name": "owner",
              "type": "address"
            },
            {
              "internalType": "uint256",
              "name": "claimTime",
              "type": "uint256"
            },
            {
              "internalType": "uint256",
              "name": "tokenId",
              "type": "uint256"
            },
            {
              "internalType": "bool",
              "name": "transfer",
              "type": "bool"
            }
          ],
          "internalType": "struct _Factory[]",
          "name": "",
          "type": "tuple[]"
        }
      ],
      "stateMutability": "view",
      "type": "function",
      "constant": true
    },
    {
      "inputs": [
        {
          "internalType": "uint256",
          "name": "tokenId",
          "type": "uint256"
        }
      ],
      "name": "burn",
      "outputs": [],
      "stateMutability": "nonpayable",
      "type": "function"
    }
  ],
  "bytecode": "0x60806040526001600b556000600c60006101000a81548160ff0219169083151502179055503480156200003157600080fd5b506040516200515a3803806200515a833981810160405281019062000057919062000728565b83838160009080519060200190620000719291906200041d565b5080600190805190602001906200008a9291906200041d565b50505033600760006101000a81548173ffffffffffffffffffffffffffffffffffffffff021916908373ffffffffffffffffffffffffffffffffffffffff16021790555073bf752eb4b851b241a36e22767b304ef28242198a600860006101000a81548173ffffffffffffffffffffffffffffffffffffffff021916908373ffffffffffffffffffffffffffffffffffffffff16021790555081600960006101000a81548173ffffffffffffffffffffffffffffffffffffffff021916908373ffffffffffffffffffffffffffffffffffffffff16021790555080600a60006101000a81548173ffffffffffffffffffffffffffffffffffffffff021916908373ffffffffffffffffffffffffffffffffffffffff160217905550620001b8601e806200021e60201b60201c565b620001cc601f601e6200021e60201b60201c565b620001df601e336200028260201b60201c565b62000214601e600860009054906101000a900473ffffffffffffffffffffffffffffffffffffffff166200028260201b60201c565b505050506200083d565b600062000231836200029860201b60201c565b90508160066000858152602001908152602001600020600101819055508181847f6620dedee755c284a7e221a3279487b734830c1f76c026c797b4d019c6b4b2f460405160405180910390a4505050565b620002948282620002b860201b60201c565b5050565b600060066000838152602001908152602001600020600101549050919050565b620002ca8282620003aa60201b60201c565b620003a65760016006600084815260200190815260200160002060000160008373ffffffffffffffffffffffffffffffffffffffff1673ffffffffffffffffffffffffffffffffffffffff16815260200190815260200160002060006101000a81548160ff0219169083151502179055506200034b6200041560201b60201c565b73ffffffffffffffffffffffffffffffffffffffff168173ffffffffffffffffffffffffffffffffffffffff16837f1ec1667fba5e43c5c76fff54e76d7a4a20a4fecf7b49724ad8d52a3f726e9dbd60405160405180910390a45b5050565b60006006600084815260200190815260200160002060000160008373ffffffffffffffffffffffffffffffffffffffff1673ffffffffffffffffffffffffffffffffffffffff16815260200190815260200160002060009054906101000a900460ff16905092915050565b600033905090565b8280546200042b9062000807565b90600052602060002090601f0160209004810192826200044f57600085556200049b565b82601f106200046a57805160ff19168380011785556200049b565b828001600101855582156200049b579182015b828111156200049a5782518255916020019190600101906200047d565b5b509050620004aa9190620004ae565b5090565b5b80821115620004c9576000816000905550600101620004af565b5090565b6000604051905090565b600080fd5b600080fd5b600080fd5b600080fd5b6000601f19601f8301169050919050565b7f4e487b7100000000000000000000000000000000000000000000000000000000600052604160045260246000fd5b6200053682620004eb565b810181811067ffffffffffffffff82111715620005585762000557620004fc565b5b80604052505050565b60006200056d620004cd565b90506200057b82826200052b565b919050565b600067ffffffffffffffff8211156200059e576200059d620004fc565b5b620005a982620004eb565b9050602081019050919050565b60005b83811015620005d6578082015181840152602081019050620005b9565b83811115620005e6576000848401525b50505050565b600062000603620005fd8462000580565b62000561565b905082815260208101848484011115620006225762000621620004e6565b5b6200062f848285620005b6565b509392505050565b600082601f8301126200064f576200064e620004e1565b5b815162000661848260208601620005ec565b91505092915050565b600073ffffffffffffffffffffffffffffffffffffffff82169050919050565b600062000697826200066a565b9050919050565b6000620006ab826200068a565b9050919050565b620006bd816200069e565b8114620006c957600080fd5b50565b600081519050620006dd81620006b2565b92915050565b6000620006f0826200068a565b9050919050565b6200070281620006e3565b81146200070e57600080fd5b50565b6000815190506200072281620006f7565b92915050565b60008060008060808587031215620007455762000744620004d7565b5b600085015167ffffffffffffffff811115620007665762000765620004dc565b5b620007748782880162000637565b945050602085015167ffffffffffffffff811115620007985762000797620004dc565b5b620007a68782880162000637565b9350506040620007b987828801620006cc565b9250506060620007cc8782880162000711565b91505092959194509250565b7f4e487b7100000000000000000000000000000000000000000000000000000000600052602260045260246000fd5b600060028204905060018216806200082057607f821691505b60208210811415620008375762000836620007d8565b5b50919050565b61490d806200084d6000396000f3fe608060405234801561001057600080fd5b50600436106102065760003560e01c80636352211e1161011a578063a22cb465116100ad578063dc90fed01161007c578063dc90fed0146105f9578063e725e0f614610615578063e985e9c51461061f578063ec2606c01461064f578063fb2990ad1461067f57610206565b8063a22cb46514610573578063b88d4fde1461058f578063c4e41b22146105ab578063c87b56dd146105c957610206565b80637ee82bee116100e95780637ee82bee146104ff5780638f2839701461051b57806395d89b4114610537578063a217fddf1461055557610206565b80636352211e146104655780636a627842146104955780636f45e4e5146104b157806370a08231146104cf57610206565b80632308d2361161019d57806342966c681161016c57806342966c68146103af578063442890d5146103cb5780634f558e79146103e957806355a204f91461041957806356c5112e1461044957610206565b80632308d2361461032b57806323b872dd1461034757806332c124e31461036357806342842e0e1461039357610206565b80631ae4a969116101d95780631ae4a969146102a55780631d0b19e7146102c35780631eec1d94146102df5780631fe5f5891461030f57610206565b806301ffc9a71461020b57806306fdde031461023b578063081812fc14610259578063095ea7b314610289575b600080fd5b61022560048036038101906102209190612cee565b6106af565b6040516102329190612d36565b60405180910390f35b610243610791565b6040516102509190612dea565b60405180910390f35b610273600480360381019061026e9190612e42565b610823565b6040516102809190612eb0565b60405180910390f35b6102a3600480360381019061029e9190612ef7565b6108a8565b005b6102ad6109c0565b6040516102ba9190612f46565b60405180910390f35b6102dd60048036038101906102d89190612f61565b610a0e565b005b6102f960048036038101906102f49190612fa1565b610a37565b604051610306919061308c565b60405180910390f35b61032960048036038101906103249190612f61565b610bad565b005b61034560048036038101906103409190612f61565b610bd6565b005b610361600480360381019061035c91906130ae565b610c59565b005b61037d6004803603810190610378919061327f565b610cb9565b60405161038a919061345e565b60405180910390f35b6103ad60048036038101906103a891906130ae565b610e3e565b005b6103c960048036038101906103c49190612e42565b610e5e565b005b6103d3610e7c565b6040516103e09190612eb0565b60405180910390f35b61040360048036038101906103fe9190612e42565b610ea6565b6040516104109190612d36565b60405180910390f35b610433600480360381019061042e9190612e42565b610eb8565b6040516104409190613522565b60405180910390f35b610463600480360381019061045e9190613639565b610fdb565b005b61047f600480360381019061047a9190612e42565b6110f3565b60405161048c9190612eb0565b60405180910390f35b6104af60048036038101906104aa9190612fa1565b6111a5565b005b6104b96114fe565b6040516104c69190612f46565b60405180910390f35b6104e960048036038101906104e49190612fa1565b611503565b6040516104f69190612f46565b60405180910390f35b6105196004803603810190610514919061373d565b6115bb565b005b61053560048036038101906105309190612fa1565b611628565b005b61053f611680565b60405161054c9190612dea565b60405180910390f35b61055d611712565b60405161056a9190612f46565b60405180910390f35b61058d600480360381019061058891906137ac565b611717565b005b6105a960048036038101906105a491906138a1565b611898565b005b6105b36118fa565b6040516105c09190612f46565b60405180910390f35b6105e360048036038101906105de9190612e42565b611904565b6040516105f09190612dea565b60405180910390f35b610613600480360381019061060e9190613924565b6119ab565b005b61061d611a08565b005b61063960048036038101906106349190613924565b611a59565b6040516106469190612d36565b60405180910390f35b61066960048036038101906106649190612f61565b611aed565b6040516106769190612d36565b60405180910390f35b61069960048036038101906106949190612e42565b611b58565b6040516106a69190612f46565b60405180910390f35b60007f80ac58cd000000000000000000000000000000000000000000000000000000007bffffffffffffffffffffffffffffffffffffffffffffffffffffffff1916827bffffffffffffffffffffffffffffffffffffffffffffffffffffffff1916148061077a57507f5b5e139f000000000000000000000000000000000000000000000000000000007bffffffffffffffffffffffffffffffffffffffffffffffffffffffff1916827bffffffffffffffffffffffffffffffffffffffffffffffffffffffff1916145b8061078a575061078982611b78565b5b9050919050565b6060600080546107a090613993565b80601f01602080910402602001604051908101604052809291908181526020018280546107cc90613993565b80156108195780601f106107ee57610100808354040283529160200191610819565b820191906000526020600020905b8154815290600101906020018083116107fc57829003601f168201915b5050505050905090565b600061082e82611be2565b61086d576040517f08c379a000000000000000000000000000000000000000000000000000000000815260040161086490613a37565b60405180910390fd5b6004600083815260200190815260200160002060009054906101000a900473ffffffffffffffffffffffffffffffffffffffff169050919050565b60006108b3826110f3565b90508073ffffffffffffffffffffffffffffffffffffffff168373ffffffffffffffffffffffffffffffffffffffff161415610924576040517f08c379a000000000000000000000000000000000000000000000000000000000815260040161091b90613ac9565b60405180910390fd5b8073ffffffffffffffffffffffffffffffffffffffff16610943611c4e565b73ffffffffffffffffffffffffffffffffffffffff16148061097257506109718161096c611c4e565b611a59565b5b6109b1576040517f08c379a00000000000000000000000000000000000000000000000000000000081526004016109a890613b5b565b60405180910390fd5b6109bb8383611c56565b505050565b600080600b5490506000600190505b600b548111610a05576109e181611be2565b6109f2578091508192505050610a0b565b80806109fd90613baa565b9150506109cf565b50809150505b90565b610a1782611b58565b610a2881610a23611c4e565b611d0f565b610a328383611da9565b505050565b60606000610a4483611503565b90506000811415610aa157600067ffffffffffffffff811115610a6a57610a6961313c565b5b604051908082528060200260200182016040528015610a985781602001602082028036833780820191505090505b50915050610ba8565b60008167ffffffffffffffff811115610abd57610abc61313c565b5b604051908082528060200260200182016040528015610aeb5781602001602082028036833780820191505090505b5090506000610af86118fa565b905060008060009050600191505b82821015610b9f57610b1782610ea6565b610b2057610b8c565b8673ffffffffffffffffffffffffffffffffffffffff16610b40836110f3565b73ffffffffffffffffffffffffffffffffffffffff161415610b8b5781848281518110610b7057610b6f613bf3565b5b6020026020010181815250508080610b8790613baa565b9150505b5b8180610b9790613baa565b925050610b06565b83955050505050505b919050565b610bb682611b58565b610bc781610bc2611c4e565b611d0f565b610bd18383611e8b565b505050565b610bde611c4e565b73ffffffffffffffffffffffffffffffffffffffff168173ffffffffffffffffffffffffffffffffffffffff1614610c4b576040517f08c379a0000000000000000000000000000000000000000000000000000000008152600401610c4290613c94565b60405180910390fd5b610c558282611da9565b5050565b610c6a610c64611c4e565b82611f6c565b610ca9576040517f08c379a0000000000000000000000000000000000000000000000000000000008152600401610ca090613d26565b60405180910390fd5b610cb483838361204a565b505050565b60606000825190506000811415610d2757600067ffffffffffffffff811115610ce557610ce461313c565b5b604051908082528060200260200182016040528015610d1e57816020015b610d0b612c25565b815260200190600190039081610d035790505b50915050610e37565b60008167ffffffffffffffff811115610d4357610d4261313c565b5b604051908082528060200260200182016040528015610d7c57816020015b610d69612c25565b815260200190600190039081610d615790505b509050600080600090508791505b868212610e2f5760008212610e1b57610dbc868381518110610daf57610dae613bf3565b5b6020026020010151610ea6565b610dc557610e1c565b6000610dea878481518110610ddd57610ddc613bf3565b5b6020026020010151610eb8565b905080848381518110610e0057610dff613bf3565b5b60200260200101819052508180610e1690613baa565b925050505b5b8180610e2790613d46565b925050610d8a565b829450505050505b9392505050565b610e5983838360405180602001604052806000815250611898565b505050565b610e70601f610e6b611c4e565b611d0f565b610e79816122a6565b50565b6000600760009054906101000a900473ffffffffffffffffffffffffffffffffffffffff16905090565b6000610eb182611be2565b9050919050565b610ec0612c25565b610ec982611be2565b610f08576040517f08c379a0000000000000000000000000000000000000000000000000000000008152600401610eff90613ddb565b60405180910390fd5b600d600083815260200190815260200160002060405180610100016040529081600082015481526020016001820154815260200160028201548152602001600382015481526020016004820160009054906101000a900473ffffffffffffffffffffffffffffffffffffffff1673ffffffffffffffffffffffffffffffffffffffff1673ffffffffffffffffffffffffffffffffffffffff16815260200160058201548152602001600682015481526020016007820160009054906101000a900460ff1615151515815250509050919050565b610fed601f610fe8611c4e565b611d0f565b610ff682611be2565b611035576040517f08c379a000000000000000000000000000000000000000000000000000000000815260040161102c90613e47565b60405180910390fd5b80600d60008481526020019081526020016000206000820151816000015560208201518160010155604082015181600201556060820151816003015560808201518160040160006101000a81548173ffffffffffffffffffffffffffffffffffffffff021916908373ffffffffffffffffffffffffffffffffffffffff16021790555060a0820151816005015560c0820151816006015560e08201518160070160006101000a81548160ff0219169083151502179055509050505050565b6000806002600084815260200190815260200160002060009054906101000a900473ffffffffffffffffffffffffffffffffffffffff169050600073ffffffffffffffffffffffffffffffffffffffff168173ffffffffffffffffffffffffffffffffffffffff16141561119c576040517f08c379a000000000000000000000000000000000000000000000000000000000815260040161119390613ed9565b60405180910390fd5b80915050919050565b6111b7601f6111b2611c4e565b611d0f565b6000600960009054906101000a900473ffffffffffffffffffffffffffffffffffffffff1673ffffffffffffffffffffffffffffffffffffffff16632530c90560646040518263ffffffff1660e01b81526004016112159190613f3e565b6020604051808303816000875af1158015611234573d6000803e3d6000fd5b505050506040513d601f19601f820116820180604052508101906112589190613f6e565b90506000600190506000600190506000600a905060006005905060004290506028861161128c5760019450600a92506112c1565b604686116112a15760029450600b92506112c0565b605a86116112b65760039450600c92506112bf565b60049450600d92505b5b5b6000600960009054906101000a900473ffffffffffffffffffffffffffffffffffffffff1673ffffffffffffffffffffffffffffffffffffffff16632530c90560646040518263ffffffff1660e01b815260040161131f9190613f3e565b6020604051808303816000875af115801561133e573d6000803e3d6000fd5b505050506040513d601f19601f820116820180604052508101906113629190613f6e565b9050603781116113795760019450600592506113ae565b6050811161138e5760029450600992506113ad565b605f81116113a35760039450600d92506113ac565b60049450601192505b5b5b60006113b86109c0565b90506040518061010001604052808781526020018881526020018681526020018581526020018a73ffffffffffffffffffffffffffffffffffffffff16815260200184815260200182815260200160011515815250600d60008381526020019081526020016000206000820151816000015560208201518160010155604082015181600201556060820151816003015560808201518160040160006101000a81548173ffffffffffffffffffffffffffffffffffffffff021916908373ffffffffffffffffffffffffffffffffffffffff16021790555060a0820151816005015560c0820151816006015560e08201518160070160006101000a81548160ff0219169083151502179055509050506114d089826123ab565b600b548114156114f357600b60008154809291906114ed90613baa565b91905055505b505050505050505050565b601f81565b60008073ffffffffffffffffffffffffffffffffffffffff168273ffffffffffffffffffffffffffffffffffffffff161415611574576040517f08c379a000000000000000000000000000000000000000000000000000000000815260040161156b9061400d565b60405180910390fd5b600360008373ffffffffffffffffffffffffffffffffffffffff1673ffffffffffffffffffffffffffffffffffffffff168152602001908152602001600020549050919050565b601f6115ce816115c9611c4e565b611d0f565b60008251116115dc57611622565b60005b82518110156116205761160d8585858481518110611600576115ff613bf3565b5b6020026020010151610c59565b808061161890613baa565b9150506115df565b505b50505050565b601e61163b81611636611c4e565b611d0f565b81600760006101000a81548173ffffffffffffffffffffffffffffffffffffffff021916908373ffffffffffffffffffffffffffffffffffffffff1602179055505050565b60606001805461168f90613993565b80601f01602080910402602001604051908101604052809291908181526020018280546116bb90613993565b80156117085780601f106116dd57610100808354040283529160200191611708565b820191906000526020600020905b8154815290600101906020018083116116eb57829003601f168201915b5050505050905090565b601e81565b61171f611c4e565b73ffffffffffffffffffffffffffffffffffffffff168273ffffffffffffffffffffffffffffffffffffffff16141561178d576040517f08c379a000000000000000000000000000000000000000000000000000000000815260040161178490614079565b60405180910390fd5b806005600061179a611c4e565b73ffffffffffffffffffffffffffffffffffffffff1673ffffffffffffffffffffffffffffffffffffffff16815260200190815260200160002060008473ffffffffffffffffffffffffffffffffffffffff1673ffffffffffffffffffffffffffffffffffffffff16815260200190815260200160002060006101000a81548160ff0219169083151502179055508173ffffffffffffffffffffffffffffffffffffffff16611847611c4e565b73ffffffffffffffffffffffffffffffffffffffff167f17307eab39ab6107e8899845ad3d59bd9653f200f220920489ca2b5937696c318360405161188c9190612d36565b60405180910390a35050565b6118a96118a3611c4e565b83611f6c565b6118e8576040517f08c379a00000000000000000000000000000000000000000000000000000000081526004016118df90613d26565b60405180910390fd5b6118f484848484612579565b50505050565b6000600b54905090565b606061190f82611be2565b61194e576040517f08c379a00000000000000000000000000000000000000000000000000000000081526004016119459061410b565b60405180910390fd5b60006119586125d5565b9050600081511161197857604051806020016040528060008152506119a3565b80611982846125ec565b604051602001611993929190614167565b6040516020818303038152906040525b915050919050565b60001515600c60009054906101000a900460ff1615151415611a04576119d2601f8361274d565b6119dd601f8261274d565b6119e8601e3361274d565b6001600c60006101000a81548160ff0219169083151502179055505b5050565b611a1a601f611a15611c4e565b611d0f565b6000600190505b600b54811015611a5657611a3481611be2565b15611a4357611a42816122a6565b5b8080611a4e90613baa565b915050611a21565b50565b6000600560008473ffffffffffffffffffffffffffffffffffffffff1673ffffffffffffffffffffffffffffffffffffffff16815260200190815260200160002060008373ffffffffffffffffffffffffffffffffffffffff1673ffffffffffffffffffffffffffffffffffffffff16815260200190815260200160002060009054906101000a900460ff16905092915050565b60006006600084815260200190815260200160002060000160008373ffffffffffffffffffffffffffffffffffffffff1673ffffffffffffffffffffffffffffffffffffffff16815260200190815260200160002060009054906101000a900460ff16905092915050565b600060066000838152602001908152602001600020600101549050919050565b60007f01ffc9a7000000000000000000000000000000000000000000000000000000007bffffffffffffffffffffffffffffffffffffffffffffffffffffffff1916827bffffffffffffffffffffffffffffffffffffffffffffffffffffffff1916149050919050565b60008073ffffffffffffffffffffffffffffffffffffffff166002600084815260200190815260200160002060009054906101000a900473ffffffffffffffffffffffffffffffffffffffff1673ffffffffffffffffffffffffffffffffffffffff1614159050919050565b600033905090565b816004600083815260200190815260200160002060006101000a81548173ffffffffffffffffffffffffffffffffffffffff021916908373ffffffffffffffffffffffffffffffffffffffff160217905550808273ffffffffffffffffffffffffffffffffffffffff16611cc9836110f3565b73ffffffffffffffffffffffffffffffffffffffff167f8c5be1e5ebec7d5bd14f71427d1e84f3dd0314c0f7b2291e5b200ac8c7c3b92560405160405180910390a45050565b611d198282611aed565b611da557611d3e8173ffffffffffffffffffffffffffffffffffffffff16601461275b565b611d4983602061275b565b604051602001611d5a929190614223565b6040516020818303038152906040526040517f08c379a0000000000000000000000000000000000000000000000000000000008152600401611d9c9190612dea565b60405180910390fd5b5050565b611db38282611aed565b15611e875760006006600084815260200190815260200160002060000160008373ffffffffffffffffffffffffffffffffffffffff1673ffffffffffffffffffffffffffffffffffffffff16815260200190815260200160002060006101000a81548160ff021916908315150217905550611e2c611c4e565b73ffffffffffffffffffffffffffffffffffffffff168173ffffffffffffffffffffffffffffffffffffffff16837fe0df21b65c73c27081b8f042a012b124085b41d78d27b7e3c4780f5650f5ebb860405160405180910390a45b5050565b611e958282611aed565b611f685760016006600084815260200190815260200160002060000160008373ffffffffffffffffffffffffffffffffffffffff1673ffffffffffffffffffffffffffffffffffffffff16815260200190815260200160002060006101000a81548160ff021916908315150217905550611f0d611c4e565b73ffffffffffffffffffffffffffffffffffffffff168173ffffffffffffffffffffffffffffffffffffffff16837f1ec1667fba5e43c5c76fff54e76d7a4a20a4fecf7b49724ad8d52a3f726e9dbd60405160405180910390a45b5050565b6000611f7782611be2565b611fb6576040517f08c379a0000000000000000000000000000000000000000000000000000000008152600401611fad906142cf565b60405180910390fd5b6000611fc1836110f3565b90508073ffffffffffffffffffffffffffffffffffffffff168473ffffffffffffffffffffffffffffffffffffffff16148061203057508373ffffffffffffffffffffffffffffffffffffffff1661201884610823565b73ffffffffffffffffffffffffffffffffffffffff16145b8061204157506120408185611a59565b5b91505092915050565b8273ffffffffffffffffffffffffffffffffffffffff1661206a826110f3565b73ffffffffffffffffffffffffffffffffffffffff16146120c0576040517f08c379a00000000000000000000000000000000000000000000000000000000081526004016120b790614361565b60405180910390fd5b600073ffffffffffffffffffffffffffffffffffffffff168273ffffffffffffffffffffffffffffffffffffffff161415612130576040517f08c379a0000000000000000000000000000000000000000000000000000000008152600401612127906143f3565b60405180910390fd5b61213b838383612997565b612146600082611c56565b6001600360008573ffffffffffffffffffffffffffffffffffffffff1673ffffffffffffffffffffffffffffffffffffffff16815260200190815260200160002060008282546121969190614413565b925050819055506001600360008473ffffffffffffffffffffffffffffffffffffffff1673ffffffffffffffffffffffffffffffffffffffff16815260200190815260200160002060008282546121ed9190614447565b92505081905550816002600083815260200190815260200160002060006101000a81548173ffffffffffffffffffffffffffffffffffffffff021916908373ffffffffffffffffffffffffffffffffffffffff160217905550808273ffffffffffffffffffffffffffffffffffffffff168473ffffffffffffffffffffffffffffffffffffffff167fddf252ad1be2c89b69c2b068fc378daa952ba7f163c4a11628f55a4df523b3ef60405160405180910390a4505050565b60006122b1826110f3565b90506122be600083611c56565b6001600360008373ffffffffffffffffffffffffffffffffffffffff1673ffffffffffffffffffffffffffffffffffffffff168152602001908152602001600020600082825461230e9190614413565b925050819055506002600083815260200190815260200160002060006101000a81549073ffffffffffffffffffffffffffffffffffffffff021916905581600073ffffffffffffffffffffffffffffffffffffffff168273ffffffffffffffffffffffffffffffffffffffff167fddf252ad1be2c89b69c2b068fc378daa952ba7f163c4a11628f55a4df523b3ef60405160405180910390a45050565b600073ffffffffffffffffffffffffffffffffffffffff168273ffffffffffffffffffffffffffffffffffffffff16141561241b576040517f08c379a0000000000000000000000000000000000000000000000000000000008152600401612412906144e9565b60405180910390fd5b61242481611be2565b15612464576040517f08c379a000000000000000000000000000000000000000000000000000000000815260040161245b90614555565b60405180910390fd5b61247060008383612997565b6001600360008473ffffffffffffffffffffffffffffffffffffffff1673ffffffffffffffffffffffffffffffffffffffff16815260200190815260200160002060008282546124c09190614447565b92505081905550816002600083815260200190815260200160002060006101000a81548173ffffffffffffffffffffffffffffffffffffffff021916908373ffffffffffffffffffffffffffffffffffffffff160217905550808273ffffffffffffffffffffffffffffffffffffffff16600073ffffffffffffffffffffffffffffffffffffffff167fddf252ad1be2c89b69c2b068fc378daa952ba7f163c4a11628f55a4df523b3ef60405160405180910390a45050565b61258484848461204a565b61259084848484612a8a565b6125cf576040517f08c379a00000000000000000000000000000000000000000000000000000000081526004016125c6906145e7565b60405180910390fd5b50505050565b606060405180602001604052806000815250905090565b60606000821415612634576040518060400160405280600181526020017f30000000000000000000000000000000000000000000000000000000000000008152509050612748565b600082905060005b6000821461266657808061264f90613baa565b915050600a8261265f9190614636565b915061263c565b60008167ffffffffffffffff8111156126825761268161313c565b5b6040519080825280601f01601f1916602001820160405280156126b45781602001600182028036833780820191505090505b5090505b60008514612741576001826126cd9190614413565b9150600a856126dc9190614667565b60306126e89190614447565b60f81b8183815181106126fe576126fd613bf3565b5b60200101907effffffffffffffffffffffffffffffffffffffffffffffffffffffffffffff1916908160001a905350600a8561273a9190614636565b94506126b8565b8093505050505b919050565b6127578282611e8b565b5050565b60606000600283600261276e9190614698565b6127789190614447565b67ffffffffffffffff8111156127915761279061313c565b5b6040519080825280601f01601f1916602001820160405280156127c35781602001600182028036833780820191505090505b5090507f3000000000000000000000000000000000000000000000000000000000000000816000815181106127fb576127fa613bf3565b5b60200101907effffffffffffffffffffffffffffffffffffffffffffffffffffffffffffff1916908160001a9053507f78000000000000000000000000000000000000000000000000000000000000008160018151811061285f5761285e613bf3565b5b60200101907effffffffffffffffffffffffffffffffffffffffffffffffffffffffffffff1916908160001a9053506000600184600261289f9190614698565b6128a99190614447565b90505b6001811115612949577f3031323334353637383961626364656600000000000000000000000000000000600f8616601081106128eb576128ea613bf3565b5b1a60f81b82828151811061290257612901613bf3565b5b60200101907effffffffffffffffffffffffffffffffffffffffffffffffffffffffffffff1916908160001a905350600485901c945080612942906146f2565b90506128ac565b506000841461298d576040517f08c379a000000000000000000000000000000000000000000000000000000000815260040161298490614768565b60405180910390fd5b8091505092915050565b60011515600d600083815260200190815260200160002060070160009054906101000a900460ff16151514612a01576040517f08c379a00000000000000000000000000000000000000000000000000000000081526004016129f8906147d4565b60405180910390fd5b6000600d600083815260200190815260200160002060070160006101000a81548160ff02191690831515021790555081600d600083815260200190815260200160002060040160006101000a81548173ffffffffffffffffffffffffffffffffffffffff021916908373ffffffffffffffffffffffffffffffffffffffff160217905550505050565b6000612aab8473ffffffffffffffffffffffffffffffffffffffff16612c12565b15612c05578373ffffffffffffffffffffffffffffffffffffffff1663150b7a02612ad4611c4e565b8786866040518563ffffffff1660e01b8152600401612af69493929190614849565b6020604051808303816000875af1925050508015612b3257506040513d601f19601f82011682018060405250810190612b2f91906148aa565b60015b612bb5573d8060008114612b62576040519150601f19603f3d011682016040523d82523d6000602084013e612b67565b606091505b50600081511415612bad576040517f08c379a0000000000000000000000000000000000000000000000000000000008152600401612ba4906145e7565b60405180910390fd5b805181602001fd5b63150b7a0260e01b7bffffffffffffffffffffffffffffffffffffffffffffffffffffffff1916817bffffffffffffffffffffffffffffffffffffffffffffffffffffffff191614915050612c0a565b600190505b949350505050565b600080823b905060008111915050919050565b60405180610100016040528060008152602001600081526020016000815260200160008152602001600073ffffffffffffffffffffffffffffffffffffffff16815260200160008152602001600081526020016000151581525090565b6000604051905090565b600080fd5b600080fd5b60007fffffffff0000000000000000000000000000000000000000000000000000000082169050919050565b612ccb81612c96565b8114612cd657600080fd5b50565b600081359050612ce881612cc2565b92915050565b600060208284031215612d0457612d03612c8c565b5b6000612d1284828501612cd9565b91505092915050565b60008115159050919050565b612d3081612d1b565b82525050565b6000602082019050612d4b6000830184612d27565b92915050565b600081519050919050565b600082825260208201905092915050565b60005b83811015612d8b578082015181840152602081019050612d70565b83811115612d9a576000848401525b50505050565b6000601f19601f8301169050919050565b6000612dbc82612d51565b612dc68185612d5c565b9350612dd6818560208601612d6d565b612ddf81612da0565b840191505092915050565b60006020820190508181036000830152612e048184612db1565b905092915050565b6000819050919050565b612e1f81612e0c565b8114612e2a57600080fd5b50565b600081359050612e3c81612e16565b92915050565b600060208284031215612e5857612e57612c8c565b5b6000612e6684828501612e2d565b91505092915050565b600073ffffffffffffffffffffffffffffffffffffffff82169050919050565b6000612e9a82612e6f565b9050919050565b612eaa81612e8f565b82525050565b6000602082019050612ec56000830184612ea1565b92915050565b612ed481612e8f565b8114612edf57600080fd5b50565b600081359050612ef181612ecb565b92915050565b60008060408385031215612f0e57612f0d612c8c565b5b6000612f1c85828601612ee2565b9250506020612f2d85828601612e2d565b9150509250929050565b612f4081612e0c565b82525050565b6000602082019050612f5b6000830184612f37565b92915050565b60008060408385031215612f7857612f77612c8c565b5b6000612f8685828601612e2d565b9250506020612f9785828601612ee2565b9150509250929050565b600060208284031215612fb757612fb6612c8c565b5b6000612fc584828501612ee2565b91505092915050565b600081519050919050565b600082825260208201905092915050565b6000819050602082019050919050565b61300381612e0c565b82525050565b60006130158383612ffa565b60208301905092915050565b6000602082019050919050565b600061303982612fce565b6130438185612fd9565b935061304e83612fea565b8060005b8381101561307f5781516130668882613009565b975061307183613021565b925050600181019050613052565b5085935050505092915050565b600060208201905081810360008301526130a6818461302e565b905092915050565b6000806000606084860312156130c7576130c6612c8c565b5b60006130d586828701612ee2565b93505060206130e686828701612ee2565b92505060406130f786828701612e2d565b9150509250925092565b6000819050919050565b61311481613101565b811461311f57600080fd5b50565b6000813590506131318161310b565b92915050565b600080fd5b7f4e487b7100000000000000000000000000000000000000000000000000000000600052604160045260246000fd5b61317482612da0565b810181811067ffffffffffffffff821117156131935761319261313c565b5b80604052505050565b60006131a6612c82565b90506131b2828261316b565b919050565b600067ffffffffffffffff8211156131d2576131d161313c565b5b602082029050602081019050919050565b600080fd5b60006131fb6131f6846131b7565b61319c565b9050808382526020820190506020840283018581111561321e5761321d6131e3565b5b835b8181101561324757806132338882613122565b845260208401935050602081019050613220565b5050509392505050565b600082601f83011261326657613265613137565b5b81356132768482602086016131e8565b91505092915050565b60008060006060848603121561329857613297612c8c565b5b60006132a686828701613122565b93505060206132b786828701613122565b925050604084013567ffffffffffffffff8111156132d8576132d7612c91565b5b6132e486828701613251565b9150509250925092565b600081519050919050565b600082825260208201905092915050565b6000819050602082019050919050565b61332381612e8f565b82525050565b61333281612d1b565b82525050565b6101008201600082015161334f6000850182612ffa565b5060208201516133626020850182612ffa565b5060408201516133756040850182612ffa565b5060608201516133886060850182612ffa565b50608082015161339b608085018261331a565b5060a08201516133ae60a0850182612ffa565b5060c08201516133c160c0850182612ffa565b5060e08201516133d460e0850182613329565b50505050565b60006133e68383613338565b6101008301905092915050565b6000602082019050919050565b600061340b826132ee565b61341581856132f9565b93506134208361330a565b8060005b8381101561345157815161343888826133da565b9750613443836133f3565b925050600181019050613424565b5085935050505092915050565b600060208201905081810360008301526134788184613400565b905092915050565b610100820160008201516134976000850182612ffa565b5060208201516134aa6020850182612ffa565b5060408201516134bd6040850182612ffa565b5060608201516134d06060850182612ffa565b5060808201516134e3608085018261331a565b5060a08201516134f660a0850182612ffa565b5060c082015161350960c0850182612ffa565b5060e082015161351c60e0850182613329565b50505050565b6000610100820190506135386000830184613480565b92915050565b600080fd5b61354c81612d1b565b811461355757600080fd5b50565b60008135905061356981613543565b92915050565b600061010082840312156135865761358561353e565b5b61359161010061319c565b905060006135a184828501612e2d565b60008301525060206135b584828501612e2d565b60208301525060406135c984828501612e2d565b60408301525060606135dd84828501612e2d565b60608301525060806135f184828501612ee2565b60808301525060a061360584828501612e2d565b60a08301525060c061361984828501612e2d565b60c08301525060e061362d8482850161355a565b60e08301525092915050565b600080610120838503121561365157613650612c8c565b5b600061365f85828601612e2d565b92505060206136708582860161356f565b9150509250929050565b600067ffffffffffffffff8211156136955761369461313c565b5b602082029050602081019050919050565b60006136b96136b48461367a565b61319c565b905080838252602082019050602084028301858111156136dc576136db6131e3565b5b835b8181101561370557806136f18882612e2d565b8452602084019350506020810190506136de565b5050509392505050565b600082601f83011261372457613723613137565b5b81356137348482602086016136a6565b91505092915050565b60008060006060848603121561375657613755612c8c565b5b600061376486828701612ee2565b935050602061377586828701612ee2565b925050604084013567ffffffffffffffff81111561379657613795612c91565b5b6137a28682870161370f565b9150509250925092565b600080604083850312156137c3576137c2612c8c565b5b60006137d185828601612ee2565b92505060206137e28582860161355a565b9150509250929050565b600080fd5b600067ffffffffffffffff82111561380c5761380b61313c565b5b61381582612da0565b9050602081019050919050565b82818337600083830152505050565b600061384461383f846137f1565b61319c565b9050828152602081018484840111156138605761385f6137ec565b5b61386b848285613822565b509392505050565b600082601f83011261388857613887613137565b5b8135613898848260208601613831565b91505092915050565b600080600080608085870312156138bb576138ba612c8c565b5b60006138c987828801612ee2565b94505060206138da87828801612ee2565b93505060406138eb87828801612e2d565b925050606085013567ffffffffffffffff81111561390c5761390b612c91565b5b61391887828801613873565b91505092959194509250565b6000806040838503121561393b5761393a612c8c565b5b600061394985828601612ee2565b925050602061395a85828601612ee2565b9150509250929050565b7f4e487b7100000000000000000000000000000000000000000000000000000000600052602260045260246000fd5b600060028204905060018216806139ab57607f821691505b602082108114156139bf576139be613964565b5b50919050565b7f4552433732313a20617070726f76656420717565727920666f72206e6f6e657860008201527f697374656e7420746f6b656e0000000000000000000000000000000000000000602082015250565b6000613a21602c83612d5c565b9150613a2c826139c5565b604082019050919050565b60006020820190508181036000830152613a5081613a14565b9050919050565b7f4552433732313a20617070726f76616c20746f2063757272656e74206f776e6560008201527f7200000000000000000000000000000000000000000000000000000000000000602082015250565b6000613ab3602183612d5c565b9150613abe82613a57565b604082019050919050565b60006020820190508181036000830152613ae281613aa6565b9050919050565b7f4552433732313a20617070726f76652063616c6c6572206973206e6f74206f7760008201527f6e6572206e6f7220617070726f76656420666f7220616c6c0000000000000000602082015250565b6000613b45603883612d5c565b9150613b5082613ae9565b604082019050919050565b60006020820190508181036000830152613b7481613b38565b9050919050565b7f4e487b7100000000000000000000000000000000000000000000000000000000600052601160045260246000fd5b6000613bb582612e0c565b91507fffffffffffffffffffffffffffffffffffffffffffffffffffffffffffffffff821415613be857613be7613b7b565b5b600182019050919050565b7f4e487b7100000000000000000000000000000000000000000000000000000000600052603260045260246000fd5b7f416363657373436f6e74726f6c3a2063616e206f6e6c792072656e6f756e636560008201527f20726f6c657320666f722073656c660000000000000000000000000000000000602082015250565b6000613c7e602f83612d5c565b9150613c8982613c22565b604082019050919050565b60006020820190508181036000830152613cad81613c71565b9050919050565b7f4552433732313a207472616e736665722063616c6c6572206973206e6f74206f60008201527f776e6572206e6f7220617070726f766564000000000000000000000000000000602082015250565b6000613d10603183612d5c565b9150613d1b82613cb4565b604082019050919050565b60006020820190508181036000830152613d3f81613d03565b9050919050565b6000613d5182613101565b91507f8000000000000000000000000000000000000000000000000000000000000000821415613d8457613d83613b7b565b5b600182039050919050565b7f4e6f204578697374000000000000000000000000000000000000000000000000600082015250565b6000613dc5600883612d5c565b9150613dd082613d8f565b602082019050919050565b60006020820190508181036000830152613df481613db8565b9050919050565b7f6e6f204578697374000000000000000000000000000000000000000000000000600082015250565b6000613e31600883612d5c565b9150613e3c82613dfb565b602082019050919050565b60006020820190508181036000830152613e6081613e24565b9050919050565b7f4552433732313a206f776e657220717565727920666f72206e6f6e657869737460008201527f656e7420746f6b656e0000000000000000000000000000000000000000000000602082015250565b6000613ec3602983612d5c565b9150613ece82613e67565b604082019050919050565b60006020820190508181036000830152613ef281613eb6565b9050919050565b6000819050919050565b6000819050919050565b6000613f28613f23613f1e84613ef9565b613f03565b612e0c565b9050919050565b613f3881613f0d565b82525050565b6000602082019050613f536000830184613f2f565b92915050565b600081519050613f6881612e16565b92915050565b600060208284031215613f8457613f83612c8c565b5b6000613f9284828501613f59565b91505092915050565b7f4552433732313a2062616c616e636520717565727920666f7220746865207a6560008201527f726f206164647265737300000000000000000000000000000000000000000000602082015250565b6000613ff7602a83612d5c565b915061400282613f9b565b604082019050919050565b6000602082019050818103600083015261402681613fea565b9050919050565b7f4552433732313a20617070726f766520746f2063616c6c657200000000000000600082015250565b6000614063601983612d5c565b915061406e8261402d565b602082019050919050565b6000602082019050818103600083015261409281614056565b9050919050565b7f4552433732314d657461646174613a2055524920717565727920666f72206e6f60008201527f6e6578697374656e7420746f6b656e0000000000000000000000000000000000602082015250565b60006140f5602f83612d5c565b915061410082614099565b604082019050919050565b60006020820190508181036000830152614124816140e8565b9050919050565b600081905092915050565b600061414182612d51565b61414b818561412b565b935061415b818560208601612d6d565b80840191505092915050565b60006141738285614136565b915061417f8284614136565b91508190509392505050565b7f416363657373436f6e74726f6c3a206163636f756e7420000000000000000000600082015250565b60006141c160178361412b565b91506141cc8261418b565b601782019050919050565b7f206973206d697373696e6720726f6c6520000000000000000000000000000000600082015250565b600061420d60118361412b565b9150614218826141d7565b601182019050919050565b600061422e826141b4565b915061423a8285614136565b915061424582614200565b91506142518284614136565b91508190509392505050565b7f4552433732313a206f70657261746f7220717565727920666f72206e6f6e657860008201527f697374656e7420746f6b656e0000000000000000000000000000000000000000602082015250565b60006142b9602c83612d5c565b91506142c48261425d565b604082019050919050565b600060208201905081810360008301526142e8816142ac565b9050919050565b7f4552433732313a207472616e73666572206f6620746f6b656e2074686174206960008201527f73206e6f74206f776e0000000000000000000000000000000000000000000000602082015250565b600061434b602983612d5c565b9150614356826142ef565b604082019050919050565b6000602082019050818103600083015261437a8161433e565b9050919050565b7f4552433732313a207472616e7366657220746f20746865207a65726f2061646460008201527f7265737300000000000000000000000000000000000000000000000000000000602082015250565b60006143dd602483612d5c565b91506143e882614381565b604082019050919050565b6000602082019050818103600083015261440c816143d0565b9050919050565b600061441e82612e0c565b915061442983612e0c565b92508282101561443c5761443b613b7b565b5b828203905092915050565b600061445282612e0c565b915061445d83612e0c565b9250827fffffffffffffffffffffffffffffffffffffffffffffffffffffffffffffffff0382111561449257614491613b7b565b5b828201905092915050565b7f4552433732313a206d696e7420746f20746865207a65726f2061646472657373600082015250565b60006144d3602083612d5c565b91506144de8261449d565b602082019050919050565b60006020820190508181036000830152614502816144c6565b9050919050565b7f4552433732313a20746f6b656e20616c7265616479206d696e74656400000000600082015250565b600061453f601c83612d5c565b915061454a82614509565b602082019050919050565b6000602082019050818103600083015261456e81614532565b9050919050565b7f4552433732313a207472616e7366657220746f206e6f6e20455243373231526560008201527f63656976657220696d706c656d656e7465720000000000000000000000000000602082015250565b60006145d1603283612d5c565b91506145dc82614575565b604082019050919050565b60006020820190508181036000830152614600816145c4565b9050919050565b7f4e487b7100000000000000000000000000000000000000000000000000000000600052601260045260246000fd5b600061464182612e0c565b915061464c83612e0c565b92508261465c5761465b614607565b5b828204905092915050565b600061467282612e0c565b915061467d83612e0c565b92508261468d5761468c614607565b5b828206905092915050565b60006146a382612e0c565b91506146ae83612e0c565b9250817fffffffffffffffffffffffffffffffffffffffffffffffffffffffffffffffff04831182151516156146e7576146e6613b7b565b5b828202905092915050565b60006146fd82612e0c565b9150600082141561471157614710613b7b565b5b600182039050919050565b7f537472696e67733a20686578206c656e67746820696e73756666696369656e74600082015250565b6000614752602083612d5c565b915061475d8261471c565b602082019050919050565b6000602082019050818103600083015261478181614745565b9050919050565b7f4e6f207472617366657220666163746f72797300000000000000000000000000600082015250565b60006147be601383612d5c565b91506147c982614788565b602082019050919050565b600060208201905081810360008301526147ed816147b1565b9050919050565b600081519050919050565b600082825260208201905092915050565b600061481b826147f4565b61482581856147ff565b9350614835818560208601612d6d565b61483e81612da0565b840191505092915050565b600060808201905061485e6000830187612ea1565b61486b6020830186612ea1565b6148786040830185612f37565b818103606083015261488a8184614810565b905095945050505050565b6000815190506148a481612cc2565b92915050565b6000602082840312156148c0576148bf612c8c565b5b60006148ce84828501614895565b9150509291505056fea264697066735822122007c4dfc1899b018e6f54cbf5f45a9e39a538e924279287f291557e5a7d16085b64736f6c634300080a0033",
  "immutableReferences": {},
  "source": "// SPDX-License-Identifier: UNLICENSED\r\npragma solidity >=0.4.22 <0.9.0;\r\n\r\n/**\r\n * @title SampleBEP20Token\r\n * @dev Very simple BEP20 Token example, where all tokens are pre-assigned to the creator.\r\n * Note they can later distribute these tokens as they wish using `transfer` and other\r\n * `BEP20` functions.\r\n * USE IT ONLY FOR LEARNING PURPOSES. SHOULD BE MODIFIED FOR PRODUCTION\r\n */\r\n \r\n\r\nimport \"../../node_modules/@openzeppelin/contracts/token/ERC721/ERC721.sol\";\r\nimport \"./../utils/Admin.sol\";\r\nimport \"./../utils/Utils.sol\";\r\nimport \"./../utils/ItemList.sol\";\r\n\r\nstruct _Factory\r\n{\r\n    uint256 rarity;\r\n    uint256 class;\r\n    uint256 itemIdProduce; //stamina, fixo, usa  \r\n    uint256 quantity;\r\n    address owner;\r\n    uint256 claimTime;\r\n    uint256 tokenId;\r\n    bool transfer;\r\n}\r\n\r\ncontract Factory is ERC721, Admin {\r\n    address private _contractowner;\r\n    address private _secondowner;\r\n\r\n    Utils private utils;\r\n    ItemList private itemList;\r\n\r\n    uint256 private nextId = 1;\r\n\r\n    bool private Initialized = false;\r\n\r\n    mapping( uint256 => _Factory) private _tokenStorage;\r\n\r\n    constructor(string memory name, string memory symbol, Utils _ut, ItemList _itemList) Admin() ERC721(name, symbol)\r\n    {\r\n        _contractowner = msg.sender;\r\n        _secondowner = address(0xbf752Eb4b851B241A36e22767b304ef28242198A);\r\n        utils = _ut;\r\n\r\n        itemList = _itemList;\r\n\r\n        _setRoleAdmin(DEFAULT_ADMIN_ROLE, DEFAULT_ADMIN_ROLE);\r\n        _setRoleAdmin(DEFAULT_CORE_ROLE, DEFAULT_ADMIN_ROLE);\r\n        _setupRole(DEFAULT_ADMIN_ROLE, msg.sender);\r\n        _setupRole(DEFAULT_ADMIN_ROLE, _secondowner);\r\n    }\r\n\r\n    function changeAdmin(address newAdmin) public onlyRole(DEFAULT_ADMIN_ROLE)\r\n    {\r\n        _contractowner = newAdmin;\r\n    }\r\n\r\n    function Initialize(address _Core, address _CoreIn) public\r\n    {\r\n        if(Initialized == false)\r\n        {\r\n            _setupRole(DEFAULT_CORE_ROLE, _Core);\r\n            _setupRole(DEFAULT_CORE_ROLE, _CoreIn);\r\n            _setupRole(DEFAULT_ADMIN_ROLE, msg.sender);\r\n            Initialized = true;\r\n        }\r\n    }\r\n\r\n    function mint(address addr) onlyCore() public {\r\n\r\n        uint256 _randChar = utils.rand(100);\r\n        uint256 _class = 1;\r\n        uint256 _rarity = 1;\r\n        uint256 itemIdProduce = 10;\r\n        uint256 quantity = 5;\r\n        uint256 claimTime = block.timestamp;\r\n\r\n        if(_randChar <= 40)\r\n        {\r\n            _class = 1;\r\n            itemIdProduce = 10;\r\n        }\r\n        else if(_randChar <= 70)\r\n        {\r\n            _class = 2;\r\n            itemIdProduce = 11;\r\n        }\r\n        else if(_randChar <= 90)\r\n        {\r\n            _class = 3;\r\n            itemIdProduce = 12;\r\n        }\r\n        else\r\n        {\r\n            _class = 4;\r\n            itemIdProduce = 13;\r\n        }\r\n\r\n        uint256 _randRarity = utils.rand(100);\r\n\r\n        if(_randRarity <= 55)\r\n        {\r\n            _rarity = 1;\r\n            quantity = 5;\r\n        } \r\n        else if(_randRarity <= 80)\r\n        {\r\n            _rarity = 2;\r\n            quantity = 9;\r\n        } \r\n        else if(_randRarity <= 95)\r\n        {\r\n            _rarity = 3;\r\n            quantity = 13;\r\n        } \r\n        else\r\n        {\r\n            _rarity = 4;\r\n            quantity = 17;\r\n        } \r\n\r\n        uint256 slot = getIndexSlot();\r\n\r\n        _tokenStorage[slot] = _Factory(_rarity, _class, itemIdProduce, quantity, addr, claimTime, slot, true); \r\n        _mint(addr, slot);\r\n        if(slot == nextId) nextId++;\r\n    }\r\n\r\n    function UpdateFactory(uint256 tokenId, _Factory memory _factory) onlyCore() public\r\n    {\r\n        require(_exists(tokenId), \"no Exist\");\r\n        _tokenStorage[tokenId] = _factory;\r\n    }\r\n\r\n    function getFactory(uint256 tokenId) public view returns (_Factory memory)\r\n    {\r\n        require(_exists(tokenId), \"No Exist\");\r\n        return _tokenStorage[tokenId];\r\n    }\r\n\r\n    function getContractOwner() public view returns (address)\r\n    {\r\n        return _contractowner;\r\n    }\r\n\r\n    function getIndexSlot() public view returns (uint256)\r\n    {\r\n        uint256 result = nextId;\r\n        for(uint256 x = 1; x <= nextId; x++)\r\n        {\r\n            if(!_exists(x))\r\n            {\r\n                result = x;\r\n                return result;\r\n            }\r\n        }\r\n        return result;\r\n    }\r\n\r\n    function getTotalSupply() public view returns (uint256)\r\n    {\r\n        return nextId;\r\n    }\r\n    function exists (uint256 tokenId) public view returns(bool) {\r\n        return _exists(tokenId);\r\n    }\r\n\r\n    function transferFromAll(\r\n        address from,\r\n        address to,\r\n        uint256[] memory tokenIds\r\n    ) public onlyRole(DEFAULT_CORE_ROLE) {\r\n        if(tokenIds.length <= 0) return;\r\n        for(uint256 x = 0; x < tokenIds.length; x++)\r\n        {\r\n            transferFrom(from, to, tokenIds[x]);\r\n        }\r\n    }\r\n    \r\n    function burnAllFactorysInSeason() onlyCore() public {\r\n        for(uint256 x = 1; x < nextId; x++)\r\n        {\r\n            if(_exists(x))\r\n            {\r\n                _burn(x);\r\n            }\r\n        }\r\n    }\r\n\r\n    function getAllFactorysForUser(address user) public view returns (uint256[] memory)\r\n    {\r\n        uint256 tokenCount  = balanceOf(user);\r\n        if(tokenCount == 0)\r\n        {\r\n            return new uint256[](0);\r\n        }\r\n        else\r\n        {\r\n            uint256[] memory result = new uint256[](tokenCount);\r\n            uint256 totalNfts = getTotalSupply();\r\n            uint256 i;\r\n            uint256 resultIndex = 0;\r\n            for(i = 1; i < totalNfts; i++)\r\n            {\r\n                if(!exists(i)) continue;\r\n                if(ownerOf(i) == user)\r\n                {\r\n                    result[resultIndex] = i;\r\n                    resultIndex++;\r\n                }\r\n            }\r\n            return result;\r\n        }\r\n    }\r\n\r\n    function getAllFactorysByTokenIds(int256 max, int256 min, int256[] memory tokenIds) public view returns (_Factory[] memory)\r\n    {\r\n        uint256 tokenCount = tokenIds.length;\r\n\r\n        if(tokenCount == 0)\r\n        {\r\n            return new _Factory[](0);\r\n        }\r\n        else\r\n        {\r\n            _Factory[] memory result = new _Factory[](tokenCount);\r\n            int256 i;\r\n            uint256 resultIndex = 0;\r\n            for(i = max; i >= min; i--)\r\n            {\r\n                if(i >= 0)\r\n                {\r\n                    if(!exists(uint256(tokenIds[uint256(i)]))) continue;\r\n                    _Factory memory _item = getFactory(uint256(tokenIds[uint256(i)]));\r\n                    result[resultIndex] = _item;\r\n                    resultIndex++;\r\n                }\r\n            }\r\n            return result;\r\n        }\r\n    }\r\n    \r\n    function burn(uint256 tokenId) onlyCore() public {\r\n        _burn(tokenId);\r\n    }\r\n\r\n    function _beforeTokenTransfer( address from, address to, uint256 tokenId) internal override {\r\n        require(_tokenStorage[tokenId].transfer == true, \"No trasfer factorys\");\r\n        _tokenStorage[tokenId].transfer = false;\r\n        _tokenStorage[tokenId].owner = to;\r\n    }\r\n}",
  "sourcePath": "D:\\CrimeCity\\contracts\\tokens\\Factory.sol",
  "compiler": {
    "name": "solc",
    "version": "0.8.10+commit.fc410830.Emscripten.clang"
  },
  "schemaVersion": "3.4.3",
  "updatedAt": "2022-01-22T20:23:21.270Z",
  "networkType": "ethereum",
  "devdoc": {
    "kind": "dev",
    "methods": {
      "approve(address,uint256)": {
        "details": "See {IERC721-approve}."
      },
      "balanceOf(address)": {
        "details": "See {IERC721-balanceOf}."
      },
      "getApproved(uint256)": {
        "details": "See {IERC721-getApproved}."
      },
      "getRoleAdmin(uint256)": {
        "details": "Returns the admin role that controls `role`. See {grantRole} and {revokeRole}. To change a role's admin, use {_setRoleAdmin}."
      },
      "grantRole(uint256,address)": {
        "details": "Grants `role` to `account`. If `account` had not been already granted `role`, emits a {RoleGranted} event. Requirements: - the caller must have ``role``'s admin role."
      },
      "hasRole(uint256,address)": {
        "details": "Returns `true` if `account` has been granted `role`."
      },
      "isApprovedForAll(address,address)": {
        "details": "See {IERC721-isApprovedForAll}."
      },
      "name()": {
        "details": "See {IERC721Metadata-name}."
      },
      "ownerOf(uint256)": {
        "details": "See {IERC721-ownerOf}."
      },
      "renounceRole(uint256,address)": {
        "details": "Revokes `role` from the calling account. Roles are often managed via {grantRole} and {revokeRole}: this function's purpose is to provide a mechanism for accounts to lose their privileges if they are compromised (such as when a trusted device is misplaced). If the calling account had been granted `role`, emits a {RoleRevoked} event. Requirements: - the caller must be `account`."
      },
      "revokeRole(uint256,address)": {
        "details": "Revokes `role` from `account`. If `account` had been granted `role`, emits a {RoleRevoked} event. Requirements: - the caller must have ``role``'s admin role."
      },
      "safeTransferFrom(address,address,uint256)": {
        "details": "See {IERC721-safeTransferFrom}."
      },
      "safeTransferFrom(address,address,uint256,bytes)": {
        "details": "See {IERC721-safeTransferFrom}."
      },
      "setApprovalForAll(address,bool)": {
        "details": "See {IERC721-setApprovalForAll}."
      },
      "supportsInterface(bytes4)": {
        "details": "See {IERC165-supportsInterface}."
      },
      "symbol()": {
        "details": "See {IERC721Metadata-symbol}."
      },
      "tokenURI(uint256)": {
        "details": "See {IERC721Metadata-tokenURI}."
      },
      "transferFrom(address,address,uint256)": {
        "details": "See {IERC721-transferFrom}."
      }
    },
    "version": 1
  },
  "userdoc": {
    "kind": "user",
    "methods": {},
    "version": 1
  }
}