{
  "contractName": "GameItem",
  "abi": [
    {
      "inputs": [
        {
          "internalType": "string",
          "name": "name",
          "type": "string"
        },
        {
          "internalType": "string",
          "name": "symbol",
          "type": "string"
        },
        {
          "internalType": "contract Utils",
          "name": "_ut",
          "type": "address"
        },
        {
          "internalType": "contract ItemList",
          "name": "_itemList",
          "type": "address"
        }
      ],
      "stateMutability": "nonpayable",
      "type": "constructor"
    },
    {
      "anonymous": false,
      "inputs": [
        {
          "indexed": true,
          "internalType": "address",
          "name": "owner",
          "type": "address"
        },
        {
          "indexed": true,
          "internalType": "address",
          "name": "approved",
          "type": "address"
        },
        {
          "indexed": true,
          "internalType": "uint256",
          "name": "tokenId",
          "type": "uint256"
        }
      ],
      "name": "Approval",
      "type": "event"
    },
    {
      "anonymous": false,
      "inputs": [
        {
          "indexed": true,
          "internalType": "address",
          "name": "owner",
          "type": "address"
        },
        {
          "indexed": true,
          "internalType": "address",
          "name": "operator",
          "type": "address"
        },
        {
          "indexed": false,
          "internalType": "bool",
          "name": "approved",
          "type": "bool"
        }
      ],
      "name": "ApprovalForAll",
      "type": "event"
    },
    {
      "anonymous": false,
      "inputs": [
        {
          "indexed": true,
          "internalType": "uint256",
          "name": "role",
          "type": "uint256"
        },
        {
          "indexed": true,
          "internalType": "uint256",
          "name": "previousAdminRole",
          "type": "uint256"
        },
        {
          "indexed": true,
          "internalType": "uint256",
          "name": "newAdminRole",
          "type": "uint256"
        }
      ],
      "name": "RoleAdminChanged",
      "type": "event"
    },
    {
      "anonymous": false,
      "inputs": [
        {
          "indexed": true,
          "internalType": "uint256",
          "name": "role",
          "type": "uint256"
        },
        {
          "indexed": true,
          "internalType": "address",
          "name": "account",
          "type": "address"
        },
        {
          "indexed": true,
          "internalType": "address",
          "name": "sender",
          "type": "address"
        }
      ],
      "name": "RoleGranted",
      "type": "event"
    },
    {
      "anonymous": false,
      "inputs": [
        {
          "indexed": true,
          "internalType": "uint256",
          "name": "role",
          "type": "uint256"
        },
        {
          "indexed": true,
          "internalType": "address",
          "name": "account",
          "type": "address"
        },
        {
          "indexed": true,
          "internalType": "address",
          "name": "sender",
          "type": "address"
        }
      ],
      "name": "RoleRevoked",
      "type": "event"
    },
    {
      "anonymous": false,
      "inputs": [
        {
          "indexed": true,
          "internalType": "address",
          "name": "from",
          "type": "address"
        },
        {
          "indexed": true,
          "internalType": "address",
          "name": "to",
          "type": "address"
        },
        {
          "indexed": true,
          "internalType": "uint256",
          "name": "tokenId",
          "type": "uint256"
        }
      ],
      "name": "Transfer",
      "type": "event"
    },
    {
      "inputs": [],
      "name": "DEFAULT_ADMIN_ROLE",
      "outputs": [
        {
          "internalType": "uint256",
          "name": "",
          "type": "uint256"
        }
      ],
      "stateMutability": "view",
      "type": "function",
      "constant": true
    },
    {
      "inputs": [],
      "name": "DEFAULT_CORE_ROLE",
      "outputs": [
        {
          "internalType": "uint256",
          "name": "",
          "type": "uint256"
        }
      ],
      "stateMutability": "view",
      "type": "function",
      "constant": true
    },
    {
      "inputs": [
        {
          "internalType": "address",
          "name": "to",
          "type": "address"
        },
        {
          "internalType": "uint256",
          "name": "tokenId",
          "type": "uint256"
        }
      ],
      "name": "approve",
      "outputs": [],
      "stateMutability": "nonpayable",
      "type": "function"
    },
    {
      "inputs": [
        {
          "internalType": "address",
          "name": "owner",
          "type": "address"
        }
      ],
      "name": "balanceOf",
      "outputs": [
        {
          "internalType": "uint256",
          "name": "",
          "type": "uint256"
        }
      ],
      "stateMutability": "view",
      "type": "function",
      "constant": true
    },
    {
      "inputs": [
        {
          "internalType": "uint256",
          "name": "tokenId",
          "type": "uint256"
        }
      ],
      "name": "getApproved",
      "outputs": [
        {
          "internalType": "address",
          "name": "",
          "type": "address"
        }
      ],
      "stateMutability": "view",
      "type": "function",
      "constant": true
    },
    {
      "inputs": [
        {
          "internalType": "uint256",
          "name": "role",
          "type": "uint256"
        }
      ],
      "name": "getRoleAdmin",
      "outputs": [
        {
          "internalType": "uint256",
          "name": "",
          "type": "uint256"
        }
      ],
      "stateMutability": "view",
      "type": "function",
      "constant": true
    },
    {
      "inputs": [
        {
          "internalType": "uint256",
          "name": "role",
          "type": "uint256"
        },
        {
          "internalType": "address",
          "name": "account",
          "type": "address"
        }
      ],
      "name": "grantRole",
      "outputs": [],
      "stateMutability": "nonpayable",
      "type": "function"
    },
    {
      "inputs": [
        {
          "internalType": "uint256",
          "name": "role",
          "type": "uint256"
        },
        {
          "internalType": "address",
          "name": "account",
          "type": "address"
        }
      ],
      "name": "hasRole",
      "outputs": [
        {
          "internalType": "bool",
          "name": "",
          "type": "bool"
        }
      ],
      "stateMutability": "view",
      "type": "function",
      "constant": true
    },
    {
      "inputs": [
        {
          "internalType": "address",
          "name": "owner",
          "type": "address"
        },
        {
          "internalType": "address",
          "name": "operator",
          "type": "address"
        }
      ],
      "name": "isApprovedForAll",
      "outputs": [
        {
          "internalType": "bool",
          "name": "",
          "type": "bool"
        }
      ],
      "stateMutability": "view",
      "type": "function",
      "constant": true
    },
    {
      "inputs": [],
      "name": "name",
      "outputs": [
        {
          "internalType": "string",
          "name": "",
          "type": "string"
        }
      ],
      "stateMutability": "view",
      "type": "function",
      "constant": true
    },
    {
      "inputs": [
        {
          "internalType": "uint256",
          "name": "tokenId",
          "type": "uint256"
        }
      ],
      "name": "ownerOf",
      "outputs": [
        {
          "internalType": "address",
          "name": "",
          "type": "address"
        }
      ],
      "stateMutability": "view",
      "type": "function",
      "constant": true
    },
    {
      "inputs": [
        {
          "internalType": "uint256",
          "name": "role",
          "type": "uint256"
        },
        {
          "internalType": "address",
          "name": "account",
          "type": "address"
        }
      ],
      "name": "renounceRole",
      "outputs": [],
      "stateMutability": "nonpayable",
      "type": "function"
    },
    {
      "inputs": [
        {
          "internalType": "uint256",
          "name": "role",
          "type": "uint256"
        },
        {
          "internalType": "address",
          "name": "account",
          "type": "address"
        }
      ],
      "name": "revokeRole",
      "outputs": [],
      "stateMutability": "nonpayable",
      "type": "function"
    },
    {
      "inputs": [
        {
          "internalType": "address",
          "name": "from",
          "type": "address"
        },
        {
          "internalType": "address",
          "name": "to",
          "type": "address"
        },
        {
          "internalType": "uint256",
          "name": "tokenId",
          "type": "uint256"
        }
      ],
      "name": "safeTransferFrom",
      "outputs": [],
      "stateMutability": "nonpayable",
      "type": "function"
    },
    {
      "inputs": [
        {
          "internalType": "address",
          "name": "from",
          "type": "address"
        },
        {
          "internalType": "address",
          "name": "to",
          "type": "address"
        },
        {
          "internalType": "uint256",
          "name": "tokenId",
          "type": "uint256"
        },
        {
          "internalType": "bytes",
          "name": "_data",
          "type": "bytes"
        }
      ],
      "name": "safeTransferFrom",
      "outputs": [],
      "stateMutability": "nonpayable",
      "type": "function"
    },
    {
      "inputs": [
        {
          "internalType": "address",
          "name": "operator",
          "type": "address"
        },
        {
          "internalType": "bool",
          "name": "approved",
          "type": "bool"
        }
      ],
      "name": "setApprovalForAll",
      "outputs": [],
      "stateMutability": "nonpayable",
      "type": "function"
    },
    {
      "inputs": [
        {
          "internalType": "bytes4",
          "name": "interfaceId",
          "type": "bytes4"
        }
      ],
      "name": "supportsInterface",
      "outputs": [
        {
          "internalType": "bool",
          "name": "",
          "type": "bool"
        }
      ],
      "stateMutability": "view",
      "type": "function",
      "constant": true
    },
    {
      "inputs": [],
      "name": "symbol",
      "outputs": [
        {
          "internalType": "string",
          "name": "",
          "type": "string"
        }
      ],
      "stateMutability": "view",
      "type": "function",
      "constant": true
    },
    {
      "inputs": [
        {
          "internalType": "uint256",
          "name": "tokenId",
          "type": "uint256"
        }
      ],
      "name": "tokenURI",
      "outputs": [
        {
          "internalType": "string",
          "name": "",
          "type": "string"
        }
      ],
      "stateMutability": "view",
      "type": "function",
      "constant": true
    },
    {
      "inputs": [
        {
          "internalType": "address",
          "name": "from",
          "type": "address"
        },
        {
          "internalType": "address",
          "name": "to",
          "type": "address"
        },
        {
          "internalType": "uint256",
          "name": "tokenId",
          "type": "uint256"
        }
      ],
      "name": "transferFrom",
      "outputs": [],
      "stateMutability": "nonpayable",
      "type": "function"
    },
    {
      "inputs": [
        {
          "internalType": "address",
          "name": "newAdmin",
          "type": "address"
        }
      ],
      "name": "changeAdmin",
      "outputs": [],
      "stateMutability": "nonpayable",
      "type": "function"
    },
    {
      "inputs": [
        {
          "internalType": "address",
          "name": "_characterUtils",
          "type": "address"
        },
        {
          "internalType": "address",
          "name": "_Core",
          "type": "address"
        },
        {
          "internalType": "address",
          "name": "_CoreIn",
          "type": "address"
        },
        {
          "internalType": "address",
          "name": "_Robbery",
          "type": "address"
        },
        {
          "internalType": "address",
          "name": "_PvP",
          "type": "address"
        },
        {
          "internalType": "address",
          "name": "_Equipment",
          "type": "address"
        },
        {
          "internalType": "address",
          "name": "_HospitalPrice",
          "type": "address"
        },
        {
          "internalType": "address",
          "name": "_BlackMarket",
          "type": "address"
        }
      ],
      "name": "Initialize",
      "outputs": [],
      "stateMutability": "nonpayable",
      "type": "function"
    },
    {
      "inputs": [
        {
          "internalType": "uint256",
          "name": "tokenId",
          "type": "uint256"
        }
      ],
      "name": "getGameItem",
      "outputs": [
        {
          "components": [
            {
              "internalType": "string",
              "name": "name",
              "type": "string"
            },
            {
              "internalType": "uint256",
              "name": "rarity",
              "type": "uint256"
            },
            {
              "internalType": "uint256",
              "name": "img",
              "type": "uint256"
            },
            {
              "internalType": "uint256",
              "name": "powerBonus",
              "type": "uint256"
            },
            {
              "internalType": "uint256",
              "name": "strBonus",
              "type": "uint256"
            },
            {
              "internalType": "uint256",
              "name": "intBonus",
              "type": "uint256"
            },
            {
              "internalType": "uint256",
              "name": "chaBonus",
              "type": "uint256"
            },
            {
              "internalType": "uint256",
              "name": "resBonus",
              "type": "uint256"
            },
            {
              "internalType": "address",
              "name": "owner",
              "type": "address"
            },
            {
              "internalType": "uint256",
              "name": "itemId",
              "type": "uint256"
            },
            {
              "internalType": "uint256",
              "name": "tokenId",
              "type": "uint256"
            },
            {
              "internalType": "bool",
              "name": "equiped",
              "type": "bool"
            },
            {
              "internalType": "uint256",
              "name": "equipedTime",
              "type": "uint256"
            }
          ],
          "internalType": "struct _GameItem",
          "name": "",
          "type": "tuple"
        }
      ],
      "stateMutability": "view",
      "type": "function",
      "constant": true
    },
    {
      "inputs": [
        {
          "internalType": "uint256",
          "name": "tokenId",
          "type": "uint256"
        },
        {
          "components": [
            {
              "internalType": "string",
              "name": "name",
              "type": "string"
            },
            {
              "internalType": "uint256",
              "name": "rarity",
              "type": "uint256"
            },
            {
              "internalType": "uint256",
              "name": "img",
              "type": "uint256"
            },
            {
              "internalType": "uint256",
              "name": "powerBonus",
              "type": "uint256"
            },
            {
              "internalType": "uint256",
              "name": "strBonus",
              "type": "uint256"
            },
            {
              "internalType": "uint256",
              "name": "intBonus",
              "type": "uint256"
            },
            {
              "internalType": "uint256",
              "name": "chaBonus",
              "type": "uint256"
            },
            {
              "internalType": "uint256",
              "name": "resBonus",
              "type": "uint256"
            },
            {
              "internalType": "address",
              "name": "owner",
              "type": "address"
            },
            {
              "internalType": "uint256",
              "name": "itemId",
              "type": "uint256"
            },
            {
              "internalType": "uint256",
              "name": "tokenId",
              "type": "uint256"
            },
            {
              "internalType": "bool",
              "name": "equiped",
              "type": "bool"
            },
            {
              "internalType": "uint256",
              "name": "equipedTime",
              "type": "uint256"
            }
          ],
          "internalType": "struct _GameItem",
          "name": "_item",
          "type": "tuple"
        }
      ],
      "name": "UpdateGameItem",
      "outputs": [],
      "stateMutability": "nonpayable",
      "type": "function"
    },
    {
      "inputs": [
        {
          "internalType": "uint256",
          "name": "tokenId",
          "type": "uint256"
        }
      ],
      "name": "getItemListData",
      "outputs": [
        {
          "components": [
            {
              "internalType": "string",
              "name": "name",
              "type": "string"
            },
            {
              "internalType": "uint256",
              "name": "img",
              "type": "uint256"
            },
            {
              "internalType": "uint256",
              "name": "powerBonus",
              "type": "uint256"
            },
            {
              "internalType": "uint256",
              "name": "strBonus",
              "type": "uint256"
            },
            {
              "internalType": "uint256",
              "name": "intBonus",
              "type": "uint256"
            },
            {
              "internalType": "uint256",
              "name": "chaBonus",
              "type": "uint256"
            },
            {
              "internalType": "uint256",
              "name": "resBonus",
              "type": "uint256"
            },
            {
              "internalType": "uint256",
              "name": "price",
              "type": "uint256"
            },
            {
              "internalType": "bool",
              "name": "canMint",
              "type": "bool"
            }
          ],
          "internalType": "struct _ItemList",
          "name": "",
          "type": "tuple"
        }
      ],
      "stateMutability": "view",
      "type": "function",
      "constant": true
    },
    {
      "inputs": [],
      "name": "getContractOwner",
      "outputs": [
        {
          "internalType": "address",
          "name": "",
          "type": "address"
        }
      ],
      "stateMutability": "view",
      "type": "function",
      "constant": true
    },
    {
      "inputs": [],
      "name": "getIndexSlot",
      "outputs": [
        {
          "internalType": "uint256",
          "name": "",
          "type": "uint256"
        }
      ],
      "stateMutability": "view",
      "type": "function",
      "constant": true
    },
    {
      "inputs": [],
      "name": "getTotalSupply",
      "outputs": [
        {
          "internalType": "uint256",
          "name": "",
          "type": "uint256"
        }
      ],
      "stateMutability": "view",
      "type": "function",
      "constant": true
    },
    {
      "inputs": [
        {
          "internalType": "uint256",
          "name": "tokenId",
          "type": "uint256"
        }
      ],
      "name": "exists",
      "outputs": [
        {
          "internalType": "bool",
          "name": "",
          "type": "bool"
        }
      ],
      "stateMutability": "view",
      "type": "function",
      "constant": true
    },
    {
      "inputs": [
        {
          "internalType": "uint256",
          "name": "tokenId",
          "type": "uint256"
        }
      ],
      "name": "checkItemIsEquiped",
      "outputs": [
        {
          "internalType": "bool",
          "name": "",
          "type": "bool"
        }
      ],
      "stateMutability": "view",
      "type": "function",
      "constant": true
    },
    {
      "inputs": [
        {
          "internalType": "uint256",
          "name": "itemId",
          "type": "uint256"
        }
      ],
      "name": "checkItemListCanMint",
      "outputs": [
        {
          "internalType": "bool",
          "name": "",
          "type": "bool"
        }
      ],
      "stateMutability": "view",
      "type": "function",
      "constant": true
    },
    {
      "inputs": [
        {
          "internalType": "uint256",
          "name": "itemId",
          "type": "uint256"
        }
      ],
      "name": "checkWeaponList",
      "outputs": [
        {
          "internalType": "bool",
          "name": "",
          "type": "bool"
        }
      ],
      "stateMutability": "view",
      "type": "function",
      "constant": true
    },
    {
      "inputs": [
        {
          "internalType": "uint256",
          "name": "itemId",
          "type": "uint256"
        }
      ],
      "name": "getItemPrice",
      "outputs": [
        {
          "internalType": "uint256",
          "name": "",
          "type": "uint256"
        }
      ],
      "stateMutability": "view",
      "type": "function",
      "constant": true
    },
    {
      "inputs": [
        {
          "internalType": "address",
          "name": "addr",
          "type": "address"
        },
        {
          "internalType": "uint256",
          "name": "itemId",
          "type": "uint256"
        }
      ],
      "name": "mint",
      "outputs": [],
      "stateMutability": "nonpayable",
      "type": "function"
    },
    {
      "inputs": [
        {
          "internalType": "address",
          "name": "from",
          "type": "address"
        },
        {
          "internalType": "address",
          "name": "to",
          "type": "address"
        },
        {
          "internalType": "uint256[]",
          "name": "tokenIds",
          "type": "uint256[]"
        }
      ],
      "name": "transferFromAll",
      "outputs": [],
      "stateMutability": "nonpayable",
      "type": "function"
    },
    {
      "inputs": [],
      "name": "burnAllItemsInSeason",
      "outputs": [],
      "stateMutability": "nonpayable",
      "type": "function"
    },
    {
      "inputs": [
        {
          "internalType": "uint256",
          "name": "tokenId",
          "type": "uint256"
        }
      ],
      "name": "burn",
      "outputs": [],
      "stateMutability": "nonpayable",
      "type": "function"
    },
    {
      "inputs": [
        {
          "internalType": "uint256[]",
          "name": "tokenIds",
          "type": "uint256[]"
        }
      ],
      "name": "burnItems",
      "outputs": [],
      "stateMutability": "nonpayable",
      "type": "function"
    }
  ],
  "bytecode": "0x608060405260006009556001600c556000600d60006101000a81548160ff0219169083151502179055503480156200003657600080fd5b506040516200609f3803806200609f83398181016040528101906200005c91906200072d565b838381600090805190602001906200007692919062000422565b5080600190805190602001906200008f92919062000422565b50505033600760006101000a81548173ffffffffffffffffffffffffffffffffffffffff021916908373ffffffffffffffffffffffffffffffffffffffff16021790555073bf752eb4b851b241a36e22767b304ef28242198a600860006101000a81548173ffffffffffffffffffffffffffffffffffffffff021916908373ffffffffffffffffffffffffffffffffffffffff16021790555081600a60006101000a81548173ffffffffffffffffffffffffffffffffffffffff021916908373ffffffffffffffffffffffffffffffffffffffff16021790555080600b60006101000a81548173ffffffffffffffffffffffffffffffffffffffff021916908373ffffffffffffffffffffffffffffffffffffffff160217905550620001bd601e806200022360201b60201c565b620001d1601f601e6200022360201b60201c565b620001e4601e336200028760201b60201c565b62000219601e600860009054906101000a900473ffffffffffffffffffffffffffffffffffffffff166200028760201b60201c565b5050505062000842565b600062000236836200029d60201b60201c565b90508160066000858152602001908152602001600020600101819055508181847f6620dedee755c284a7e221a3279487b734830c1f76c026c797b4d019c6b4b2f460405160405180910390a4505050565b620002998282620002bd60201b60201c565b5050565b600060066000838152602001908152602001600020600101549050919050565b620002cf8282620003af60201b60201c565b620003ab5760016006600084815260200190815260200160002060000160008373ffffffffffffffffffffffffffffffffffffffff1673ffffffffffffffffffffffffffffffffffffffff16815260200190815260200160002060006101000a81548160ff021916908315150217905550620003506200041a60201b60201c565b73ffffffffffffffffffffffffffffffffffffffff168173ffffffffffffffffffffffffffffffffffffffff16837f1ec1667fba5e43c5c76fff54e76d7a4a20a4fecf7b49724ad8d52a3f726e9dbd60405160405180910390a45b5050565b60006006600084815260200190815260200160002060000160008373ffffffffffffffffffffffffffffffffffffffff1673ffffffffffffffffffffffffffffffffffffffff16815260200190815260200160002060009054906101000a900460ff16905092915050565b600033905090565b82805462000430906200080c565b90600052602060002090601f016020900481019282620004545760008555620004a0565b82601f106200046f57805160ff1916838001178555620004a0565b82800160010185558215620004a0579182015b828111156200049f57825182559160200191906001019062000482565b5b509050620004af9190620004b3565b5090565b5b80821115620004ce576000816000905550600101620004b4565b5090565b6000604051905090565b600080fd5b600080fd5b600080fd5b600080fd5b6000601f19601f8301169050919050565b7f4e487b7100000000000000000000000000000000000000000000000000000000600052604160045260246000fd5b6200053b82620004f0565b810181811067ffffffffffffffff821117156200055d576200055c62000501565b5b80604052505050565b600062000572620004d2565b905062000580828262000530565b919050565b600067ffffffffffffffff821115620005a357620005a262000501565b5b620005ae82620004f0565b9050602081019050919050565b60005b83811015620005db578082015181840152602081019050620005be565b83811115620005eb576000848401525b50505050565b600062000608620006028462000585565b62000566565b905082815260208101848484011115620006275762000626620004eb565b5b62000634848285620005bb565b509392505050565b600082601f830112620006545762000653620004e6565b5b815162000666848260208601620005f1565b91505092915050565b600073ffffffffffffffffffffffffffffffffffffffff82169050919050565b60006200069c826200066f565b9050919050565b6000620006b0826200068f565b9050919050565b620006c281620006a3565b8114620006ce57600080fd5b50565b600081519050620006e281620006b7565b92915050565b6000620006f5826200068f565b9050919050565b6200070781620006e8565b81146200071357600080fd5b50565b6000815190506200072781620006fc565b92915050565b600080600080608085870312156200074a5762000749620004dc565b5b600085015167ffffffffffffffff8111156200076b576200076a620004e1565b5b62000779878288016200063c565b945050602085015167ffffffffffffffff8111156200079d576200079c620004e1565b5b620007ab878288016200063c565b9350506040620007be87828801620006d1565b9250506060620007d18782880162000716565b91505092959194509250565b7f4e487b7100000000000000000000000000000000000000000000000000000000600052602260045260246000fd5b600060028204905060018216806200082557607f821691505b602082108114156200083c576200083b620007dd565b5b50919050565b61584d80620008526000396000f3fe608060405234801561001057600080fd5b50600436106102325760003560e01c80636352211e11610130578063a22cb465116100b8578063ec2606c01161007c578063ec2606c0146106bf578063f7e23738146106ef578063f8973b9a1461070b578063fb2990ad14610727578063fc53c21a1461075757610232565b8063a22cb46514610609578063b88d4fde14610625578063c4e41b2214610641578063c87b56dd1461065f578063e985e9c51461068f57610232565b80637ee82bee116100ff5780637ee82bee146105655780638f2839701461058157806394f13f4a1461059d57806395d89b41146105cd578063a217fddf146105eb57610232565b80636352211e146104cb5780636e470953146104fb5780636f45e4e51461051757806370a082311461053557610232565b8063399bab9c116101be578063442890d511610182578063442890d5146103ed5780634c4df8701461040b5780634f558e791461043b5780635c8ced3c1461046b57806360502d191461049b57610232565b8063399bab9c1461035f57806340c10f191461036957806342842e0e1461038557806342966c68146103a157806343c03617146103bd57610232565b80631ae4a969116102055780631ae4a969146102d15780631d0b19e7146102ef5780631fe5f5891461030b5780632308d2361461032757806323b872dd1461034357610232565b806301ffc9a71461023757806306fdde0314610267578063081812fc14610285578063095ea7b3146102b5575b600080fd5b610251600480360381019061024c91906138e9565b610787565b60405161025e9190613931565b60405180910390f35b61026f610869565b60405161027c91906139e5565b60405180910390f35b61029f600480360381019061029a9190613a3d565b6108fb565b6040516102ac9190613aab565b60405180910390f35b6102cf60048036038101906102ca9190613af2565b610980565b005b6102d9610a98565b6040516102e69190613b41565b60405180910390f35b61030960048036038101906103049190613b5c565b610ae6565b005b61032560048036038101906103209190613b5c565b610b0f565b005b610341600480360381019061033c9190613b5c565b610b38565b005b61035d60048036038101906103589190613b9c565b610bbb565b005b610367610c1b565b005b610383600480360381019061037e9190613af2565b610c6c565b005b61039f600480360381019061039a9190613b9c565b611472565b005b6103bb60048036038101906103b69190613a3d565b611492565b005b6103d760048036038101906103d29190613a3d565b6114b0565b6040516103e49190613931565b60405180910390f35b6103f5611630565b6040516104029190613aab565b60405180910390f35b61042560048036038101906104209190613a3d565b61165a565b6040516104329190613b41565b60405180910390f35b61045560048036038101906104509190613a3d565b6117e9565b6040516104629190613931565b60405180910390f35b61048560048036038101906104809190613a3d565b6117fb565b6040516104929190613d1c565b60405180910390f35b6104b560048036038101906104b09190613a3d565b6119ea565b6040516104c29190613931565b60405180910390f35b6104e560048036038101906104e09190613a3d565b611a17565b6040516104f29190613aab565b60405180910390f35b61051560048036038101906105109190613ffd565b611ac9565b005b61051f611c2b565b60405161052c9190613b41565b60405180910390f35b61054f600480360381019061054a9190614059565b611c30565b60405161055c9190613b41565b60405180910390f35b61057f600480360381019061057a919061414e565b611ce8565b005b61059b60048036038101906105969190614059565b611d55565b005b6105b760048036038101906105b29190613a3d565b611dad565b6040516105c491906142e5565b60405180910390f35b6105d5611f8a565b6040516105e291906139e5565b60405180910390f35b6105f361201c565b6040516106009190613b41565b60405180910390f35b610623600480360381019061061e9190614307565b612021565b005b61063f600480360381019061063a91906143e8565b6121a2565b005b610649612204565b6040516106569190613b41565b60405180910390f35b61067960048036038101906106749190613a3d565b61220e565b60405161068691906139e5565b60405180910390f35b6106a960048036038101906106a4919061446b565b6122b5565b6040516106b69190613931565b60405180910390f35b6106d960048036038101906106d49190613b5c565b612349565b6040516106e69190613931565b60405180910390f35b610709600480360381019061070491906144ab565b6123b4565b005b610725600480360381019061072091906144f4565b61240c565b005b610741600480360381019061073c9190613a3d565b6124b1565b60405161074e9190613b41565b60405180910390f35b610771600480360381019061076c9190613a3d565b6124d1565b60405161077e9190613931565b60405180910390f35b60007f80ac58cd000000000000000000000000000000000000000000000000000000007bffffffffffffffffffffffffffffffffffffffffffffffffffffffff1916827bffffffffffffffffffffffffffffffffffffffffffffffffffffffff1916148061085257507f5b5e139f000000000000000000000000000000000000000000000000000000007bffffffffffffffffffffffffffffffffffffffffffffffffffffffff1916827bffffffffffffffffffffffffffffffffffffffffffffffffffffffff1916145b8061086257506108618261269a565b5b9050919050565b606060008054610878906145d9565b80601f01602080910402602001604051908101604052809291908181526020018280546108a4906145d9565b80156108f15780601f106108c6576101008083540402835291602001916108f1565b820191906000526020600020905b8154815290600101906020018083116108d457829003601f168201915b5050505050905090565b600061090682612704565b610945576040517f08c379a000000000000000000000000000000000000000000000000000000000815260040161093c9061467d565b60405180910390fd5b6004600083815260200190815260200160002060009054906101000a900473ffffffffffffffffffffffffffffffffffffffff169050919050565b600061098b82611a17565b90508073ffffffffffffffffffffffffffffffffffffffff168373ffffffffffffffffffffffffffffffffffffffff1614156109fc576040517f08c379a00000000000000000000000000000000000000000000000000000000081526004016109f39061470f565b60405180910390fd5b8073ffffffffffffffffffffffffffffffffffffffff16610a1b612770565b73ffffffffffffffffffffffffffffffffffffffff161480610a4a5750610a4981610a44612770565b6122b5565b5b610a89576040517f08c379a0000000000000000000000000000000000000000000000000000000008152600401610a80906147a1565b60405180910390fd5b610a938383612778565b505050565b600080600c5490506000600190505b600c548111610add57610ab981612704565b610aca578091508192505050610ae3565b8080610ad5906147f0565b915050610aa7565b50809150505b90565b610aef826124b1565b610b0081610afb612770565b612831565b610b0a83836128cb565b505050565b610b18826124b1565b610b2981610b24612770565b612831565b610b3383836129ad565b505050565b610b40612770565b73ffffffffffffffffffffffffffffffffffffffff168173ffffffffffffffffffffffffffffffffffffffff1614610bad576040517f08c379a0000000000000000000000000000000000000000000000000000000008152600401610ba4906148ab565b60405180910390fd5b610bb782826128cb565b5050565b610bcc610bc6612770565b82612a8e565b610c0b576040517f08c379a0000000000000000000000000000000000000000000000000000000008152600401610c029061493d565b60405180910390fd5b610c16838383612b6c565b505050565b610c2d601f610c28612770565b612831565b6000600190505b600c54811015610c6957610c4781612704565b15610c5657610c5581612dc8565b5b8080610c61906147f0565b915050610c34565b50565b610c7e601f610c79612770565b612831565b600b60009054906101000a900473ffffffffffffffffffffffffffffffffffffffff1673ffffffffffffffffffffffffffffffffffffffff1663101a8f79826040518263ffffffff1660e01b8152600401610cd99190613b41565b602060405180830381865afa158015610cf6573d6000803e3d6000fd5b505050506040513d601f19601f82011682018060405250810190610d1a9190614972565b610d59576040517f08c379a0000000000000000000000000000000000000000000000000000000008152600401610d50906149eb565b60405180910390fd5b6000600b60009054906101000a900473ffffffffffffffffffffffffffffffffffffffff1673ffffffffffffffffffffffffffffffffffffffff16635c8ced3c836040518263ffffffff1660e01b8152600401610db69190613b41565b600060405180830381865afa158015610dd3573d6000803e3d6000fd5b505050506040513d6000823e3d601f19601f82011682018060405250810190610dfc9190614b8c565b905060008160400151905060006001905060008360600151905060008460800151905060008560a00151905060008660c001519050610e3a886124d1565b156112b0576000600a60009054906101000a900473ffffffffffffffffffffffffffffffffffffffff1673ffffffffffffffffffffffffffffffffffffffff16632530c90560646040518263ffffffff1660e01b8152600401610e9d9190614c1a565b6020604051808303816000875af1158015610ebc573d6000803e3d6000fd5b505050506040513d601f19601f82011682018060405250810190610ee09190614c35565b905060378111610ef35760019550610f1c565b60508111610f045760029550610f1b565b605f8111610f155760039550610f1a565b600495505b5b5b6000600190506000600a60009054906101000a900473ffffffffffffffffffffffffffffffffffffffff1673ffffffffffffffffffffffffffffffffffffffff16632530c90560646040518263ffffffff1660e01b8152600401610f809190614c1a565b6020604051808303816000875af1158015610f9f573d6000803e3d6000fd5b505050506040513d601f19601f82011682018060405250810190610fc39190614c35565b905060198111610fd65760019150610fff565b60328111610fe75760029150610ffe565b604b8111610ff85760039150610ffd565b600491505b5b5b600288141561109857606460148a6110179190614c62565b6110219190614ceb565b8961102c9190614d1c565b9850600182141561104a578680611042906147f0565b975050611093565b600282141561106657858061105e906147f0565b965050611092565b600382141561108257848061107a906147f0565b955050611091565b838061108d906147f0565b9450505b5b5b6112ac565b60038814156111d9576064602d8a6110b09190614c62565b6110ba9190614ceb565b896110c59190614d1c565b9850600182141561110d5786806110db906147f0565b97505086806110e9906147f0565b97505085806110f7906147f0565b9650508480611105906147f0565b9550506111d4565b6002821415611153578580611121906147f0565b965050858061112f906147f0565b965050848061113d906147f0565b955050838061114b906147f0565b9450506111d3565b6003821415611199578480611167906147f0565b9550508480611175906147f0565b9550508380611183906147f0565b9450508680611191906147f0565b9750506111d2565b83806111a4906147f0565b94505083806111b2906147f0565b94505086806111c0906147f0565b97505085806111ce906147f0565b9650505b5b5b6112ab565b60048814156112aa576064604b8a6111f19190614c62565b6111fb9190614ceb565b896112069190614d1c565b98506003876112159190614d1c565b96506003866112249190614d1c565b95506003856112339190614d1c565b94506003846112429190614d1c565b93506001821415611260578680611258906147f0565b9750506112a9565b600282141561127c578580611274906147f0565b9650506112a8565b6003821415611298578480611290906147f0565b9550506112a7565b83806112a3906147f0565b9450505b5b5b5b5b5b5050505b60006112ba610a98565b9050604051806101a0016040528089600001518152602001878152602001896020015181526020018881526020018681526020018581526020018481526020018381526020018b73ffffffffffffffffffffffffffffffffffffffff1681526020018a81526020018281526020016000151581526020016000815250600e6000838152602001908152602001600020600082015181600001908051906020019061136592919061370c565b506020820151816001015560408201518160020155606082015181600301556080820151816004015560a0820151816005015560c0820151816006015560e082015181600701556101008201518160080160006101000a81548173ffffffffffffffffffffffffffffffffffffffff021916908373ffffffffffffffffffffffffffffffffffffffff160217905550610120820151816009015561014082015181600a015561016082015181600b0160006101000a81548160ff02191690831515021790555061018082015181600c01559050506114438a82612ecd565b600c5481141561146657600c6000815480929190611460906147f0565b91905055505b50505050505050505050565b61148d838383604051806020016040528060008152506121a2565b505050565b6114a4601f61149f612770565b612831565b6114ad81612dc8565b50565b6000600b60009054906101000a900473ffffffffffffffffffffffffffffffffffffffff1673ffffffffffffffffffffffffffffffffffffffff1663101a8f79836040518263ffffffff1660e01b815260040161150d9190613b41565b602060405180830381865afa15801561152a573d6000803e3d6000fd5b505050506040513d601f19601f8201168201806040525081019061154e9190614972565b61158d576040517f08c379a0000000000000000000000000000000000000000000000000000000008152600401611584906149eb565b60405180910390fd5b600b60009054906101000a900473ffffffffffffffffffffffffffffffffffffffff1673ffffffffffffffffffffffffffffffffffffffff1663c57653bf836040518263ffffffff1660e01b81526004016115e89190613b41565b602060405180830381865afa158015611605573d6000803e3d6000fd5b505050506040513d601f19601f820116820180604052508101906116299190614972565b9050919050565b6000600760009054906101000a900473ffffffffffffffffffffffffffffffffffffffff16905090565b6000600b60009054906101000a900473ffffffffffffffffffffffffffffffffffffffff1673ffffffffffffffffffffffffffffffffffffffff1663101a8f79836040518263ffffffff1660e01b81526004016116b79190613b41565b602060405180830381865afa1580156116d4573d6000803e3d6000fd5b505050506040513d601f19601f820116820180604052508101906116f89190614972565b611737576040517f08c379a000000000000000000000000000000000000000000000000000000000815260040161172e906149eb565b60405180910390fd5b6000600b60009054906101000a900473ffffffffffffffffffffffffffffffffffffffff1673ffffffffffffffffffffffffffffffffffffffff16635c8ced3c846040518263ffffffff1660e01b81526004016117949190613b41565b600060405180830381865afa1580156117b1573d6000803e3d6000fd5b505050506040513d6000823e3d601f19601f820116820180604052508101906117da9190614b8c565b90508060e00151915050919050565b60006117f482612704565b9050919050565b611803613792565b61180c82612704565b61184b576040517f08c379a000000000000000000000000000000000000000000000000000000000815260040161184290614dbe565b60405180910390fd5b6000600e6000848152602001908152602001600020600901549050600b60009054906101000a900473ffffffffffffffffffffffffffffffffffffffff1673ffffffffffffffffffffffffffffffffffffffff1663101a8f79826040518263ffffffff1660e01b81526004016118c19190613b41565b602060405180830381865afa1580156118de573d6000803e3d6000fd5b505050506040513d601f19601f820116820180604052508101906119029190614972565b611941576040517f08c379a0000000000000000000000000000000000000000000000000000000008152600401611938906149eb565b60405180910390fd5b600b60009054906101000a900473ffffffffffffffffffffffffffffffffffffffff1673ffffffffffffffffffffffffffffffffffffffff16635c8ced3c826040518263ffffffff1660e01b815260040161199c9190613b41565b600060405180830381865afa1580156119b9573d6000803e3d6000fd5b505050506040513d6000823e3d601f19601f820116820180604052508101906119e29190614b8c565b915050919050565b6000600e6000838152602001908152602001600020600b0160009054906101000a900460ff169050919050565b6000806002600084815260200190815260200160002060009054906101000a900473ffffffffffffffffffffffffffffffffffffffff169050600073ffffffffffffffffffffffffffffffffffffffff168173ffffffffffffffffffffffffffffffffffffffff161415611ac0576040517f08c379a0000000000000000000000000000000000000000000000000000000008152600401611ab790614e50565b60405180910390fd5b80915050919050565b611adb601f611ad6612770565b612831565b611ae482612704565b611b23576040517f08c379a0000000000000000000000000000000000000000000000000000000008152600401611b1a90614ebc565b60405180910390fd5b80600e60008481526020019081526020016000206000820151816000019080519060200190611b5392919061370c565b506020820151816001015560408201518160020155606082015181600301556080820151816004015560a0820151816005015560c0820151816006015560e082015181600701556101008201518160080160006101000a81548173ffffffffffffffffffffffffffffffffffffffff021916908373ffffffffffffffffffffffffffffffffffffffff160217905550610120820151816009015561014082015181600a015561016082015181600b0160006101000a81548160ff02191690831515021790555061018082015181600c01559050505050565b601f81565b60008073ffffffffffffffffffffffffffffffffffffffff168273ffffffffffffffffffffffffffffffffffffffff161415611ca1576040517f08c379a0000000000000000000000000000000000000000000000000000000008152600401611c9890614f4e565b60405180910390fd5b600360008373ffffffffffffffffffffffffffffffffffffffff1673ffffffffffffffffffffffffffffffffffffffff168152602001908152602001600020549050919050565b601f611cfb81611cf6612770565b612831565b6000825111611d0957611d4f565b60005b8251811015611d4d57611d3a8585858481518110611d2d57611d2c614f6e565b5b6020026020010151610bbb565b8080611d45906147f0565b915050611d0c565b505b50505050565b601e611d6881611d63612770565b612831565b81600760006101000a81548173ffffffffffffffffffffffffffffffffffffffff021916908373ffffffffffffffffffffffffffffffffffffffff1602179055505050565b611db56137e0565b611dbe82612704565b611dfd576040517f08c379a0000000000000000000000000000000000000000000000000000000008152600401611df490614dbe565b60405180910390fd5b600e6000838152602001908152602001600020604051806101a0016040529081600082018054611e2c906145d9565b80601f0160208091040260200160405190810160405280929190818152602001828054611e58906145d9565b8015611ea55780601f10611e7a57610100808354040283529160200191611ea5565b820191906000526020600020905b815481529060010190602001808311611e8857829003601f168201915b50505050508152602001600182015481526020016002820154815260200160038201548152602001600482015481526020016005820154815260200160068201548152602001600782015481526020016008820160009054906101000a900473ffffffffffffffffffffffffffffffffffffffff1673ffffffffffffffffffffffffffffffffffffffff1673ffffffffffffffffffffffffffffffffffffffff16815260200160098201548152602001600a8201548152602001600b820160009054906101000a900460ff16151515158152602001600c820154815250509050919050565b606060018054611f99906145d9565b80601f0160208091040260200160405190810160405280929190818152602001828054611fc5906145d9565b80156120125780601f10611fe757610100808354040283529160200191612012565b820191906000526020600020905b815481529060010190602001808311611ff557829003601f168201915b5050505050905090565b601e81565b612029612770565b73ffffffffffffffffffffffffffffffffffffffff168273ffffffffffffffffffffffffffffffffffffffff161415612097576040517f08c379a000000000000000000000000000000000000000000000000000000000815260040161208e90614fe9565b60405180910390fd5b80600560006120a4612770565b73ffffffffffffffffffffffffffffffffffffffff1673ffffffffffffffffffffffffffffffffffffffff16815260200190815260200160002060008473ffffffffffffffffffffffffffffffffffffffff1673ffffffffffffffffffffffffffffffffffffffff16815260200190815260200160002060006101000a81548160ff0219169083151502179055508173ffffffffffffffffffffffffffffffffffffffff16612151612770565b73ffffffffffffffffffffffffffffffffffffffff167f17307eab39ab6107e8899845ad3d59bd9653f200f220920489ca2b5937696c31836040516121969190613931565b60405180910390a35050565b6121b36121ad612770565b83612a8e565b6121f2576040517f08c379a00000000000000000000000000000000000000000000000000000000081526004016121e99061493d565b60405180910390fd5b6121fe8484848461309b565b50505050565b6000600c54905090565b606061221982612704565b612258576040517f08c379a000000000000000000000000000000000000000000000000000000000815260040161224f9061507b565b60405180910390fd5b60006122626130f7565b9050600081511161228257604051806020016040528060008152506122ad565b8061228c8461310e565b60405160200161229d9291906150d7565b6040516020818303038152906040525b915050919050565b6000600560008473ffffffffffffffffffffffffffffffffffffffff1673ffffffffffffffffffffffffffffffffffffffff16815260200190815260200160002060008373ffffffffffffffffffffffffffffffffffffffff1673ffffffffffffffffffffffffffffffffffffffff16815260200190815260200160002060009054906101000a900460ff16905092915050565b60006006600084815260200190815260200160002060000160008373ffffffffffffffffffffffffffffffffffffffff1673ffffffffffffffffffffffffffffffffffffffff16815260200190815260200160002060009054906101000a900460ff16905092915050565b6123c6601f6123c1612770565b612831565b60005b8151811015612408576123f58282815181106123e8576123e7614f6e565b5b6020026020010151612dc8565b8080612400906147f0565b9150506123c9565b5050565b60001515600d60009054906101000a900460ff16151514156124a757612433601f8961326f565b61243e601f8861326f565b612449601f8761326f565b612454601f8661326f565b61245f601f8561326f565b61246a601f8461326f565b612475601f8361326f565b612480601f8261326f565b61248b601e3361326f565b6001600d60006101000a81548160ff0219169083151502179055505b5050505050505050565b600060066000838152602001908152602001600020600101549050919050565b6000600b60009054906101000a900473ffffffffffffffffffffffffffffffffffffffff1673ffffffffffffffffffffffffffffffffffffffff1663101a8f79836040518263ffffffff1660e01b815260040161252e9190613b41565b602060405180830381865afa15801561254b573d6000803e3d6000fd5b505050506040513d601f19601f8201168201806040525081019061256f9190614972565b6125ae576040517f08c379a00000000000000000000000000000000000000000000000000000000081526004016125a5906149eb565b60405180910390fd5b6000600b60009054906101000a900473ffffffffffffffffffffffffffffffffffffffff1673ffffffffffffffffffffffffffffffffffffffff16630394b9ce6040518163ffffffff1660e01b8152600401600060405180830381865afa15801561261d573d6000803e3d6000fd5b505050506040513d6000823e3d601f19601f820116820180604052508101906126469190615192565b90506000805b825181101561268f578483828151811061266957612668614f6e565b5b6020026020010151141561267c57600191505b8080612687906147f0565b91505061264c565b508092505050919050565b60007f01ffc9a7000000000000000000000000000000000000000000000000000000007bffffffffffffffffffffffffffffffffffffffffffffffffffffffff1916827bffffffffffffffffffffffffffffffffffffffffffffffffffffffff1916149050919050565b60008073ffffffffffffffffffffffffffffffffffffffff166002600084815260200190815260200160002060009054906101000a900473ffffffffffffffffffffffffffffffffffffffff1673ffffffffffffffffffffffffffffffffffffffff1614159050919050565b600033905090565b816004600083815260200190815260200160002060006101000a81548173ffffffffffffffffffffffffffffffffffffffff021916908373ffffffffffffffffffffffffffffffffffffffff160217905550808273ffffffffffffffffffffffffffffffffffffffff166127eb83611a17565b73ffffffffffffffffffffffffffffffffffffffff167f8c5be1e5ebec7d5bd14f71427d1e84f3dd0314c0f7b2291e5b200ac8c7c3b92560405160405180910390a45050565b61283b8282612349565b6128c7576128608173ffffffffffffffffffffffffffffffffffffffff16601461327d565b61286b83602061327d565b60405160200161287c929190615273565b6040516020818303038152906040526040517f08c379a00000000000000000000000000000000000000000000000000000000081526004016128be91906139e5565b60405180910390fd5b5050565b6128d58282612349565b156129a95760006006600084815260200190815260200160002060000160008373ffffffffffffffffffffffffffffffffffffffff1673ffffffffffffffffffffffffffffffffffffffff16815260200190815260200160002060006101000a81548160ff02191690831515021790555061294e612770565b73ffffffffffffffffffffffffffffffffffffffff168173ffffffffffffffffffffffffffffffffffffffff16837fe0df21b65c73c27081b8f042a012b124085b41d78d27b7e3c4780f5650f5ebb860405160405180910390a45b5050565b6129b78282612349565b612a8a5760016006600084815260200190815260200160002060000160008373ffffffffffffffffffffffffffffffffffffffff1673ffffffffffffffffffffffffffffffffffffffff16815260200190815260200160002060006101000a81548160ff021916908315150217905550612a2f612770565b73ffffffffffffffffffffffffffffffffffffffff168173ffffffffffffffffffffffffffffffffffffffff16837f1ec1667fba5e43c5c76fff54e76d7a4a20a4fecf7b49724ad8d52a3f726e9dbd60405160405180910390a45b5050565b6000612a9982612704565b612ad8576040517f08c379a0000000000000000000000000000000000000000000000000000000008152600401612acf9061531f565b60405180910390fd5b6000612ae383611a17565b90508073ffffffffffffffffffffffffffffffffffffffff168473ffffffffffffffffffffffffffffffffffffffff161480612b5257508373ffffffffffffffffffffffffffffffffffffffff16612b3a846108fb565b73ffffffffffffffffffffffffffffffffffffffff16145b80612b635750612b6281856122b5565b5b91505092915050565b8273ffffffffffffffffffffffffffffffffffffffff16612b8c82611a17565b73ffffffffffffffffffffffffffffffffffffffff1614612be2576040517f08c379a0000000000000000000000000000000000000000000000000000000008152600401612bd9906153b1565b60405180910390fd5b600073ffffffffffffffffffffffffffffffffffffffff168273ffffffffffffffffffffffffffffffffffffffff161415612c52576040517f08c379a0000000000000000000000000000000000000000000000000000000008152600401612c4990615443565b60405180910390fd5b612c5d8383836134b9565b612c68600082612778565b6001600360008573ffffffffffffffffffffffffffffffffffffffff1673ffffffffffffffffffffffffffffffffffffffff1681526020019081526020016000206000828254612cb89190615463565b925050819055506001600360008473ffffffffffffffffffffffffffffffffffffffff1673ffffffffffffffffffffffffffffffffffffffff1681526020019081526020016000206000828254612d0f9190614d1c565b92505081905550816002600083815260200190815260200160002060006101000a81548173ffffffffffffffffffffffffffffffffffffffff021916908373ffffffffffffffffffffffffffffffffffffffff160217905550808273ffffffffffffffffffffffffffffffffffffffff168473ffffffffffffffffffffffffffffffffffffffff167fddf252ad1be2c89b69c2b068fc378daa952ba7f163c4a11628f55a4df523b3ef60405160405180910390a4505050565b6000612dd382611a17565b9050612de0600083612778565b6001600360008373ffffffffffffffffffffffffffffffffffffffff1673ffffffffffffffffffffffffffffffffffffffff1681526020019081526020016000206000828254612e309190615463565b925050819055506002600083815260200190815260200160002060006101000a81549073ffffffffffffffffffffffffffffffffffffffff021916905581600073ffffffffffffffffffffffffffffffffffffffff168273ffffffffffffffffffffffffffffffffffffffff167fddf252ad1be2c89b69c2b068fc378daa952ba7f163c4a11628f55a4df523b3ef60405160405180910390a45050565b600073ffffffffffffffffffffffffffffffffffffffff168273ffffffffffffffffffffffffffffffffffffffff161415612f3d576040517f08c379a0000000000000000000000000000000000000000000000000000000008152600401612f34906154e3565b60405180910390fd5b612f4681612704565b15612f86576040517f08c379a0000000000000000000000000000000000000000000000000000000008152600401612f7d9061554f565b60405180910390fd5b612f92600083836134b9565b6001600360008473ffffffffffffffffffffffffffffffffffffffff1673ffffffffffffffffffffffffffffffffffffffff1681526020019081526020016000206000828254612fe29190614d1c565b92505081905550816002600083815260200190815260200160002060006101000a81548173ffffffffffffffffffffffffffffffffffffffff021916908373ffffffffffffffffffffffffffffffffffffffff160217905550808273ffffffffffffffffffffffffffffffffffffffff16600073ffffffffffffffffffffffffffffffffffffffff167fddf252ad1be2c89b69c2b068fc378daa952ba7f163c4a11628f55a4df523b3ef60405160405180910390a45050565b6130a6848484612b6c565b6130b284848484613571565b6130f1576040517f08c379a00000000000000000000000000000000000000000000000000000000081526004016130e8906155e1565b60405180910390fd5b50505050565b606060405180602001604052806000815250905090565b60606000821415613156576040518060400160405280600181526020017f3000000000000000000000000000000000000000000000000000000000000000815250905061326a565b600082905060005b60008214613188578080613171906147f0565b915050600a826131819190614ceb565b915061315e565b60008167ffffffffffffffff8111156131a4576131a3613d43565b5b6040519080825280601f01601f1916602001820160405280156131d65781602001600182028036833780820191505090505b5090505b60008514613263576001826131ef9190615463565b9150600a856131fe9190615601565b603061320a9190614d1c565b60f81b8183815181106132205761321f614f6e565b5b60200101907effffffffffffffffffffffffffffffffffffffffffffffffffffffffffffff1916908160001a905350600a8561325c9190614ceb565b94506131da565b8093505050505b919050565b61327982826129ad565b5050565b6060600060028360026132909190614c62565b61329a9190614d1c565b67ffffffffffffffff8111156132b3576132b2613d43565b5b6040519080825280601f01601f1916602001820160405280156132e55781602001600182028036833780820191505090505b5090507f30000000000000000000000000000000000000000000000000000000000000008160008151811061331d5761331c614f6e565b5b60200101907effffffffffffffffffffffffffffffffffffffffffffffffffffffffffffff1916908160001a9053507f78000000000000000000000000000000000000000000000000000000000000008160018151811061338157613380614f6e565b5b60200101907effffffffffffffffffffffffffffffffffffffffffffffffffffffffffffff1916908160001a905350600060018460026133c19190614c62565b6133cb9190614d1c565b90505b600181111561346b577f3031323334353637383961626364656600000000000000000000000000000000600f86166010811061340d5761340c614f6e565b5b1a60f81b82828151811061342457613423614f6e565b5b60200101907effffffffffffffffffffffffffffffffffffffffffffffffffffffffffffff1916908160001a905350600485901c94508061346490615632565b90506133ce565b50600084146134af576040517f08c379a00000000000000000000000000000000000000000000000000000000081526004016134a6906156a8565b60405180910390fd5b8091505092915050565b6000600e600083815260200190815260200160002090506000151581600b0160009054906101000a900460ff16151514613528576040517f08c379a000000000000000000000000000000000000000000000000000000000815260040161351f90615714565b60405180910390fd5b828160080160006101000a81548173ffffffffffffffffffffffffffffffffffffffff021916908373ffffffffffffffffffffffffffffffffffffffff16021790555050505050565b60006135928473ffffffffffffffffffffffffffffffffffffffff166136f9565b156136ec578373ffffffffffffffffffffffffffffffffffffffff1663150b7a026135bb612770565b8786866040518563ffffffff1660e01b81526004016135dd9493929190615789565b6020604051808303816000875af192505050801561361957506040513d601f19601f8201168201806040525081019061361691906157ea565b60015b61369c573d8060008114613649576040519150601f19603f3d011682016040523d82523d6000602084013e61364e565b606091505b50600081511415613694576040517f08c379a000000000000000000000000000000000000000000000000000000000815260040161368b906155e1565b60405180910390fd5b805181602001fd5b63150b7a0260e01b7bffffffffffffffffffffffffffffffffffffffffffffffffffffffff1916817bffffffffffffffffffffffffffffffffffffffffffffffffffffffff1916149150506136f1565b600190505b949350505050565b600080823b905060008111915050919050565b828054613718906145d9565b90600052602060002090601f01602090048101928261373a5760008555613781565b82601f1061375357805160ff1916838001178555613781565b82800160010185558215613781579182015b82811115613780578251825591602001919060010190613765565b5b50905061378e9190613860565b5090565b60405180610120016040528060608152602001600081526020016000815260200160008152602001600081526020016000815260200160008152602001600081526020016000151581525090565b604051806101a001604052806060815260200160008152602001600081526020016000815260200160008152602001600081526020016000815260200160008152602001600073ffffffffffffffffffffffffffffffffffffffff1681526020016000815260200160008152602001600015158152602001600081525090565b5b80821115613879576000816000905550600101613861565b5090565b6000604051905090565b600080fd5b600080fd5b60007fffffffff0000000000000000000000000000000000000000000000000000000082169050919050565b6138c681613891565b81146138d157600080fd5b50565b6000813590506138e3816138bd565b92915050565b6000602082840312156138ff576138fe613887565b5b600061390d848285016138d4565b91505092915050565b60008115159050919050565b61392b81613916565b82525050565b60006020820190506139466000830184613922565b92915050565b600081519050919050565b600082825260208201905092915050565b60005b8381101561398657808201518184015260208101905061396b565b83811115613995576000848401525b50505050565b6000601f19601f8301169050919050565b60006139b78261394c565b6139c18185613957565b93506139d1818560208601613968565b6139da8161399b565b840191505092915050565b600060208201905081810360008301526139ff81846139ac565b905092915050565b6000819050919050565b613a1a81613a07565b8114613a2557600080fd5b50565b600081359050613a3781613a11565b92915050565b600060208284031215613a5357613a52613887565b5b6000613a6184828501613a28565b91505092915050565b600073ffffffffffffffffffffffffffffffffffffffff82169050919050565b6000613a9582613a6a565b9050919050565b613aa581613a8a565b82525050565b6000602082019050613ac06000830184613a9c565b92915050565b613acf81613a8a565b8114613ada57600080fd5b50565b600081359050613aec81613ac6565b92915050565b60008060408385031215613b0957613b08613887565b5b6000613b1785828601613add565b9250506020613b2885828601613a28565b9150509250929050565b613b3b81613a07565b82525050565b6000602082019050613b566000830184613b32565b92915050565b60008060408385031215613b7357613b72613887565b5b6000613b8185828601613a28565b9250506020613b9285828601613add565b9150509250929050565b600080600060608486031215613bb557613bb4613887565b5b6000613bc386828701613add565b9350506020613bd486828701613add565b9250506040613be586828701613a28565b9150509250925092565b600082825260208201905092915050565b6000613c0b8261394c565b613c158185613bef565b9350613c25818560208601613968565b613c2e8161399b565b840191505092915050565b613c4281613a07565b82525050565b613c5181613916565b82525050565b6000610120830160008301518482036000860152613c758282613c00565b9150506020830151613c8a6020860182613c39565b506040830151613c9d6040860182613c39565b506060830151613cb06060860182613c39565b506080830151613cc36080860182613c39565b5060a0830151613cd660a0860182613c39565b5060c0830151613ce960c0860182613c39565b5060e0830151613cfc60e0860182613c39565b50610100830151613d11610100860182613c48565b508091505092915050565b60006020820190508181036000830152613d368184613c57565b905092915050565b600080fd5b7f4e487b7100000000000000000000000000000000000000000000000000000000600052604160045260246000fd5b613d7b8261399b565b810181811067ffffffffffffffff82111715613d9a57613d99613d43565b5b80604052505050565b6000613dad61387d565b9050613db98282613d72565b919050565b600080fd5b600080fd5b600080fd5b600067ffffffffffffffff821115613de857613de7613d43565b5b613df18261399b565b9050602081019050919050565b82818337600083830152505050565b6000613e20613e1b84613dcd565b613da3565b905082815260208101848484011115613e3c57613e3b613dc8565b5b613e47848285613dfe565b509392505050565b600082601f830112613e6457613e63613dc3565b5b8135613e74848260208601613e0d565b91505092915050565b613e8681613916565b8114613e9157600080fd5b50565b600081359050613ea381613e7d565b92915050565b60006101a08284031215613ec057613ebf613d3e565b5b613ecb6101a0613da3565b9050600082013567ffffffffffffffff811115613eeb57613eea613dbe565b5b613ef784828501613e4f565b6000830152506020613f0b84828501613a28565b6020830152506040613f1f84828501613a28565b6040830152506060613f3384828501613a28565b6060830152506080613f4784828501613a28565b60808301525060a0613f5b84828501613a28565b60a08301525060c0613f6f84828501613a28565b60c08301525060e0613f8384828501613a28565b60e083015250610100613f9884828501613add565b61010083015250610120613fae84828501613a28565b61012083015250610140613fc484828501613a28565b61014083015250610160613fda84828501613e94565b61016083015250610180613ff084828501613a28565b6101808301525092915050565b6000806040838503121561401457614013613887565b5b600061402285828601613a28565b925050602083013567ffffffffffffffff8111156140435761404261388c565b5b61404f85828601613ea9565b9150509250929050565b60006020828403121561406f5761406e613887565b5b600061407d84828501613add565b91505092915050565b600067ffffffffffffffff8211156140a1576140a0613d43565b5b602082029050602081019050919050565b600080fd5b60006140ca6140c584614086565b613da3565b905080838252602082019050602084028301858111156140ed576140ec6140b2565b5b835b8181101561411657806141028882613a28565b8452602084019350506020810190506140ef565b5050509392505050565b600082601f83011261413557614134613dc3565b5b81356141458482602086016140b7565b91505092915050565b60008060006060848603121561416757614166613887565b5b600061417586828701613add565b935050602061418686828701613add565b925050604084013567ffffffffffffffff8111156141a7576141a661388c565b5b6141b386828701614120565b9150509250925092565b6141c681613a8a565b82525050565b60006101a08301600083015184820360008601526141ea8282613c00565b91505060208301516141ff6020860182613c39565b5060408301516142126040860182613c39565b5060608301516142256060860182613c39565b5060808301516142386080860182613c39565b5060a083015161424b60a0860182613c39565b5060c083015161425e60c0860182613c39565b5060e083015161427160e0860182613c39565b506101008301516142866101008601826141bd565b5061012083015161429b610120860182613c39565b506101408301516142b0610140860182613c39565b506101608301516142c5610160860182613c48565b506101808301516142da610180860182613c39565b508091505092915050565b600060208201905081810360008301526142ff81846141cc565b905092915050565b6000806040838503121561431e5761431d613887565b5b600061432c85828601613add565b925050602061433d85828601613e94565b9150509250929050565b600067ffffffffffffffff82111561436257614361613d43565b5b61436b8261399b565b9050602081019050919050565b600061438b61438684614347565b613da3565b9050828152602081018484840111156143a7576143a6613dc8565b5b6143b2848285613dfe565b509392505050565b600082601f8301126143cf576143ce613dc3565b5b81356143df848260208601614378565b91505092915050565b6000806000806080858703121561440257614401613887565b5b600061441087828801613add565b945050602061442187828801613add565b935050604061443287828801613a28565b925050606085013567ffffffffffffffff8111156144535761445261388c565b5b61445f878288016143ba565b91505092959194509250565b6000806040838503121561448257614481613887565b5b600061449085828601613add565b92505060206144a185828601613add565b9150509250929050565b6000602082840312156144c1576144c0613887565b5b600082013567ffffffffffffffff8111156144df576144de61388c565b5b6144eb84828501614120565b91505092915050565b600080600080600080600080610100898b03121561451557614514613887565b5b60006145238b828c01613add565b98505060206145348b828c01613add565b97505060406145458b828c01613add565b96505060606145568b828c01613add565b95505060806145678b828c01613add565b94505060a06145788b828c01613add565b93505060c06145898b828c01613add565b92505060e061459a8b828c01613add565b9150509295985092959890939650565b7f4e487b7100000000000000000000000000000000000000000000000000000000600052602260045260246000fd5b600060028204905060018216806145f157607f821691505b60208210811415614605576146046145aa565b5b50919050565b7f4552433732313a20617070726f76656420717565727920666f72206e6f6e657860008201527f697374656e7420746f6b656e0000000000000000000000000000000000000000602082015250565b6000614667602c83613957565b91506146728261460b565b604082019050919050565b600060208201905081810360008301526146968161465a565b9050919050565b7f4552433732313a20617070726f76616c20746f2063757272656e74206f776e6560008201527f7200000000000000000000000000000000000000000000000000000000000000602082015250565b60006146f9602183613957565b91506147048261469d565b604082019050919050565b60006020820190508181036000830152614728816146ec565b9050919050565b7f4552433732313a20617070726f76652063616c6c6572206973206e6f74206f7760008201527f6e6572206e6f7220617070726f76656420666f7220616c6c0000000000000000602082015250565b600061478b603883613957565b91506147968261472f565b604082019050919050565b600060208201905081810360008301526147ba8161477e565b9050919050565b7f4e487b7100000000000000000000000000000000000000000000000000000000600052601160045260246000fd5b60006147fb82613a07565b91507fffffffffffffffffffffffffffffffffffffffffffffffffffffffffffffffff82141561482e5761482d6147c1565b5b600182019050919050565b7f416363657373436f6e74726f6c3a2063616e206f6e6c792072656e6f756e636560008201527f20726f6c657320666f722073656c660000000000000000000000000000000000602082015250565b6000614895602f83613957565b91506148a082614839565b604082019050919050565b600060208201905081810360008301526148c481614888565b9050919050565b7f4552433732313a207472616e736665722063616c6c6572206973206e6f74206f60008201527f776e6572206e6f7220617070726f766564000000000000000000000000000000602082015250565b6000614927603183613957565b9150614932826148cb565b604082019050919050565b600060208201905081810360008301526149568161491a565b9050919050565b60008151905061496c81613e7d565b92915050565b60006020828403121561498857614987613887565b5b60006149968482850161495d565b91505092915050565b7f4e6f206578697374000000000000000000000000000000000000000000000000600082015250565b60006149d5600883613957565b91506149e08261499f565b602082019050919050565b60006020820190508181036000830152614a04816149c8565b9050919050565b6000614a1e614a1984613dcd565b613da3565b905082815260208101848484011115614a3a57614a39613dc8565b5b614a45848285613968565b509392505050565b600082601f830112614a6257614a61613dc3565b5b8151614a72848260208601614a0b565b91505092915050565b600081519050614a8a81613a11565b92915050565b60006101208284031215614aa757614aa6613d3e565b5b614ab2610120613da3565b9050600082015167ffffffffffffffff811115614ad257614ad1613dbe565b5b614ade84828501614a4d565b6000830152506020614af284828501614a7b565b6020830152506040614b0684828501614a7b565b6040830152506060614b1a84828501614a7b565b6060830152506080614b2e84828501614a7b565b60808301525060a0614b4284828501614a7b565b60a08301525060c0614b5684828501614a7b565b60c08301525060e0614b6a84828501614a7b565b60e083015250610100614b7f8482850161495d565b6101008301525092915050565b600060208284031215614ba257614ba1613887565b5b600082015167ffffffffffffffff811115614bc057614bbf61388c565b5b614bcc84828501614a90565b91505092915050565b6000819050919050565b6000819050919050565b6000614c04614bff614bfa84614bd5565b614bdf565b613a07565b9050919050565b614c1481614be9565b82525050565b6000602082019050614c2f6000830184614c0b565b92915050565b600060208284031215614c4b57614c4a613887565b5b6000614c5984828501614a7b565b91505092915050565b6000614c6d82613a07565b9150614c7883613a07565b9250817fffffffffffffffffffffffffffffffffffffffffffffffffffffffffffffffff0483118215151615614cb157614cb06147c1565b5b828202905092915050565b7f4e487b7100000000000000000000000000000000000000000000000000000000600052601260045260246000fd5b6000614cf682613a07565b9150614d0183613a07565b925082614d1157614d10614cbc565b5b828204905092915050565b6000614d2782613a07565b9150614d3283613a07565b9250827fffffffffffffffffffffffffffffffffffffffffffffffffffffffffffffffff03821115614d6757614d666147c1565b5b828201905092915050565b7f4e6f204578697374000000000000000000000000000000000000000000000000600082015250565b6000614da8600883613957565b9150614db382614d72565b602082019050919050565b60006020820190508181036000830152614dd781614d9b565b9050919050565b7f4552433732313a206f776e657220717565727920666f72206e6f6e657869737460008201527f656e7420746f6b656e0000000000000000000000000000000000000000000000602082015250565b6000614e3a602983613957565b9150614e4582614dde565b604082019050919050565b60006020820190508181036000830152614e6981614e2d565b9050919050565b7f6e6f204578697374000000000000000000000000000000000000000000000000600082015250565b6000614ea6600883613957565b9150614eb182614e70565b602082019050919050565b60006020820190508181036000830152614ed581614e99565b9050919050565b7f4552433732313a2062616c616e636520717565727920666f7220746865207a6560008201527f726f206164647265737300000000000000000000000000000000000000000000602082015250565b6000614f38602a83613957565b9150614f4382614edc565b604082019050919050565b60006020820190508181036000830152614f6781614f2b565b9050919050565b7f4e487b7100000000000000000000000000000000000000000000000000000000600052603260045260246000fd5b7f4552433732313a20617070726f766520746f2063616c6c657200000000000000600082015250565b6000614fd3601983613957565b9150614fde82614f9d565b602082019050919050565b6000602082019050818103600083015261500281614fc6565b9050919050565b7f4552433732314d657461646174613a2055524920717565727920666f72206e6f60008201527f6e6578697374656e7420746f6b656e0000000000000000000000000000000000602082015250565b6000615065602f83613957565b915061507082615009565b604082019050919050565b6000602082019050818103600083015261509481615058565b9050919050565b600081905092915050565b60006150b18261394c565b6150bb818561509b565b93506150cb818560208601613968565b80840191505092915050565b60006150e382856150a6565b91506150ef82846150a6565b91508190509392505050565b600061510e61510984614086565b613da3565b90508083825260208201905060208402830185811115615131576151306140b2565b5b835b8181101561515a57806151468882614a7b565b845260208401935050602081019050615133565b5050509392505050565b600082601f83011261517957615178613dc3565b5b81516151898482602086016150fb565b91505092915050565b6000602082840312156151a8576151a7613887565b5b600082015167ffffffffffffffff8111156151c6576151c561388c565b5b6151d284828501615164565b91505092915050565b7f416363657373436f6e74726f6c3a206163636f756e7420000000000000000000600082015250565b600061521160178361509b565b915061521c826151db565b601782019050919050565b7f206973206d697373696e6720726f6c6520000000000000000000000000000000600082015250565b600061525d60118361509b565b915061526882615227565b601182019050919050565b600061527e82615204565b915061528a82856150a6565b915061529582615250565b91506152a182846150a6565b91508190509392505050565b7f4552433732313a206f70657261746f7220717565727920666f72206e6f6e657860008201527f697374656e7420746f6b656e0000000000000000000000000000000000000000602082015250565b6000615309602c83613957565b9150615314826152ad565b604082019050919050565b60006020820190508181036000830152615338816152fc565b9050919050565b7f4552433732313a207472616e73666572206f6620746f6b656e2074686174206960008201527f73206e6f74206f776e0000000000000000000000000000000000000000000000602082015250565b600061539b602983613957565b91506153a68261533f565b604082019050919050565b600060208201905081810360008301526153ca8161538e565b9050919050565b7f4552433732313a207472616e7366657220746f20746865207a65726f2061646460008201527f7265737300000000000000000000000000000000000000000000000000000000602082015250565b600061542d602483613957565b9150615438826153d1565b604082019050919050565b6000602082019050818103600083015261545c81615420565b9050919050565b600061546e82613a07565b915061547983613a07565b92508282101561548c5761548b6147c1565b5b828203905092915050565b7f4552433732313a206d696e7420746f20746865207a65726f2061646472657373600082015250565b60006154cd602083613957565b91506154d882615497565b602082019050919050565b600060208201905081810360008301526154fc816154c0565b9050919050565b7f4552433732313a20746f6b656e20616c7265616479206d696e74656400000000600082015250565b6000615539601c83613957565b915061554482615503565b602082019050919050565b600060208201905081810360008301526155688161552c565b9050919050565b7f4552433732313a207472616e7366657220746f206e6f6e20455243373231526560008201527f63656976657220696d706c656d656e7465720000000000000000000000000000602082015250565b60006155cb603283613957565b91506155d68261556f565b604082019050919050565b600060208201905081810360008301526155fa816155be565b9050919050565b600061560c82613a07565b915061561783613a07565b92508261562757615626614cbc565b5b828206905092915050565b600061563d82613a07565b91506000821415615651576156506147c1565b5b600182039050919050565b7f537472696e67733a20686578206c656e67746820696e73756666696369656e74600082015250565b6000615692602083613957565b915061569d8261565c565b602082019050919050565b600060208201905081810360008301526156c181615685565b9050919050565b7f6e6f207472616e73666572000000000000000000000000000000000000000000600082015250565b60006156fe600b83613957565b9150615709826156c8565b602082019050919050565b6000602082019050818103600083015261572d816156f1565b9050919050565b600081519050919050565b600082825260208201905092915050565b600061575b82615734565b615765818561573f565b9350615775818560208601613968565b61577e8161399b565b840191505092915050565b600060808201905061579e6000830187613a9c565b6157ab6020830186613a9c565b6157b86040830185613b32565b81810360608301526157ca8184615750565b905095945050505050565b6000815190506157e4816138bd565b92915050565b600060208284031215615800576157ff613887565b5b600061580e848285016157d5565b9150509291505056fea26469706673582212207cafdb7794c716295b9dc99fcaeb0d893e1df0199ea453ae7c770e946b298a6764736f6c634300080a0033",
  "immutableReferences": {},
  "source": "// SPDX-License-Identifier: UNLICENSED\r\npragma solidity >=0.4.22 <0.9.0;\r\n\r\n/**\r\n * @title SampleBEP20Token\r\n * @dev Very simple BEP20 Token example, where all tokens are pre-assigned to the creator.\r\n * Note they can later distribute these tokens as they wish using `transfer` and other\r\n * `BEP20` functions.\r\n * USE IT ONLY FOR LEARNING PURPOSES. SHOULD BE MODIFIED FOR PRODUCTION\r\n */\r\n \r\n\r\nimport \"../../node_modules/@openzeppelin/contracts/token/ERC721/ERC721.sol\";\r\nimport \"./../utils/Admin.sol\";\r\nimport \"./../utils/Utils.sol\";\r\nimport \"./../utils/ItemList.sol\";\r\n\r\nimport \"./../Features/BlackMarket.sol\";\r\nimport \"./../Features/HospitalPrison.sol\";\r\n\r\nstruct _GameItem\r\n{\r\n    string name;\r\n    uint256 rarity;\r\n    uint256 img;\r\n    uint256 powerBonus; //stamina, fixo, usa  \r\n    uint256 strBonus;\r\n    uint256 intBonus;\r\n    uint256 chaBonus;\r\n    uint256 resBonus;\r\n    address owner;\r\n    uint256 itemId;\r\n    uint256 tokenId;\r\n    bool equiped;\r\n    uint256 equipedTime;\r\n}\r\n\r\ncontract GameItem is ERC721, Admin {\r\n    address private _contractowner;\r\n    address private _secondowner;\r\n    uint256 private lastSeed = 0;\r\n\r\n    Utils private utils;\r\n    ItemList private itemList;\r\n\r\n    uint256 private nextId = 1;\r\n\r\n    bool private Initialized = false;\r\n\r\n    mapping( uint256 => _GameItem) private _tokenStorage;\r\n\r\n    constructor(string memory name, string memory symbol, Utils _ut, ItemList _itemList) Admin() ERC721(name, symbol)\r\n    {\r\n        _contractowner = msg.sender;\r\n        _secondowner = address(0xbf752Eb4b851B241A36e22767b304ef28242198A);\r\n        utils = _ut;\r\n\r\n        itemList = _itemList;\r\n\r\n        _setRoleAdmin(DEFAULT_ADMIN_ROLE, DEFAULT_ADMIN_ROLE);\r\n        _setRoleAdmin(DEFAULT_CORE_ROLE, DEFAULT_ADMIN_ROLE);\r\n        _setupRole(DEFAULT_ADMIN_ROLE, msg.sender);\r\n        _setupRole(DEFAULT_ADMIN_ROLE, _secondowner);\r\n    }\r\n\r\n    function changeAdmin(address newAdmin) public onlyRole(DEFAULT_ADMIN_ROLE)\r\n    {\r\n        _contractowner = newAdmin;\r\n    }\r\n\r\n    function Initialize(address _characterUtils, address _Core, address _CoreIn, address _Robbery, address _PvP, address _Equipment, address _HospitalPrice, address _BlackMarket) public\r\n    {\r\n        if(Initialized == false)\r\n        {\r\n            _setupRole(DEFAULT_CORE_ROLE, _characterUtils);\r\n            _setupRole(DEFAULT_CORE_ROLE, _Core);\r\n            _setupRole(DEFAULT_CORE_ROLE, _CoreIn);\r\n            _setupRole(DEFAULT_CORE_ROLE, _Robbery);\r\n            _setupRole(DEFAULT_CORE_ROLE, _PvP);\r\n            _setupRole(DEFAULT_CORE_ROLE, _Equipment);\r\n            _setupRole(DEFAULT_CORE_ROLE, _HospitalPrice);\r\n            _setupRole(DEFAULT_CORE_ROLE, _BlackMarket);\r\n            _setupRole(DEFAULT_ADMIN_ROLE, msg.sender);\r\n            Initialized = true;\r\n        }\r\n    }\r\n\r\n\r\n    function getGameItem(uint256 tokenId) public view returns (_GameItem memory)\r\n    {\r\n        require(_exists(tokenId), \"No Exist\");\r\n        return _tokenStorage[tokenId];\r\n    }\r\n\r\n    function UpdateGameItem(uint256 tokenId, _GameItem memory _item) onlyCore() public\r\n    {\r\n        require(_exists(tokenId), \"no Exist\");\r\n        _tokenStorage[tokenId] = _item;\r\n    }\r\n\r\n    function getItemListData(uint256 tokenId) public view returns (_ItemList memory)\r\n    {\r\n        require(_exists(tokenId), \"No Exist\");\r\n        uint256 itemId = _tokenStorage[tokenId].itemId;\r\n        require(itemList.checkExistItem(itemId), \"No exist\");\r\n        return itemList.getItemListData(itemId);\r\n    }\r\n\r\n    function getContractOwner() public view returns (address)\r\n    {\r\n        return _contractowner;\r\n    }\r\n\r\n    function getIndexSlot() public view returns (uint256)\r\n    {\r\n        uint256 result = nextId;\r\n        for(uint256 x = 1; x <= nextId; x++)\r\n        {\r\n            if(!_exists(x))\r\n            {\r\n                result = x;\r\n                return result;\r\n            }\r\n        }\r\n        return result;\r\n    }\r\n\r\n    function getTotalSupply() public view returns (uint256)\r\n    {\r\n        return nextId;\r\n    }\r\n    function exists (uint256 tokenId) public view returns(bool) {\r\n        return _exists(tokenId);\r\n    }\r\n\r\n    function checkItemIsEquiped(uint256 tokenId) public view returns (bool)\r\n    {\r\n        return _tokenStorage[tokenId].equiped;\r\n    }\r\n    \r\n    function checkItemListCanMint(uint256 itemId) public view returns (bool)\r\n    {\r\n        require(itemList.checkExistItem(itemId), \"No exist\");\r\n        return itemList.CheckMint(itemId);\r\n    }\r\n\r\n    function checkWeaponList(uint256 itemId) public view returns (bool)\r\n    {\r\n        require(itemList.checkExistItem(itemId), \"No exist\");\r\n        uint256[] memory weaponList = itemList.getWeaponList();\r\n        bool result = false;\r\n        for(uint256 x = 0; x < weaponList.length; x++)\r\n        {\r\n            if(weaponList[x] == itemId)\r\n            {\r\n                result = true;\r\n            }\r\n        }\r\n        return result;\r\n    }\r\n\r\n    function getItemPrice(uint256 itemId) public view returns (uint256)\r\n    {\r\n        require(itemList.checkExistItem(itemId), \"No exist\");\r\n        _ItemList memory item = itemList.getItemListData(itemId);\r\n        return item.price;\r\n    }\r\n\r\n    function mint(address addr, uint256 itemId) onlyCore() public {\r\n        require(itemList.checkExistItem(itemId), \"No exist\");\r\n        _ItemList memory item = itemList.getItemListData(itemId);\r\n\r\n        uint256 basePower = item.powerBonus;\r\n        uint256 _rarity = 1;\r\n        uint256 _str = item.strBonus;\r\n        uint256 _int = item.intBonus;\r\n        uint256 _cha = item.chaBonus;\r\n        uint256 _res = item.resBonus;\r\n\r\n        if(checkWeaponList(itemId))\r\n        {\r\n            uint256 _randRarity = utils.rand(100);\r\n            if(_randRarity <= 55) _rarity = 1;\r\n            else if(_randRarity <= 80) _rarity = 2;\r\n            else if(_randRarity <= 95) _rarity = 3;\r\n            else _rarity = 4;\r\n\r\n            uint256 resultStats = 1;\r\n            uint256 _randStats = utils.rand(100);\r\n            if(_randStats <= 25) resultStats = 1;\r\n            else if(_randStats <= 50) resultStats = 2;\r\n            else if(_randStats <= 75) resultStats = 3;\r\n            else resultStats = 4;\r\n\r\n            if(_rarity == 2)\r\n            {\r\n                basePower += ((basePower * 20) / 100);\r\n                if(resultStats == 1) _str++;\r\n                else if(resultStats == 2) _int++;\r\n                else if(resultStats == 3) _cha++;\r\n                else _res++;\r\n            }\r\n            else if(_rarity == 3)\r\n            {\r\n                basePower += ((basePower * 45) / 100);\r\n                if(resultStats == 1)\r\n                {\r\n                    _str++;\r\n                    _str++;\r\n                    _int++;\r\n                    _cha++;\r\n                }\r\n                else if(resultStats == 2)\r\n                {\r\n                    _int++;\r\n                    _int++;\r\n                    _cha++;\r\n                    _res++;\r\n                } \r\n                else if(resultStats == 3)\r\n                {\r\n                    _cha++;\r\n                    _cha++;\r\n                    _res++;\r\n                    _str++;\r\n                } \r\n                else\r\n                {\r\n                    _res++;\r\n                    _res++;\r\n                    _str++;\r\n                    _int++;\r\n                } \r\n            }\r\n            else if(_rarity == 4)\r\n            {\r\n                basePower += ((basePower * 75) / 100);\r\n                _str += 3;\r\n                _int += 3;\r\n                _cha += 3;\r\n                _res += 3;\r\n                if(resultStats == 1) _str++;\r\n                else if(resultStats == 2) _int++;\r\n                else if(resultStats == 3) _cha++;\r\n                else _res++;\r\n            }\r\n        }\r\n\r\n        uint256 slot = getIndexSlot();\r\n        _tokenStorage[slot] = _GameItem(item.name, _rarity, item.img, basePower, _str, _int, _cha, _res, addr, itemId, slot, false, 0); \r\n        _mint(addr, slot);\r\n        if(slot == nextId) nextId++;\r\n    }\r\n\r\n    function transferFromAll(\r\n        address from,\r\n        address to,\r\n        uint256[] memory tokenIds\r\n    ) public onlyRole(DEFAULT_CORE_ROLE) {\r\n        if(tokenIds.length <= 0) return;\r\n        for(uint256 x = 0; x < tokenIds.length; x++)\r\n        {\r\n            transferFrom(from, to, tokenIds[x]);\r\n        }\r\n    }\r\n    \r\n    function burnAllItemsInSeason() onlyCore() public {\r\n        for(uint256 x = 1; x < nextId; x++)\r\n        {\r\n            if(_exists(x))\r\n            {\r\n                _burn(x);\r\n            }\r\n        }\r\n    }\r\n    \r\n    function burn(uint256 tokenId) onlyCore() public {\r\n        _burn(tokenId);\r\n    }\r\n\r\n    function burnItems(uint256[] memory tokenIds) onlyCore() public {\r\n        for(uint256 x = 0; x < tokenIds.length; x++)\r\n        {\r\n            _burn(tokenIds[x]);\r\n        }\r\n    }\r\n\r\n    function _beforeTokenTransfer( address from, address to, uint256 tokenId) internal override {\r\n        _GameItem storage _item = _tokenStorage[tokenId];\r\n        require(_item.equiped == false, \"no transfer\");\r\n        _item.owner = to;\r\n        //require(Char.lastMeal + Char.endurance > block.timestamp);\r\n    }\r\n}",
  "sourcePath": "D:\\CrimeCity\\contracts\\tokens\\GameItem.sol",
  "compiler": {
    "name": "solc",
    "version": "0.8.10+commit.fc410830.Emscripten.clang"
  },
  "schemaVersion": "3.4.3",
  "updatedAt": "2022-01-22T20:23:21.366Z",
  "networkType": "ethereum",
  "devdoc": {
    "kind": "dev",
    "methods": {
      "approve(address,uint256)": {
        "details": "See {IERC721-approve}."
      },
      "balanceOf(address)": {
        "details": "See {IERC721-balanceOf}."
      },
      "getApproved(uint256)": {
        "details": "See {IERC721-getApproved}."
      },
      "getRoleAdmin(uint256)": {
        "details": "Returns the admin role that controls `role`. See {grantRole} and {revokeRole}. To change a role's admin, use {_setRoleAdmin}."
      },
      "grantRole(uint256,address)": {
        "details": "Grants `role` to `account`. If `account` had not been already granted `role`, emits a {RoleGranted} event. Requirements: - the caller must have ``role``'s admin role."
      },
      "hasRole(uint256,address)": {
        "details": "Returns `true` if `account` has been granted `role`."
      },
      "isApprovedForAll(address,address)": {
        "details": "See {IERC721-isApprovedForAll}."
      },
      "name()": {
        "details": "See {IERC721Metadata-name}."
      },
      "ownerOf(uint256)": {
        "details": "See {IERC721-ownerOf}."
      },
      "renounceRole(uint256,address)": {
        "details": "Revokes `role` from the calling account. Roles are often managed via {grantRole} and {revokeRole}: this function's purpose is to provide a mechanism for accounts to lose their privileges if they are compromised (such as when a trusted device is misplaced). If the calling account had been granted `role`, emits a {RoleRevoked} event. Requirements: - the caller must be `account`."
      },
      "revokeRole(uint256,address)": {
        "details": "Revokes `role` from `account`. If `account` had been granted `role`, emits a {RoleRevoked} event. Requirements: - the caller must have ``role``'s admin role."
      },
      "safeTransferFrom(address,address,uint256)": {
        "details": "See {IERC721-safeTransferFrom}."
      },
      "safeTransferFrom(address,address,uint256,bytes)": {
        "details": "See {IERC721-safeTransferFrom}."
      },
      "setApprovalForAll(address,bool)": {
        "details": "See {IERC721-setApprovalForAll}."
      },
      "supportsInterface(bytes4)": {
        "details": "See {IERC165-supportsInterface}."
      },
      "symbol()": {
        "details": "See {IERC721Metadata-symbol}."
      },
      "tokenURI(uint256)": {
        "details": "See {IERC721Metadata-tokenURI}."
      },
      "transferFrom(address,address,uint256)": {
        "details": "See {IERC721-transferFrom}."
      }
    },
    "version": 1
  },
  "userdoc": {
    "kind": "user",
    "methods": {},
    "version": 1
  }
}