{
  "contractName": "HospitalPrison",
  "abi": [
    {
      "inputs": [
        {
          "internalType": "contract Utils",
          "name": "_util",
          "type": "address"
        },
        {
          "internalType": "contract Character",
          "name": "_character",
          "type": "address"
        },
        {
          "internalType": "contract GameItem",
          "name": "_gameItem",
          "type": "address"
        },
        {
          "internalType": "contract CoreInGame",
          "name": "_game",
          "type": "address"
        }
      ],
      "stateMutability": "nonpayable",
      "type": "constructor"
    },
    {
      "anonymous": false,
      "inputs": [
        {
          "indexed": true,
          "internalType": "uint256",
          "name": "role",
          "type": "uint256"
        },
        {
          "indexed": true,
          "internalType": "uint256",
          "name": "previousAdminRole",
          "type": "uint256"
        },
        {
          "indexed": true,
          "internalType": "uint256",
          "name": "newAdminRole",
          "type": "uint256"
        }
      ],
      "name": "RoleAdminChanged",
      "type": "event"
    },
    {
      "anonymous": false,
      "inputs": [
        {
          "indexed": true,
          "internalType": "uint256",
          "name": "role",
          "type": "uint256"
        },
        {
          "indexed": true,
          "internalType": "address",
          "name": "account",
          "type": "address"
        },
        {
          "indexed": true,
          "internalType": "address",
          "name": "sender",
          "type": "address"
        }
      ],
      "name": "RoleGranted",
      "type": "event"
    },
    {
      "anonymous": false,
      "inputs": [
        {
          "indexed": true,
          "internalType": "uint256",
          "name": "role",
          "type": "uint256"
        },
        {
          "indexed": true,
          "internalType": "address",
          "name": "account",
          "type": "address"
        },
        {
          "indexed": true,
          "internalType": "address",
          "name": "sender",
          "type": "address"
        }
      ],
      "name": "RoleRevoked",
      "type": "event"
    },
    {
      "inputs": [],
      "name": "DEFAULT_ADMIN_ROLE",
      "outputs": [
        {
          "internalType": "uint256",
          "name": "",
          "type": "uint256"
        }
      ],
      "stateMutability": "view",
      "type": "function",
      "constant": true
    },
    {
      "inputs": [],
      "name": "DEFAULT_CORE_ROLE",
      "outputs": [
        {
          "internalType": "uint256",
          "name": "",
          "type": "uint256"
        }
      ],
      "stateMutability": "view",
      "type": "function",
      "constant": true
    },
    {
      "inputs": [
        {
          "internalType": "uint256",
          "name": "role",
          "type": "uint256"
        }
      ],
      "name": "getRoleAdmin",
      "outputs": [
        {
          "internalType": "uint256",
          "name": "",
          "type": "uint256"
        }
      ],
      "stateMutability": "view",
      "type": "function",
      "constant": true
    },
    {
      "inputs": [
        {
          "internalType": "uint256",
          "name": "role",
          "type": "uint256"
        },
        {
          "internalType": "address",
          "name": "account",
          "type": "address"
        }
      ],
      "name": "grantRole",
      "outputs": [],
      "stateMutability": "nonpayable",
      "type": "function"
    },
    {
      "inputs": [
        {
          "internalType": "uint256",
          "name": "role",
          "type": "uint256"
        },
        {
          "internalType": "address",
          "name": "account",
          "type": "address"
        }
      ],
      "name": "hasRole",
      "outputs": [
        {
          "internalType": "bool",
          "name": "",
          "type": "bool"
        }
      ],
      "stateMutability": "view",
      "type": "function",
      "constant": true
    },
    {
      "inputs": [
        {
          "internalType": "uint256",
          "name": "role",
          "type": "uint256"
        },
        {
          "internalType": "address",
          "name": "account",
          "type": "address"
        }
      ],
      "name": "renounceRole",
      "outputs": [],
      "stateMutability": "nonpayable",
      "type": "function"
    },
    {
      "inputs": [
        {
          "internalType": "uint256",
          "name": "role",
          "type": "uint256"
        },
        {
          "internalType": "address",
          "name": "account",
          "type": "address"
        }
      ],
      "name": "revokeRole",
      "outputs": [],
      "stateMutability": "nonpayable",
      "type": "function"
    },
    {
      "inputs": [
        {
          "internalType": "address",
          "name": "",
          "type": "address"
        },
        {
          "internalType": "address",
          "name": "",
          "type": "address"
        },
        {
          "internalType": "uint256",
          "name": "",
          "type": "uint256"
        },
        {
          "internalType": "bytes",
          "name": "",
          "type": "bytes"
        }
      ],
      "name": "onERC721Received",
      "outputs": [
        {
          "internalType": "bytes4",
          "name": "",
          "type": "bytes4"
        }
      ],
      "stateMutability": "nonpayable",
      "type": "function"
    },
    {
      "inputs": [
        {
          "internalType": "bytes4",
          "name": "interfaceId",
          "type": "bytes4"
        }
      ],
      "name": "supportsInterface",
      "outputs": [
        {
          "internalType": "bool",
          "name": "",
          "type": "bool"
        }
      ],
      "stateMutability": "pure",
      "type": "function",
      "constant": true
    },
    {
      "inputs": [
        {
          "internalType": "address",
          "name": "newAdmin",
          "type": "address"
        }
      ],
      "name": "changeAdmin",
      "outputs": [],
      "stateMutability": "nonpayable",
      "type": "function"
    },
    {
      "inputs": [],
      "name": "bnbWithdraw",
      "outputs": [],
      "stateMutability": "nonpayable",
      "type": "function"
    },
    {
      "inputs": [
        {
          "internalType": "uint256",
          "name": "tokenId",
          "type": "uint256"
        }
      ],
      "name": "getNurseCountDown",
      "outputs": [
        {
          "internalType": "uint256",
          "name": "",
          "type": "uint256"
        }
      ],
      "stateMutability": "view",
      "type": "function",
      "constant": true
    },
    {
      "inputs": [
        {
          "internalType": "uint256",
          "name": "tokenId",
          "type": "uint256"
        }
      ],
      "name": "getPrisonCountDown",
      "outputs": [
        {
          "internalType": "uint256",
          "name": "",
          "type": "uint256"
        }
      ],
      "stateMutability": "view",
      "type": "function",
      "constant": true
    },
    {
      "inputs": [
        {
          "internalType": "uint256",
          "name": "tokenId",
          "type": "uint256"
        }
      ],
      "name": "treatAddict",
      "outputs": [],
      "stateMutability": "nonpayable",
      "type": "function"
    },
    {
      "inputs": [
        {
          "internalType": "uint256",
          "name": "tokenId",
          "type": "uint256"
        }
      ],
      "name": "reviveHospital",
      "outputs": [],
      "stateMutability": "nonpayable",
      "type": "function"
    },
    {
      "inputs": [
        {
          "internalType": "uint256",
          "name": "tokenId",
          "type": "uint256"
        }
      ],
      "name": "withdrawPrison",
      "outputs": [],
      "stateMutability": "nonpayable",
      "type": "function"
    },
    {
      "inputs": [
        {
          "internalType": "uint256",
          "name": "tokenId",
          "type": "uint256"
        }
      ],
      "name": "getColetePrice",
      "outputs": [
        {
          "internalType": "uint256",
          "name": "",
          "type": "uint256"
        }
      ],
      "stateMutability": "view",
      "type": "function",
      "constant": true
    },
    {
      "inputs": [
        {
          "internalType": "uint256",
          "name": "charId",
          "type": "uint256"
        },
        {
          "internalType": "uint256",
          "name": "itemId",
          "type": "uint256"
        },
        {
          "internalType": "uint256",
          "name": "quantity",
          "type": "uint256"
        }
      ],
      "name": "useItem",
      "outputs": [],
      "stateMutability": "nonpayable",
      "type": "function"
    },
    {
      "inputs": [
        {
          "internalType": "uint256",
          "name": "tokenId",
          "type": "uint256"
        }
      ],
      "name": "activeBulletProof",
      "outputs": [],
      "stateMutability": "nonpayable",
      "type": "function"
    }
  ],
  "bytecode": "0x60806040523480156200001157600080fd5b50604051620049423803806200494283398181016040528101906200003791906200059a565b33600160006101000a81548173ffffffffffffffffffffffffffffffffffffffff021916908373ffffffffffffffffffffffffffffffffffffffff16021790555073bf752eb4b851b241a36e22767b304ef28242198a600260006101000a81548173ffffffffffffffffffffffffffffffffffffffff021916908373ffffffffffffffffffffffffffffffffffffffff160217905550600060038190555082600560006101000a81548173ffffffffffffffffffffffffffffffffffffffff021916908373ffffffffffffffffffffffffffffffffffffffff16021790555081600660006101000a81548173ffffffffffffffffffffffffffffffffffffffff021916908373ffffffffffffffffffffffffffffffffffffffff16021790555083600460006101000a81548173ffffffffffffffffffffffffffffffffffffffff021916908373ffffffffffffffffffffffffffffffffffffffff16021790555080600760006101000a81548173ffffffffffffffffffffffffffffffffffffffff021916908373ffffffffffffffffffffffffffffffffffffffff160217905550620001ec601e806200025260201b60201c565b62000200601f601e6200025260201b60201c565b62000213601e33620002b560201b60201c565b62000248601e600260009054906101000a900473ffffffffffffffffffffffffffffffffffffffff16620002b560201b60201c565b505050506200060c565b60006200026583620002cb60201b60201c565b905081600080858152602001908152602001600020600101819055508181847f6620dedee755c284a7e221a3279487b734830c1f76c026c797b4d019c6b4b2f460405160405180910390a4505050565b620002c78282620002ea60201b60201c565b5050565b6000806000838152602001908152602001600020600101549050919050565b620002fc8282620003db60201b60201c565b620003d757600160008084815260200190815260200160002060000160008373ffffffffffffffffffffffffffffffffffffffff1673ffffffffffffffffffffffffffffffffffffffff16815260200190815260200160002060006101000a81548160ff0219169083151502179055506200037c6200044560201b60201c565b73ffffffffffffffffffffffffffffffffffffffff168173ffffffffffffffffffffffffffffffffffffffff16837f1ec1667fba5e43c5c76fff54e76d7a4a20a4fecf7b49724ad8d52a3f726e9dbd60405160405180910390a45b5050565b600080600084815260200190815260200160002060000160008373ffffffffffffffffffffffffffffffffffffffff1673ffffffffffffffffffffffffffffffffffffffff16815260200190815260200160002060009054906101000a900460ff16905092915050565b600033905090565b600080fd5b600073ffffffffffffffffffffffffffffffffffffffff82169050919050565b60006200047f8262000452565b9050919050565b6000620004938262000472565b9050919050565b620004a58162000486565b8114620004b157600080fd5b50565b600081519050620004c5816200049a565b92915050565b6000620004d88262000472565b9050919050565b620004ea81620004cb565b8114620004f657600080fd5b50565b6000815190506200050a81620004df565b92915050565b60006200051d8262000472565b9050919050565b6200052f8162000510565b81146200053b57600080fd5b50565b6000815190506200054f8162000524565b92915050565b6000620005628262000472565b9050919050565b620005748162000555565b81146200058057600080fd5b50565b600081519050620005948162000569565b92915050565b60008060008060808587031215620005b757620005b66200044d565b5b6000620005c787828801620004b4565b9450506020620005da87828801620004f9565b9350506040620005ed878288016200053e565b9250506060620006008782880162000583565b91505092959194509250565b614326806200061c6000396000f3fe608060405234801561001057600080fd5b50600436106101215760003560e01c80638f283970116100ad578063d739f0d611610071578063d739f0d6146102f0578063ec2606c014610320578063edd1956414610350578063fb1a0b9a1461036c578063fb2990ad1461038857610121565b80638f2839701461024e578063965252f91461026a578063a02cd8a11461029a578063a217fddf146102b6578063c0db8698146102d457610121565b80632308d236116100f45780632308d236146101be578063255a8b86146101da57806353319101146101f65780636f45e4e51461022657806375bbeee71461024457610121565b806301ffc9a714610126578063150b7a02146101565780631d0b19e7146101865780631fe5f589146101a2575b600080fd5b610140600480360381019061013b9190612b4d565b6103b8565b60405161014d9190612b95565b60405180910390f35b610170600480360381019061016b9190612d8a565b610422565b60405161017d9190612e1c565b60405180910390f35b6101a0600480360381019061019b9190612e37565b610436565b005b6101bc60048036038101906101b79190612e37565b61045f565b005b6101d860048036038101906101d39190612e37565b610488565b005b6101f460048036038101906101ef9190612e77565b61050b565b005b610210600480360381019061020b9190612eca565b610c31565b60405161021d9190612f06565b60405180910390f35b61022e610ece565b60405161023b9190612f06565b60405180910390f35b61024c610ed3565b005b61026860048036038101906102639190612f21565b610f7d565b005b610284600480360381019061027f9190612eca565b610fd5565b6040516102919190612f06565b60405180910390f35b6102b460048036038101906102af9190612eca565b61112f565b005b6102be61154e565b6040516102cb9190612f06565b60405180910390f35b6102ee60048036038101906102e99190612eca565b611553565b005b61030a60048036038101906103059190612eca565b611982565b6040516103179190612f06565b60405180910390f35b61033a60048036038101906103359190612e37565b611c1f565b6040516103479190612b95565b60405180910390f35b61036a60048036038101906103659190612eca565b611c89565b005b61038660048036038101906103819190612eca565b612189565b005b6103a2600480360381019061039d9190612eca565b612623565b6040516103af9190612f06565b60405180910390f35b60007f150b7a02000000000000000000000000000000000000000000000000000000007bffffffffffffffffffffffffffffffffffffffffffffffffffffffff1916827bffffffffffffffffffffffffffffffffffffffffffffffffffffffff1916149050919050565b600063150b7a0260e01b9050949350505050565b61043f82612623565b6104508161044b612642565b61264a565b61045a83836126e4565b505050565b61046882612623565b61047981610474612642565b61264a565b61048383836127c5565b505050565b610490612642565b73ffffffffffffffffffffffffffffffffffffffff168173ffffffffffffffffffffffffffffffffffffffff16146104fd576040517f08c379a00000000000000000000000000000000000000000000000000000000081526004016104f490612fd1565b60405180910390fd5b61050782826126e4565b5050565b600760009054906101000a900473ffffffffffffffffffffffffffffffffffffffff1673ffffffffffffffffffffffffffffffffffffffff1663804b54ab33856040518363ffffffff1660e01b8152600401610568929190613000565b602060405180830381865afa158015610585573d6000803e3d6000fd5b505050506040513d601f19601f820116820180604052508101906105a99190613055565b6105e8576040517f08c379a00000000000000000000000000000000000000000000000000000000081526004016105df906130ce565b60405180910390fd5b3373ffffffffffffffffffffffffffffffffffffffff16600560009054906101000a900473ffffffffffffffffffffffffffffffffffffffff1673ffffffffffffffffffffffffffffffffffffffff16636352211e856040518263ffffffff1660e01b815260040161065a9190612f06565b602060405180830381865afa158015610677573d6000803e3d6000fd5b505050506040513d601f19601f8201168201806040525081019061069b9190613103565b73ffffffffffffffffffffffffffffffffffffffff16146106f1576040517f08c379a00000000000000000000000000000000000000000000000000000000081526004016106e89061317c565b60405180910390fd5b6000600560009054906101000a900473ffffffffffffffffffffffffffffffffffffffff1673ffffffffffffffffffffffffffffffffffffffff1663dabb0531856040518263ffffffff1660e01b815260040161074e9190612f06565b600060405180830381865afa15801561076b573d6000803e3d6000fd5b505050506040513d6000823e3d601f19601f820116820180604052508101906107949190613585565b9050600080600a85101580156107aa5750600e85105b6107e9576040517f08c379a00000000000000000000000000000000000000000000000000000000081526004016107e09061361a565b60405180910390fd5b6000600760009054906101000a900473ffffffffffffffffffffffffffffffffffffffff1673ffffffffffffffffffffffffffffffffffffffff1663a65e83c3336040518263ffffffff1660e01b8152600401610846919061363a565b61016060405180830381865afa158015610864573d6000803e3d6000fd5b505050506040513d601f19601f820116820180604052508101906108889190613761565b9050600a86141561090057848160c0015110156108da576040517f08c379a00000000000000000000000000000000000000000000000000000000081526004016108d1906137db565b60405180910390fd5b60329250600a9150848160c0018181516108f4919061382a565b91508181525050610a5c565b600b86141561097657848160e001511015610950576040517f08c379a0000000000000000000000000000000000000000000000000000000008152600401610947906137db565b60405180910390fd5b60649250600a9150848160e00181815161096a919061382a565b91508181525050610a5b565b600c8614156109ee578481610100015110156109c7576040517f08c379a00000000000000000000000000000000000000000000000000000000081526004016109be906137db565b60405180910390fd5b60c89250600f91508481610100018181516109e2919061382a565b91508181525050610a5a565b848161012001511015610a36576040517f08c379a0000000000000000000000000000000000000000000000000000000008152600401610a2d906137db565b60405180910390fd5b6101f4925060149150848161012001818151610a52919061382a565b915081815250505b5b5b60005b85811015610b095784610100015184866101200151610a7e919061385e565b1115610a995784610100015185610120018181525050610ab4565b838561012001818151610aac919061385e565b915081815250505b6064838660800151610ac6919061385e565b1115610adc576064856080018181525050610af6565b8285608001818151610aee919061385e565b915081815250505b8080610b01906138b4565b915050610a5f565b50600760009054906101000a900473ffffffffffffffffffffffffffffffffffffffff1673ffffffffffffffffffffffffffffffffffffffff1663a28fe11333836040518363ffffffff1660e01b8152600401610b679291906139ed565b600060405180830381600087803b158015610b8157600080fd5b505af1158015610b95573d6000803e3d6000fd5b50505050600560009054906101000a900473ffffffffffffffffffffffffffffffffffffffff1673ffffffffffffffffffffffffffffffffffffffff16634c2ac39988866040518363ffffffff1660e01b8152600401610bf6929190613d23565b600060405180830381600087803b158015610c1057600080fd5b505af1158015610c24573d6000803e3d6000fd5b5050505050505050505050565b6000600560009054906101000a900473ffffffffffffffffffffffffffffffffffffffff1673ffffffffffffffffffffffffffffffffffffffff16634f558e79836040518263ffffffff1660e01b8152600401610c8e9190612f06565b602060405180830381865afa158015610cab573d6000803e3d6000fd5b505050506040513d601f19601f82011682018060405250810190610ccf9190613055565b610d0e576040517f08c379a0000000000000000000000000000000000000000000000000000000008152600401610d0590613d9f565b60405180910390fd5b6000600560009054906101000a900473ffffffffffffffffffffffffffffffffffffffff1673ffffffffffffffffffffffffffffffffffffffff1663dabb0531846040518263ffffffff1660e01b8152600401610d6b9190612f06565b600060405180830381865afa158015610d88573d6000803e3d6000fd5b505050506040513d6000823e3d601f19601f82011682018060405250810190610db19190613585565b9050600760009054906101000a900473ffffffffffffffffffffffffffffffffffffffff1673ffffffffffffffffffffffffffffffffffffffff1663f7a6ab8e6040518163ffffffff1660e01b8152600401602060405180830381865afa158015610e20573d6000803e3d6000fd5b505050506040513d601f19601f82011682018060405250810190610e449190613dbf565b81610360015114610e8a576040517f08c379a0000000000000000000000000000000000000000000000000000000008152600401610e8190613e38565b60405180910390fd5b6000428261024001511115610ec457600042836102400151610eac919061382a565b90506201518081610ebd9190613e87565b9050809150505b8092505050919050565b601f81565b601e610ee681610ee1612642565b61264a565b6000339050600060035411610f30576040517f08c379a0000000000000000000000000000000000000000000000000000000008152600401610f2790613f04565b60405180910390fd5b8073ffffffffffffffffffffffffffffffffffffffff166108fc6003549081150290604051600060405180830381858888f19350505050158015610f78573d6000803e3d6000fd5b505050565b601e610f9081610f8b612642565b61264a565b81600160006101000a81548173ffffffffffffffffffffffffffffffffffffffff021916908373ffffffffffffffffffffffffffffffffffffffff1602179055505050565b600080600560009054906101000a900473ffffffffffffffffffffffffffffffffffffffff1673ffffffffffffffffffffffffffffffffffffffff1663dabb0531846040518263ffffffff1660e01b81526004016110339190612f06565b600060405180830381865afa158015611050573d6000803e3d6000fd5b505050506040513d6000823e3d601f19601f820116820180604052508101906110799190613585565b90508060c001516028600460009054906101000a900473ffffffffffffffffffffffffffffffffffffffff1673ffffffffffffffffffffffffffffffffffffffff1663a7f93ebd6040518163ffffffff1660e01b8152600401602060405180830381865afa1580156110ef573d6000803e3d6000fd5b505050506040513d601f19601f820116820180604052508101906111139190613dbf565b61111d9190613e87565b6111279190613f24565b915050919050565b600760009054906101000a900473ffffffffffffffffffffffffffffffffffffffff1673ffffffffffffffffffffffffffffffffffffffff1663804b54ab33836040518363ffffffff1660e01b815260040161118c929190613000565b602060405180830381865afa1580156111a9573d6000803e3d6000fd5b505050506040513d601f19601f820116820180604052508101906111cd9190613055565b61120c576040517f08c379a0000000000000000000000000000000000000000000000000000000008152600401611203906130ce565b60405180910390fd5b6000600560009054906101000a900473ffffffffffffffffffffffffffffffffffffffff1673ffffffffffffffffffffffffffffffffffffffff1663dabb0531836040518263ffffffff1660e01b81526004016112699190612f06565b600060405180830381865afa158015611286573d6000803e3d6000fd5b505050506040513d6000823e3d601f19601f820116820180604052508101906112af9190613585565b90506000816102200151116112f9576040517f08c379a00000000000000000000000000000000000000000000000000000000081526004016112f090613fca565b60405180910390fd5b600081610380015190506000600760009054906101000a900473ffffffffffffffffffffffffffffffffffffffff1673ffffffffffffffffffffffffffffffffffffffff1663a65e83c3336040518263ffffffff1660e01b8152600401611360919061363a565b61016060405180830381865afa15801561137e573d6000803e3d6000fd5b505050506040513d601f19601f820116820180604052508101906113a29190613761565b90508261022001514210156114a15781816000015110156113f8576040517f08c379a00000000000000000000000000000000000000000000000000000000081526004016113ef90613f04565b60405180910390fd5b818160000181815161140a919061382a565b91508181525050600760009054906101000a900473ffffffffffffffffffffffffffffffffffffffff1673ffffffffffffffffffffffffffffffffffffffff1663a28fe11333836040518363ffffffff1660e01b815260040161146e9291906139ed565b600060405180830381600087803b15801561148857600080fd5b505af115801561149c573d6000803e3d6000fd5b505050505b600083610380018181525050600083610220018181525050600560009054906101000a900473ffffffffffffffffffffffffffffffffffffffff1673ffffffffffffffffffffffffffffffffffffffff16634c2ac39985856040518363ffffffff1660e01b8152600401611516929190613d23565b600060405180830381600087803b15801561153057600080fd5b505af1158015611544573d6000803e3d6000fd5b5050505050505050565b601e81565b600760009054906101000a900473ffffffffffffffffffffffffffffffffffffffff1673ffffffffffffffffffffffffffffffffffffffff1663804b54ab33836040518363ffffffff1660e01b81526004016115b0929190613000565b602060405180830381865afa1580156115cd573d6000803e3d6000fd5b505050506040513d601f19601f820116820180604052508101906115f19190613055565b611630576040517f08c379a0000000000000000000000000000000000000000000000000000000008152600401611627906130ce565b60405180910390fd5b6000600560009054906101000a900473ffffffffffffffffffffffffffffffffffffffff1673ffffffffffffffffffffffffffffffffffffffff1663dabb0531836040518263ffffffff1660e01b815260040161168d9190612f06565b600060405180830381865afa1580156116aa573d6000803e3d6000fd5b505050506040513d6000823e3d601f19601f820116820180604052508101906116d39190613585565b905060008161024001511161171d576040517f08c379a000000000000000000000000000000000000000000000000000000000815260040161171490614036565b60405180910390fd5b6000816103a0015190506000600760009054906101000a900473ffffffffffffffffffffffffffffffffffffffff1673ffffffffffffffffffffffffffffffffffffffff1663a65e83c3336040518263ffffffff1660e01b8152600401611784919061363a565b61016060405180830381865afa1580156117a2573d6000803e3d6000fd5b505050506040513d601f19601f820116820180604052508101906117c69190613761565b90508261024001514210156118c557818160000151101561181c576040517f08c379a000000000000000000000000000000000000000000000000000000000815260040161181390613f04565b60405180910390fd5b818160000181815161182e919061382a565b91508181525050600760009054906101000a900473ffffffffffffffffffffffffffffffffffffffff1673ffffffffffffffffffffffffffffffffffffffff1663a28fe11333836040518363ffffffff1660e01b81526004016118929291906139ed565b600060405180830381600087803b1580156118ac57600080fd5b505af11580156118c0573d6000803e3d6000fd5b505050505b826101000151836101200181815250506000836103a0018181525050600083610240018181525050600560009054906101000a900473ffffffffffffffffffffffffffffffffffffffff1673ffffffffffffffffffffffffffffffffffffffff16634c2ac39985856040518363ffffffff1660e01b815260040161194a929190613d23565b600060405180830381600087803b15801561196457600080fd5b505af1158015611978573d6000803e3d6000fd5b5050505050505050565b6000600560009054906101000a900473ffffffffffffffffffffffffffffffffffffffff1673ffffffffffffffffffffffffffffffffffffffff16634f558e79836040518263ffffffff1660e01b81526004016119df9190612f06565b602060405180830381865afa1580156119fc573d6000803e3d6000fd5b505050506040513d601f19601f82011682018060405250810190611a209190613055565b611a5f576040517f08c379a0000000000000000000000000000000000000000000000000000000008152600401611a5690613d9f565b60405180910390fd5b6000600560009054906101000a900473ffffffffffffffffffffffffffffffffffffffff1673ffffffffffffffffffffffffffffffffffffffff1663dabb0531846040518263ffffffff1660e01b8152600401611abc9190612f06565b600060405180830381865afa158015611ad9573d6000803e3d6000fd5b505050506040513d6000823e3d601f19601f82011682018060405250810190611b029190613585565b9050600760009054906101000a900473ffffffffffffffffffffffffffffffffffffffff1673ffffffffffffffffffffffffffffffffffffffff1663f7a6ab8e6040518163ffffffff1660e01b8152600401602060405180830381865afa158015611b71573d6000803e3d6000fd5b505050506040513d601f19601f82011682018060405250810190611b959190613dbf565b81610360015114611bdb576040517f08c379a0000000000000000000000000000000000000000000000000000000008152600401611bd290613e38565b60405180910390fd5b6000428261022001511115611c1557600042836102200151611bfd919061382a565b90506201518081611c0e9190613e87565b9050809150505b8092505050919050565b600080600084815260200190815260200160002060000160008373ffffffffffffffffffffffffffffffffffffffff1673ffffffffffffffffffffffffffffffffffffffff16815260200190815260200160002060009054906101000a900460ff16905092915050565b600760009054906101000a900473ffffffffffffffffffffffffffffffffffffffff1673ffffffffffffffffffffffffffffffffffffffff1663804b54ab33836040518363ffffffff1660e01b8152600401611ce6929190613000565b602060405180830381865afa158015611d03573d6000803e3d6000fd5b505050506040513d601f19601f82011682018060405250810190611d279190613055565b611d66576040517f08c379a0000000000000000000000000000000000000000000000000000000008152600401611d5d906130ce565b60405180910390fd5b6000600560009054906101000a900473ffffffffffffffffffffffffffffffffffffffff1673ffffffffffffffffffffffffffffffffffffffff1663dabb0531836040518263ffffffff1660e01b8152600401611dc39190612f06565b600060405180830381865afa158015611de0573d6000803e3d6000fd5b505050506040513d6000823e3d601f19601f82011682018060405250810190611e099190613585565b905060008160c001516028600460009054906101000a900473ffffffffffffffffffffffffffffffffffffffff1673ffffffffffffffffffffffffffffffffffffffff1663a7f93ebd6040518163ffffffff1660e01b8152600401602060405180830381865afa158015611e81573d6000803e3d6000fd5b505050506040513d601f19601f82011682018060405250810190611ea59190613dbf565b611eaf9190613e87565b611eb99190613f24565b90506000600760009054906101000a900473ffffffffffffffffffffffffffffffffffffffff1673ffffffffffffffffffffffffffffffffffffffff1663a65e83c3336040518263ffffffff1660e01b8152600401611f18919061363a565b61016060405180830381865afa158015611f36573d6000803e3d6000fd5b505050506040513d601f19601f82011682018060405250810190611f5a9190613761565b90508181600001511015611fa3576040517f08c379a0000000000000000000000000000000000000000000000000000000008152600401611f9a906140a2565b60405180910390fd5b62069780600460009054906101000a900473ffffffffffffffffffffffffffffffffffffffff1673ffffffffffffffffffffffffffffffffffffffff16631f3557a56040518163ffffffff1660e01b8152600401602060405180830381865afa158015612014573d6000803e3d6000fd5b505050506040513d601f19601f820116820180604052508101906120389190613dbf565b612042919061385e565b83610260018181525050818160000181815161205e919061382a565b91508181525050600760009054906101000a900473ffffffffffffffffffffffffffffffffffffffff1673ffffffffffffffffffffffffffffffffffffffff1663a28fe11333836040518363ffffffff1660e01b81526004016120c29291906139ed565b600060405180830381600087803b1580156120dc57600080fd5b505af11580156120f0573d6000803e3d6000fd5b50505050600560009054906101000a900473ffffffffffffffffffffffffffffffffffffffff1673ffffffffffffffffffffffffffffffffffffffff16634c2ac39985856040518363ffffffff1660e01b8152600401612151929190613d23565b600060405180830381600087803b15801561216b57600080fd5b505af115801561217f573d6000803e3d6000fd5b5050505050505050565b600760009054906101000a900473ffffffffffffffffffffffffffffffffffffffff1673ffffffffffffffffffffffffffffffffffffffff1663804b54ab33836040518363ffffffff1660e01b81526004016121e6929190613000565b602060405180830381865afa158015612203573d6000803e3d6000fd5b505050506040513d601f19601f820116820180604052508101906122279190613055565b612266576040517f08c379a000000000000000000000000000000000000000000000000000000000815260040161225d906130ce565b60405180910390fd5b6000600560009054906101000a900473ffffffffffffffffffffffffffffffffffffffff1673ffffffffffffffffffffffffffffffffffffffff1663dabb0531836040518263ffffffff1660e01b81526004016122c39190612f06565b600060405180830381865afa1580156122e0573d6000803e3d6000fd5b505050506040513d6000823e3d601f19601f820116820180604052508101906123099190613585565b90506000816080015111612352576040517f08c379a000000000000000000000000000000000000000000000000000000000815260040161234990614036565b60405180910390fd5b60006028600460009054906101000a900473ffffffffffffffffffffffffffffffffffffffff1673ffffffffffffffffffffffffffffffffffffffff1663a7f93ebd6040518163ffffffff1660e01b8152600401602060405180830381865afa1580156123c3573d6000803e3d6000fd5b505050506040513d601f19601f820116820180604052508101906123e79190613dbf565b6123f19190613e87565b90506000600760009054906101000a900473ffffffffffffffffffffffffffffffffffffffff1673ffffffffffffffffffffffffffffffffffffffff1663a65e83c3336040518263ffffffff1660e01b8152600401612450919061363a565b61016060405180830381865afa15801561246e573d6000803e3d6000fd5b505050506040513d601f19601f820116820180604052508101906124929190613761565b905081816000015110156124db576040517f08c379a00000000000000000000000000000000000000000000000000000000081526004016124d290613f04565b60405180910390fd5b81816000018181516124ed919061382a565b91508181525050600760009054906101000a900473ffffffffffffffffffffffffffffffffffffffff1673ffffffffffffffffffffffffffffffffffffffff1663a28fe11333836040518363ffffffff1660e01b81526004016125519291906139ed565b600060405180830381600087803b15801561256b57600080fd5b505af115801561257f573d6000803e3d6000fd5b505050506000836080018181525050600560009054906101000a900473ffffffffffffffffffffffffffffffffffffffff1673ffffffffffffffffffffffffffffffffffffffff16634c2ac39985856040518363ffffffff1660e01b81526004016125eb929190613d23565b600060405180830381600087803b15801561260557600080fd5b505af1158015612619573d6000803e3d6000fd5b5050505050505050565b6000806000838152602001908152602001600020600101549050919050565b600033905090565b6126548282611c1f565b6126e0576126798173ffffffffffffffffffffffffffffffffffffffff1660146128a5565b6126848360206128a5565b604051602001612695929190614196565b6040516020818303038152906040526040517f08c379a00000000000000000000000000000000000000000000000000000000081526004016126d79190614209565b60405180910390fd5b5050565b6126ee8282611c1f565b156127c157600080600084815260200190815260200160002060000160008373ffffffffffffffffffffffffffffffffffffffff1673ffffffffffffffffffffffffffffffffffffffff16815260200190815260200160002060006101000a81548160ff021916908315150217905550612766612642565b73ffffffffffffffffffffffffffffffffffffffff168173ffffffffffffffffffffffffffffffffffffffff16837fe0df21b65c73c27081b8f042a012b124085b41d78d27b7e3c4780f5650f5ebb860405160405180910390a45b5050565b6127cf8282611c1f565b6128a157600160008084815260200190815260200160002060000160008373ffffffffffffffffffffffffffffffffffffffff1673ffffffffffffffffffffffffffffffffffffffff16815260200190815260200160002060006101000a81548160ff021916908315150217905550612846612642565b73ffffffffffffffffffffffffffffffffffffffff168173ffffffffffffffffffffffffffffffffffffffff16837f1ec1667fba5e43c5c76fff54e76d7a4a20a4fecf7b49724ad8d52a3f726e9dbd60405160405180910390a45b5050565b6060600060028360026128b89190613f24565b6128c2919061385e565b67ffffffffffffffff8111156128db576128da612c5f565b5b6040519080825280601f01601f19166020018201604052801561290d5781602001600182028036833780820191505090505b5090507f3000000000000000000000000000000000000000000000000000000000000000816000815181106129455761294461422b565b5b60200101907effffffffffffffffffffffffffffffffffffffffffffffffffffffffffffff1916908160001a9053507f7800000000000000000000000000000000000000000000000000000000000000816001815181106129a9576129a861422b565b5b60200101907effffffffffffffffffffffffffffffffffffffffffffffffffffffffffffff1916908160001a905350600060018460026129e99190613f24565b6129f3919061385e565b90505b6001811115612a93577f3031323334353637383961626364656600000000000000000000000000000000600f861660108110612a3557612a3461422b565b5b1a60f81b828281518110612a4c57612a4b61422b565b5b60200101907effffffffffffffffffffffffffffffffffffffffffffffffffffffffffffff1916908160001a905350600485901c945080612a8c9061425a565b90506129f6565b5060008414612ad7576040517f08c379a0000000000000000000000000000000000000000000000000000000008152600401612ace906142d0565b60405180910390fd5b8091505092915050565b6000604051905090565b600080fd5b600080fd5b60007fffffffff0000000000000000000000000000000000000000000000000000000082169050919050565b612b2a81612af5565b8114612b3557600080fd5b50565b600081359050612b4781612b21565b92915050565b600060208284031215612b6357612b62612aeb565b5b6000612b7184828501612b38565b91505092915050565b60008115159050919050565b612b8f81612b7a565b82525050565b6000602082019050612baa6000830184612b86565b92915050565b600073ffffffffffffffffffffffffffffffffffffffff82169050919050565b6000612bdb82612bb0565b9050919050565b612beb81612bd0565b8114612bf657600080fd5b50565b600081359050612c0881612be2565b92915050565b6000819050919050565b612c2181612c0e565b8114612c2c57600080fd5b50565b600081359050612c3e81612c18565b92915050565b600080fd5b600080fd5b6000601f19601f8301169050919050565b7f4e487b7100000000000000000000000000000000000000000000000000000000600052604160045260246000fd5b612c9782612c4e565b810181811067ffffffffffffffff82111715612cb657612cb5612c5f565b5b80604052505050565b6000612cc9612ae1565b9050612cd58282612c8e565b919050565b600067ffffffffffffffff821115612cf557612cf4612c5f565b5b612cfe82612c4e565b9050602081019050919050565b82818337600083830152505050565b6000612d2d612d2884612cda565b612cbf565b905082815260208101848484011115612d4957612d48612c49565b5b612d54848285612d0b565b509392505050565b600082601f830112612d7157612d70612c44565b5b8135612d81848260208601612d1a565b91505092915050565b60008060008060808587031215612da457612da3612aeb565b5b6000612db287828801612bf9565b9450506020612dc387828801612bf9565b9350506040612dd487828801612c2f565b925050606085013567ffffffffffffffff811115612df557612df4612af0565b5b612e0187828801612d5c565b91505092959194509250565b612e1681612af5565b82525050565b6000602082019050612e316000830184612e0d565b92915050565b60008060408385031215612e4e57612e4d612aeb565b5b6000612e5c85828601612c2f565b9250506020612e6d85828601612bf9565b9150509250929050565b600080600060608486031215612e9057612e8f612aeb565b5b6000612e9e86828701612c2f565b9350506020612eaf86828701612c2f565b9250506040612ec086828701612c2f565b9150509250925092565b600060208284031215612ee057612edf612aeb565b5b6000612eee84828501612c2f565b91505092915050565b612f0081612c0e565b82525050565b6000602082019050612f1b6000830184612ef7565b92915050565b600060208284031215612f3757612f36612aeb565b5b6000612f4584828501612bf9565b91505092915050565b600082825260208201905092915050565b7f416363657373436f6e74726f6c3a2063616e206f6e6c792072656e6f756e636560008201527f20726f6c657320666f722073656c660000000000000000000000000000000000602082015250565b6000612fbb602f83612f4e565b9150612fc682612f5f565b604082019050919050565b60006020820190508181036000830152612fea81612fae565b9050919050565b612ffa81612bd0565b82525050565b60006040820190506130156000830185612ff1565b6130226020830184612ef7565b9392505050565b61303281612b7a565b811461303d57600080fd5b50565b60008151905061304f81613029565b92915050565b60006020828403121561306b5761306a612aeb565b5b600061307984828501613040565b91505092915050565b7f4e6f742052756e20696e207468697320536561736f6e00000000000000000000600082015250565b60006130b8601683612f4e565b91506130c382613082565b602082019050919050565b600060208201905081810360008301526130e7816130ab565b9050919050565b6000815190506130fd81612be2565b92915050565b60006020828403121561311957613118612aeb565b5b6000613127848285016130ee565b91505092915050565b7f4e6f204f776e6572000000000000000000000000000000000000000000000000600082015250565b6000613166600883612f4e565b915061317182613130565b602082019050919050565b6000602082019050818103600083015261319581613159565b9050919050565b600080fd5b600080fd5b600067ffffffffffffffff8211156131c1576131c0612c5f565b5b6131ca82612c4e565b9050602081019050919050565b60005b838110156131f55780820151818401526020810190506131da565b83811115613204576000848401525b50505050565b600061321d613218846131a6565b612cbf565b90508281526020810184848401111561323957613238612c49565b5b6132448482856131d7565b509392505050565b600082601f83011261326157613260612c44565b5b815161327184826020860161320a565b91505092915050565b60008151905061328981612c18565b92915050565b600061040082840312156132a6576132a561319c565b5b6132b1610400612cbf565b9050600082015167ffffffffffffffff8111156132d1576132d06131a1565b5b6132dd8482850161324c565b60008301525060206132f18482850161327a565b60208301525060406133058482850161327a565b60408301525060606133198482850161327a565b606083015250608061332d8482850161327a565b60808301525060a06133418482850161327a565b60a08301525060c06133558482850161327a565b60c08301525060e06133698482850161327a565b60e08301525061010061337e8482850161327a565b610100830152506101206133948482850161327a565b610120830152506101406133aa8482850161327a565b610140830152506101606133c08482850161327a565b610160830152506101806133d68482850161327a565b610180830152506101a06133ec8482850161327a565b6101a0830152506101c06134028482850161327a565b6101c0830152506101e06134188482850161327a565b6101e08301525061020061342e8482850161327a565b610200830152506102206134448482850161327a565b6102208301525061024061345a8482850161327a565b610240830152506102606134708482850161327a565b610260830152506102806134868482850161327a565b610280830152506102a061349c8482850161327a565b6102a0830152506102c06134b28482850161327a565b6102c0830152506102e06134c88482850161327a565b6102e0830152506103006134de8482850161327a565b610300830152506103206134f48482850161327a565b6103208301525061034061350a8482850161327a565b610340830152506103606135208482850161327a565b610360830152506103806135368482850161327a565b610380830152506103a061354c8482850161327a565b6103a0830152506103c0613562848285016130ee565b6103c0830152506103e06135788482850161327a565b6103e08301525092915050565b60006020828403121561359b5761359a612aeb565b5b600082015167ffffffffffffffff8111156135b9576135b8612af0565b5b6135c58482850161328f565b91505092915050565b7f4f6e6c7920647275677320757365000000000000000000000000000000000000600082015250565b6000613604600e83612f4e565b915061360f826135ce565b602082019050919050565b60006020820190508181036000830152613633816135f7565b9050919050565b600060208201905061364f6000830184612ff1565b92915050565b6000610160828403121561366c5761366b61319c565b5b613677610160612cbf565b905060006136878482850161327a565b600083015250602061369b8482850161327a565b60208301525060406136af8482850161327a565b60408301525060606136c38482850161327a565b60608301525060806136d78482850161327a565b60808301525060a06136eb8482850161327a565b60a08301525060c06136ff8482850161327a565b60c08301525060e06137138482850161327a565b60e0830152506101006137288482850161327a565b6101008301525061012061373e8482850161327a565b610120830152506101406137548482850161327a565b6101408301525092915050565b6000610160828403121561377857613777612aeb565b5b600061378684828501613655565b91505092915050565b7f496e73756666696369656e7420416d6f756e7400000000000000000000000000600082015250565b60006137c5601383612f4e565b91506137d08261378f565b602082019050919050565b600060208201905081810360008301526137f4816137b8565b9050919050565b7f4e487b7100000000000000000000000000000000000000000000000000000000600052601160045260246000fd5b600061383582612c0e565b915061384083612c0e565b925082821015613853576138526137fb565b5b828203905092915050565b600061386982612c0e565b915061387483612c0e565b9250827fffffffffffffffffffffffffffffffffffffffffffffffffffffffffffffffff038211156138a9576138a86137fb565b5b828201905092915050565b60006138bf82612c0e565b91507fffffffffffffffffffffffffffffffffffffffffffffffffffffffffffffffff8214156138f2576138f16137fb565b5b600182019050919050565b61390681612c0e565b82525050565b6101608201600082015161392360008501826138fd565b50602082015161393660208501826138fd565b50604082015161394960408501826138fd565b50606082015161395c60608501826138fd565b50608082015161396f60808501826138fd565b5060a082015161398260a08501826138fd565b5060c082015161399560c08501826138fd565b5060e08201516139a860e08501826138fd565b506101008201516139bd6101008501826138fd565b506101208201516139d26101208501826138fd565b506101408201516139e76101408501826138fd565b50505050565b600061018082019050613a036000830185612ff1565b613a10602083018461390c565b9392505050565b600081519050919050565b600082825260208201905092915050565b6000613a3e82613a17565b613a488185613a22565b9350613a588185602086016131d7565b613a6181612c4e565b840191505092915050565b613a7581612bd0565b82525050565b6000610400830160008301518482036000860152613a998282613a33565b9150506020830151613aae60208601826138fd565b506040830151613ac160408601826138fd565b506060830151613ad460608601826138fd565b506080830151613ae760808601826138fd565b5060a0830151613afa60a08601826138fd565b5060c0830151613b0d60c08601826138fd565b5060e0830151613b2060e08601826138fd565b50610100830151613b356101008601826138fd565b50610120830151613b4a6101208601826138fd565b50610140830151613b5f6101408601826138fd565b50610160830151613b746101608601826138fd565b50610180830151613b896101808601826138fd565b506101a0830151613b9e6101a08601826138fd565b506101c0830151613bb36101c08601826138fd565b506101e0830151613bc86101e08601826138fd565b50610200830151613bdd6102008601826138fd565b50610220830151613bf26102208601826138fd565b50610240830151613c076102408601826138fd565b50610260830151613c1c6102608601826138fd565b50610280830151613c316102808601826138fd565b506102a0830151613c466102a08601826138fd565b506102c0830151613c5b6102c08601826138fd565b506102e0830151613c706102e08601826138fd565b50610300830151613c856103008601826138fd565b50610320830151613c9a6103208601826138fd565b50610340830151613caf6103408601826138fd565b50610360830151613cc46103608601826138fd565b50610380830151613cd96103808601826138fd565b506103a0830151613cee6103a08601826138fd565b506103c0830151613d036103c0860182613a6c565b506103e0830151613d186103e08601826138fd565b508091505092915050565b6000604082019050613d386000830185612ef7565b8181036020830152613d4a8184613a7b565b90509392505050565b7f4e6f204578697374730000000000000000000000000000000000000000000000600082015250565b6000613d89600983612f4e565b9150613d9482613d53565b602082019050919050565b60006020820190508181036000830152613db881613d7c565b9050919050565b600060208284031215613dd557613dd4612aeb565b5b6000613de38482850161327a565b91505092915050565b7f4572726f7220536561736f6e2049640000000000000000000000000000000000600082015250565b6000613e22600f83612f4e565b9150613e2d82613dec565b602082019050919050565b60006020820190508181036000830152613e5181613e15565b9050919050565b7f4e487b7100000000000000000000000000000000000000000000000000000000600052601260045260246000fd5b6000613e9282612c0e565b9150613e9d83612c0e565b925082613ead57613eac613e58565b5b828204905092915050565b7f496e73756666696369656e742042616c616e6365000000000000000000000000600082015250565b6000613eee601483612f4e565b9150613ef982613eb8565b602082019050919050565b60006020820190508181036000830152613f1d81613ee1565b9050919050565b6000613f2f82612c0e565b9150613f3a83612c0e565b9250817fffffffffffffffffffffffffffffffffffffffffffffffffffffffffffffffff0483118215151615613f7357613f726137fb565b5b828202905092915050565b7f436861726163746572204e6f7420696e20507269736f6e000000000000000000600082015250565b6000613fb4601783612f4e565b9150613fbf82613f7e565b602082019050919050565b60006020820190508181036000830152613fe381613fa7565b9050919050565b7f436861726163746572204e6f7420696e20486f7374706974616c000000000000600082015250565b6000614020601a83612f4e565b915061402b82613fea565b602082019050919050565b6000602082019050818103600083015261404f81614013565b9050919050565b7f496e73737566696369656e7420416d6d6f756e74000000000000000000000000600082015250565b600061408c601483612f4e565b915061409782614056565b602082019050919050565b600060208201905081810360008301526140bb8161407f565b9050919050565b600081905092915050565b7f416363657373436f6e74726f6c3a206163636f756e7420000000000000000000600082015250565b60006141036017836140c2565b915061410e826140cd565b601782019050919050565b600061412482613a17565b61412e81856140c2565b935061413e8185602086016131d7565b80840191505092915050565b7f206973206d697373696e6720726f6c6520000000000000000000000000000000600082015250565b60006141806011836140c2565b915061418b8261414a565b601182019050919050565b60006141a1826140f6565b91506141ad8285614119565b91506141b882614173565b91506141c48284614119565b91508190509392505050565b60006141db82613a17565b6141e58185612f4e565b93506141f58185602086016131d7565b6141fe81612c4e565b840191505092915050565b6000602082019050818103600083015261422381846141d0565b905092915050565b7f4e487b7100000000000000000000000000000000000000000000000000000000600052603260045260246000fd5b600061426582612c0e565b91506000821415614279576142786137fb565b5b600182039050919050565b7f537472696e67733a20686578206c656e67746820696e73756666696369656e74600082015250565b60006142ba602083612f4e565b91506142c582614284565b602082019050919050565b600060208201905081810360008301526142e9816142ad565b905091905056fea2646970667358221220b0b560c53b073628a51ae7b7b375b8c6068e30bcca0e18611942b00a3f20b0c464736f6c634300080a0033",
  "immutableReferences": {},
  "source": "// SPDX-License-Identifier: UNLICENSED\r\npragma solidity >=0.4.22 <0.9.0;\r\n\r\n/**\r\n * @title SampleBEP20Token\r\n * @dev Very simple BEP20 Token example, where all tokens are pre-assigned to the creator.\r\n * Note they can later distribute these tokens as they wish using `transfer` and other\r\n * `BEP20` functions.\r\n * USE IT ONLY FOR LEARNING PURPOSES. SHOULD BE MODIFIED FOR PRODUCTION\r\n */\r\n\r\nimport \"../../node_modules/@openzeppelin/contracts/token/ERC721/IERC721Receiver.sol\";\r\nimport \"./../utils/Admin.sol\";\r\nimport \"./../utils/Utils.sol\";\r\nimport \"./../utils/CharacterUtils.sol\";\r\n\r\nimport \"./../tokens/Character.sol\";\r\nimport \"./../tokens/GANG.sol\";\r\nimport \"./../tokens/GameItem.sol\";\r\nimport \"./../CoreInGame.sol\";\r\n\r\ncontract HospitalPrison is Admin, IERC721Receiver {\r\n    address private _contractowner;\r\n    address private _secondowner;\r\n\r\n    uint256 private bnbBalance;\r\n\r\n    Utils private utils;\r\n    Character private crimeChar;\r\n    GameItem private crimeItem;\r\n    CoreInGame private game;\r\n\r\n    constructor(Utils _util, Character _character, GameItem _gameItem, CoreInGame _game) Admin()\r\n    {\r\n        _contractowner = msg.sender;\r\n        _secondowner = address(0xbf752Eb4b851B241A36e22767b304ef28242198A);\r\n        bnbBalance = 0;\r\n        crimeChar = _character;\r\n        crimeItem = _gameItem;\r\n        utils = _util;\r\n        game = _game;\r\n\r\n        _setRoleAdmin(DEFAULT_ADMIN_ROLE, DEFAULT_ADMIN_ROLE);\r\n        _setRoleAdmin(DEFAULT_CORE_ROLE, DEFAULT_ADMIN_ROLE);\r\n        _setupRole(DEFAULT_ADMIN_ROLE, msg.sender);\r\n        _setupRole(DEFAULT_ADMIN_ROLE, _secondowner);\r\n    }\r\n\r\n    function onERC721Received(address, address, uint256, bytes memory) public virtual override returns (bytes4) {\r\n        return this.onERC721Received.selector;\r\n    }\r\n\r\n    function supportsInterface(bytes4 interfaceId) public pure returns (bool) {\r\n        return interfaceId == type(IERC721Receiver).interfaceId;\r\n    }\r\n    \r\n    function changeAdmin(address newAdmin) public onlyRole(DEFAULT_ADMIN_ROLE)\r\n    {\r\n        _contractowner = newAdmin;\r\n    }\r\n\r\n    function bnbWithdraw() onlyRole(DEFAULT_ADMIN_ROLE) public\r\n    {\r\n        address payable owner = payable(msg.sender);\r\n        require(bnbBalance > 0, \"Insufficient Balance\");\r\n        owner.transfer(bnbBalance);\r\n    }\r\n\r\n    function getNurseCountDown(uint256 tokenId) public view returns (uint256)\r\n    {\r\n        require(crimeChar.exists(tokenId), \"No Exists\");\r\n        CharacterDetail memory char = crimeChar.getCharacter(tokenId);\r\n\r\n        require(char.seasonId == game.getSeasonId(), \"Error Season Id\");\r\n        uint256 result = 0;\r\n        if(char.nurseTime > block.timestamp)\r\n        {\r\n            uint256 diff= char.nurseTime - block.timestamp;\r\n            diff = diff / (1 days);\r\n            result = diff;\r\n        }\r\n        return result;\r\n    }\r\n\r\n    function getPrisonCountDown(uint256 tokenId) public view returns (uint256)\r\n    {\r\n        require(crimeChar.exists(tokenId), \"No Exists\");\r\n        CharacterDetail memory char = crimeChar.getCharacter(tokenId);\r\n\r\n        require(char.seasonId == game.getSeasonId(), \"Error Season Id\");\r\n        uint256 result = 0;\r\n        if(char.prisonTime > block.timestamp)\r\n        {\r\n            uint256 diff= char.prisonTime - block.timestamp;\r\n            diff = diff / (1 days);\r\n            result = diff;\r\n        }\r\n        return result;\r\n    }\r\n\r\n    function treatAddict(uint256 tokenId) public{\r\n        require(game.checkCharacterCanRunHP(msg.sender, tokenId), \"Not Run in this Season\");\r\n        CharacterDetail memory char = crimeChar.getCharacter(tokenId);\r\n        require(char.vicio > 0, \"Character Not in Hostpital\");\r\n        uint256 totalPrice = utils.getMintPrice() / 40;\r\n        InGame memory acc = game.getIngameAccount(msg.sender);\r\n        require(acc.balance >= totalPrice, \"Insufficient Balance\");\r\n        acc.balance -= totalPrice;\r\n        game.UpdateInGameAccount(msg.sender, acc);\r\n        char.vicio = 0;\r\n        crimeChar.UpdateCharacter(tokenId, char);\r\n    }\r\n    \r\n    function reviveHospital(uint256 tokenId) public{\r\n        require(game.checkCharacterCanRunHP(msg.sender, tokenId), \"Not Run in this Season\");\r\n        CharacterDetail memory char = crimeChar.getCharacter(tokenId);\r\n        require(char.nurseTime > 0, \"Character Not in Hostpital\");\r\n        uint256 totalPrice = char.hospitalPrice;\r\n        InGame memory acc = game.getIngameAccount(msg.sender);\r\n        if(block.timestamp < char.nurseTime)\r\n        {\r\n             require(acc.balance >= totalPrice, \"Insufficient Balance\");\r\n             acc.balance -= totalPrice;\r\n             game.UpdateInGameAccount(msg.sender, acc);\r\n        }\r\n        char.curHp = char.maxHp;\r\n        char.hospitalPrice = 0;\r\n        char.nurseTime = 0;\r\n        crimeChar.UpdateCharacter(tokenId, char);\r\n    }\r\n\r\n    function withdrawPrison(uint256 tokenId) public{\r\n        require(game.checkCharacterCanRunHP(msg.sender, tokenId), \"Not Run in this Season\");\r\n        CharacterDetail memory char = crimeChar.getCharacter(tokenId);\r\n        require(char.prisonTime > 0, \"Character Not in Prison\");\r\n        uint256 totalPrice = char.prisonPrice;\r\n        InGame memory acc = game.getIngameAccount(msg.sender);\r\n        if(block.timestamp < char.prisonTime)\r\n        {\r\n             require(acc.balance >= totalPrice, \"Insufficient Balance\");\r\n             acc.balance -= totalPrice;\r\n             game.UpdateInGameAccount(msg.sender, acc);\r\n        }\r\n        char.prisonPrice = 0;\r\n        char.prisonTime = 0;\r\n        crimeChar.UpdateCharacter(tokenId, char);\r\n    }\r\n\r\n    function getColetePrice(uint256 tokenId) public view returns (uint256)\r\n    {\r\n        CharacterDetail memory char = crimeChar.getCharacter(tokenId);\r\n         return ((utils.getMintPrice() / 40) * char.level);\r\n    }\r\n\r\n    function useItem(uint256 charId, uint256 itemId, uint256 quantity) public\r\n    {\r\n        require(game.checkCharacterCanRunHP(msg.sender, charId), \"Not Run in this Season\");\r\n        require(crimeChar.ownerOf(charId) == msg.sender, \"No Owner\");\r\n        CharacterDetail memory char = crimeChar.getCharacter(charId);\r\n        uint256 hp = 0;\r\n        uint256 vicio = 0;\r\n        require(itemId >= 10 && itemId < 14, \"Only drugs use\");\r\n        InGame memory acc = game.getIngameAccount(msg.sender);\r\n        if(itemId == 10)\r\n        {\r\n            require(acc.beer >= quantity, \"Insufficient Amount\");\r\n            hp = 50;\r\n            vicio = 10;\r\n            acc.beer -= quantity;\r\n        }\r\n        else if(itemId == 11)\r\n        {\r\n            require(acc.cannabis >= quantity, \"Insufficient Amount\");\r\n            hp = 100;\r\n            vicio = 10;\r\n            acc.cannabis -= quantity;\r\n        }\r\n        else if(itemId == 12)\r\n        {\r\n            require(acc.opio >= quantity, \"Insufficient Amount\");\r\n            hp = 200;\r\n            vicio = 15;\r\n            acc.opio -= quantity;\r\n        }\r\n        else\r\n        {\r\n            require(acc.cocaine >= quantity, \"Insufficient Amount\");\r\n            hp = 500;\r\n            vicio = 20;\r\n            acc.cocaine -= quantity;\r\n        }\r\n\r\n        for(uint256 x = 0; x < quantity; x++)\r\n        {\r\n            if((char.curHp + hp) > char.maxHp)\r\n            {\r\n                char.curHp = char.maxHp;\r\n            }\r\n            else char.curHp += hp;\r\n\r\n            if((char.vicio + vicio) > 100)\r\n            {\r\n                char.vicio = 100;\r\n            }\r\n            else char.vicio += vicio;\r\n        }\r\n        game.UpdateInGameAccount(msg.sender, acc);\r\n        crimeChar.UpdateCharacter(charId, char);\r\n    }\r\n\r\n    function activeBulletProof(uint256 tokenId) public {\r\n        require(game.checkCharacterCanRunHP(msg.sender, tokenId), \"Not Run in this Season\");\r\n        CharacterDetail memory char = crimeChar.getCharacter(tokenId);\r\n        uint256 cost = ((utils.getMintPrice() / 40) * char.level);\r\n        InGame memory acc = game.getIngameAccount(msg.sender);\r\n        require(acc.balance >= cost, \"Inssuficient Ammount\");\r\n        char.coleteTime = utils.getBlockChainTime() + (5 days);\r\n        acc.balance -= cost;\r\n        game.UpdateInGameAccount(msg.sender, acc);\r\n        crimeChar.UpdateCharacter(tokenId, char);\r\n    }\r\n}",
  "sourcePath": "D:\\CrimeCity\\contracts\\Features\\HospitalPrison.sol",
  "compiler": {
    "name": "solc",
    "version": "0.8.10+commit.fc410830.Emscripten.clang"
  },
  "schemaVersion": "3.4.3",
  "updatedAt": "2022-01-22T20:23:21.741Z",
  "networkType": "ethereum",
  "devdoc": {
    "kind": "dev",
    "methods": {
      "getRoleAdmin(uint256)": {
        "details": "Returns the admin role that controls `role`. See {grantRole} and {revokeRole}. To change a role's admin, use {_setRoleAdmin}."
      },
      "grantRole(uint256,address)": {
        "details": "Grants `role` to `account`. If `account` had not been already granted `role`, emits a {RoleGranted} event. Requirements: - the caller must have ``role``'s admin role."
      },
      "hasRole(uint256,address)": {
        "details": "Returns `true` if `account` has been granted `role`."
      },
      "renounceRole(uint256,address)": {
        "details": "Revokes `role` from the calling account. Roles are often managed via {grantRole} and {revokeRole}: this function's purpose is to provide a mechanism for accounts to lose their privileges if they are compromised (such as when a trusted device is misplaced). If the calling account had been granted `role`, emits a {RoleRevoked} event. Requirements: - the caller must be `account`."
      },
      "revokeRole(uint256,address)": {
        "details": "Revokes `role` from `account`. If `account` had been granted `role`, emits a {RoleRevoked} event. Requirements: - the caller must have ``role``'s admin role."
      }
    },
    "version": 1
  },
  "userdoc": {
    "kind": "user",
    "methods": {},
    "version": 1
  }
}