{
  "contractName": "MarketPlace",
  "abi": [
    {
      "inputs": [
        {
          "internalType": "contract GANG",
          "name": "_gang",
          "type": "address"
        },
        {
          "internalType": "contract Utils",
          "name": "_utils",
          "type": "address"
        },
        {
          "internalType": "contract Character",
          "name": "_char",
          "type": "address"
        },
        {
          "internalType": "contract GameItem",
          "name": "_item",
          "type": "address"
        },
        {
          "internalType": "contract CoreInGame",
          "name": "_core",
          "type": "address"
        },
        {
          "internalType": "contract ItemList",
          "name": "_itemList",
          "type": "address"
        }
      ],
      "stateMutability": "nonpayable",
      "type": "constructor"
    },
    {
      "anonymous": false,
      "inputs": [
        {
          "indexed": true,
          "internalType": "uint256",
          "name": "tokenId",
          "type": "uint256"
        },
        {
          "indexed": false,
          "internalType": "uint256",
          "name": "nftType",
          "type": "uint256"
        },
        {
          "indexed": true,
          "internalType": "address",
          "name": "seller",
          "type": "address"
        },
        {
          "indexed": false,
          "internalType": "uint256",
          "name": "price",
          "type": "uint256"
        },
        {
          "indexed": true,
          "internalType": "uint256",
          "name": "_listingId",
          "type": "uint256"
        }
      ],
      "name": "NewListing",
      "type": "event"
    },
    {
      "anonymous": false,
      "inputs": [
        {
          "indexed": true,
          "internalType": "uint256",
          "name": "role",
          "type": "uint256"
        },
        {
          "indexed": true,
          "internalType": "uint256",
          "name": "previousAdminRole",
          "type": "uint256"
        },
        {
          "indexed": true,
          "internalType": "uint256",
          "name": "newAdminRole",
          "type": "uint256"
        }
      ],
      "name": "RoleAdminChanged",
      "type": "event"
    },
    {
      "anonymous": false,
      "inputs": [
        {
          "indexed": true,
          "internalType": "uint256",
          "name": "role",
          "type": "uint256"
        },
        {
          "indexed": true,
          "internalType": "address",
          "name": "account",
          "type": "address"
        },
        {
          "indexed": true,
          "internalType": "address",
          "name": "sender",
          "type": "address"
        }
      ],
      "name": "RoleGranted",
      "type": "event"
    },
    {
      "anonymous": false,
      "inputs": [
        {
          "indexed": true,
          "internalType": "uint256",
          "name": "role",
          "type": "uint256"
        },
        {
          "indexed": true,
          "internalType": "address",
          "name": "account",
          "type": "address"
        },
        {
          "indexed": true,
          "internalType": "address",
          "name": "sender",
          "type": "address"
        }
      ],
      "name": "RoleRevoked",
      "type": "event"
    },
    {
      "inputs": [],
      "name": "DEFAULT_ADMIN_ROLE",
      "outputs": [
        {
          "internalType": "uint256",
          "name": "",
          "type": "uint256"
        }
      ],
      "stateMutability": "view",
      "type": "function",
      "constant": true
    },
    {
      "inputs": [],
      "name": "DEFAULT_CORE_ROLE",
      "outputs": [
        {
          "internalType": "uint256",
          "name": "",
          "type": "uint256"
        }
      ],
      "stateMutability": "view",
      "type": "function",
      "constant": true
    },
    {
      "inputs": [
        {
          "internalType": "uint256",
          "name": "role",
          "type": "uint256"
        }
      ],
      "name": "getRoleAdmin",
      "outputs": [
        {
          "internalType": "uint256",
          "name": "",
          "type": "uint256"
        }
      ],
      "stateMutability": "view",
      "type": "function",
      "constant": true
    },
    {
      "inputs": [
        {
          "internalType": "uint256",
          "name": "role",
          "type": "uint256"
        },
        {
          "internalType": "address",
          "name": "account",
          "type": "address"
        }
      ],
      "name": "grantRole",
      "outputs": [],
      "stateMutability": "nonpayable",
      "type": "function"
    },
    {
      "inputs": [
        {
          "internalType": "uint256",
          "name": "role",
          "type": "uint256"
        },
        {
          "internalType": "address",
          "name": "account",
          "type": "address"
        }
      ],
      "name": "hasRole",
      "outputs": [
        {
          "internalType": "bool",
          "name": "",
          "type": "bool"
        }
      ],
      "stateMutability": "view",
      "type": "function",
      "constant": true
    },
    {
      "inputs": [
        {
          "internalType": "uint256",
          "name": "role",
          "type": "uint256"
        },
        {
          "internalType": "address",
          "name": "account",
          "type": "address"
        }
      ],
      "name": "renounceRole",
      "outputs": [],
      "stateMutability": "nonpayable",
      "type": "function"
    },
    {
      "inputs": [
        {
          "internalType": "uint256",
          "name": "role",
          "type": "uint256"
        },
        {
          "internalType": "address",
          "name": "account",
          "type": "address"
        }
      ],
      "name": "revokeRole",
      "outputs": [],
      "stateMutability": "nonpayable",
      "type": "function"
    },
    {
      "inputs": [
        {
          "internalType": "address",
          "name": "newAdmin",
          "type": "address"
        }
      ],
      "name": "changeAdmin",
      "outputs": [],
      "stateMutability": "nonpayable",
      "type": "function"
    },
    {
      "inputs": [
        {
          "internalType": "address",
          "name": "",
          "type": "address"
        },
        {
          "internalType": "address",
          "name": "",
          "type": "address"
        },
        {
          "internalType": "uint256",
          "name": "",
          "type": "uint256"
        },
        {
          "internalType": "bytes",
          "name": "",
          "type": "bytes"
        }
      ],
      "name": "onERC721Received",
      "outputs": [
        {
          "internalType": "bytes4",
          "name": "",
          "type": "bytes4"
        }
      ],
      "stateMutability": "nonpayable",
      "type": "function"
    },
    {
      "inputs": [
        {
          "internalType": "bytes4",
          "name": "interfaceId",
          "type": "bytes4"
        }
      ],
      "name": "supportsInterface",
      "outputs": [
        {
          "internalType": "bool",
          "name": "",
          "type": "bool"
        }
      ],
      "stateMutability": "pure",
      "type": "function",
      "constant": true
    },
    {
      "inputs": [],
      "name": "bnbWithdraw",
      "outputs": [],
      "stateMutability": "nonpayable",
      "type": "function"
    },
    {
      "inputs": [
        {
          "internalType": "uint256",
          "name": "id",
          "type": "uint256"
        }
      ],
      "name": "getListing",
      "outputs": [
        {
          "components": [
            {
              "internalType": "uint256",
              "name": "tokenId",
              "type": "uint256"
            },
            {
              "internalType": "uint256",
              "name": "nftType",
              "type": "uint256"
            },
            {
              "internalType": "address",
              "name": "owner",
              "type": "address"
            },
            {
              "internalType": "string",
              "name": "name",
              "type": "string"
            },
            {
              "internalType": "uint256",
              "name": "price",
              "type": "uint256"
            },
            {
              "internalType": "uint256",
              "name": "rarity",
              "type": "uint256"
            },
            {
              "internalType": "uint256",
              "name": "class",
              "type": "uint256"
            },
            {
              "internalType": "uint256",
              "name": "power",
              "type": "uint256"
            },
            {
              "internalType": "uint256",
              "name": "itemId",
              "type": "uint256"
            },
            {
              "internalType": "uint256",
              "name": "drugId",
              "type": "uint256"
            },
            {
              "internalType": "uint256",
              "name": "quantity",
              "type": "uint256"
            },
            {
              "internalType": "uint256",
              "name": "time",
              "type": "uint256"
            },
            {
              "internalType": "uint256",
              "name": "active",
              "type": "uint256"
            },
            {
              "internalType": "uint256",
              "name": "listingId",
              "type": "uint256"
            }
          ],
          "internalType": "struct Listing",
          "name": "",
          "type": "tuple"
        }
      ],
      "stateMutability": "view",
      "type": "function",
      "constant": true
    },
    {
      "inputs": [],
      "name": "getContractOwner",
      "outputs": [
        {
          "internalType": "address",
          "name": "",
          "type": "address"
        }
      ],
      "stateMutability": "view",
      "type": "function",
      "constant": true
    },
    {
      "inputs": [
        {
          "internalType": "uint256",
          "name": "id",
          "type": "uint256"
        }
      ],
      "name": "_exists",
      "outputs": [
        {
          "internalType": "bool",
          "name": "",
          "type": "bool"
        }
      ],
      "stateMutability": "view",
      "type": "function",
      "constant": true
    },
    {
      "inputs": [],
      "name": "getTotalSupply",
      "outputs": [
        {
          "internalType": "uint256",
          "name": "",
          "type": "uint256"
        }
      ],
      "stateMutability": "view",
      "type": "function",
      "constant": true
    },
    {
      "inputs": [],
      "name": "getTax",
      "outputs": [
        {
          "internalType": "uint256",
          "name": "",
          "type": "uint256"
        }
      ],
      "stateMutability": "view",
      "type": "function",
      "constant": true
    },
    {
      "inputs": [
        {
          "internalType": "uint256",
          "name": "_tax",
          "type": "uint256"
        }
      ],
      "name": "setTax",
      "outputs": [],
      "stateMutability": "nonpayable",
      "type": "function"
    },
    {
      "inputs": [],
      "name": "getIndexSlot",
      "outputs": [
        {
          "internalType": "uint256",
          "name": "",
          "type": "uint256"
        }
      ],
      "stateMutability": "view",
      "type": "function",
      "constant": true
    },
    {
      "inputs": [],
      "name": "burnAllGameItemsListing",
      "outputs": [],
      "stateMutability": "nonpayable",
      "type": "function"
    },
    {
      "inputs": [
        {
          "internalType": "uint256",
          "name": "id",
          "type": "uint256"
        }
      ],
      "name": "buyNft",
      "outputs": [],
      "stateMutability": "payable",
      "type": "function",
      "payable": true
    },
    {
      "inputs": [
        {
          "internalType": "uint256",
          "name": "id",
          "type": "uint256"
        }
      ],
      "name": "cancelListing",
      "outputs": [],
      "stateMutability": "payable",
      "type": "function",
      "payable": true
    },
    {
      "inputs": [
        {
          "internalType": "uint256",
          "name": "tokenId",
          "type": "uint256"
        },
        {
          "internalType": "uint256",
          "name": "drugId",
          "type": "uint256"
        },
        {
          "internalType": "uint256",
          "name": "quantity",
          "type": "uint256"
        },
        {
          "internalType": "uint256",
          "name": "nftType",
          "type": "uint256"
        },
        {
          "internalType": "uint256",
          "name": "price",
          "type": "uint256"
        }
      ],
      "name": "sellNft",
      "outputs": [],
      "stateMutability": "payable",
      "type": "function",
      "payable": true
    },
    {
      "inputs": [
        {
          "internalType": "uint256",
          "name": "nftType",
          "type": "uint256"
        }
      ],
      "name": "getAllListingByNftType",
      "outputs": [
        {
          "components": [
            {
              "internalType": "uint256",
              "name": "tokenId",
              "type": "uint256"
            },
            {
              "internalType": "uint256",
              "name": "nftType",
              "type": "uint256"
            },
            {
              "internalType": "address",
              "name": "owner",
              "type": "address"
            },
            {
              "internalType": "string",
              "name": "name",
              "type": "string"
            },
            {
              "internalType": "uint256",
              "name": "price",
              "type": "uint256"
            },
            {
              "internalType": "uint256",
              "name": "rarity",
              "type": "uint256"
            },
            {
              "internalType": "uint256",
              "name": "class",
              "type": "uint256"
            },
            {
              "internalType": "uint256",
              "name": "power",
              "type": "uint256"
            },
            {
              "internalType": "uint256",
              "name": "itemId",
              "type": "uint256"
            },
            {
              "internalType": "uint256",
              "name": "drugId",
              "type": "uint256"
            },
            {
              "internalType": "uint256",
              "name": "quantity",
              "type": "uint256"
            },
            {
              "internalType": "uint256",
              "name": "time",
              "type": "uint256"
            },
            {
              "internalType": "uint256",
              "name": "active",
              "type": "uint256"
            },
            {
              "internalType": "uint256",
              "name": "listingId",
              "type": "uint256"
            }
          ],
          "internalType": "struct Listing[]",
          "name": "",
          "type": "tuple[]"
        }
      ],
      "stateMutability": "view",
      "type": "function",
      "constant": true
    },
    {
      "inputs": [
        {
          "internalType": "uint256",
          "name": "itemId",
          "type": "uint256"
        }
      ],
      "name": "getAllListingByItemId",
      "outputs": [
        {
          "components": [
            {
              "internalType": "uint256",
              "name": "tokenId",
              "type": "uint256"
            },
            {
              "internalType": "uint256",
              "name": "nftType",
              "type": "uint256"
            },
            {
              "internalType": "address",
              "name": "owner",
              "type": "address"
            },
            {
              "internalType": "string",
              "name": "name",
              "type": "string"
            },
            {
              "internalType": "uint256",
              "name": "price",
              "type": "uint256"
            },
            {
              "internalType": "uint256",
              "name": "rarity",
              "type": "uint256"
            },
            {
              "internalType": "uint256",
              "name": "class",
              "type": "uint256"
            },
            {
              "internalType": "uint256",
              "name": "power",
              "type": "uint256"
            },
            {
              "internalType": "uint256",
              "name": "itemId",
              "type": "uint256"
            },
            {
              "internalType": "uint256",
              "name": "drugId",
              "type": "uint256"
            },
            {
              "internalType": "uint256",
              "name": "quantity",
              "type": "uint256"
            },
            {
              "internalType": "uint256",
              "name": "time",
              "type": "uint256"
            },
            {
              "internalType": "uint256",
              "name": "active",
              "type": "uint256"
            },
            {
              "internalType": "uint256",
              "name": "listingId",
              "type": "uint256"
            }
          ],
          "internalType": "struct Listing[]",
          "name": "",
          "type": "tuple[]"
        }
      ],
      "stateMutability": "view",
      "type": "function",
      "constant": true
    },
    {
      "inputs": [
        {
          "internalType": "address",
          "name": "user",
          "type": "address"
        }
      ],
      "name": "getAllListingByUser",
      "outputs": [
        {
          "components": [
            {
              "internalType": "uint256",
              "name": "tokenId",
              "type": "uint256"
            },
            {
              "internalType": "uint256",
              "name": "nftType",
              "type": "uint256"
            },
            {
              "internalType": "address",
              "name": "owner",
              "type": "address"
            },
            {
              "internalType": "string",
              "name": "name",
              "type": "string"
            },
            {
              "internalType": "uint256",
              "name": "price",
              "type": "uint256"
            },
            {
              "internalType": "uint256",
              "name": "rarity",
              "type": "uint256"
            },
            {
              "internalType": "uint256",
              "name": "class",
              "type": "uint256"
            },
            {
              "internalType": "uint256",
              "name": "power",
              "type": "uint256"
            },
            {
              "internalType": "uint256",
              "name": "itemId",
              "type": "uint256"
            },
            {
              "internalType": "uint256",
              "name": "drugId",
              "type": "uint256"
            },
            {
              "internalType": "uint256",
              "name": "quantity",
              "type": "uint256"
            },
            {
              "internalType": "uint256",
              "name": "time",
              "type": "uint256"
            },
            {
              "internalType": "uint256",
              "name": "active",
              "type": "uint256"
            },
            {
              "internalType": "uint256",
              "name": "listingId",
              "type": "uint256"
            }
          ],
          "internalType": "struct Listing[]",
          "name": "",
          "type": "tuple[]"
        }
      ],
      "stateMutability": "view",
      "type": "function",
      "constant": true
    }
  ],
  "bytecode": "0x60806040526001600a556005600b553480156200001b57600080fd5b50604051620064e0380380620064e08339818101604052810190620000419190620006cd565b33600160006101000a81548173ffffffffffffffffffffffffffffffffffffffff021916908373ffffffffffffffffffffffffffffffffffffffff16021790555073bf752eb4b851b241a36e22767b304ef28242198a600260006101000a81548173ffffffffffffffffffffffffffffffffffffffff021916908373ffffffffffffffffffffffffffffffffffffffff160217905550600060038190555085600460006101000a81548173ffffffffffffffffffffffffffffffffffffffff021916908373ffffffffffffffffffffffffffffffffffffffff16021790555084600560006101000a81548173ffffffffffffffffffffffffffffffffffffffff021916908373ffffffffffffffffffffffffffffffffffffffff16021790555083600660006101000a81548173ffffffffffffffffffffffffffffffffffffffff021916908373ffffffffffffffffffffffffffffffffffffffff16021790555082600760006101000a81548173ffffffffffffffffffffffffffffffffffffffff021916908373ffffffffffffffffffffffffffffffffffffffff16021790555081600860006101000a81548173ffffffffffffffffffffffffffffffffffffffff021916908373ffffffffffffffffffffffffffffffffffffffff16021790555080600960006101000a81548173ffffffffffffffffffffffffffffffffffffffff021916908373ffffffffffffffffffffffffffffffffffffffff1602179055506000600c60006101000a81548160ff02191690831515021790555062000293601e80620002fb60201b60201c565b620002a7601f601e620002fb60201b60201c565b620002ba601e336200035e60201b60201c565b620002ef601e600260009054906101000a900473ffffffffffffffffffffffffffffffffffffffff166200035e60201b60201c565b50505050505062000769565b60006200030e836200037460201b60201c565b905081600080858152602001908152602001600020600101819055508181847f6620dedee755c284a7e221a3279487b734830c1f76c026c797b4d019c6b4b2f460405160405180910390a4505050565b6200037082826200039360201b60201c565b5050565b6000806000838152602001908152602001600020600101549050919050565b620003a582826200048460201b60201c565b6200048057600160008084815260200190815260200160002060000160008373ffffffffffffffffffffffffffffffffffffffff1673ffffffffffffffffffffffffffffffffffffffff16815260200190815260200160002060006101000a81548160ff02191690831515021790555062000425620004ee60201b60201c565b73ffffffffffffffffffffffffffffffffffffffff168173ffffffffffffffffffffffffffffffffffffffff16837f1ec1667fba5e43c5c76fff54e76d7a4a20a4fecf7b49724ad8d52a3f726e9dbd60405160405180910390a45b5050565b600080600084815260200190815260200160002060000160008373ffffffffffffffffffffffffffffffffffffffff1673ffffffffffffffffffffffffffffffffffffffff16815260200190815260200160002060009054906101000a900460ff16905092915050565b600033905090565b600080fd5b600073ffffffffffffffffffffffffffffffffffffffff82169050919050565b60006200052882620004fb565b9050919050565b60006200053c826200051b565b9050919050565b6200054e816200052f565b81146200055a57600080fd5b50565b6000815190506200056e8162000543565b92915050565b600062000581826200051b565b9050919050565b620005938162000574565b81146200059f57600080fd5b50565b600081519050620005b38162000588565b92915050565b6000620005c6826200051b565b9050919050565b620005d881620005b9565b8114620005e457600080fd5b50565b600081519050620005f881620005cd565b92915050565b60006200060b826200051b565b9050919050565b6200061d81620005fe565b81146200062957600080fd5b50565b6000815190506200063d8162000612565b92915050565b600062000650826200051b565b9050919050565b620006628162000643565b81146200066e57600080fd5b50565b600081519050620006828162000657565b92915050565b600062000695826200051b565b9050919050565b620006a78162000688565b8114620006b357600080fd5b50565b600081519050620006c7816200069c565b92915050565b60008060008060008060c08789031215620006ed57620006ec620004f6565b5b6000620006fd89828a016200055d565b96505060206200071089828a01620005a2565b95505060406200072389828a01620005e7565b94505060606200073689828a016200062c565b93505060806200074989828a0162000671565b92505060a06200075c89828a01620006b6565b9150509295509295509295565b615d6780620007796000396000f3fe6080604052600436106101665760003560e01c806356cc2999116100d1578063a217fddf1161008a578063dc7151c211610064578063dc7151c21461050e578063ec2606c01461052a578063f8e76cc014610567578063fb2990ad146105a457610166565b8063a217fddf1461047b578063b41c7ae2146104a6578063c4e41b22146104e357610166565b806356cc29991461037f5780636d666b71146103965780636f45e4e5146103d357806375bbeee7146103fe5780638f283970146104155780639963f68b1461043e57610166565b80632308d236116101235780632308d2361461029f578063243adbdd146102c85780632e5bb6ff146102e4578063305a67a81461030d578063442890d51461032957806354b762a61461035457610166565b806301ffc9a71461016b578063107a274a146101a8578063150b7a02146101e55780631ae4a969146102225780631d0b19e71461024d5780631fe5f58914610276575b600080fd5b34801561017757600080fd5b50610192600480360381019061018d9190613ff5565b6105e1565b60405161019f919061403d565b60405180910390f35b3480156101b457600080fd5b506101cf60048036038101906101ca919061408e565b61064b565b6040516101dc91906142d2565b60405180910390f35b3480156101f157600080fd5b5061020c60048036038101906102079190614455565b6107d9565b60405161021991906144e7565b60405180910390f35b34801561022e57600080fd5b506102376107ed565b6040516102449190614511565b60405180910390f35b34801561025957600080fd5b50610274600480360381019061026f919061452c565b61083b565b005b34801561028257600080fd5b5061029d6004803603810190610298919061452c565b610864565b005b3480156102ab57600080fd5b506102c660048036038101906102c1919061452c565b61088d565b005b6102e260048036038101906102dd919061408e565b610910565b005b3480156102f057600080fd5b5061030b6004803603810190610306919061408e565b611280565b005b6103276004803603810190610322919061408e565b61129e565b005b34801561033557600080fd5b5061033e611829565b60405161034b919061457b565b60405180910390f35b34801561036057600080fd5b50610369611853565b6040516103769190614511565b60405180910390f35b34801561038b57600080fd5b5061039461185d565b005b3480156103a257600080fd5b506103bd60048036038101906103b8919061408e565b6118e3565b6040516103ca9190614786565b60405180910390f35b3480156103df57600080fd5b506103e8611ca5565b6040516103f59190614511565b60405180910390f35b34801561040a57600080fd5b50610413611caa565b005b34801561042157600080fd5b5061043c600480360381019061043791906147a8565b611d54565b005b34801561044a57600080fd5b506104656004803603810190610460919061408e565b611dac565b6040516104729190614786565b60405180910390f35b34801561048757600080fd5b5061049061216e565b60405161049d9190614511565b60405180910390f35b3480156104b257600080fd5b506104cd60048036038101906104c891906147a8565b612173565b6040516104da9190614786565b60405180910390f35b3480156104ef57600080fd5b506104f86125cd565b6040516105059190614511565b60405180910390f35b610528600480360381019061052391906147d5565b6125d7565b005b34801561053657600080fd5b50610551600480360381019061054c919061452c565b61325c565b60405161055e919061403d565b60405180910390f35b34801561057357600080fd5b5061058e6004803603810190610589919061408e565b6132c6565b60405161059b919061403d565b60405180910390f35b3480156105b057600080fd5b506105cb60048036038101906105c6919061408e565b6132e9565b6040516105d89190614511565b60405180910390f35b60007f150b7a02000000000000000000000000000000000000000000000000000000007bffffffffffffffffffffffffffffffffffffffffffffffffffffffff1916827bffffffffffffffffffffffffffffffffffffffffffffffffffffffff1916149050919050565b610653613e61565b600d6000838152602001908152602001600020604051806101c001604052908160008201548152602001600182015481526020016002820160009054906101000a900473ffffffffffffffffffffffffffffffffffffffff1673ffffffffffffffffffffffffffffffffffffffff1673ffffffffffffffffffffffffffffffffffffffff1681526020016003820180546106ec9061487f565b80601f01602080910402602001604051908101604052809291908181526020018280546107189061487f565b80156107655780601f1061073a57610100808354040283529160200191610765565b820191906000526020600020905b81548152906001019060200180831161074857829003601f168201915b50505050508152602001600482015481526020016005820154815260200160068201548152602001600782015481526020016008820154815260200160098201548152602001600a8201548152602001600b8201548152602001600c8201548152602001600d820154815250509050919050565b600063150b7a0260e01b9050949350505050565b600080600a5490506000600190505b600a5481116108325761080e816132c6565b61081f578091508192505050610838565b808061082a906148e0565b9150506107fc565b50809150505b90565b610844826132e9565b61085581610850613308565b613310565b61085f83836133aa565b505050565b61086d826132e9565b61087e81610879613308565b613310565b610888838361348b565b505050565b610895613308565b73ffffffffffffffffffffffffffffffffffffffff168173ffffffffffffffffffffffffffffffffffffffff1614610902576040517f08c379a00000000000000000000000000000000000000000000000000000000081526004016108f9906149ac565b60405180910390fd5b61090c82826133aa565b5050565b600560009054906101000a900473ffffffffffffffffffffffffffffffffffffffff1673ffffffffffffffffffffffffffffffffffffffff1663dc82697c6040518163ffffffff1660e01b8152600401602060405180830381865afa15801561097d573d6000803e3d6000fd5b505050506040513d601f19601f820116820180604052508101906109a191906149e1565b3410156109e3576040517f08c379a00000000000000000000000000000000000000000000000000000000081526004016109da90614a5a565b60405180910390fd5b6109ec816132c6565b610a2b576040517f08c379a0000000000000000000000000000000000000000000000000000000008152600401610a2290614ac6565b60405180910390fd5b600d600082815260200190815260200160002060040154600460009054906101000a900473ffffffffffffffffffffffffffffffffffffffff1673ffffffffffffffffffffffffffffffffffffffff1663dd62ed3e33306040518363ffffffff1660e01b8152600401610a9f929190614ae6565b602060405180830381865afa158015610abc573d6000803e3d6000fd5b505050506040513d601f19601f82011682018060405250810190610ae091906149e1565b1015610b21576040517f08c379a0000000000000000000000000000000000000000000000000000000008152600401610b1890614b5b565b60405180910390fd5b600d600082815260200190815260200160002060040154600460009054906101000a900473ffffffffffffffffffffffffffffffffffffffff1673ffffffffffffffffffffffffffffffffffffffff166370a08231336040518263ffffffff1660e01b8152600401610b93919061457b565b602060405180830381865afa158015610bb0573d6000803e3d6000fd5b505050506040513d601f19601f82011682018060405250810190610bd491906149e1565b1015610c15576040517f08c379a0000000000000000000000000000000000000000000000000000000008152600401610c0c90614b5b565b60405180910390fd5b3373ffffffffffffffffffffffffffffffffffffffff16600d600083815260200190815260200160002060020160009054906101000a900473ffffffffffffffffffffffffffffffffffffffff1673ffffffffffffffffffffffffffffffffffffffff161415610cba576040517f08c379a0000000000000000000000000000000000000000000000000000000008152600401610cb190614bc7565b60405180910390fd5b60006064600b54600d600085815260200190815260200160002060040154610ce29190614be7565b610cec9190614c70565b9050600081600d600085815260200190815260200160002060040154610d129190614ca1565b9050600460009054906101000a900473ffffffffffffffffffffffffffffffffffffffff1673ffffffffffffffffffffffffffffffffffffffff166323b872dd33600d600087815260200190815260200160002060020160009054906101000a900473ffffffffffffffffffffffffffffffffffffffff16846040518463ffffffff1660e01b8152600401610da993929190614cd5565b6020604051808303816000875af1158015610dc8573d6000803e3d6000fd5b505050506040513d601f19601f82011682018060405250810190610dec9190614d38565b50600460009054906101000a900473ffffffffffffffffffffffffffffffffffffffff1673ffffffffffffffffffffffffffffffffffffffff166323b872dd33600160009054906101000a900473ffffffffffffffffffffffffffffffffffffffff16856040518463ffffffff1660e01b8152600401610e6e93929190614cd5565b6020604051808303816000875af1158015610e8d573d6000803e3d6000fd5b505050506040513d601f19601f82011682018060405250810190610eb19190614d38565b506001600d6000858152602001908152602001600020600101541415610f7d57600660009054906101000a900473ffffffffffffffffffffffffffffffffffffffff1673ffffffffffffffffffffffffffffffffffffffff166323b872dd3033600d6000888152602001908152602001600020600001546040518463ffffffff1660e01b8152600401610f4693929190614cd5565b600060405180830381600087803b158015610f6057600080fd5b505af1158015610f74573d6000803e3d6000fd5b50505050611246565b6002600d600085815260200190815260200160002060010154141561104857600760009054906101000a900473ffffffffffffffffffffffffffffffffffffffff1673ffffffffffffffffffffffffffffffffffffffff166323b872dd3033600d6000888152602001908152602001600020600001546040518463ffffffff1660e01b815260040161101193929190614cd5565b600060405180830381600087803b15801561102b57600080fd5b505af115801561103f573d6000803e3d6000fd5b50505050611245565b6000600d60008581526020019081526020016000206009015490506000600d6000868152602001908152602001600020600a015490506000600860009054906101000a900473ffffffffffffffffffffffffffffffffffffffff1673ffffffffffffffffffffffffffffffffffffffff1663a65e83c3336040518263ffffffff1660e01b81526004016110db919061457b565b61016060405180830381865afa1580156110f9573d6000803e3d6000fd5b505050506040513d601f19601f8201168201806040525081019061111d9190614e7b565b9050600a83141561114657818160c00181815161113a9190614ea9565b915081815250506111b2565b600b83141561116d57818160e0018181516111619190614ea9565b915081815250506111b1565b600c831415611195578181610100018181516111899190614ea9565b915081815250506111b0565b8181610120018181516111a89190614ea9565b915081815250505b5b5b600860009054906101000a900473ffffffffffffffffffffffffffffffffffffffff1673ffffffffffffffffffffffffffffffffffffffff1663a28fe11333836040518363ffffffff1660e01b815260040161120f929190614fe0565b600060405180830381600087803b15801561122957600080fd5b505af115801561123d573d6000803e3d6000fd5b505050505050505b5b6000600d6000858152602001908152602001600020600c018190555034600360008282546112749190614ea9565b92505081905550505050565b601e6112938161128e613308565b613310565b81600b819055505050565b600560009054906101000a900473ffffffffffffffffffffffffffffffffffffffff1673ffffffffffffffffffffffffffffffffffffffff1663dc82697c6040518163ffffffff1660e01b8152600401602060405180830381865afa15801561130b573d6000803e3d6000fd5b505050506040513d601f19601f8201168201806040525081019061132f91906149e1565b341015611371576040517f08c379a000000000000000000000000000000000000000000000000000000000815260040161136890614a5a565b60405180910390fd5b61137a816132c6565b6113b9576040517f08c379a00000000000000000000000000000000000000000000000000000000081526004016113b090614ac6565b60405180910390fd5b3373ffffffffffffffffffffffffffffffffffffffff16600d600083815260200190815260200160002060020160009054906101000a900473ffffffffffffffffffffffffffffffffffffffff1673ffffffffffffffffffffffffffffffffffffffff161461145d576040517f08c379a000000000000000000000000000000000000000000000000000000000815260040161145490615056565b60405180910390fd5b6001600d600083815260200190815260200160002060010154141561152857600660009054906101000a900473ffffffffffffffffffffffffffffffffffffffff1673ffffffffffffffffffffffffffffffffffffffff166323b872dd3033600d6000868152602001908152602001600020600001546040518463ffffffff1660e01b81526004016114f193929190614cd5565b600060405180830381600087803b15801561150b57600080fd5b505af115801561151f573d6000803e3d6000fd5b505050506117f1565b6002600d60008381526020019081526020016000206001015414156115f357600760009054906101000a900473ffffffffffffffffffffffffffffffffffffffff1673ffffffffffffffffffffffffffffffffffffffff166323b872dd3033600d6000868152602001908152602001600020600001546040518463ffffffff1660e01b81526004016115bc93929190614cd5565b600060405180830381600087803b1580156115d657600080fd5b505af11580156115ea573d6000803e3d6000fd5b505050506117f0565b6000600d60008381526020019081526020016000206009015490506000600d6000848152602001908152602001600020600a015490506000600860009054906101000a900473ffffffffffffffffffffffffffffffffffffffff1673ffffffffffffffffffffffffffffffffffffffff1663a65e83c3336040518263ffffffff1660e01b8152600401611686919061457b565b61016060405180830381865afa1580156116a4573d6000803e3d6000fd5b505050506040513d601f19601f820116820180604052508101906116c89190614e7b565b9050600a8314156116f157818160c0018181516116e59190614ea9565b9150818152505061175d565b600b83141561171857818160e00181815161170c9190614ea9565b9150818152505061175c565b600c831415611740578181610100018181516117349190614ea9565b9150818152505061175b565b8181610120018181516117539190614ea9565b915081815250505b5b5b600860009054906101000a900473ffffffffffffffffffffffffffffffffffffffff1673ffffffffffffffffffffffffffffffffffffffff1663a28fe11333836040518363ffffffff1660e01b81526004016117ba929190614fe0565b600060405180830381600087803b1580156117d457600080fd5b505af11580156117e8573d6000803e3d6000fd5b505050505050505b5b6000600d6000838152602001908152602001600020600c0181905550346003600082825461181f9190614ea9565b9250508190555050565b6000600160009054906101000a900473ffffffffffffffffffffffffffffffffffffffff16905090565b6000600b54905090565b601e6118708161186b613308565b613310565b6000600190505b600a548110156118df5761188a816132c6565b156118cc576001600d60008381526020019081526020016000206001015411156118cb576000600d6000838152602001908152602001600020600c01819055505b5b80806118d7906148e0565b915050611877565b5050565b606060006118ef6125cd565b905060008082141561195957600067ffffffffffffffff8111156119165761191561432a565b5b60405190808252806020026020018201604052801561194f57816020015b61193c613e61565b8152602001906001900390816119345790505b5092505050611ca0565b6000600190505b828110156119bb57611971816132c6565b61197a576119a8565b84600d60008381526020019081526020016000206001015414156119a75781806119a3906148e0565b9250505b5b80806119b3906148e0565b915050611960565b506000811115611c465760008167ffffffffffffffff8111156119e1576119e061432a565b5b604051908082528060200260200182016040528015611a1a57816020015b611a07613e61565b8152602001906001900390816119ff5790505b5090506000611a276125cd565b905060008060009050600191505b8282108015611a4357508481105b15611c3857611a51826132c6565b611a5a57611c25565b87600d6000848152602001908152602001600020600101541415611c2457600d6000838152602001908152602001600020604051806101c001604052908160008201548152602001600182015481526020016002820160009054906101000a900473ffffffffffffffffffffffffffffffffffffffff1673ffffffffffffffffffffffffffffffffffffffff1673ffffffffffffffffffffffffffffffffffffffff168152602001600382018054611b119061487f565b80601f0160208091040260200160405190810160405280929190818152602001828054611b3d9061487f565b8015611b8a5780601f10611b5f57610100808354040283529160200191611b8a565b820191906000526020600020905b815481529060010190602001808311611b6d57829003601f168201915b50505050508152602001600482015481526020016005820154815260200160068201548152602001600782015481526020016008820154815260200160098201548152602001600a8201548152602001600b8201548152602001600c8201548152602001600d82015481525050848281518110611c0a57611c09615076565b5b60200260200101819052508080611c20906148e0565b9150505b5b8180611c30906148e0565b925050611a35565b839650505050505050611ca0565b600067ffffffffffffffff811115611c6157611c6061432a565b5b604051908082528060200260200182016040528015611c9a57816020015b611c87613e61565b815260200190600190039081611c7f5790505b50925050505b919050565b601f81565b601e611cbd81611cb8613308565b613310565b6000339050600060035411611d07576040517f08c379a0000000000000000000000000000000000000000000000000000000008152600401611cfe906150f1565b60405180910390fd5b8073ffffffffffffffffffffffffffffffffffffffff166108fc6003549081150290604051600060405180830381858888f19350505050158015611d4f573d6000803e3d6000fd5b505050565b601e611d6781611d62613308565b613310565b81600160006101000a81548173ffffffffffffffffffffffffffffffffffffffff021916908373ffffffffffffffffffffffffffffffffffffffff1602179055505050565b60606000611db86125cd565b9050600080821415611e2257600067ffffffffffffffff811115611ddf57611dde61432a565b5b604051908082528060200260200182016040528015611e1857816020015b611e05613e61565b815260200190600190039081611dfd5790505b5092505050612169565b6000600190505b82811015611e8457611e3a816132c6565b611e4357611e71565b84600d6000838152602001908152602001600020600801541415611e70578180611e6c906148e0565b9250505b5b8080611e7c906148e0565b915050611e29565b50600081111561210f5760008167ffffffffffffffff811115611eaa57611ea961432a565b5b604051908082528060200260200182016040528015611ee357816020015b611ed0613e61565b815260200190600190039081611ec85790505b5090506000611ef06125cd565b905060008060009050600191505b8282108015611f0c57508481105b1561210157611f1a826132c6565b611f23576120ee565b87600d60008481526020019081526020016000206008015414156120ed57600d6000838152602001908152602001600020604051806101c001604052908160008201548152602001600182015481526020016002820160009054906101000a900473ffffffffffffffffffffffffffffffffffffffff1673ffffffffffffffffffffffffffffffffffffffff1673ffffffffffffffffffffffffffffffffffffffff168152602001600382018054611fda9061487f565b80601f01602080910402602001604051908101604052809291908181526020018280546120069061487f565b80156120535780601f1061202857610100808354040283529160200191612053565b820191906000526020600020905b81548152906001019060200180831161203657829003601f168201915b50505050508152602001600482015481526020016005820154815260200160068201548152602001600782015481526020016008820154815260200160098201548152602001600a8201548152602001600b8201548152602001600c8201548152602001600d820154815250508482815181106120d3576120d2615076565b5b602002602001018190525080806120e9906148e0565b9150505b5b81806120f9906148e0565b925050611efe565b839650505050505050612169565b600067ffffffffffffffff81111561212a5761212961432a565b5b60405190808252806020026020018201604052801561216357816020015b612150613e61565b8152602001906001900390816121485790505b50925050505b919050565b601e81565b6060600061217f6125cd565b90506000808214156121e957600067ffffffffffffffff8111156121a6576121a561432a565b5b6040519080825280602002602001820160405280156121df57816020015b6121cc613e61565b8152602001906001900390816121c45790505b50925050506125c8565b6000600190505b8281101561229757612201816132c6565b61220a57612284565b8473ffffffffffffffffffffffffffffffffffffffff16600d600083815260200190815260200160002060020160009054906101000a900473ffffffffffffffffffffffffffffffffffffffff1673ffffffffffffffffffffffffffffffffffffffff16141561228357818061227f906148e0565b9250505b5b808061228f906148e0565b9150506121f0565b50600081111561256e5760008167ffffffffffffffff8111156122bd576122bc61432a565b5b6040519080825280602002602001820160405280156122f657816020015b6122e3613e61565b8152602001906001900390816122db5790505b50905060006123036125cd565b905060008060009050600191505b828210801561231f57508481105b156125605761232d826132c6565b6123365761254d565b8773ffffffffffffffffffffffffffffffffffffffff16600d600084815260200190815260200160002060020160009054906101000a900473ffffffffffffffffffffffffffffffffffffffff1673ffffffffffffffffffffffffffffffffffffffff16141561254c57600d6000838152602001908152602001600020604051806101c001604052908160008201548152602001600182015481526020016002820160009054906101000a900473ffffffffffffffffffffffffffffffffffffffff1673ffffffffffffffffffffffffffffffffffffffff1673ffffffffffffffffffffffffffffffffffffffff1681526020016003820180546124399061487f565b80601f01602080910402602001604051908101604052809291908181526020018280546124659061487f565b80156124b25780601f10612487576101008083540402835291602001916124b2565b820191906000526020600020905b81548152906001019060200180831161249557829003601f168201915b50505050508152602001600482015481526020016005820154815260200160068201548152602001600782015481526020016008820154815260200160098201548152602001600a8201548152602001600b8201548152602001600c8201548152602001600d8201548152505084828151811061253257612531615076565b5b60200260200101819052508080612548906148e0565b9150505b5b8180612558906148e0565b925050612311565b8396505050505050506125c8565b600067ffffffffffffffff8111156125895761258861432a565b5b6040519080825280602002602001820160405280156125c257816020015b6125af613e61565b8152602001906001900390816125a75790505b50925050505b919050565b6000600a54905090565b600560009054906101000a900473ffffffffffffffffffffffffffffffffffffffff1673ffffffffffffffffffffffffffffffffffffffff1663dc82697c6040518163ffffffff1660e01b8152600401602060405180830381865afa158015612644573d6000803e3d6000fd5b505050506040513d601f19601f8201168201806040525081019061266891906149e1565b3410156126aa576040517f08c379a00000000000000000000000000000000000000000000000000000000081526004016126a190614a5a565b60405180910390fd5b60018214806126b95750600282145b806126c45750600382145b612703576040517f08c379a00000000000000000000000000000000000000000000000000000000081526004016126fa9061515d565b60405180910390fd5b60008111612746576040517f08c379a000000000000000000000000000000000000000000000000000000000815260040161273d9061515d565b60405180910390fd5b60006001831415612abb573373ffffffffffffffffffffffffffffffffffffffff16600660009054906101000a900473ffffffffffffffffffffffffffffffffffffffff1673ffffffffffffffffffffffffffffffffffffffff16636352211e886040518263ffffffff1660e01b81526004016127c39190614511565b602060405180830381865afa1580156127e0573d6000803e3d6000fd5b505050506040513d601f19601f820116820180604052508101906128049190615192565b73ffffffffffffffffffffffffffffffffffffffff161461285a576040517f08c379a00000000000000000000000000000000000000000000000000000000081526004016128519061520b565b60405180910390fd5b6000600660009054906101000a900473ffffffffffffffffffffffffffffffffffffffff1673ffffffffffffffffffffffffffffffffffffffff1663dabb0531886040518263ffffffff1660e01b81526004016128b79190614511565b600060405180830381865afa1580156128d4573d6000803e3d6000fd5b505050506040513d6000823e3d601f19601f820116820180604052508101906128fd91906155c2565b9050600081610360015114612947576040517f08c379a000000000000000000000000000000000000000000000000000000000815260040161293e90615657565b60405180910390fd5b600660009054906101000a900473ffffffffffffffffffffffffffffffffffffffff1673ffffffffffffffffffffffffffffffffffffffff1663e985e9c533306040518363ffffffff1660e01b81526004016129a4929190614ae6565b602060405180830381865afa1580156129c1573d6000803e3d6000fd5b505050506040513d601f19601f820116820180604052508101906129e59190614d38565b612a24576040517f08c379a0000000000000000000000000000000000000000000000000000000008152600401612a1b90614b5b565b60405180910390fd5b600660009054906101000a900473ffffffffffffffffffffffffffffffffffffffff1673ffffffffffffffffffffffffffffffffffffffff166323b872dd33308a6040518463ffffffff1660e01b8152600401612a8393929190614cd5565b600060405180830381600087803b158015612a9d57600080fd5b505af1158015612ab1573d6000803e3d6000fd5b50505050506131d5565b6002831415612e9d573373ffffffffffffffffffffffffffffffffffffffff16600760009054906101000a900473ffffffffffffffffffffffffffffffffffffffff1673ffffffffffffffffffffffffffffffffffffffff16636352211e886040518263ffffffff1660e01b8152600401612b369190614511565b602060405180830381865afa158015612b53573d6000803e3d6000fd5b505050506040513d601f19601f82011682018060405250810190612b779190615192565b73ffffffffffffffffffffffffffffffffffffffff1614612bcd576040517f08c379a0000000000000000000000000000000000000000000000000000000008152600401612bc49061520b565b60405180910390fd5b6000600760009054906101000a900473ffffffffffffffffffffffffffffffffffffffff1673ffffffffffffffffffffffffffffffffffffffff166394f13f4a886040518263ffffffff1660e01b8152600401612c2a9190614511565b600060405180830381865afa158015612c47573d6000803e3d6000fd5b505050506040513d6000823e3d601f19601f82011682018060405250810190612c7091906157cb565b9050600081610120015110158015612c8e5750600981610120015111155b612ccd576040517f08c379a0000000000000000000000000000000000000000000000000000000008152600401612cc490615860565b60405180910390fd5b600981610120015111612d215780610160015115612d20576040517f08c379a0000000000000000000000000000000000000000000000000000000008152600401612d17906158cc565b60405180910390fd5b5b600760009054906101000a900473ffffffffffffffffffffffffffffffffffffffff1673ffffffffffffffffffffffffffffffffffffffff1663e985e9c533306040518363ffffffff1660e01b8152600401612d7e929190614ae6565b602060405180830381865afa158015612d9b573d6000803e3d6000fd5b505050506040513d601f19601f82011682018060405250810190612dbf9190614d38565b612dfe576040517f08c379a0000000000000000000000000000000000000000000000000000000008152600401612df590614b5b565b60405180910390fd5b600760009054906101000a900473ffffffffffffffffffffffffffffffffffffffff1673ffffffffffffffffffffffffffffffffffffffff166323b872dd33308a6040518463ffffffff1660e01b8152600401612e5d93929190614cd5565b600060405180830381600087803b158015612e7757600080fd5b505af1158015612e8b573d6000803e3d6000fd5b505050508061012001519150506131d4565b600a8510158015612eaf5750600d8511155b612eee576040517f08c379a0000000000000000000000000000000000000000000000000000000008152600401612ee590615938565b60405180910390fd5b8490506000600860009054906101000a900473ffffffffffffffffffffffffffffffffffffffff1673ffffffffffffffffffffffffffffffffffffffff1663a65e83c3336040518263ffffffff1660e01b8152600401612f4e919061457b565b61016060405180830381865afa158015612f6c573d6000803e3d6000fd5b505050506040513d601f19601f82011682018060405250810190612f909190614e7b565b9050600a82141561300057848160c001511015612fe2576040517f08c379a0000000000000000000000000000000000000000000000000000000008152600401612fd9906159a4565b60405180910390fd5b848160c001818151612ff49190614ca1565b91508181525050613143565b600b82141561306e57848160e001511015613050576040517f08c379a0000000000000000000000000000000000000000000000000000000008152600401613047906159a4565b60405180910390fd5b848160e0018181516130629190614ca1565b91508181525050613142565b600c8214156130de578481610100015110156130bf576040517f08c379a00000000000000000000000000000000000000000000000000000000081526004016130b6906159a4565b60405180910390fd5b8481610100018181516130d29190614ca1565b91508181525050613141565b848161012001511015613126576040517f08c379a000000000000000000000000000000000000000000000000000000000815260040161311d906159a4565b60405180910390fd5b8481610120018181516131399190614ca1565b915081815250505b5b5b600860009054906101000a900473ffffffffffffffffffffffffffffffffffffffff1673ffffffffffffffffffffffffffffffffffffffff1663a28fe11333836040518363ffffffff1660e01b81526004016131a0929190614fe0565b600060405180830381600087803b1580156131ba57600080fd5b505af11580156131ce573d6000803e3d6000fd5b50505050505b5b60006131e633888686868b8b61356b565b9050803373ffffffffffffffffffffffffffffffffffffffff16887f7157766d6bfa7c23edd2d2b8ca7765e17bd2993f47f23a1558a68516f5988d1a87876040516132329291906159c4565b60405180910390a4346003600082825461324c9190614ea9565b9250508190555050505050505050565b600080600084815260200190815260200160002060000160008373ffffffffffffffffffffffffffffffffffffffff1673ffffffffffffffffffffffffffffffffffffffff16815260200190815260200160002060009054906101000a900460ff16905092915050565b60006001600d6000848152602001908152602001600020600c0154149050919050565b6000806000838152602001908152602001600020600101549050919050565b600033905090565b61331a828261325c565b6133a65761333f8173ffffffffffffffffffffffffffffffffffffffff166014613c25565b61334a836020613c25565b60405160200161335b929190615ac1565b6040516020818303038152906040526040517f08c379a000000000000000000000000000000000000000000000000000000000815260040161339d9190615b34565b60405180910390fd5b5050565b6133b4828261325c565b1561348757600080600084815260200190815260200160002060000160008373ffffffffffffffffffffffffffffffffffffffff1673ffffffffffffffffffffffffffffffffffffffff16815260200190815260200160002060006101000a81548160ff02191690831515021790555061342c613308565b73ffffffffffffffffffffffffffffffffffffffff168173ffffffffffffffffffffffffffffffffffffffff16837fe0df21b65c73c27081b8f042a012b124085b41d78d27b7e3c4780f5650f5ebb860405160405180910390a45b5050565b613495828261325c565b61356757600160008084815260200190815260200160002060000160008373ffffffffffffffffffffffffffffffffffffffff1673ffffffffffffffffffffffffffffffffffffffff16815260200190815260200160002060006101000a81548160ff02191690831515021790555061350c613308565b73ffffffffffffffffffffffffffffffffffffffff168173ffffffffffffffffffffffffffffffffffffffff16837f1ec1667fba5e43c5c76fff54e76d7a4a20a4fecf7b49724ad8d52a3f726e9dbd60405160405180910390a45b5050565b6000806135766107ed565b905060018714156137a9576000600660009054906101000a900473ffffffffffffffffffffffffffffffffffffffff1673ffffffffffffffffffffffffffffffffffffffff1663dabb05318a6040518263ffffffff1660e01b81526004016135de9190614511565b600060405180830381865afa1580156135fb573d6000803e3d6000fd5b505050506040513d6000823e3d601f19601f8201168201806040525081019061362491906155c2565b9050604051806101c001604052808a81526020018981526020018b73ffffffffffffffffffffffffffffffffffffffff1681526020018260000151815260200188815260200182604001518152602001826020015181526020018260a0015181526020018781526020018681526020018581526020014281526020016001815260200183815250600d6000848152602001908152602001600020600082015181600001556020820151816001015560408201518160020160006101000a81548173ffffffffffffffffffffffffffffffffffffffff021916908373ffffffffffffffffffffffffffffffffffffffff1602179055506060820151816003019080519060200190613735929190613ee6565b506080820151816004015560a0820151816005015560c0820151816006015560e082015181600701556101008201518160080155610120820151816009015561014082015181600a015561016082015181600b015561018082015181600c01556101a082015181600d015590505050613bf3565b60028714156139d7576000600760009054906101000a900473ffffffffffffffffffffffffffffffffffffffff1673ffffffffffffffffffffffffffffffffffffffff166394f13f4a8a6040518263ffffffff1660e01b815260040161380f9190614511565b600060405180830381865afa15801561382c573d6000803e3d6000fd5b505050506040513d6000823e3d601f19601f8201168201806040525081019061385591906157cb565b9050604051806101c001604052808a81526020018981526020018b73ffffffffffffffffffffffffffffffffffffffff168152602001826000015181526020018881526020018260200151815260200160008152602001826060015181526020018781526020018681526020018581526020014281526020016001815260200183815250600d6000848152602001908152602001600020600082015181600001556020820151816001015560408201518160020160006101000a81548173ffffffffffffffffffffffffffffffffffffffff021916908373ffffffffffffffffffffffffffffffffffffffff1602179055506060820151816003019080519060200190613963929190613ee6565b506080820151816004015560a0820151816005015560c0820151816006015560e082015181600701556101008201518160080155610120820151816009015561014082015181600a015561016082015181600b015561018082015181600c01556101a082015181600d015590505050613bf2565b6000600960009054906101000a900473ffffffffffffffffffffffffffffffffffffffff1673ffffffffffffffffffffffffffffffffffffffff16635c8ced3c866040518263ffffffff1660e01b8152600401613a349190614511565b600060405180830381865afa158015613a51573d6000803e3d6000fd5b505050506040513d6000823e3d601f19601f82011682018060405250810190613a7a9190615c52565b9050604051806101c001604052808a81526020018981526020018b73ffffffffffffffffffffffffffffffffffffffff168152602001826000015181526020018881526020016000815260200160008152602001600081526020018781526020018681526020018581526020014281526020016001815260200183815250600d6000848152602001908152602001600020600082015181600001556020820151816001015560408201518160020160006101000a81548173ffffffffffffffffffffffffffffffffffffffff021916908373ffffffffffffffffffffffffffffffffffffffff1602179055506060820151816003019080519060200190613b82929190613ee6565b506080820151816004015560a0820151816005015560c0820151816006015560e082015181600701556101008201518160080155610120820151816009015561014082015181600a015561016082015181600b015561018082015181600c01556101a082015181600d0155905050505b5b600a54811415613c1657600a6000815480929190613c10906148e0565b91905055505b80915050979650505050505050565b606060006002836002613c389190614be7565b613c429190614ea9565b67ffffffffffffffff811115613c5b57613c5a61432a565b5b6040519080825280601f01601f191660200182016040528015613c8d5781602001600182028036833780820191505090505b5090507f300000000000000000000000000000000000000000000000000000000000000081600081518110613cc557613cc4615076565b5b60200101907effffffffffffffffffffffffffffffffffffffffffffffffffffffffffffff1916908160001a9053507f780000000000000000000000000000000000000000000000000000000000000081600181518110613d2957613d28615076565b5b60200101907effffffffffffffffffffffffffffffffffffffffffffffffffffffffffffff1916908160001a90535060006001846002613d699190614be7565b613d739190614ea9565b90505b6001811115613e13577f3031323334353637383961626364656600000000000000000000000000000000600f861660108110613db557613db4615076565b5b1a60f81b828281518110613dcc57613dcb615076565b5b60200101907effffffffffffffffffffffffffffffffffffffffffffffffffffffffffffff1916908160001a905350600485901c945080613e0c90615c9b565b9050613d76565b5060008414613e57576040517f08c379a0000000000000000000000000000000000000000000000000000000008152600401613e4e90615d11565b60405180910390fd5b8091505092915050565b604051806101c001604052806000815260200160008152602001600073ffffffffffffffffffffffffffffffffffffffff16815260200160608152602001600081526020016000815260200160008152602001600081526020016000815260200160008152602001600081526020016000815260200160008152602001600081525090565b828054613ef29061487f565b90600052602060002090601f016020900481019282613f145760008555613f5b565b82601f10613f2d57805160ff1916838001178555613f5b565b82800160010185558215613f5b579182015b82811115613f5a578251825591602001919060010190613f3f565b5b509050613f689190613f6c565b5090565b5b80821115613f85576000816000905550600101613f6d565b5090565b6000604051905090565b600080fd5b600080fd5b60007fffffffff0000000000000000000000000000000000000000000000000000000082169050919050565b613fd281613f9d565b8114613fdd57600080fd5b50565b600081359050613fef81613fc9565b92915050565b60006020828403121561400b5761400a613f93565b5b600061401984828501613fe0565b91505092915050565b60008115159050919050565b61403781614022565b82525050565b6000602082019050614052600083018461402e565b92915050565b6000819050919050565b61406b81614058565b811461407657600080fd5b50565b60008135905061408881614062565b92915050565b6000602082840312156140a4576140a3613f93565b5b60006140b284828501614079565b91505092915050565b6140c481614058565b82525050565b600073ffffffffffffffffffffffffffffffffffffffff82169050919050565b60006140f5826140ca565b9050919050565b614105816140ea565b82525050565b600081519050919050565b600082825260208201905092915050565b60005b8381101561414557808201518184015260208101905061412a565b83811115614154576000848401525b50505050565b6000601f19601f8301169050919050565b60006141768261410b565b6141808185614116565b9350614190818560208601614127565b6141998161415a565b840191505092915050565b60006101c0830160008301516141bd60008601826140bb565b5060208301516141d060208601826140bb565b5060408301516141e360408601826140fc565b50606083015184820360608601526141fb828261416b565b915050608083015161421060808601826140bb565b5060a083015161422360a08601826140bb565b5060c083015161423660c08601826140bb565b5060e083015161424960e08601826140bb565b5061010083015161425e6101008601826140bb565b506101208301516142736101208601826140bb565b506101408301516142886101408601826140bb565b5061016083015161429d6101608601826140bb565b506101808301516142b26101808601826140bb565b506101a08301516142c76101a08601826140bb565b508091505092915050565b600060208201905081810360008301526142ec81846141a4565b905092915050565b6142fd816140ea565b811461430857600080fd5b50565b60008135905061431a816142f4565b92915050565b600080fd5b600080fd5b7f4e487b7100000000000000000000000000000000000000000000000000000000600052604160045260246000fd5b6143628261415a565b810181811067ffffffffffffffff821117156143815761438061432a565b5b80604052505050565b6000614394613f89565b90506143a08282614359565b919050565b600067ffffffffffffffff8211156143c0576143bf61432a565b5b6143c98261415a565b9050602081019050919050565b82818337600083830152505050565b60006143f86143f3846143a5565b61438a565b90508281526020810184848401111561441457614413614325565b5b61441f8482856143d6565b509392505050565b600082601f83011261443c5761443b614320565b5b813561444c8482602086016143e5565b91505092915050565b6000806000806080858703121561446f5761446e613f93565b5b600061447d8782880161430b565b945050602061448e8782880161430b565b935050604061449f87828801614079565b925050606085013567ffffffffffffffff8111156144c0576144bf613f98565b5b6144cc87828801614427565b91505092959194509250565b6144e181613f9d565b82525050565b60006020820190506144fc60008301846144d8565b92915050565b61450b81614058565b82525050565b60006020820190506145266000830184614502565b92915050565b6000806040838503121561454357614542613f93565b5b600061455185828601614079565b92505060206145628582860161430b565b9150509250929050565b614575816140ea565b82525050565b6000602082019050614590600083018461456c565b92915050565b600081519050919050565b600082825260208201905092915050565b6000819050602082019050919050565b60006101c0830160008301516145db60008601826140bb565b5060208301516145ee60208601826140bb565b50604083015161460160408601826140fc565b5060608301518482036060860152614619828261416b565b915050608083015161462e60808601826140bb565b5060a083015161464160a08601826140bb565b5060c083015161465460c08601826140bb565b5060e083015161466760e08601826140bb565b5061010083015161467c6101008601826140bb565b506101208301516146916101208601826140bb565b506101408301516146a66101408601826140bb565b506101608301516146bb6101608601826140bb565b506101808301516146d06101808601826140bb565b506101a08301516146e56101a08601826140bb565b508091505092915050565b60006146fc83836145c2565b905092915050565b6000602082019050919050565b600061471c82614596565b61472681856145a1565b935083602082028501614738856145b2565b8060005b85811015614774578484038952815161475585826146f0565b945061476083614704565b925060208a0199505060018101905061473c565b50829750879550505050505092915050565b600060208201905081810360008301526147a08184614711565b905092915050565b6000602082840312156147be576147bd613f93565b5b60006147cc8482850161430b565b91505092915050565b600080600080600060a086880312156147f1576147f0613f93565b5b60006147ff88828901614079565b955050602061481088828901614079565b945050604061482188828901614079565b935050606061483288828901614079565b925050608061484388828901614079565b9150509295509295909350565b7f4e487b7100000000000000000000000000000000000000000000000000000000600052602260045260246000fd5b6000600282049050600182168061489757607f821691505b602082108114156148ab576148aa614850565b5b50919050565b7f4e487b7100000000000000000000000000000000000000000000000000000000600052601160045260246000fd5b60006148eb82614058565b91507fffffffffffffffffffffffffffffffffffffffffffffffffffffffffffffffff82141561491e5761491d6148b1565b5b600182019050919050565b600082825260208201905092915050565b7f416363657373436f6e74726f6c3a2063616e206f6e6c792072656e6f756e636560008201527f20726f6c657320666f722073656c660000000000000000000000000000000000602082015250565b6000614996602f83614929565b91506149a18261493a565b604082019050919050565b600060208201905081810360008301526149c581614989565b9050919050565b6000815190506149db81614062565b92915050565b6000602082840312156149f7576149f6613f93565b5b6000614a05848285016149cc565b91505092915050565b7f496e636f72726563742056616c75650000000000000000000000000000000000600082015250565b6000614a44600f83614929565b9150614a4f82614a0e565b602082019050919050565b60006020820190508181036000830152614a7381614a37565b9050919050565b7f5265717569726520457869737473000000000000000000000000000000000000600082015250565b6000614ab0600e83614929565b9150614abb82614a7a565b602082019050919050565b60006020820190508181036000830152614adf81614aa3565b9050919050565b6000604082019050614afb600083018561456c565b614b08602083018461456c565b9392505050565b7f5265717569726520417070726f76616c00000000000000000000000000000000600082015250565b6000614b45601083614929565b9150614b5082614b0f565b602082019050919050565b60006020820190508181036000830152614b7481614b38565b9050919050565b7f4e6f2062757920746f20796f757273656c660000000000000000000000000000600082015250565b6000614bb1601283614929565b9150614bbc82614b7b565b602082019050919050565b60006020820190508181036000830152614be081614ba4565b9050919050565b6000614bf282614058565b9150614bfd83614058565b9250817fffffffffffffffffffffffffffffffffffffffffffffffffffffffffffffffff0483118215151615614c3657614c356148b1565b5b828202905092915050565b7f4e487b7100000000000000000000000000000000000000000000000000000000600052601260045260246000fd5b6000614c7b82614058565b9150614c8683614058565b925082614c9657614c95614c41565b5b828204905092915050565b6000614cac82614058565b9150614cb783614058565b925082821015614cca57614cc96148b1565b5b828203905092915050565b6000606082019050614cea600083018661456c565b614cf7602083018561456c565b614d046040830184614502565b949350505050565b614d1581614022565b8114614d2057600080fd5b50565b600081519050614d3281614d0c565b92915050565b600060208284031215614d4e57614d4d613f93565b5b6000614d5c84828501614d23565b91505092915050565b600080fd5b600080fd5b60006101608284031215614d8657614d85614d65565b5b614d9161016061438a565b90506000614da1848285016149cc565b6000830152506020614db5848285016149cc565b6020830152506040614dc9848285016149cc565b6040830152506060614ddd848285016149cc565b6060830152506080614df1848285016149cc565b60808301525060a0614e05848285016149cc565b60a08301525060c0614e19848285016149cc565b60c08301525060e0614e2d848285016149cc565b60e083015250610100614e42848285016149cc565b61010083015250610120614e58848285016149cc565b61012083015250610140614e6e848285016149cc565b6101408301525092915050565b60006101608284031215614e9257614e91613f93565b5b6000614ea084828501614d6f565b91505092915050565b6000614eb482614058565b9150614ebf83614058565b9250827fffffffffffffffffffffffffffffffffffffffffffffffffffffffffffffffff03821115614ef457614ef36148b1565b5b828201905092915050565b61016082016000820151614f1660008501826140bb565b506020820151614f2960208501826140bb565b506040820151614f3c60408501826140bb565b506060820151614f4f60608501826140bb565b506080820151614f6260808501826140bb565b5060a0820151614f7560a08501826140bb565b5060c0820151614f8860c08501826140bb565b5060e0820151614f9b60e08501826140bb565b50610100820151614fb06101008501826140bb565b50610120820151614fc56101208501826140bb565b50610140820151614fda6101408501826140bb565b50505050565b600061018082019050614ff6600083018561456c565b6150036020830184614eff565b9392505050565b7f52657175697265204f776e6572206f73206c697374696e670000000000000000600082015250565b6000615040601883614929565b915061504b8261500a565b602082019050919050565b6000602082019050818103600083015261506f81615033565b9050919050565b7f4e487b7100000000000000000000000000000000000000000000000000000000600052603260045260246000fd5b7f496e73756666696369656e742042616c616e6365000000000000000000000000600082015250565b60006150db601483614929565b91506150e6826150a5565b602082019050919050565b6000602082019050818103600083015261510a816150ce565b9050919050565b7f496e636f727265637420496e7075740000000000000000000000000000000000600082015250565b6000615147600f83614929565b915061515282615111565b602082019050919050565b600060208201905081810360008301526151768161513a565b9050919050565b60008151905061518c816142f4565b92915050565b6000602082840312156151a8576151a7613f93565b5b60006151b68482850161517d565b91505092915050565b7f52657175697265204f776e657200000000000000000000000000000000000000600082015250565b60006151f5600d83614929565b9150615200826151bf565b602082019050919050565b60006020820190508181036000830152615224816151e8565b9050919050565b600067ffffffffffffffff8211156152465761524561432a565b5b61524f8261415a565b9050602081019050919050565b600061526f61526a8461522b565b61438a565b90508281526020810184848401111561528b5761528a614325565b5b615296848285614127565b509392505050565b600082601f8301126152b3576152b2614320565b5b81516152c384826020860161525c565b91505092915050565b600061040082840312156152e3576152e2614d65565b5b6152ee61040061438a565b9050600082015167ffffffffffffffff81111561530e5761530d614d6a565b5b61531a8482850161529e565b600083015250602061532e848285016149cc565b6020830152506040615342848285016149cc565b6040830152506060615356848285016149cc565b606083015250608061536a848285016149cc565b60808301525060a061537e848285016149cc565b60a08301525060c0615392848285016149cc565b60c08301525060e06153a6848285016149cc565b60e0830152506101006153bb848285016149cc565b610100830152506101206153d1848285016149cc565b610120830152506101406153e7848285016149cc565b610140830152506101606153fd848285016149cc565b61016083015250610180615413848285016149cc565b610180830152506101a0615429848285016149cc565b6101a0830152506101c061543f848285016149cc565b6101c0830152506101e0615455848285016149cc565b6101e08301525061020061546b848285016149cc565b61020083015250610220615481848285016149cc565b61022083015250610240615497848285016149cc565b610240830152506102606154ad848285016149cc565b610260830152506102806154c3848285016149cc565b610280830152506102a06154d9848285016149cc565b6102a0830152506102c06154ef848285016149cc565b6102c0830152506102e0615505848285016149cc565b6102e08301525061030061551b848285016149cc565b61030083015250610320615531848285016149cc565b61032083015250610340615547848285016149cc565b6103408301525061036061555d848285016149cc565b61036083015250610380615573848285016149cc565b610380830152506103a0615589848285016149cc565b6103a0830152506103c061559f8482850161517d565b6103c0830152506103e06155b5848285016149cc565b6103e08301525092915050565b6000602082840312156155d8576155d7613f93565b5b600082015167ffffffffffffffff8111156155f6576155f5613f98565b5b615602848285016152cc565b91505092915050565b7f43686172616374657220696e20536561736f6e00000000000000000000000000600082015250565b6000615641601383614929565b915061564c8261560b565b602082019050919050565b6000602082019050818103600083015261567081615634565b9050919050565b60006101a0828403121561568e5761568d614d65565b5b6156996101a061438a565b9050600082015167ffffffffffffffff8111156156b9576156b8614d6a565b5b6156c58482850161529e565b60008301525060206156d9848285016149cc565b60208301525060406156ed848285016149cc565b6040830152506060615701848285016149cc565b6060830152506080615715848285016149cc565b60808301525060a0615729848285016149cc565b60a08301525060c061573d848285016149cc565b60c08301525060e0615751848285016149cc565b60e0830152506101006157668482850161517d565b6101008301525061012061577c848285016149cc565b61012083015250610140615792848285016149cc565b610140830152506101606157a884828501614d23565b610160830152506101806157be848285016149cc565b6101808301525092915050565b6000602082840312156157e1576157e0613f93565b5b600082015167ffffffffffffffff8111156157ff576157fe613f98565b5b61580b84828501615677565b91505092915050565b7f496e636f7272656374204974656d000000000000000000000000000000000000600082015250565b600061584a600e83614929565b915061585582615814565b602082019050919050565b600060208201905081810360008301526158798161583d565b9050919050565b7f6e6f206571756970656420776561706f6e730000000000000000000000000000600082015250565b60006158b6601283614929565b91506158c182615880565b602082019050919050565b600060208201905081810360008301526158e5816158a9565b9050919050565b7f496e636f72726563742044727567000000000000000000000000000000000000600082015250565b6000615922600e83614929565b915061592d826158ec565b602082019050919050565b6000602082019050818103600083015261595181615915565b9050919050565b7f496e73737566696369656e742062616c616e6365000000000000000000000000600082015250565b600061598e601483614929565b915061599982615958565b602082019050919050565b600060208201905081810360008301526159bd81615981565b9050919050565b60006040820190506159d96000830185614502565b6159e66020830184614502565b9392505050565b600081905092915050565b7f416363657373436f6e74726f6c3a206163636f756e7420000000000000000000600082015250565b6000615a2e6017836159ed565b9150615a39826159f8565b601782019050919050565b6000615a4f8261410b565b615a5981856159ed565b9350615a69818560208601614127565b80840191505092915050565b7f206973206d697373696e6720726f6c6520000000000000000000000000000000600082015250565b6000615aab6011836159ed565b9150615ab682615a75565b601182019050919050565b6000615acc82615a21565b9150615ad88285615a44565b9150615ae382615a9e565b9150615aef8284615a44565b91508190509392505050565b6000615b068261410b565b615b108185614929565b9350615b20818560208601614127565b615b298161415a565b840191505092915050565b60006020820190508181036000830152615b4e8184615afb565b905092915050565b60006101208284031215615b6d57615b6c614d65565b5b615b7861012061438a565b9050600082015167ffffffffffffffff811115615b9857615b97614d6a565b5b615ba48482850161529e565b6000830152506020615bb8848285016149cc565b6020830152506040615bcc848285016149cc565b6040830152506060615be0848285016149cc565b6060830152506080615bf4848285016149cc565b60808301525060a0615c08848285016149cc565b60a08301525060c0615c1c848285016149cc565b60c08301525060e0615c30848285016149cc565b60e083015250610100615c4584828501614d23565b6101008301525092915050565b600060208284031215615c6857615c67613f93565b5b600082015167ffffffffffffffff811115615c8657615c85613f98565b5b615c9284828501615b56565b91505092915050565b6000615ca682614058565b91506000821415615cba57615cb96148b1565b5b600182039050919050565b7f537472696e67733a20686578206c656e67746820696e73756666696369656e74600082015250565b6000615cfb602083614929565b9150615d0682615cc5565b602082019050919050565b60006020820190508181036000830152615d2a81615cee565b905091905056fea2646970667358221220033776d613243aa5f4a02acc92e3a6da9f7d7dacaa7f54656aa8ac96b27b16d064736f6c634300080a0033",
  "immutableReferences": {},
  "source": "// SPDX-License-Identifier: UNLICENSED\r\npragma solidity >=0.4.22 <0.9.0;\r\n\r\n/**\r\n * @title SampleBEP20Token\r\n * @dev Very simple BEP20 Token example, where all tokens are pre-assigned to the creator.\r\n * Note they can later distribute these tokens as they wish using `transfer` and other\r\n * `BEP20` functions.\r\n * USE IT ONLY FOR LEARNING PURPOSES. SHOULD BE MODIFIED FOR PRODUCTION\r\n */\r\n\r\nimport \"../node_modules/@openzeppelin/contracts/token/ERC721/IERC721Receiver.sol\";\r\nimport \"./utils/Admin.sol\";\r\nimport \"./utils/Utils.sol\";\r\nimport \"./utils/ItemList.sol\";\r\nimport \"./tokens/GANG.sol\";\r\nimport \"./tokens/Character.sol\";\r\nimport \"./tokens/GameItem.sol\";\r\nimport \"./CoreInGame.sol\";\r\n\r\nstruct Listing\r\n{\r\n    uint256 tokenId;\r\n    uint256 nftType;\r\n    address owner; //stamina, fixo, usa  \r\n    string name;\r\n    uint256 price;\r\n    uint256 rarity;\r\n    uint256 class;\r\n    uint256 power;\r\n    uint256 itemId;\r\n    uint256 drugId;\r\n    uint256 quantity;\r\n    uint256 time;\r\n    uint256 active;\r\n    uint256 listingId;\r\n}\r\n\r\ncontract MarketPlace is Admin, IERC721Receiver {\r\n    address private _contractowner;\r\n    address private _secondowner;\r\n\r\n    uint256 private bnbBalance;\r\n\r\n    GANG private gangToken;\r\n    Utils private utils;\r\n    Character private crimeChar;\r\n    GameItem private crimeItem;\r\n    CoreInGame private game;\r\n    ItemList private itemList;\r\n    \r\n    uint256 private nextId = 1;\r\n\r\n    uint256 private Tax = 5;\r\n    bool private Initialized;\r\n    \r\n    mapping(uint256 => Listing) private _Listings;\r\n\r\n    event NewListing(\r\n        uint256 indexed tokenId,\r\n        uint256 nftType,\r\n        address indexed seller,\r\n        uint256 price,\r\n        uint256 indexed _listingId\r\n    );\r\n\r\n    constructor(GANG _gang, Utils _utils, Character _char, GameItem _item, CoreInGame _core, ItemList _itemList) Admin()\r\n    {\r\n        _contractowner = msg.sender;\r\n        _secondowner = address(0xbf752Eb4b851B241A36e22767b304ef28242198A);\r\n        bnbBalance = 0;\r\n        gangToken = _gang;\r\n        utils = _utils;\r\n        crimeChar = _char;\r\n        crimeItem = _item;\r\n        game = _core;\r\n        itemList = _itemList;\r\n        Initialized = false;\r\n        _setRoleAdmin(DEFAULT_ADMIN_ROLE, DEFAULT_ADMIN_ROLE);\r\n        _setRoleAdmin(DEFAULT_CORE_ROLE, DEFAULT_ADMIN_ROLE);\r\n        _setupRole(DEFAULT_ADMIN_ROLE, msg.sender);\r\n        _setupRole(DEFAULT_ADMIN_ROLE, _secondowner);\r\n    }\r\n\r\n    function changeAdmin(address newAdmin) public onlyRole(DEFAULT_ADMIN_ROLE)\r\n    {\r\n        _contractowner = newAdmin;\r\n    }\r\n\r\n    function onERC721Received(address, address, uint256, bytes memory) public virtual override returns (bytes4) {\r\n        return this.onERC721Received.selector;\r\n    }\r\n\r\n    function supportsInterface(bytes4 interfaceId) public pure returns (bool) {\r\n        return interfaceId == type(IERC721Receiver).interfaceId;\r\n    }\r\n\r\n    function bnbWithdraw() onlyRole(DEFAULT_ADMIN_ROLE) public\r\n    {\r\n        address payable owner = payable(msg.sender);\r\n        require(bnbBalance > 0, \"Insufficient Balance\");\r\n        owner.transfer(bnbBalance);\r\n    }\r\n\r\n    function getListing(uint256 id) public view returns (Listing memory)\r\n    {\r\n        return _Listings[id];\r\n    }\r\n    \r\n    function UpdateListing(uint256 id, Listing memory _list) internal\r\n    {\r\n        require(_exists(id), \"no Exist\");\r\n        _Listings[id] = _list;\r\n    }\r\n\r\n    function getContractOwner() public view returns (address)\r\n    {\r\n        return _contractowner;\r\n    }\r\n\r\n    function _exists(uint256 id) public view returns(bool) {\r\n        return (_Listings[id].active == 1);\r\n    }\r\n\r\n    function getTotalSupply() public view returns (uint256)\r\n    {\r\n        return nextId;\r\n    }\r\n\r\n    function getTax() public view returns (uint256)\r\n    {\r\n        return Tax;\r\n    }\r\n\r\n    function setTax(uint256 _tax) public onlyRole(DEFAULT_ADMIN_ROLE)\r\n    {\r\n        Tax = _tax;\r\n    }\r\n\r\n    function getIndexSlot() public view returns (uint256)\r\n    {\r\n        uint256 result = nextId;\r\n        for(uint256 x = 1; x <= nextId; x++)\r\n        {\r\n            if(!_exists(x))\r\n            {\r\n                result = x;\r\n                return result;\r\n            }\r\n        }\r\n        return result;\r\n    }\r\n\r\n    function burnAllGameItemsListing() public onlyRole(DEFAULT_ADMIN_ROLE)\r\n    {\r\n        for(uint256 x = 1; x < nextId; x++)\r\n        {\r\n            if(_exists(x))\r\n            {\r\n                if(_Listings[x].nftType > 1)\r\n                {\r\n                    _Listings[x].active = 0;\r\n                }\r\n            }\r\n        }\r\n    }\r\n\r\n    function ListNft(address owner, uint256 tokenId, uint256 nftType, uint256 price, uint256 itemId, uint256 drugId, uint256 quantity) internal returns (uint256)\r\n    {\r\n        uint256 slot = getIndexSlot();\r\n        if(nftType == 1)\r\n        {\r\n            CharacterDetail memory char = crimeChar.getCharacter(tokenId);\r\n            _Listings[slot] = Listing(tokenId, nftType, owner, char.name, price, char.rarity, char.class, char.power, itemId, drugId, quantity, block.timestamp, 1, slot); \r\n        }\r\n        else if(nftType == 2)\r\n        {\r\n            _GameItem memory item = crimeItem.getGameItem(tokenId);\r\n            _Listings[slot] = Listing(tokenId, nftType, owner, item.name, price, item.rarity, 0, item.powerBonus, itemId, drugId, quantity, block.timestamp, 1, slot);\r\n        }\r\n        else\r\n        {\r\n            _ItemList memory item = itemList.getItemListData(drugId);\r\n            _Listings[slot] = Listing(tokenId, nftType, owner, item.name, price, 0, 0, 0, itemId, drugId, quantity, block.timestamp, 1, slot);\r\n        }\r\n        \r\n        if(slot == nextId) nextId++;\r\n        return slot;\r\n    }\r\n\r\n    function buyNft(uint256 id) public payable {\r\n        require(msg.value >= utils.getContractValue(), \"Incorrect Value\");\r\n        require(_exists(id), \"Require Exists\");\r\n        require(gangToken.allowance(msg.sender, address(this)) >= _Listings[id].price, \"Require Approval\");\r\n        require(gangToken.balanceOf(msg.sender) >= _Listings[id].price, \"Require Approval\");\r\n        require(_Listings[id].owner != msg.sender, \"No buy to yourself\");\r\n        uint256 taxValue = ((_Listings[id].price * Tax) / 100);\r\n        uint256 sellerReceive = _Listings[id].price - taxValue;\r\n        gangToken.transferFrom(msg.sender, _Listings[id].owner, sellerReceive);\r\n        gangToken.transferFrom(msg.sender, _contractowner, taxValue);\r\n        if(_Listings[id].nftType == 1)\r\n        {\r\n            crimeChar.transferFrom(address(this), msg.sender, _Listings[id].tokenId);\r\n        }\r\n        else if(_Listings[id].nftType == 2)\r\n        {\r\n            crimeItem.transferFrom(address(this), msg.sender, _Listings[id].tokenId);\r\n        }\r\n        else\r\n        {\r\n            uint256 itemId = _Listings[id].drugId;\r\n            uint256 quantity = _Listings[id].quantity;\r\n            InGame memory acc = game.getIngameAccount(msg.sender);\r\n            if(itemId == 10)\r\n            {\r\n                acc.beer += quantity;\r\n            }\r\n            else if(itemId == 11)\r\n            {\r\n                acc.cannabis += quantity;\r\n            }\r\n            else if(itemId == 12) \r\n            {\r\n                acc.opio += quantity;\r\n            }\r\n            else \r\n            {\r\n                acc.cocaine += quantity;\r\n            }\r\n            game.UpdateInGameAccount(msg.sender, acc);\r\n        }\r\n        _Listings[id].active = 0;\r\n        bnbBalance += msg.value;\r\n    }\r\n\r\n    function cancelListing(uint256 id) public payable {\r\n        require(msg.value >= utils.getContractValue(), \"Incorrect Value\");\r\n        require(_exists(id), \"Require Exists\");\r\n        require(_Listings[id].owner == msg.sender, \"Require Owner os listing\");\r\n        if(_Listings[id].nftType == 1)\r\n        {\r\n            crimeChar.transferFrom(address(this), msg.sender, _Listings[id].tokenId);\r\n        }\r\n        else if(_Listings[id].nftType == 2)\r\n        {\r\n            crimeItem.transferFrom(address(this), msg.sender, _Listings[id].tokenId);\r\n        }\r\n        else\r\n        {\r\n            uint256 itemId = _Listings[id].drugId;\r\n            uint256 quantity = _Listings[id].quantity;\r\n            InGame memory acc = game.getIngameAccount(msg.sender);\r\n            if(itemId == 10)\r\n            {\r\n                acc.beer += quantity;\r\n            }\r\n            else if(itemId == 11)\r\n            {\r\n                acc.cannabis += quantity;\r\n            }\r\n            else if(itemId == 12) \r\n            {\r\n                acc.opio += quantity;\r\n            }\r\n            else \r\n            {\r\n                acc.cocaine += quantity;\r\n            }\r\n            game.UpdateInGameAccount(msg.sender, acc);\r\n        }\r\n        _Listings[id].active = 0;\r\n        bnbBalance += msg.value;\r\n    }\r\n\r\n    function sellNft(uint256 tokenId, uint256 drugId, uint256 quantity, uint256 nftType, uint256 price) public payable {\r\n        require(msg.value >= utils.getContractValue(), \"Incorrect Value\");\r\n        require(nftType == 1 || nftType == 2 || nftType == 3, \"Incorrect Input\");\r\n        require(price > 0, \"Incorrect Input\");\r\n        uint256 itemId = 0;\r\n        if(nftType == 1)\r\n        {\r\n            require(crimeChar.ownerOf(tokenId) == msg.sender, \"Require Owner\");\r\n            CharacterDetail memory nftchar = crimeChar.getCharacter(tokenId);\r\n            require(nftchar.seasonId == 0, \"Character in Season\");\r\n            require(crimeChar.isApprovedForAll(msg.sender, address(this)), \"Require Approval\");\r\n            crimeChar.transferFrom(msg.sender, address(this), tokenId);\r\n        }\r\n        else if(nftType == 2)\r\n        {\r\n            require(crimeItem.ownerOf(tokenId) == msg.sender, \"Require Owner\");\r\n            _GameItem memory nftItem = crimeItem.getGameItem(tokenId);\r\n            require(nftItem.itemId >= 0 && nftItem.itemId <= 9, \"Incorrect Item\");\r\n            if(nftItem.itemId <= 9) require(!nftItem.equiped, \"no equiped weapons\");\r\n            require(crimeItem.isApprovedForAll(msg.sender, address(this)), \"Require Approval\");\r\n            crimeItem.transferFrom(msg.sender, address(this), tokenId);\r\n            itemId = nftItem.itemId;\r\n        }\r\n        else\r\n        {\r\n            require(drugId >= 10 && drugId <= 13, \"Incorrect Drug\");\r\n            itemId = drugId;\r\n            InGame memory acc = game.getIngameAccount(msg.sender);\r\n            if(itemId == 10)\r\n            {\r\n                require(acc.beer >= quantity, \"Inssuficient balance\");\r\n                acc.beer -= quantity;\r\n            }\r\n            else if(itemId == 11)\r\n            {\r\n                require(acc.cannabis >= quantity, \"Inssuficient balance\");\r\n                acc.cannabis -= quantity;\r\n            }\r\n            else if(itemId == 12) \r\n            {\r\n                require(acc.opio >= quantity, \"Inssuficient balance\");\r\n                acc.opio -= quantity;\r\n            }\r\n            else \r\n            {\r\n                require(acc.cocaine >= quantity, \"Inssuficient balance\");\r\n                acc.cocaine -= quantity;\r\n            }\r\n            game.UpdateInGameAccount(msg.sender, acc);\r\n        }\r\n        uint256 slot = ListNft(msg.sender, tokenId, nftType, price, itemId, drugId, quantity);\r\n        emit NewListing(tokenId, nftType, msg.sender, price, slot);\r\n        bnbBalance += msg.value;\r\n    }\r\n\r\n    function getAllListingByNftType(uint256 nftType) public view returns (Listing[] memory)\r\n    {\r\n        uint256 tokenCount  = getTotalSupply();\r\n        uint256 resultIndex = 0;\r\n        if(tokenCount == 0)\r\n        {\r\n            return new Listing[](0);\r\n        }\r\n        else\r\n        {\r\n            for(uint256 x = 1; x < tokenCount; x++)\r\n            {\r\n                if(!_exists(x)) continue;\r\n                if(_Listings[x].nftType == nftType)\r\n                {\r\n                    resultIndex++;\r\n                }\r\n            }\r\n            if(resultIndex > 0)\r\n            {\r\n                Listing[] memory result = new Listing[](resultIndex);\r\n                uint256 totalNfts = getTotalSupply();\r\n                uint256 i;\r\n                uint256 index = 0;\r\n                for(i = 1; ((i < totalNfts) && (index < resultIndex)); i++)\r\n                {\r\n                    if(!_exists(i)) continue;\r\n                    if(_Listings[i].nftType == nftType)\r\n                    {\r\n                            result[index] = _Listings[i];\r\n                            index++;\r\n                    }\r\n                }\r\n                return result;\r\n            }\r\n            else\r\n            {\r\n                return new Listing[](0);\r\n            }\r\n        }\r\n    }\r\n\r\n    function getAllListingByItemId(uint256 itemId) public view returns (Listing[] memory)\r\n    {\r\n        uint256 tokenCount  = getTotalSupply();\r\n        uint256 resultIndex = 0;\r\n        if(tokenCount == 0)\r\n        {\r\n            return new Listing[](0);\r\n        }\r\n        else\r\n        {\r\n            for(uint256 x = 1; x < tokenCount; x++)\r\n            {\r\n                if(!_exists(x)) continue;\r\n                if(_Listings[x].itemId == itemId)\r\n                {\r\n                    resultIndex++;\r\n                }\r\n            }\r\n            if(resultIndex > 0)\r\n            {\r\n                Listing[] memory result = new Listing[](resultIndex);\r\n                uint256 totalNfts = getTotalSupply();\r\n                uint256 i;\r\n                uint256 index = 0;\r\n                for(i = 1; ((i < totalNfts) && (index < resultIndex)); i++)\r\n                {\r\n                    if(!_exists(i)) continue;\r\n                    if(_Listings[i].itemId == itemId)\r\n                    {\r\n                            result[index] = _Listings[i];\r\n                            index++;\r\n                    }\r\n                }\r\n                return result;\r\n            }\r\n            else\r\n            {\r\n                return new Listing[](0);\r\n            }\r\n        }\r\n    }\r\n\r\n    function getAllListingByUser(address user) public view returns (Listing[] memory)\r\n    {\r\n        uint256 tokenCount  = getTotalSupply();\r\n        uint256 resultIndex = 0;\r\n        if(tokenCount == 0)\r\n        {\r\n            return new Listing[](0);\r\n        }\r\n        else\r\n        {\r\n            for(uint256 x = 1; x < tokenCount; x++)\r\n            {\r\n                if(!_exists(x)) continue;\r\n                if(_Listings[x].owner == user)\r\n                {\r\n                    resultIndex++;\r\n                }\r\n            }\r\n            if(resultIndex > 0)\r\n            {\r\n                Listing[] memory result = new Listing[](resultIndex);\r\n                uint256 totalNfts = getTotalSupply();\r\n                uint256 i;\r\n                uint256 index = 0;\r\n                for(i = 1; ((i < totalNfts) && (index < resultIndex)); i++)\r\n                {\r\n                    if(!_exists(i)) continue;\r\n                    if(_Listings[i].owner == user)\r\n                    {\r\n                            result[index] = _Listings[i];\r\n                            index++;\r\n                    }\r\n                }\r\n                return result;\r\n            }\r\n            else\r\n            {\r\n                return new Listing[](0);\r\n            }\r\n        }\r\n    }\r\n}",
  "sourcePath": "D:\\CrimeCity\\contracts\\MarketPlace.sol",
  "compiler": {
    "name": "solc",
    "version": "0.8.10+commit.fc410830.Emscripten.clang"
  },
  "schemaVersion": "3.4.3",
  "updatedAt": "2022-01-22T20:23:21.300Z",
  "networkType": "ethereum",
  "devdoc": {
    "kind": "dev",
    "methods": {
      "getRoleAdmin(uint256)": {
        "details": "Returns the admin role that controls `role`. See {grantRole} and {revokeRole}. To change a role's admin, use {_setRoleAdmin}."
      },
      "grantRole(uint256,address)": {
        "details": "Grants `role` to `account`. If `account` had not been already granted `role`, emits a {RoleGranted} event. Requirements: - the caller must have ``role``'s admin role."
      },
      "hasRole(uint256,address)": {
        "details": "Returns `true` if `account` has been granted `role`."
      },
      "renounceRole(uint256,address)": {
        "details": "Revokes `role` from the calling account. Roles are often managed via {grantRole} and {revokeRole}: this function's purpose is to provide a mechanism for accounts to lose their privileges if they are compromised (such as when a trusted device is misplaced). If the calling account had been granted `role`, emits a {RoleRevoked} event. Requirements: - the caller must be `account`."
      },
      "revokeRole(uint256,address)": {
        "details": "Revokes `role` from `account`. If `account` had been granted `role`, emits a {RoleRevoked} event. Requirements: - the caller must have ``role``'s admin role."
      }
    },
    "version": 1
  },
  "userdoc": {
    "kind": "user",
    "methods": {},
    "version": 1
  }
}