{
  "contractName": "Ranking",
  "abi": [
    {
      "inputs": [
        {
          "internalType": "contract Utils",
          "name": "_util",
          "type": "address"
        },
        {
          "internalType": "contract Character",
          "name": "_character",
          "type": "address"
        }
      ],
      "stateMutability": "nonpayable",
      "type": "constructor"
    },
    {
      "anonymous": false,
      "inputs": [
        {
          "indexed": true,
          "internalType": "uint256",
          "name": "role",
          "type": "uint256"
        },
        {
          "indexed": true,
          "internalType": "uint256",
          "name": "previousAdminRole",
          "type": "uint256"
        },
        {
          "indexed": true,
          "internalType": "uint256",
          "name": "newAdminRole",
          "type": "uint256"
        }
      ],
      "name": "RoleAdminChanged",
      "type": "event"
    },
    {
      "anonymous": false,
      "inputs": [
        {
          "indexed": true,
          "internalType": "uint256",
          "name": "role",
          "type": "uint256"
        },
        {
          "indexed": true,
          "internalType": "address",
          "name": "account",
          "type": "address"
        },
        {
          "indexed": true,
          "internalType": "address",
          "name": "sender",
          "type": "address"
        }
      ],
      "name": "RoleGranted",
      "type": "event"
    },
    {
      "anonymous": false,
      "inputs": [
        {
          "indexed": true,
          "internalType": "uint256",
          "name": "role",
          "type": "uint256"
        },
        {
          "indexed": true,
          "internalType": "address",
          "name": "account",
          "type": "address"
        },
        {
          "indexed": true,
          "internalType": "address",
          "name": "sender",
          "type": "address"
        }
      ],
      "name": "RoleRevoked",
      "type": "event"
    },
    {
      "inputs": [],
      "name": "DEFAULT_ADMIN_ROLE",
      "outputs": [
        {
          "internalType": "uint256",
          "name": "",
          "type": "uint256"
        }
      ],
      "stateMutability": "view",
      "type": "function",
      "constant": true
    },
    {
      "inputs": [],
      "name": "DEFAULT_CORE_ROLE",
      "outputs": [
        {
          "internalType": "uint256",
          "name": "",
          "type": "uint256"
        }
      ],
      "stateMutability": "view",
      "type": "function",
      "constant": true
    },
    {
      "inputs": [
        {
          "internalType": "uint256",
          "name": "role",
          "type": "uint256"
        }
      ],
      "name": "getRoleAdmin",
      "outputs": [
        {
          "internalType": "uint256",
          "name": "",
          "type": "uint256"
        }
      ],
      "stateMutability": "view",
      "type": "function",
      "constant": true
    },
    {
      "inputs": [
        {
          "internalType": "uint256",
          "name": "role",
          "type": "uint256"
        },
        {
          "internalType": "address",
          "name": "account",
          "type": "address"
        }
      ],
      "name": "grantRole",
      "outputs": [],
      "stateMutability": "nonpayable",
      "type": "function"
    },
    {
      "inputs": [
        {
          "internalType": "uint256",
          "name": "role",
          "type": "uint256"
        },
        {
          "internalType": "address",
          "name": "account",
          "type": "address"
        }
      ],
      "name": "hasRole",
      "outputs": [
        {
          "internalType": "bool",
          "name": "",
          "type": "bool"
        }
      ],
      "stateMutability": "view",
      "type": "function",
      "constant": true
    },
    {
      "inputs": [
        {
          "internalType": "uint256",
          "name": "role",
          "type": "uint256"
        },
        {
          "internalType": "address",
          "name": "account",
          "type": "address"
        }
      ],
      "name": "renounceRole",
      "outputs": [],
      "stateMutability": "nonpayable",
      "type": "function"
    },
    {
      "inputs": [
        {
          "internalType": "uint256",
          "name": "role",
          "type": "uint256"
        },
        {
          "internalType": "address",
          "name": "account",
          "type": "address"
        }
      ],
      "name": "revokeRole",
      "outputs": [],
      "stateMutability": "nonpayable",
      "type": "function"
    },
    {
      "inputs": [
        {
          "components": [
            {
              "internalType": "string",
              "name": "name",
              "type": "string"
            },
            {
              "internalType": "uint256",
              "name": "class",
              "type": "uint256"
            },
            {
              "internalType": "uint256",
              "name": "rarity",
              "type": "uint256"
            },
            {
              "internalType": "uint256",
              "name": "respect",
              "type": "uint256"
            },
            {
              "internalType": "uint256",
              "name": "vicio",
              "type": "uint256"
            },
            {
              "internalType": "uint256",
              "name": "power",
              "type": "uint256"
            },
            {
              "internalType": "uint256",
              "name": "level",
              "type": "uint256"
            },
            {
              "internalType": "uint256",
              "name": "exp",
              "type": "uint256"
            },
            {
              "internalType": "uint256",
              "name": "maxHp",
              "type": "uint256"
            },
            {
              "internalType": "uint256",
              "name": "curHp",
              "type": "uint256"
            },
            {
              "internalType": "uint256",
              "name": "_str",
              "type": "uint256"
            },
            {
              "internalType": "uint256",
              "name": "_int",
              "type": "uint256"
            },
            {
              "internalType": "uint256",
              "name": "_cha",
              "type": "uint256"
            },
            {
              "internalType": "uint256",
              "name": "_res",
              "type": "uint256"
            },
            {
              "internalType": "uint256",
              "name": "lastExpedition",
              "type": "uint256"
            },
            {
              "internalType": "uint256",
              "name": "lastExpeditionResult",
              "type": "uint256"
            },
            {
              "internalType": "uint256",
              "name": "lastExpeditionRoll",
              "type": "uint256"
            },
            {
              "internalType": "uint256",
              "name": "prisonTime",
              "type": "uint256"
            },
            {
              "internalType": "uint256",
              "name": "nurseTime",
              "type": "uint256"
            },
            {
              "internalType": "uint256",
              "name": "coleteTime",
              "type": "uint256"
            },
            {
              "internalType": "uint256",
              "name": "lastPvP",
              "type": "uint256"
            },
            {
              "internalType": "uint256",
              "name": "lastPvPResult",
              "type": "uint256"
            },
            {
              "internalType": "uint256",
              "name": "lastPvPRoll",
              "type": "uint256"
            },
            {
              "internalType": "uint256",
              "name": "pvpDefeatCount",
              "type": "uint256"
            },
            {
              "internalType": "uint256",
              "name": "pvpDefeatTime",
              "type": "uint256"
            },
            {
              "internalType": "uint256",
              "name": "guildId",
              "type": "uint256"
            },
            {
              "internalType": "uint256",
              "name": "weaponId",
              "type": "uint256"
            },
            {
              "internalType": "uint256",
              "name": "seasonId",
              "type": "uint256"
            },
            {
              "internalType": "uint256",
              "name": "prisonPrice",
              "type": "uint256"
            },
            {
              "internalType": "uint256",
              "name": "hospitalPrice",
              "type": "uint256"
            },
            {
              "internalType": "address",
              "name": "owner",
              "type": "address"
            },
            {
              "internalType": "uint256",
              "name": "tokenId",
              "type": "uint256"
            }
          ],
          "internalType": "struct CharacterDetail",
          "name": "char",
          "type": "tuple"
        }
      ],
      "name": "bridgeCharacterStructToWebStruct",
      "outputs": [
        {
          "components": [
            {
              "internalType": "string",
              "name": "name",
              "type": "string"
            },
            {
              "internalType": "uint256",
              "name": "class",
              "type": "uint256"
            },
            {
              "internalType": "uint256",
              "name": "rarity",
              "type": "uint256"
            },
            {
              "internalType": "uint256",
              "name": "respect",
              "type": "uint256"
            },
            {
              "internalType": "uint256",
              "name": "vicio",
              "type": "uint256"
            },
            {
              "internalType": "uint256",
              "name": "power",
              "type": "uint256"
            },
            {
              "internalType": "uint256",
              "name": "level",
              "type": "uint256"
            },
            {
              "internalType": "uint256",
              "name": "exp",
              "type": "uint256"
            },
            {
              "internalType": "uint256",
              "name": "maxHp",
              "type": "uint256"
            },
            {
              "internalType": "uint256",
              "name": "curHp",
              "type": "uint256"
            },
            {
              "internalType": "uint256",
              "name": "_str",
              "type": "uint256"
            },
            {
              "internalType": "uint256",
              "name": "_int",
              "type": "uint256"
            },
            {
              "internalType": "uint256",
              "name": "_cha",
              "type": "uint256"
            },
            {
              "internalType": "uint256",
              "name": "_res",
              "type": "uint256"
            },
            {
              "internalType": "uint256",
              "name": "lastExpedition",
              "type": "uint256"
            },
            {
              "internalType": "uint256",
              "name": "lastExpeditionResult",
              "type": "uint256"
            },
            {
              "internalType": "uint256",
              "name": "lastExpeditionRoll",
              "type": "uint256"
            },
            {
              "internalType": "uint256",
              "name": "prisonTime",
              "type": "uint256"
            },
            {
              "internalType": "uint256",
              "name": "nurseTime",
              "type": "uint256"
            },
            {
              "internalType": "uint256",
              "name": "coleteTime",
              "type": "uint256"
            },
            {
              "internalType": "uint256",
              "name": "lastPvP",
              "type": "uint256"
            },
            {
              "internalType": "uint256",
              "name": "lastPvPResult",
              "type": "uint256"
            },
            {
              "internalType": "uint256",
              "name": "lastPvPRoll",
              "type": "uint256"
            },
            {
              "internalType": "uint256",
              "name": "pvpDefeatCount",
              "type": "uint256"
            },
            {
              "internalType": "uint256",
              "name": "pvpDefeatTime",
              "type": "uint256"
            },
            {
              "internalType": "uint256",
              "name": "guildId",
              "type": "uint256"
            },
            {
              "internalType": "uint256",
              "name": "weaponId",
              "type": "uint256"
            },
            {
              "internalType": "uint256",
              "name": "seasonId",
              "type": "uint256"
            },
            {
              "internalType": "uint256",
              "name": "prisonPrice",
              "type": "uint256"
            },
            {
              "internalType": "uint256",
              "name": "hospitalPrice",
              "type": "uint256"
            },
            {
              "internalType": "address",
              "name": "owner",
              "type": "address"
            },
            {
              "internalType": "uint256",
              "name": "tokenId",
              "type": "uint256"
            }
          ],
          "internalType": "struct Ranking.CharacterDetailWeb",
          "name": "",
          "type": "tuple"
        }
      ],
      "stateMutability": "pure",
      "type": "function",
      "constant": true
    },
    {
      "inputs": [
        {
          "internalType": "address",
          "name": "newAdmin",
          "type": "address"
        }
      ],
      "name": "changeAdmin",
      "outputs": [],
      "stateMutability": "nonpayable",
      "type": "function"
    },
    {
      "inputs": [
        {
          "internalType": "uint256",
          "name": "seasonId",
          "type": "uint256"
        }
      ],
      "name": "getAllCharactersInSeason",
      "outputs": [
        {
          "internalType": "uint256[]",
          "name": "",
          "type": "uint256[]"
        }
      ],
      "stateMutability": "view",
      "type": "function",
      "constant": true
    },
    {
      "inputs": [
        {
          "internalType": "uint256",
          "name": "tokenId",
          "type": "uint256"
        },
        {
          "internalType": "uint256",
          "name": "seasonId",
          "type": "uint256"
        }
      ],
      "name": "getSmackDownByCharacter",
      "outputs": [
        {
          "internalType": "uint256[]",
          "name": "",
          "type": "uint256[]"
        }
      ],
      "stateMutability": "view",
      "type": "function",
      "constant": true
    },
    {
      "inputs": [
        {
          "internalType": "int256[]",
          "name": "tokenIds",
          "type": "int256[]"
        }
      ],
      "name": "getAllCharactersByTokenIds",
      "outputs": [
        {
          "components": [
            {
              "internalType": "string",
              "name": "name",
              "type": "string"
            },
            {
              "internalType": "uint256",
              "name": "class",
              "type": "uint256"
            },
            {
              "internalType": "uint256",
              "name": "rarity",
              "type": "uint256"
            },
            {
              "internalType": "uint256",
              "name": "respect",
              "type": "uint256"
            },
            {
              "internalType": "uint256",
              "name": "vicio",
              "type": "uint256"
            },
            {
              "internalType": "uint256",
              "name": "power",
              "type": "uint256"
            },
            {
              "internalType": "uint256",
              "name": "level",
              "type": "uint256"
            },
            {
              "internalType": "uint256",
              "name": "exp",
              "type": "uint256"
            },
            {
              "internalType": "uint256",
              "name": "maxHp",
              "type": "uint256"
            },
            {
              "internalType": "uint256",
              "name": "curHp",
              "type": "uint256"
            },
            {
              "internalType": "uint256",
              "name": "_str",
              "type": "uint256"
            },
            {
              "internalType": "uint256",
              "name": "_int",
              "type": "uint256"
            },
            {
              "internalType": "uint256",
              "name": "_cha",
              "type": "uint256"
            },
            {
              "internalType": "uint256",
              "name": "_res",
              "type": "uint256"
            },
            {
              "internalType": "uint256",
              "name": "lastExpedition",
              "type": "uint256"
            },
            {
              "internalType": "uint256",
              "name": "lastExpeditionResult",
              "type": "uint256"
            },
            {
              "internalType": "uint256",
              "name": "lastExpeditionRoll",
              "type": "uint256"
            },
            {
              "internalType": "uint256",
              "name": "prisonTime",
              "type": "uint256"
            },
            {
              "internalType": "uint256",
              "name": "nurseTime",
              "type": "uint256"
            },
            {
              "internalType": "uint256",
              "name": "coleteTime",
              "type": "uint256"
            },
            {
              "internalType": "uint256",
              "name": "lastPvP",
              "type": "uint256"
            },
            {
              "internalType": "uint256",
              "name": "lastPvPResult",
              "type": "uint256"
            },
            {
              "internalType": "uint256",
              "name": "lastPvPRoll",
              "type": "uint256"
            },
            {
              "internalType": "uint256",
              "name": "pvpDefeatCount",
              "type": "uint256"
            },
            {
              "internalType": "uint256",
              "name": "pvpDefeatTime",
              "type": "uint256"
            },
            {
              "internalType": "uint256",
              "name": "guildId",
              "type": "uint256"
            },
            {
              "internalType": "uint256",
              "name": "weaponId",
              "type": "uint256"
            },
            {
              "internalType": "uint256",
              "name": "seasonId",
              "type": "uint256"
            },
            {
              "internalType": "uint256",
              "name": "prisonPrice",
              "type": "uint256"
            },
            {
              "internalType": "uint256",
              "name": "hospitalPrice",
              "type": "uint256"
            },
            {
              "internalType": "address",
              "name": "owner",
              "type": "address"
            },
            {
              "internalType": "uint256",
              "name": "tokenId",
              "type": "uint256"
            }
          ],
          "internalType": "struct Ranking.CharacterDetailWeb[]",
          "name": "",
          "type": "tuple[]"
        }
      ],
      "stateMutability": "view",
      "type": "function",
      "constant": true
    },
    {
      "inputs": [
        {
          "internalType": "int256",
          "name": "max",
          "type": "int256"
        },
        {
          "internalType": "int256",
          "name": "min",
          "type": "int256"
        },
        {
          "internalType": "int256[]",
          "name": "tokenIds",
          "type": "int256[]"
        }
      ],
      "name": "getAllCharactersByTokenIds",
      "outputs": [
        {
          "components": [
            {
              "internalType": "string",
              "name": "name",
              "type": "string"
            },
            {
              "internalType": "uint256",
              "name": "class",
              "type": "uint256"
            },
            {
              "internalType": "uint256",
              "name": "rarity",
              "type": "uint256"
            },
            {
              "internalType": "uint256",
              "name": "respect",
              "type": "uint256"
            },
            {
              "internalType": "uint256",
              "name": "vicio",
              "type": "uint256"
            },
            {
              "internalType": "uint256",
              "name": "power",
              "type": "uint256"
            },
            {
              "internalType": "uint256",
              "name": "level",
              "type": "uint256"
            },
            {
              "internalType": "uint256",
              "name": "exp",
              "type": "uint256"
            },
            {
              "internalType": "uint256",
              "name": "maxHp",
              "type": "uint256"
            },
            {
              "internalType": "uint256",
              "name": "curHp",
              "type": "uint256"
            },
            {
              "internalType": "uint256",
              "name": "_str",
              "type": "uint256"
            },
            {
              "internalType": "uint256",
              "name": "_int",
              "type": "uint256"
            },
            {
              "internalType": "uint256",
              "name": "_cha",
              "type": "uint256"
            },
            {
              "internalType": "uint256",
              "name": "_res",
              "type": "uint256"
            },
            {
              "internalType": "uint256",
              "name": "lastExpedition",
              "type": "uint256"
            },
            {
              "internalType": "uint256",
              "name": "lastExpeditionResult",
              "type": "uint256"
            },
            {
              "internalType": "uint256",
              "name": "lastExpeditionRoll",
              "type": "uint256"
            },
            {
              "internalType": "uint256",
              "name": "prisonTime",
              "type": "uint256"
            },
            {
              "internalType": "uint256",
              "name": "nurseTime",
              "type": "uint256"
            },
            {
              "internalType": "uint256",
              "name": "coleteTime",
              "type": "uint256"
            },
            {
              "internalType": "uint256",
              "name": "lastPvP",
              "type": "uint256"
            },
            {
              "internalType": "uint256",
              "name": "lastPvPResult",
              "type": "uint256"
            },
            {
              "internalType": "uint256",
              "name": "lastPvPRoll",
              "type": "uint256"
            },
            {
              "internalType": "uint256",
              "name": "pvpDefeatCount",
              "type": "uint256"
            },
            {
              "internalType": "uint256",
              "name": "pvpDefeatTime",
              "type": "uint256"
            },
            {
              "internalType": "uint256",
              "name": "guildId",
              "type": "uint256"
            },
            {
              "internalType": "uint256",
              "name": "weaponId",
              "type": "uint256"
            },
            {
              "internalType": "uint256",
              "name": "seasonId",
              "type": "uint256"
            },
            {
              "internalType": "uint256",
              "name": "prisonPrice",
              "type": "uint256"
            },
            {
              "internalType": "uint256",
              "name": "hospitalPrice",
              "type": "uint256"
            },
            {
              "internalType": "address",
              "name": "owner",
              "type": "address"
            },
            {
              "internalType": "uint256",
              "name": "tokenId",
              "type": "uint256"
            }
          ],
          "internalType": "struct Ranking.CharacterDetailWeb[]",
          "name": "",
          "type": "tuple[]"
        }
      ],
      "stateMutability": "view",
      "type": "function",
      "constant": true
    }
  ],
  "bytecode": "0x60806040523480156200001157600080fd5b5060405162003be338038062003be383398181016040528101906200003791906200048c565b33600160006101000a81548173ffffffffffffffffffffffffffffffffffffffff021916908373ffffffffffffffffffffffffffffffffffffffff16021790555073bf752eb4b851b241a36e22767b304ef28242198a600260006101000a81548173ffffffffffffffffffffffffffffffffffffffff021916908373ffffffffffffffffffffffffffffffffffffffff160217905550600060038190555080600560006101000a81548173ffffffffffffffffffffffffffffffffffffffff021916908373ffffffffffffffffffffffffffffffffffffffff16021790555081600460006101000a81548173ffffffffffffffffffffffffffffffffffffffff021916908373ffffffffffffffffffffffffffffffffffffffff1602179055506200016a601e80620001ce60201b60201c565b6200017e601f601e620001ce60201b60201c565b62000191601e336200023160201b60201c565b620001c6601e600260009054906101000a900473ffffffffffffffffffffffffffffffffffffffff166200023160201b60201c565b5050620004d3565b6000620001e1836200024760201b60201c565b905081600080858152602001908152602001600020600101819055508181847f6620dedee755c284a7e221a3279487b734830c1f76c026c797b4d019c6b4b2f460405160405180910390a4505050565b6200024382826200026660201b60201c565b5050565b6000806000838152602001908152602001600020600101549050919050565b6200027882826200035760201b60201c565b6200035357600160008084815260200190815260200160002060000160008373ffffffffffffffffffffffffffffffffffffffff1673ffffffffffffffffffffffffffffffffffffffff16815260200190815260200160002060006101000a81548160ff021916908315150217905550620002f8620003c160201b60201c565b73ffffffffffffffffffffffffffffffffffffffff168173ffffffffffffffffffffffffffffffffffffffff16837f1ec1667fba5e43c5c76fff54e76d7a4a20a4fecf7b49724ad8d52a3f726e9dbd60405160405180910390a45b5050565b600080600084815260200190815260200160002060000160008373ffffffffffffffffffffffffffffffffffffffff1673ffffffffffffffffffffffffffffffffffffffff16815260200190815260200160002060009054906101000a900460ff16905092915050565b600033905090565b600080fd5b600073ffffffffffffffffffffffffffffffffffffffff82169050919050565b6000620003fb82620003ce565b9050919050565b60006200040f82620003ee565b9050919050565b620004218162000402565b81146200042d57600080fd5b50565b600081519050620004418162000416565b92915050565b60006200045482620003ee565b9050919050565b620004668162000447565b81146200047257600080fd5b50565b60008151905062000486816200045b565b92915050565b60008060408385031215620004a657620004a5620003c9565b5b6000620004b68582860162000430565b9250506020620004c98582860162000475565b9150509250929050565b61370080620004e36000396000f3fe608060405234801561001057600080fd5b50600436106100cf5760003560e01c80638070a71b1161008c578063a259325111610066578063a259325114610210578063b10fb81214610240578063ec2606c014610270578063fb2990ad146102a0576100cf565b80638070a71b146101a65780638f283970146101d6578063a217fddf146101f2576100cf565b80631d0b19e7146100d45780631fe5f589146100f05780632308d2361461010c5780635e14861114610128578063692c3528146101585780636f45e4e514610188575b600080fd5b6100ee60048036038101906100e99190611ea9565b6102d0565b005b61010a60048036038101906101059190611ea9565b6102f9565b005b61012660048036038101906101219190611ea9565b610322565b005b610142600480360381019061013d919061232f565b6103a5565b60405161014f91906126c6565b60405180910390f35b610172600480360381019061016d91906126e8565b610532565b60405161017f91906127c4565b60405180910390f35b610190610aad565b60405161019d91906127f5565b60405180910390f35b6101c060048036038101906101bb9190612810565b610ab2565b6040516101cd91906127c4565b60405180910390f35b6101f060048036038101906101eb9190612850565b6111f2565b005b6101fa61124a565b60405161020791906127f5565b60405180910390f35b61022a6004803603810190610225919061297b565b61124f565b6040516102379190612d2e565b60405180910390f35b61025a60048036038101906102559190612d50565b611518565b6040516102679190612d2e565b60405180910390f35b61028a60048036038101906102859190611ea9565b6117d6565b6040516102979190612dda565b60405180910390f35b6102ba60048036038101906102b591906126e8565b611840565b6040516102c791906127f5565b60405180910390f35b6102d982611840565b6102ea816102e561185f565b611867565b6102f48383611901565b505050565b61030282611840565b6103138161030e61185f565b611867565b61031d83836119e2565b505050565b61032a61185f565b73ffffffffffffffffffffffffffffffffffffffff168173ffffffffffffffffffffffffffffffffffffffff1614610397576040517f08c379a000000000000000000000000000000000000000000000000000000000815260040161038e90612e78565b60405180910390fd5b6103a18282611901565b5050565b6103ad611cfe565b600060405180610400016040528084600001518152602001846020015181526020018460400151815260200184606001518152602001846080015181526020018460a0015181526020018460c0015181526020018460e00151815260200184610100015181526020018461012001518152602001846101400151815260200184610160015181526020018461018001518152602001846101a001518152602001846101c001518152602001846101e00151815260200184610200015181526020018461022001518152602001846102400151815260200184610260015181526020018461028001518152602001846102a001518152602001846102c001518152602001846102e00151815260200184610300015181526020018461032001518152602001846103400151815260200184610360015181526020018461038001518152602001846103a001518152602001846103c0015173ffffffffffffffffffffffffffffffffffffffff168152602001846103e00151815250905080915050919050565b60606000600560009054906101000a900473ffffffffffffffffffffffffffffffffffffffff1673ffffffffffffffffffffffffffffffffffffffff1663c4e41b226040518163ffffffff1660e01b8152600401602060405180830381865afa1580156105a3573d6000803e3d6000fd5b505050506040513d601f19601f820116820180604052508101906105c79190612ead565b905060008082141561062657600067ffffffffffffffff8111156105ee576105ed611eff565b5b60405190808252806020026020018201604052801561061c5781602001602082028036833780820191505090505b5092505050610aa8565b6000600190505b828110156107b057600560009054906101000a900473ffffffffffffffffffffffffffffffffffffffff1673ffffffffffffffffffffffffffffffffffffffff16634f558e79826040518263ffffffff1660e01b815260040161069091906127f5565b602060405180830381865afa1580156106ad573d6000803e3d6000fd5b505050506040513d601f19601f820116820180604052508101906106d19190612f06565b6106da5761079d565b6000600560009054906101000a900473ffffffffffffffffffffffffffffffffffffffff1673ffffffffffffffffffffffffffffffffffffffff1663dabb0531836040518263ffffffff1660e01b815260040161073791906127f5565b600060405180830381865afa158015610754573d6000803e3d6000fd5b505050506040513d6000823e3d601f19601f8201168201806040525081019061077d91906132ae565b905085816103600151141561079b57828061079790613326565b9350505b505b80806107a890613326565b91505061062d565b506000811115610a595760008167ffffffffffffffff8111156107d6576107d5611eff565b5b6040519080825280602002602001820160405280156108045781602001602082028036833780820191505090505b5090506000600560009054906101000a900473ffffffffffffffffffffffffffffffffffffffff1673ffffffffffffffffffffffffffffffffffffffff1663c4e41b226040518163ffffffff1660e01b8152600401602060405180830381865afa158015610876573d6000803e3d6000fd5b505050506040513d601f19601f8201168201806040525081019061089a9190612ead565b905060008060009050600191505b82821015610a4b57600560009054906101000a900473ffffffffffffffffffffffffffffffffffffffff1673ffffffffffffffffffffffffffffffffffffffff16634f558e79836040518263ffffffff1660e01b815260040161090b91906127f5565b602060405180830381865afa158015610928573d6000803e3d6000fd5b505050506040513d601f19601f8201168201806040525081019061094c9190612f06565b61095557610a38565b6000600560009054906101000a900473ffffffffffffffffffffffffffffffffffffffff1673ffffffffffffffffffffffffffffffffffffffff1663dabb0531846040518263ffffffff1660e01b81526004016109b291906127f5565b600060405180830381865afa1580156109cf573d6000803e3d6000fd5b505050506040513d6000823e3d601f19601f820116820180604052508101906109f891906132ae565b9050888161036001511415610a365782858381518110610a1b57610a1a61336f565b5b6020026020010181815250508180610a3290613326565b9250505b505b8180610a4390613326565b9250506108a8565b839650505050505050610aa8565b600067ffffffffffffffff811115610a7457610a73611eff565b5b604051908082528060200260200182016040528015610aa25781602001602082028036833780820191505090505b50925050505b919050565b601f81565b60606000600560009054906101000a900473ffffffffffffffffffffffffffffffffffffffff1673ffffffffffffffffffffffffffffffffffffffff1663c4e41b226040518163ffffffff1660e01b8152600401602060405180830381865afa158015610b23573d6000803e3d6000fd5b505050506040513d601f19601f82011682018060405250810190610b479190612ead565b90506000811415610ba457600067ffffffffffffffff811115610b6d57610b6c611eff565b5b604051908082528060200260200182016040528015610b9b5781602001602082028036833780820191505090505b509150506111ec565b600560009054906101000a900473ffffffffffffffffffffffffffffffffffffffff1673ffffffffffffffffffffffffffffffffffffffff16634f558e79856040518263ffffffff1660e01b8152600401610bff91906127f5565b602060405180830381865afa158015610c1c573d6000803e3d6000fd5b505050506040513d601f19601f82011682018060405250810190610c409190612f06565b610c9657600067ffffffffffffffff811115610c5f57610c5e611eff565b5b604051908082528060200260200182016040528015610c8d5781602001602082028036833780820191505090505b509150506111ec565b6000600560009054906101000a900473ffffffffffffffffffffffffffffffffffffffff1673ffffffffffffffffffffffffffffffffffffffff1663dabb0531866040518263ffffffff1660e01b8152600401610cf391906127f5565b600060405180830381865afa158015610d10573d6000803e3d6000fd5b505050506040513d6000823e3d601f19601f82011682018060405250810190610d3991906132ae565b9050600081606001516103e810610d535760009050610d68565b6103e88260600151610d65919061339e565b90505b60006103e88360600151610d7c91906133d2565b9050600080600190505b8581108015610d965750600a8211155b15610f4157600560009054906101000a900473ffffffffffffffffffffffffffffffffffffffff1673ffffffffffffffffffffffffffffffffffffffff16634f558e79826040518263ffffffff1660e01b8152600401610df691906127f5565b602060405180830381865afa158015610e13573d6000803e3d6000fd5b505050506040513d601f19601f82011682018060405250810190610e379190612f06565b610e4057610f2e565b88811415610e4d57610f2e565b6000600560009054906101000a900473ffffffffffffffffffffffffffffffffffffffff1673ffffffffffffffffffffffffffffffffffffffff1663dabb0531836040518263ffffffff1660e01b8152600401610eaa91906127f5565b600060405180830381865afa158015610ec7573d6000803e3d6000fd5b505050506040513d6000823e3d601f19601f82011682018060405250810190610ef091906132ae565b9050888161036001511415610f2c5784816060015110158015610f17575083816060015111155b15610f2b578280610f2790613326565b9350505b5b505b8080610f3990613326565b915050610d86565b50600081111561119a5760008167ffffffffffffffff811115610f6757610f66611eff565b5b604051908082528060200260200182016040528015610f955781602001602082028036833780820191505090505b509050600080600190505b8781108015610fae57508382105b1561118a57600560009054906101000a900473ffffffffffffffffffffffffffffffffffffffff1673ffffffffffffffffffffffffffffffffffffffff16634f558e79826040518263ffffffff1660e01b815260040161100e91906127f5565b602060405180830381865afa15801561102b573d6000803e3d6000fd5b505050506040513d601f19601f8201168201806040525081019061104f9190612f06565b61105857611177565b8a81141561106557611177565b6000600560009054906101000a900473ffffffffffffffffffffffffffffffffffffffff1673ffffffffffffffffffffffffffffffffffffffff1663dabb0531836040518263ffffffff1660e01b81526004016110c291906127f5565b600060405180830381865afa1580156110df573d6000803e3d6000fd5b505050506040513d6000823e3d601f19601f8201168201806040525081019061110891906132ae565b90508a8161036001511415611175578681606001511015801561112f575085816060015111155b801561114057506003816102e00151105b1561117457818484815181106111595761115861336f565b5b602002602001018181525050828061117090613326565b9350505b5b505b808061118290613326565b915050610fa0565b50819750505050505050506111ec565b600067ffffffffffffffff8111156111b5576111b4611eff565b5b6040519080825280602002602001820160405280156111e35781602001602082028036833780820191505090505b50955050505050505b92915050565b601e6112058161120061185f565b611867565b81600160006101000a81548173ffffffffffffffffffffffffffffffffffffffff021916908373ffffffffffffffffffffffffffffffffffffffff1602179055505050565b601e81565b606060008251905060008114156112bd57600067ffffffffffffffff81111561127b5761127a611eff565b5b6040519080825280602002602001820160405280156112b457816020015b6112a1611cfe565b8152602001906001900390816112995790505b50915050611513565b60008167ffffffffffffffff8111156112d9576112d8611eff565b5b60405190808252806020026020018201604052801561131257816020015b6112ff611cfe565b8152602001906001900390816112f75790505b50905060008060009050600184611329919061339e565b91505b6000821261150b57600082126114f757600560009054906101000a900473ffffffffffffffffffffffffffffffffffffffff1673ffffffffffffffffffffffffffffffffffffffff16634f558e7987848151811061138d5761138c61336f565b5b60200260200101516040518263ffffffff1660e01b81526004016113b191906127f5565b602060405180830381865afa1580156113ce573d6000803e3d6000fd5b505050506040513d601f19601f820116820180604052508101906113f29190612f06565b6113fb576114f8565b6000600560009054906101000a900473ffffffffffffffffffffffffffffffffffffffff1673ffffffffffffffffffffffffffffffffffffffff1663dabb053188858151811061144e5761144d61336f565b5b60200260200101516040518263ffffffff1660e01b815260040161147291906127f5565b600060405180830381865afa15801561148f573d6000803e3d6000fd5b505050506040513d6000823e3d601f19601f820116820180604052508101906114b891906132ae565b905060006114c5826103a5565b9050808584815181106114db576114da61336f565b5b602002602001018190525082806114f190613326565b93505050505b5b818061150390613428565b92505061132c565b829450505050505b919050565b6060600082519050600081141561158657600067ffffffffffffffff81111561154457611543611eff565b5b60405190808252806020026020018201604052801561157d57816020015b61156a611cfe565b8152602001906001900390816115625790505b509150506117cf565b60008167ffffffffffffffff8111156115a2576115a1611eff565b5b6040519080825280602002602001820160405280156115db57816020015b6115c8611cfe565b8152602001906001900390816115c05790505b509050600080600090508791505b8682126117c757600082126117b357600560009054906101000a900473ffffffffffffffffffffffffffffffffffffffff1673ffffffffffffffffffffffffffffffffffffffff16634f558e798784815181106116495761164861336f565b5b60200260200101516040518263ffffffff1660e01b815260040161166d91906127f5565b602060405180830381865afa15801561168a573d6000803e3d6000fd5b505050506040513d601f19601f820116820180604052508101906116ae9190612f06565b6116b7576117b4565b6000600560009054906101000a900473ffffffffffffffffffffffffffffffffffffffff1673ffffffffffffffffffffffffffffffffffffffff1663dabb053188858151811061170a5761170961336f565b5b60200260200101516040518263ffffffff1660e01b815260040161172e91906127f5565b600060405180830381865afa15801561174b573d6000803e3d6000fd5b505050506040513d6000823e3d601f19601f8201168201806040525081019061177491906132ae565b90506000611781826103a5565b9050808584815181106117975761179661336f565b5b602002602001018190525082806117ad90613326565b93505050505b5b81806117bf90613428565b9250506115e9565b829450505050505b9392505050565b600080600084815260200190815260200160002060000160008373ffffffffffffffffffffffffffffffffffffffff1673ffffffffffffffffffffffffffffffffffffffff16815260200190815260200160002060009054906101000a900460ff16905092915050565b6000806000838152602001908152602001600020600101549050919050565b600033905090565b61187182826117d6565b6118fd576118968173ffffffffffffffffffffffffffffffffffffffff166014611ac2565b6118a1836020611ac2565b6040516020016118b2929190613545565b6040516020818303038152906040526040517f08c379a00000000000000000000000000000000000000000000000000000000081526004016118f491906135b8565b60405180910390fd5b5050565b61190b82826117d6565b156119de57600080600084815260200190815260200160002060000160008373ffffffffffffffffffffffffffffffffffffffff1673ffffffffffffffffffffffffffffffffffffffff16815260200190815260200160002060006101000a81548160ff02191690831515021790555061198361185f565b73ffffffffffffffffffffffffffffffffffffffff168173ffffffffffffffffffffffffffffffffffffffff16837fe0df21b65c73c27081b8f042a012b124085b41d78d27b7e3c4780f5650f5ebb860405160405180910390a45b5050565b6119ec82826117d6565b611abe57600160008084815260200190815260200160002060000160008373ffffffffffffffffffffffffffffffffffffffff1673ffffffffffffffffffffffffffffffffffffffff16815260200190815260200160002060006101000a81548160ff021916908315150217905550611a6361185f565b73ffffffffffffffffffffffffffffffffffffffff168173ffffffffffffffffffffffffffffffffffffffff16837f1ec1667fba5e43c5c76fff54e76d7a4a20a4fecf7b49724ad8d52a3f726e9dbd60405160405180910390a45b5050565b606060006002836002611ad591906135da565b611adf91906133d2565b67ffffffffffffffff811115611af857611af7611eff565b5b6040519080825280601f01601f191660200182016040528015611b2a5781602001600182028036833780820191505090505b5090507f300000000000000000000000000000000000000000000000000000000000000081600081518110611b6257611b6161336f565b5b60200101907effffffffffffffffffffffffffffffffffffffffffffffffffffffffffffff1916908160001a9053507f780000000000000000000000000000000000000000000000000000000000000081600181518110611bc657611bc561336f565b5b60200101907effffffffffffffffffffffffffffffffffffffffffffffffffffffffffffff1916908160001a90535060006001846002611c0691906135da565b611c1091906133d2565b90505b6001811115611cb0577f3031323334353637383961626364656600000000000000000000000000000000600f861660108110611c5257611c5161336f565b5b1a60f81b828281518110611c6957611c6861336f565b5b60200101907effffffffffffffffffffffffffffffffffffffffffffffffffffffffffffff1916908160001a905350600485901c945080611ca990613634565b9050611c13565b5060008414611cf4576040517f08c379a0000000000000000000000000000000000000000000000000000000008152600401611ceb906136aa565b60405180910390fd5b8091505092915050565b604051806104000160405280606081526020016000815260200160008152602001600081526020016000815260200160008152602001600081526020016000815260200160008152602001600081526020016000815260200160008152602001600081526020016000815260200160008152602001600081526020016000815260200160008152602001600081526020016000815260200160008152602001600081526020016000815260200160008152602001600081526020016000815260200160008152602001600081526020016000815260200160008152602001600073ffffffffffffffffffffffffffffffffffffffff168152602001600081525090565b6000604051905090565b600080fd5b600080fd5b6000819050919050565b611e2881611e15565b8114611e3357600080fd5b50565b600081359050611e4581611e1f565b92915050565b600073ffffffffffffffffffffffffffffffffffffffff82169050919050565b6000611e7682611e4b565b9050919050565b611e8681611e6b565b8114611e9157600080fd5b50565b600081359050611ea381611e7d565b92915050565b60008060408385031215611ec057611ebf611e0b565b5b6000611ece85828601611e36565b9250506020611edf85828601611e94565b9150509250929050565b600080fd5b6000601f19601f8301169050919050565b7f4e487b7100000000000000000000000000000000000000000000000000000000600052604160045260246000fd5b611f3782611eee565b810181811067ffffffffffffffff82111715611f5657611f55611eff565b5b80604052505050565b6000611f69611e01565b9050611f758282611f2e565b919050565b600080fd5b600080fd5b600080fd5b600067ffffffffffffffff821115611fa457611fa3611eff565b5b611fad82611eee565b9050602081019050919050565b82818337600083830152505050565b6000611fdc611fd784611f89565b611f5f565b905082815260208101848484011115611ff857611ff7611f84565b5b612003848285611fba565b509392505050565b600082601f8301126120205761201f611f7f565b5b8135612030848260208601611fc9565b91505092915050565b600061040082840312156120505761204f611ee9565b5b61205b610400611f5f565b9050600082013567ffffffffffffffff81111561207b5761207a611f7a565b5b6120878482850161200b565b600083015250602061209b84828501611e36565b60208301525060406120af84828501611e36565b60408301525060606120c384828501611e36565b60608301525060806120d784828501611e36565b60808301525060a06120eb84828501611e36565b60a08301525060c06120ff84828501611e36565b60c08301525060e061211384828501611e36565b60e08301525061010061212884828501611e36565b6101008301525061012061213e84828501611e36565b6101208301525061014061215484828501611e36565b6101408301525061016061216a84828501611e36565b6101608301525061018061218084828501611e36565b610180830152506101a061219684828501611e36565b6101a0830152506101c06121ac84828501611e36565b6101c0830152506101e06121c284828501611e36565b6101e0830152506102006121d884828501611e36565b610200830152506102206121ee84828501611e36565b6102208301525061024061220484828501611e36565b6102408301525061026061221a84828501611e36565b6102608301525061028061223084828501611e36565b610280830152506102a061224684828501611e36565b6102a0830152506102c061225c84828501611e36565b6102c0830152506102e061227284828501611e36565b6102e08301525061030061228884828501611e36565b6103008301525061032061229e84828501611e36565b610320830152506103406122b484828501611e36565b610340830152506103606122ca84828501611e36565b610360830152506103806122e084828501611e36565b610380830152506103a06122f684828501611e36565b6103a0830152506103c061230c84828501611e94565b6103c0830152506103e061232284828501611e36565b6103e08301525092915050565b60006020828403121561234557612344611e0b565b5b600082013567ffffffffffffffff81111561236357612362611e10565b5b61236f84828501612039565b91505092915050565b600081519050919050565b600082825260208201905092915050565b60005b838110156123b2578082015181840152602081019050612397565b838111156123c1576000848401525b50505050565b60006123d282612378565b6123dc8185612383565b93506123ec818560208601612394565b6123f581611eee565b840191505092915050565b61240981611e15565b82525050565b61241881611e6b565b82525050565b600061040083016000830151848203600086015261243c82826123c7565b91505060208301516124516020860182612400565b5060408301516124646040860182612400565b5060608301516124776060860182612400565b50608083015161248a6080860182612400565b5060a083015161249d60a0860182612400565b5060c08301516124b060c0860182612400565b5060e08301516124c360e0860182612400565b506101008301516124d8610100860182612400565b506101208301516124ed610120860182612400565b50610140830151612502610140860182612400565b50610160830151612517610160860182612400565b5061018083015161252c610180860182612400565b506101a08301516125416101a0860182612400565b506101c08301516125566101c0860182612400565b506101e083015161256b6101e0860182612400565b50610200830151612580610200860182612400565b50610220830151612595610220860182612400565b506102408301516125aa610240860182612400565b506102608301516125bf610260860182612400565b506102808301516125d4610280860182612400565b506102a08301516125e96102a0860182612400565b506102c08301516125fe6102c0860182612400565b506102e08301516126136102e0860182612400565b50610300830151612628610300860182612400565b5061032083015161263d610320860182612400565b50610340830151612652610340860182612400565b50610360830151612667610360860182612400565b5061038083015161267c610380860182612400565b506103a08301516126916103a0860182612400565b506103c08301516126a66103c086018261240f565b506103e08301516126bb6103e0860182612400565b508091505092915050565b600060208201905081810360008301526126e0818461241e565b905092915050565b6000602082840312156126fe576126fd611e0b565b5b600061270c84828501611e36565b91505092915050565b600081519050919050565b600082825260208201905092915050565b6000819050602082019050919050565b600061274d8383612400565b60208301905092915050565b6000602082019050919050565b600061277182612715565b61277b8185612720565b935061278683612731565b8060005b838110156127b757815161279e8882612741565b97506127a983612759565b92505060018101905061278a565b5085935050505092915050565b600060208201905081810360008301526127de8184612766565b905092915050565b6127ef81611e15565b82525050565b600060208201905061280a60008301846127e6565b92915050565b6000806040838503121561282757612826611e0b565b5b600061283585828601611e36565b925050602061284685828601611e36565b9150509250929050565b60006020828403121561286657612865611e0b565b5b600061287484828501611e94565b91505092915050565b600067ffffffffffffffff82111561289857612897611eff565b5b602082029050602081019050919050565b600080fd5b6000819050919050565b6128c1816128ae565b81146128cc57600080fd5b50565b6000813590506128de816128b8565b92915050565b60006128f76128f28461287d565b611f5f565b9050808382526020820190506020840283018581111561291a576129196128a9565b5b835b81811015612943578061292f88826128cf565b84526020840193505060208101905061291c565b5050509392505050565b600082601f83011261296257612961611f7f565b5b81356129728482602086016128e4565b91505092915050565b60006020828403121561299157612990611e0b565b5b600082013567ffffffffffffffff8111156129af576129ae611e10565b5b6129bb8482850161294d565b91505092915050565b600081519050919050565b600082825260208201905092915050565b6000819050602082019050919050565b6000610400830160008301518482036000860152612a0e82826123c7565b9150506020830151612a236020860182612400565b506040830151612a366040860182612400565b506060830151612a496060860182612400565b506080830151612a5c6080860182612400565b5060a0830151612a6f60a0860182612400565b5060c0830151612a8260c0860182612400565b5060e0830151612a9560e0860182612400565b50610100830151612aaa610100860182612400565b50610120830151612abf610120860182612400565b50610140830151612ad4610140860182612400565b50610160830151612ae9610160860182612400565b50610180830151612afe610180860182612400565b506101a0830151612b136101a0860182612400565b506101c0830151612b286101c0860182612400565b506101e0830151612b3d6101e0860182612400565b50610200830151612b52610200860182612400565b50610220830151612b67610220860182612400565b50610240830151612b7c610240860182612400565b50610260830151612b91610260860182612400565b50610280830151612ba6610280860182612400565b506102a0830151612bbb6102a0860182612400565b506102c0830151612bd06102c0860182612400565b506102e0830151612be56102e0860182612400565b50610300830151612bfa610300860182612400565b50610320830151612c0f610320860182612400565b50610340830151612c24610340860182612400565b50610360830151612c39610360860182612400565b50610380830151612c4e610380860182612400565b506103a0830151612c636103a0860182612400565b506103c0830151612c786103c086018261240f565b506103e0830151612c8d6103e0860182612400565b508091505092915050565b6000612ca483836129f0565b905092915050565b6000602082019050919050565b6000612cc4826129c4565b612cce81856129cf565b935083602082028501612ce0856129e0565b8060005b85811015612d1c5784840389528151612cfd8582612c98565b9450612d0883612cac565b925060208a01995050600181019050612ce4565b50829750879550505050505092915050565b60006020820190508181036000830152612d488184612cb9565b905092915050565b600080600060608486031215612d6957612d68611e0b565b5b6000612d77868287016128cf565b9350506020612d88868287016128cf565b925050604084013567ffffffffffffffff811115612da957612da8611e10565b5b612db58682870161294d565b9150509250925092565b60008115159050919050565b612dd481612dbf565b82525050565b6000602082019050612def6000830184612dcb565b92915050565b600082825260208201905092915050565b7f416363657373436f6e74726f6c3a2063616e206f6e6c792072656e6f756e636560008201527f20726f6c657320666f722073656c660000000000000000000000000000000000602082015250565b6000612e62602f83612df5565b9150612e6d82612e06565b604082019050919050565b60006020820190508181036000830152612e9181612e55565b9050919050565b600081519050612ea781611e1f565b92915050565b600060208284031215612ec357612ec2611e0b565b5b6000612ed184828501612e98565b91505092915050565b612ee381612dbf565b8114612eee57600080fd5b50565b600081519050612f0081612eda565b92915050565b600060208284031215612f1c57612f1b611e0b565b5b6000612f2a84828501612ef1565b91505092915050565b6000612f46612f4184611f89565b611f5f565b905082815260208101848484011115612f6257612f61611f84565b5b612f6d848285612394565b509392505050565b600082601f830112612f8a57612f89611f7f565b5b8151612f9a848260208601612f33565b91505092915050565b600081519050612fb281611e7d565b92915050565b60006104008284031215612fcf57612fce611ee9565b5b612fda610400611f5f565b9050600082015167ffffffffffffffff811115612ffa57612ff9611f7a565b5b61300684828501612f75565b600083015250602061301a84828501612e98565b602083015250604061302e84828501612e98565b604083015250606061304284828501612e98565b606083015250608061305684828501612e98565b60808301525060a061306a84828501612e98565b60a08301525060c061307e84828501612e98565b60c08301525060e061309284828501612e98565b60e0830152506101006130a784828501612e98565b610100830152506101206130bd84828501612e98565b610120830152506101406130d384828501612e98565b610140830152506101606130e984828501612e98565b610160830152506101806130ff84828501612e98565b610180830152506101a061311584828501612e98565b6101a0830152506101c061312b84828501612e98565b6101c0830152506101e061314184828501612e98565b6101e08301525061020061315784828501612e98565b6102008301525061022061316d84828501612e98565b6102208301525061024061318384828501612e98565b6102408301525061026061319984828501612e98565b610260830152506102806131af84828501612e98565b610280830152506102a06131c584828501612e98565b6102a0830152506102c06131db84828501612e98565b6102c0830152506102e06131f184828501612e98565b6102e08301525061030061320784828501612e98565b6103008301525061032061321d84828501612e98565b6103208301525061034061323384828501612e98565b6103408301525061036061324984828501612e98565b6103608301525061038061325f84828501612e98565b610380830152506103a061327584828501612e98565b6103a0830152506103c061328b84828501612fa3565b6103c0830152506103e06132a184828501612e98565b6103e08301525092915050565b6000602082840312156132c4576132c3611e0b565b5b600082015167ffffffffffffffff8111156132e2576132e1611e10565b5b6132ee84828501612fb8565b91505092915050565b7f4e487b7100000000000000000000000000000000000000000000000000000000600052601160045260246000fd5b600061333182611e15565b91507fffffffffffffffffffffffffffffffffffffffffffffffffffffffffffffffff821415613364576133636132f7565b5b600182019050919050565b7f4e487b7100000000000000000000000000000000000000000000000000000000600052603260045260246000fd5b60006133a982611e15565b91506133b483611e15565b9250828210156133c7576133c66132f7565b5b828203905092915050565b60006133dd82611e15565b91506133e883611e15565b9250827fffffffffffffffffffffffffffffffffffffffffffffffffffffffffffffffff0382111561341d5761341c6132f7565b5b828201905092915050565b6000613433826128ae565b91507f8000000000000000000000000000000000000000000000000000000000000000821415613466576134656132f7565b5b600182039050919050565b600081905092915050565b7f416363657373436f6e74726f6c3a206163636f756e7420000000000000000000600082015250565b60006134b2601783613471565b91506134bd8261347c565b601782019050919050565b60006134d382612378565b6134dd8185613471565b93506134ed818560208601612394565b80840191505092915050565b7f206973206d697373696e6720726f6c6520000000000000000000000000000000600082015250565b600061352f601183613471565b915061353a826134f9565b601182019050919050565b6000613550826134a5565b915061355c82856134c8565b915061356782613522565b915061357382846134c8565b91508190509392505050565b600061358a82612378565b6135948185612df5565b93506135a4818560208601612394565b6135ad81611eee565b840191505092915050565b600060208201905081810360008301526135d2818461357f565b905092915050565b60006135e582611e15565b91506135f083611e15565b9250817fffffffffffffffffffffffffffffffffffffffffffffffffffffffffffffffff0483118215151615613629576136286132f7565b5b828202905092915050565b600061363f82611e15565b91506000821415613653576136526132f7565b5b600182039050919050565b7f537472696e67733a20686578206c656e67746820696e73756666696369656e74600082015250565b6000613694602083612df5565b915061369f8261365e565b602082019050919050565b600060208201905081810360008301526136c381613687565b905091905056fea26469706673582212204c9d289d14fc0ceb0cb75eeebb58d926c1ad071d62d8e05b7b24718f4c06f24764736f6c634300080a0033",
  "immutableReferences": {},
  "source": "// SPDX-License-Identifier: UNLICENSED\r\npragma solidity >=0.4.22 <0.9.0;\r\n\r\n/**\r\n * @title SampleBEP20Token\r\n * @dev Very simple BEP20 Token example, where all tokens are pre-assigned to the creator.\r\n * Note they can later distribute these tokens as they wish using `transfer` and other\r\n * `BEP20` functions.\r\n * USE IT ONLY FOR LEARNING PURPOSES. SHOULD BE MODIFIED FOR PRODUCTION\r\n */\r\n\r\nimport \"../../node_modules/@openzeppelin/contracts/token/ERC721/IERC721Receiver.sol\";\r\nimport \"./../utils/Admin.sol\";\r\nimport \"./../utils/Utils.sol\";\r\n\r\nimport \"./../tokens/Character.sol\";\r\nimport \"./../tokens/GANG.sol\";\r\n\r\n\r\ncontract Ranking is Admin {\r\n\r\n    struct CharacterDetailWeb\r\n    {\r\n        string name;\r\n        uint256 class; // (1 = ladrao, 2 = gangster, 3 = empresario, 4 = traficante)\r\n        uint256 rarity;\r\n        uint256 respect;\r\n        uint256 vicio;\r\n        uint256 power;\r\n        uint256 level;\r\n        uint256 exp;\r\n        uint256 maxHp;\r\n        uint256 curHp;\r\n        uint256 _str;\r\n        uint256 _int;\r\n        uint256 _cha;\r\n        uint256 _res;\r\n\r\n        uint256 lastExpedition;\r\n        uint256 lastExpeditionResult;\r\n        uint256 lastExpeditionRoll;\r\n        uint256 prisonTime;\r\n        uint256 nurseTime;\r\n        uint256 coleteTime;\r\n        uint256 lastPvP;\r\n        uint256 lastPvPResult;\r\n        uint256 lastPvPRoll;\r\n        uint256 pvpDefeatCount;\r\n        uint256 pvpDefeatTime;\r\n\r\n        uint256 guildId;\r\n        uint256 weaponId;\r\n        uint256 seasonId;\r\n        uint256 prisonPrice;\r\n        uint256 hospitalPrice;\r\n        address owner;\r\n        uint256 tokenId;\r\n    }\r\n\r\n    address private _contractowner;\r\n    address private _secondowner;\r\n\r\n    uint256 private bnbBalance;\r\n\r\n    Utils private utils;\r\n    Character private crimeChar;\r\n\r\n    constructor(Utils _util, Character _character) Admin()\r\n    {\r\n        _contractowner = msg.sender;\r\n        _secondowner = address(0xbf752Eb4b851B241A36e22767b304ef28242198A);\r\n        bnbBalance = 0;\r\n        crimeChar = _character;\r\n        utils = _util;\r\n\r\n        _setRoleAdmin(DEFAULT_ADMIN_ROLE, DEFAULT_ADMIN_ROLE);\r\n        _setRoleAdmin(DEFAULT_CORE_ROLE, DEFAULT_ADMIN_ROLE);\r\n        _setupRole(DEFAULT_ADMIN_ROLE, msg.sender);\r\n        _setupRole(DEFAULT_ADMIN_ROLE, _secondowner);\r\n    }\r\n\r\n    function bridgeCharacterStructToWebStruct(CharacterDetail memory char) public pure returns(CharacterDetailWeb memory)\r\n    {\r\n        CharacterDetailWeb memory charWeb = CharacterDetailWeb(char.name, char.class, char.rarity, char.respect, char.vicio, char.power, char.level, char.exp,\r\n        char.maxHp, char.curHp, char._str, char._int, char._cha, char._res, char.lastExpedition, char.lastExpeditionResult, char.lastExpeditionRoll, char.prisonTime,\r\n        char.nurseTime, char.coleteTime, char.lastPvP, char.lastPvPResult, char.lastPvPRoll, char.pvpDefeatCount, char.pvpDefeatTime, char.guildId, char.weaponId,\r\n        char.seasonId, char.prisonPrice, char.hospitalPrice, char.owner, char.tokenId );\r\n\r\n        return charWeb;\r\n    }\r\n\r\n    function changeAdmin(address newAdmin) public onlyRole(DEFAULT_ADMIN_ROLE)\r\n    {\r\n        _contractowner = newAdmin;\r\n    }\r\n\r\n    function getAllCharactersInSeason(uint256 seasonId) public view returns (uint256[] memory)\r\n    {\r\n        uint256 tokenCount  = crimeChar.getTotalSupply();\r\n        uint256 resultIndex = 0;\r\n        if(tokenCount == 0)\r\n        {\r\n            return new uint256[](0);\r\n        }\r\n        else\r\n        {\r\n            for(uint256 x = 1; x < tokenCount; x++)\r\n            {\r\n                if(!crimeChar.exists(x)) continue; //** */\r\n\r\n                CharacterDetail memory _char = crimeChar.getCharacter(x);\r\n                if(_char.seasonId == seasonId)\r\n                {\r\n                    resultIndex++;\r\n                }\r\n            }\r\n            if(resultIndex > 0)\r\n            {\r\n                uint256[] memory result = new uint256[](resultIndex);\r\n                uint256 totalNfts = crimeChar.getTotalSupply();\r\n                uint256 i;\r\n                uint256 index = 0;\r\n                for(i = 1; i < totalNfts; i++)\r\n                {\r\n                    if(!crimeChar.exists(i)) continue;\r\n                    CharacterDetail memory _char = crimeChar.getCharacter(i);\r\n                    if(_char.seasonId == seasonId)\r\n                    {\r\n                        result[index] = i;\r\n                        index++;\r\n                    }\r\n                }\r\n                return result;\r\n            }\r\n            else\r\n            {\r\n                return new uint256[](0);\r\n            }\r\n        }\r\n    }\r\n\r\n    function getSmackDownByCharacter(uint256 tokenId, uint256 seasonId) public view returns (uint256[] memory)\r\n    {\r\n        uint256 tokenCount = crimeChar.getTotalSupply();\r\n        if(tokenCount == 0)\r\n        {\r\n            return new uint256[](0);\r\n        }\r\n        else\r\n        {\r\n            if(!crimeChar.exists(tokenId)) return new uint256[](0);\r\n            CharacterDetail memory _user = crimeChar.getCharacter(tokenId);\r\n\r\n            uint256 min = 0;\r\n            if(1000 >= _user.respect) min = 0;\r\n            else min = _user.respect - 1000;\r\n            uint256 max = _user.respect + 1000;\r\n\r\n            uint256 resultIndex = 0;\r\n            for(uint256 i = 1; (i < tokenCount && resultIndex <= 10); i++)\r\n            {\r\n                if(!crimeChar.exists(i)) continue;\r\n                if(i == tokenId) continue;\r\n                CharacterDetail memory _char = crimeChar.getCharacter(i);\r\n                if(_char.seasonId == seasonId)\r\n                {\r\n                    if(_char.respect >= min && _char.respect <= max)\r\n                    {\r\n                        resultIndex++;\r\n                    }\r\n                }\r\n            }\r\n            if(resultIndex > 0)\r\n            {\r\n                uint256[] memory result = new uint256[](resultIndex);\r\n                uint256 index = 0;\r\n                for(uint256 i = 1; (i < tokenCount && index < resultIndex); i++)\r\n                {\r\n                    if(!crimeChar.exists(i)) continue;\r\n                    if(i == tokenId) continue;\r\n                    CharacterDetail memory _char = crimeChar.getCharacter(i);\r\n                    if(_char.seasonId == seasonId)\r\n                    {\r\n                        if((_char.respect >= min && _char.respect <= max) && _char.pvpDefeatCount < 3)\r\n                        {\r\n                            result[index] = i;\r\n                            index++;\r\n                        }\r\n                    }\r\n                }\r\n                return result;\r\n            }\r\n            return new uint256[](0);\r\n        }\r\n    }\r\n\r\n    function getAllCharactersByTokenIds(int256[] memory tokenIds) public view returns (CharacterDetailWeb[] memory)\r\n    {\r\n        uint256 tokenCount  = tokenIds.length;\r\n\r\n        if(tokenCount == 0)\r\n        {\r\n            return new CharacterDetailWeb[](0);\r\n        }\r\n        else\r\n        {\r\n            CharacterDetailWeb[] memory result = new CharacterDetailWeb[](tokenCount);\r\n            int256 i;\r\n            uint256 resultIndex = 0;\r\n            for(i = int256(tokenCount-1); i >= 0; i--)\r\n            {\r\n                if(i >= 0)\r\n                {\r\n                    if(!crimeChar.exists(uint256(tokenIds[uint256(i)]))) continue;\r\n                    CharacterDetail memory _char = crimeChar.getCharacter(uint256(tokenIds[uint256(i)]));\r\n                    CharacterDetailWeb memory charWeb = bridgeCharacterStructToWebStruct(_char);\r\n                    result[resultIndex] = charWeb;\r\n                    resultIndex++;\r\n                }\r\n            }\r\n            return result;\r\n        }\r\n    }\r\n\r\n    function getAllCharactersByTokenIds(int256 max, int256 min, int256[] memory tokenIds) public view returns (CharacterDetailWeb[] memory)\r\n    {\r\n        uint256 tokenCount  = tokenIds.length;\r\n\r\n        if(tokenCount == 0)\r\n        {\r\n            return new CharacterDetailWeb[](0);\r\n        }\r\n        else\r\n        {\r\n            CharacterDetailWeb[] memory result = new CharacterDetailWeb[](tokenCount);\r\n            int256 i;\r\n            uint256 resultIndex = 0;\r\n            for(i = max; i >= min; i--)\r\n            {\r\n                if(i >= 0)\r\n                {\r\n                    if(!crimeChar.exists(uint256(tokenIds[uint256(i)]))) continue;\r\n\r\n                    CharacterDetail memory _char = crimeChar.getCharacter(uint256(tokenIds[uint256(i)]));\r\n                    CharacterDetailWeb memory charWeb = bridgeCharacterStructToWebStruct(_char);\r\n                    result[resultIndex] = charWeb;\r\n                    resultIndex++;\r\n                }\r\n            }\r\n            return result;\r\n        }\r\n    }\r\n}",
  "sourcePath": "D:\\CrimeCity\\contracts\\utils\\Ranking.sol",
  "compiler": {
    "name": "solc",
    "version": "0.8.10+commit.fc410830.Emscripten.clang"
  },
  "schemaVersion": "3.4.3",
  "updatedAt": "2022-01-22T20:23:21.483Z",
  "networkType": "ethereum",
  "devdoc": {
    "kind": "dev",
    "methods": {
      "getRoleAdmin(uint256)": {
        "details": "Returns the admin role that controls `role`. See {grantRole} and {revokeRole}. To change a role's admin, use {_setRoleAdmin}."
      },
      "grantRole(uint256,address)": {
        "details": "Grants `role` to `account`. If `account` had not been already granted `role`, emits a {RoleGranted} event. Requirements: - the caller must have ``role``'s admin role."
      },
      "hasRole(uint256,address)": {
        "details": "Returns `true` if `account` has been granted `role`."
      },
      "renounceRole(uint256,address)": {
        "details": "Revokes `role` from the calling account. Roles are often managed via {grantRole} and {revokeRole}: this function's purpose is to provide a mechanism for accounts to lose their privileges if they are compromised (such as when a trusted device is misplaced). If the calling account had been granted `role`, emits a {RoleRevoked} event. Requirements: - the caller must be `account`."
      },
      "revokeRole(uint256,address)": {
        "details": "Revokes `role` from `account`. If `account` had been granted `role`, emits a {RoleRevoked} event. Requirements: - the caller must have ``role``'s admin role."
      }
    },
    "version": 1
  },
  "userdoc": {
    "kind": "user",
    "methods": {},
    "version": 1
  }
}