{
  "contractName": "Robbery",
  "abi": [
    {
      "inputs": [
        {
          "internalType": "contract Utils",
          "name": "_util",
          "type": "address"
        },
        {
          "internalType": "contract Character",
          "name": "_character",
          "type": "address"
        },
        {
          "internalType": "contract GameItem",
          "name": "_gameItem",
          "type": "address"
        },
        {
          "internalType": "contract CharacterUtils",
          "name": "_charUtils",
          "type": "address"
        },
        {
          "internalType": "contract CoreInGame",
          "name": "_game",
          "type": "address"
        }
      ],
      "stateMutability": "nonpayable",
      "type": "constructor"
    },
    {
      "anonymous": false,
      "inputs": [
        {
          "indexed": true,
          "internalType": "uint256",
          "name": "role",
          "type": "uint256"
        },
        {
          "indexed": true,
          "internalType": "uint256",
          "name": "previousAdminRole",
          "type": "uint256"
        },
        {
          "indexed": true,
          "internalType": "uint256",
          "name": "newAdminRole",
          "type": "uint256"
        }
      ],
      "name": "RoleAdminChanged",
      "type": "event"
    },
    {
      "anonymous": false,
      "inputs": [
        {
          "indexed": true,
          "internalType": "uint256",
          "name": "role",
          "type": "uint256"
        },
        {
          "indexed": true,
          "internalType": "address",
          "name": "account",
          "type": "address"
        },
        {
          "indexed": true,
          "internalType": "address",
          "name": "sender",
          "type": "address"
        }
      ],
      "name": "RoleGranted",
      "type": "event"
    },
    {
      "anonymous": false,
      "inputs": [
        {
          "indexed": true,
          "internalType": "uint256",
          "name": "role",
          "type": "uint256"
        },
        {
          "indexed": true,
          "internalType": "address",
          "name": "account",
          "type": "address"
        },
        {
          "indexed": true,
          "internalType": "address",
          "name": "sender",
          "type": "address"
        }
      ],
      "name": "RoleRevoked",
      "type": "event"
    },
    {
      "inputs": [],
      "name": "DEFAULT_ADMIN_ROLE",
      "outputs": [
        {
          "internalType": "uint256",
          "name": "",
          "type": "uint256"
        }
      ],
      "stateMutability": "view",
      "type": "function",
      "constant": true
    },
    {
      "inputs": [],
      "name": "DEFAULT_CORE_ROLE",
      "outputs": [
        {
          "internalType": "uint256",
          "name": "",
          "type": "uint256"
        }
      ],
      "stateMutability": "view",
      "type": "function",
      "constant": true
    },
    {
      "inputs": [
        {
          "internalType": "uint256",
          "name": "role",
          "type": "uint256"
        }
      ],
      "name": "getRoleAdmin",
      "outputs": [
        {
          "internalType": "uint256",
          "name": "",
          "type": "uint256"
        }
      ],
      "stateMutability": "view",
      "type": "function",
      "constant": true
    },
    {
      "inputs": [
        {
          "internalType": "uint256",
          "name": "role",
          "type": "uint256"
        },
        {
          "internalType": "address",
          "name": "account",
          "type": "address"
        }
      ],
      "name": "grantRole",
      "outputs": [],
      "stateMutability": "nonpayable",
      "type": "function"
    },
    {
      "inputs": [
        {
          "internalType": "uint256",
          "name": "role",
          "type": "uint256"
        },
        {
          "internalType": "address",
          "name": "account",
          "type": "address"
        }
      ],
      "name": "hasRole",
      "outputs": [
        {
          "internalType": "bool",
          "name": "",
          "type": "bool"
        }
      ],
      "stateMutability": "view",
      "type": "function",
      "constant": true
    },
    {
      "inputs": [
        {
          "internalType": "uint256",
          "name": "role",
          "type": "uint256"
        },
        {
          "internalType": "address",
          "name": "account",
          "type": "address"
        }
      ],
      "name": "renounceRole",
      "outputs": [],
      "stateMutability": "nonpayable",
      "type": "function"
    },
    {
      "inputs": [
        {
          "internalType": "uint256",
          "name": "role",
          "type": "uint256"
        },
        {
          "internalType": "address",
          "name": "account",
          "type": "address"
        }
      ],
      "name": "revokeRole",
      "outputs": [],
      "stateMutability": "nonpayable",
      "type": "function"
    },
    {
      "inputs": [
        {
          "internalType": "address",
          "name": "newAdmin",
          "type": "address"
        }
      ],
      "name": "changeAdmin",
      "outputs": [],
      "stateMutability": "nonpayable",
      "type": "function"
    },
    {
      "inputs": [
        {
          "internalType": "address",
          "name": "",
          "type": "address"
        },
        {
          "internalType": "address",
          "name": "",
          "type": "address"
        },
        {
          "internalType": "uint256",
          "name": "",
          "type": "uint256"
        },
        {
          "internalType": "bytes",
          "name": "",
          "type": "bytes"
        }
      ],
      "name": "onERC721Received",
      "outputs": [
        {
          "internalType": "bytes4",
          "name": "",
          "type": "bytes4"
        }
      ],
      "stateMutability": "nonpayable",
      "type": "function"
    },
    {
      "inputs": [],
      "name": "getRobberyList",
      "outputs": [
        {
          "components": [
            {
              "internalType": "string",
              "name": "name",
              "type": "string"
            },
            {
              "internalType": "uint256",
              "name": "powerReq",
              "type": "uint256"
            },
            {
              "internalType": "uint256",
              "name": "bestStats",
              "type": "uint256"
            },
            {
              "internalType": "uint256",
              "name": "baseChance",
              "type": "uint256"
            },
            {
              "internalType": "uint256",
              "name": "reward",
              "type": "uint256"
            },
            {
              "internalType": "uint256",
              "name": "respectReward",
              "type": "uint256"
            },
            {
              "internalType": "uint256",
              "name": "baseDamage",
              "type": "uint256"
            }
          ],
          "internalType": "struct Robbery.RobberyStruct[]",
          "name": "",
          "type": "tuple[]"
        }
      ],
      "stateMutability": "view",
      "type": "function",
      "constant": true
    },
    {
      "inputs": [
        {
          "internalType": "bytes4",
          "name": "interfaceId",
          "type": "bytes4"
        }
      ],
      "name": "supportsInterface",
      "outputs": [
        {
          "internalType": "bool",
          "name": "",
          "type": "bool"
        }
      ],
      "stateMutability": "pure",
      "type": "function",
      "constant": true
    },
    {
      "inputs": [],
      "name": "bnbWithdraw",
      "outputs": [],
      "stateMutability": "nonpayable",
      "type": "function"
    },
    {
      "inputs": [
        {
          "internalType": "uint256",
          "name": "tokenId",
          "type": "uint256"
        }
      ],
      "name": "getRobberyCountDown",
      "outputs": [
        {
          "internalType": "uint256",
          "name": "",
          "type": "uint256"
        }
      ],
      "stateMutability": "view",
      "type": "function",
      "constant": true
    },
    {
      "inputs": [
        {
          "internalType": "uint256",
          "name": "tokenId",
          "type": "uint256"
        },
        {
          "internalType": "uint256",
          "name": "expeditionId",
          "type": "uint256"
        }
      ],
      "name": "getChanceForRobbery",
      "outputs": [
        {
          "internalType": "uint256",
          "name": "",
          "type": "uint256"
        }
      ],
      "stateMutability": "view",
      "type": "function",
      "constant": true
    },
    {
      "inputs": [
        {
          "internalType": "uint256",
          "name": "tokenId",
          "type": "uint256"
        },
        {
          "internalType": "uint256",
          "name": "expeditionId",
          "type": "uint256"
        }
      ],
      "name": "beginRobbery",
      "outputs": [
        {
          "internalType": "uint256",
          "name": "",
          "type": "uint256"
        }
      ],
      "stateMutability": "nonpayable",
      "type": "function"
    },
    {
      "inputs": [
        {
          "components": [
            {
              "internalType": "string",
              "name": "name",
              "type": "string"
            },
            {
              "internalType": "uint256",
              "name": "class",
              "type": "uint256"
            },
            {
              "internalType": "uint256",
              "name": "rarity",
              "type": "uint256"
            },
            {
              "internalType": "uint256",
              "name": "respect",
              "type": "uint256"
            },
            {
              "internalType": "uint256",
              "name": "vicio",
              "type": "uint256"
            },
            {
              "internalType": "uint256",
              "name": "power",
              "type": "uint256"
            },
            {
              "internalType": "uint256",
              "name": "level",
              "type": "uint256"
            },
            {
              "internalType": "uint256",
              "name": "exp",
              "type": "uint256"
            },
            {
              "internalType": "uint256",
              "name": "maxHp",
              "type": "uint256"
            },
            {
              "internalType": "uint256",
              "name": "curHp",
              "type": "uint256"
            },
            {
              "internalType": "uint256",
              "name": "_str",
              "type": "uint256"
            },
            {
              "internalType": "uint256",
              "name": "_int",
              "type": "uint256"
            },
            {
              "internalType": "uint256",
              "name": "_cha",
              "type": "uint256"
            },
            {
              "internalType": "uint256",
              "name": "_res",
              "type": "uint256"
            },
            {
              "internalType": "uint256",
              "name": "lastExpedition",
              "type": "uint256"
            },
            {
              "internalType": "uint256",
              "name": "lastExpeditionResult",
              "type": "uint256"
            },
            {
              "internalType": "uint256",
              "name": "lastExpeditionRoll",
              "type": "uint256"
            },
            {
              "internalType": "uint256",
              "name": "prisonTime",
              "type": "uint256"
            },
            {
              "internalType": "uint256",
              "name": "nurseTime",
              "type": "uint256"
            },
            {
              "internalType": "uint256",
              "name": "coleteTime",
              "type": "uint256"
            },
            {
              "internalType": "uint256",
              "name": "lastPvP",
              "type": "uint256"
            },
            {
              "internalType": "uint256",
              "name": "lastPvPResult",
              "type": "uint256"
            },
            {
              "internalType": "uint256",
              "name": "lastPvPRoll",
              "type": "uint256"
            },
            {
              "internalType": "uint256",
              "name": "pvpDefeatCount",
              "type": "uint256"
            },
            {
              "internalType": "uint256",
              "name": "pvpDefeatTime",
              "type": "uint256"
            },
            {
              "internalType": "uint256",
              "name": "guildId",
              "type": "uint256"
            },
            {
              "internalType": "uint256",
              "name": "weaponId",
              "type": "uint256"
            },
            {
              "internalType": "uint256",
              "name": "seasonId",
              "type": "uint256"
            },
            {
              "internalType": "uint256",
              "name": "prisonPrice",
              "type": "uint256"
            },
            {
              "internalType": "uint256",
              "name": "hospitalPrice",
              "type": "uint256"
            },
            {
              "internalType": "address",
              "name": "owner",
              "type": "address"
            },
            {
              "internalType": "uint256",
              "name": "tokenId",
              "type": "uint256"
            }
          ],
          "internalType": "struct CharacterDetail",
          "name": "char",
          "type": "tuple"
        },
        {
          "internalType": "uint256",
          "name": "expeditionId",
          "type": "uint256"
        },
        {
          "internalType": "uint256",
          "name": "vip",
          "type": "uint256"
        }
      ],
      "name": "calculateRobbery",
      "outputs": [
        {
          "internalType": "uint256[]",
          "name": "",
          "type": "uint256[]"
        }
      ],
      "stateMutability": "nonpayable",
      "type": "function"
    }
  ],
  "bytecode": "0x6080604052600060035567d02ab486cedc00006005553480156200002257600080fd5b5060405162005db438038062005db4833981810160405281019062000048919062001c8d565b73bf752eb4b851b241a36e22767b304ef28242198a600260006101000a81548173ffffffffffffffffffffffffffffffffffffffff021916908373ffffffffffffffffffffffffffffffffffffffff160217905550620000b0601e806200185060201b60201c565b620000c4601f601e6200185060201b60201c565b620000d7601e33620018b360201b60201c565b6200010c601e600260009054906101000a900473ffffffffffffffffffffffffffffffffffffffff16620018b360201b60201c565b6000600760006101000a81548160ff02191690831515021790555033600160006101000a81548173ffffffffffffffffffffffffffffffffffffffff021916908373ffffffffffffffffffffffffffffffffffffffff160217905550600060068190555083600860006101000a81548173ffffffffffffffffffffffffffffffffffffffff021916908373ffffffffffffffffffffffffffffffffffffffff16021790555082600a60006101000a81548173ffffffffffffffffffffffffffffffffffffffff021916908373ffffffffffffffffffffffffffffffffffffffff16021790555084600760016101000a81548173ffffffffffffffffffffffffffffffffffffffff021916908373ffffffffffffffffffffffffffffffffffffffff16021790555080600b60006101000a81548173ffffffffffffffffffffffffffffffffffffffff021916908373ffffffffffffffffffffffffffffffffffffffff16021790555081600960006101000a81548173ffffffffffffffffffffffffffffffffffffffff021916908373ffffffffffffffffffffffffffffffffffffffff1602179055506000600554905060006002905060006005905060146003819055506040518060e001604052806040518060400160405280600b81526020017f24312c39392073746f726500000000000000000000000000000000000000000081525081526020016032815260200160018152602001604b8152602001603c856200033a919062001d7d565b8152602001838152602001828152506004600080815260200190815260200160002060008201518160000190805190602001906200037a92919062001a4b565b506020820151816001015560408201518160020155606082015181600301556080820151816004015560a0820151816005015560c082015181600601559050506040518060e001604052806040518060400160405280601781526020017f4f6c6420776f6d616e206f6e207468652073747265657400000000000000000081525081526020016064815260200160028152602001604b815260200160378562000424919062001d7d565b81526020018381526020016002836200043e919062001db5565b815250600460006001815260200190815260200160002060008201518160000190805190602001906200047392919062001a4b565b506020820151816001015560408201518160020155606082015181600301556080820151816004015560a0820151816005015560c08201518160060155905050600281620004c2919062001e16565b9050601482620004d3919062001e16565b91506040518060e001604052806040518060400160405280600981526020017f43617220526164696f000000000000000000000000000000000000000000000081525081526020016096815260200160038152602001604b81526020016032856200053f919062001d7d565b815260200183815260200160028362000559919062001db5565b815250600460006002815260200190815260200160002060008201518160000190805190602001906200058e92919062001a4b565b506020820151816001015560408201518160020155606082015181600301556080820151816004015560a0820151816005015560c08201518160060155905050600281620005dd919062001e16565b9050601482620005ee919062001e16565b91506040518060e001604052806040518060400160405280600481526020017f5461786900000000000000000000000000000000000000000000000000000000815250815260200160c8815260200160048152602001604b8152602001602d856200065a919062001d7d565b815260200183815260200160028362000674919062001db5565b81525060046000600381526020019081526020016000206000820151816000019080519060200190620006a992919062001a4b565b506020820151816001015560408201518160020155606082015181600301556080820151816004015560a0820151816005015560c08201518160060155905050600281620006f8919062001e16565b905060148262000709919062001e16565b91506040518060e001604052806040518060400160405280600d81526020017f537465616c206120686f75736500000000000000000000000000000000000000815250815260200160e18152602001600181526020016049815260200160288562000775919062001d7d565b81526020018381526020016002836200078f919062001db5565b81525060046000600481526020019081526020016000206000820151816000019080519060200190620007c492919062001a4b565b506020820151816001015560408201518160020155606082015181600301556080820151816004015560a0820151816005015560c0820151816006015590505060028162000813919062001e16565b905060148262000824919062001e16565b91506040518060e001604052806040518060400160405280600b81526020017f4761732053746174696f6e00000000000000000000000000000000000000000081525081526020016101138152602001600281526020016046815260200160238562000891919062001d7d565b8152602001838152602001600283620008ab919062001db5565b81525060046000600581526020019081526020016000206000820151816000019080519060200190620008e092919062001a4b565b506020820151816001015560408201518160020155606082015181600301556080820151816004015560a0820151816005015560c082015181600601559050506002816200092f919062001e16565b905060148262000940919062001e16565b91506040518060e001604052806040518060400160405280600d81526020017f546f626163636f2073746f726500000000000000000000000000000000000000815250815260200161014581526020016003815260200160418152602001602085620009ad919062001d7d565b8152602001838152602001600283620009c7919062001db5565b81525060046000600681526020019081526020016000206000820151816000019080519060200190620009fc92919062001a4b565b506020820151816001015560408201518160020155606082015181600301556080820151816004015560a0820151816005015560c0820151816006015590505060028162000a4b919062001e16565b905060148262000a5c919062001e16565b91506040518060e001604052806040518060400160405280600681526020017f4b69646e617000000000000000000000000000000000000000000000000000008152508152602001610177815260200160048152602001603f8152602001601c8562000ac9919062001d7d565b815260200183815260200160028362000ae3919062001db5565b8152506004600060078152602001908152602001600020600082015181600001908051906020019062000b1892919062001a4b565b506020820151816001015560408201518160020155606082015181600301556080820151816004015560a0820151816005015560c0820151816006015590505060028162000b67919062001e16565b905060148262000b78919062001e16565b91506040518060e001604052806040518060400160405280600d81526020017f4a6577656c72792053746f72650000000000000000000000000000000000000081525081526020016101a9815260200160018152602001603c815260200160188562000be5919062001d7d565b815260200183815260200160028362000bff919062001db5565b8152506004600060088152602001908152602001600020600082015181600001908051906020019062000c3492919062001a4b565b506020820151816001015560408201518160020155606082015181600301556080820151816004015560a0820151816005015560c0820151816006015590505060048162000c83919062001e16565b905060148262000c94919062001e16565b91506040518060e001604052806040518060400160405280600a81526020017f536d616c6c2062616e6b0000000000000000000000000000000000000000000081525081526020016101db815260200160028152602001603a815260200160148562000d01919062001d7d565b815260200183815260200160028362000d1b919062001db5565b8152506004600060098152602001908152602001600020600082015181600001908051906020019062000d5092919062001a4b565b506020820151816001015560408201518160020155606082015181600301556080820151816004015560a0820151816005015560c0820151816006015590505060048162000d9f919062001e16565b905060148262000db0919062001e16565b91506040518060e001604052806040518060400160405280600e81526020017f436172206465616c657273686970000000000000000000000000000000000000815250815260200161020d8152602001600381526020016038815260200160108562000e1d919062001d7d565b815260200183815260200160028362000e37919062001db5565b81525060046000600a8152602001908152602001600020600082015181600001908051906020019062000e6c92919062001a4b565b506020820151816001015560408201518160020155606082015181600301556080820151816004015560a0820151816005015560c0820151816006015590505060088162000ebb919062001e16565b905060148262000ecc919062001e16565b91506040518060e001604052806040518060400160405280600b81526020017f4c6f63616c207468756773000000000000000000000000000000000000000000815250815260200161023f81526020016004815260200160368152602001600c8562000f39919062001d7d565b815260200183815260200160028362000f53919062001db5565b81525060046000600b8152602001908152602001600020600082015181600001908051906020019062000f8892919062001a4b565b506020820151816001015560408201518160020155606082015181600301556080820151816004015560a0820151816005015560c0820151816006015590505060088162000fd7919062001e16565b905060148262000fe8919062001e16565b91506040518060e001604052806040518060400160405280600c81526020017f53616665206465706f736974000000000000000000000000000000000000000081525081526020016102718152602001600181526020016034815260200160098562001055919062001d7d565b81526020018381526020016002836200106f919062001db5565b81525060046000600c81526020019081526020016000206000820151816000019080519060200190620010a492919062001a4b565b506020820151816001015560408201518160020155606082015181600301556080820151816004015560a0820151816005015560c08201518160060155905050600881620010f3919062001e16565b905060148262001104919062001e16565b91506040518060e001604052806040518060400160405280600481526020017f436c75620000000000000000000000000000000000000000000000000000000081525081526020016102a38152602001600281526020016032815260200160068562001171919062001d7d565b81526020018381526020016002836200118b919062001db5565b81525060046000600d81526020019081526020016000206000820151816000019080519060200190620011c092919062001a4b565b506020820151816001015560408201518160020155606082015181600301556080820151816004015560a0820151816005015560c082015181600601559050506008816200120f919062001e16565b905060148262001220919062001e16565b91506040518060e001604052806040518060400160405280600881526020017f49542073746f726500000000000000000000000000000000000000000000000081525081526020016102d5815260200160038152602001603181526020016004856200128d919062001d7d565b8152602001838152602001600283620012a7919062001db5565b81525060046000600e81526020019081526020016000206000820151816000019080519060200190620012dc92919062001a4b565b506020820151816001015560408201518160020155606082015181600301556080820151816004015560a0820151816005015560c082015181600601559050506008816200132b919062001e16565b90506014826200133c919062001e16565b91506040518060e001604052806040518060400160405280601181526020017f4c6f63616c2064727567206465616c65720000000000000000000000000000008152508152602001610307815260200160048152602001602f8152602001600385620013a9919062001d7d565b8152602001838152602001600283620013c3919062001db5565b81525060046000600f81526020019081526020016000206000820151816000019080519060200190620013f892919062001a4b565b506020820151816001015560408201518160020155606082015181600301556080820151816004015560a0820151816005015560c0820151816006015590505060088162001447919062001e16565b905060148262001458919062001e16565b91506040518060e001604052806040518060400160405280601081526020017f4c6f63616c204d6166696120426f7373000000000000000000000000000000008152508152602001610352815260200160018152602001602d8152602001600285620014c5919062001d7d565b8152602001838152602001600283620014df919062001db5565b815250600460006010815260200190815260200160002060008201518160000190805190602001906200151492919062001a4b565b506020820151816001015560408201518160020155606082015181600301556080820151816004015560a0820151816005015560c082015181600601559050506040518060e001604052806040518060400160405280600f81526020017f4e6174696f6e616c204d757365756d00000000000000000000000000000000008152508152602001610352815260200160028152602001602d8152602001600285620015bf919062001d7d565b8152602001838152602001600283620015d9919062001db5565b815250600460006011815260200190815260200160002060008201518160000190805190602001906200160e92919062001a4b565b506020820151816001015560408201518160020155606082015181600301556080820151816004015560a0820151816005015560c082015181600601559050506040518060e001604052806040518060400160405280600681526020017f436173696e6f00000000000000000000000000000000000000000000000000008152508152602001610352815260200160038152602001602d8152602001600285620016b9919062001d7d565b8152602001838152602001600283620016d3919062001db5565b815250600460006012815260200190815260200160002060008201518160000190805190602001906200170892919062001a4b565b506020820151816001015560408201518160020155606082015181600301556080820151816004015560a0820151816005015560c082015181600601559050506040518060e001604052806040518060400160405280601481526020017f527573736f2c204b696e67206f662044727567730000000000000000000000008152508152602001610352815260200160038152602001602d8152602001600285620017b3919062001d7d565b8152602001838152602001600283620017cd919062001db5565b815250600460006013815260200190815260200160002060008201518160000190805190602001906200180292919062001a4b565b506020820151816001015560408201518160020155606082015181600301556080820151816004015560a0820151816005015560c08201518160060155905050505050505050505062001ed8565b60006200186383620018c960201b60201c565b905081600080858152602001908152602001600020600101819055508181847f6620dedee755c284a7e221a3279487b734830c1f76c026c797b4d019c6b4b2f460405160405180910390a4505050565b620018c58282620018e860201b60201c565b5050565b6000806000838152602001908152602001600020600101549050919050565b620018fa8282620019d960201b60201c565b620019d557600160008084815260200190815260200160002060000160008373ffffffffffffffffffffffffffffffffffffffff1673ffffffffffffffffffffffffffffffffffffffff16815260200190815260200160002060006101000a81548160ff0219169083151502179055506200197a62001a4360201b60201c565b73ffffffffffffffffffffffffffffffffffffffff168173ffffffffffffffffffffffffffffffffffffffff16837f1ec1667fba5e43c5c76fff54e76d7a4a20a4fecf7b49724ad8d52a3f726e9dbd60405160405180910390a45b5050565b600080600084815260200190815260200160002060000160008373ffffffffffffffffffffffffffffffffffffffff1673ffffffffffffffffffffffffffffffffffffffff16815260200190815260200160002060009054906101000a900460ff16905092915050565b600033905090565b82805462001a599062001ea2565b90600052602060002090601f01602090048101928262001a7d576000855562001ac9565b82601f1062001a9857805160ff191683800117855562001ac9565b8280016001018555821562001ac9579182015b8281111562001ac857825182559160200191906001019062001aab565b5b50905062001ad8919062001adc565b5090565b5b8082111562001af757600081600090555060010162001add565b5090565b600080fd5b600073ffffffffffffffffffffffffffffffffffffffff82169050919050565b600062001b2d8262001b00565b9050919050565b600062001b418262001b20565b9050919050565b62001b538162001b34565b811462001b5f57600080fd5b50565b60008151905062001b738162001b48565b92915050565b600062001b868262001b20565b9050919050565b62001b988162001b79565b811462001ba457600080fd5b50565b60008151905062001bb88162001b8d565b92915050565b600062001bcb8262001b20565b9050919050565b62001bdd8162001bbe565b811462001be957600080fd5b50565b60008151905062001bfd8162001bd2565b92915050565b600062001c108262001b20565b9050919050565b62001c228162001c03565b811462001c2e57600080fd5b50565b60008151905062001c428162001c17565b92915050565b600062001c558262001b20565b9050919050565b62001c678162001c48565b811462001c7357600080fd5b50565b60008151905062001c878162001c5c565b92915050565b600080600080600060a0868803121562001cac5762001cab62001afb565b5b600062001cbc8882890162001b62565b955050602062001ccf8882890162001ba7565b945050604062001ce28882890162001bec565b935050606062001cf58882890162001c31565b925050608062001d088882890162001c76565b9150509295509295909350565b6000819050919050565b7f4e487b7100000000000000000000000000000000000000000000000000000000600052601260045260246000fd5b7f4e487b7100000000000000000000000000000000000000000000000000000000600052601160045260246000fd5b600062001d8a8262001d15565b915062001d978362001d15565b92508262001daa5762001da962001d1f565b5b828204905092915050565b600062001dc28262001d15565b915062001dcf8362001d15565b9250817fffffffffffffffffffffffffffffffffffffffffffffffffffffffffffffffff048311821515161562001e0b5762001e0a62001d4e565b5b828202905092915050565b600062001e238262001d15565b915062001e308362001d15565b9250827fffffffffffffffffffffffffffffffffffffffffffffffffffffffffffffffff0382111562001e685762001e6762001d4e565b5b828201905092915050565b7f4e487b7100000000000000000000000000000000000000000000000000000000600052602260045260246000fd5b6000600282049050600182168062001ebb57607f821691505b6020821081141562001ed25762001ed162001e73565b5b50919050565b613ecc8062001ee86000396000f3fe608060405234801561001057600080fd5b50600436106101005760003560e01c80636f45e4e511610097578063b10beaa911610066578063b10beaa9146102ab578063b4df17eb146102c9578063ec2606c0146102f9578063fb2990ad1461032957610100565b80636f45e4e51461024957806375bbeee7146102675780638f28397014610271578063a217fddf1461028d57610100565b80632308d236116100d35780632308d2361461019d57806339782d02146101b957806350b66e89146101e957806358b5809a1461021957610100565b806301ffc9a714610105578063150b7a02146101355780631d0b19e7146101655780631fe5f58914610181575b600080fd5b61011f600480360381019061011a9190611ffd565b610359565b60405161012c9190612045565b60405180910390f35b61014f600480360381019061014a919061223a565b6103c3565b60405161015c91906122cc565b60405180910390f35b61017f600480360381019061017a91906122e7565b6103d7565b005b61019b600480360381019061019691906122e7565b610400565b005b6101b760048036038101906101b291906122e7565b610429565b005b6101d360048036038101906101ce9190612327565b6104ac565b6040516101e09190612376565b60405180910390f35b61020360048036038101906101fe9190612327565b610ce1565b6040516102109190612376565b60405180910390f35b610233600480360381019061022e9190612732565b61113d565b604051610240919061285f565b60405180910390f35b6102516114f7565b60405161025e9190612376565b60405180910390f35b61026f6114fc565b005b61028b60048036038101906102869190612881565b6115a6565b005b6102956115fe565b6040516102a29190612376565b60405180910390f35b6102b3611603565b6040516102c09190612a94565b60405180910390f35b6102e360048036038101906102de9190612ab6565b61178f565b6040516102f09190612376565b60405180910390f35b610313600480360381019061030e91906122e7565b611a2c565b6040516103209190612045565b60405180910390f35b610343600480360381019061033e9190612ab6565b611a96565b6040516103509190612376565b60405180910390f35b60007f150b7a02000000000000000000000000000000000000000000000000000000007bffffffffffffffffffffffffffffffffffffffffffffffffffffffff1916827bffffffffffffffffffffffffffffffffffffffffffffffffffffffff1916149050919050565b600063150b7a0260e01b9050949350505050565b6103e082611a96565b6103f1816103ec611ab5565b611abd565b6103fb8383611b57565b505050565b61040982611a96565b61041a81610415611ab5565b611abd565b6104248383611c38565b505050565b610431611ab5565b73ffffffffffffffffffffffffffffffffffffffff168173ffffffffffffffffffffffffffffffffffffffff161461049e576040517f08c379a000000000000000000000000000000000000000000000000000000000815260040161049590612b66565b60405180910390fd5b6104a88282611b57565b5050565b60003373ffffffffffffffffffffffffffffffffffffffff16600860009054906101000a900473ffffffffffffffffffffffffffffffffffffffff1673ffffffffffffffffffffffffffffffffffffffff16636352211e856040518263ffffffff1660e01b81526004016105209190612376565b602060405180830381865afa15801561053d573d6000803e3d6000fd5b505050506040513d601f19601f820116820180604052508101906105619190612b9b565b73ffffffffffffffffffffffffffffffffffffffff16146105b7576040517f08c379a00000000000000000000000000000000000000000000000000000000081526004016105ae90612c14565b60405180910390fd5b600082101580156105c9575060035482105b610608576040517f08c379a00000000000000000000000000000000000000000000000000000000081526004016105ff90612c80565b60405180910390fd5b600b60009054906101000a900473ffffffffffffffffffffffffffffffffffffffff1673ffffffffffffffffffffffffffffffffffffffff1663d458716e33856040518363ffffffff1660e01b8152600401610665929190612caf565b602060405180830381865afa158015610682573d6000803e3d6000fd5b505050506040513d601f19601f820116820180604052508101906106a69190612d04565b6106e5576040517f08c379a00000000000000000000000000000000000000000000000000000000081526004016106dc90612d7d565b60405180910390fd5b6000600860009054906101000a900473ffffffffffffffffffffffffffffffffffffffff1673ffffffffffffffffffffffffffffffffffffffff1663dabb0531856040518263ffffffff1660e01b81526004016107429190612376565b600060405180830381865afa15801561075f573d6000803e3d6000fd5b505050506040513d6000823e3d601f19601f820116820180604052508101906107889190613118565b9050806101c00151421015806107a357506000816101c00151145b6107e2576040517f08c379a00000000000000000000000000000000000000000000000000000000081526004016107d9906131ad565b60405180910390fd5b60046000848152602001908152602001600020600101548160a00151101561083f576040517f08c379a000000000000000000000000000000000000000000000000000000000815260040161083690613219565b60405180910390fd5b6000600960009054906101000a900473ffffffffffffffffffffffffffffffffffffffff1673ffffffffffffffffffffffffffffffffffffffff16635aef31ac33876040518363ffffffff1660e01b815260040161089e929190612caf565b6020604051808303816000875af11580156108bd573d6000803e3d6000fd5b505050506040513d601f19601f820116820180604052508101906108e19190613239565b905060008111610926576040517f08c379a000000000000000000000000000000000000000000000000000000000815260040161091d906132b2565b60405180910390fd5b6000600b60009054906101000a900473ffffffffffffffffffffffffffffffffffffffff1673ffffffffffffffffffffffffffffffffffffffff1663a65e83c3336040518263ffffffff1660e01b815260040161098391906132d2565b61016060405180830381865afa1580156109a1573d6000803e3d6000fd5b505050506040513d601f19601f820116820180604052508101906109c591906133f9565b90506000816020015114156109df57428160200181815250505b6000600760019054906101000a900473ffffffffffffffffffffffffffffffffffffffff1673ffffffffffffffffffffffffffffffffffffffff16632530c90560046040518263ffffffff1660e01b8152600401610a3d919061346c565b6020604051808303816000875af1158015610a5c573d6000803e3d6000fd5b505050506040513d601f19601f82011682018060405250810190610a809190613239565b6003610a8c91906134b6565b90506000610aa0858885610140015161113d565b9050606481600081518110610ab857610ab761350c565b5b602002602001015114610aca57600091505b606481600081518110610ae057610adf61350c565b5b60200260200101511415610b1e57600460008881526020019081526020016000206004015483600001818151610b1691906134b6565b915081815250505b600b60009054906101000a900473ffffffffffffffffffffffffffffffffffffffff1673ffffffffffffffffffffffffffffffffffffffff1663a28fe11333856040518363ffffffff1660e01b8152600401610b7b92919061361c565b600060405180830381600087803b158015610b9557600080fd5b505af1158015610ba9573d6000803e3d6000fd5b50505050600960009054906101000a900473ffffffffffffffffffffffffffffffffffffffff1673ffffffffffffffffffffffffffffffffffffffff16632e5bdb178683600081518110610c0057610bff61350c565b5b602002602001015184600181518110610c1c57610c1b61350c565b5b602002602001015186600460008e815260200190815260200160002060050154600460008f8152602001908152602001600020600601546040518763ffffffff1660e01b8152600401610c74969594939291906138fd565b6020604051808303816000875af1158015610c93573d6000803e3d6000fd5b505050506040513d601f19601f82011682018060405250810190610cb79190613239565b5080600081518110610ccc57610ccb61350c565b5b60200260200101519550505050505092915050565b60003373ffffffffffffffffffffffffffffffffffffffff16600860009054906101000a900473ffffffffffffffffffffffffffffffffffffffff1673ffffffffffffffffffffffffffffffffffffffff16636352211e856040518263ffffffff1660e01b8152600401610d559190612376565b602060405180830381865afa158015610d72573d6000803e3d6000fd5b505050506040513d601f19601f82011682018060405250810190610d969190612b9b565b73ffffffffffffffffffffffffffffffffffffffff1614610dec576040517f08c379a0000000000000000000000000000000000000000000000000000000008152600401610de390612c14565b60405180910390fd5b60008210158015610dfe575060035482105b610e3d576040517f08c379a0000000000000000000000000000000000000000000000000000000008152600401610e3490612c80565b60405180910390fd5b600060559050600060016004600086815260200190815260200160002060020154610e689190613965565b90506000600860009054906101000a900473ffffffffffffffffffffffffffffffffffffffff1673ffffffffffffffffffffffffffffffffffffffff1663dabb0531876040518263ffffffff1660e01b8152600401610ec79190612376565b600060405180830381865afa158015610ee4573d6000803e3d6000fd5b505050506040513d6000823e3d601f19601f82011682018060405250810190610f0d9190613118565b90506000600467ffffffffffffffff811115610f2c57610f2b61210f565b5b604051908082528060200260200182016040528015610f5a5781602001602082028036833780820191505090505b50905081610140015181600081518110610f7757610f7661350c565b5b60200260200101818152505081610160015181600181518110610f9d57610f9c61350c565b5b60200260200101818152505081610180015181600281518110610fc357610fc261350c565b5b602002602001018181525050816101a0015181600381518110610fe957610fe861350c565b5b6020026020010181815250506000600382858151811061100c5761100b61350c565b5b602002602001015161101e91906139c8565b9050601281111561102e57601290505b60018360400151141561104f5760028161104891906134b6565b90506110b1565b6002836040015114156110705760048161106991906134b6565b90506110b0565b6003836040015114156110915760068161108a91906134b6565b90506110af565b6004836040015114156110ae576008816110ab91906134b6565b90505b5b5b5b6004600088815260200190815260200160002060030154816110d391906134b6565b9050600583608001511061110057600583608001516110f291906139c8565b816110fd9190613965565b90505b603c60046000898152602001908152602001600020600301541161112357604694505b8481111561112f578490505b809550505050505092915050565b6060600080600160046000878152602001908152602001600020600201546111659190613965565b90506000600467ffffffffffffffff8111156111845761118361210f565b5b6040519080825280602002602001820160405280156111b25781602001602082028036833780820191505090505b509050866101400151816000815181106111cf576111ce61350c565b5b602002602001018181525050866101600151816001815181106111f5576111f461350c565b5b6020026020010181815250508661018001518160028151811061121b5761121a61350c565b5b602002602001018181525050866101a00151816003815181106112415761124061350c565b5b6020026020010181815250506000605090506000600383858151811061126a5761126961350c565b5b602002602001015161127c91906139c8565b9050601281111561128c57601290505b6001896020015114156112ad576002816112a691906134b6565b905061130f565b6002896020015114156112ce576004816112c791906134b6565b905061130e565b6002896020015114156112ef576006816112e891906134b6565b905061130d565b60028960200151141561130c5760088161130991906134b6565b90505b5b5b5b60038761131c91906139f9565b8161132791906134b6565b905060046000898152602001908152602001600020600301548161134b91906134b6565b90506005896080015110611378576005896080015161136a91906139c8565b816113759190613965565b90505b603c600460008a8152602001908152602001600020600301541161139b57604691505b818111156113a7578190505b6000600267ffffffffffffffff8111156113c4576113c361210f565b5b6040519080825280602002602001820160405280156113f25781602001602082028036833780820191505090505b5090506000600760019054906101000a900473ffffffffffffffffffffffffffffffffffffffff1673ffffffffffffffffffffffffffffffffffffffff16632530c905605a6040518263ffffffff1660e01b81526004016114539190613a8e565b6020604051808303816000875af1158015611472573d6000803e3d6000fd5b505050506040513d601f19601f820116820180604052508101906114969190613239565b90508281116114a457606496505b86826000815181106114b9576114b861350c565b5b60200260200101818152505080826001815181106114da576114d961350c565b5b602002602001018181525050819750505050505050509392505050565b601f81565b601e61150f8161150a611ab5565b611abd565b6000339050600060065411611559576040517f08c379a000000000000000000000000000000000000000000000000000000000815260040161155090613af5565b60405180910390fd5b8073ffffffffffffffffffffffffffffffffffffffff166108fc6006549081150290604051600060405180830381858888f193505050501580156115a1573d6000803e3d6000fd5b505050565b601e6115b9816115b4611ab5565b611abd565b81600160006101000a81548173ffffffffffffffffffffffffffffffffffffffff021916908373ffffffffffffffffffffffffffffffffffffffff1602179055505050565b601e81565b60606000601467ffffffffffffffff8111156116225761162161210f565b5b60405190808252806020026020018201604052801561165b57816020015b611648611f54565b8152602001906001900390816116405790505b50905060005b601481101561178757600460008281526020019081526020016000206040518060e001604052908160008201805461169890613b44565b80601f01602080910402602001604051908101604052809291908181526020018280546116c490613b44565b80156117115780601f106116e657610100808354040283529160200191611711565b820191906000526020600020905b8154815290600101906020018083116116f457829003601f168201915b5050505050815260200160018201548152602001600282015481526020016003820154815260200160048201548152602001600582015481526020016006820154815250508282815181106117695761176861350c565b5b6020026020010181905250808061177f90613b76565b915050611661565b508091505090565b6000600860009054906101000a900473ffffffffffffffffffffffffffffffffffffffff1673ffffffffffffffffffffffffffffffffffffffff16634f558e79836040518263ffffffff1660e01b81526004016117ec9190612376565b602060405180830381865afa158015611809573d6000803e3d6000fd5b505050506040513d601f19601f8201168201806040525081019061182d9190612d04565b61186c576040517f08c379a000000000000000000000000000000000000000000000000000000000815260040161186390613c0b565b60405180910390fd5b6000600860009054906101000a900473ffffffffffffffffffffffffffffffffffffffff1673ffffffffffffffffffffffffffffffffffffffff1663dabb0531846040518263ffffffff1660e01b81526004016118c99190612376565b600060405180830381865afa1580156118e6573d6000803e3d6000fd5b505050506040513d6000823e3d601f19601f8201168201806040525081019061190f9190613118565b9050600b60009054906101000a900473ffffffffffffffffffffffffffffffffffffffff1673ffffffffffffffffffffffffffffffffffffffff1663f7a6ab8e6040518163ffffffff1660e01b8152600401602060405180830381865afa15801561197e573d6000803e3d6000fd5b505050506040513d601f19601f820116820180604052508101906119a29190613239565b816103600151146119e8576040517f08c379a00000000000000000000000000000000000000000000000000000000081526004016119df90613c77565b60405180910390fd5b600042826101c001511115611a2257600042836101c00151611a0a9190613965565b90506201518081611a1b91906139c8565b9050809150505b8092505050919050565b600080600084815260200190815260200160002060000160008373ffffffffffffffffffffffffffffffffffffffff1673ffffffffffffffffffffffffffffffffffffffff16815260200190815260200160002060009054906101000a900460ff16905092915050565b6000806000838152602001908152602001600020600101549050919050565b600033905090565b611ac78282611a2c565b611b5357611aec8173ffffffffffffffffffffffffffffffffffffffff166014611d18565b611af7836020611d18565b604051602001611b08929190613d6b565b6040516020818303038152906040526040517f08c379a0000000000000000000000000000000000000000000000000000000008152600401611b4a9190613dde565b60405180910390fd5b5050565b611b618282611a2c565b15611c3457600080600084815260200190815260200160002060000160008373ffffffffffffffffffffffffffffffffffffffff1673ffffffffffffffffffffffffffffffffffffffff16815260200190815260200160002060006101000a81548160ff021916908315150217905550611bd9611ab5565b73ffffffffffffffffffffffffffffffffffffffff168173ffffffffffffffffffffffffffffffffffffffff16837fe0df21b65c73c27081b8f042a012b124085b41d78d27b7e3c4780f5650f5ebb860405160405180910390a45b5050565b611c428282611a2c565b611d1457600160008084815260200190815260200160002060000160008373ffffffffffffffffffffffffffffffffffffffff1673ffffffffffffffffffffffffffffffffffffffff16815260200190815260200160002060006101000a81548160ff021916908315150217905550611cb9611ab5565b73ffffffffffffffffffffffffffffffffffffffff168173ffffffffffffffffffffffffffffffffffffffff16837f1ec1667fba5e43c5c76fff54e76d7a4a20a4fecf7b49724ad8d52a3f726e9dbd60405160405180910390a45b5050565b606060006002836002611d2b91906139f9565b611d3591906134b6565b67ffffffffffffffff811115611d4e57611d4d61210f565b5b6040519080825280601f01601f191660200182016040528015611d805781602001600182028036833780820191505090505b5090507f300000000000000000000000000000000000000000000000000000000000000081600081518110611db857611db761350c565b5b60200101907effffffffffffffffffffffffffffffffffffffffffffffffffffffffffffff1916908160001a9053507f780000000000000000000000000000000000000000000000000000000000000081600181518110611e1c57611e1b61350c565b5b60200101907effffffffffffffffffffffffffffffffffffffffffffffffffffffffffffff1916908160001a90535060006001846002611e5c91906139f9565b611e6691906134b6565b90505b6001811115611f06577f3031323334353637383961626364656600000000000000000000000000000000600f861660108110611ea857611ea761350c565b5b1a60f81b828281518110611ebf57611ebe61350c565b5b60200101907effffffffffffffffffffffffffffffffffffffffffffffffffffffffffffff1916908160001a905350600485901c945080611eff90613e00565b9050611e69565b5060008414611f4a576040517f08c379a0000000000000000000000000000000000000000000000000000000008152600401611f4190613e76565b60405180910390fd5b8091505092915050565b6040518060e00160405280606081526020016000815260200160008152602001600081526020016000815260200160008152602001600081525090565b6000604051905090565b600080fd5b600080fd5b60007fffffffff0000000000000000000000000000000000000000000000000000000082169050919050565b611fda81611fa5565b8114611fe557600080fd5b50565b600081359050611ff781611fd1565b92915050565b60006020828403121561201357612012611f9b565b5b600061202184828501611fe8565b91505092915050565b60008115159050919050565b61203f8161202a565b82525050565b600060208201905061205a6000830184612036565b92915050565b600073ffffffffffffffffffffffffffffffffffffffff82169050919050565b600061208b82612060565b9050919050565b61209b81612080565b81146120a657600080fd5b50565b6000813590506120b881612092565b92915050565b6000819050919050565b6120d1816120be565b81146120dc57600080fd5b50565b6000813590506120ee816120c8565b92915050565b600080fd5b600080fd5b6000601f19601f8301169050919050565b7f4e487b7100000000000000000000000000000000000000000000000000000000600052604160045260246000fd5b612147826120fe565b810181811067ffffffffffffffff821117156121665761216561210f565b5b80604052505050565b6000612179611f91565b9050612185828261213e565b919050565b600067ffffffffffffffff8211156121a5576121a461210f565b5b6121ae826120fe565b9050602081019050919050565b82818337600083830152505050565b60006121dd6121d88461218a565b61216f565b9050828152602081018484840111156121f9576121f86120f9565b5b6122048482856121bb565b509392505050565b600082601f830112612221576122206120f4565b5b81356122318482602086016121ca565b91505092915050565b6000806000806080858703121561225457612253611f9b565b5b6000612262878288016120a9565b9450506020612273878288016120a9565b9350506040612284878288016120df565b925050606085013567ffffffffffffffff8111156122a5576122a4611fa0565b5b6122b18782880161220c565b91505092959194509250565b6122c681611fa5565b82525050565b60006020820190506122e160008301846122bd565b92915050565b600080604083850312156122fe576122fd611f9b565b5b600061230c858286016120df565b925050602061231d858286016120a9565b9150509250929050565b6000806040838503121561233e5761233d611f9b565b5b600061234c858286016120df565b925050602061235d858286016120df565b9150509250929050565b612370816120be565b82525050565b600060208201905061238b6000830184612367565b92915050565b600080fd5b600080fd5b600067ffffffffffffffff8211156123b6576123b561210f565b5b6123bf826120fe565b9050602081019050919050565b60006123df6123da8461239b565b61216f565b9050828152602081018484840111156123fb576123fa6120f9565b5b6124068482856121bb565b509392505050565b600082601f830112612423576124226120f4565b5b81356124338482602086016123cc565b91505092915050565b6000610400828403121561245357612452612391565b5b61245e61040061216f565b9050600082013567ffffffffffffffff81111561247e5761247d612396565b5b61248a8482850161240e565b600083015250602061249e848285016120df565b60208301525060406124b2848285016120df565b60408301525060606124c6848285016120df565b60608301525060806124da848285016120df565b60808301525060a06124ee848285016120df565b60a08301525060c0612502848285016120df565b60c08301525060e0612516848285016120df565b60e08301525061010061252b848285016120df565b61010083015250610120612541848285016120df565b61012083015250610140612557848285016120df565b6101408301525061016061256d848285016120df565b61016083015250610180612583848285016120df565b610180830152506101a0612599848285016120df565b6101a0830152506101c06125af848285016120df565b6101c0830152506101e06125c5848285016120df565b6101e0830152506102006125db848285016120df565b610200830152506102206125f1848285016120df565b61022083015250610240612607848285016120df565b6102408301525061026061261d848285016120df565b61026083015250610280612633848285016120df565b610280830152506102a0612649848285016120df565b6102a0830152506102c061265f848285016120df565b6102c0830152506102e0612675848285016120df565b6102e08301525061030061268b848285016120df565b610300830152506103206126a1848285016120df565b610320830152506103406126b7848285016120df565b610340830152506103606126cd848285016120df565b610360830152506103806126e3848285016120df565b610380830152506103a06126f9848285016120df565b6103a0830152506103c061270f848285016120a9565b6103c0830152506103e0612725848285016120df565b6103e08301525092915050565b60008060006060848603121561274b5761274a611f9b565b5b600084013567ffffffffffffffff81111561276957612768611fa0565b5b6127758682870161243c565b9350506020612786868287016120df565b9250506040612797868287016120df565b9150509250925092565b600081519050919050565b600082825260208201905092915050565b6000819050602082019050919050565b6127d6816120be565b82525050565b60006127e883836127cd565b60208301905092915050565b6000602082019050919050565b600061280c826127a1565b61281681856127ac565b9350612821836127bd565b8060005b8381101561285257815161283988826127dc565b9750612844836127f4565b925050600181019050612825565b5085935050505092915050565b600060208201905081810360008301526128798184612801565b905092915050565b60006020828403121561289757612896611f9b565b5b60006128a5848285016120a9565b91505092915050565b600081519050919050565b600082825260208201905092915050565b6000819050602082019050919050565b600081519050919050565b600082825260208201905092915050565b60005b838110156129145780820151818401526020810190506128f9565b83811115612923576000848401525b50505050565b6000612934826128da565b61293e81856128e5565b935061294e8185602086016128f6565b612957816120fe565b840191505092915050565b600060e083016000830151848203600086015261297f8282612929565b915050602083015161299460208601826127cd565b5060408301516129a760408601826127cd565b5060608301516129ba60608601826127cd565b5060808301516129cd60808601826127cd565b5060a08301516129e060a08601826127cd565b5060c08301516129f360c08601826127cd565b508091505092915050565b6000612a0a8383612962565b905092915050565b6000602082019050919050565b6000612a2a826128ae565b612a3481856128b9565b935083602082028501612a46856128ca565b8060005b85811015612a825784840389528151612a6385826129fe565b9450612a6e83612a12565b925060208a01995050600181019050612a4a565b50829750879550505050505092915050565b60006020820190508181036000830152612aae8184612a1f565b905092915050565b600060208284031215612acc57612acb611f9b565b5b6000612ada848285016120df565b91505092915050565b600082825260208201905092915050565b7f416363657373436f6e74726f6c3a2063616e206f6e6c792072656e6f756e636560008201527f20726f6c657320666f722073656c660000000000000000000000000000000000602082015250565b6000612b50602f83612ae3565b9150612b5b82612af4565b604082019050919050565b60006020820190508181036000830152612b7f81612b43565b9050919050565b600081519050612b9581612092565b92915050565b600060208284031215612bb157612bb0611f9b565b5b6000612bbf84828501612b86565b91505092915050565b7f4572726f72203100000000000000000000000000000000000000000000000000600082015250565b6000612bfe600783612ae3565b9150612c0982612bc8565b602082019050919050565b60006020820190508181036000830152612c2d81612bf1565b9050919050565b7f496e707574204572726f72000000000000000000000000000000000000000000600082015250565b6000612c6a600b83612ae3565b9150612c7582612c34565b602082019050919050565b60006020820190508181036000830152612c9981612c5d565b9050919050565b612ca981612080565b82525050565b6000604082019050612cc46000830185612ca0565b612cd16020830184612367565b9392505050565b612ce18161202a565b8114612cec57600080fd5b50565b600081519050612cfe81612cd8565b92915050565b600060208284031215612d1a57612d19611f9b565b5b6000612d2884828501612cef565b91505092915050565b7f4e6f742052756e20696e207468697320536561736f6e00000000000000000000600082015250565b6000612d67601683612ae3565b9150612d7282612d31565b602082019050919050565b60006020820190508181036000830152612d9681612d5a565b9050919050565b6000612db0612dab8461239b565b61216f565b905082815260208101848484011115612dcc57612dcb6120f9565b5b612dd78482856128f6565b509392505050565b600082601f830112612df457612df36120f4565b5b8151612e04848260208601612d9d565b91505092915050565b600081519050612e1c816120c8565b92915050565b60006104008284031215612e3957612e38612391565b5b612e4461040061216f565b9050600082015167ffffffffffffffff811115612e6457612e63612396565b5b612e7084828501612ddf565b6000830152506020612e8484828501612e0d565b6020830152506040612e9884828501612e0d565b6040830152506060612eac84828501612e0d565b6060830152506080612ec084828501612e0d565b60808301525060a0612ed484828501612e0d565b60a08301525060c0612ee884828501612e0d565b60c08301525060e0612efc84828501612e0d565b60e083015250610100612f1184828501612e0d565b61010083015250610120612f2784828501612e0d565b61012083015250610140612f3d84828501612e0d565b61014083015250610160612f5384828501612e0d565b61016083015250610180612f6984828501612e0d565b610180830152506101a0612f7f84828501612e0d565b6101a0830152506101c0612f9584828501612e0d565b6101c0830152506101e0612fab84828501612e0d565b6101e083015250610200612fc184828501612e0d565b61020083015250610220612fd784828501612e0d565b61022083015250610240612fed84828501612e0d565b6102408301525061026061300384828501612e0d565b6102608301525061028061301984828501612e0d565b610280830152506102a061302f84828501612e0d565b6102a0830152506102c061304584828501612e0d565b6102c0830152506102e061305b84828501612e0d565b6102e08301525061030061307184828501612e0d565b6103008301525061032061308784828501612e0d565b6103208301525061034061309d84828501612e0d565b610340830152506103606130b384828501612e0d565b610360830152506103806130c984828501612e0d565b610380830152506103a06130df84828501612e0d565b6103a0830152506103c06130f584828501612b86565b6103c0830152506103e061310b84828501612e0d565b6103e08301525092915050565b60006020828403121561312e5761312d611f9b565b5b600082015167ffffffffffffffff81111561314c5761314b611fa0565b5b61315884828501612e22565b91505092915050565b7f4f6e652070657220446179000000000000000000000000000000000000000000600082015250565b6000613197600b83612ae3565b91506131a282613161565b602082019050919050565b600060208201905081810360008301526131c68161318a565b9050919050565b7f5265717569726520526573706563740000000000000000000000000000000000600082015250565b6000613203600f83612ae3565b915061320e826131cd565b602082019050919050565b60006020820190508181036000830152613232816131f6565b9050919050565b60006020828403121561324f5761324e611f9b565b5b600061325d84828501612e0d565b91505092915050565b7f45787065646974696f6e204661696c6564000000000000000000000000000000600082015250565b600061329c601183612ae3565b91506132a782613266565b602082019050919050565b600060208201905081810360008301526132cb8161328f565b9050919050565b60006020820190506132e76000830184612ca0565b92915050565b6000610160828403121561330457613303612391565b5b61330f61016061216f565b9050600061331f84828501612e0d565b600083015250602061333384828501612e0d565b602083015250604061334784828501612e0d565b604083015250606061335b84828501612e0d565b606083015250608061336f84828501612e0d565b60808301525060a061338384828501612e0d565b60a08301525060c061339784828501612e0d565b60c08301525060e06133ab84828501612e0d565b60e0830152506101006133c084828501612e0d565b610100830152506101206133d684828501612e0d565b610120830152506101406133ec84828501612e0d565b6101408301525092915050565b600061016082840312156134105761340f611f9b565b5b600061341e848285016132ed565b91505092915050565b6000819050919050565b6000819050919050565b600061345661345161344c84613427565b613431565b6120be565b9050919050565b6134668161343b565b82525050565b6000602082019050613481600083018461345d565b92915050565b7f4e487b7100000000000000000000000000000000000000000000000000000000600052601160045260246000fd5b60006134c1826120be565b91506134cc836120be565b9250827fffffffffffffffffffffffffffffffffffffffffffffffffffffffffffffffff0382111561350157613500613487565b5b828201905092915050565b7f4e487b7100000000000000000000000000000000000000000000000000000000600052603260045260246000fd5b6101608201600082015161355260008501826127cd565b50602082015161356560208501826127cd565b50604082015161357860408501826127cd565b50606082015161358b60608501826127cd565b50608082015161359e60808501826127cd565b5060a08201516135b160a08501826127cd565b5060c08201516135c460c08501826127cd565b5060e08201516135d760e08501826127cd565b506101008201516135ec6101008501826127cd565b506101208201516136016101208501826127cd565b506101408201516136166101408501826127cd565b50505050565b6000610180820190506136326000830185612ca0565b61363f602083018461353b565b9392505050565b61364f81612080565b82525050565b60006104008301600083015184820360008601526136738282612929565b915050602083015161368860208601826127cd565b50604083015161369b60408601826127cd565b5060608301516136ae60608601826127cd565b5060808301516136c160808601826127cd565b5060a08301516136d460a08601826127cd565b5060c08301516136e760c08601826127cd565b5060e08301516136fa60e08601826127cd565b5061010083015161370f6101008601826127cd565b506101208301516137246101208601826127cd565b506101408301516137396101408601826127cd565b5061016083015161374e6101608601826127cd565b506101808301516137636101808601826127cd565b506101a08301516137786101a08601826127cd565b506101c083015161378d6101c08601826127cd565b506101e08301516137a26101e08601826127cd565b506102008301516137b76102008601826127cd565b506102208301516137cc6102208601826127cd565b506102408301516137e16102408601826127cd565b506102608301516137f66102608601826127cd565b5061028083015161380b6102808601826127cd565b506102a08301516138206102a08601826127cd565b506102c08301516138356102c08601826127cd565b506102e083015161384a6102e08601826127cd565b5061030083015161385f6103008601826127cd565b506103208301516138746103208601826127cd565b506103408301516138896103408601826127cd565b5061036083015161389e6103608601826127cd565b506103808301516138b36103808601826127cd565b506103a08301516138c86103a08601826127cd565b506103c08301516138dd6103c0860182613646565b506103e08301516138f26103e08601826127cd565b508091505092915050565b600060c08201905081810360008301526139178189613655565b90506139266020830188612367565b6139336040830187612367565b6139406060830186612367565b61394d6080830185612367565b61395a60a0830184612367565b979650505050505050565b6000613970826120be565b915061397b836120be565b92508282101561398e5761398d613487565b5b828203905092915050565b7f4e487b7100000000000000000000000000000000000000000000000000000000600052601260045260246000fd5b60006139d3826120be565b91506139de836120be565b9250826139ee576139ed613999565b5b828204905092915050565b6000613a04826120be565b9150613a0f836120be565b9250817fffffffffffffffffffffffffffffffffffffffffffffffffffffffffffffffff0483118215151615613a4857613a47613487565b5b828202905092915050565b6000819050919050565b6000613a78613a73613a6e84613a53565b613431565b6120be565b9050919050565b613a8881613a5d565b82525050565b6000602082019050613aa36000830184613a7f565b92915050565b7f496e73756666696369656e742042616c616e6365000000000000000000000000600082015250565b6000613adf601483612ae3565b9150613aea82613aa9565b602082019050919050565b60006020820190508181036000830152613b0e81613ad2565b9050919050565b7f4e487b7100000000000000000000000000000000000000000000000000000000600052602260045260246000fd5b60006002820490506001821680613b5c57607f821691505b60208210811415613b7057613b6f613b15565b5b50919050565b6000613b81826120be565b91507fffffffffffffffffffffffffffffffffffffffffffffffffffffffffffffffff821415613bb457613bb3613487565b5b600182019050919050565b7f4e6f204578697374730000000000000000000000000000000000000000000000600082015250565b6000613bf5600983612ae3565b9150613c0082613bbf565b602082019050919050565b60006020820190508181036000830152613c2481613be8565b9050919050565b7f4572726f7220536561736f6e2049640000000000000000000000000000000000600082015250565b6000613c61600f83612ae3565b9150613c6c82613c2b565b602082019050919050565b60006020820190508181036000830152613c9081613c54565b9050919050565b600081905092915050565b7f416363657373436f6e74726f6c3a206163636f756e7420000000000000000000600082015250565b6000613cd8601783613c97565b9150613ce382613ca2565b601782019050919050565b6000613cf9826128da565b613d038185613c97565b9350613d138185602086016128f6565b80840191505092915050565b7f206973206d697373696e6720726f6c6520000000000000000000000000000000600082015250565b6000613d55601183613c97565b9150613d6082613d1f565b601182019050919050565b6000613d7682613ccb565b9150613d828285613cee565b9150613d8d82613d48565b9150613d998284613cee565b91508190509392505050565b6000613db0826128da565b613dba8185612ae3565b9350613dca8185602086016128f6565b613dd3816120fe565b840191505092915050565b60006020820190508181036000830152613df88184613da5565b905092915050565b6000613e0b826120be565b91506000821415613e1f57613e1e613487565b5b600182039050919050565b7f537472696e67733a20686578206c656e67746820696e73756666696369656e74600082015250565b6000613e60602083612ae3565b9150613e6b82613e2a565b602082019050919050565b60006020820190508181036000830152613e8f81613e53565b905091905056fea26469706673582212202fea2b2b13d4cb6d63ece8f1d9a377e635858804b27e5bc06026d0a67a8b1c8c64736f6c634300080a0033",
  "immutableReferences": {},
  "source": "// SPDX-License-Identifier: UNLICENSED\r\npragma solidity >=0.4.22 <0.9.0;\r\n\r\n/**\r\n * @title SampleBEP20Token\r\n * @dev Very simple BEP20 Token example, where all tokens are pre-assigned to the creator.\r\n * Note they can later distribute these tokens as they wish using `transfer` and other\r\n * `BEP20` functions.\r\n * USE IT ONLY FOR LEARNING PURPOSES. SHOULD BE MODIFIED FOR PRODUCTION\r\n */\r\n\r\nimport \"../../node_modules/@openzeppelin/contracts/token/ERC721/IERC721Receiver.sol\";\r\nimport \"./../utils/Admin.sol\";\r\nimport \"./../utils/Utils.sol\";\r\nimport \"./../utils/CharacterUtils.sol\";\r\n\r\nimport \"./../tokens/Character.sol\";\r\nimport \"./../tokens/GANG.sol\";\r\nimport \"./../tokens/GameItem.sol\";\r\nimport \"./../CoreInGame.sol\";\r\n\r\ncontract Robbery is Admin, IERC721Receiver {\r\n    address private _contractowner;\r\n    address private _secondowner;\r\n\r\n    struct RobberyStruct\r\n    {\r\n        string name;\r\n        uint256 powerReq;\r\n        uint256 bestStats;\r\n        uint256 baseChance;\r\n        uint256 reward;\r\n        uint256 respectReward;\r\n        uint256 baseDamage;\r\n    }\r\n\r\n    uint256 private robberyMaxId = 0;\r\n\r\n    mapping( uint256 => RobberyStruct) private gameRoubo;\r\n\r\n    uint256 private mintPrice = 15000000000000000000;\r\n\r\n    uint256 private bnbBalance;\r\n\r\n    bool private Initialized;\r\n\r\n    Utils private utils;\r\n    Character private crimeChar;\r\n    CharacterUtils private charUtils;\r\n    GameItem private crimeItem;\r\n    CoreInGame private game;\r\n\r\n    constructor(Utils _util, Character _character, GameItem _gameItem, CharacterUtils _charUtils, CoreInGame _game) Admin()\r\n    {\r\n        _secondowner = address(0xbf752Eb4b851B241A36e22767b304ef28242198A);\r\n        _setRoleAdmin(DEFAULT_ADMIN_ROLE, DEFAULT_ADMIN_ROLE);\r\n        _setRoleAdmin(DEFAULT_CORE_ROLE, DEFAULT_ADMIN_ROLE);\r\n        _setupRole(DEFAULT_ADMIN_ROLE, msg.sender);\r\n        _setupRole(DEFAULT_ADMIN_ROLE, _secondowner);\r\n        Initialized = false;\r\n\r\n        _contractowner = msg.sender;\r\n        bnbBalance = 0;\r\n        crimeChar = _character;\r\n        crimeItem = _gameItem;\r\n        utils = _util;\r\n        game = _game; \r\n        charUtils = _charUtils;\r\n\r\n        uint256 r = mintPrice; \r\n        uint256 resp = 2;\r\n        uint256 bDmg = 5;\r\n        robberyMaxId = 20;\r\n\r\n        gameRoubo[0] = RobberyStruct(\"$1,99 store\", 50, 1, 75, (r / 60), resp, bDmg); \r\n        gameRoubo[1] = RobberyStruct(\"Old woman on the street\", 100, 2, 75, (r / 55), resp, bDmg * 2);\r\n        bDmg += 2;\r\n        resp += 20;\r\n        gameRoubo[2] = RobberyStruct(\"Car Radio\", 150, 3, 75, (r / 50), resp, bDmg * 2);\r\n        bDmg += 2;\r\n        resp += 20;\r\n        gameRoubo[3] = RobberyStruct(\"Taxi\", 200, 4, 75, (r / 45), resp, bDmg * 2);\r\n        bDmg += 2;\r\n        resp += 20;\r\n        gameRoubo[4] = RobberyStruct(\"Steal a house\", 225, 1, 73, (r / 40), resp, bDmg * 2);\r\n        bDmg += 2;\r\n        resp += 20;\r\n        gameRoubo[5] = RobberyStruct(\"Gas Station\", 275, 2, 70, (r / 35), resp, bDmg * 2);\r\n        bDmg += 2;\r\n        resp += 20;\r\n        gameRoubo[6] = RobberyStruct(\"Tobacco store\", 325, 3, 65, (r / 32), resp, bDmg * 2);\r\n        bDmg += 2;\r\n        resp += 20;\r\n        gameRoubo[7] = RobberyStruct(\"Kidnap\", 375, 4, 63, (r / 28), resp, bDmg * 2);\r\n        bDmg += 2;\r\n        resp += 20;\r\n        gameRoubo[8] = RobberyStruct(\"Jewelry Store\", 425, 1, 60, (r / 24), resp, bDmg * 2);\r\n        bDmg += 4;\r\n        resp += 20;\r\n        gameRoubo[9] = RobberyStruct(\"Small bank\", 475, 2, 58, (r / 20), resp, bDmg * 2);\r\n        bDmg += 4;\r\n        resp += 20;\r\n        gameRoubo[10] = RobberyStruct(\"Car dealership\", 525, 3, 56, (r / 16), resp, bDmg * 2);\r\n        bDmg += 8;\r\n        resp += 20;\r\n        gameRoubo[11] = RobberyStruct(\"Local thugs\", 575, 4, 54, (r / 12), resp, bDmg * 2);\r\n        bDmg += 8;\r\n        resp += 20;\r\n        gameRoubo[12] = RobberyStruct(\"Safe deposit\", 625, 1, 52, (r / 9), resp, bDmg * 2);\r\n        bDmg += 8;\r\n        resp += 20;\r\n        gameRoubo[13] = RobberyStruct(\"Club\", 675, 2, 50, (r / 6) , resp, bDmg * 2);\r\n        bDmg += 8;\r\n        resp += 20;\r\n        gameRoubo[14] = RobberyStruct(\"IT store\", 725, 3, 49, (r / 4), resp, bDmg * 2);\r\n        bDmg += 8;\r\n        resp += 20;\r\n        gameRoubo[15] = RobberyStruct(\"Local drug dealer\", 775, 4, 47, (r / 3), resp, bDmg * 2);\r\n        bDmg += 8;\r\n        resp += 20;\r\n        gameRoubo[16] = RobberyStruct(\"Local Mafia Boss\", 850, 1, 45, (r / 2), resp, bDmg * 2);\r\n        gameRoubo[17] = RobberyStruct(\"National Museum\", 850, 2, 45, (r / 2), resp, bDmg * 2);\r\n        gameRoubo[18] = RobberyStruct(\"Casino\", 850, 3, 45, (r / 2), resp, bDmg * 2);\r\n        gameRoubo[19] = RobberyStruct(\"Russo, King of Drugs\", 850, 3, 45, (r / 2), resp, bDmg * 2);\r\n    }\r\n\r\n    function changeAdmin(address newAdmin) public onlyRole(DEFAULT_ADMIN_ROLE)\r\n    {\r\n        _contractowner = newAdmin;\r\n    }\r\n\r\n    function onERC721Received(address, address, uint256, bytes memory) public virtual override returns (bytes4) {\r\n        return this.onERC721Received.selector;\r\n    }\r\n\r\n    function getRobberyList() public view returns (RobberyStruct[] memory)\r\n    {\r\n        RobberyStruct[] memory result = new RobberyStruct[](20);\r\n        for(uint256 x = 0; x < 20; x++)\r\n        {\r\n            result[x] = gameRoubo[x];\r\n        }\r\n        return result;\r\n    }\r\n\r\n    function supportsInterface(bytes4 interfaceId) public pure returns (bool) {\r\n        return interfaceId == type(IERC721Receiver).interfaceId;\r\n    }\r\n    function bnbWithdraw() onlyRole(DEFAULT_ADMIN_ROLE) public\r\n    {\r\n        address payable owner = payable(msg.sender);\r\n        require(bnbBalance > 0, \"Insufficient Balance\");\r\n        owner.transfer(bnbBalance);\r\n    }\r\n    function getRobberyCountDown(uint256 tokenId) public view returns (uint256)\r\n    {\r\n        require(crimeChar.exists(tokenId), \"No Exists\");\r\n        CharacterDetail memory char = crimeChar.getCharacter(tokenId);\r\n\r\n        require(char.seasonId == game.getSeasonId(), \"Error Season Id\");\r\n        uint256 result = 0;\r\n        if(char.lastExpedition > block.timestamp)\r\n        {\r\n            uint256 diff= char.lastExpedition - block.timestamp;\r\n            diff = diff / (1 days);\r\n            result = diff;\r\n        }\r\n        return result;\r\n    }\r\n    function getChanceForRobbery(uint256 tokenId, uint256 expeditionId) public view returns (uint256) {\r\n        require(crimeChar.ownerOf(tokenId) == msg.sender, \"Error 1\");\r\n        require(expeditionId >= 0 && expeditionId < robberyMaxId, \"Input Error\");\r\n        uint256 maxChance = 85;\r\n        uint256 bstats = gameRoubo[expeditionId].bestStats - 1;\r\n        CharacterDetail memory char = crimeChar.getCharacter(tokenId);\r\n        uint256[] memory _stats = new uint256[](4);\r\n        _stats[0] = char._str;\r\n        _stats[1] = char._int;\r\n        _stats[2] = char._cha;\r\n        _stats[3] = char._res;\r\n\r\n        uint256 chance = (_stats[bstats] / 3);\r\n\r\n        if(chance > 18) chance = 18;\r\n\r\n        if(char.rarity == 1) chance += 2;\r\n        else if(char.rarity == 2) chance += 4;\r\n        else if(char.rarity == 3) chance += 6;\r\n        else if(char.rarity == 4) chance += 8;\r\n\r\n        chance += gameRoubo[expeditionId].baseChance;\r\n\r\n        if(char.vicio >= 5)\r\n        {\r\n            chance -= (char.vicio / 5);\r\n        }\r\n        \r\n        if(gameRoubo[expeditionId].baseChance <= 60) maxChance = 70;\r\n        if(chance > maxChance) chance = maxChance;\r\n        return chance;\r\n    }\r\n\r\n    function beginRobbery(uint256 tokenId, uint256 expeditionId) public returns (uint256) {\r\n        require(crimeChar.ownerOf(tokenId) == msg.sender, \"Error 1\");\r\n        require(expeditionId >= 0 && expeditionId < robberyMaxId, \"Input Error\");\r\n        require(game.checkCharacterCanRun(msg.sender, tokenId), \"Not Run in this Season\");\r\n\r\n        CharacterDetail memory char = crimeChar.getCharacter(tokenId);\r\n\r\n        require((block.timestamp >= char.lastExpedition) || (char.lastExpedition == 0), \"One per Day\"); //Last Expedition\r\n\r\n        //Requerimentos para Fazer Roubo, respeito requerido, stamina requerida\r\n        require(char.power >= gameRoubo[expeditionId].powerReq, \"Require Respect\");\r\n\r\n        uint256 expeditionResult = charUtils.createExpedition(msg.sender, tokenId);\r\n        require(expeditionResult > 0, \"Expedition Failed\");\r\n        \r\n        InGame memory acc = game.getIngameAccount(msg.sender);\r\n        \r\n        if(acc.claimTime == 0)\r\n        {\r\n            acc.claimTime = block.timestamp;\r\n        }\r\n\r\n        uint256 exp = 3 + utils.rand(4);\r\n\r\n        uint256[] memory returnValue = calculateRobbery(char, expeditionId, acc.vip);\r\n\r\n        if(returnValue[0] != 100) exp = 0;\r\n\r\n        // add InGame Balance,\r\n        if(returnValue[0] == 100) acc.balance += gameRoubo[expeditionId].reward;\r\n        \r\n        game.UpdateInGameAccount(msg.sender, acc);\r\n\r\n        charUtils.UpdateExpeditioResult(char, returnValue[0], returnValue[1], exp, gameRoubo[expeditionId].respectReward, gameRoubo[expeditionId].baseDamage);\r\n\r\n        return returnValue[0];\r\n    }\r\n\r\n    function calculateRobbery(CharacterDetail memory char, uint256 expeditionId, uint256 vip) public returns(uint256[] memory) \r\n    {\r\n        uint256 returnValue = 0;\r\n        uint256 bstats = gameRoubo[expeditionId].bestStats - 1;\r\n        uint256[] memory _stats = new uint256[](4);\r\n        _stats[0] = char._str;\r\n        _stats[1] = char._int;\r\n        _stats[2] = char._cha;\r\n        _stats[3] = char._res;\r\n        uint256 maxChance = 80;\r\n\r\n        uint256 chance = (_stats[bstats] / 3);\r\n\r\n        if(chance > 18) chance = 18;\r\n\r\n        if(char.class == 1) chance += 2;\r\n        else if(char.class == 2) chance += 4;\r\n        else if(char.class == 2) chance += 6;\r\n        else if(char.class == 2) chance += 8;\r\n\r\n        chance += vip * 3;\r\n\r\n        chance += gameRoubo[expeditionId].baseChance;\r\n\r\n        if(char.vicio >= 5)\r\n        {\r\n            chance -= (char.vicio / 5);\r\n        }\r\n        \r\n        if(gameRoubo[expeditionId].baseChance <= 60) maxChance = 70;\r\n        if(chance > maxChance) chance = maxChance;\r\n\r\n        uint256[] memory result = new uint256[](2);\r\n\r\n        uint256 _random = utils.rand(90);\r\n        if(_random <= chance)\r\n        {\r\n            returnValue = 100;\r\n        }\r\n        result[0] = returnValue;\r\n        result[1] = _random;\r\n        return result;\r\n    }\r\n}",
  "sourcePath": "D:\\CrimeCity\\contracts\\Features\\Robbery.sol",
  "compiler": {
    "name": "solc",
    "version": "0.8.10+commit.fc410830.Emscripten.clang"
  },
  "schemaVersion": "3.4.3",
  "updatedAt": "2022-01-22T20:23:21.784Z",
  "networkType": "ethereum",
  "devdoc": {
    "kind": "dev",
    "methods": {
      "getRoleAdmin(uint256)": {
        "details": "Returns the admin role that controls `role`. See {grantRole} and {revokeRole}. To change a role's admin, use {_setRoleAdmin}."
      },
      "grantRole(uint256,address)": {
        "details": "Grants `role` to `account`. If `account` had not been already granted `role`, emits a {RoleGranted} event. Requirements: - the caller must have ``role``'s admin role."
      },
      "hasRole(uint256,address)": {
        "details": "Returns `true` if `account` has been granted `role`."
      },
      "renounceRole(uint256,address)": {
        "details": "Revokes `role` from the calling account. Roles are often managed via {grantRole} and {revokeRole}: this function's purpose is to provide a mechanism for accounts to lose their privileges if they are compromised (such as when a trusted device is misplaced). If the calling account had been granted `role`, emits a {RoleRevoked} event. Requirements: - the caller must be `account`."
      },
      "revokeRole(uint256,address)": {
        "details": "Revokes `role` from `account`. If `account` had been granted `role`, emits a {RoleRevoked} event. Requirements: - the caller must have ``role``'s admin role."
      }
    },
    "version": 1
  },
  "userdoc": {
    "kind": "user",
    "methods": {},
    "version": 1
  }
}