{
  "contractName": "SeasonManager",
  "abi": [
    {
      "inputs": [
        {
          "internalType": "contract Utils",
          "name": "_util",
          "type": "address"
        },
        {
          "internalType": "contract Character",
          "name": "_character",
          "type": "address"
        },
        {
          "internalType": "contract GameItem",
          "name": "_gameItem",
          "type": "address"
        },
        {
          "internalType": "contract Factory",
          "name": "_crimeFac",
          "type": "address"
        }
      ],
      "stateMutability": "nonpayable",
      "type": "constructor"
    },
    {
      "anonymous": false,
      "inputs": [
        {
          "indexed": true,
          "internalType": "uint256",
          "name": "role",
          "type": "uint256"
        },
        {
          "indexed": true,
          "internalType": "uint256",
          "name": "previousAdminRole",
          "type": "uint256"
        },
        {
          "indexed": true,
          "internalType": "uint256",
          "name": "newAdminRole",
          "type": "uint256"
        }
      ],
      "name": "RoleAdminChanged",
      "type": "event"
    },
    {
      "anonymous": false,
      "inputs": [
        {
          "indexed": true,
          "internalType": "uint256",
          "name": "role",
          "type": "uint256"
        },
        {
          "indexed": true,
          "internalType": "address",
          "name": "account",
          "type": "address"
        },
        {
          "indexed": true,
          "internalType": "address",
          "name": "sender",
          "type": "address"
        }
      ],
      "name": "RoleGranted",
      "type": "event"
    },
    {
      "anonymous": false,
      "inputs": [
        {
          "indexed": true,
          "internalType": "uint256",
          "name": "role",
          "type": "uint256"
        },
        {
          "indexed": true,
          "internalType": "address",
          "name": "account",
          "type": "address"
        },
        {
          "indexed": true,
          "internalType": "address",
          "name": "sender",
          "type": "address"
        }
      ],
      "name": "RoleRevoked",
      "type": "event"
    },
    {
      "inputs": [],
      "name": "DEFAULT_ADMIN_ROLE",
      "outputs": [
        {
          "internalType": "uint256",
          "name": "",
          "type": "uint256"
        }
      ],
      "stateMutability": "view",
      "type": "function",
      "constant": true
    },
    {
      "inputs": [],
      "name": "DEFAULT_CORE_ROLE",
      "outputs": [
        {
          "internalType": "uint256",
          "name": "",
          "type": "uint256"
        }
      ],
      "stateMutability": "view",
      "type": "function",
      "constant": true
    },
    {
      "inputs": [
        {
          "internalType": "uint256",
          "name": "role",
          "type": "uint256"
        }
      ],
      "name": "getRoleAdmin",
      "outputs": [
        {
          "internalType": "uint256",
          "name": "",
          "type": "uint256"
        }
      ],
      "stateMutability": "view",
      "type": "function",
      "constant": true
    },
    {
      "inputs": [
        {
          "internalType": "uint256",
          "name": "role",
          "type": "uint256"
        },
        {
          "internalType": "address",
          "name": "account",
          "type": "address"
        }
      ],
      "name": "grantRole",
      "outputs": [],
      "stateMutability": "nonpayable",
      "type": "function"
    },
    {
      "inputs": [
        {
          "internalType": "uint256",
          "name": "role",
          "type": "uint256"
        },
        {
          "internalType": "address",
          "name": "account",
          "type": "address"
        }
      ],
      "name": "hasRole",
      "outputs": [
        {
          "internalType": "bool",
          "name": "",
          "type": "bool"
        }
      ],
      "stateMutability": "view",
      "type": "function",
      "constant": true
    },
    {
      "inputs": [
        {
          "internalType": "uint256",
          "name": "role",
          "type": "uint256"
        },
        {
          "internalType": "address",
          "name": "account",
          "type": "address"
        }
      ],
      "name": "renounceRole",
      "outputs": [],
      "stateMutability": "nonpayable",
      "type": "function"
    },
    {
      "inputs": [
        {
          "internalType": "uint256",
          "name": "role",
          "type": "uint256"
        },
        {
          "internalType": "address",
          "name": "account",
          "type": "address"
        }
      ],
      "name": "revokeRole",
      "outputs": [],
      "stateMutability": "nonpayable",
      "type": "function"
    },
    {
      "inputs": [
        {
          "internalType": "address",
          "name": "newAdmin",
          "type": "address"
        }
      ],
      "name": "changeAdmin",
      "outputs": [],
      "stateMutability": "nonpayable",
      "type": "function"
    },
    {
      "inputs": [
        {
          "internalType": "address",
          "name": "_CoreIn",
          "type": "address"
        }
      ],
      "name": "Initialize",
      "outputs": [],
      "stateMutability": "nonpayable",
      "type": "function"
    },
    {
      "inputs": [
        {
          "internalType": "address",
          "name": "",
          "type": "address"
        },
        {
          "internalType": "address",
          "name": "",
          "type": "address"
        },
        {
          "internalType": "uint256",
          "name": "",
          "type": "uint256"
        },
        {
          "internalType": "bytes",
          "name": "",
          "type": "bytes"
        }
      ],
      "name": "onERC721Received",
      "outputs": [
        {
          "internalType": "bytes4",
          "name": "",
          "type": "bytes4"
        }
      ],
      "stateMutability": "nonpayable",
      "type": "function"
    },
    {
      "inputs": [
        {
          "internalType": "bytes4",
          "name": "interfaceId",
          "type": "bytes4"
        }
      ],
      "name": "supportsInterface",
      "outputs": [
        {
          "internalType": "bool",
          "name": "",
          "type": "bool"
        }
      ],
      "stateMutability": "pure",
      "type": "function",
      "constant": true
    },
    {
      "inputs": [],
      "name": "bnbWithdraw",
      "outputs": [],
      "stateMutability": "nonpayable",
      "type": "function"
    },
    {
      "inputs": [],
      "name": "getSeasonDaysLeft",
      "outputs": [
        {
          "internalType": "uint256",
          "name": "",
          "type": "uint256"
        }
      ],
      "stateMutability": "view",
      "type": "function",
      "constant": true
    },
    {
      "inputs": [],
      "name": "getSeasonState",
      "outputs": [
        {
          "internalType": "string",
          "name": "",
          "type": "string"
        }
      ],
      "stateMutability": "view",
      "type": "function",
      "constant": true
    },
    {
      "inputs": [],
      "name": "finalizeSeason",
      "outputs": [],
      "stateMutability": "nonpayable",
      "type": "function"
    },
    {
      "inputs": [],
      "name": "getIndexSlot",
      "outputs": [
        {
          "internalType": "uint256",
          "name": "",
          "type": "uint256"
        }
      ],
      "stateMutability": "view",
      "type": "function",
      "constant": true
    },
    {
      "inputs": [],
      "name": "getInvestersId",
      "outputs": [
        {
          "internalType": "uint256",
          "name": "",
          "type": "uint256"
        }
      ],
      "stateMutability": "view",
      "type": "function",
      "constant": true
    },
    {
      "inputs": [],
      "name": "getAllInvesters",
      "outputs": [
        {
          "internalType": "address[]",
          "name": "",
          "type": "address[]"
        }
      ],
      "stateMutability": "view",
      "type": "function",
      "constant": true
    },
    {
      "inputs": [
        {
          "internalType": "uint256",
          "name": "id",
          "type": "uint256"
        }
      ],
      "name": "_exists",
      "outputs": [
        {
          "internalType": "bool",
          "name": "",
          "type": "bool"
        }
      ],
      "stateMutability": "view",
      "type": "function",
      "constant": true
    },
    {
      "inputs": [],
      "name": "burnInvesters",
      "outputs": [],
      "stateMutability": "nonpayable",
      "type": "function"
    },
    {
      "inputs": [
        {
          "internalType": "address",
          "name": "addr",
          "type": "address"
        }
      ],
      "name": "checkExistInvester",
      "outputs": [
        {
          "internalType": "bool",
          "name": "",
          "type": "bool"
        }
      ],
      "stateMutability": "view",
      "type": "function",
      "constant": true
    },
    {
      "inputs": [
        {
          "internalType": "bool",
          "name": "_new",
          "type": "bool"
        }
      ],
      "name": "InitializeSeason",
      "outputs": [],
      "stateMutability": "nonpayable",
      "type": "function"
    },
    {
      "inputs": [],
      "name": "getSeasonManager",
      "outputs": [
        {
          "components": [
            {
              "internalType": "uint256",
              "name": "seasonId",
              "type": "uint256"
            },
            {
              "internalType": "uint256",
              "name": "charactersInSeason",
              "type": "uint256"
            },
            {
              "internalType": "uint256",
              "name": "seasonTime",
              "type": "uint256"
            },
            {
              "internalType": "uint256",
              "name": "seasonStart",
              "type": "uint256"
            },
            {
              "internalType": "string",
              "name": "seasonState",
              "type": "string"
            }
          ],
          "internalType": "struct gameSeason",
          "name": "",
          "type": "tuple"
        }
      ],
      "stateMutability": "view",
      "type": "function",
      "constant": true
    },
    {
      "inputs": [
        {
          "components": [
            {
              "internalType": "uint256",
              "name": "seasonId",
              "type": "uint256"
            },
            {
              "internalType": "uint256",
              "name": "charactersInSeason",
              "type": "uint256"
            },
            {
              "internalType": "uint256",
              "name": "seasonTime",
              "type": "uint256"
            },
            {
              "internalType": "uint256",
              "name": "seasonStart",
              "type": "uint256"
            },
            {
              "internalType": "string",
              "name": "seasonState",
              "type": "string"
            }
          ],
          "internalType": "struct gameSeason",
          "name": "season",
          "type": "tuple"
        },
        {
          "internalType": "address",
          "name": "invester",
          "type": "address"
        }
      ],
      "name": "UpdateSeasonManager",
      "outputs": [],
      "stateMutability": "nonpayable",
      "type": "function"
    },
    {
      "inputs": [],
      "name": "getSeasonId",
      "outputs": [
        {
          "internalType": "uint256",
          "name": "",
          "type": "uint256"
        }
      ],
      "stateMutability": "view",
      "type": "function",
      "constant": true
    }
  ],
  "bytecode": "0x60806040526000600a553480156200001657600080fd5b50604051620030073803806200300783398181016040528101906200003c919062000716565b33600160006101000a81548173ffffffffffffffffffffffffffffffffffffffff021916908373ffffffffffffffffffffffffffffffffffffffff16021790555073bf752eb4b851b241a36e22767b304ef28242198a600260006101000a81548173ffffffffffffffffffffffffffffffffffffffff021916908373ffffffffffffffffffffffffffffffffffffffff160217905550600060038190555082600c60006101000a81548173ffffffffffffffffffffffffffffffffffffffff021916908373ffffffffffffffffffffffffffffffffffffffff16021790555081600d60006101000a81548173ffffffffffffffffffffffffffffffffffffffff021916908373ffffffffffffffffffffffffffffffffffffffff16021790555083600b60006101000a81548173ffffffffffffffffffffffffffffffffffffffff021916908373ffffffffffffffffffffffffffffffffffffffff16021790555080600e60006101000a81548173ffffffffffffffffffffffffffffffffffffffff021916908373ffffffffffffffffffffffffffffffffffffffff1602179055506040518060a00160405280600181526020016000815260200160008152602001600081526020016040518060400160405280600481526020017f496e69740000000000000000000000000000000000000000000000000000000081525081525060046000820151816000015560208201518160010155604082015181600201556060820151816003015560808201518160040190805190602001906200028692919062000519565b509050506200029d601e806200031e60201b60201c565b620002b1601f601e6200031e60201b60201c565b620002c4601e336200038160201b60201c565b620002f9601e600260009054906101000a900473ffffffffffffffffffffffffffffffffffffffff166200038160201b60201c565b6000600e60146101000a81548160ff02191690831515021790555050505050620007ed565b600062000331836200039760201b60201c565b905081600080858152602001908152602001600020600101819055508181847f6620dedee755c284a7e221a3279487b734830c1f76c026c797b4d019c6b4b2f460405160405180910390a4505050565b620003938282620003b660201b60201c565b5050565b6000806000838152602001908152602001600020600101549050919050565b620003c88282620004a760201b60201c565b620004a357600160008084815260200190815260200160002060000160008373ffffffffffffffffffffffffffffffffffffffff1673ffffffffffffffffffffffffffffffffffffffff16815260200190815260200160002060006101000a81548160ff021916908315150217905550620004486200051160201b60201c565b73ffffffffffffffffffffffffffffffffffffffff168173ffffffffffffffffffffffffffffffffffffffff16837f1ec1667fba5e43c5c76fff54e76d7a4a20a4fecf7b49724ad8d52a3f726e9dbd60405160405180910390a45b5050565b600080600084815260200190815260200160002060000160008373ffffffffffffffffffffffffffffffffffffffff1673ffffffffffffffffffffffffffffffffffffffff16815260200190815260200160002060009054906101000a900460ff16905092915050565b600033905090565b8280546200052790620007b7565b90600052602060002090601f0160209004810192826200054b576000855562000597565b82601f106200056657805160ff191683800117855562000597565b8280016001018555821562000597579182015b828111156200059657825182559160200191906001019062000579565b5b509050620005a69190620005aa565b5090565b5b80821115620005c5576000816000905550600101620005ab565b5090565b600080fd5b600073ffffffffffffffffffffffffffffffffffffffff82169050919050565b6000620005fb82620005ce565b9050919050565b60006200060f82620005ee565b9050919050565b620006218162000602565b81146200062d57600080fd5b50565b600081519050620006418162000616565b92915050565b60006200065482620005ee565b9050919050565b620006668162000647565b81146200067257600080fd5b50565b60008151905062000686816200065b565b92915050565b60006200069982620005ee565b9050919050565b620006ab816200068c565b8114620006b757600080fd5b50565b600081519050620006cb81620006a0565b92915050565b6000620006de82620005ee565b9050919050565b620006f081620006d1565b8114620006fc57600080fd5b50565b6000815190506200071081620006e5565b92915050565b60008060008060808587031215620007335762000732620005c9565b5b6000620007438782880162000630565b9450506020620007568782880162000675565b93505060406200076987828801620006ba565b92505060606200077c87828801620006ff565b91505092959194509250565b7f4e487b7100000000000000000000000000000000000000000000000000000000600052602260045260246000fd5b60006002820490506001821680620007d057607f821691505b60208210811415620007e757620007e662000788565b5b50919050565b61280a80620007fd6000396000f3fe608060405234801561001057600080fd5b50600436106101735760003560e01c806375bbeee7116100de578063d2cf91cc11610097578063edea1a7911610071578063edea1a79146103ee578063f7a6ab8e1461040a578063f8e76cc014610428578063fb2990ad1461045857610173565b8063d2cf91cc14610370578063de7c3fa81461038e578063ec2606c0146103be57610173565b806375bbeee7146102d45780638f283970146102de57806393c9d333146102fa578063a1513ba914610318578063a217fddf14610334578063c3309a611461035257610173565b806325e396cf1161013057806325e396cf1461024a57806330fb8f8a1461026857806336b14535146102725780633f9d2aea1461028e5780635030c45c146102ac5780636f45e4e5146102b657610173565b806301ffc9a714610178578063150b7a02146101a85780631ae4a969146101d85780631d0b19e7146101f65780631fe5f589146102125780632308d2361461022e575b600080fd5b610192600480360381019061018d9190611870565b610488565b60405161019f91906118b8565b60405180910390f35b6101c260048036038101906101bd9190611aad565b6104f2565b6040516101cf9190611b3f565b60405180910390f35b6101e0610506565b6040516101ed9190611b69565b60405180910390f35b610210600480360381019061020b9190611b84565b610550565b005b61022c60048036038101906102279190611b84565b610579565b005b61024860048036038101906102439190611b84565b6105a2565b005b610252610625565b60405161025f9190611b69565b60405180910390f35b61027061062f565b005b61028c60048036038101906102879190611bc4565b610918565b005b610296610969565b6040516102a39190611cfe565b60405180910390f35b6102b4610a3d565b005b6102be610aa3565b6040516102cb9190611b69565b60405180910390f35b6102dc610aa8565b005b6102f860048036038101906102f39190611bc4565b610b52565b005b610302610baa565b60405161030f9190611d6a565b60405180910390f35b610332600480360381019061032d9190611db8565b610c3e565b005b61033c610dc5565b6040516103499190611b69565b60405180910390f35b61035a610dca565b6040516103679190611ea3565b60405180910390f35b610378610fe8565b6040516103859190611b69565b60405180910390f35b6103a860048036038101906103a39190611bc4565b61102e565b6040516103b591906118b8565b60405180910390f35b6103d860048036038101906103d39190611b84565b6110d8565b6040516103e591906118b8565b60405180910390f35b61040860048036038101906104039190612018565b611142565b005b610412611236565b60405161041f9190611b69565b60405180910390f35b610442600480360381019061043d9190612074565b611243565b60405161044f91906118b8565b60405180910390f35b610472600480360381019061046d9190612074565b611266565b60405161047f9190611b69565b60405180910390f35b60007f150b7a02000000000000000000000000000000000000000000000000000000007bffffffffffffffffffffffffffffffffffffffffffffffffffffffff1916827bffffffffffffffffffffffffffffffffffffffffffffffffffffffff1916149050919050565b600063150b7a0260e01b9050949350505050565b600080600a54905060005b600a5481116105475761052381611243565b61053457809150819250505061054d565b808061053f906120d0565b915050610511565b50809150505b90565b61055982611266565b61056a81610565611285565b61128d565b6105748383611327565b505050565b61058282611266565b6105938161058e611285565b61128d565b61059d8383611408565b505050565b6105aa611285565b73ffffffffffffffffffffffffffffffffffffffff168173ffffffffffffffffffffffffffffffffffffffff1614610617576040517f08c379a000000000000000000000000000000000000000000000000000000000815260040161060e9061218b565b60405180910390fd5b6106218282611327565b5050565b6000600a54905090565b601e6106428161063d611285565b61128d565b600b60009054906101000a900473ffffffffffffffffffffffffffffffffffffffff1673ffffffffffffffffffffffffffffffffffffffff16639cfbe1a6600480016040518263ffffffff1660e01b81526004016106a091906122ed565b602060405180830381865afa1580156106bd573d6000803e3d6000fd5b505050506040513d601f19601f820116820180604052508101906106e19190612337565b610720576040517f08c379a0000000000000000000000000000000000000000000000000000000008152600401610717906123b0565b60405180910390fd5b6040518060400160405280600481526020017f496e69740000000000000000000000000000000000000000000000000000000081525060048001908051906020019061076d929190611732565b50600060046003018190555060006004600201819055506000600460010181905550600e60009054906101000a900473ffffffffffffffffffffffffffffffffffffffff1673ffffffffffffffffffffffffffffffffffffffff1663e725e0f66040518163ffffffff1660e01b8152600401600060405180830381600087803b1580156107f957600080fd5b505af115801561080d573d6000803e3d6000fd5b50505050600c60009054906101000a900473ffffffffffffffffffffffffffffffffffffffff1673ffffffffffffffffffffffffffffffffffffffff1663e01d6be66040518163ffffffff1660e01b8152600401600060405180830381600087803b15801561087b57600080fd5b505af115801561088f573d6000803e3d6000fd5b50505050600d60009054906101000a900473ffffffffffffffffffffffffffffffffffffffff1673ffffffffffffffffffffffffffffffffffffffff1663399bab9c6040518163ffffffff1660e01b8152600401600060405180830381600087803b1580156108fd57600080fd5b505af1158015610911573d6000803e3d6000fd5b5050505050565b60001515600e60149054906101000a900460ff16151514156109665761093f601f826114e8565b61094a601e336114e8565b6001600e60146101000a81548160ff0219169083151502179055505b50565b6109716117b8565b60046040518060a0016040529081600082015481526020016001820154815260200160028201548152602001600382015481526020016004820180546109b6906121da565b80601f01602080910402602001604051908101604052809291908181526020018280546109e2906121da565b8015610a2f5780601f10610a0457610100808354040283529160200191610a2f565b820191906000526020600020905b815481529060010190602001808311610a1257829003601f168201915b505050505081525050905090565b601e610a5081610a4b611285565b61128d565b6000600190505b600a54811015610a9f57610a6a81611243565b15610a8c57600060096000838152602001908152602001600020600101819055505b8080610a97906120d0565b915050610a57565b5050565b601f81565b601e610abb81610ab6611285565b61128d565b6000339050600060035411610b05576040517f08c379a0000000000000000000000000000000000000000000000000000000008152600401610afc9061241c565b60405180910390fd5b8073ffffffffffffffffffffffffffffffffffffffff166108fc6003549081150290604051600060405180830381858888f19350505050158015610b4d573d6000803e3d6000fd5b505050565b601e610b6581610b60611285565b61128d565b81600160006101000a81548173ffffffffffffffffffffffffffffffffffffffff021916908373ffffffffffffffffffffffffffffffffffffffff1602179055505050565b6060600480018054610bbb906121da565b80601f0160208091040260200160405190810160405280929190818152602001828054610be7906121da565b8015610c345780601f10610c0957610100808354040283529160200191610c34565b820191906000526020600020905b815481529060010190602001808311610c1757829003601f168201915b5050505050905090565b601e610c5181610c4c611285565b61128d565b600b60009054906101000a900473ffffffffffffffffffffffffffffffffffffffff1673ffffffffffffffffffffffffffffffffffffffff16639cfbe1a6600480016040518263ffffffff1660e01b8152600401610caf9190612488565b602060405180830381865afa158015610ccc573d6000803e3d6000fd5b505050506040513d601f19601f82011682018060405250810190610cf09190612337565b610d2f576040517f08c379a0000000000000000000000000000000000000000000000000000000008152600401610d26906123b0565b60405180910390fd5b6040518060400160405280600781526020017f52554e4e494e4700000000000000000000000000000000000000000000000000815250600480019080519060200190610d7c929190611732565b50426004600301819055506262e08042610d9691906124bd565b6004600201819055508115610dc15760046000016000815480929190610dbb906120d0565b91905055505b5050565b601e81565b6060600080600a541415610e2a57600067ffffffffffffffff811115610df357610df2611982565b5b604051908082528060200260200182016040528015610e215781602001602082028036833780820191505090505b50915050610fe5565b60005b600a54811015610e6757610e4081611243565b15610e54578180610e50906120d0565b9250505b8080610e5f906120d0565b915050610e2d565b5060008167ffffffffffffffff811115610e8457610e83611982565b5b604051908082528060200260200182016040528015610eb25781602001602082028036833780820191505090505b5090506000805b600a54811015610f8257610ecc81611243565b8015610ed757508382105b15610f6f576009600082815260200190815260200160002060000160009054906101000a900473ffffffffffffffffffffffffffffffffffffffff16838381518110610f2657610f25612513565b5b602002602001019073ffffffffffffffffffffffffffffffffffffffff16908173ffffffffffffffffffffffffffffffffffffffff16815250508180610f6b906120d0565b9250505b8080610f7a906120d0565b915050610eb9565b50828114610fde57600067ffffffffffffffff811115610fa557610fa4611982565b5b604051908082528060200260200182016040528015610fd35781602001602082028036833780820191505090505b509350505050610fe5565b8193505050505b90565b600080600090504260046002015411156110275760004260046002015461100f9190612542565b9050620151808161102091906125a5565b9050809150505b8091505090565b6000806000905060005b600a548110156110cd578373ffffffffffffffffffffffffffffffffffffffff166009600083815260200190815260200160002060000160009054906101000a900473ffffffffffffffffffffffffffffffffffffffff1673ffffffffffffffffffffffffffffffffffffffff1614156110ba576001915081925050506110d3565b80806110c5906120d0565b915050611038565b50809150505b919050565b600080600084815260200190815260200160002060000160008373ffffffffffffffffffffffffffffffffffffffff1673ffffffffffffffffffffffffffffffffffffffff16815260200190815260200160002060009054906101000a900460ff16905092915050565b611154601f61114f611285565b61128d565b61115d8161102e565b6111e757600061116b610506565b9050816009600083815260200190815260200160002060000160006101000a81548173ffffffffffffffffffffffffffffffffffffffff021916908373ffffffffffffffffffffffffffffffffffffffff160217905550600a548114156111e557600a60008154809291906111df906120d0565b91905055505b505b81600460008201518160000155602082015181600101556040820151816002015560608201518160030155608082015181600401908051906020019061122e929190611732565b509050505050565b6000600460000154905090565b600060016009600084815260200190815260200160002060010154149050919050565b6000806000838152602001908152602001600020600101549050919050565b600033905090565b61129782826110d8565b611323576112bc8173ffffffffffffffffffffffffffffffffffffffff1660146114f6565b6112c78360206114f6565b6040516020016112d89291906126aa565b6040516020818303038152906040526040517f08c379a000000000000000000000000000000000000000000000000000000000815260040161131a9190611d6a565b60405180910390fd5b5050565b61133182826110d8565b1561140457600080600084815260200190815260200160002060000160008373ffffffffffffffffffffffffffffffffffffffff1673ffffffffffffffffffffffffffffffffffffffff16815260200190815260200160002060006101000a81548160ff0219169083151502179055506113a9611285565b73ffffffffffffffffffffffffffffffffffffffff168173ffffffffffffffffffffffffffffffffffffffff16837fe0df21b65c73c27081b8f042a012b124085b41d78d27b7e3c4780f5650f5ebb860405160405180910390a45b5050565b61141282826110d8565b6114e457600160008084815260200190815260200160002060000160008373ffffffffffffffffffffffffffffffffffffffff1673ffffffffffffffffffffffffffffffffffffffff16815260200190815260200160002060006101000a81548160ff021916908315150217905550611489611285565b73ffffffffffffffffffffffffffffffffffffffff168173ffffffffffffffffffffffffffffffffffffffff16837f1ec1667fba5e43c5c76fff54e76d7a4a20a4fecf7b49724ad8d52a3f726e9dbd60405160405180910390a45b5050565b6114f28282611408565b5050565b60606000600283600261150991906126e4565b61151391906124bd565b67ffffffffffffffff81111561152c5761152b611982565b5b6040519080825280601f01601f19166020018201604052801561155e5781602001600182028036833780820191505090505b5090507f30000000000000000000000000000000000000000000000000000000000000008160008151811061159657611595612513565b5b60200101907effffffffffffffffffffffffffffffffffffffffffffffffffffffffffffff1916908160001a9053507f7800000000000000000000000000000000000000000000000000000000000000816001815181106115fa576115f9612513565b5b60200101907effffffffffffffffffffffffffffffffffffffffffffffffffffffffffffff1916908160001a9053506000600184600261163a91906126e4565b61164491906124bd565b90505b60018111156116e4577f3031323334353637383961626364656600000000000000000000000000000000600f86166010811061168657611685612513565b5b1a60f81b82828151811061169d5761169c612513565b5b60200101907effffffffffffffffffffffffffffffffffffffffffffffffffffffffffffff1916908160001a905350600485901c9450806116dd9061273e565b9050611647565b5060008414611728576040517f08c379a000000000000000000000000000000000000000000000000000000000815260040161171f906127b4565b60405180910390fd5b8091505092915050565b82805461173e906121da565b90600052602060002090601f01602090048101928261176057600085556117a7565b82601f1061177957805160ff19168380011785556117a7565b828001600101855582156117a7579182015b828111156117a657825182559160200191906001019061178b565b5b5090506117b491906117e7565b5090565b6040518060a0016040528060008152602001600081526020016000815260200160008152602001606081525090565b5b808211156118005760008160009055506001016117e8565b5090565b6000604051905090565b600080fd5b600080fd5b60007fffffffff0000000000000000000000000000000000000000000000000000000082169050919050565b61184d81611818565b811461185857600080fd5b50565b60008135905061186a81611844565b92915050565b6000602082840312156118865761188561180e565b5b60006118948482850161185b565b91505092915050565b60008115159050919050565b6118b28161189d565b82525050565b60006020820190506118cd60008301846118a9565b92915050565b600073ffffffffffffffffffffffffffffffffffffffff82169050919050565b60006118fe826118d3565b9050919050565b61190e816118f3565b811461191957600080fd5b50565b60008135905061192b81611905565b92915050565b6000819050919050565b61194481611931565b811461194f57600080fd5b50565b6000813590506119618161193b565b92915050565b600080fd5b600080fd5b6000601f19601f8301169050919050565b7f4e487b7100000000000000000000000000000000000000000000000000000000600052604160045260246000fd5b6119ba82611971565b810181811067ffffffffffffffff821117156119d9576119d8611982565b5b80604052505050565b60006119ec611804565b90506119f882826119b1565b919050565b600067ffffffffffffffff821115611a1857611a17611982565b5b611a2182611971565b9050602081019050919050565b82818337600083830152505050565b6000611a50611a4b846119fd565b6119e2565b905082815260208101848484011115611a6c57611a6b61196c565b5b611a77848285611a2e565b509392505050565b600082601f830112611a9457611a93611967565b5b8135611aa4848260208601611a3d565b91505092915050565b60008060008060808587031215611ac757611ac661180e565b5b6000611ad58782880161191c565b9450506020611ae68782880161191c565b9350506040611af787828801611952565b925050606085013567ffffffffffffffff811115611b1857611b17611813565b5b611b2487828801611a7f565b91505092959194509250565b611b3981611818565b82525050565b6000602082019050611b546000830184611b30565b92915050565b611b6381611931565b82525050565b6000602082019050611b7e6000830184611b5a565b92915050565b60008060408385031215611b9b57611b9a61180e565b5b6000611ba985828601611952565b9250506020611bba8582860161191c565b9150509250929050565b600060208284031215611bda57611bd961180e565b5b6000611be88482850161191c565b91505092915050565b611bfa81611931565b82525050565b600081519050919050565b600082825260208201905092915050565b60005b83811015611c3a578082015181840152602081019050611c1f565b83811115611c49576000848401525b50505050565b6000611c5a82611c00565b611c648185611c0b565b9350611c74818560208601611c1c565b611c7d81611971565b840191505092915050565b600060a083016000830151611ca06000860182611bf1565b506020830151611cb36020860182611bf1565b506040830151611cc66040860182611bf1565b506060830151611cd96060860182611bf1565b5060808301518482036080860152611cf18282611c4f565b9150508091505092915050565b60006020820190508181036000830152611d188184611c88565b905092915050565b600082825260208201905092915050565b6000611d3c82611c00565b611d468185611d20565b9350611d56818560208601611c1c565b611d5f81611971565b840191505092915050565b60006020820190508181036000830152611d848184611d31565b905092915050565b611d958161189d565b8114611da057600080fd5b50565b600081359050611db281611d8c565b92915050565b600060208284031215611dce57611dcd61180e565b5b6000611ddc84828501611da3565b91505092915050565b600081519050919050565b600082825260208201905092915050565b6000819050602082019050919050565b611e1a816118f3565b82525050565b6000611e2c8383611e11565b60208301905092915050565b6000602082019050919050565b6000611e5082611de5565b611e5a8185611df0565b9350611e6583611e01565b8060005b83811015611e96578151611e7d8882611e20565b9750611e8883611e38565b925050600181019050611e69565b5085935050505092915050565b60006020820190508181036000830152611ebd8184611e45565b905092915050565b600080fd5b600080fd5b600067ffffffffffffffff821115611eea57611ee9611982565b5b611ef382611971565b9050602081019050919050565b6000611f13611f0e84611ecf565b6119e2565b905082815260208101848484011115611f2f57611f2e61196c565b5b611f3a848285611a2e565b509392505050565b600082601f830112611f5757611f56611967565b5b8135611f67848260208601611f00565b91505092915050565b600060a08284031215611f8657611f85611ec5565b5b611f9060a06119e2565b90506000611fa084828501611952565b6000830152506020611fb484828501611952565b6020830152506040611fc884828501611952565b6040830152506060611fdc84828501611952565b606083015250608082013567ffffffffffffffff81111561200057611fff611eca565b5b61200c84828501611f42565b60808301525092915050565b6000806040838503121561202f5761202e61180e565b5b600083013567ffffffffffffffff81111561204d5761204c611813565b5b61205985828601611f70565b925050602061206a8582860161191c565b9150509250929050565b60006020828403121561208a5761208961180e565b5b600061209884828501611952565b91505092915050565b7f4e487b7100000000000000000000000000000000000000000000000000000000600052601160045260246000fd5b60006120db82611931565b91507fffffffffffffffffffffffffffffffffffffffffffffffffffffffffffffffff82141561210e5761210d6120a1565b5b600182019050919050565b7f416363657373436f6e74726f6c3a2063616e206f6e6c792072656e6f756e636560008201527f20726f6c657320666f722073656c660000000000000000000000000000000000602082015250565b6000612175602f83611d20565b915061218082612119565b604082019050919050565b600060208201905081810360008301526121a481612168565b9050919050565b7f4e487b7100000000000000000000000000000000000000000000000000000000600052602260045260246000fd5b600060028204905060018216806121f257607f821691505b60208210811415612206576122056121ab565b5b50919050565b60008190508160005260206000209050919050565b6000815461222e816121da565b6122388186611d20565b94506001821660008114612253576001811461226557612298565b60ff1983168652602086019350612298565b61226e8561220c565b60005b8381101561229057815481890152600182019150602081019050612271565b808801955050505b50505092915050565b7f52554e4e494e4700000000000000000000000000000000000000000000000000600082015250565b60006122d7600783611d20565b91506122e2826122a1565b602082019050919050565b600060408201905081810360008301526123078184612221565b9050818103602083015261231a816122ca565b905092915050565b60008151905061233181611d8c565b92915050565b60006020828403121561234d5761234c61180e565b5b600061235b84828501612322565b91505092915050565b7f536561736f6e206e6f7420737461727465640000000000000000000000000000600082015250565b600061239a601283611d20565b91506123a582612364565b602082019050919050565b600060208201905081810360008301526123c98161238d565b9050919050565b7f496e73756666696369656e742042616c616e6365000000000000000000000000600082015250565b6000612406601483611d20565b9150612411826123d0565b602082019050919050565b60006020820190508181036000830152612435816123f9565b9050919050565b7f496e697400000000000000000000000000000000000000000000000000000000600082015250565b6000612472600483611d20565b915061247d8261243c565b602082019050919050565b600060408201905081810360008301526124a28184612221565b905081810360208301526124b581612465565b905092915050565b60006124c882611931565b91506124d383611931565b9250827fffffffffffffffffffffffffffffffffffffffffffffffffffffffffffffffff03821115612508576125076120a1565b5b828201905092915050565b7f4e487b7100000000000000000000000000000000000000000000000000000000600052603260045260246000fd5b600061254d82611931565b915061255883611931565b92508282101561256b5761256a6120a1565b5b828203905092915050565b7f4e487b7100000000000000000000000000000000000000000000000000000000600052601260045260246000fd5b60006125b082611931565b91506125bb83611931565b9250826125cb576125ca612576565b5b828204905092915050565b600081905092915050565b7f416363657373436f6e74726f6c3a206163636f756e7420000000000000000000600082015250565b60006126176017836125d6565b9150612622826125e1565b601782019050919050565b600061263882611c00565b61264281856125d6565b9350612652818560208601611c1c565b80840191505092915050565b7f206973206d697373696e6720726f6c6520000000000000000000000000000000600082015250565b60006126946011836125d6565b915061269f8261265e565b601182019050919050565b60006126b58261260a565b91506126c1828561262d565b91506126cc82612687565b91506126d8828461262d565b91508190509392505050565b60006126ef82611931565b91506126fa83611931565b9250817fffffffffffffffffffffffffffffffffffffffffffffffffffffffffffffffff0483118215151615612733576127326120a1565b5b828202905092915050565b600061274982611931565b9150600082141561275d5761275c6120a1565b5b600182039050919050565b7f537472696e67733a20686578206c656e67746820696e73756666696369656e74600082015250565b600061279e602083611d20565b91506127a982612768565b602082019050919050565b600060208201905081810360008301526127cd81612791565b905091905056fea2646970667358221220f153aeae4659ede25a0d6b33eb3679c42467a8013b050193e319ae370d239a9564736f6c634300080a0033",
  "immutableReferences": {},
  "source": "// SPDX-License-Identifier: UNLICENSED\r\npragma solidity >=0.4.22 <0.9.0;\r\n\r\n/**\r\n * @title SampleBEP20Token\r\n * @dev Very simple BEP20 Token example, where all tokens are pre-assigned to the creator.\r\n * Note they can later distribute these tokens as they wish using `transfer` and other\r\n * `BEP20` functions.\r\n * USE IT ONLY FOR LEARNING PURPOSES. SHOULD BE MODIFIED FOR PRODUCTION\r\n */\r\n\r\nimport \"../node_modules/@openzeppelin/contracts/token/ERC721/IERC721Receiver.sol\";\r\nimport \"./utils/Admin.sol\";\r\nimport \"./utils/Utils.sol\";\r\nimport \"./utils/CharacterUtils.sol\";\r\nimport \"./tokens/Character.sol\";\r\nimport \"./tokens/GANG.sol\";\r\nimport \"./tokens/GameItem.sol\";\r\nimport \"./tokens/Factory.sol\";\r\n\r\nstruct gameSeason\r\n{\r\n    uint256 seasonId;\r\n    uint256 charactersInSeason;\r\n    uint256 seasonTime;\r\n    uint256 seasonStart;\r\n    string seasonState;\r\n}\r\n\r\nstruct investers \r\n{\r\n    address invester;\r\n    uint256 active;\r\n}\r\n\r\ncontract SeasonManager is Admin, IERC721Receiver {\r\n    \r\n\r\n    address _contractowner;\r\n    address private _secondowner;\r\n\r\n    uint256 private bnbBalance;\r\n\r\n    gameSeason private seasonManager;\r\n    mapping(uint256 => investers) private _Investers;\r\n    uint256 private investersId = 0;\r\n\r\n    Utils private utils;\r\n    Character private crimeChar;\r\n    GameItem private crimeItem;\r\n    Factory private crimeFactory;\r\n    bool private Initialized;\r\n\r\n    constructor(Utils _util, Character _character, GameItem _gameItem, Factory _crimeFac) Admin()\r\n    {\r\n        _contractowner = msg.sender;\r\n        _secondowner = address(0xbf752Eb4b851B241A36e22767b304ef28242198A);\r\n        bnbBalance = 0;\r\n        crimeChar = _character;\r\n        crimeItem = _gameItem;\r\n        utils = _util;\r\n        crimeFactory = _crimeFac;\r\n\r\n        seasonManager = gameSeason(1, 0, 0, 0, \"Init\");\r\n\r\n        _setRoleAdmin(DEFAULT_ADMIN_ROLE, DEFAULT_ADMIN_ROLE);\r\n        _setRoleAdmin(DEFAULT_CORE_ROLE, DEFAULT_ADMIN_ROLE);\r\n        _setupRole(DEFAULT_ADMIN_ROLE, msg.sender);\r\n        _setupRole(DEFAULT_ADMIN_ROLE, _secondowner);\r\n        Initialized = false;\r\n    }\r\n\r\n    function changeAdmin(address newAdmin) public onlyRole(DEFAULT_ADMIN_ROLE)\r\n    {\r\n        _contractowner = newAdmin;\r\n    }\r\n\r\n    function Initialize(address _CoreIn) public\r\n    {\r\n        if(Initialized == false)\r\n        {\r\n            _setupRole(DEFAULT_CORE_ROLE, _CoreIn);\r\n            _setupRole(DEFAULT_ADMIN_ROLE, msg.sender);\r\n            Initialized = true;\r\n        }\r\n    }\r\n\r\n    function onERC721Received(address, address, uint256, bytes memory) public virtual override returns (bytes4) {\r\n        return this.onERC721Received.selector;\r\n    }\r\n\r\n    function supportsInterface(bytes4 interfaceId) public pure returns (bool) {\r\n        return interfaceId == type(IERC721Receiver).interfaceId;\r\n    }\r\n\r\n    function bnbWithdraw() onlyRole(DEFAULT_ADMIN_ROLE) public\r\n    {\r\n        address payable owner = payable(msg.sender);\r\n        require(bnbBalance > 0, \"Insufficient Balance\");\r\n        owner.transfer(bnbBalance);\r\n    }\r\n\r\n    function getSeasonDaysLeft() public view returns (uint256)\r\n    {\r\n        uint256 result = 0;\r\n        if(seasonManager.seasonTime > block.timestamp)\r\n        {\r\n            uint256 diff= seasonManager.seasonTime - block.timestamp;\r\n            diff = diff / (1 days);\r\n            result = diff;\r\n        }\r\n        return result;\r\n    }\r\n\r\n    function getSeasonState() public view returns (string memory)\r\n    {\r\n        return seasonManager.seasonState;\r\n    }\r\n\r\n    function finalizeSeason() onlyRole(DEFAULT_ADMIN_ROLE) public\r\n    {\r\n        require(utils.strcmp(seasonManager.seasonState, \"RUNNING\"), \"Season not started\");\r\n        seasonManager.seasonState = \"Init\";\r\n        seasonManager.seasonStart = 0;\r\n        seasonManager.seasonTime = 0;\r\n        seasonManager.charactersInSeason = 0;\r\n        crimeFactory.burnAllFactorysInSeason();\r\n        crimeChar.burnAllCharactersInSeason();\r\n        crimeItem.burnAllItemsInSeason();\r\n    }\r\n\r\n    function getIndexSlot() public view returns (uint256)\r\n    {\r\n        uint256 result = investersId;\r\n        for(uint256 x = 0; x <= investersId; x++)\r\n        {\r\n            if(!_exists(x))\r\n            {\r\n                result = x;\r\n                return result;\r\n            }\r\n        }\r\n        return result;\r\n    }\r\n\r\n    function getInvestersId() public view returns(uint256)\r\n    {\r\n        return investersId;\r\n    }\r\n\r\n    function getAllInvesters() public view returns(address[] memory)\r\n    {\r\n        uint256 length = 0;\r\n        if(investersId == 0)\r\n        {\r\n            return new address[](0);\r\n        }\r\n        for(uint256 x = 0; x < investersId; x++)\r\n        {\r\n            if(_exists(x))\r\n            {\r\n                length++;\r\n            }\r\n        }\r\n        address[] memory _investers = new address[](length);\r\n        uint256 resultIndex = 0;\r\n        for(uint256 x = 0; x < investersId; x++)\r\n        {\r\n            if(_exists(x) && resultIndex < length)\r\n            {\r\n                _investers[resultIndex] = _Investers[x].invester;\r\n                resultIndex++;\r\n            }\r\n        }\r\n        if(resultIndex != length) return new address[](0);\r\n        \r\n        return _investers;\r\n    }\r\n\r\n    function _exists(uint256 id) public view returns(bool) {\r\n        return (_Investers[id].active == 1);\r\n    }\r\n\r\n    function burnInvesters() public onlyRole(DEFAULT_ADMIN_ROLE)\r\n    {\r\n        for(uint256 x = 1; x < investersId; x++)\r\n        {\r\n            if(_exists(x))\r\n            {\r\n                _Investers[x].active = 0;\r\n            }\r\n        }\r\n    }\r\n\r\n    function checkExistInvester(address addr) public view returns(bool)\r\n    {\r\n        bool result = false;\r\n        for(uint256 x = 0; x < investersId; x++)\r\n        {\r\n            if(_Investers[x].invester == addr)\r\n            {\r\n                result = true;\r\n                return result;\r\n            }\r\n        }\r\n        return result;\r\n    }\r\n\r\n    function InitializeSeason(bool _new) onlyRole(DEFAULT_ADMIN_ROLE) public {\r\n        require(utils.strcmp(seasonManager.seasonState, \"Init\"), \"Season not started\");\r\n        seasonManager.seasonState = \"RUNNING\";\r\n        seasonManager.seasonStart = block.timestamp;\r\n        seasonManager.seasonTime = block.timestamp + (75 * 1 days);\r\n        if(_new) seasonManager.seasonId++;\r\n    }\r\n\r\n    function getSeasonManager() public view returns (gameSeason memory)\r\n    {\r\n        return seasonManager;\r\n    }\r\n    \r\n    function UpdateSeasonManager(gameSeason memory season, address invester) public onlyCore()\r\n    {\r\n        if(!checkExistInvester(invester))\r\n        {\r\n            uint256 slot = getIndexSlot();\r\n            _Investers[slot].invester = invester;\r\n            if(slot == investersId) investersId++;\r\n        }\r\n        seasonManager = season;\r\n    }\r\n\r\n    function getSeasonId() public view returns (uint256)\r\n    {\r\n        return seasonManager.seasonId;\r\n    }\r\n}",
  "sourcePath": "D:\\CrimeCity\\contracts\\SeasonManager.sol",
  "compiler": {
    "name": "solc",
    "version": "0.8.10+commit.fc410830.Emscripten.clang"
  },
  "schemaVersion": "3.4.3",
  "updatedAt": "2022-01-22T20:23:21.334Z",
  "networkType": "ethereum",
  "devdoc": {
    "kind": "dev",
    "methods": {
      "getRoleAdmin(uint256)": {
        "details": "Returns the admin role that controls `role`. See {grantRole} and {revokeRole}. To change a role's admin, use {_setRoleAdmin}."
      },
      "grantRole(uint256,address)": {
        "details": "Grants `role` to `account`. If `account` had not been already granted `role`, emits a {RoleGranted} event. Requirements: - the caller must have ``role``'s admin role."
      },
      "hasRole(uint256,address)": {
        "details": "Returns `true` if `account` has been granted `role`."
      },
      "renounceRole(uint256,address)": {
        "details": "Revokes `role` from the calling account. Roles are often managed via {grantRole} and {revokeRole}: this function's purpose is to provide a mechanism for accounts to lose their privileges if they are compromised (such as when a trusted device is misplaced). If the calling account had been granted `role`, emits a {RoleRevoked} event. Requirements: - the caller must be `account`."
      },
      "revokeRole(uint256,address)": {
        "details": "Revokes `role` from `account`. If `account` had been granted `role`, emits a {RoleRevoked} event. Requirements: - the caller must have ``role``'s admin role."
      }
    },
    "version": 1
  },
  "userdoc": {
    "kind": "user",
    "methods": {},
    "version": 1
  }
}