{
  "contractName": "Trade",
  "abi": [
    {
      "inputs": [
        {
          "internalType": "contract GANG",
          "name": "_gang",
          "type": "address"
        },
        {
          "internalType": "contract Utils",
          "name": "_utils",
          "type": "address"
        }
      ],
      "stateMutability": "nonpayable",
      "type": "constructor"
    },
    {
      "anonymous": false,
      "inputs": [
        {
          "indexed": true,
          "internalType": "uint256",
          "name": "role",
          "type": "uint256"
        },
        {
          "indexed": true,
          "internalType": "uint256",
          "name": "previousAdminRole",
          "type": "uint256"
        },
        {
          "indexed": true,
          "internalType": "uint256",
          "name": "newAdminRole",
          "type": "uint256"
        }
      ],
      "name": "RoleAdminChanged",
      "type": "event"
    },
    {
      "anonymous": false,
      "inputs": [
        {
          "indexed": true,
          "internalType": "uint256",
          "name": "role",
          "type": "uint256"
        },
        {
          "indexed": true,
          "internalType": "address",
          "name": "account",
          "type": "address"
        },
        {
          "indexed": true,
          "internalType": "address",
          "name": "sender",
          "type": "address"
        }
      ],
      "name": "RoleGranted",
      "type": "event"
    },
    {
      "anonymous": false,
      "inputs": [
        {
          "indexed": true,
          "internalType": "uint256",
          "name": "role",
          "type": "uint256"
        },
        {
          "indexed": true,
          "internalType": "address",
          "name": "account",
          "type": "address"
        },
        {
          "indexed": true,
          "internalType": "address",
          "name": "sender",
          "type": "address"
        }
      ],
      "name": "RoleRevoked",
      "type": "event"
    },
    {
      "inputs": [],
      "name": "DEFAULT_ADMIN_ROLE",
      "outputs": [
        {
          "internalType": "uint256",
          "name": "",
          "type": "uint256"
        }
      ],
      "stateMutability": "view",
      "type": "function",
      "constant": true
    },
    {
      "inputs": [],
      "name": "DEFAULT_CORE_ROLE",
      "outputs": [
        {
          "internalType": "uint256",
          "name": "",
          "type": "uint256"
        }
      ],
      "stateMutability": "view",
      "type": "function",
      "constant": true
    },
    {
      "inputs": [
        {
          "internalType": "uint256",
          "name": "role",
          "type": "uint256"
        }
      ],
      "name": "getRoleAdmin",
      "outputs": [
        {
          "internalType": "uint256",
          "name": "",
          "type": "uint256"
        }
      ],
      "stateMutability": "view",
      "type": "function",
      "constant": true
    },
    {
      "inputs": [
        {
          "internalType": "uint256",
          "name": "role",
          "type": "uint256"
        },
        {
          "internalType": "address",
          "name": "account",
          "type": "address"
        }
      ],
      "name": "grantRole",
      "outputs": [],
      "stateMutability": "nonpayable",
      "type": "function"
    },
    {
      "inputs": [
        {
          "internalType": "uint256",
          "name": "role",
          "type": "uint256"
        },
        {
          "internalType": "address",
          "name": "account",
          "type": "address"
        }
      ],
      "name": "hasRole",
      "outputs": [
        {
          "internalType": "bool",
          "name": "",
          "type": "bool"
        }
      ],
      "stateMutability": "view",
      "type": "function",
      "constant": true
    },
    {
      "inputs": [
        {
          "internalType": "uint256",
          "name": "role",
          "type": "uint256"
        },
        {
          "internalType": "address",
          "name": "account",
          "type": "address"
        }
      ],
      "name": "renounceRole",
      "outputs": [],
      "stateMutability": "nonpayable",
      "type": "function"
    },
    {
      "inputs": [
        {
          "internalType": "uint256",
          "name": "role",
          "type": "uint256"
        },
        {
          "internalType": "address",
          "name": "account",
          "type": "address"
        }
      ],
      "name": "revokeRole",
      "outputs": [],
      "stateMutability": "nonpayable",
      "type": "function"
    },
    {
      "inputs": [
        {
          "internalType": "address",
          "name": "newAdmin",
          "type": "address"
        }
      ],
      "name": "changeAdmin",
      "outputs": [],
      "stateMutability": "nonpayable",
      "type": "function"
    },
    {
      "inputs": [
        {
          "internalType": "address",
          "name": "",
          "type": "address"
        },
        {
          "internalType": "address",
          "name": "",
          "type": "address"
        },
        {
          "internalType": "uint256",
          "name": "",
          "type": "uint256"
        },
        {
          "internalType": "bytes",
          "name": "",
          "type": "bytes"
        }
      ],
      "name": "onERC721Received",
      "outputs": [
        {
          "internalType": "bytes4",
          "name": "",
          "type": "bytes4"
        }
      ],
      "stateMutability": "nonpayable",
      "type": "function"
    },
    {
      "inputs": [
        {
          "internalType": "bytes4",
          "name": "interfaceId",
          "type": "bytes4"
        }
      ],
      "name": "supportsInterface",
      "outputs": [
        {
          "internalType": "bool",
          "name": "",
          "type": "bool"
        }
      ],
      "stateMutability": "pure",
      "type": "function",
      "constant": true
    },
    {
      "inputs": [],
      "name": "bnbWithdraw",
      "outputs": [],
      "stateMutability": "nonpayable",
      "type": "function"
    },
    {
      "inputs": [],
      "name": "tradeGang",
      "outputs": [],
      "stateMutability": "payable",
      "type": "function",
      "payable": true
    },
    {
      "inputs": [
        {
          "internalType": "uint256",
          "name": "amount",
          "type": "uint256"
        }
      ],
      "name": "sellGang",
      "outputs": [],
      "stateMutability": "payable",
      "type": "function",
      "payable": true
    }
  ],
  "bytecode": "0x60806040523480156200001157600080fd5b50604051620024063803806200240683398181016040528101906200003791906200048c565b33600160006101000a81548173ffffffffffffffffffffffffffffffffffffffff021916908373ffffffffffffffffffffffffffffffffffffffff16021790555073bf752eb4b851b241a36e22767b304ef28242198a600260006101000a81548173ffffffffffffffffffffffffffffffffffffffff021916908373ffffffffffffffffffffffffffffffffffffffff160217905550600060038190555081600460006101000a81548173ffffffffffffffffffffffffffffffffffffffff021916908373ffffffffffffffffffffffffffffffffffffffff16021790555080600560006101000a81548173ffffffffffffffffffffffffffffffffffffffff021916908373ffffffffffffffffffffffffffffffffffffffff1602179055506200016a601e80620001ce60201b60201c565b6200017e601f601e620001ce60201b60201c565b62000191601e336200023160201b60201c565b620001c6601e600260009054906101000a900473ffffffffffffffffffffffffffffffffffffffff166200023160201b60201c565b5050620004d3565b6000620001e1836200024760201b60201c565b905081600080858152602001908152602001600020600101819055508181847f6620dedee755c284a7e221a3279487b734830c1f76c026c797b4d019c6b4b2f460405160405180910390a4505050565b6200024382826200026660201b60201c565b5050565b6000806000838152602001908152602001600020600101549050919050565b6200027882826200035760201b60201c565b6200035357600160008084815260200190815260200160002060000160008373ffffffffffffffffffffffffffffffffffffffff1673ffffffffffffffffffffffffffffffffffffffff16815260200190815260200160002060006101000a81548160ff021916908315150217905550620002f8620003c160201b60201c565b73ffffffffffffffffffffffffffffffffffffffff168173ffffffffffffffffffffffffffffffffffffffff16837f1ec1667fba5e43c5c76fff54e76d7a4a20a4fecf7b49724ad8d52a3f726e9dbd60405160405180910390a45b5050565b600080600084815260200190815260200160002060000160008373ffffffffffffffffffffffffffffffffffffffff1673ffffffffffffffffffffffffffffffffffffffff16815260200190815260200160002060009054906101000a900460ff16905092915050565b600033905090565b600080fd5b600073ffffffffffffffffffffffffffffffffffffffff82169050919050565b6000620003fb82620003ce565b9050919050565b60006200040f82620003ee565b9050919050565b620004218162000402565b81146200042d57600080fd5b50565b600081519050620004418162000416565b92915050565b60006200045482620003ee565b9050919050565b620004668162000447565b81146200047257600080fd5b50565b60008151905062000486816200045b565b92915050565b60008060408385031215620004a657620004a5620003c9565b5b6000620004b68582860162000430565b9250506020620004c98582860162000475565b9150509250929050565b611f2380620004e36000396000f3fe6080604052600436106100c25760003560e01c8063419745271161007f5780638f283970116100595780638f28397014610224578063a217fddf1461024d578063ec2606c014610278578063fb2990ad146102b5576100c2565b806341974527146101d85780636f45e4e5146101e257806375bbeee71461020d576100c2565b806301ffc9a7146100c7578063020006a314610104578063150b7a02146101205780631d0b19e71461015d5780631fe5f589146101865780632308d236146101af575b600080fd5b3480156100d357600080fd5b506100ee60048036038101906100e991906112a4565b6102f2565b6040516100fb91906112ec565b60405180910390f35b61011e6004803603810190610119919061133d565b61035c565b005b34801561012c57600080fd5b506101476004803603810190610142919061150e565b6107dc565b60405161015491906115a0565b60405180910390f35b34801561016957600080fd5b50610184600480360381019061017f91906115bb565b6107f0565b005b34801561019257600080fd5b506101ad60048036038101906101a891906115bb565b610819565b005b3480156101bb57600080fd5b506101d660048036038101906101d191906115bb565b610842565b005b6101e06108c5565b005b3480156101ee57600080fd5b506101f7610c04565b604051610204919061160a565b60405180910390f35b34801561021957600080fd5b50610222610c09565b005b34801561023057600080fd5b5061024b60048036038101906102469190611625565b610cb3565b005b34801561025957600080fd5b50610262610d0b565b60405161026f919061160a565b60405180910390f35b34801561028457600080fd5b5061029f600480360381019061029a91906115bb565b610d10565b6040516102ac91906112ec565b60405180910390f35b3480156102c157600080fd5b506102dc60048036038101906102d7919061133d565b610d7a565b6040516102e9919061160a565b60405180910390f35b60007f150b7a02000000000000000000000000000000000000000000000000000000007bffffffffffffffffffffffffffffffffffffffffffffffffffffffff1916827bffffffffffffffffffffffffffffffffffffffffffffffffffffffff1916149050919050565b600560009054906101000a900473ffffffffffffffffffffffffffffffffffffffff1673ffffffffffffffffffffffffffffffffffffffff1663dc82697c6040518163ffffffff1660e01b8152600401602060405180830381865afa1580156103c9573d6000803e3d6000fd5b505050506040513d601f19601f820116820180604052508101906103ed9190611667565b34101561042f576040517f08c379a0000000000000000000000000000000000000000000000000000000008152600401610426906116f1565b60405180910390fd5b670de0b6b3a76400008111610479576040517f08c379a0000000000000000000000000000000000000000000000000000000008152600401610470906116f1565b60405180910390fd5b80600460009054906101000a900473ffffffffffffffffffffffffffffffffffffffff1673ffffffffffffffffffffffffffffffffffffffff1663dd62ed3e33306040518363ffffffff1660e01b81526004016104d7929190611720565b602060405180830381865afa1580156104f4573d6000803e3d6000fd5b505050506040513d601f19601f820116820180604052508101906105189190611667565b1015610559576040517f08c379a000000000000000000000000000000000000000000000000000000000815260040161055090611795565b60405180910390fd5b80600460009054906101000a900473ffffffffffffffffffffffffffffffffffffffff1673ffffffffffffffffffffffffffffffffffffffff166370a08231336040518263ffffffff1660e01b81526004016105b591906117b5565b602060405180830381865afa1580156105d2573d6000803e3d6000fd5b505050506040513d601f19601f820116820180604052508101906105f69190611667565b1015610637576040517f08c379a000000000000000000000000000000000000000000000000000000000815260040161062e9061181c565b60405180910390fd5b60003390506000606460028461064d919061186b565b61065791906118f4565b905080600354101561069e576040517f08c379a000000000000000000000000000000000000000000000000000000000815260040161069590611971565b60405180910390fd5b806003546106ac9190611991565b6003819055508173ffffffffffffffffffffffffffffffffffffffff166108fc829081150290604051600060405180830381858888f193505050501580156106f8573d6000803e3d6000fd5b50346003600082825461070b91906119c5565b92505081905550600460009054906101000a900473ffffffffffffffffffffffffffffffffffffffff1673ffffffffffffffffffffffffffffffffffffffff166323b872dd33600160009054906101000a900473ffffffffffffffffffffffffffffffffffffffff16866040518463ffffffff1660e01b815260040161079393929190611a1b565b6020604051808303816000875af11580156107b2573d6000803e3d6000fd5b505050506040513d601f19601f820116820180604052508101906107d69190611a7e565b50505050565b600063150b7a0260e01b9050949350505050565b6107f982610d7a565b61080a81610805610d99565b610da1565b6108148383610e3b565b505050565b61082282610d7a565b6108338161082e610d99565b610da1565b61083d8383610f1c565b505050565b61084a610d99565b73ffffffffffffffffffffffffffffffffffffffff168173ffffffffffffffffffffffffffffffffffffffff16146108b7576040517f08c379a00000000000000000000000000000000000000000000000000000000081526004016108ae90611b1d565b60405180910390fd5b6108c18282610e3b565b5050565b6702c68af0bb140000341015610910576040517f08c379a000000000000000000000000000000000000000000000000000000000815260040161090790611b89565b60405180910390fd5b600060323461091f919061186b565b905080600460009054906101000a900473ffffffffffffffffffffffffffffffffffffffff1673ffffffffffffffffffffffffffffffffffffffff1663dd62ed3e600160009054906101000a900473ffffffffffffffffffffffffffffffffffffffff16306040518363ffffffff1660e01b81526004016109a1929190611720565b602060405180830381865afa1580156109be573d6000803e3d6000fd5b505050506040513d601f19601f820116820180604052508101906109e29190611667565b1015610a23576040517f08c379a0000000000000000000000000000000000000000000000000000000008152600401610a1a90611bf5565b60405180910390fd5b80600460009054906101000a900473ffffffffffffffffffffffffffffffffffffffff1673ffffffffffffffffffffffffffffffffffffffff166370a08231600160009054906101000a900473ffffffffffffffffffffffffffffffffffffffff166040518263ffffffff1660e01b8152600401610aa191906117b5565b602060405180830381865afa158015610abe573d6000803e3d6000fd5b505050506040513d601f19601f82011682018060405250810190610ae29190611667565b1015610b23576040517f08c379a0000000000000000000000000000000000000000000000000000000008152600401610b1a90611c61565b60405180910390fd5b3460036000828254610b3591906119c5565b92505081905550600460009054906101000a900473ffffffffffffffffffffffffffffffffffffffff1673ffffffffffffffffffffffffffffffffffffffff166323b872dd600160009054906101000a900473ffffffffffffffffffffffffffffffffffffffff1633846040518463ffffffff1660e01b8152600401610bbd93929190611a1b565b6020604051808303816000875af1158015610bdc573d6000803e3d6000fd5b505050506040513d601f19601f82011682018060405250810190610c009190611a7e565b5050565b601f81565b601e610c1c81610c17610d99565b610da1565b6000339050600060035411610c66576040517f08c379a0000000000000000000000000000000000000000000000000000000008152600401610c5d9061181c565b60405180910390fd5b8073ffffffffffffffffffffffffffffffffffffffff166108fc6003549081150290604051600060405180830381858888f19350505050158015610cae573d6000803e3d6000fd5b505050565b601e610cc681610cc1610d99565b610da1565b81600160006101000a81548173ffffffffffffffffffffffffffffffffffffffff021916908373ffffffffffffffffffffffffffffffffffffffff1602179055505050565b601e81565b600080600084815260200190815260200160002060000160008373ffffffffffffffffffffffffffffffffffffffff1673ffffffffffffffffffffffffffffffffffffffff16815260200190815260200160002060009054906101000a900460ff16905092915050565b6000806000838152602001908152602001600020600101549050919050565b600033905090565b610dab8282610d10565b610e3757610dd08173ffffffffffffffffffffffffffffffffffffffff166014610ffc565b610ddb836020610ffc565b604051602001610dec929190611d93565b6040516020818303038152906040526040517f08c379a0000000000000000000000000000000000000000000000000000000008152600401610e2e9190611e06565b60405180910390fd5b5050565b610e458282610d10565b15610f1857600080600084815260200190815260200160002060000160008373ffffffffffffffffffffffffffffffffffffffff1673ffffffffffffffffffffffffffffffffffffffff16815260200190815260200160002060006101000a81548160ff021916908315150217905550610ebd610d99565b73ffffffffffffffffffffffffffffffffffffffff168173ffffffffffffffffffffffffffffffffffffffff16837fe0df21b65c73c27081b8f042a012b124085b41d78d27b7e3c4780f5650f5ebb860405160405180910390a45b5050565b610f268282610d10565b610ff857600160008084815260200190815260200160002060000160008373ffffffffffffffffffffffffffffffffffffffff1673ffffffffffffffffffffffffffffffffffffffff16815260200190815260200160002060006101000a81548160ff021916908315150217905550610f9d610d99565b73ffffffffffffffffffffffffffffffffffffffff168173ffffffffffffffffffffffffffffffffffffffff16837f1ec1667fba5e43c5c76fff54e76d7a4a20a4fecf7b49724ad8d52a3f726e9dbd60405160405180910390a45b5050565b60606000600283600261100f919061186b565b61101991906119c5565b67ffffffffffffffff811115611032576110316113e3565b5b6040519080825280601f01601f1916602001820160405280156110645781602001600182028036833780820191505090505b5090507f30000000000000000000000000000000000000000000000000000000000000008160008151811061109c5761109b611e28565b5b60200101907effffffffffffffffffffffffffffffffffffffffffffffffffffffffffffff1916908160001a9053507f780000000000000000000000000000000000000000000000000000000000000081600181518110611100576110ff611e28565b5b60200101907effffffffffffffffffffffffffffffffffffffffffffffffffffffffffffff1916908160001a90535060006001846002611140919061186b565b61114a91906119c5565b90505b60018111156111ea577f3031323334353637383961626364656600000000000000000000000000000000600f86166010811061118c5761118b611e28565b5b1a60f81b8282815181106111a3576111a2611e28565b5b60200101907effffffffffffffffffffffffffffffffffffffffffffffffffffffffffffff1916908160001a905350600485901c9450806111e390611e57565b905061114d565b506000841461122e576040517f08c379a000000000000000000000000000000000000000000000000000000000815260040161122590611ecd565b60405180910390fd5b8091505092915050565b6000604051905090565b600080fd5b600080fd5b60007fffffffff0000000000000000000000000000000000000000000000000000000082169050919050565b6112818161124c565b811461128c57600080fd5b50565b60008135905061129e81611278565b92915050565b6000602082840312156112ba576112b9611242565b5b60006112c88482850161128f565b91505092915050565b60008115159050919050565b6112e6816112d1565b82525050565b600060208201905061130160008301846112dd565b92915050565b6000819050919050565b61131a81611307565b811461132557600080fd5b50565b60008135905061133781611311565b92915050565b60006020828403121561135357611352611242565b5b600061136184828501611328565b91505092915050565b600073ffffffffffffffffffffffffffffffffffffffff82169050919050565b60006113958261136a565b9050919050565b6113a58161138a565b81146113b057600080fd5b50565b6000813590506113c28161139c565b92915050565b600080fd5b600080fd5b6000601f19601f8301169050919050565b7f4e487b7100000000000000000000000000000000000000000000000000000000600052604160045260246000fd5b61141b826113d2565b810181811067ffffffffffffffff8211171561143a576114396113e3565b5b80604052505050565b600061144d611238565b90506114598282611412565b919050565b600067ffffffffffffffff821115611479576114786113e3565b5b611482826113d2565b9050602081019050919050565b82818337600083830152505050565b60006114b16114ac8461145e565b611443565b9050828152602081018484840111156114cd576114cc6113cd565b5b6114d884828561148f565b509392505050565b600082601f8301126114f5576114f46113c8565b5b813561150584826020860161149e565b91505092915050565b6000806000806080858703121561152857611527611242565b5b6000611536878288016113b3565b9450506020611547878288016113b3565b935050604061155887828801611328565b925050606085013567ffffffffffffffff81111561157957611578611247565b5b611585878288016114e0565b91505092959194509250565b61159a8161124c565b82525050565b60006020820190506115b56000830184611591565b92915050565b600080604083850312156115d2576115d1611242565b5b60006115e085828601611328565b92505060206115f1858286016113b3565b9150509250929050565b61160481611307565b82525050565b600060208201905061161f60008301846115fb565b92915050565b60006020828403121561163b5761163a611242565b5b6000611649848285016113b3565b91505092915050565b60008151905061166181611311565b92915050565b60006020828403121561167d5761167c611242565b5b600061168b84828501611652565b91505092915050565b600082825260208201905092915050565b7f496e73737566696369656e7420416d6d6f756e74000000000000000000000000600082015250565b60006116db601483611694565b91506116e6826116a5565b602082019050919050565b6000602082019050818103600083015261170a816116ce565b9050919050565b61171a8161138a565b82525050565b60006040820190506117356000830185611711565b6117426020830184611711565b9392505050565b7f5265717569726520417070726f76650000000000000000000000000000000000600082015250565b600061177f600f83611694565b915061178a82611749565b602082019050919050565b600060208201905081810360008301526117ae81611772565b9050919050565b60006020820190506117ca6000830184611711565b92915050565b7f496e73756666696369656e742042616c616e6365000000000000000000000000600082015250565b6000611806601483611694565b9150611811826117d0565b602082019050919050565b60006020820190508181036000830152611835816117f9565b9050919050565b7f4e487b7100000000000000000000000000000000000000000000000000000000600052601160045260246000fd5b600061187682611307565b915061188183611307565b9250817fffffffffffffffffffffffffffffffffffffffffffffffffffffffffffffffff04831182151516156118ba576118b961183c565b5b828202905092915050565b7f4e487b7100000000000000000000000000000000000000000000000000000000600052601260045260246000fd5b60006118ff82611307565b915061190a83611307565b92508261191a576119196118c5565b5b828204905092915050565b7f4e6f74206861766520746f207061790000000000000000000000000000000000600082015250565b600061195b600f83611694565b915061196682611925565b602082019050919050565b6000602082019050818103600083015261198a8161194e565b9050919050565b600061199c82611307565b91506119a783611307565b9250828210156119ba576119b961183c565b5b828203905092915050565b60006119d082611307565b91506119db83611307565b9250827fffffffffffffffffffffffffffffffffffffffffffffffffffffffffffffffff03821115611a1057611a0f61183c565b5b828201905092915050565b6000606082019050611a306000830186611711565b611a3d6020830185611711565b611a4a60408301846115fb565b949350505050565b611a5b816112d1565b8114611a6657600080fd5b50565b600081519050611a7881611a52565b92915050565b600060208284031215611a9457611a93611242565b5b6000611aa284828501611a69565b91505092915050565b7f416363657373436f6e74726f6c3a2063616e206f6e6c792072656e6f756e636560008201527f20726f6c657320666f722073656c660000000000000000000000000000000000602082015250565b6000611b07602f83611694565b9150611b1282611aab565b604082019050919050565b60006020820190508181036000830152611b3681611afa565b9050919050565b7f496e73756666696369656e7420416d6d6f756e74000000000000000000000000600082015250565b6000611b73601483611694565b9150611b7e82611b3d565b602082019050919050565b60006020820190508181036000830152611ba281611b66565b9050919050565b7f5265717569726520617070726f76652061646d696e0000000000000000000000600082015250565b6000611bdf601583611694565b9150611bea82611ba9565b602082019050919050565b60006020820190508181036000830152611c0e81611bd2565b9050919050565b7f526571756972652062616c616e63650000000000000000000000000000000000600082015250565b6000611c4b600f83611694565b9150611c5682611c15565b602082019050919050565b60006020820190508181036000830152611c7a81611c3e565b9050919050565b600081905092915050565b7f416363657373436f6e74726f6c3a206163636f756e7420000000000000000000600082015250565b6000611cc2601783611c81565b9150611ccd82611c8c565b601782019050919050565b600081519050919050565b60005b83811015611d01578082015181840152602081019050611ce6565b83811115611d10576000848401525b50505050565b6000611d2182611cd8565b611d2b8185611c81565b9350611d3b818560208601611ce3565b80840191505092915050565b7f206973206d697373696e6720726f6c6520000000000000000000000000000000600082015250565b6000611d7d601183611c81565b9150611d8882611d47565b601182019050919050565b6000611d9e82611cb5565b9150611daa8285611d16565b9150611db582611d70565b9150611dc18284611d16565b91508190509392505050565b6000611dd882611cd8565b611de28185611694565b9350611df2818560208601611ce3565b611dfb816113d2565b840191505092915050565b60006020820190508181036000830152611e208184611dcd565b905092915050565b7f4e487b7100000000000000000000000000000000000000000000000000000000600052603260045260246000fd5b6000611e6282611307565b91506000821415611e7657611e7561183c565b5b600182039050919050565b7f537472696e67733a20686578206c656e67746820696e73756666696369656e74600082015250565b6000611eb7602083611694565b9150611ec282611e81565b602082019050919050565b60006020820190508181036000830152611ee681611eaa565b905091905056fea2646970667358221220f9099e34303e8c558e96e6164633e330f72be676485fef5ee0d2109d05999f1364736f6c634300080a0033",
  "immutableReferences": {},
  "source": "// SPDX-License-Identifier: UNLICENSED\r\npragma solidity >=0.4.22 <0.9.0;\r\n\r\n/**\r\n * @title SampleBEP20Token\r\n * @dev Very simple BEP20 Token example, where all tokens are pre-assigned to the creator.\r\n * Note they can later distribute these tokens as they wish using `transfer` and other\r\n * `BEP20` functions.\r\n * USE IT ONLY FOR LEARNING PURPOSES. SHOULD BE MODIFIED FOR PRODUCTION\r\n */\r\n\r\nimport \"../node_modules/@openzeppelin/contracts/token/ERC721/IERC721Receiver.sol\";\r\nimport \"./utils/Admin.sol\";\r\nimport \"./utils/Utils.sol\";\r\nimport \"./tokens/GANG.sol\";\r\n\r\n\r\ncontract Trade is Admin, IERC721Receiver {\r\n    address _contractowner;\r\n    address private _secondowner;\r\n\r\n    struct CoreOwner\r\n    {\r\n        address owner;\r\n    }\r\n\r\n    uint256 bnbBalance;\r\n\r\n    GANG private gangToken;\r\n    Utils private utils;\r\n    constructor(GANG _gang, Utils _utils) Admin()\r\n    {\r\n        _contractowner = msg.sender;\r\n        _secondowner = address(0xbf752Eb4b851B241A36e22767b304ef28242198A);\r\n        bnbBalance = 0;\r\n        gangToken = _gang;\r\n        utils = _utils;\r\n        _setRoleAdmin(DEFAULT_ADMIN_ROLE, DEFAULT_ADMIN_ROLE);\r\n        _setRoleAdmin(DEFAULT_CORE_ROLE, DEFAULT_ADMIN_ROLE);\r\n        _setupRole(DEFAULT_ADMIN_ROLE, msg.sender);\r\n        _setupRole(DEFAULT_ADMIN_ROLE, _secondowner);\r\n    }\r\n\r\n    function changeAdmin(address newAdmin) public onlyRole(DEFAULT_ADMIN_ROLE)\r\n    {\r\n        _contractowner = newAdmin;\r\n    }\r\n\r\n    function onERC721Received(address, address, uint256, bytes memory) public virtual override returns (bytes4) {\r\n        return this.onERC721Received.selector;\r\n    }\r\n\r\n    function supportsInterface(bytes4 interfaceId) public pure returns (bool) {\r\n        return interfaceId == type(IERC721Receiver).interfaceId;\r\n    }\r\n\r\n    function bnbWithdraw() onlyRole(DEFAULT_ADMIN_ROLE) public\r\n    {\r\n        address payable owner = payable(msg.sender);\r\n        require(bnbBalance > 0, \"Insufficient Balance\");\r\n        owner.transfer(bnbBalance);\r\n    }\r\n\r\n    function tradeGang() public payable {\r\n        require(msg.value >= 200000000000000000, \"Insufficient Ammount\");\r\n        uint256 gangReceive = msg.value * 50;\r\n        require(gangToken.allowance(_contractowner, address(this)) >= gangReceive, \"Require approve admin\");\r\n        require(gangToken.balanceOf(_contractowner) >= gangReceive, \"Require balance\");\r\n        bnbBalance += msg.value;\r\n        gangToken.transferFrom(_contractowner, msg.sender, gangReceive);\r\n    }\r\n\r\n    function sellGang(uint256 amount) public payable {\r\n        require(msg.value >= utils.getContractValue(), \"Inssuficient Ammount\");\r\n        require(amount > 1000000000000000000, \"Inssuficient Ammount\");\r\n        require(gangToken.allowance(msg.sender, address(this)) >= amount, \"Require Approve\");\r\n        require(gangToken.balanceOf(msg.sender) >= amount, \"Insufficient Balance\");\r\n        address payable owner = payable(msg.sender);\r\n        uint256 bnbReceive = ((amount * 2) / 100);\r\n\r\n        require(bnbBalance >= bnbReceive, \"Not have to pay\");\r\n\r\n        bnbBalance = bnbBalance - bnbReceive;\r\n        owner.transfer(bnbReceive);\r\n        bnbBalance += msg.value;\r\n        gangToken.transferFrom(msg.sender, _contractowner, amount);\r\n    }\r\n}",
  "sourcePath": "D:\\CrimeCity\\contracts\\Trade.sol",
  "compiler": {
    "name": "solc",
    "version": "0.8.10+commit.fc410830.Emscripten.clang"
  },
  "schemaVersion": "3.4.3",
  "updatedAt": "2022-01-22T20:23:21.569Z",
  "networkType": "ethereum",
  "devdoc": {
    "kind": "dev",
    "methods": {
      "getRoleAdmin(uint256)": {
        "details": "Returns the admin role that controls `role`. See {grantRole} and {revokeRole}. To change a role's admin, use {_setRoleAdmin}."
      },
      "grantRole(uint256,address)": {
        "details": "Grants `role` to `account`. If `account` had not been already granted `role`, emits a {RoleGranted} event. Requirements: - the caller must have ``role``'s admin role."
      },
      "hasRole(uint256,address)": {
        "details": "Returns `true` if `account` has been granted `role`."
      },
      "renounceRole(uint256,address)": {
        "details": "Revokes `role` from the calling account. Roles are often managed via {grantRole} and {revokeRole}: this function's purpose is to provide a mechanism for accounts to lose their privileges if they are compromised (such as when a trusted device is misplaced). If the calling account had been granted `role`, emits a {RoleRevoked} event. Requirements: - the caller must be `account`."
      },
      "revokeRole(uint256,address)": {
        "details": "Revokes `role` from `account`. If `account` had been granted `role`, emits a {RoleRevoked} event. Requirements: - the caller must have ``role``'s admin role."
      }
    },
    "version": 1
  },
  "userdoc": {
    "kind": "user",
    "methods": {},
    "version": 1
  }
}