{
  "contractName": "Utils",
  "abi": [
    {
      "inputs": [],
      "stateMutability": "nonpayable",
      "type": "constructor"
    },
    {
      "anonymous": false,
      "inputs": [
        {
          "indexed": true,
          "internalType": "uint256",
          "name": "role",
          "type": "uint256"
        },
        {
          "indexed": true,
          "internalType": "uint256",
          "name": "previousAdminRole",
          "type": "uint256"
        },
        {
          "indexed": true,
          "internalType": "uint256",
          "name": "newAdminRole",
          "type": "uint256"
        }
      ],
      "name": "RoleAdminChanged",
      "type": "event"
    },
    {
      "anonymous": false,
      "inputs": [
        {
          "indexed": true,
          "internalType": "uint256",
          "name": "role",
          "type": "uint256"
        },
        {
          "indexed": true,
          "internalType": "address",
          "name": "account",
          "type": "address"
        },
        {
          "indexed": true,
          "internalType": "address",
          "name": "sender",
          "type": "address"
        }
      ],
      "name": "RoleGranted",
      "type": "event"
    },
    {
      "anonymous": false,
      "inputs": [
        {
          "indexed": true,
          "internalType": "uint256",
          "name": "role",
          "type": "uint256"
        },
        {
          "indexed": true,
          "internalType": "address",
          "name": "account",
          "type": "address"
        },
        {
          "indexed": true,
          "internalType": "address",
          "name": "sender",
          "type": "address"
        }
      ],
      "name": "RoleRevoked",
      "type": "event"
    },
    {
      "inputs": [],
      "name": "DEFAULT_ADMIN_ROLE",
      "outputs": [
        {
          "internalType": "uint256",
          "name": "",
          "type": "uint256"
        }
      ],
      "stateMutability": "view",
      "type": "function",
      "constant": true
    },
    {
      "inputs": [],
      "name": "DEFAULT_CORE_ROLE",
      "outputs": [
        {
          "internalType": "uint256",
          "name": "",
          "type": "uint256"
        }
      ],
      "stateMutability": "view",
      "type": "function",
      "constant": true
    },
    {
      "inputs": [
        {
          "internalType": "uint256",
          "name": "role",
          "type": "uint256"
        }
      ],
      "name": "getRoleAdmin",
      "outputs": [
        {
          "internalType": "uint256",
          "name": "",
          "type": "uint256"
        }
      ],
      "stateMutability": "view",
      "type": "function",
      "constant": true
    },
    {
      "inputs": [
        {
          "internalType": "uint256",
          "name": "role",
          "type": "uint256"
        },
        {
          "internalType": "address",
          "name": "account",
          "type": "address"
        }
      ],
      "name": "grantRole",
      "outputs": [],
      "stateMutability": "nonpayable",
      "type": "function"
    },
    {
      "inputs": [
        {
          "internalType": "uint256",
          "name": "role",
          "type": "uint256"
        },
        {
          "internalType": "address",
          "name": "account",
          "type": "address"
        }
      ],
      "name": "hasRole",
      "outputs": [
        {
          "internalType": "bool",
          "name": "",
          "type": "bool"
        }
      ],
      "stateMutability": "view",
      "type": "function",
      "constant": true
    },
    {
      "inputs": [
        {
          "internalType": "uint256",
          "name": "role",
          "type": "uint256"
        },
        {
          "internalType": "address",
          "name": "account",
          "type": "address"
        }
      ],
      "name": "renounceRole",
      "outputs": [],
      "stateMutability": "nonpayable",
      "type": "function"
    },
    {
      "inputs": [
        {
          "internalType": "uint256",
          "name": "role",
          "type": "uint256"
        },
        {
          "internalType": "address",
          "name": "account",
          "type": "address"
        }
      ],
      "name": "revokeRole",
      "outputs": [],
      "stateMutability": "nonpayable",
      "type": "function"
    },
    {
      "inputs": [
        {
          "internalType": "address",
          "name": "newAdmin",
          "type": "address"
        }
      ],
      "name": "changeAdmin",
      "outputs": [],
      "stateMutability": "nonpayable",
      "type": "function"
    },
    {
      "inputs": [],
      "name": "getMinToClaim",
      "outputs": [
        {
          "internalType": "uint256",
          "name": "",
          "type": "uint256"
        }
      ],
      "stateMutability": "view",
      "type": "function",
      "constant": true
    },
    {
      "inputs": [
        {
          "internalType": "string",
          "name": "a",
          "type": "string"
        },
        {
          "internalType": "string",
          "name": "b",
          "type": "string"
        }
      ],
      "name": "strcmp",
      "outputs": [
        {
          "internalType": "bool",
          "name": "",
          "type": "bool"
        }
      ],
      "stateMutability": "pure",
      "type": "function",
      "constant": true
    },
    {
      "inputs": [
        {
          "internalType": "uint256",
          "name": "level",
          "type": "uint256"
        }
      ],
      "name": "getExperienceTable",
      "outputs": [
        {
          "internalType": "uint256",
          "name": "",
          "type": "uint256"
        }
      ],
      "stateMutability": "view",
      "type": "function",
      "constant": true
    },
    {
      "inputs": [
        {
          "internalType": "uint256",
          "name": "rarity",
          "type": "uint256"
        },
        {
          "internalType": "uint256",
          "name": "vicio",
          "type": "uint256"
        }
      ],
      "name": "getBasePrisonChance",
      "outputs": [
        {
          "internalType": "uint256",
          "name": "",
          "type": "uint256"
        }
      ],
      "stateMutability": "pure",
      "type": "function",
      "constant": true
    },
    {
      "inputs": [],
      "name": "getMintPrice",
      "outputs": [
        {
          "internalType": "uint256",
          "name": "",
          "type": "uint256"
        }
      ],
      "stateMutability": "view",
      "type": "function",
      "constant": true
    },
    {
      "inputs": [
        {
          "internalType": "uint256",
          "name": "_mintPrice",
          "type": "uint256"
        }
      ],
      "name": "setMintPrice",
      "outputs": [],
      "stateMutability": "nonpayable",
      "type": "function"
    },
    {
      "inputs": [],
      "name": "getMintValue",
      "outputs": [
        {
          "internalType": "uint256",
          "name": "",
          "type": "uint256"
        }
      ],
      "stateMutability": "view",
      "type": "function",
      "constant": true
    },
    {
      "inputs": [],
      "name": "getContractValue",
      "outputs": [
        {
          "internalType": "uint256",
          "name": "",
          "type": "uint256"
        }
      ],
      "stateMutability": "view",
      "type": "function",
      "constant": true
    },
    {
      "inputs": [],
      "name": "bnbWithdraw",
      "outputs": [],
      "stateMutability": "nonpayable",
      "type": "function"
    },
    {
      "inputs": [],
      "name": "getBlockChainTime",
      "outputs": [
        {
          "internalType": "uint256",
          "name": "",
          "type": "uint256"
        }
      ],
      "stateMutability": "view",
      "type": "function",
      "constant": true
    },
    {
      "inputs": [
        {
          "internalType": "address",
          "name": "",
          "type": "address"
        },
        {
          "internalType": "address",
          "name": "",
          "type": "address"
        },
        {
          "internalType": "uint256",
          "name": "",
          "type": "uint256"
        },
        {
          "internalType": "bytes",
          "name": "",
          "type": "bytes"
        }
      ],
      "name": "onERC721Received",
      "outputs": [
        {
          "internalType": "bytes4",
          "name": "",
          "type": "bytes4"
        }
      ],
      "stateMutability": "nonpayable",
      "type": "function"
    },
    {
      "inputs": [
        {
          "internalType": "bytes4",
          "name": "interfaceId",
          "type": "bytes4"
        }
      ],
      "name": "supportsInterface",
      "outputs": [
        {
          "internalType": "bool",
          "name": "",
          "type": "bool"
        }
      ],
      "stateMutability": "pure",
      "type": "function",
      "constant": true
    },
    {
      "inputs": [
        {
          "internalType": "uint256",
          "name": "max",
          "type": "uint256"
        }
      ],
      "name": "rand",
      "outputs": [
        {
          "internalType": "uint256",
          "name": "",
          "type": "uint256"
        }
      ],
      "stateMutability": "nonpayable",
      "type": "function"
    }
  ],
  "bytecode": "0x60806040526000600260146101000a81548160ff0219169083151502179055506001600355600060055567d02ab486cedc0000600655652ba7def300006007556601b48eb57e0000600855662386f26fc10000600955604051806102a00160405280600060ff168152602001600a60ff168152602001601460ff168152602001601e60ff168152602001602860ff168152602001603260ff168152602001603c60ff168152602001604660ff168152602001605060ff168152602001605a60ff168152602001606460ff168152602001606e60ff168152602001607860ff168152602001608260ff168152602001608c60ff168152602001609660ff16815260200160a060ff16815260200160aa60ff16815260200160b460ff16815260200160be60ff16815260200160c860ff16815250600a90601562000143929190620005ca565b5060405180610140016040528061025861ffff16815260200161070861ffff168152602001610bb861ffff1681526020016112c061ffff1681526020016119c861ffff16815260200161232861ffff168152602001612ee061ffff168152602001613a9861ffff16815260200161465061ffff16815260200161520861ffff16815250600b90600a620001d892919062000621565b50604051806101400160405280670de0b6b3a764000067ffffffffffffffff168152602001670de0b6b3a764000067ffffffffffffffff168152602001610bb867ffffffffffffffff1681526020016112c067ffffffffffffffff1681526020016119c867ffffffffffffffff16815260200161232867ffffffffffffffff168152602001612ee067ffffffffffffffff168152602001613a9867ffffffffffffffff16815260200161465067ffffffffffffffff16815260200161520867ffffffffffffffff16815250600c90600a620002b592919062000679565b50348015620002c357600080fd5b5033600160006101000a81548173ffffffffffffffffffffffffffffffffffffffff021916908373ffffffffffffffffffffffffffffffffffffffff16021790555073bf752eb4b851b241a36e22767b304ef28242198a600260006101000a81548173ffffffffffffffffffffffffffffffffffffffff021916908373ffffffffffffffffffffffffffffffffffffffff1602179055506200036d601e80620003cf60201b60201c565b62000381601f601e620003cf60201b60201c565b62000394601e336200043260201b60201c565b620003c9601e600260009054906101000a900473ffffffffffffffffffffffffffffffffffffffff166200043260201b60201c565b620006f6565b6000620003e2836200044860201b60201c565b905081600080858152602001908152602001600020600101819055508181847f6620dedee755c284a7e221a3279487b734830c1f76c026c797b4d019c6b4b2f460405160405180910390a4505050565b6200044482826200046760201b60201c565b5050565b6000806000838152602001908152602001600020600101549050919050565b6200047982826200055860201b60201c565b6200055457600160008084815260200190815260200160002060000160008373ffffffffffffffffffffffffffffffffffffffff1673ffffffffffffffffffffffffffffffffffffffff16815260200190815260200160002060006101000a81548160ff021916908315150217905550620004f9620005c260201b60201c565b73ffffffffffffffffffffffffffffffffffffffff168173ffffffffffffffffffffffffffffffffffffffff16837f1ec1667fba5e43c5c76fff54e76d7a4a20a4fecf7b49724ad8d52a3f726e9dbd60405160405180910390a45b5050565b600080600084815260200190815260200160002060000160008373ffffffffffffffffffffffffffffffffffffffff1673ffffffffffffffffffffffffffffffffffffffff16815260200190815260200160002060009054906101000a900460ff16905092915050565b600033905090565b8280548282559060005260206000209081019282156200060e579160200282015b828111156200060d578251829060ff16905591602001919060010190620005eb565b5b5090506200061d9190620006d7565b5090565b82805482825590600052602060002090810192821562000666579160200282015b8281111562000665578251829061ffff1690559160200191906001019062000642565b5b509050620006759190620006d7565b5090565b828054828255906000526020600020908101928215620006c4579160200282015b82811115620006c3578251829067ffffffffffffffff169055916020019190600101906200069a565b5b509050620006d39190620006d7565b5090565b5b80821115620006f2576000816000905550600101620006d8565b5090565b611dd580620007066000396000f3fe608060405234801561001057600080fd5b50600436106101375760003560e01c80638bd2e7e6116100b8578063d6f551661161007c578063d6f551661461033c578063dc82697c1461035a578063e7a564d714610378578063ec2606c0146103a8578063f4a0a528146103d8578063fb2990ad146103f457610137565b80638bd2e7e6146102845780638f283970146102b45780639cfbe1a6146102d0578063a217fddf14610300578063a7f93ebd1461031e57610137565b80631fe5f589116100ff5780631fe5f589146101f45780632308d236146102105780632530c9051461022c5780636f45e4e51461025c57806375bbeee71461027a57610137565b806301ffc9a71461013c5780630483d5751461016c578063150b7a021461018a5780631d0b19e7146101ba5780631f3557a5146101d6575b600080fd5b610156600480360381019061015191906111d2565b610424565b604051610163919061121a565b60405180910390f35b61017461048e565b604051610181919061124e565b60405180910390f35b6101a4600480360381019061019f9190611439565b610498565b6040516101b191906114cb565b60405180910390f35b6101d460048036038101906101cf91906114e6565b6104ac565b005b6101de6104d5565b6040516101eb919061124e565b60405180910390f35b61020e600480360381019061020991906114e6565b6104dd565b005b61022a600480360381019061022591906114e6565b610506565b005b61024660048036038101906102419190611526565b610589565b604051610253919061124e565b60405180910390f35b610264610730565b604051610271919061124e565b60405180910390f35b610282610735565b005b61029e60048036038101906102999190611553565b6107df565b6040516102ab919061124e565b60405180910390f35b6102ce60048036038101906102c99190611593565b610850565b005b6102ea60048036038101906102e59190611661565b6108a8565b6040516102f7919061121a565b60405180910390f35b6103086108bc565b604051610315919061124e565b60405180910390f35b6103266108c1565b604051610333919061124e565b60405180910390f35b6103446108cb565b604051610351919061124e565b60405180910390f35b6103626108d5565b60405161036f919061124e565b60405180910390f35b610392600480360381019061038d9190611526565b6108df565b60405161039f919061124e565b60405180910390f35b6103c260048036038101906103bd91906114e6565b610907565b6040516103cf919061121a565b60405180910390f35b6103f260048036038101906103ed9190611526565b610971565b005b61040e60048036038101906104099190611526565b6109d2565b60405161041b919061124e565b60405180910390f35b60007f150b7a02000000000000000000000000000000000000000000000000000000007bffffffffffffffffffffffffffffffffffffffffffffffffffffffff1916827bffffffffffffffffffffffffffffffffffffffffffffffffffffffff1916149050919050565b6000600954905090565b600063150b7a0260e01b9050949350505050565b6104b5826109d2565b6104c6816104c16109f1565b6109f9565b6104d08383610a93565b505050565b600042905090565b6104e6826109d2565b6104f7816104f26109f1565b6109f9565b6105018383610b74565b505050565b61050e6109f1565b73ffffffffffffffffffffffffffffffffffffffff168173ffffffffffffffffffffffffffffffffffffffff161461057b576040517f08c379a00000000000000000000000000000000000000000000000000000000081526004016105729061175c565b60405180910390fd5b6105858282610a93565b5050565b60008042434060405160200161059f91906117a7565b6040516020818303038152906040528051906020012060001c6105c29190611820565b4342336040516020016105d59190611899565b6040516020818303038152906040528051906020012060001c6105f89190611820565b45424160405160200161060b91906118ef565b6040516020818303038152906040528051906020012060001c61062e9190611820565b444261063a919061190a565b610644919061190a565b61064e919061190a565b610658919061190a565b610662919061190a565b61066c919061190a565b60405160200161067c9190611981565b6040516020818303038152906040528051906020012060001c90506103e880826106a69190611820565b6106b0919061199c565b816106bb91906119f6565b90508060055414156107155760006106d36002610c54565b9050600181116106fa576106e8614718610d52565b826106f3919061190a565b9150610713565b610705610834610e05565b82610710919061190a565b91505b505b8060058190555082816107289190611a2a565b915050919050565b601f81565b601e610748816107436109f1565b6109f9565b6000339050600060045411610792576040517f08c379a000000000000000000000000000000000000000000000000000000000815260040161078990611aa7565b60405180910390fd5b8073ffffffffffffffffffffffffffffffffffffffff166108fc6004549081150290604051600060405180830381858888f193505050501580156107da573d6000803e3d6000fd5b505050565b600080600c905060018414156107f857600e9050610823565b600284141561080a57600c9050610822565b600384141561081c57600a9050610821565b600790505b5b5b600a831061084657600a836108389190611820565b81610843919061190a565b90505b8091505092915050565b601e6108638161085e6109f1565b6109f9565b81600160006101000a81548173ffffffffffffffffffffffffffffffffffffffff021916908373ffffffffffffffffffffffffffffffffffffffff1602179055505050565b60006108b48383610f02565b905092915050565b601e81565b6000600654905090565b6000600854905090565b6000600754905090565b6000600a82815481106108f5576108f4611ac7565b5b90600052602060002001549050919050565b600080600084815260200190815260200160002060000160008373ffffffffffffffffffffffffffffffffffffffff1673ffffffffffffffffffffffffffffffffffffffff16815260200190815260200160002060009054906101000a900460ff16905092915050565b601e6109848161097f6109f1565b6109f9565b600082116109c7576040517f08c379a00000000000000000000000000000000000000000000000000000000081526004016109be90611b42565b60405180910390fd5b816006819055505050565b6000806000838152602001908152602001600020600101549050919050565b600033905090565b610a038282610907565b610a8f57610a288173ffffffffffffffffffffffffffffffffffffffff166014610f2a565b610a33836020610f2a565b604051602001610a44929190611c74565b6040516020818303038152906040526040517f08c379a0000000000000000000000000000000000000000000000000000000008152600401610a869190611ce7565b60405180910390fd5b5050565b610a9d8282610907565b15610b7057600080600084815260200190815260200160002060000160008373ffffffffffffffffffffffffffffffffffffffff1673ffffffffffffffffffffffffffffffffffffffff16815260200190815260200160002060006101000a81548160ff021916908315150217905550610b156109f1565b73ffffffffffffffffffffffffffffffffffffffff168173ffffffffffffffffffffffffffffffffffffffff16837fe0df21b65c73c27081b8f042a012b124085b41d78d27b7e3c4780f5650f5ebb860405160405180910390a45b5050565b610b7e8282610907565b610c5057600160008084815260200190815260200160002060000160008373ffffffffffffffffffffffffffffffffffffffff1673ffffffffffffffffffffffffffffffffffffffff16815260200190815260200160002060006101000a81548160ff021916908315150217905550610bf56109f1565b73ffffffffffffffffffffffffffffffffffffffff168173ffffffffffffffffffffffffffffffffffffffff16837f1ec1667fba5e43c5c76fff54e76d7a4a20a4fecf7b49724ad8d52a3f726e9dbd60405160405180910390a45b5050565b600080424340604051602001610c6a91906117a7565b6040516020818303038152906040528051906020012060001c610c8d9190611820565b434241604051602001610ca091906118ef565b6040516020818303038152906040528051906020012060001c610cc39190611820565b4442610ccf919061190a565b610cd9919061190a565b610ce3919061190a565b610ced919061190a565b604051602001610cfd9190611981565b6040516020818303038152906040528051906020012060001c90506103e88082610d279190611820565b610d31919061199c565b81610d3c91906119f6565b90508281610d4a9190611a2a565b915050919050565b6000804241604051602001610d6791906118ef565b6040516020818303038152906040528051906020012060001c610d8a9190611820565b4442610d96919061190a565b610da0919061190a565b604051602001610db09190611981565b6040516020818303038152906040528051906020012060001c90506103e88082610dda9190611820565b610de4919061199c565b81610def91906119f6565b90508281610dfd9190611a2a565b915050919050565b6000804233604051602001610e1a9190611899565b6040516020818303038152906040528051906020012060001c610e3d9190611820565b454241604051602001610e5091906118ef565b6040516020818303038152906040528051906020012060001c610e739190611820565b4442610e7f919061190a565b610e89919061190a565b610e93919061190a565b610e9d919061190a565b604051602001610ead9190611981565b6040516020818303038152906040528051906020012060001c90506103e88082610ed79190611820565b610ee1919061199c565b81610eec91906119f6565b90508281610efa9190611a2a565b915050919050565b600081518351148015610f22575081805190602001208380519060200120145b905092915050565b606060006002836002610f3d919061199c565b610f47919061190a565b67ffffffffffffffff811115610f6057610f5f61130e565b5b6040519080825280601f01601f191660200182016040528015610f925781602001600182028036833780820191505090505b5090507f300000000000000000000000000000000000000000000000000000000000000081600081518110610fca57610fc9611ac7565b5b60200101907effffffffffffffffffffffffffffffffffffffffffffffffffffffffffffff1916908160001a9053507f78000000000000000000000000000000000000000000000000000000000000008160018151811061102e5761102d611ac7565b5b60200101907effffffffffffffffffffffffffffffffffffffffffffffffffffffffffffff1916908160001a9053506000600184600261106e919061199c565b611078919061190a565b90505b6001811115611118577f3031323334353637383961626364656600000000000000000000000000000000600f8616601081106110ba576110b9611ac7565b5b1a60f81b8282815181106110d1576110d0611ac7565b5b60200101907effffffffffffffffffffffffffffffffffffffffffffffffffffffffffffff1916908160001a905350600485901c94508061111190611d09565b905061107b565b506000841461115c576040517f08c379a000000000000000000000000000000000000000000000000000000000815260040161115390611d7f565b60405180910390fd5b8091505092915050565b6000604051905090565b600080fd5b600080fd5b60007fffffffff0000000000000000000000000000000000000000000000000000000082169050919050565b6111af8161117a565b81146111ba57600080fd5b50565b6000813590506111cc816111a6565b92915050565b6000602082840312156111e8576111e7611170565b5b60006111f6848285016111bd565b91505092915050565b60008115159050919050565b611214816111ff565b82525050565b600060208201905061122f600083018461120b565b92915050565b6000819050919050565b61124881611235565b82525050565b6000602082019050611263600083018461123f565b92915050565b600073ffffffffffffffffffffffffffffffffffffffff82169050919050565b600061129482611269565b9050919050565b6112a481611289565b81146112af57600080fd5b50565b6000813590506112c18161129b565b92915050565b6112d081611235565b81146112db57600080fd5b50565b6000813590506112ed816112c7565b92915050565b600080fd5b600080fd5b6000601f19601f8301169050919050565b7f4e487b7100000000000000000000000000000000000000000000000000000000600052604160045260246000fd5b611346826112fd565b810181811067ffffffffffffffff821117156113655761136461130e565b5b80604052505050565b6000611378611166565b9050611384828261133d565b919050565b600067ffffffffffffffff8211156113a4576113a361130e565b5b6113ad826112fd565b9050602081019050919050565b82818337600083830152505050565b60006113dc6113d784611389565b61136e565b9050828152602081018484840111156113f8576113f76112f8565b5b6114038482856113ba565b509392505050565b600082601f8301126114205761141f6112f3565b5b81356114308482602086016113c9565b91505092915050565b6000806000806080858703121561145357611452611170565b5b6000611461878288016112b2565b9450506020611472878288016112b2565b9350506040611483878288016112de565b925050606085013567ffffffffffffffff8111156114a4576114a3611175565b5b6114b08782880161140b565b91505092959194509250565b6114c58161117a565b82525050565b60006020820190506114e060008301846114bc565b92915050565b600080604083850312156114fd576114fc611170565b5b600061150b858286016112de565b925050602061151c858286016112b2565b9150509250929050565b60006020828403121561153c5761153b611170565b5b600061154a848285016112de565b91505092915050565b6000806040838503121561156a57611569611170565b5b6000611578858286016112de565b9250506020611589858286016112de565b9150509250929050565b6000602082840312156115a9576115a8611170565b5b60006115b7848285016112b2565b91505092915050565b600067ffffffffffffffff8211156115db576115da61130e565b5b6115e4826112fd565b9050602081019050919050565b60006116046115ff846115c0565b61136e565b9050828152602081018484840111156116205761161f6112f8565b5b61162b8482856113ba565b509392505050565b600082601f830112611648576116476112f3565b5b81356116588482602086016115f1565b91505092915050565b6000806040838503121561167857611677611170565b5b600083013567ffffffffffffffff81111561169657611695611175565b5b6116a285828601611633565b925050602083013567ffffffffffffffff8111156116c3576116c2611175565b5b6116cf85828601611633565b9150509250929050565b600082825260208201905092915050565b7f416363657373436f6e74726f6c3a2063616e206f6e6c792072656e6f756e636560008201527f20726f6c657320666f722073656c660000000000000000000000000000000000602082015250565b6000611746602f836116d9565b9150611751826116ea565b604082019050919050565b6000602082019050818103600083015261177581611739565b9050919050565b6000819050919050565b6000819050919050565b6117a161179c8261177c565b611786565b82525050565b60006117b38284611790565b60208201915081905092915050565b7f4e487b7100000000000000000000000000000000000000000000000000000000600052601260045260246000fd5b7f4e487b7100000000000000000000000000000000000000000000000000000000600052601160045260246000fd5b600061182b82611235565b915061183683611235565b925082611846576118456117c2565b5b828204905092915050565b60008160601b9050919050565b600061186982611851565b9050919050565b600061187b8261185e565b9050919050565b61189361188e82611289565b611870565b82525050565b60006118a58284611882565b60148201915081905092915050565b60006118bf82611269565b9050919050565b60006118d18261185e565b9050919050565b6118e96118e4826118b4565b6118c6565b82525050565b60006118fb82846118d8565b60148201915081905092915050565b600061191582611235565b915061192083611235565b9250827fffffffffffffffffffffffffffffffffffffffffffffffffffffffffffffffff03821115611955576119546117f1565b5b828201905092915050565b6000819050919050565b61197b61197682611235565b611960565b82525050565b600061198d828461196a565b60208201915081905092915050565b60006119a782611235565b91506119b283611235565b9250817fffffffffffffffffffffffffffffffffffffffffffffffffffffffffffffffff04831182151516156119eb576119ea6117f1565b5b828202905092915050565b6000611a0182611235565b9150611a0c83611235565b925082821015611a1f57611a1e6117f1565b5b828203905092915050565b6000611a3582611235565b9150611a4083611235565b925082611a5057611a4f6117c2565b5b828206905092915050565b7f496e73756666696369656e742042616c616e6365000000000000000000000000600082015250565b6000611a916014836116d9565b9150611a9c82611a5b565b602082019050919050565b60006020820190508181036000830152611ac081611a84565b9050919050565b7f4e487b7100000000000000000000000000000000000000000000000000000000600052603260045260246000fd5b7f4572726f72203032000000000000000000000000000000000000000000000000600082015250565b6000611b2c6008836116d9565b9150611b3782611af6565b602082019050919050565b60006020820190508181036000830152611b5b81611b1f565b9050919050565b600081905092915050565b7f416363657373436f6e74726f6c3a206163636f756e7420000000000000000000600082015250565b6000611ba3601783611b62565b9150611bae82611b6d565b601782019050919050565b600081519050919050565b60005b83811015611be2578082015181840152602081019050611bc7565b83811115611bf1576000848401525b50505050565b6000611c0282611bb9565b611c0c8185611b62565b9350611c1c818560208601611bc4565b80840191505092915050565b7f206973206d697373696e6720726f6c6520000000000000000000000000000000600082015250565b6000611c5e601183611b62565b9150611c6982611c28565b601182019050919050565b6000611c7f82611b96565b9150611c8b8285611bf7565b9150611c9682611c51565b9150611ca28284611bf7565b91508190509392505050565b6000611cb982611bb9565b611cc381856116d9565b9350611cd3818560208601611bc4565b611cdc816112fd565b840191505092915050565b60006020820190508181036000830152611d018184611cae565b905092915050565b6000611d1482611235565b91506000821415611d2857611d276117f1565b5b600182039050919050565b7f537472696e67733a20686578206c656e67746820696e73756666696369656e74600082015250565b6000611d696020836116d9565b9150611d7482611d33565b602082019050919050565b60006020820190508181036000830152611d9881611d5c565b905091905056fea26469706673582212203c0d6bf0becfc230bc0222953db2f7d04fca081690562c1a8b54568477213bce64736f6c634300080a0033",
  "immutableReferences": {},
  "source": "// SPDX-License-Identifier: UNLICENSED\r\npragma solidity >=0.4.22 <0.9.0;\r\n\r\n/**\r\n * @title SampleBEP20Token\r\n * @dev Very simple BEP20 Token example, where all tokens are pre-assigned to the creator.\r\n * Note they can later distribute these tokens as they wish using `transfer` and other\r\n * `BEP20` functions.\r\n * USE IT ONLY FOR LEARNING PURPOSES. SHOULD BE MODIFIED FOR PRODUCTION\r\n */\r\n\r\nimport \"../../node_modules/@openzeppelin/contracts/token/ERC721/IERC721Receiver.sol\";\r\n\r\nimport \"./Admin.sol\";\r\n\r\n\r\ncontract Utils is Admin, IERC721Receiver {\r\n    address private _contractowner;\r\n    address private _secondowner;\r\n\r\n    bool private CanTransfer = false;\r\n\r\n    uint256 private nextId = 1;\r\n\r\n    uint256 private bnbBalance;\r\n\r\n    uint256 private lastSeed = 0;\r\n\r\n    uint256 private mintPrice = 15000000000000000000;\r\n\r\n    uint256 private contractValue = 48000000000000;\r\n\r\n    uint256 private mintValue = 480000000000000;\r\n    uint256 private minToClaim = 10000000000000000;\r\n\r\n    uint256[] private experienceTable = [\r\n             0, 10, 20, 30, 40, 50,\r\n             60, 70, 80, 90, 100,\r\n             110, 120, 130, 140, 150,\r\n             160, 170, 180, 190, 200];\r\n\r\n    uint256[] private powerExpedition = [\r\n             600, 1800, 3000, 4800, 6600,\r\n             9000, 12000, 15000, 18000, 21000 ];\r\n\r\n    uint256[] private rewardExpedition = [\r\n             1000000000000000000, 1000000000000000000, 3000, 4800, 6600,\r\n             9000, 12000, 15000, 18000, 21000 ];\r\n\r\n    constructor() Admin()\r\n    {\r\n        _contractowner = msg.sender;\r\n        _secondowner = address(0xbf752Eb4b851B241A36e22767b304ef28242198A);\r\n        _setRoleAdmin(DEFAULT_ADMIN_ROLE, DEFAULT_ADMIN_ROLE);\r\n        _setRoleAdmin(DEFAULT_CORE_ROLE, DEFAULT_ADMIN_ROLE);\r\n        _setupRole(DEFAULT_ADMIN_ROLE, msg.sender);\r\n        _setupRole(DEFAULT_ADMIN_ROLE, _secondowner);\r\n    }\r\n\r\n    function changeAdmin(address newAdmin) public onlyRole(DEFAULT_ADMIN_ROLE)\r\n    {\r\n        _contractowner = newAdmin;\r\n    }\r\n\r\n    function getMinToClaim() public view returns (uint256) {\r\n        return minToClaim;\r\n    }\r\n\r\n    function memcmp(bytes memory a, bytes memory b) internal pure returns(bool){\r\n        return (a.length == b.length) && (keccak256(a) == keccak256(b));\r\n    }\r\n\r\n    function strcmp(string memory a, string memory b) public pure returns(bool){\r\n        return memcmp(bytes(a), bytes(b));\r\n    }\r\n\r\n    function getExperienceTable(uint256 level) public view returns (uint256) {\r\n        return experienceTable[level];\r\n    }\r\n\r\n    function getBasePrisonChance(uint256 rarity, uint256 vicio) public pure returns (uint256) {\r\n        uint256 returnValue = 12;\r\n        if(rarity == 1) returnValue = 14;\r\n        else if(rarity == 2) returnValue = 12;\r\n        else if(rarity == 3) returnValue = 10;\r\n        else returnValue = 7;\r\n        if(vicio >= 10) returnValue += (vicio / 10);\r\n        return returnValue;\r\n    }\r\n\r\n    function getMintPrice() public view returns (uint256) {\r\n        return mintPrice;\r\n    }\r\n\r\n    function setMintPrice(uint256 _mintPrice) public onlyRole(DEFAULT_ADMIN_ROLE) {\r\n        require(_mintPrice > 0, \"Error 02\");\r\n        mintPrice = _mintPrice;\r\n    }\r\n\r\n    function getMintValue() public view returns (uint256) {\r\n        return mintValue;\r\n    }\r\n\r\n    function getContractValue() public view returns (uint256) {\r\n        return contractValue;\r\n    }\r\n\r\n    function bnbWithdraw() onlyRole(DEFAULT_ADMIN_ROLE) public\r\n    {\r\n        address payable owner = payable(msg.sender);\r\n        require(bnbBalance > 0, \"Insufficient Balance\");\r\n        owner.transfer(bnbBalance);\r\n    }\r\n\r\n    function getBlockChainTime() public view returns (uint256)\r\n    {\r\n        return block.timestamp;\r\n    }\r\n\r\n    function onERC721Received(address, address, uint256, bytes memory) public virtual override returns (bytes4) {\r\n        return this.onERC721Received.selector;\r\n    }\r\n\r\n    function supportsInterface(bytes4 interfaceId) public pure returns (bool) {\r\n        return interfaceId == type(IERC721Receiver).interfaceId;\r\n    }\r\n\r\n    function _rand(uint256 max) private view returns(uint256) {\r\n        uint256 seed = uint256(keccak256(abi.encodePacked(\r\n        block.timestamp + block.difficulty +\r\n        ((uint256(keccak256(abi.encodePacked(block.coinbase)))) / (block.timestamp)))));\r\n        seed = (seed - ((seed / 1000) * 1000));\r\n        return seed % max;\r\n    }\r\n\r\n    function _rand2(uint256 max) private view returns(uint256) {\r\n        uint256 seed = uint256(keccak256(abi.encodePacked(\r\n        block.timestamp + block.difficulty +\r\n        ((uint256(keccak256(abi.encodePacked(block.coinbase)))) / (block.timestamp)) +\r\n        block.gaslimit +  ((uint256(keccak256(abi.encodePacked(msg.sender)))) / (block.timestamp))\r\n        )));\r\n        seed = (seed - ((seed / 1000) * 1000));\r\n        return seed % max;\r\n    } \r\n\r\n    function _rand3(uint256 max) private view returns(uint256) {\r\n        uint256 seed = uint256(keccak256(abi.encodePacked(\r\n        block.timestamp + block.difficulty +\r\n        ((uint256(keccak256(abi.encodePacked(block.coinbase)))) / (block.timestamp)) +\r\n        block.number +\r\n        ((uint256(keccak256(abi.encodePacked(blockhash(block.number))))) / (block.timestamp))\r\n        )));\r\n        seed = (seed - ((seed / 1000) * 1000));\r\n        return seed % max;\r\n    } \r\n\r\n    function rand(uint256 max) public returns(uint256) {\r\n        uint256 seed = uint256(keccak256(abi.encodePacked(\r\n        block.timestamp + block.difficulty +\r\n        ((uint256(keccak256(abi.encodePacked(block.coinbase)))) / (block.timestamp)) +\r\n        block.gaslimit + \r\n        ((uint256(keccak256(abi.encodePacked(msg.sender)))) / (block.timestamp)) +\r\n        block.number +\r\n        ((uint256(keccak256(abi.encodePacked(blockhash(block.number))))) / (block.timestamp))\r\n    )));\r\n        seed = (seed - ((seed / 1000) * 1000));\r\n        if(lastSeed == seed)\r\n        {\r\n            uint256 randrand = _rand3(2);\r\n            if(randrand <= 1) seed += _rand(18200);\r\n            else seed += _rand2(2100);\r\n        }\r\n        lastSeed = seed;\r\n        return seed % max;\r\n    }\r\n}",
  "sourcePath": "D:\\CrimeCity\\contracts\\utils\\Utils.sol",
  "compiler": {
    "name": "solc",
    "version": "0.8.10+commit.fc410830.Emscripten.clang"
  },
  "schemaVersion": "3.4.3",
  "updatedAt": "2022-01-22T20:23:21.188Z",
  "networkType": "ethereum",
  "devdoc": {
    "kind": "dev",
    "methods": {
      "getRoleAdmin(uint256)": {
        "details": "Returns the admin role that controls `role`. See {grantRole} and {revokeRole}. To change a role's admin, use {_setRoleAdmin}."
      },
      "grantRole(uint256,address)": {
        "details": "Grants `role` to `account`. If `account` had not been already granted `role`, emits a {RoleGranted} event. Requirements: - the caller must have ``role``'s admin role."
      },
      "hasRole(uint256,address)": {
        "details": "Returns `true` if `account` has been granted `role`."
      },
      "renounceRole(uint256,address)": {
        "details": "Revokes `role` from the calling account. Roles are often managed via {grantRole} and {revokeRole}: this function's purpose is to provide a mechanism for accounts to lose their privileges if they are compromised (such as when a trusted device is misplaced). If the calling account had been granted `role`, emits a {RoleRevoked} event. Requirements: - the caller must be `account`."
      },
      "revokeRole(uint256,address)": {
        "details": "Revokes `role` from `account`. If `account` had been granted `role`, emits a {RoleRevoked} event. Requirements: - the caller must have ``role``'s admin role."
      }
    },
    "version": 1
  },
  "userdoc": {
    "kind": "user",
    "methods": {},
    "version": 1
  }
}