{
  "contractName": "WebUtils",
  "abi": [
    {
      "inputs": [
        {
          "internalType": "contract Utils",
          "name": "_util",
          "type": "address"
        },
        {
          "internalType": "contract Character",
          "name": "_character",
          "type": "address"
        },
        {
          "internalType": "contract GameItem",
          "name": "_gameItem",
          "type": "address"
        }
      ],
      "stateMutability": "nonpayable",
      "type": "constructor"
    },
    {
      "anonymous": false,
      "inputs": [
        {
          "indexed": true,
          "internalType": "uint256",
          "name": "role",
          "type": "uint256"
        },
        {
          "indexed": true,
          "internalType": "uint256",
          "name": "previousAdminRole",
          "type": "uint256"
        },
        {
          "indexed": true,
          "internalType": "uint256",
          "name": "newAdminRole",
          "type": "uint256"
        }
      ],
      "name": "RoleAdminChanged",
      "type": "event"
    },
    {
      "anonymous": false,
      "inputs": [
        {
          "indexed": true,
          "internalType": "uint256",
          "name": "role",
          "type": "uint256"
        },
        {
          "indexed": true,
          "internalType": "address",
          "name": "account",
          "type": "address"
        },
        {
          "indexed": true,
          "internalType": "address",
          "name": "sender",
          "type": "address"
        }
      ],
      "name": "RoleGranted",
      "type": "event"
    },
    {
      "anonymous": false,
      "inputs": [
        {
          "indexed": true,
          "internalType": "uint256",
          "name": "role",
          "type": "uint256"
        },
        {
          "indexed": true,
          "internalType": "address",
          "name": "account",
          "type": "address"
        },
        {
          "indexed": true,
          "internalType": "address",
          "name": "sender",
          "type": "address"
        }
      ],
      "name": "RoleRevoked",
      "type": "event"
    },
    {
      "inputs": [],
      "name": "DEFAULT_ADMIN_ROLE",
      "outputs": [
        {
          "internalType": "uint256",
          "name": "",
          "type": "uint256"
        }
      ],
      "stateMutability": "view",
      "type": "function",
      "constant": true
    },
    {
      "inputs": [],
      "name": "DEFAULT_CORE_ROLE",
      "outputs": [
        {
          "internalType": "uint256",
          "name": "",
          "type": "uint256"
        }
      ],
      "stateMutability": "view",
      "type": "function",
      "constant": true
    },
    {
      "inputs": [
        {
          "internalType": "uint256",
          "name": "role",
          "type": "uint256"
        }
      ],
      "name": "getRoleAdmin",
      "outputs": [
        {
          "internalType": "uint256",
          "name": "",
          "type": "uint256"
        }
      ],
      "stateMutability": "view",
      "type": "function",
      "constant": true
    },
    {
      "inputs": [
        {
          "internalType": "uint256",
          "name": "role",
          "type": "uint256"
        },
        {
          "internalType": "address",
          "name": "account",
          "type": "address"
        }
      ],
      "name": "grantRole",
      "outputs": [],
      "stateMutability": "nonpayable",
      "type": "function"
    },
    {
      "inputs": [
        {
          "internalType": "uint256",
          "name": "role",
          "type": "uint256"
        },
        {
          "internalType": "address",
          "name": "account",
          "type": "address"
        }
      ],
      "name": "hasRole",
      "outputs": [
        {
          "internalType": "bool",
          "name": "",
          "type": "bool"
        }
      ],
      "stateMutability": "view",
      "type": "function",
      "constant": true
    },
    {
      "inputs": [
        {
          "internalType": "uint256",
          "name": "role",
          "type": "uint256"
        },
        {
          "internalType": "address",
          "name": "account",
          "type": "address"
        }
      ],
      "name": "renounceRole",
      "outputs": [],
      "stateMutability": "nonpayable",
      "type": "function"
    },
    {
      "inputs": [
        {
          "internalType": "uint256",
          "name": "role",
          "type": "uint256"
        },
        {
          "internalType": "address",
          "name": "account",
          "type": "address"
        }
      ],
      "name": "revokeRole",
      "outputs": [],
      "stateMutability": "nonpayable",
      "type": "function"
    },
    {
      "inputs": [
        {
          "internalType": "address",
          "name": "newAdmin",
          "type": "address"
        }
      ],
      "name": "changeAdmin",
      "outputs": [],
      "stateMutability": "nonpayable",
      "type": "function"
    },
    {
      "inputs": [
        {
          "internalType": "address",
          "name": "",
          "type": "address"
        },
        {
          "internalType": "address",
          "name": "",
          "type": "address"
        },
        {
          "internalType": "uint256",
          "name": "",
          "type": "uint256"
        },
        {
          "internalType": "bytes",
          "name": "",
          "type": "bytes"
        }
      ],
      "name": "onERC721Received",
      "outputs": [
        {
          "internalType": "bytes4",
          "name": "",
          "type": "bytes4"
        }
      ],
      "stateMutability": "nonpayable",
      "type": "function"
    },
    {
      "inputs": [
        {
          "internalType": "bytes4",
          "name": "interfaceId",
          "type": "bytes4"
        }
      ],
      "name": "supportsInterface",
      "outputs": [
        {
          "internalType": "bool",
          "name": "",
          "type": "bool"
        }
      ],
      "stateMutability": "pure",
      "type": "function",
      "constant": true
    },
    {
      "inputs": [
        {
          "components": [
            {
              "internalType": "string",
              "name": "name",
              "type": "string"
            },
            {
              "internalType": "uint256",
              "name": "class",
              "type": "uint256"
            },
            {
              "internalType": "uint256",
              "name": "rarity",
              "type": "uint256"
            },
            {
              "internalType": "uint256",
              "name": "respect",
              "type": "uint256"
            },
            {
              "internalType": "uint256",
              "name": "vicio",
              "type": "uint256"
            },
            {
              "internalType": "uint256",
              "name": "power",
              "type": "uint256"
            },
            {
              "internalType": "uint256",
              "name": "level",
              "type": "uint256"
            },
            {
              "internalType": "uint256",
              "name": "exp",
              "type": "uint256"
            },
            {
              "internalType": "uint256",
              "name": "maxHp",
              "type": "uint256"
            },
            {
              "internalType": "uint256",
              "name": "curHp",
              "type": "uint256"
            },
            {
              "internalType": "uint256",
              "name": "_str",
              "type": "uint256"
            },
            {
              "internalType": "uint256",
              "name": "_int",
              "type": "uint256"
            },
            {
              "internalType": "uint256",
              "name": "_cha",
              "type": "uint256"
            },
            {
              "internalType": "uint256",
              "name": "_res",
              "type": "uint256"
            },
            {
              "internalType": "uint256",
              "name": "lastExpedition",
              "type": "uint256"
            },
            {
              "internalType": "uint256",
              "name": "lastExpeditionResult",
              "type": "uint256"
            },
            {
              "internalType": "uint256",
              "name": "lastExpeditionRoll",
              "type": "uint256"
            },
            {
              "internalType": "uint256",
              "name": "prisonTime",
              "type": "uint256"
            },
            {
              "internalType": "uint256",
              "name": "nurseTime",
              "type": "uint256"
            },
            {
              "internalType": "uint256",
              "name": "coleteTime",
              "type": "uint256"
            },
            {
              "internalType": "uint256",
              "name": "lastPvP",
              "type": "uint256"
            },
            {
              "internalType": "uint256",
              "name": "lastPvPResult",
              "type": "uint256"
            },
            {
              "internalType": "uint256",
              "name": "lastPvPRoll",
              "type": "uint256"
            },
            {
              "internalType": "uint256",
              "name": "pvpDefeatCount",
              "type": "uint256"
            },
            {
              "internalType": "uint256",
              "name": "pvpDefeatTime",
              "type": "uint256"
            },
            {
              "internalType": "uint256",
              "name": "guildId",
              "type": "uint256"
            },
            {
              "internalType": "uint256",
              "name": "weaponId",
              "type": "uint256"
            },
            {
              "internalType": "uint256",
              "name": "seasonId",
              "type": "uint256"
            },
            {
              "internalType": "uint256",
              "name": "prisonPrice",
              "type": "uint256"
            },
            {
              "internalType": "uint256",
              "name": "hospitalPrice",
              "type": "uint256"
            },
            {
              "internalType": "address",
              "name": "owner",
              "type": "address"
            },
            {
              "internalType": "uint256",
              "name": "tokenId",
              "type": "uint256"
            }
          ],
          "internalType": "struct CharacterDetail",
          "name": "char",
          "type": "tuple"
        }
      ],
      "name": "bridgeCharacterStructToWebStruct",
      "outputs": [
        {
          "components": [
            {
              "internalType": "string",
              "name": "name",
              "type": "string"
            },
            {
              "internalType": "uint256",
              "name": "class",
              "type": "uint256"
            },
            {
              "internalType": "uint256",
              "name": "rarity",
              "type": "uint256"
            },
            {
              "internalType": "uint256",
              "name": "respect",
              "type": "uint256"
            },
            {
              "internalType": "uint256",
              "name": "vicio",
              "type": "uint256"
            },
            {
              "internalType": "uint256",
              "name": "power",
              "type": "uint256"
            },
            {
              "internalType": "uint256",
              "name": "level",
              "type": "uint256"
            },
            {
              "internalType": "uint256",
              "name": "exp",
              "type": "uint256"
            },
            {
              "internalType": "uint256",
              "name": "maxHp",
              "type": "uint256"
            },
            {
              "internalType": "uint256",
              "name": "curHp",
              "type": "uint256"
            },
            {
              "internalType": "uint256",
              "name": "_str",
              "type": "uint256"
            },
            {
              "internalType": "uint256",
              "name": "_int",
              "type": "uint256"
            },
            {
              "internalType": "uint256",
              "name": "_cha",
              "type": "uint256"
            },
            {
              "internalType": "uint256",
              "name": "_res",
              "type": "uint256"
            },
            {
              "internalType": "uint256",
              "name": "lastExpedition",
              "type": "uint256"
            },
            {
              "internalType": "uint256",
              "name": "lastExpeditionResult",
              "type": "uint256"
            },
            {
              "internalType": "uint256",
              "name": "lastExpeditionRoll",
              "type": "uint256"
            },
            {
              "internalType": "uint256",
              "name": "prisonTime",
              "type": "uint256"
            },
            {
              "internalType": "uint256",
              "name": "nurseTime",
              "type": "uint256"
            },
            {
              "internalType": "uint256",
              "name": "coleteTime",
              "type": "uint256"
            },
            {
              "internalType": "uint256",
              "name": "lastPvP",
              "type": "uint256"
            },
            {
              "internalType": "uint256",
              "name": "lastPvPResult",
              "type": "uint256"
            },
            {
              "internalType": "uint256",
              "name": "lastPvPRoll",
              "type": "uint256"
            },
            {
              "internalType": "uint256",
              "name": "pvpDefeatCount",
              "type": "uint256"
            },
            {
              "internalType": "uint256",
              "name": "pvpDefeatTime",
              "type": "uint256"
            },
            {
              "internalType": "uint256",
              "name": "guildId",
              "type": "uint256"
            },
            {
              "internalType": "uint256",
              "name": "weaponId",
              "type": "uint256"
            },
            {
              "internalType": "uint256",
              "name": "seasonId",
              "type": "uint256"
            },
            {
              "internalType": "uint256",
              "name": "prisonPrice",
              "type": "uint256"
            },
            {
              "internalType": "uint256",
              "name": "hospitalPrice",
              "type": "uint256"
            },
            {
              "internalType": "address",
              "name": "owner",
              "type": "address"
            },
            {
              "internalType": "uint256",
              "name": "tokenId",
              "type": "uint256"
            }
          ],
          "internalType": "struct WebUtils.CharacterDetailWeb",
          "name": "",
          "type": "tuple"
        }
      ],
      "stateMutability": "pure",
      "type": "function",
      "constant": true
    },
    {
      "inputs": [
        {
          "components": [
            {
              "internalType": "string",
              "name": "name",
              "type": "string"
            },
            {
              "internalType": "uint256",
              "name": "rarity",
              "type": "uint256"
            },
            {
              "internalType": "uint256",
              "name": "img",
              "type": "uint256"
            },
            {
              "internalType": "uint256",
              "name": "powerBonus",
              "type": "uint256"
            },
            {
              "internalType": "uint256",
              "name": "strBonus",
              "type": "uint256"
            },
            {
              "internalType": "uint256",
              "name": "intBonus",
              "type": "uint256"
            },
            {
              "internalType": "uint256",
              "name": "chaBonus",
              "type": "uint256"
            },
            {
              "internalType": "uint256",
              "name": "resBonus",
              "type": "uint256"
            },
            {
              "internalType": "address",
              "name": "owner",
              "type": "address"
            },
            {
              "internalType": "uint256",
              "name": "itemId",
              "type": "uint256"
            },
            {
              "internalType": "uint256",
              "name": "tokenId",
              "type": "uint256"
            },
            {
              "internalType": "bool",
              "name": "equiped",
              "type": "bool"
            },
            {
              "internalType": "uint256",
              "name": "equipedTime",
              "type": "uint256"
            }
          ],
          "internalType": "struct _GameItem",
          "name": "item",
          "type": "tuple"
        }
      ],
      "name": "bridgeGameItemStructToWebStruct",
      "outputs": [
        {
          "components": [
            {
              "internalType": "string",
              "name": "name",
              "type": "string"
            },
            {
              "internalType": "uint256",
              "name": "rarity",
              "type": "uint256"
            },
            {
              "internalType": "uint256",
              "name": "img",
              "type": "uint256"
            },
            {
              "internalType": "uint256",
              "name": "powerBonus",
              "type": "uint256"
            },
            {
              "internalType": "uint256",
              "name": "strBonus",
              "type": "uint256"
            },
            {
              "internalType": "uint256",
              "name": "intBonus",
              "type": "uint256"
            },
            {
              "internalType": "uint256",
              "name": "chaBonus",
              "type": "uint256"
            },
            {
              "internalType": "uint256",
              "name": "resBonus",
              "type": "uint256"
            },
            {
              "internalType": "address",
              "name": "owner",
              "type": "address"
            },
            {
              "internalType": "uint256",
              "name": "itemId",
              "type": "uint256"
            },
            {
              "internalType": "uint256",
              "name": "tokenId",
              "type": "uint256"
            },
            {
              "internalType": "bool",
              "name": "equiped",
              "type": "bool"
            },
            {
              "internalType": "uint256",
              "name": "equipedTime",
              "type": "uint256"
            }
          ],
          "internalType": "struct WebUtils._GameItemWeb",
          "name": "",
          "type": "tuple"
        }
      ],
      "stateMutability": "pure",
      "type": "function",
      "constant": true
    },
    {
      "inputs": [
        {
          "internalType": "address",
          "name": "user",
          "type": "address"
        },
        {
          "internalType": "uint256",
          "name": "seasonId",
          "type": "uint256"
        }
      ],
      "name": "getAllCharactersBySeasonId",
      "outputs": [
        {
          "internalType": "uint256[]",
          "name": "",
          "type": "uint256[]"
        }
      ],
      "stateMutability": "view",
      "type": "function",
      "constant": true
    },
    {
      "inputs": [
        {
          "internalType": "address",
          "name": "user",
          "type": "address"
        },
        {
          "internalType": "uint256",
          "name": "rarity",
          "type": "uint256"
        }
      ],
      "name": "getAllCharactersByRarity",
      "outputs": [
        {
          "internalType": "uint256[]",
          "name": "",
          "type": "uint256[]"
        }
      ],
      "stateMutability": "view",
      "type": "function",
      "constant": true
    },
    {
      "inputs": [
        {
          "internalType": "address",
          "name": "user",
          "type": "address"
        }
      ],
      "name": "getAllCharactersForUser",
      "outputs": [
        {
          "internalType": "uint256[]",
          "name": "",
          "type": "uint256[]"
        }
      ],
      "stateMutability": "view",
      "type": "function",
      "constant": true
    },
    {
      "inputs": [
        {
          "internalType": "int256",
          "name": "max",
          "type": "int256"
        },
        {
          "internalType": "int256",
          "name": "min",
          "type": "int256"
        },
        {
          "internalType": "int256[]",
          "name": "tokenIds",
          "type": "int256[]"
        },
        {
          "internalType": "address",
          "name": "addr",
          "type": "address"
        }
      ],
      "name": "getAllCharactersByTokenIds",
      "outputs": [
        {
          "components": [
            {
              "internalType": "string",
              "name": "name",
              "type": "string"
            },
            {
              "internalType": "uint256",
              "name": "class",
              "type": "uint256"
            },
            {
              "internalType": "uint256",
              "name": "rarity",
              "type": "uint256"
            },
            {
              "internalType": "uint256",
              "name": "respect",
              "type": "uint256"
            },
            {
              "internalType": "uint256",
              "name": "vicio",
              "type": "uint256"
            },
            {
              "internalType": "uint256",
              "name": "power",
              "type": "uint256"
            },
            {
              "internalType": "uint256",
              "name": "level",
              "type": "uint256"
            },
            {
              "internalType": "uint256",
              "name": "exp",
              "type": "uint256"
            },
            {
              "internalType": "uint256",
              "name": "maxHp",
              "type": "uint256"
            },
            {
              "internalType": "uint256",
              "name": "curHp",
              "type": "uint256"
            },
            {
              "internalType": "uint256",
              "name": "_str",
              "type": "uint256"
            },
            {
              "internalType": "uint256",
              "name": "_int",
              "type": "uint256"
            },
            {
              "internalType": "uint256",
              "name": "_cha",
              "type": "uint256"
            },
            {
              "internalType": "uint256",
              "name": "_res",
              "type": "uint256"
            },
            {
              "internalType": "uint256",
              "name": "lastExpedition",
              "type": "uint256"
            },
            {
              "internalType": "uint256",
              "name": "lastExpeditionResult",
              "type": "uint256"
            },
            {
              "internalType": "uint256",
              "name": "lastExpeditionRoll",
              "type": "uint256"
            },
            {
              "internalType": "uint256",
              "name": "prisonTime",
              "type": "uint256"
            },
            {
              "internalType": "uint256",
              "name": "nurseTime",
              "type": "uint256"
            },
            {
              "internalType": "uint256",
              "name": "coleteTime",
              "type": "uint256"
            },
            {
              "internalType": "uint256",
              "name": "lastPvP",
              "type": "uint256"
            },
            {
              "internalType": "uint256",
              "name": "lastPvPResult",
              "type": "uint256"
            },
            {
              "internalType": "uint256",
              "name": "lastPvPRoll",
              "type": "uint256"
            },
            {
              "internalType": "uint256",
              "name": "pvpDefeatCount",
              "type": "uint256"
            },
            {
              "internalType": "uint256",
              "name": "pvpDefeatTime",
              "type": "uint256"
            },
            {
              "internalType": "uint256",
              "name": "guildId",
              "type": "uint256"
            },
            {
              "internalType": "uint256",
              "name": "weaponId",
              "type": "uint256"
            },
            {
              "internalType": "uint256",
              "name": "seasonId",
              "type": "uint256"
            },
            {
              "internalType": "uint256",
              "name": "prisonPrice",
              "type": "uint256"
            },
            {
              "internalType": "uint256",
              "name": "hospitalPrice",
              "type": "uint256"
            },
            {
              "internalType": "address",
              "name": "owner",
              "type": "address"
            },
            {
              "internalType": "uint256",
              "name": "tokenId",
              "type": "uint256"
            }
          ],
          "internalType": "struct WebUtils.CharacterDetailWeb[]",
          "name": "",
          "type": "tuple[]"
        }
      ],
      "stateMutability": "view",
      "type": "function",
      "constant": true
    },
    {
      "inputs": [
        {
          "internalType": "address",
          "name": "user",
          "type": "address"
        }
      ],
      "name": "getAllItemsForUser",
      "outputs": [
        {
          "internalType": "uint256[]",
          "name": "",
          "type": "uint256[]"
        }
      ],
      "stateMutability": "view",
      "type": "function",
      "constant": true
    },
    {
      "inputs": [
        {
          "internalType": "address",
          "name": "user",
          "type": "address"
        },
        {
          "internalType": "uint256",
          "name": "itemId",
          "type": "uint256"
        }
      ],
      "name": "getAllItemsByItemId",
      "outputs": [
        {
          "internalType": "uint256[]",
          "name": "",
          "type": "uint256[]"
        }
      ],
      "stateMutability": "view",
      "type": "function",
      "constant": true
    },
    {
      "inputs": [
        {
          "internalType": "int256",
          "name": "max",
          "type": "int256"
        },
        {
          "internalType": "int256",
          "name": "min",
          "type": "int256"
        },
        {
          "internalType": "int256[]",
          "name": "tokenIds",
          "type": "int256[]"
        }
      ],
      "name": "getAllItemsByTokenIds",
      "outputs": [
        {
          "components": [
            {
              "internalType": "string",
              "name": "name",
              "type": "string"
            },
            {
              "internalType": "uint256",
              "name": "rarity",
              "type": "uint256"
            },
            {
              "internalType": "uint256",
              "name": "img",
              "type": "uint256"
            },
            {
              "internalType": "uint256",
              "name": "powerBonus",
              "type": "uint256"
            },
            {
              "internalType": "uint256",
              "name": "strBonus",
              "type": "uint256"
            },
            {
              "internalType": "uint256",
              "name": "intBonus",
              "type": "uint256"
            },
            {
              "internalType": "uint256",
              "name": "chaBonus",
              "type": "uint256"
            },
            {
              "internalType": "uint256",
              "name": "resBonus",
              "type": "uint256"
            },
            {
              "internalType": "address",
              "name": "owner",
              "type": "address"
            },
            {
              "internalType": "uint256",
              "name": "itemId",
              "type": "uint256"
            },
            {
              "internalType": "uint256",
              "name": "tokenId",
              "type": "uint256"
            },
            {
              "internalType": "bool",
              "name": "equiped",
              "type": "bool"
            },
            {
              "internalType": "uint256",
              "name": "equipedTime",
              "type": "uint256"
            }
          ],
          "internalType": "struct WebUtils._GameItemWeb[]",
          "name": "",
          "type": "tuple[]"
        }
      ],
      "stateMutability": "view",
      "type": "function",
      "constant": true
    },
    {
      "inputs": [
        {
          "internalType": "int256[]",
          "name": "tokenIds",
          "type": "int256[]"
        }
      ],
      "name": "getAllItemsByTokenIds",
      "outputs": [
        {
          "components": [
            {
              "internalType": "string",
              "name": "name",
              "type": "string"
            },
            {
              "internalType": "uint256",
              "name": "rarity",
              "type": "uint256"
            },
            {
              "internalType": "uint256",
              "name": "img",
              "type": "uint256"
            },
            {
              "internalType": "uint256",
              "name": "powerBonus",
              "type": "uint256"
            },
            {
              "internalType": "uint256",
              "name": "strBonus",
              "type": "uint256"
            },
            {
              "internalType": "uint256",
              "name": "intBonus",
              "type": "uint256"
            },
            {
              "internalType": "uint256",
              "name": "chaBonus",
              "type": "uint256"
            },
            {
              "internalType": "uint256",
              "name": "resBonus",
              "type": "uint256"
            },
            {
              "internalType": "address",
              "name": "owner",
              "type": "address"
            },
            {
              "internalType": "uint256",
              "name": "itemId",
              "type": "uint256"
            },
            {
              "internalType": "uint256",
              "name": "tokenId",
              "type": "uint256"
            },
            {
              "internalType": "bool",
              "name": "equiped",
              "type": "bool"
            },
            {
              "internalType": "uint256",
              "name": "equipedTime",
              "type": "uint256"
            }
          ],
          "internalType": "struct WebUtils._GameItemWeb[]",
          "name": "",
          "type": "tuple[]"
        }
      ],
      "stateMutability": "view",
      "type": "function",
      "constant": true
    },
    {
      "inputs": [
        {
          "internalType": "int256[]",
          "name": "tokenIds",
          "type": "int256[]"
        }
      ],
      "name": "getAllCharacterByTokenIds",
      "outputs": [
        {
          "components": [
            {
              "internalType": "string",
              "name": "name",
              "type": "string"
            },
            {
              "internalType": "uint256",
              "name": "class",
              "type": "uint256"
            },
            {
              "internalType": "uint256",
              "name": "rarity",
              "type": "uint256"
            },
            {
              "internalType": "uint256",
              "name": "respect",
              "type": "uint256"
            },
            {
              "internalType": "uint256",
              "name": "vicio",
              "type": "uint256"
            },
            {
              "internalType": "uint256",
              "name": "power",
              "type": "uint256"
            },
            {
              "internalType": "uint256",
              "name": "level",
              "type": "uint256"
            },
            {
              "internalType": "uint256",
              "name": "exp",
              "type": "uint256"
            },
            {
              "internalType": "uint256",
              "name": "maxHp",
              "type": "uint256"
            },
            {
              "internalType": "uint256",
              "name": "curHp",
              "type": "uint256"
            },
            {
              "internalType": "uint256",
              "name": "_str",
              "type": "uint256"
            },
            {
              "internalType": "uint256",
              "name": "_int",
              "type": "uint256"
            },
            {
              "internalType": "uint256",
              "name": "_cha",
              "type": "uint256"
            },
            {
              "internalType": "uint256",
              "name": "_res",
              "type": "uint256"
            },
            {
              "internalType": "uint256",
              "name": "lastExpedition",
              "type": "uint256"
            },
            {
              "internalType": "uint256",
              "name": "lastExpeditionResult",
              "type": "uint256"
            },
            {
              "internalType": "uint256",
              "name": "lastExpeditionRoll",
              "type": "uint256"
            },
            {
              "internalType": "uint256",
              "name": "prisonTime",
              "type": "uint256"
            },
            {
              "internalType": "uint256",
              "name": "nurseTime",
              "type": "uint256"
            },
            {
              "internalType": "uint256",
              "name": "coleteTime",
              "type": "uint256"
            },
            {
              "internalType": "uint256",
              "name": "lastPvP",
              "type": "uint256"
            },
            {
              "internalType": "uint256",
              "name": "lastPvPResult",
              "type": "uint256"
            },
            {
              "internalType": "uint256",
              "name": "lastPvPRoll",
              "type": "uint256"
            },
            {
              "internalType": "uint256",
              "name": "pvpDefeatCount",
              "type": "uint256"
            },
            {
              "internalType": "uint256",
              "name": "pvpDefeatTime",
              "type": "uint256"
            },
            {
              "internalType": "uint256",
              "name": "guildId",
              "type": "uint256"
            },
            {
              "internalType": "uint256",
              "name": "weaponId",
              "type": "uint256"
            },
            {
              "internalType": "uint256",
              "name": "seasonId",
              "type": "uint256"
            },
            {
              "internalType": "uint256",
              "name": "prisonPrice",
              "type": "uint256"
            },
            {
              "internalType": "uint256",
              "name": "hospitalPrice",
              "type": "uint256"
            },
            {
              "internalType": "address",
              "name": "owner",
              "type": "address"
            },
            {
              "internalType": "uint256",
              "name": "tokenId",
              "type": "uint256"
            }
          ],
          "internalType": "struct WebUtils.CharacterDetailWeb[]",
          "name": "",
          "type": "tuple[]"
        }
      ],
      "stateMutability": "view",
      "type": "function",
      "constant": true
    }
  ],
  "bytecode": "0x60806040523480156200001157600080fd5b5060405162005ffb38038062005ffb83398181016040528101906200003791906200052e565b33600160006101000a81548173ffffffffffffffffffffffffffffffffffffffff021916908373ffffffffffffffffffffffffffffffffffffffff16021790555073bf752eb4b851b241a36e22767b304ef28242198a600260006101000a81548173ffffffffffffffffffffffffffffffffffffffff021916908373ffffffffffffffffffffffffffffffffffffffff160217905550600060038190555081600560006101000a81548173ffffffffffffffffffffffffffffffffffffffff021916908373ffffffffffffffffffffffffffffffffffffffff16021790555082600460006101000a81548173ffffffffffffffffffffffffffffffffffffffff021916908373ffffffffffffffffffffffffffffffffffffffff16021790555080600660006101000a81548173ffffffffffffffffffffffffffffffffffffffff021916908373ffffffffffffffffffffffffffffffffffffffff160217905550620001ab601e806200022b60201b60201c565b620001bf601f601e6200022b60201b60201c565b620001d2601e336200028e60201b60201c565b62000207601e600260009054906101000a900473ffffffffffffffffffffffffffffffffffffffff166200028e60201b60201c565b6000600660146101000a81548160ff0219169083151502179055505050506200058a565b60006200023e83620002a460201b60201c565b905081600080858152602001908152602001600020600101819055508181847f6620dedee755c284a7e221a3279487b734830c1f76c026c797b4d019c6b4b2f460405160405180910390a4505050565b620002a08282620002c360201b60201c565b5050565b6000806000838152602001908152602001600020600101549050919050565b620002d58282620003b460201b60201c565b620003b057600160008084815260200190815260200160002060000160008373ffffffffffffffffffffffffffffffffffffffff1673ffffffffffffffffffffffffffffffffffffffff16815260200190815260200160002060006101000a81548160ff021916908315150217905550620003556200041e60201b60201c565b73ffffffffffffffffffffffffffffffffffffffff168173ffffffffffffffffffffffffffffffffffffffff16837f1ec1667fba5e43c5c76fff54e76d7a4a20a4fecf7b49724ad8d52a3f726e9dbd60405160405180910390a45b5050565b600080600084815260200190815260200160002060000160008373ffffffffffffffffffffffffffffffffffffffff1673ffffffffffffffffffffffffffffffffffffffff16815260200190815260200160002060009054906101000a900460ff16905092915050565b600033905090565b600080fd5b600073ffffffffffffffffffffffffffffffffffffffff82169050919050565b600062000458826200042b565b9050919050565b60006200046c826200044b565b9050919050565b6200047e816200045f565b81146200048a57600080fd5b50565b6000815190506200049e8162000473565b92915050565b6000620004b1826200044b565b9050919050565b620004c381620004a4565b8114620004cf57600080fd5b50565b600081519050620004e381620004b8565b92915050565b6000620004f6826200044b565b9050919050565b6200050881620004e9565b81146200051457600080fd5b50565b6000815190506200052881620004fd565b92915050565b6000806000606084860312156200054a576200054962000426565b5b60006200055a868287016200048d565b93505060206200056d86828701620004d2565b9250506040620005808682870162000517565b9150509250925092565b615a61806200059a6000396000f3fe608060405234801561001057600080fd5b50600436106101375760003560e01c806351941a85116100b8578063a217fddf1161007c578063a217fddf146103aa578063a42bcebb146103c8578063ac07d17a146103f8578063b27e6b0614610428578063ec2606c014610458578063fb2990ad1461048857610137565b806351941a85146102e05780635e148611146103105780636ebe53d2146103405780636f45e4e5146103705780638f2839701461038e57610137565b80632308d236116100ff5780632308d236146102045780632afb22501461022057806336636e66146102505780633cc1253b146102805780634cbe899f146102b057610137565b806301ffc9a71461013c578063150b7a021461016c578063194ac4271461019c5780631d0b19e7146101cc5780631fe5f589146101e8575b600080fd5b61015660048036038101906101519190613876565b6104b8565b60405161016391906138be565b60405180910390f35b61018660048036038101906101819190613ab3565b610522565b6040516101939190613b45565b60405180910390f35b6101b660048036038101906101b19190613c5e565b610536565b6040516101c391906140b7565b60405180910390f35b6101e660048036038101906101e191906140d9565b6107f5565b005b61020260048036038101906101fd91906140d9565b61081e565b005b61021e600480360381019061021991906140d9565b610847565b005b61023a60048036038101906102359190614119565b6108ca565b6040516102479190614208565b60405180910390f35b61026a60048036038101906102659190614119565b610fe6565b6040516102779190614208565b60405180910390f35b61029a6004803603810190610295919061422a565b611700565b6040516102a79190614483565b60405180910390f35b6102ca60048036038101906102c59190614119565b6119be565b6040516102d79190614208565b60405180910390f35b6102fa60048036038101906102f591906144a5565b6120da565b6040516103079190614208565b60405180910390f35b61032a60048036038101906103259190614873565b612492565b6040516103379190614b64565b60405180910390f35b61035a60048036038101906103559190613c5e565b61261f565b6040516103679190614483565b60405180910390f35b6103786128de565b6040516103859190614b95565b60405180910390f35b6103a860048036038101906103a391906144a5565b6128e3565b005b6103b261293b565b6040516103bf9190614b95565b60405180910390f35b6103e260048036038101906103dd91906144a5565b612940565b6040516103ef9190614208565b60405180910390f35b610412600480360381019061040d9190614bb0565b612cf8565b60405161041f91906140b7565b60405180910390f35b610442600480360381019061043d9190614db3565b6130a1565b60405161044f9190614f15565b60405180910390f35b610472600480360381019061046d91906140d9565b61315f565b60405161047f91906138be565b60405180910390f35b6104a2600480360381019061049d9190614f37565b6131c9565b6040516104af9190614b95565b60405180910390f35b60007f150b7a02000000000000000000000000000000000000000000000000000000007bffffffffffffffffffffffffffffffffffffffffffffffffffffffff1916827bffffffffffffffffffffffffffffffffffffffffffffffffffffffff1916149050919050565b600063150b7a0260e01b9050949350505050565b606060008251905060008114156105a457600067ffffffffffffffff81111561056257610561613988565b5b60405190808252806020026020018201604052801561059b57816020015b610588613687565b8152602001906001900390816105805790505b509150506107f0565b60008167ffffffffffffffff8111156105c0576105bf613988565b5b6040519080825280602002602001820160405280156105f957816020015b6105e6613687565b8152602001906001900390816105de5790505b50905060008060009050600091505b85518212156107e857600082126107d457600560009054906101000a900473ffffffffffffffffffffffffffffffffffffffff1673ffffffffffffffffffffffffffffffffffffffff16634f558e7987848151811061066a57610669614f64565b5b60200260200101516040518263ffffffff1660e01b815260040161068e9190614b95565b602060405180830381865afa1580156106ab573d6000803e3d6000fd5b505050506040513d601f19601f820116820180604052508101906106cf9190614fa8565b6106d8576107d5565b6000600560009054906101000a900473ffffffffffffffffffffffffffffffffffffffff1673ffffffffffffffffffffffffffffffffffffffff1663dabb053188858151811061072b5761072a614f64565b5b60200260200101516040518263ffffffff1660e01b815260040161074f9190614b95565b600060405180830381865afa15801561076c573d6000803e3d6000fd5b505050506040513d6000823e3d601f19601f820116820180604052508101906107959190615365565b905060006107a282612492565b9050808584815181106107b8576107b7614f64565b5b602002602001018190525082806107ce906153dd565b93505050505b5b81806107e090615426565b925050610608565b829450505050505b919050565b6107fe826131c9565b61080f8161080a6131e8565b6131f0565b610819838361328a565b505050565b610827826131c9565b610838816108336131e8565b6131f0565b610842838361336b565b505050565b61084f6131e8565b73ffffffffffffffffffffffffffffffffffffffff168173ffffffffffffffffffffffffffffffffffffffff16146108bc576040517f08c379a00000000000000000000000000000000000000000000000000000000081526004016108b3906154f2565b60405180910390fd5b6108c6828261328a565b5050565b60606000600660009054906101000a900473ffffffffffffffffffffffffffffffffffffffff1673ffffffffffffffffffffffffffffffffffffffff1663c4e41b226040518163ffffffff1660e01b8152600401602060405180830381865afa15801561093b573d6000803e3d6000fd5b505050506040513d601f19601f8201168201806040525081019061095f9190615512565b90506000808214156109be57600067ffffffffffffffff81111561098657610985613988565b5b6040519080825280602002602001820160405280156109b45781602001602082028036833780820191505090505b5092505050610fe0565b6000600190505b82811015610c1857600660009054906101000a900473ffffffffffffffffffffffffffffffffffffffff1673ffffffffffffffffffffffffffffffffffffffff16634f558e79826040518263ffffffff1660e01b8152600401610a289190614b95565b602060405180830381865afa158015610a45573d6000803e3d6000fd5b505050506040513d601f19601f82011682018060405250810190610a699190614fa8565b610a7257610c05565b8573ffffffffffffffffffffffffffffffffffffffff16600660009054906101000a900473ffffffffffffffffffffffffffffffffffffffff1673ffffffffffffffffffffffffffffffffffffffff16636352211e836040518263ffffffff1660e01b8152600401610ae49190614b95565b602060405180830381865afa158015610b01573d6000803e3d6000fd5b505050506040513d601f19601f82011682018060405250810190610b25919061553f565b73ffffffffffffffffffffffffffffffffffffffff161415610c04576000600660009054906101000a900473ffffffffffffffffffffffffffffffffffffffff1673ffffffffffffffffffffffffffffffffffffffff166394f13f4a836040518263ffffffff1660e01b8152600401610b9e9190614b95565b600060405180830381865afa158015610bbb573d6000803e3d6000fd5b505050506040513d6000823e3d601f19601f82011682018060405250810190610be491906156c0565b9050858161012001511415610c02578280610bfe906153dd565b9350505b505b5b8080610c10906153dd565b9150506109c5565b506000811115610f915760008167ffffffffffffffff811115610c3e57610c3d613988565b5b604051908082528060200260200182016040528015610c6c5781602001602082028036833780820191505090505b5090506000600660009054906101000a900473ffffffffffffffffffffffffffffffffffffffff1673ffffffffffffffffffffffffffffffffffffffff1663c4e41b226040518163ffffffff1660e01b8152600401602060405180830381865afa158015610cde573d6000803e3d6000fd5b505050506040513d601f19601f82011682018060405250810190610d029190615512565b905060008060009050600191505b82821015610f8357600660009054906101000a900473ffffffffffffffffffffffffffffffffffffffff1673ffffffffffffffffffffffffffffffffffffffff16634f558e79836040518263ffffffff1660e01b8152600401610d739190614b95565b602060405180830381865afa158015610d90573d6000803e3d6000fd5b505050506040513d601f19601f82011682018060405250810190610db49190614fa8565b610dbd57610f70565b8873ffffffffffffffffffffffffffffffffffffffff16600660009054906101000a900473ffffffffffffffffffffffffffffffffffffffff1673ffffffffffffffffffffffffffffffffffffffff16636352211e846040518263ffffffff1660e01b8152600401610e2f9190614b95565b602060405180830381865afa158015610e4c573d6000803e3d6000fd5b505050506040513d601f19601f82011682018060405250810190610e70919061553f565b73ffffffffffffffffffffffffffffffffffffffff161415610f6f576000600660009054906101000a900473ffffffffffffffffffffffffffffffffffffffff1673ffffffffffffffffffffffffffffffffffffffff166394f13f4a846040518263ffffffff1660e01b8152600401610ee99190614b95565b600060405180830381865afa158015610f06573d6000803e3d6000fd5b505050506040513d6000823e3d601f19601f82011682018060405250810190610f2f91906156c0565b9050888161012001511415610f6d5782858381518110610f5257610f51614f64565b5b6020026020010181815250508180610f69906153dd565b9250505b505b5b8180610f7b906153dd565b925050610d10565b839650505050505050610fe0565b600067ffffffffffffffff811115610fac57610fab613988565b5b604051908082528060200260200182016040528015610fda5781602001602082028036833780820191505090505b50925050505b92915050565b60606000600560009054906101000a900473ffffffffffffffffffffffffffffffffffffffff1673ffffffffffffffffffffffffffffffffffffffff1663c4e41b226040518163ffffffff1660e01b8152600401602060405180830381865afa158015611057573d6000803e3d6000fd5b505050506040513d601f19601f8201168201806040525081019061107b9190615512565b90506000808214156110da57600067ffffffffffffffff8111156110a2576110a1613988565b5b6040519080825280602002602001820160405280156110d05781602001602082028036833780820191505090505b50925050506116fa565b6000600190505b8281101561133357600560009054906101000a900473ffffffffffffffffffffffffffffffffffffffff1673ffffffffffffffffffffffffffffffffffffffff16634f558e79826040518263ffffffff1660e01b81526004016111449190614b95565b602060405180830381865afa158015611161573d6000803e3d6000fd5b505050506040513d601f19601f820116820180604052508101906111859190614fa8565b61118e57611320565b8573ffffffffffffffffffffffffffffffffffffffff16600560009054906101000a900473ffffffffffffffffffffffffffffffffffffffff1673ffffffffffffffffffffffffffffffffffffffff16636352211e836040518263ffffffff1660e01b81526004016112009190614b95565b602060405180830381865afa15801561121d573d6000803e3d6000fd5b505050506040513d601f19601f82011682018060405250810190611241919061553f565b73ffffffffffffffffffffffffffffffffffffffff16141561131f576000600560009054906101000a900473ffffffffffffffffffffffffffffffffffffffff1673ffffffffffffffffffffffffffffffffffffffff1663dabb0531836040518263ffffffff1660e01b81526004016112ba9190614b95565b600060405180830381865afa1580156112d7573d6000803e3d6000fd5b505050506040513d6000823e3d601f19601f820116820180604052508101906113009190615365565b9050858160400151141561131d578280611319906153dd565b9350505b505b5b808061132b906153dd565b9150506110e1565b5060008111156116ab5760008167ffffffffffffffff81111561135957611358613988565b5b6040519080825280602002602001820160405280156113875781602001602082028036833780820191505090505b5090506000600560009054906101000a900473ffffffffffffffffffffffffffffffffffffffff1673ffffffffffffffffffffffffffffffffffffffff1663c4e41b226040518163ffffffff1660e01b8152600401602060405180830381865afa1580156113f9573d6000803e3d6000fd5b505050506040513d601f19601f8201168201806040525081019061141d9190615512565b905060008060009050600191505b8282101561169d57600560009054906101000a900473ffffffffffffffffffffffffffffffffffffffff1673ffffffffffffffffffffffffffffffffffffffff16634f558e79836040518263ffffffff1660e01b815260040161148e9190614b95565b602060405180830381865afa1580156114ab573d6000803e3d6000fd5b505050506040513d601f19601f820116820180604052508101906114cf9190614fa8565b6114d85761168a565b8873ffffffffffffffffffffffffffffffffffffffff16600560009054906101000a900473ffffffffffffffffffffffffffffffffffffffff1673ffffffffffffffffffffffffffffffffffffffff16636352211e846040518263ffffffff1660e01b815260040161154a9190614b95565b602060405180830381865afa158015611567573d6000803e3d6000fd5b505050506040513d601f19601f8201168201806040525081019061158b919061553f565b73ffffffffffffffffffffffffffffffffffffffff161415611689576000600560009054906101000a900473ffffffffffffffffffffffffffffffffffffffff1673ffffffffffffffffffffffffffffffffffffffff1663dabb0531846040518263ffffffff1660e01b81526004016116049190614b95565b600060405180830381865afa158015611621573d6000803e3d6000fd5b505050506040513d6000823e3d601f19601f8201168201806040525081019061164a9190615365565b90508881604001511415611687578285838151811061166c5761166b614f64565b5b6020026020010181815250508180611683906153dd565b9250505b505b5b8180611695906153dd565b92505061142b565b8396505050505050506116fa565b600067ffffffffffffffff8111156116c6576116c5613988565b5b6040519080825280602002602001820160405280156116f45781602001602082028036833780820191505090505b50925050505b92915050565b6060600082519050600081141561176e57600067ffffffffffffffff81111561172c5761172b613988565b5b60405190808252806020026020018201604052801561176557816020015b61175261378a565b81526020019060019003908161174a5790505b509150506119b7565b60008167ffffffffffffffff81111561178a57611789613988565b5b6040519080825280602002602001820160405280156117c357816020015b6117b061378a565b8152602001906001900390816117a85790505b509050600080600090508791505b8682126119af576000821261199b57600660009054906101000a900473ffffffffffffffffffffffffffffffffffffffff1673ffffffffffffffffffffffffffffffffffffffff16634f558e7987848151811061183157611830614f64565b5b60200260200101516040518263ffffffff1660e01b81526004016118559190614b95565b602060405180830381865afa158015611872573d6000803e3d6000fd5b505050506040513d601f19601f820116820180604052508101906118969190614fa8565b61189f5761199c565b6000600660009054906101000a900473ffffffffffffffffffffffffffffffffffffffff1673ffffffffffffffffffffffffffffffffffffffff166394f13f4a8885815181106118f2576118f1614f64565b5b60200260200101516040518263ffffffff1660e01b81526004016119169190614b95565b600060405180830381865afa158015611933573d6000803e3d6000fd5b505050506040513d6000823e3d601f19601f8201168201806040525081019061195c91906156c0565b90506000611969826130a1565b90508085848151811061197f5761197e614f64565b5b60200260200101819052508280611995906153dd565b93505050505b5b81806119a790615709565b9250506117d1565b829450505050505b9392505050565b60606000600560009054906101000a900473ffffffffffffffffffffffffffffffffffffffff1673ffffffffffffffffffffffffffffffffffffffff1663c4e41b226040518163ffffffff1660e01b8152600401602060405180830381865afa158015611a2f573d6000803e3d6000fd5b505050506040513d601f19601f82011682018060405250810190611a539190615512565b9050600080821415611ab257600067ffffffffffffffff811115611a7a57611a79613988565b5b604051908082528060200260200182016040528015611aa85781602001602082028036833780820191505090505b50925050506120d4565b6000600190505b82811015611d0c57600560009054906101000a900473ffffffffffffffffffffffffffffffffffffffff1673ffffffffffffffffffffffffffffffffffffffff16634f558e79826040518263ffffffff1660e01b8152600401611b1c9190614b95565b602060405180830381865afa158015611b39573d6000803e3d6000fd5b505050506040513d601f19601f82011682018060405250810190611b5d9190614fa8565b611b6657611cf9565b8573ffffffffffffffffffffffffffffffffffffffff16600560009054906101000a900473ffffffffffffffffffffffffffffffffffffffff1673ffffffffffffffffffffffffffffffffffffffff16636352211e836040518263ffffffff1660e01b8152600401611bd89190614b95565b602060405180830381865afa158015611bf5573d6000803e3d6000fd5b505050506040513d601f19601f82011682018060405250810190611c19919061553f565b73ffffffffffffffffffffffffffffffffffffffff161415611cf8576000600560009054906101000a900473ffffffffffffffffffffffffffffffffffffffff1673ffffffffffffffffffffffffffffffffffffffff1663dabb0531836040518263ffffffff1660e01b8152600401611c929190614b95565b600060405180830381865afa158015611caf573d6000803e3d6000fd5b505050506040513d6000823e3d601f19601f82011682018060405250810190611cd89190615365565b9050858161036001511415611cf6578280611cf2906153dd565b9350505b505b5b8080611d04906153dd565b915050611ab9565b5060008111156120855760008167ffffffffffffffff811115611d3257611d31613988565b5b604051908082528060200260200182016040528015611d605781602001602082028036833780820191505090505b5090506000600560009054906101000a900473ffffffffffffffffffffffffffffffffffffffff1673ffffffffffffffffffffffffffffffffffffffff1663c4e41b226040518163ffffffff1660e01b8152600401602060405180830381865afa158015611dd2573d6000803e3d6000fd5b505050506040513d601f19601f82011682018060405250810190611df69190615512565b905060008060009050600191505b8282101561207757600560009054906101000a900473ffffffffffffffffffffffffffffffffffffffff1673ffffffffffffffffffffffffffffffffffffffff16634f558e79836040518263ffffffff1660e01b8152600401611e679190614b95565b602060405180830381865afa158015611e84573d6000803e3d6000fd5b505050506040513d601f19601f82011682018060405250810190611ea89190614fa8565b611eb157612064565b8873ffffffffffffffffffffffffffffffffffffffff16600560009054906101000a900473ffffffffffffffffffffffffffffffffffffffff1673ffffffffffffffffffffffffffffffffffffffff16636352211e846040518263ffffffff1660e01b8152600401611f239190614b95565b602060405180830381865afa158015611f40573d6000803e3d6000fd5b505050506040513d601f19601f82011682018060405250810190611f64919061553f565b73ffffffffffffffffffffffffffffffffffffffff161415612063576000600560009054906101000a900473ffffffffffffffffffffffffffffffffffffffff1673ffffffffffffffffffffffffffffffffffffffff1663dabb0531846040518263ffffffff1660e01b8152600401611fdd9190614b95565b600060405180830381865afa158015611ffa573d6000803e3d6000fd5b505050506040513d6000823e3d601f19601f820116820180604052508101906120239190615365565b9050888161036001511415612061578285838151811061204657612045614f64565b5b602002602001018181525050818061205d906153dd565b9250505b505b5b818061206f906153dd565b925050611e04565b8396505050505050506120d4565b600067ffffffffffffffff8111156120a05761209f613988565b5b6040519080825280602002602001820160405280156120ce5781602001602082028036833780820191505090505b50925050505b92915050565b60606000600560009054906101000a900473ffffffffffffffffffffffffffffffffffffffff1673ffffffffffffffffffffffffffffffffffffffff166370a08231846040518263ffffffff1660e01b81526004016121399190615761565b602060405180830381865afa158015612156573d6000803e3d6000fd5b505050506040513d601f19601f8201168201806040525081019061217a9190615512565b905060008114156121d757600067ffffffffffffffff8111156121a05761219f613988565b5b6040519080825280602002602001820160405280156121ce5781602001602082028036833780820191505090505b5091505061248d565b60008167ffffffffffffffff8111156121f3576121f2613988565b5b6040519080825280602002602001820160405280156122215781602001602082028036833780820191505090505b5090506000600560009054906101000a900473ffffffffffffffffffffffffffffffffffffffff1673ffffffffffffffffffffffffffffffffffffffff1663c4e41b226040518163ffffffff1660e01b8152600401602060405180830381865afa158015612293573d6000803e3d6000fd5b505050506040513d601f19601f820116820180604052508101906122b79190615512565b905060008060009050600191505b8282101561248457600560009054906101000a900473ffffffffffffffffffffffffffffffffffffffff1673ffffffffffffffffffffffffffffffffffffffff16634f558e79836040518263ffffffff1660e01b81526004016123289190614b95565b602060405180830381865afa158015612345573d6000803e3d6000fd5b505050506040513d601f19601f820116820180604052508101906123699190614fa8565b61237257612471565b8673ffffffffffffffffffffffffffffffffffffffff16600560009054906101000a900473ffffffffffffffffffffffffffffffffffffffff1673ffffffffffffffffffffffffffffffffffffffff16636352211e846040518263ffffffff1660e01b81526004016123e49190614b95565b602060405180830381865afa158015612401573d6000803e3d6000fd5b505050506040513d601f19601f82011682018060405250810190612425919061553f565b73ffffffffffffffffffffffffffffffffffffffff161415612470578184828151811061245557612454614f64565b5b602002602001018181525050808061246c906153dd565b9150505b5b818061247c906153dd565b9250506122c5565b83955050505050505b919050565b61249a613687565b600060405180610400016040528084600001518152602001846020015181526020018460400151815260200184606001518152602001846080015181526020018460a0015181526020018460c0015181526020018460e00151815260200184610100015181526020018461012001518152602001846101400151815260200184610160015181526020018461018001518152602001846101a001518152602001846101c001518152602001846101e00151815260200184610200015181526020018461022001518152602001846102400151815260200184610260015181526020018461028001518152602001846102a001518152602001846102c001518152602001846102e00151815260200184610300015181526020018461032001518152602001846103400151815260200184610360015181526020018461038001518152602001846103a001518152602001846103c0015173ffffffffffffffffffffffffffffffffffffffff168152602001846103e00151815250905080915050919050565b6060600082519050600081141561268d57600067ffffffffffffffff81111561264b5761264a613988565b5b60405190808252806020026020018201604052801561268457816020015b61267161378a565b8152602001906001900390816126695790505b509150506128d9565b60008167ffffffffffffffff8111156126a9576126a8613988565b5b6040519080825280602002602001820160405280156126e257816020015b6126cf61378a565b8152602001906001900390816126c75790505b50905060008060009050600091505b85518212156128d157600082126128bd57600660009054906101000a900473ffffffffffffffffffffffffffffffffffffffff1673ffffffffffffffffffffffffffffffffffffffff16634f558e7987848151811061275357612752614f64565b5b60200260200101516040518263ffffffff1660e01b81526004016127779190614b95565b602060405180830381865afa158015612794573d6000803e3d6000fd5b505050506040513d601f19601f820116820180604052508101906127b89190614fa8565b6127c1576128be565b6000600660009054906101000a900473ffffffffffffffffffffffffffffffffffffffff1673ffffffffffffffffffffffffffffffffffffffff166394f13f4a88858151811061281457612813614f64565b5b60200260200101516040518263ffffffff1660e01b81526004016128389190614b95565b600060405180830381865afa158015612855573d6000803e3d6000fd5b505050506040513d6000823e3d601f19601f8201168201806040525081019061287e91906156c0565b9050600061288b826130a1565b9050808584815181106128a1576128a0614f64565b5b602002602001018190525082806128b7906153dd565b93505050505b5b81806128c990615426565b9250506126f1565b829450505050505b919050565b601f81565b601e6128f6816128f16131e8565b6131f0565b81600160006101000a81548173ffffffffffffffffffffffffffffffffffffffff021916908373ffffffffffffffffffffffffffffffffffffffff1602179055505050565b601e81565b60606000600660009054906101000a900473ffffffffffffffffffffffffffffffffffffffff1673ffffffffffffffffffffffffffffffffffffffff166370a08231846040518263ffffffff1660e01b815260040161299f9190615761565b602060405180830381865afa1580156129bc573d6000803e3d6000fd5b505050506040513d601f19601f820116820180604052508101906129e09190615512565b90506000811415612a3d57600067ffffffffffffffff811115612a0657612a05613988565b5b604051908082528060200260200182016040528015612a345781602001602082028036833780820191505090505b50915050612cf3565b60008167ffffffffffffffff811115612a5957612a58613988565b5b604051908082528060200260200182016040528015612a875781602001602082028036833780820191505090505b5090506000600660009054906101000a900473ffffffffffffffffffffffffffffffffffffffff1673ffffffffffffffffffffffffffffffffffffffff1663c4e41b226040518163ffffffff1660e01b8152600401602060405180830381865afa158015612af9573d6000803e3d6000fd5b505050506040513d601f19601f82011682018060405250810190612b1d9190615512565b905060008060009050600191505b82821015612cea57600660009054906101000a900473ffffffffffffffffffffffffffffffffffffffff1673ffffffffffffffffffffffffffffffffffffffff16634f558e79836040518263ffffffff1660e01b8152600401612b8e9190614b95565b602060405180830381865afa158015612bab573d6000803e3d6000fd5b505050506040513d601f19601f82011682018060405250810190612bcf9190614fa8565b612bd857612cd7565b8673ffffffffffffffffffffffffffffffffffffffff16600660009054906101000a900473ffffffffffffffffffffffffffffffffffffffff1673ffffffffffffffffffffffffffffffffffffffff16636352211e846040518263ffffffff1660e01b8152600401612c4a9190614b95565b602060405180830381865afa158015612c67573d6000803e3d6000fd5b505050506040513d601f19601f82011682018060405250810190612c8b919061553f565b73ffffffffffffffffffffffffffffffffffffffff161415612cd65781848281518110612cbb57612cba614f64565b5b6020026020010181815250508080612cd2906153dd565b9150505b5b8180612ce2906153dd565b925050612b2b565b83955050505050505b919050565b60606000835190506000811415612d6657600067ffffffffffffffff811115612d2457612d23613988565b5b604051908082528060200260200182016040528015612d5d57816020015b612d4a613687565b815260200190600190039081612d425790505b50915050613099565b60008167ffffffffffffffff811115612d8257612d81613988565b5b604051908082528060200260200182016040528015612dbb57816020015b612da8613687565b815260200190600190039081612da05790505b509050600080600090508891505b878212613091576000821261307d57600560009054906101000a900473ffffffffffffffffffffffffffffffffffffffff1673ffffffffffffffffffffffffffffffffffffffff16634f558e79888481518110612e2957612e28614f64565b5b60200260200101516040518263ffffffff1660e01b8152600401612e4d9190614b95565b602060405180830381865afa158015612e6a573d6000803e3d6000fd5b505050506040513d601f19601f82011682018060405250810190612e8e9190614fa8565b612e975761307e565b8573ffffffffffffffffffffffffffffffffffffffff16600560009054906101000a900473ffffffffffffffffffffffffffffffffffffffff1673ffffffffffffffffffffffffffffffffffffffff16636352211e898581518110612eff57612efe614f64565b5b60200260200101516040518263ffffffff1660e01b8152600401612f239190614b95565b602060405180830381865afa158015612f40573d6000803e3d6000fd5b505050506040513d601f19601f82011682018060405250810190612f64919061553f565b73ffffffffffffffffffffffffffffffffffffffff16141561307c576000600560009054906101000a900473ffffffffffffffffffffffffffffffffffffffff1673ffffffffffffffffffffffffffffffffffffffff1663dabb0531898581518110612fd357612fd2614f64565b5b60200260200101516040518263ffffffff1660e01b8152600401612ff79190614b95565b600060405180830381865afa158015613014573d6000803e3d6000fd5b505050506040513d6000823e3d601f19601f8201168201806040525081019061303d9190615365565b9050600061304a82612492565b9050808584815181106130605761305f614f64565b5b60200260200101819052508280613076906153dd565b93505050505b5b5b818061308990615709565b925050612dc9565b829450505050505b949350505050565b6130a961378a565b6000604051806101a0016040528084600001518152602001846020015181526020018460400151815260200184606001518152602001846080015181526020018460a0015181526020018460c0015181526020018460e00151815260200184610100015173ffffffffffffffffffffffffffffffffffffffff1681526020018461012001518152602001846101400151815260200184610160015115158152602001846101800151815250905080915050919050565b600080600084815260200190815260200160002060000160008373ffffffffffffffffffffffffffffffffffffffff1673ffffffffffffffffffffffffffffffffffffffff16815260200190815260200160002060009054906101000a900460ff16905092915050565b6000806000838152602001908152602001600020600101549050919050565b600033905090565b6131fa828261315f565b6132865761321f8173ffffffffffffffffffffffffffffffffffffffff16601461344b565b61322a83602061344b565b60405160200161323b929190615850565b6040516020818303038152906040526040517f08c379a000000000000000000000000000000000000000000000000000000000815260040161327d91906158c3565b60405180910390fd5b5050565b613294828261315f565b1561336757600080600084815260200190815260200160002060000160008373ffffffffffffffffffffffffffffffffffffffff1673ffffffffffffffffffffffffffffffffffffffff16815260200190815260200160002060006101000a81548160ff02191690831515021790555061330c6131e8565b73ffffffffffffffffffffffffffffffffffffffff168173ffffffffffffffffffffffffffffffffffffffff16837fe0df21b65c73c27081b8f042a012b124085b41d78d27b7e3c4780f5650f5ebb860405160405180910390a45b5050565b613375828261315f565b61344757600160008084815260200190815260200160002060000160008373ffffffffffffffffffffffffffffffffffffffff1673ffffffffffffffffffffffffffffffffffffffff16815260200190815260200160002060006101000a81548160ff0219169083151502179055506133ec6131e8565b73ffffffffffffffffffffffffffffffffffffffff168173ffffffffffffffffffffffffffffffffffffffff16837f1ec1667fba5e43c5c76fff54e76d7a4a20a4fecf7b49724ad8d52a3f726e9dbd60405160405180910390a45b5050565b60606000600283600261345e91906158e5565b613468919061593f565b67ffffffffffffffff81111561348157613480613988565b5b6040519080825280601f01601f1916602001820160405280156134b35781602001600182028036833780820191505090505b5090507f3000000000000000000000000000000000000000000000000000000000000000816000815181106134eb576134ea614f64565b5b60200101907effffffffffffffffffffffffffffffffffffffffffffffffffffffffffffff1916908160001a9053507f78000000000000000000000000000000000000000000000000000000000000008160018151811061354f5761354e614f64565b5b60200101907effffffffffffffffffffffffffffffffffffffffffffffffffffffffffffff1916908160001a9053506000600184600261358f91906158e5565b613599919061593f565b90505b6001811115613639577f3031323334353637383961626364656600000000000000000000000000000000600f8616601081106135db576135da614f64565b5b1a60f81b8282815181106135f2576135f1614f64565b5b60200101907effffffffffffffffffffffffffffffffffffffffffffffffffffffffffffff1916908160001a905350600485901c94508061363290615995565b905061359c565b506000841461367d576040517f08c379a000000000000000000000000000000000000000000000000000000000815260040161367490615a0b565b60405180910390fd5b8091505092915050565b604051806104000160405280606081526020016000815260200160008152602001600081526020016000815260200160008152602001600081526020016000815260200160008152602001600081526020016000815260200160008152602001600081526020016000815260200160008152602001600081526020016000815260200160008152602001600081526020016000815260200160008152602001600081526020016000815260200160008152602001600081526020016000815260200160008152602001600081526020016000815260200160008152602001600073ffffffffffffffffffffffffffffffffffffffff168152602001600081525090565b604051806101a001604052806060815260200160008152602001600081526020016000815260200160008152602001600081526020016000815260200160008152602001600073ffffffffffffffffffffffffffffffffffffffff1681526020016000815260200160008152602001600015158152602001600081525090565b6000604051905090565b600080fd5b600080fd5b60007fffffffff0000000000000000000000000000000000000000000000000000000082169050919050565b6138538161381e565b811461385e57600080fd5b50565b6000813590506138708161384a565b92915050565b60006020828403121561388c5761388b613814565b5b600061389a84828501613861565b91505092915050565b60008115159050919050565b6138b8816138a3565b82525050565b60006020820190506138d360008301846138af565b92915050565b600073ffffffffffffffffffffffffffffffffffffffff82169050919050565b6000613904826138d9565b9050919050565b613914816138f9565b811461391f57600080fd5b50565b6000813590506139318161390b565b92915050565b6000819050919050565b61394a81613937565b811461395557600080fd5b50565b60008135905061396781613941565b92915050565b600080fd5b600080fd5b6000601f19601f8301169050919050565b7f4e487b7100000000000000000000000000000000000000000000000000000000600052604160045260246000fd5b6139c082613977565b810181811067ffffffffffffffff821117156139df576139de613988565b5b80604052505050565b60006139f261380a565b90506139fe82826139b7565b919050565b600067ffffffffffffffff821115613a1e57613a1d613988565b5b613a2782613977565b9050602081019050919050565b82818337600083830152505050565b6000613a56613a5184613a03565b6139e8565b905082815260208101848484011115613a7257613a71613972565b5b613a7d848285613a34565b509392505050565b600082601f830112613a9a57613a9961396d565b5b8135613aaa848260208601613a43565b91505092915050565b60008060008060808587031215613acd57613acc613814565b5b6000613adb87828801613922565b9450506020613aec87828801613922565b9350506040613afd87828801613958565b925050606085013567ffffffffffffffff811115613b1e57613b1d613819565b5b613b2a87828801613a85565b91505092959194509250565b613b3f8161381e565b82525050565b6000602082019050613b5a6000830184613b36565b92915050565b600067ffffffffffffffff821115613b7b57613b7a613988565b5b602082029050602081019050919050565b600080fd5b6000819050919050565b613ba481613b91565b8114613baf57600080fd5b50565b600081359050613bc181613b9b565b92915050565b6000613bda613bd584613b60565b6139e8565b90508083825260208201905060208402830185811115613bfd57613bfc613b8c565b5b835b81811015613c265780613c128882613bb2565b845260208401935050602081019050613bff565b5050509392505050565b600082601f830112613c4557613c4461396d565b5b8135613c55848260208601613bc7565b91505092915050565b600060208284031215613c7457613c73613814565b5b600082013567ffffffffffffffff811115613c9257613c91613819565b5b613c9e84828501613c30565b91505092915050565b600081519050919050565b600082825260208201905092915050565b6000819050602082019050919050565b600081519050919050565b600082825260208201905092915050565b60005b83811015613d0d578082015181840152602081019050613cf2565b83811115613d1c576000848401525b50505050565b6000613d2d82613cd3565b613d378185613cde565b9350613d47818560208601613cef565b613d5081613977565b840191505092915050565b613d6481613937565b82525050565b613d73816138f9565b82525050565b6000610400830160008301518482036000860152613d978282613d22565b9150506020830151613dac6020860182613d5b565b506040830151613dbf6040860182613d5b565b506060830151613dd26060860182613d5b565b506080830151613de56080860182613d5b565b5060a0830151613df860a0860182613d5b565b5060c0830151613e0b60c0860182613d5b565b5060e0830151613e1e60e0860182613d5b565b50610100830151613e33610100860182613d5b565b50610120830151613e48610120860182613d5b565b50610140830151613e5d610140860182613d5b565b50610160830151613e72610160860182613d5b565b50610180830151613e87610180860182613d5b565b506101a0830151613e9c6101a0860182613d5b565b506101c0830151613eb16101c0860182613d5b565b506101e0830151613ec66101e0860182613d5b565b50610200830151613edb610200860182613d5b565b50610220830151613ef0610220860182613d5b565b50610240830151613f05610240860182613d5b565b50610260830151613f1a610260860182613d5b565b50610280830151613f2f610280860182613d5b565b506102a0830151613f446102a0860182613d5b565b506102c0830151613f596102c0860182613d5b565b506102e0830151613f6e6102e0860182613d5b565b50610300830151613f83610300860182613d5b565b50610320830151613f98610320860182613d5b565b50610340830151613fad610340860182613d5b565b50610360830151613fc2610360860182613d5b565b50610380830151613fd7610380860182613d5b565b506103a0830151613fec6103a0860182613d5b565b506103c08301516140016103c0860182613d6a565b506103e08301516140166103e0860182613d5b565b508091505092915050565b600061402d8383613d79565b905092915050565b6000602082019050919050565b600061404d82613ca7565b6140578185613cb2565b93508360208202850161406985613cc3565b8060005b858110156140a557848403895281516140868582614021565b945061409183614035565b925060208a0199505060018101905061406d565b50829750879550505050505092915050565b600060208201905081810360008301526140d18184614042565b905092915050565b600080604083850312156140f0576140ef613814565b5b60006140fe85828601613958565b925050602061410f85828601613922565b9150509250929050565b600080604083850312156141305761412f613814565b5b600061413e85828601613922565b925050602061414f85828601613958565b9150509250929050565b600081519050919050565b600082825260208201905092915050565b6000819050602082019050919050565b60006141918383613d5b565b60208301905092915050565b6000602082019050919050565b60006141b582614159565b6141bf8185614164565b93506141ca83614175565b8060005b838110156141fb5781516141e28882614185565b97506141ed8361419d565b9250506001810190506141ce565b5085935050505092915050565b6000602082019050818103600083015261422281846141aa565b905092915050565b60008060006060848603121561424357614242613814565b5b600061425186828701613bb2565b935050602061426286828701613bb2565b925050604084013567ffffffffffffffff81111561428357614282613819565b5b61428f86828701613c30565b9150509250925092565b600081519050919050565b600082825260208201905092915050565b6000819050602082019050919050565b6142ce816138a3565b82525050565b60006101a08301600083015184820360008601526142f28282613d22565b91505060208301516143076020860182613d5b565b50604083015161431a6040860182613d5b565b50606083015161432d6060860182613d5b565b5060808301516143406080860182613d5b565b5060a083015161435360a0860182613d5b565b5060c083015161436660c0860182613d5b565b5060e083015161437960e0860182613d5b565b5061010083015161438e610100860182613d6a565b506101208301516143a3610120860182613d5b565b506101408301516143b8610140860182613d5b565b506101608301516143cd6101608601826142c5565b506101808301516143e2610180860182613d5b565b508091505092915050565b60006143f983836142d4565b905092915050565b6000602082019050919050565b600061441982614299565b61442381856142a4565b935083602082028501614435856142b5565b8060005b85811015614471578484038952815161445285826143ed565b945061445d83614401565b925060208a01995050600181019050614439565b50829750879550505050505092915050565b6000602082019050818103600083015261449d818461440e565b905092915050565b6000602082840312156144bb576144ba613814565b5b60006144c984828501613922565b91505092915050565b600080fd5b600080fd5b600067ffffffffffffffff8211156144f7576144f6613988565b5b61450082613977565b9050602081019050919050565b600061452061451b846144dc565b6139e8565b90508281526020810184848401111561453c5761453b613972565b5b614547848285613a34565b509392505050565b600082601f8301126145645761456361396d565b5b813561457484826020860161450d565b91505092915050565b60006104008284031215614594576145936144d2565b5b61459f6104006139e8565b9050600082013567ffffffffffffffff8111156145bf576145be6144d7565b5b6145cb8482850161454f565b60008301525060206145df84828501613958565b60208301525060406145f384828501613958565b604083015250606061460784828501613958565b606083015250608061461b84828501613958565b60808301525060a061462f84828501613958565b60a08301525060c061464384828501613958565b60c08301525060e061465784828501613958565b60e08301525061010061466c84828501613958565b6101008301525061012061468284828501613958565b6101208301525061014061469884828501613958565b610140830152506101606146ae84828501613958565b610160830152506101806146c484828501613958565b610180830152506101a06146da84828501613958565b6101a0830152506101c06146f084828501613958565b6101c0830152506101e061470684828501613958565b6101e08301525061020061471c84828501613958565b6102008301525061022061473284828501613958565b6102208301525061024061474884828501613958565b6102408301525061026061475e84828501613958565b6102608301525061028061477484828501613958565b610280830152506102a061478a84828501613958565b6102a0830152506102c06147a084828501613958565b6102c0830152506102e06147b684828501613958565b6102e0830152506103006147cc84828501613958565b610300830152506103206147e284828501613958565b610320830152506103406147f884828501613958565b6103408301525061036061480e84828501613958565b6103608301525061038061482484828501613958565b610380830152506103a061483a84828501613958565b6103a0830152506103c061485084828501613922565b6103c0830152506103e061486684828501613958565b6103e08301525092915050565b60006020828403121561488957614888613814565b5b600082013567ffffffffffffffff8111156148a7576148a6613819565b5b6148b38482850161457d565b91505092915050565b60006104008301600083015184820360008601526148da8282613d22565b91505060208301516148ef6020860182613d5b565b5060408301516149026040860182613d5b565b5060608301516149156060860182613d5b565b5060808301516149286080860182613d5b565b5060a083015161493b60a0860182613d5b565b5060c083015161494e60c0860182613d5b565b5060e083015161496160e0860182613d5b565b50610100830151614976610100860182613d5b565b5061012083015161498b610120860182613d5b565b506101408301516149a0610140860182613d5b565b506101608301516149b5610160860182613d5b565b506101808301516149ca610180860182613d5b565b506101a08301516149df6101a0860182613d5b565b506101c08301516149f46101c0860182613d5b565b506101e0830151614a096101e0860182613d5b565b50610200830151614a1e610200860182613d5b565b50610220830151614a33610220860182613d5b565b50610240830151614a48610240860182613d5b565b50610260830151614a5d610260860182613d5b565b50610280830151614a72610280860182613d5b565b506102a0830151614a876102a0860182613d5b565b506102c0830151614a9c6102c0860182613d5b565b506102e0830151614ab16102e0860182613d5b565b50610300830151614ac6610300860182613d5b565b50610320830151614adb610320860182613d5b565b50610340830151614af0610340860182613d5b565b50610360830151614b05610360860182613d5b565b50610380830151614b1a610380860182613d5b565b506103a0830151614b2f6103a0860182613d5b565b506103c0830151614b446103c0860182613d6a565b506103e0830151614b596103e0860182613d5b565b508091505092915050565b60006020820190508181036000830152614b7e81846148bc565b905092915050565b614b8f81613937565b82525050565b6000602082019050614baa6000830184614b86565b92915050565b60008060008060808587031215614bca57614bc9613814565b5b6000614bd887828801613bb2565b9450506020614be987828801613bb2565b935050604085013567ffffffffffffffff811115614c0a57614c09613819565b5b614c1687828801613c30565b9250506060614c2787828801613922565b91505092959194509250565b614c3c816138a3565b8114614c4757600080fd5b50565b600081359050614c5981614c33565b92915050565b60006101a08284031215614c7657614c756144d2565b5b614c816101a06139e8565b9050600082013567ffffffffffffffff811115614ca157614ca06144d7565b5b614cad8482850161454f565b6000830152506020614cc184828501613958565b6020830152506040614cd584828501613958565b6040830152506060614ce984828501613958565b6060830152506080614cfd84828501613958565b60808301525060a0614d1184828501613958565b60a08301525060c0614d2584828501613958565b60c08301525060e0614d3984828501613958565b60e083015250610100614d4e84828501613922565b61010083015250610120614d6484828501613958565b61012083015250610140614d7a84828501613958565b61014083015250610160614d9084828501614c4a565b61016083015250610180614da684828501613958565b6101808301525092915050565b600060208284031215614dc957614dc8613814565b5b600082013567ffffffffffffffff811115614de757614de6613819565b5b614df384828501614c5f565b91505092915050565b60006101a0830160008301518482036000860152614e1a8282613d22565b9150506020830151614e2f6020860182613d5b565b506040830151614e426040860182613d5b565b506060830151614e556060860182613d5b565b506080830151614e686080860182613d5b565b5060a0830151614e7b60a0860182613d5b565b5060c0830151614e8e60c0860182613d5b565b5060e0830151614ea160e0860182613d5b565b50610100830151614eb6610100860182613d6a565b50610120830151614ecb610120860182613d5b565b50610140830151614ee0610140860182613d5b565b50610160830151614ef56101608601826142c5565b50610180830151614f0a610180860182613d5b565b508091505092915050565b60006020820190508181036000830152614f2f8184614dfc565b905092915050565b600060208284031215614f4d57614f4c613814565b5b6000614f5b84828501613958565b91505092915050565b7f4e487b7100000000000000000000000000000000000000000000000000000000600052603260045260246000fd5b600081519050614fa281614c33565b92915050565b600060208284031215614fbe57614fbd613814565b5b6000614fcc84828501614f93565b91505092915050565b6000614fe8614fe3846144dc565b6139e8565b90508281526020810184848401111561500457615003613972565b5b61500f848285613cef565b509392505050565b600082601f83011261502c5761502b61396d565b5b815161503c848260208601614fd5565b91505092915050565b60008151905061505481613941565b92915050565b6000815190506150698161390b565b92915050565b60006104008284031215615086576150856144d2565b5b6150916104006139e8565b9050600082015167ffffffffffffffff8111156150b1576150b06144d7565b5b6150bd84828501615017565b60008301525060206150d184828501615045565b60208301525060406150e584828501615045565b60408301525060606150f984828501615045565b606083015250608061510d84828501615045565b60808301525060a061512184828501615045565b60a08301525060c061513584828501615045565b60c08301525060e061514984828501615045565b60e08301525061010061515e84828501615045565b6101008301525061012061517484828501615045565b6101208301525061014061518a84828501615045565b610140830152506101606151a084828501615045565b610160830152506101806151b684828501615045565b610180830152506101a06151cc84828501615045565b6101a0830152506101c06151e284828501615045565b6101c0830152506101e06151f884828501615045565b6101e08301525061020061520e84828501615045565b6102008301525061022061522484828501615045565b6102208301525061024061523a84828501615045565b6102408301525061026061525084828501615045565b6102608301525061028061526684828501615045565b610280830152506102a061527c84828501615045565b6102a0830152506102c061529284828501615045565b6102c0830152506102e06152a884828501615045565b6102e0830152506103006152be84828501615045565b610300830152506103206152d484828501615045565b610320830152506103406152ea84828501615045565b6103408301525061036061530084828501615045565b6103608301525061038061531684828501615045565b610380830152506103a061532c84828501615045565b6103a0830152506103c06153428482850161505a565b6103c0830152506103e061535884828501615045565b6103e08301525092915050565b60006020828403121561537b5761537a613814565b5b600082015167ffffffffffffffff81111561539957615398613819565b5b6153a58482850161506f565b91505092915050565b7f4e487b7100000000000000000000000000000000000000000000000000000000600052601160045260246000fd5b60006153e882613937565b91507fffffffffffffffffffffffffffffffffffffffffffffffffffffffffffffffff82141561541b5761541a6153ae565b5b600182019050919050565b600061543182613b91565b91507f7fffffffffffffffffffffffffffffffffffffffffffffffffffffffffffffff821415615464576154636153ae565b5b600182019050919050565b600082825260208201905092915050565b7f416363657373436f6e74726f6c3a2063616e206f6e6c792072656e6f756e636560008201527f20726f6c657320666f722073656c660000000000000000000000000000000000602082015250565b60006154dc602f8361546f565b91506154e782615480565b604082019050919050565b6000602082019050818103600083015261550b816154cf565b9050919050565b60006020828403121561552857615527613814565b5b600061553684828501615045565b91505092915050565b60006020828403121561555557615554613814565b5b60006155638482850161505a565b91505092915050565b60006101a08284031215615583576155826144d2565b5b61558e6101a06139e8565b9050600082015167ffffffffffffffff8111156155ae576155ad6144d7565b5b6155ba84828501615017565b60008301525060206155ce84828501615045565b60208301525060406155e284828501615045565b60408301525060606155f684828501615045565b606083015250608061560a84828501615045565b60808301525060a061561e84828501615045565b60a08301525060c061563284828501615045565b60c08301525060e061564684828501615045565b60e08301525061010061565b8482850161505a565b6101008301525061012061567184828501615045565b6101208301525061014061568784828501615045565b6101408301525061016061569d84828501614f93565b610160830152506101806156b384828501615045565b6101808301525092915050565b6000602082840312156156d6576156d5613814565b5b600082015167ffffffffffffffff8111156156f4576156f3613819565b5b6157008482850161556c565b91505092915050565b600061571482613b91565b91507f8000000000000000000000000000000000000000000000000000000000000000821415615747576157466153ae565b5b600182039050919050565b61575b816138f9565b82525050565b60006020820190506157766000830184615752565b92915050565b600081905092915050565b7f416363657373436f6e74726f6c3a206163636f756e7420000000000000000000600082015250565b60006157bd60178361577c565b91506157c882615787565b601782019050919050565b60006157de82613cd3565b6157e8818561577c565b93506157f8818560208601613cef565b80840191505092915050565b7f206973206d697373696e6720726f6c6520000000000000000000000000000000600082015250565b600061583a60118361577c565b915061584582615804565b601182019050919050565b600061585b826157b0565b915061586782856157d3565b91506158728261582d565b915061587e82846157d3565b91508190509392505050565b600061589582613cd3565b61589f818561546f565b93506158af818560208601613cef565b6158b881613977565b840191505092915050565b600060208201905081810360008301526158dd818461588a565b905092915050565b60006158f082613937565b91506158fb83613937565b9250817fffffffffffffffffffffffffffffffffffffffffffffffffffffffffffffffff0483118215151615615934576159336153ae565b5b828202905092915050565b600061594a82613937565b915061595583613937565b9250827fffffffffffffffffffffffffffffffffffffffffffffffffffffffffffffffff0382111561598a576159896153ae565b5b828201905092915050565b60006159a082613937565b915060008214156159b4576159b36153ae565b5b600182039050919050565b7f537472696e67733a20686578206c656e67746820696e73756666696369656e74600082015250565b60006159f560208361546f565b9150615a00826159bf565b602082019050919050565b60006020820190508181036000830152615a24816159e8565b905091905056fea2646970667358221220c70f7d4c581a09811e732200b052e1cdd65f9e56a75646486840a6b7c047795164736f6c634300080a0033",
  "immutableReferences": {},
  "source": "// SPDX-License-Identifier: UNLICENSED\r\npragma solidity >=0.4.22 <0.9.0;\r\n\r\n/**\r\n * @title SampleBEP20Token\r\n * @dev Very simple BEP20 Token example, where all tokens are pre-assigned to the creator.\r\n * Note they can later distribute these tokens as they wish using `transfer` and other\r\n * `BEP20` functions.\r\n * USE IT ONLY FOR LEARNING PURPOSES. SHOULD BE MODIFIED FOR PRODUCTION\r\n */\r\n\r\nimport \"../../node_modules/@openzeppelin/contracts/token/ERC721/IERC721Receiver.sol\";\r\nimport \"./../utils/Admin.sol\";\r\nimport \"./../utils/Utils.sol\";\r\n\r\nimport \"./../tokens/Character.sol\";\r\nimport \"./../tokens/GANG.sol\";\r\nimport \"./../tokens/GameItem.sol\";\r\nimport \"./../CoreInGame.sol\";\r\n\r\n\r\ncontract WebUtils is Admin, IERC721Receiver {\r\n\r\n    struct CharacterDetailWeb\r\n    {\r\n        string name;\r\n        uint256 class; // (1 = ladrao, 2 = gangster, 3 = empresario, 4 = traficante)\r\n        uint256 rarity;\r\n        uint256 respect;\r\n        uint256 vicio;\r\n        uint256 power;\r\n        uint256 level;\r\n        uint256 exp;\r\n        uint256 maxHp;\r\n        uint256 curHp;\r\n        uint256 _str;\r\n        uint256 _int;\r\n        uint256 _cha;\r\n        uint256 _res;\r\n\r\n        uint256 lastExpedition;\r\n        uint256 lastExpeditionResult;\r\n        uint256 lastExpeditionRoll;\r\n        uint256 prisonTime;\r\n        uint256 nurseTime;\r\n        uint256 coleteTime;\r\n        uint256 lastPvP;\r\n        uint256 lastPvPResult;\r\n        uint256 lastPvPRoll;\r\n        uint256 pvpDefeatCount;\r\n        uint256 pvpDefeatTime;\r\n\r\n        uint256 guildId;\r\n        uint256 weaponId;\r\n        uint256 seasonId;\r\n        uint256 prisonPrice;\r\n        uint256 hospitalPrice;\r\n        address owner;\r\n        uint256 tokenId;\r\n    }\r\n\r\n    struct _GameItemWeb\r\n    {\r\n        string name;\r\n        uint256 rarity;\r\n        uint256 img;\r\n        uint256 powerBonus; //stamina, fixo, usa  \r\n        uint256 strBonus;\r\n        uint256 intBonus;\r\n        uint256 chaBonus;\r\n        uint256 resBonus;\r\n        address owner;\r\n        uint256 itemId;\r\n        uint256 tokenId;\r\n        bool equiped;\r\n        uint256 equipedTime;\r\n    }\r\n    address private _contractowner;\r\n    address private _secondowner;\r\n\r\n    uint256 private bnbBalance;\r\n\r\n    Utils private utils;\r\n    Character private crimeChar;\r\n    GameItem private crimeItem;\r\n    bool private Initialized;\r\n\r\n    constructor(Utils _util, Character _character, GameItem _gameItem) Admin()\r\n    {\r\n        _contractowner = msg.sender;\r\n        _secondowner = address(0xbf752Eb4b851B241A36e22767b304ef28242198A);\r\n        bnbBalance = 0;\r\n        crimeChar = _character;\r\n        utils = _util;\r\n        crimeItem = _gameItem;\r\n\r\n        _setRoleAdmin(DEFAULT_ADMIN_ROLE, DEFAULT_ADMIN_ROLE);\r\n        _setRoleAdmin(DEFAULT_CORE_ROLE, DEFAULT_ADMIN_ROLE);\r\n        _setupRole(DEFAULT_ADMIN_ROLE, msg.sender);\r\n        _setupRole(DEFAULT_ADMIN_ROLE, _secondowner);\r\n        Initialized = false;\r\n    }\r\n    \r\n    function changeAdmin(address newAdmin) public onlyRole(DEFAULT_ADMIN_ROLE)\r\n    {\r\n        _contractowner = newAdmin;\r\n    }\r\n\r\n    function onERC721Received(address, address, uint256, bytes memory) public virtual override returns (bytes4) {\r\n        return this.onERC721Received.selector;\r\n    }\r\n\r\n    function supportsInterface(bytes4 interfaceId) public pure returns (bool) {\r\n        return interfaceId == type(IERC721Receiver).interfaceId;\r\n    }\r\n\r\n    function bridgeCharacterStructToWebStruct(CharacterDetail memory char) public pure returns(CharacterDetailWeb memory)\r\n    {\r\n        CharacterDetailWeb memory charWeb = CharacterDetailWeb(char.name, char.class, char.rarity, char.respect, char.vicio, char.power, char.level, char.exp,\r\n        char.maxHp, char.curHp, char._str, char._int, char._cha, char._res, char.lastExpedition, char.lastExpeditionResult, char.lastExpeditionRoll, char.prisonTime,\r\n        char.nurseTime, char.coleteTime, char.lastPvP, char.lastPvPResult, char.lastPvPRoll, char.pvpDefeatCount, char.pvpDefeatTime, char.guildId, char.weaponId,\r\n        char.seasonId, char.prisonPrice, char.hospitalPrice, char.owner, char.tokenId );\r\n\r\n        return charWeb;\r\n    }\r\n\r\n    function bridgeGameItemStructToWebStruct(_GameItem memory item) public pure returns(_GameItemWeb memory)\r\n    {\r\n        _GameItemWeb memory charWeb = _GameItemWeb(item.name, item.rarity, item.img, item.powerBonus,\r\n        item.strBonus, item.intBonus, item.chaBonus, item.resBonus, item.owner, item.itemId, item.tokenId, item.equiped, item.equipedTime);\r\n\r\n        return charWeb;\r\n    }\r\n\r\n    function getAllCharactersBySeasonId(address user, uint256 seasonId) public view returns (uint256[] memory)\r\n    {\r\n        uint256 tokenCount  = crimeChar.getTotalSupply();\r\n        uint256 resultIndex = 0;\r\n        if(tokenCount == 0)\r\n        {\r\n            return new uint256[](0);\r\n        }\r\n        else\r\n        {\r\n            for(uint256 x = 1; x < tokenCount; x++)\r\n            {\r\n                if(!crimeChar.exists(x)) continue;\r\n                if(crimeChar.ownerOf(x) == user)\r\n                {\r\n                    CharacterDetail memory _char = crimeChar.getCharacter(x);\r\n                    if(_char.seasonId == seasonId)\r\n                    {\r\n                        resultIndex++;\r\n                    }\r\n                }\r\n            }\r\n            if(resultIndex > 0)\r\n            {\r\n                uint256[] memory result = new uint256[](resultIndex);\r\n                uint256 totalNfts = crimeChar.getTotalSupply();\r\n                uint256 i;\r\n                uint256 index = 0;\r\n                for(i = 1; i < totalNfts; i++)\r\n                {\r\n                    if(!crimeChar.exists(i)) continue;\r\n                    if(crimeChar.ownerOf(i) == user)\r\n                    {\r\n                        CharacterDetail memory _char = crimeChar.getCharacter(i);\r\n                        if(_char.seasonId == seasonId)\r\n                        {\r\n                            result[index] = i;\r\n                            index++;\r\n                        }\r\n                    }\r\n                }\r\n                return result;\r\n            }\r\n            else\r\n            {\r\n                return new uint256[](0);\r\n            }\r\n        }\r\n    }\r\n        \r\n    function getAllCharactersByRarity(address user, uint256 rarity) public view returns (uint256[] memory)\r\n    {\r\n        uint256 tokenCount  = crimeChar.getTotalSupply();\r\n        uint256 resultIndex = 0;\r\n        if(tokenCount == 0)\r\n        {\r\n            return new uint256[](0);\r\n        }\r\n        else\r\n        {\r\n            for(uint256 x = 1; x < tokenCount; x++)\r\n            {\r\n                if(!crimeChar.exists(x)) continue; //** */\r\n                if(crimeChar.ownerOf(x) == user)\r\n                {\r\n                    CharacterDetail memory _char = crimeChar.getCharacter(x);\r\n                    if(_char.rarity == rarity)\r\n                    {\r\n                        resultIndex++;\r\n                    }\r\n                }\r\n            }\r\n            if(resultIndex > 0)\r\n            {\r\n                uint256[] memory result = new uint256[](resultIndex);\r\n                uint256 totalNfts = crimeChar.getTotalSupply();\r\n                uint256 i;\r\n                uint256 index = 0;\r\n                for(i = 1; i < totalNfts; i++)\r\n                {\r\n                    if(!crimeChar.exists(i)) continue;\r\n                    if(crimeChar.ownerOf(i) == user)\r\n                    {\r\n                        CharacterDetail memory _char = crimeChar.getCharacter(i);\r\n                        if(_char.rarity == rarity)\r\n                        {\r\n                            result[index] = i;\r\n                            index++;\r\n                        }\r\n                    }\r\n                }\r\n                return result;\r\n            }\r\n            else\r\n            {\r\n                return new uint256[](0);\r\n            }\r\n        }\r\n    }\r\n\r\n    function getAllCharactersForUser(address user) public view returns (uint256[] memory)\r\n    {\r\n        uint256 tokenCount  = crimeChar.balanceOf(user);\r\n        if(tokenCount == 0)\r\n        {\r\n            return new uint256[](0);\r\n        }\r\n        else\r\n        {\r\n            uint256[] memory result = new uint256[](tokenCount);\r\n            uint256 totalNfts = crimeChar.getTotalSupply();\r\n            uint256 i;\r\n            uint256 resultIndex = 0;\r\n            for(i = 1; i < totalNfts; i++)\r\n            {\r\n                if(!crimeChar.exists(i)) continue;\r\n                if(crimeChar.ownerOf(i) == user)\r\n                {\r\n                    result[resultIndex] = i;\r\n                    resultIndex++;\r\n                }\r\n            }\r\n            return result;\r\n        }\r\n    }\r\n\r\n    function getAllCharactersByTokenIds(int256 max, int256 min, int256[] memory tokenIds, address addr) public view returns (CharacterDetailWeb[] memory)\r\n    {\r\n        uint256 tokenCount  = tokenIds.length;\r\n\r\n        if(tokenCount == 0)\r\n        {\r\n            return new CharacterDetailWeb[](0);\r\n        }\r\n        else\r\n        {\r\n            CharacterDetailWeb[] memory result = new CharacterDetailWeb[](tokenCount);\r\n            int256 i;\r\n            uint256 resultIndex = 0;\r\n            for(i = max; i >= min; i--)\r\n            {\r\n                if(i >= 0)\r\n                {\r\n                    if(!crimeChar.exists(uint256(tokenIds[uint256(i)]))) continue;\r\n                    if(crimeChar.ownerOf(uint256(tokenIds[uint256(i)])) == addr)\r\n                    {\r\n                        CharacterDetail memory _char = crimeChar.getCharacter(uint256(tokenIds[uint256(i)]));\r\n                        CharacterDetailWeb memory charWeb = bridgeCharacterStructToWebStruct(_char);\r\n                        result[resultIndex] = charWeb;\r\n                        resultIndex++;\r\n                    }\r\n                }\r\n            }\r\n            return result;\r\n        }\r\n    }\r\n\r\n    function getAllItemsForUser(address user) public view returns (uint256[] memory)\r\n    {\r\n        uint256 tokenCount  = crimeItem.balanceOf(user);\r\n        if(tokenCount == 0)\r\n        {\r\n            return new uint256[](0);\r\n        }\r\n        else\r\n        {\r\n            uint256[] memory result = new uint256[](tokenCount);\r\n            uint256 totalNfts = crimeItem.getTotalSupply();\r\n            uint256 i;\r\n            uint256 resultIndex = 0;\r\n            for(i = 1; i < totalNfts; i++)\r\n            {\r\n                if(!crimeItem.exists(i)) continue;\r\n                if(crimeItem.ownerOf(i) == user)\r\n                {\r\n                    result[resultIndex] = i;\r\n                    resultIndex++;\r\n                }\r\n            }\r\n            return result;\r\n        }\r\n    }\r\n\r\n\r\n    function getAllItemsByItemId(address user, uint256 itemId) public view returns (uint256[] memory)\r\n    {\r\n        uint256 tokenCount  = crimeItem.getTotalSupply();\r\n        uint256 resultIndex = 0;\r\n        if(tokenCount == 0)\r\n        {\r\n            return new uint256[](0);\r\n        }\r\n        else\r\n        {\r\n            for(uint256 x = 1; x < tokenCount; x++)\r\n            {\r\n                if(!crimeItem.exists(x)) continue;\r\n                if(crimeItem.ownerOf(x) == user)\r\n                {\r\n                    _GameItem memory item = crimeItem.getGameItem(x);\r\n                    if(item.itemId == itemId)\r\n                    {\r\n                        resultIndex++;\r\n                    }\r\n                }\r\n            }\r\n            if(resultIndex > 0)\r\n            {\r\n                uint256[] memory result = new uint256[](resultIndex);\r\n                uint256 totalNfts = crimeItem.getTotalSupply();\r\n                uint256 i;\r\n                uint256 index = 0;\r\n                for(i = 1; i < totalNfts; i++)\r\n                {\r\n                    if(!crimeItem.exists(i)) continue;\r\n                    if(crimeItem.ownerOf(i) == user)\r\n                    {\r\n                        _GameItem memory item = crimeItem.getGameItem(i);\r\n                        if(item.itemId == itemId)\r\n                        {\r\n                            result[index] = i;\r\n                            index++;\r\n                        }\r\n                    }\r\n                }\r\n                return result;\r\n            }\r\n            else\r\n            {\r\n                return new uint256[](0);\r\n            }\r\n        }\r\n    }\r\n\r\n    function getAllItemsByTokenIds(int256 max, int256 min, int256[] memory tokenIds) public view returns (_GameItemWeb[] memory)\r\n    {\r\n        uint256 tokenCount = tokenIds.length;\r\n\r\n        if(tokenCount == 0)\r\n        {\r\n            return new _GameItemWeb[](0);\r\n        }\r\n        else\r\n        {\r\n            _GameItemWeb[] memory result = new _GameItemWeb[](tokenCount);\r\n            int256 i;\r\n            uint256 resultIndex = 0;\r\n            for(i = max; i >= min; i--)\r\n            {\r\n                if(i >= 0)\r\n                {\r\n                    if(!crimeItem.exists(uint256(tokenIds[uint256(i)]))) continue;\r\n                    _GameItem memory _item = crimeItem.getGameItem(uint256(tokenIds[uint256(i)]));\r\n                    _GameItemWeb memory itemWeb = bridgeGameItemStructToWebStruct(_item);\r\n                    result[resultIndex] = itemWeb;\r\n                    resultIndex++;\r\n                }\r\n            }\r\n            return result;\r\n        }\r\n    }\r\n\r\n    function getAllItemsByTokenIds(int256[] memory tokenIds) public view returns (_GameItemWeb[] memory)\r\n    {\r\n        uint256 tokenCount = tokenIds.length;\r\n\r\n        if(tokenCount == 0)\r\n        {\r\n            return new _GameItemWeb[](0);\r\n        }\r\n        else\r\n        {\r\n            _GameItemWeb[] memory result = new _GameItemWeb[](tokenCount);\r\n            int256 i;\r\n            uint256 resultIndex = 0;\r\n            for(i = 0; i < int256(tokenIds.length); i++)\r\n            {\r\n                if(i >= 0)\r\n                {\r\n                    if(!crimeItem.exists(uint256(tokenIds[uint256(i)]))) continue;\r\n                    _GameItem memory _item = crimeItem.getGameItem(uint256(tokenIds[uint256(i)]));\r\n                    _GameItemWeb memory itemWeb = bridgeGameItemStructToWebStruct(_item);\r\n                    result[resultIndex] = itemWeb;\r\n                    resultIndex++;\r\n                }\r\n            }\r\n            return result;\r\n        }\r\n    }\r\n\r\n    function getAllCharacterByTokenIds(int256[] memory tokenIds) public view returns (CharacterDetailWeb[] memory)\r\n    {\r\n        uint256 tokenCount = tokenIds.length;\r\n\r\n        if(tokenCount == 0)\r\n        {\r\n            return new CharacterDetailWeb[](0);\r\n        }\r\n        else\r\n        {\r\n            CharacterDetailWeb[] memory result = new CharacterDetailWeb[](tokenCount);\r\n            int256 i;\r\n            uint256 resultIndex = 0;\r\n            for(i = 0; i < int256(tokenIds.length); i++)\r\n            {\r\n                if(i >= 0)\r\n                {\r\n                    if(!crimeChar.exists(uint256(tokenIds[uint256(i)]))) continue;\r\n                    CharacterDetail memory _item = crimeChar.getCharacter(uint256(tokenIds[uint256(i)]));\r\n                    CharacterDetailWeb memory itemWeb = bridgeCharacterStructToWebStruct(_item);\r\n                    result[resultIndex] = itemWeb;\r\n                    resultIndex++;\r\n                }\r\n            }\r\n            return result;\r\n        }\r\n    }\r\n    \r\n}",
  "sourcePath": "D:\\CrimeCity\\contracts\\utils\\WebUtils.sol",
  "compiler": {
    "name": "solc",
    "version": "0.8.10+commit.fc410830.Emscripten.clang"
  },
  "schemaVersion": "3.4.3",
  "updatedAt": "2022-01-22T20:23:21.409Z",
  "networkType": "ethereum",
  "devdoc": {
    "kind": "dev",
    "methods": {
      "getRoleAdmin(uint256)": {
        "details": "Returns the admin role that controls `role`. See {grantRole} and {revokeRole}. To change a role's admin, use {_setRoleAdmin}."
      },
      "grantRole(uint256,address)": {
        "details": "Grants `role` to `account`. If `account` had not been already granted `role`, emits a {RoleGranted} event. Requirements: - the caller must have ``role``'s admin role."
      },
      "hasRole(uint256,address)": {
        "details": "Returns `true` if `account` has been granted `role`."
      },
      "renounceRole(uint256,address)": {
        "details": "Revokes `role` from the calling account. Roles are often managed via {grantRole} and {revokeRole}: this function's purpose is to provide a mechanism for accounts to lose their privileges if they are compromised (such as when a trusted device is misplaced). If the calling account had been granted `role`, emits a {RoleRevoked} event. Requirements: - the caller must be `account`."
      },
      "revokeRole(uint256,address)": {
        "details": "Revokes `role` from `account`. If `account` had been granted `role`, emits a {RoleRevoked} event. Requirements: - the caller must have ``role``'s admin role."
      }
    },
    "version": 1
  },
  "userdoc": {
    "kind": "user",
    "methods": {},
    "version": 1
  }
}