{
  "contractName": "CharacterUtils",
  "abi": [
    {
      "inputs": [
        {
          "internalType": "contract Utils",
          "name": "_util",
          "type": "address"
        },
        {
          "internalType": "contract Character",
          "name": "_character",
          "type": "address"
        },
        {
          "internalType": "contract GameItem",
          "name": "_gameItem",
          "type": "address"
        }
      ],
      "stateMutability": "nonpayable",
      "type": "constructor"
    },
    {
      "anonymous": false,
      "inputs": [
        {
          "indexed": true,
          "internalType": "uint256",
          "name": "role",
          "type": "uint256"
        },
        {
          "indexed": true,
          "internalType": "uint256",
          "name": "previousAdminRole",
          "type": "uint256"
        },
        {
          "indexed": true,
          "internalType": "uint256",
          "name": "newAdminRole",
          "type": "uint256"
        }
      ],
      "name": "RoleAdminChanged",
      "type": "event"
    },
    {
      "anonymous": false,
      "inputs": [
        {
          "indexed": true,
          "internalType": "uint256",
          "name": "role",
          "type": "uint256"
        },
        {
          "indexed": true,
          "internalType": "address",
          "name": "account",
          "type": "address"
        },
        {
          "indexed": true,
          "internalType": "address",
          "name": "sender",
          "type": "address"
        }
      ],
      "name": "RoleGranted",
      "type": "event"
    },
    {
      "anonymous": false,
      "inputs": [
        {
          "indexed": true,
          "internalType": "uint256",
          "name": "role",
          "type": "uint256"
        },
        {
          "indexed": true,
          "internalType": "address",
          "name": "account",
          "type": "address"
        },
        {
          "indexed": true,
          "internalType": "address",
          "name": "sender",
          "type": "address"
        }
      ],
      "name": "RoleRevoked",
      "type": "event"
    },
    {
      "inputs": [],
      "name": "DEFAULT_ADMIN_ROLE",
      "outputs": [
        {
          "internalType": "uint256",
          "name": "",
          "type": "uint256"
        }
      ],
      "stateMutability": "view",
      "type": "function"
    },
    {
      "inputs": [],
      "name": "DEFAULT_CORE_ROLE",
      "outputs": [
        {
          "internalType": "uint256",
          "name": "",
          "type": "uint256"
        }
      ],
      "stateMutability": "view",
      "type": "function"
    },
    {
      "inputs": [
        {
          "internalType": "uint256",
          "name": "role",
          "type": "uint256"
        }
      ],
      "name": "getRoleAdmin",
      "outputs": [
        {
          "internalType": "uint256",
          "name": "",
          "type": "uint256"
        }
      ],
      "stateMutability": "view",
      "type": "function"
    },
    {
      "inputs": [
        {
          "internalType": "uint256",
          "name": "role",
          "type": "uint256"
        },
        {
          "internalType": "address",
          "name": "account",
          "type": "address"
        }
      ],
      "name": "grantRole",
      "outputs": [],
      "stateMutability": "nonpayable",
      "type": "function"
    },
    {
      "inputs": [
        {
          "internalType": "uint256",
          "name": "role",
          "type": "uint256"
        },
        {
          "internalType": "address",
          "name": "account",
          "type": "address"
        }
      ],
      "name": "hasRole",
      "outputs": [
        {
          "internalType": "bool",
          "name": "",
          "type": "bool"
        }
      ],
      "stateMutability": "view",
      "type": "function"
    },
    {
      "inputs": [
        {
          "internalType": "uint256",
          "name": "role",
          "type": "uint256"
        },
        {
          "internalType": "address",
          "name": "account",
          "type": "address"
        }
      ],
      "name": "renounceRole",
      "outputs": [],
      "stateMutability": "nonpayable",
      "type": "function"
    },
    {
      "inputs": [
        {
          "internalType": "uint256",
          "name": "role",
          "type": "uint256"
        },
        {
          "internalType": "address",
          "name": "account",
          "type": "address"
        }
      ],
      "name": "revokeRole",
      "outputs": [],
      "stateMutability": "nonpayable",
      "type": "function"
    },
    {
      "inputs": [
        {
          "internalType": "address",
          "name": "newAdmin",
          "type": "address"
        }
      ],
      "name": "changeAdmin",
      "outputs": [],
      "stateMutability": "nonpayable",
      "type": "function"
    },
    {
      "inputs": [
        {
          "internalType": "address",
          "name": "",
          "type": "address"
        },
        {
          "internalType": "address",
          "name": "",
          "type": "address"
        },
        {
          "internalType": "uint256",
          "name": "",
          "type": "uint256"
        },
        {
          "internalType": "bytes",
          "name": "",
          "type": "bytes"
        }
      ],
      "name": "onERC721Received",
      "outputs": [
        {
          "internalType": "bytes4",
          "name": "",
          "type": "bytes4"
        }
      ],
      "stateMutability": "nonpayable",
      "type": "function"
    },
    {
      "inputs": [
        {
          "internalType": "bytes4",
          "name": "interfaceId",
          "type": "bytes4"
        }
      ],
      "name": "supportsInterface",
      "outputs": [
        {
          "internalType": "bool",
          "name": "",
          "type": "bool"
        }
      ],
      "stateMutability": "pure",
      "type": "function"
    },
    {
      "inputs": [
        {
          "internalType": "address",
          "name": "_Core",
          "type": "address"
        },
        {
          "internalType": "address",
          "name": "_CoreIn",
          "type": "address"
        },
        {
          "internalType": "address",
          "name": "_Robbery",
          "type": "address"
        },
        {
          "internalType": "address",
          "name": "_PvP",
          "type": "address"
        },
        {
          "internalType": "address",
          "name": "_Equipment",
          "type": "address"
        }
      ],
      "name": "Initialize",
      "outputs": [],
      "stateMutability": "nonpayable",
      "type": "function"
    },
    {
      "inputs": [
        {
          "internalType": "address",
          "name": "addr",
          "type": "address"
        },
        {
          "internalType": "uint256",
          "name": "tokenId",
          "type": "uint256"
        }
      ],
      "name": "createExpedition",
      "outputs": [
        {
          "internalType": "uint256",
          "name": "",
          "type": "uint256"
        }
      ],
      "stateMutability": "nonpayable",
      "type": "function"
    },
    {
      "inputs": [
        {
          "internalType": "address",
          "name": "addr",
          "type": "address"
        },
        {
          "internalType": "uint256",
          "name": "tokenId",
          "type": "uint256"
        }
      ],
      "name": "createPvP",
      "outputs": [
        {
          "internalType": "uint256",
          "name": "",
          "type": "uint256"
        }
      ],
      "stateMutability": "nonpayable",
      "type": "function"
    },
    {
      "inputs": [
        {
          "internalType": "uint256",
          "name": "tokenId",
          "type": "uint256"
        },
        {
          "internalType": "uint256",
          "name": "gameItemTokenId",
          "type": "uint256"
        }
      ],
      "name": "UpdateCharacterItemBonus",
      "outputs": [],
      "stateMutability": "nonpayable",
      "type": "function"
    },
    {
      "inputs": [
        {
          "components": [
            {
              "internalType": "string",
              "name": "name",
              "type": "string"
            },
            {
              "internalType": "uint256",
              "name": "class",
              "type": "uint256"
            },
            {
              "internalType": "uint256",
              "name": "rarity",
              "type": "uint256"
            },
            {
              "internalType": "uint256",
              "name": "respect",
              "type": "uint256"
            },
            {
              "internalType": "uint256",
              "name": "vicio",
              "type": "uint256"
            },
            {
              "internalType": "uint256",
              "name": "power",
              "type": "uint256"
            },
            {
              "internalType": "uint256",
              "name": "level",
              "type": "uint256"
            },
            {
              "internalType": "uint256",
              "name": "exp",
              "type": "uint256"
            },
            {
              "internalType": "uint256",
              "name": "maxHp",
              "type": "uint256"
            },
            {
              "internalType": "uint256",
              "name": "curHp",
              "type": "uint256"
            },
            {
              "internalType": "uint256",
              "name": "_str",
              "type": "uint256"
            },
            {
              "internalType": "uint256",
              "name": "_int",
              "type": "uint256"
            },
            {
              "internalType": "uint256",
              "name": "_cha",
              "type": "uint256"
            },
            {
              "internalType": "uint256",
              "name": "_res",
              "type": "uint256"
            },
            {
              "internalType": "uint256",
              "name": "lastExpedition",
              "type": "uint256"
            },
            {
              "internalType": "uint256",
              "name": "lastExpeditionResult",
              "type": "uint256"
            },
            {
              "internalType": "uint256",
              "name": "lastExpeditionRoll",
              "type": "uint256"
            },
            {
              "internalType": "uint256",
              "name": "prisonTime",
              "type": "uint256"
            },
            {
              "internalType": "uint256",
              "name": "nurseTime",
              "type": "uint256"
            },
            {
              "internalType": "uint256",
              "name": "coleteTime",
              "type": "uint256"
            },
            {
              "internalType": "uint256",
              "name": "lastPvP",
              "type": "uint256"
            },
            {
              "internalType": "uint256",
              "name": "lastPvPResult",
              "type": "uint256"
            },
            {
              "internalType": "uint256",
              "name": "lastPvPRoll",
              "type": "uint256"
            },
            {
              "internalType": "uint256",
              "name": "pvpDefeatCount",
              "type": "uint256"
            },
            {
              "internalType": "uint256",
              "name": "pvpDefeatTime",
              "type": "uint256"
            },
            {
              "internalType": "uint256",
              "name": "guildId",
              "type": "uint256"
            },
            {
              "internalType": "uint256",
              "name": "weaponId",
              "type": "uint256"
            },
            {
              "internalType": "uint256",
              "name": "seasonId",
              "type": "uint256"
            },
            {
              "internalType": "uint256",
              "name": "prisonPrice",
              "type": "uint256"
            },
            {
              "internalType": "uint256",
              "name": "hospitalPrice",
              "type": "uint256"
            },
            {
              "internalType": "address",
              "name": "owner",
              "type": "address"
            },
            {
              "internalType": "uint256",
              "name": "tokenId",
              "type": "uint256"
            }
          ],
          "internalType": "struct CharacterDetail",
          "name": "char",
          "type": "tuple"
        },
        {
          "internalType": "uint256",
          "name": "result",
          "type": "uint256"
        },
        {
          "internalType": "uint256",
          "name": "roll",
          "type": "uint256"
        },
        {
          "internalType": "uint256",
          "name": "_exp",
          "type": "uint256"
        },
        {
          "internalType": "uint256",
          "name": "_respect",
          "type": "uint256"
        },
        {
          "internalType": "uint256",
          "name": "baseDamage",
          "type": "uint256"
        }
      ],
      "name": "UpdateExpeditioResult",
      "outputs": [
        {
          "internalType": "uint256",
          "name": "",
          "type": "uint256"
        }
      ],
      "stateMutability": "nonpayable",
      "type": "function"
    },
    {
      "inputs": [
        {
          "components": [
            {
              "internalType": "string",
              "name": "name",
              "type": "string"
            },
            {
              "internalType": "uint256",
              "name": "class",
              "type": "uint256"
            },
            {
              "internalType": "uint256",
              "name": "rarity",
              "type": "uint256"
            },
            {
              "internalType": "uint256",
              "name": "respect",
              "type": "uint256"
            },
            {
              "internalType": "uint256",
              "name": "vicio",
              "type": "uint256"
            },
            {
              "internalType": "uint256",
              "name": "power",
              "type": "uint256"
            },
            {
              "internalType": "uint256",
              "name": "level",
              "type": "uint256"
            },
            {
              "internalType": "uint256",
              "name": "exp",
              "type": "uint256"
            },
            {
              "internalType": "uint256",
              "name": "maxHp",
              "type": "uint256"
            },
            {
              "internalType": "uint256",
              "name": "curHp",
              "type": "uint256"
            },
            {
              "internalType": "uint256",
              "name": "_str",
              "type": "uint256"
            },
            {
              "internalType": "uint256",
              "name": "_int",
              "type": "uint256"
            },
            {
              "internalType": "uint256",
              "name": "_cha",
              "type": "uint256"
            },
            {
              "internalType": "uint256",
              "name": "_res",
              "type": "uint256"
            },
            {
              "internalType": "uint256",
              "name": "lastExpedition",
              "type": "uint256"
            },
            {
              "internalType": "uint256",
              "name": "lastExpeditionResult",
              "type": "uint256"
            },
            {
              "internalType": "uint256",
              "name": "lastExpeditionRoll",
              "type": "uint256"
            },
            {
              "internalType": "uint256",
              "name": "prisonTime",
              "type": "uint256"
            },
            {
              "internalType": "uint256",
              "name": "nurseTime",
              "type": "uint256"
            },
            {
              "internalType": "uint256",
              "name": "coleteTime",
              "type": "uint256"
            },
            {
              "internalType": "uint256",
              "name": "lastPvP",
              "type": "uint256"
            },
            {
              "internalType": "uint256",
              "name": "lastPvPResult",
              "type": "uint256"
            },
            {
              "internalType": "uint256",
              "name": "lastPvPRoll",
              "type": "uint256"
            },
            {
              "internalType": "uint256",
              "name": "pvpDefeatCount",
              "type": "uint256"
            },
            {
              "internalType": "uint256",
              "name": "pvpDefeatTime",
              "type": "uint256"
            },
            {
              "internalType": "uint256",
              "name": "guildId",
              "type": "uint256"
            },
            {
              "internalType": "uint256",
              "name": "weaponId",
              "type": "uint256"
            },
            {
              "internalType": "uint256",
              "name": "seasonId",
              "type": "uint256"
            },
            {
              "internalType": "uint256",
              "name": "prisonPrice",
              "type": "uint256"
            },
            {
              "internalType": "uint256",
              "name": "hospitalPrice",
              "type": "uint256"
            },
            {
              "internalType": "address",
              "name": "owner",
              "type": "address"
            },
            {
              "internalType": "uint256",
              "name": "tokenId",
              "type": "uint256"
            }
          ],
          "internalType": "struct CharacterDetail",
          "name": "attacker",
          "type": "tuple"
        },
        {
          "components": [
            {
              "internalType": "string",
              "name": "name",
              "type": "string"
            },
            {
              "internalType": "uint256",
              "name": "class",
              "type": "uint256"
            },
            {
              "internalType": "uint256",
              "name": "rarity",
              "type": "uint256"
            },
            {
              "internalType": "uint256",
              "name": "respect",
              "type": "uint256"
            },
            {
              "internalType": "uint256",
              "name": "vicio",
              "type": "uint256"
            },
            {
              "internalType": "uint256",
              "name": "power",
              "type": "uint256"
            },
            {
              "internalType": "uint256",
              "name": "level",
              "type": "uint256"
            },
            {
              "internalType": "uint256",
              "name": "exp",
              "type": "uint256"
            },
            {
              "internalType": "uint256",
              "name": "maxHp",
              "type": "uint256"
            },
            {
              "internalType": "uint256",
              "name": "curHp",
              "type": "uint256"
            },
            {
              "internalType": "uint256",
              "name": "_str",
              "type": "uint256"
            },
            {
              "internalType": "uint256",
              "name": "_int",
              "type": "uint256"
            },
            {
              "internalType": "uint256",
              "name": "_cha",
              "type": "uint256"
            },
            {
              "internalType": "uint256",
              "name": "_res",
              "type": "uint256"
            },
            {
              "internalType": "uint256",
              "name": "lastExpedition",
              "type": "uint256"
            },
            {
              "internalType": "uint256",
              "name": "lastExpeditionResult",
              "type": "uint256"
            },
            {
              "internalType": "uint256",
              "name": "lastExpeditionRoll",
              "type": "uint256"
            },
            {
              "internalType": "uint256",
              "name": "prisonTime",
              "type": "uint256"
            },
            {
              "internalType": "uint256",
              "name": "nurseTime",
              "type": "uint256"
            },
            {
              "internalType": "uint256",
              "name": "coleteTime",
              "type": "uint256"
            },
            {
              "internalType": "uint256",
              "name": "lastPvP",
              "type": "uint256"
            },
            {
              "internalType": "uint256",
              "name": "lastPvPResult",
              "type": "uint256"
            },
            {
              "internalType": "uint256",
              "name": "lastPvPRoll",
              "type": "uint256"
            },
            {
              "internalType": "uint256",
              "name": "pvpDefeatCount",
              "type": "uint256"
            },
            {
              "internalType": "uint256",
              "name": "pvpDefeatTime",
              "type": "uint256"
            },
            {
              "internalType": "uint256",
              "name": "guildId",
              "type": "uint256"
            },
            {
              "internalType": "uint256",
              "name": "weaponId",
              "type": "uint256"
            },
            {
              "internalType": "uint256",
              "name": "seasonId",
              "type": "uint256"
            },
            {
              "internalType": "uint256",
              "name": "prisonPrice",
              "type": "uint256"
            },
            {
              "internalType": "uint256",
              "name": "hospitalPrice",
              "type": "uint256"
            },
            {
              "internalType": "address",
              "name": "owner",
              "type": "address"
            },
            {
              "internalType": "uint256",
              "name": "tokenId",
              "type": "uint256"
            }
          ],
          "internalType": "struct CharacterDetail",
          "name": "defensor",
          "type": "tuple"
        },
        {
          "internalType": "uint256",
          "name": "result",
          "type": "uint256"
        }
      ],
      "name": "UpdatePvPResult",
      "outputs": [
        {
          "internalType": "uint256",
          "name": "",
          "type": "uint256"
        }
      ],
      "stateMutability": "nonpayable",
      "type": "function"
    }
  ],
  "bytecode": "0x60806040523480156200001157600080fd5b506040516200468d3803806200468d83398181016040528101906200003791906200052e565b33600160006101000a81548173ffffffffffffffffffffffffffffffffffffffff021916908373ffffffffffffffffffffffffffffffffffffffff16021790555073bf752eb4b851b241a36e22767b304ef28242198a600260006101000a81548173ffffffffffffffffffffffffffffffffffffffff021916908373ffffffffffffffffffffffffffffffffffffffff160217905550600060038190555081600560006101000a81548173ffffffffffffffffffffffffffffffffffffffff021916908373ffffffffffffffffffffffffffffffffffffffff16021790555082600460006101000a81548173ffffffffffffffffffffffffffffffffffffffff021916908373ffffffffffffffffffffffffffffffffffffffff16021790555080600660006101000a81548173ffffffffffffffffffffffffffffffffffffffff021916908373ffffffffffffffffffffffffffffffffffffffff160217905550620001ab601e806200022b60201b60201c565b620001bf601f601e6200022b60201b60201c565b620001d2601e336200028e60201b60201c565b62000207601e600260009054906101000a900473ffffffffffffffffffffffffffffffffffffffff166200028e60201b60201c565b6000600660146101000a81548160ff0219169083151502179055505050506200058a565b60006200023e83620002a460201b60201c565b905081600080858152602001908152602001600020600101819055508181847f6620dedee755c284a7e221a3279487b734830c1f76c026c797b4d019c6b4b2f460405160405180910390a4505050565b620002a08282620002c360201b60201c565b5050565b6000806000838152602001908152602001600020600101549050919050565b620002d58282620003b460201b60201c565b620003b057600160008084815260200190815260200160002060000160008373ffffffffffffffffffffffffffffffffffffffff1673ffffffffffffffffffffffffffffffffffffffff16815260200190815260200160002060006101000a81548160ff021916908315150217905550620003556200041e60201b60201c565b73ffffffffffffffffffffffffffffffffffffffff168173ffffffffffffffffffffffffffffffffffffffff16837f1ec1667fba5e43c5c76fff54e76d7a4a20a4fecf7b49724ad8d52a3f726e9dbd60405160405180910390a45b5050565b600080600084815260200190815260200160002060000160008373ffffffffffffffffffffffffffffffffffffffff1673ffffffffffffffffffffffffffffffffffffffff16815260200190815260200160002060009054906101000a900460ff16905092915050565b600033905090565b600080fd5b600073ffffffffffffffffffffffffffffffffffffffff82169050919050565b600062000458826200042b565b9050919050565b60006200046c826200044b565b9050919050565b6200047e816200045f565b81146200048a57600080fd5b50565b6000815190506200049e8162000473565b92915050565b6000620004b1826200044b565b9050919050565b620004c381620004a4565b8114620004cf57600080fd5b50565b600081519050620004e381620004b8565b92915050565b6000620004f6826200044b565b9050919050565b6200050881620004e9565b81146200051457600080fd5b50565b6000815190506200052881620004fd565b92915050565b6000806000606084860312156200054a576200054962000426565b5b60006200055a868287016200048d565b93505060206200056d86828701620004d2565b9250506040620005808682870162000517565b9150509250925092565b6140f3806200059a6000396000f3fe608060405234801561001057600080fd5b50600436106101005760003560e01c806357a3daf011610097578063a217fddf11610066578063a217fddf146102bb578063c0313ba2146102d9578063ec2606c014610309578063fb2990ad1461033957610100565b806357a3daf0146102355780635aef31ac146102515780636f45e4e5146102815780638f2839701461029f57610100565b80631d0b19e7116100d35780631d0b19e7146101b15780631fe5f589146101cd5780632308d236146101e95780632e5bdb171461020557610100565b806301033d7a1461010557806301ffc9a714610135578063150b7a02146101655780631bf078da14610195575b600080fd5b61011f600480360381019061011a9190612c85565b610369565b60405161012c9190612d1f565b60405180910390f35b61014f600480360381019061014a9190612d92565b610c39565b60405161015c9190612dda565b60405180910390f35b61017f600480360381019061017a9190612e96565b610ca3565b60405161018c9190612f28565b60405180910390f35b6101af60048036038101906101aa9190612f43565b610cb7565b005b6101cb60048036038101906101c69190612f83565b611092565b005b6101e760048036038101906101e29190612f83565b6110bb565b005b61020360048036038101906101fe9190612f83565b6110e4565b005b61021f600480360381019061021a9190612fc3565b611167565b60405161022c9190612d1f565b60405180910390f35b61024f600480360381019061024a919061306c565b611892565b005b61026b600480360381019061026691906130e7565b611913565b6040516102789190612d1f565b60405180910390f35b610289611b86565b6040516102969190612d1f565b60405180910390f35b6102b960048036038101906102b49190613127565b611b8b565b005b6102c3611be3565b6040516102d09190612d1f565b60405180910390f35b6102f360048036038101906102ee91906130e7565b611be8565b6040516103009190612d1f565b60405180910390f35b610323600480360381019061031e9190612f83565b611e5b565b6040516103309190612dda565b60405180910390f35b610353600480360381019061034e9190613154565b611ec5565b6040516103609190612d1f565b60405180910390f35b600061037d601f610378611ee4565b611eec565b60008083866102a001818152505060648414156107db576064602886606001516103a791906131b0565b6103b19190613239565b866060018181516103c2919061326a565b9150818152505060078660e0018181516103dc919061326a565b915081815250508460600151600a87606001516103f99190613239565b111561040f576000856060018181525050610439565b600a86606001516104209190613239565b8560600181815161043191906132c0565b915081815250505b600460009054906101000a900473ffffffffffffffffffffffffffffffffffffffff1673ffffffffffffffffffffffffffffffffffffffff1663e7a564d78760c001516040518263ffffffff1660e01b81526004016104989190612d1f565b602060405180830381865afa1580156104b5573d6000803e3d6000fd5b505050506040513d601f19601f820116820180604052508101906104d99190613309565b8660e0015110610644578560c00180518091906104f590613336565b81525050600186602001511415610526576001866101400181815161051a919061326a565b9150818152505061059e565b6002866020015114156105535760018661016001818151610547919061326a565b9150818152505061059d565b6003866020015114156105805760018661018001818151610574919061326a565b9150818152505061059c565b6001866101a001818151610594919061326a565b915081815250505b5b5b600186610140018181516105b2919061326a565b91508181525050600186610160018181516105cd919061326a565b91508181525050600186610180018181516105e8919061326a565b915081815250506001866101a001818151610603919061326a565b915081815250508561010001518661012001818152505060648660a0015161062b9190613239565b8660a00181815161063c919061326a565b915081815250505b6064600460009054906101000a900473ffffffffffffffffffffffffffffffffffffffff1673ffffffffffffffffffffffffffffffffffffffff16632530c90560066040518263ffffffff1660e01b81526004016106a291906133c4565b6020604051808303816000875af11580156106c1573d6000803e3d6000fd5b505050506040513d601f19601f820116820180604052508101906106e59190613309565b60026106f1919061326a565b86610100015161070191906131b0565b61070b9190613239565b91506064600460009054906101000a900473ffffffffffffffffffffffffffffffffffffffff1673ffffffffffffffffffffffffffffffffffffffff16632530c905600a6040518263ffffffff1660e01b815260040161076b919061341a565b6020604051808303816000875af115801561078a573d6000803e3d6000fd5b505050506040513d601f19601f820116820180604052508101906107ae9190613309565b60046107ba919061326a565b8761010001516107ca91906131b0565b6107d49190613239565b9050610c1e565b6064601986606001516107ee91906131b0565b6107f89190613239565b85606001818151610809919061326a565b915081815250508560600151600a86606001516108269190613239565b111561083c576000866060018181525050610866565b600a866060015161084d9190613239565b8660600181815161085e91906132c0565b915081815250505b60028560e001818151610879919061326a565b91508181525050600460009054906101000a900473ffffffffffffffffffffffffffffffffffffffff1673ffffffffffffffffffffffffffffffffffffffff1663e7a564d78660c001516040518263ffffffff1660e01b81526004016108df9190612d1f565b602060405180830381865afa1580156108fc573d6000803e3d6000fd5b505050506040513d601f19601f820116820180604052508101906109209190613309565b8560e0015110610a8b578460c001805180919061093c90613336565b8152505060018560200151141561096d5760018561014001818151610961919061326a565b915081815250506109e5565b60028560200151141561099a576001856101600181815161098e919061326a565b915081815250506109e4565b6003856020015114156109c757600185610180018181516109bb919061326a565b915081815250506109e3565b6001856101a0018181516109db919061326a565b915081815250505b5b5b600185610140018181516109f9919061326a565b9150818152505060018561016001818151610a14919061326a565b9150818152505060018561018001818151610a2f919061326a565b915081815250506001856101a001818151610a4a919061326a565b915081815250508461010001518561012001818152505060648560a00151610a729190613239565b8560a001818151610a83919061326a565b915081815250505b6064600460009054906101000a900473ffffffffffffffffffffffffffffffffffffffff1673ffffffffffffffffffffffffffffffffffffffff16632530c905600a6040518263ffffffff1660e01b8152600401610ae9919061341a565b6020604051808303816000875af1158015610b08573d6000803e3d6000fd5b505050506040513d601f19601f82011682018060405250810190610b2c9190613309565b6004610b38919061326a565b866101000151610b4891906131b0565b610b529190613239565b91506064600460009054906101000a900473ffffffffffffffffffffffffffffffffffffffff1673ffffffffffffffffffffffffffffffffffffffff16632530c90560066040518263ffffffff1660e01b8152600401610bb291906133c4565b6020604051808303816000875af1158015610bd1573d6000803e3d6000fd5b505050506040513d601f19601f82011682018060405250810190610bf59190613309565b6002610c01919061326a565b876101000151610c1191906131b0565b610c1b9190613239565b90505b610c2a86868484611f86565b60008093505050509392505050565b60007f150b7a02000000000000000000000000000000000000000000000000000000007bffffffffffffffffffffffffffffffffffffffffffffffffffffffff1916827bffffffffffffffffffffffffffffffffffffffffffffffffffffffff1916149050919050565b600063150b7a0260e01b9050949350505050565b610cc9601f610cc4611ee4565b611eec565b6000600560009054906101000a900473ffffffffffffffffffffffffffffffffffffffff1673ffffffffffffffffffffffffffffffffffffffff1663dabb0531846040518263ffffffff1660e01b8152600401610d269190612d1f565b600060405180830381865afa158015610d43573d6000803e3d6000fd5b505050506040513d6000823e3d601f19601f82011682018060405250810190610d6c91906137e3565b90506000821415610ec257600081610340015190506000600660009054906101000a900473ffffffffffffffffffffffffffffffffffffffff1673ffffffffffffffffffffffffffffffffffffffff166394f13f4a836040518263ffffffff1660e01b8152600401610dde9190612d1f565b600060405180830381865afa158015610dfb573d6000803e3d6000fd5b505050506040513d6000823e3d601f19601f82011682018060405250810190610e2491906139ac565b905080606001518360a001818151610e3c919061326a565b9150818152505080608001518361014001818151610e5a919061326a565b915081815250508060a001518361016001818151610e78919061326a565b915081815250508060c001518361018001818151610e96919061326a565b915081815250508060e00151836101a001818151610eb4919061326a565b915081815250505050610ffe565b6000600660009054906101000a900473ffffffffffffffffffffffffffffffffffffffff1673ffffffffffffffffffffffffffffffffffffffff166394f13f4a846040518263ffffffff1660e01b8152600401610f1f9190612d1f565b600060405180830381865afa158015610f3c573d6000803e3d6000fd5b505050506040513d6000823e3d601f19601f82011682018060405250810190610f6591906139ac565b905080606001518260a001818151610f7d91906132c0565b9150818152505080608001518261014001818151610f9b91906132c0565b915081815250508060a001518261016001818151610fb991906132c0565b915081815250508060c001518261018001818151610fd791906132c0565b915081815250508060e00151826101a001818151610ff591906132c0565b91508181525050505b600560009054906101000a900473ffffffffffffffffffffffffffffffffffffffff1673ffffffffffffffffffffffffffffffffffffffff16634c2ac39984836040518363ffffffff1660e01b815260040161105b929190613d10565b600060405180830381600087803b15801561107557600080fd5b505af1158015611089573d6000803e3d6000fd5b50505050505050565b61109b82611ec5565b6110ac816110a7611ee4565b611eec565b6110b6838361238c565b505050565b6110c482611ec5565b6110d5816110d0611ee4565b611eec565b6110df838361246d565b505050565b6110ec611ee4565b73ffffffffffffffffffffffffffffffffffffffff168173ffffffffffffffffffffffffffffffffffffffff1614611159576040517f08c379a000000000000000000000000000000000000000000000000000000000815260040161115090613dc3565b60405180910390fd5b611163828261238c565b5050565b600061117b601f611176611ee4565b611eec565b85876101e00181815250508287606001818151611198919061326a565b91508181525050838760e0018181516111b1919061326a565b9150818152505084876102000181815250506000600460009054906101000a900473ffffffffffffffffffffffffffffffffffffffff1673ffffffffffffffffffffffffffffffffffffffff1663e7a564d78960c001516040518263ffffffff1660e01b81526004016112249190612d1f565b602060405180830381865afa158015611241573d6000803e3d6000fd5b505050506040513d601f19601f820116820180604052508101906112659190613309565b8860e00151106113eb578760c001805180919061128190613336565b815250506001886020015114156112b257600188610140018181516112a6919061326a565b9150818152505061132a565b6002886020015114156112df57600188610160018181516112d3919061326a565b91508181525050611329565b60038860200151141561130c5760018861018001818151611300919061326a565b91508181525050611328565b6001886101a001818151611320919061326a565b915081815250505b5b5b6032886101000181815161133e919061326a565b9150818152505060018861014001818151611359919061326a565b9150818152505060018861016001818151611374919061326a565b915081815250506001886101800181815161138f919061326a565b915081815250506001886101a0018181516113aa919061326a565b915081815250508761010001518861012001818152505060648860a001516113d29190613239565b8860a0018181516113e3919061326a565b915081815250505b60028860c0015111611418576064601e89610100015161140b91906131b0565b6114159190613239565b92505b428861026001511115611439576002836114329190613239565b9250611446565b6000886102600181815250505b876101200151831061155b5760008861012001818152505061a8c06201518042611470919061326a565b61147a919061326a565b886102400181815250506000886102200181815250506041600460009054906101000a900473ffffffffffffffffffffffffffffffffffffffff1673ffffffffffffffffffffffffffffffffffffffff1663a7f93ebd6040518163ffffffff1660e01b8152600401602060405180830381865afa1580156114ff573d6000803e3d6000fd5b505050506040513d601f19601f820116820180604052508101906115239190613309565b61152d9190613239565b60648960a0015161153e9190613239565b61154891906131b0565b886103a001818152505060019050611576565b82886101200181815161156e91906132c0565b915081815250505b828861010001818151611589919061326a565b915081815250506000811480156115a1575060648714155b156117f0576000600460009054906101000a900473ffffffffffffffffffffffffffffffffffffffff1673ffffffffffffffffffffffffffffffffffffffff16632530c90560646040518263ffffffff1660e01b81526004016116049190613e1e565b6020604051808303816000875af1158015611623573d6000803e3d6000fd5b505050506040513d601f19601f820116820180604052508101906116479190613309565b9050600460009054906101000a900473ffffffffffffffffffffffffffffffffffffffff1673ffffffffffffffffffffffffffffffffffffffff16638bd2e7e68a604001518b608001516040518363ffffffff1660e01b81526004016116ae929190613e39565b602060405180830381865afa1580156116cb573d6000803e3d6000fd5b505050506040513d601f19601f820116820180604052508101906116ef9190613309565b81116117ea5761a8c06201518042611707919061326a565b611711919061326a565b896102200181815250506000896102400181815250506041600460009054906101000a900473ffffffffffffffffffffffffffffffffffffffff1673ffffffffffffffffffffffffffffffffffffffff1663a7f93ebd6040518163ffffffff1660e01b8152600401602060405180830381865afa158015611796573d6000803e3d6000fd5b505050506040513d601f19601f820116820180604052508101906117ba9190613309565b6117c49190613239565b60648a60a001516117d59190613239565b6117df91906131b0565b896103800181815250505b60029150505b600560009054906101000a900473ffffffffffffffffffffffffffffffffffffffff1673ffffffffffffffffffffffffffffffffffffffff16634c2ac399896103e001518a6040518363ffffffff1660e01b8152600401611852929190613d10565b600060405180830381600087803b15801561186c57600080fd5b505af1158015611880573d6000803e3d6000fd5b50505050809150509695505050505050565b60001515600660149054906101000a900460ff161515141561190c576118b9601f8661254d565b6118c4601f8561254d565b6118cf601f8461254d565b6118da601f8361254d565b6118e5601f8261254d565b6118f0601e3361254d565b6001600660146101000a81548160ff0219169083151502179055505b5050505050565b6000611927601f611922611ee4565b611eec565b60008373ffffffffffffffffffffffffffffffffffffffff16600560009054906101000a900473ffffffffffffffffffffffffffffffffffffffff1673ffffffffffffffffffffffffffffffffffffffff16636352211e856040518263ffffffff1660e01b815260040161199b9190612d1f565b602060405180830381865afa1580156119b8573d6000803e3d6000fd5b505050506040513d601f19601f820116820180604052508101906119dc9190613e62565b73ffffffffffffffffffffffffffffffffffffffff1614611a005780915050611b80565b6000600560009054906101000a900473ffffffffffffffffffffffffffffffffffffffff1673ffffffffffffffffffffffffffffffffffffffff1663dabb0531856040518263ffffffff1660e01b8152600401611a5d9190612d1f565b600060405180830381865afa158015611a7a573d6000803e3d6000fd5b505050506040513d6000823e3d601f19601f82011682018060405250810190611aa391906137e3565b9050806101c0015142108015611abf57506000816101c0015114155b15611ace578192505050611b80565b6201518042611add919061326a565b816101c0018181525050600560009054906101000a900473ffffffffffffffffffffffffffffffffffffffff1673ffffffffffffffffffffffffffffffffffffffff16634c2ac39985836040518363ffffffff1660e01b8152600401611b44929190613d10565b600060405180830381600087803b158015611b5e57600080fd5b505af1158015611b72573d6000803e3d6000fd5b50505050600a915081925050505b92915050565b601f81565b601e611b9e81611b99611ee4565b611eec565b81600160006101000a81548173ffffffffffffffffffffffffffffffffffffffff021916908373ffffffffffffffffffffffffffffffffffffffff1602179055505050565b601e81565b6000611bfc601f611bf7611ee4565b611eec565b60008373ffffffffffffffffffffffffffffffffffffffff16600560009054906101000a900473ffffffffffffffffffffffffffffffffffffffff1673ffffffffffffffffffffffffffffffffffffffff16636352211e856040518263ffffffff1660e01b8152600401611c709190612d1f565b602060405180830381865afa158015611c8d573d6000803e3d6000fd5b505050506040513d601f19601f82011682018060405250810190611cb19190613e62565b73ffffffffffffffffffffffffffffffffffffffff1614611cd55780915050611e55565b6000600560009054906101000a900473ffffffffffffffffffffffffffffffffffffffff1673ffffffffffffffffffffffffffffffffffffffff1663dabb0531856040518263ffffffff1660e01b8152600401611d329190612d1f565b600060405180830381865afa158015611d4f573d6000803e3d6000fd5b505050506040513d6000823e3d601f19601f82011682018060405250810190611d7891906137e3565b905080610280015142108015611d945750600081610280015114155b15611da3578192505050611e55565b6201518042611db2919061326a565b81610280018181525050600560009054906101000a900473ffffffffffffffffffffffffffffffffffffffff1673ffffffffffffffffffffffffffffffffffffffff16634c2ac39985836040518363ffffffff1660e01b8152600401611e19929190613d10565b600060405180830381600087803b158015611e3357600080fd5b505af1158015611e47573d6000803e3d6000fd5b50505050600a915081925050505b92915050565b600080600084815260200190815260200160002060000160008373ffffffffffffffffffffffffffffffffffffffff1673ffffffffffffffffffffffffffffffffffffffff16815260200190815260200160002060009054906101000a900460ff16905092915050565b6000806000838152602001908152602001600020600101549050919050565b600033905090565b611ef68282611e5b565b611f8257611f1b8173ffffffffffffffffffffffffffffffffffffffff16601461255b565b611f2683602061255b565b604051602001611f37929190613f63565b6040516020818303038152906040526040517f08c379a0000000000000000000000000000000000000000000000000000000008152600401611f799190613fd6565b60405180910390fd5b5050565b60008290506000829050428661026001511115611fbd576064604183611fac91906131b0565b611fb69190613239565b9150611fca565b6000866102600181815250505b428561026001511115611ff7576064604182611fe691906131b0565b611ff09190613239565b9050612004565b6000856102600181815250505b85610120015181106121155760008661012001818152505061a8c0620151804261202e919061326a565b612038919061326a565b866102400181815250506000866102200181815250506041600460009054906101000a900473ffffffffffffffffffffffffffffffffffffffff1673ffffffffffffffffffffffffffffffffffffffff1663a7f93ebd6040518163ffffffff1660e01b8152600401602060405180830381865afa1580156120bd573d6000803e3d6000fd5b505050506040513d601f19601f820116820180604052508101906120e19190613309565b60648860a001516120f29190613239565b6120fc91906131b0565b6121069190613239565b866103a0018181525050612130565b80866101200181815161212891906132c0565b915081815250505b84610120015182106122415760008561012001818152505061a8c0620151804261215a919061326a565b612164919061326a565b856102400181815250506000856102200181815250506041600460009054906101000a900473ffffffffffffffffffffffffffffffffffffffff1673ffffffffffffffffffffffffffffffffffffffff1663a7f93ebd6040518163ffffffff1660e01b8152600401602060405180830381865afa1580156121e9573d6000803e3d6000fd5b505050506040513d601f19601f8201168201806040525081019061220d9190613309565b60648760a0015161221e9190613239565b61222891906131b0565b6122329190613239565b856103a001818152505061225c565b81856101200181815161225491906132c0565b915081815250505b600560009054906101000a900473ffffffffffffffffffffffffffffffffffffffff1673ffffffffffffffffffffffffffffffffffffffff16634c2ac399876103e00151886040518363ffffffff1660e01b81526004016122be929190613d10565b600060405180830381600087803b1580156122d857600080fd5b505af11580156122ec573d6000803e3d6000fd5b50505050600560009054906101000a900473ffffffffffffffffffffffffffffffffffffffff1673ffffffffffffffffffffffffffffffffffffffff16634c2ac399866103e00151876040518363ffffffff1660e01b8152600401612352929190613d10565b600060405180830381600087803b15801561236c57600080fd5b505af1158015612380573d6000803e3d6000fd5b50505050505050505050565b6123968282611e5b565b1561246957600080600084815260200190815260200160002060000160008373ffffffffffffffffffffffffffffffffffffffff1673ffffffffffffffffffffffffffffffffffffffff16815260200190815260200160002060006101000a81548160ff02191690831515021790555061240e611ee4565b73ffffffffffffffffffffffffffffffffffffffff168173ffffffffffffffffffffffffffffffffffffffff16837fe0df21b65c73c27081b8f042a012b124085b41d78d27b7e3c4780f5650f5ebb860405160405180910390a45b5050565b6124778282611e5b565b61254957600160008084815260200190815260200160002060000160008373ffffffffffffffffffffffffffffffffffffffff1673ffffffffffffffffffffffffffffffffffffffff16815260200190815260200160002060006101000a81548160ff0219169083151502179055506124ee611ee4565b73ffffffffffffffffffffffffffffffffffffffff168173ffffffffffffffffffffffffffffffffffffffff16837f1ec1667fba5e43c5c76fff54e76d7a4a20a4fecf7b49724ad8d52a3f726e9dbd60405160405180910390a45b5050565b612557828261246d565b5050565b60606000600283600261256e91906131b0565b612578919061326a565b67ffffffffffffffff811115612591576125906127c1565b5b6040519080825280601f01601f1916602001820160405280156125c35781602001600182028036833780820191505090505b5090507f3000000000000000000000000000000000000000000000000000000000000000816000815181106125fb576125fa613ff8565b5b60200101907effffffffffffffffffffffffffffffffffffffffffffffffffffffffffffff1916908160001a9053507f78000000000000000000000000000000000000000000000000000000000000008160018151811061265f5761265e613ff8565b5b60200101907effffffffffffffffffffffffffffffffffffffffffffffffffffffffffffff1916908160001a9053506000600184600261269f91906131b0565b6126a9919061326a565b90505b6001811115612749577f3031323334353637383961626364656600000000000000000000000000000000600f8616601081106126eb576126ea613ff8565b5b1a60f81b82828151811061270257612701613ff8565b5b60200101907effffffffffffffffffffffffffffffffffffffffffffffffffffffffffffff1916908160001a905350600485901c94508061274290614027565b90506126ac565b506000841461278d576040517f08c379a00000000000000000000000000000000000000000000000000000000081526004016127849061409d565b60405180910390fd5b8091505092915050565b6000604051905090565b600080fd5b600080fd5b600080fd5b6000601f19601f8301169050919050565b7f4e487b7100000000000000000000000000000000000000000000000000000000600052604160045260246000fd5b6127f9826127b0565b810181811067ffffffffffffffff82111715612818576128176127c1565b5b80604052505050565b600061282b612797565b905061283782826127f0565b919050565b600080fd5b600080fd5b600080fd5b600067ffffffffffffffff821115612866576128656127c1565b5b61286f826127b0565b9050602081019050919050565b82818337600083830152505050565b600061289e6128998461284b565b612821565b9050828152602081018484840111156128ba576128b9612846565b5b6128c584828561287c565b509392505050565b600082601f8301126128e2576128e1612841565b5b81356128f284826020860161288b565b91505092915050565b6000819050919050565b61290e816128fb565b811461291957600080fd5b50565b60008135905061292b81612905565b92915050565b600073ffffffffffffffffffffffffffffffffffffffff82169050919050565b600061295c82612931565b9050919050565b61296c81612951565b811461297757600080fd5b50565b60008135905061298981612963565b92915050565b600061040082840312156129a6576129a56127ab565b5b6129b1610400612821565b9050600082013567ffffffffffffffff8111156129d1576129d061283c565b5b6129dd848285016128cd565b60008301525060206129f18482850161291c565b6020830152506040612a058482850161291c565b6040830152506060612a198482850161291c565b6060830152506080612a2d8482850161291c565b60808301525060a0612a418482850161291c565b60a08301525060c0612a558482850161291c565b60c08301525060e0612a698482850161291c565b60e083015250610100612a7e8482850161291c565b61010083015250610120612a948482850161291c565b61012083015250610140612aaa8482850161291c565b61014083015250610160612ac08482850161291c565b61016083015250610180612ad68482850161291c565b610180830152506101a0612aec8482850161291c565b6101a0830152506101c0612b028482850161291c565b6101c0830152506101e0612b188482850161291c565b6101e083015250610200612b2e8482850161291c565b61020083015250610220612b448482850161291c565b61022083015250610240612b5a8482850161291c565b61024083015250610260612b708482850161291c565b61026083015250610280612b868482850161291c565b610280830152506102a0612b9c8482850161291c565b6102a0830152506102c0612bb28482850161291c565b6102c0830152506102e0612bc88482850161291c565b6102e083015250610300612bde8482850161291c565b61030083015250610320612bf48482850161291c565b61032083015250610340612c0a8482850161291c565b61034083015250610360612c208482850161291c565b61036083015250610380612c368482850161291c565b610380830152506103a0612c4c8482850161291c565b6103a0830152506103c0612c628482850161297a565b6103c0830152506103e0612c788482850161291c565b6103e08301525092915050565b600080600060608486031215612c9e57612c9d6127a1565b5b600084013567ffffffffffffffff811115612cbc57612cbb6127a6565b5b612cc88682870161298f565b935050602084013567ffffffffffffffff811115612ce957612ce86127a6565b5b612cf58682870161298f565b9250506040612d068682870161291c565b9150509250925092565b612d19816128fb565b82525050565b6000602082019050612d346000830184612d10565b92915050565b60007fffffffff0000000000000000000000000000000000000000000000000000000082169050919050565b612d6f81612d3a565b8114612d7a57600080fd5b50565b600081359050612d8c81612d66565b92915050565b600060208284031215612da857612da76127a1565b5b6000612db684828501612d7d565b91505092915050565b60008115159050919050565b612dd481612dbf565b82525050565b6000602082019050612def6000830184612dcb565b92915050565b600067ffffffffffffffff821115612e1057612e0f6127c1565b5b612e19826127b0565b9050602081019050919050565b6000612e39612e3484612df5565b612821565b905082815260208101848484011115612e5557612e54612846565b5b612e6084828561287c565b509392505050565b600082601f830112612e7d57612e7c612841565b5b8135612e8d848260208601612e26565b91505092915050565b60008060008060808587031215612eb057612eaf6127a1565b5b6000612ebe8782880161297a565b9450506020612ecf8782880161297a565b9350506040612ee08782880161291c565b925050606085013567ffffffffffffffff811115612f0157612f006127a6565b5b612f0d87828801612e68565b91505092959194509250565b612f2281612d3a565b82525050565b6000602082019050612f3d6000830184612f19565b92915050565b60008060408385031215612f5a57612f596127a1565b5b6000612f688582860161291c565b9250506020612f798582860161291c565b9150509250929050565b60008060408385031215612f9a57612f996127a1565b5b6000612fa88582860161291c565b9250506020612fb98582860161297a565b9150509250929050565b60008060008060008060c08789031215612fe057612fdf6127a1565b5b600087013567ffffffffffffffff811115612ffe57612ffd6127a6565b5b61300a89828a0161298f565b965050602061301b89828a0161291c565b955050604061302c89828a0161291c565b945050606061303d89828a0161291c565b935050608061304e89828a0161291c565b92505060a061305f89828a0161291c565b9150509295509295509295565b600080600080600060a08688031215613088576130876127a1565b5b60006130968882890161297a565b95505060206130a78882890161297a565b94505060406130b88882890161297a565b93505060606130c98882890161297a565b92505060806130da8882890161297a565b9150509295509295909350565b600080604083850312156130fe576130fd6127a1565b5b600061310c8582860161297a565b925050602061311d8582860161291c565b9150509250929050565b60006020828403121561313d5761313c6127a1565b5b600061314b8482850161297a565b91505092915050565b60006020828403121561316a576131696127a1565b5b60006131788482850161291c565b91505092915050565b7f4e487b7100000000000000000000000000000000000000000000000000000000600052601160045260246000fd5b60006131bb826128fb565b91506131c6836128fb565b9250817fffffffffffffffffffffffffffffffffffffffffffffffffffffffffffffffff04831182151516156131ff576131fe613181565b5b828202905092915050565b7f4e487b7100000000000000000000000000000000000000000000000000000000600052601260045260246000fd5b6000613244826128fb565b915061324f836128fb565b92508261325f5761325e61320a565b5b828204905092915050565b6000613275826128fb565b9150613280836128fb565b9250827fffffffffffffffffffffffffffffffffffffffffffffffffffffffffffffffff038211156132b5576132b4613181565b5b828201905092915050565b60006132cb826128fb565b91506132d6836128fb565b9250828210156132e9576132e8613181565b5b828203905092915050565b60008151905061330381612905565b92915050565b60006020828403121561331f5761331e6127a1565b5b600061332d848285016132f4565b91505092915050565b6000613341826128fb565b91507fffffffffffffffffffffffffffffffffffffffffffffffffffffffffffffffff82141561337457613373613181565b5b600182019050919050565b6000819050919050565b6000819050919050565b60006133ae6133a96133a48461337f565b613389565b6128fb565b9050919050565b6133be81613393565b82525050565b60006020820190506133d960008301846133b5565b92915050565b6000819050919050565b60006134046133ff6133fa846133df565b613389565b6128fb565b9050919050565b613414816133e9565b82525050565b600060208201905061342f600083018461340b565b92915050565b60005b83811015613453578082015181840152602081019050613438565b83811115613462576000848401525b50505050565b600061347b6134768461284b565b612821565b90508281526020810184848401111561349757613496612846565b5b6134a2848285613435565b509392505050565b600082601f8301126134bf576134be612841565b5b81516134cf848260208601613468565b91505092915050565b6000815190506134e781612963565b92915050565b60006104008284031215613504576135036127ab565b5b61350f610400612821565b9050600082015167ffffffffffffffff81111561352f5761352e61283c565b5b61353b848285016134aa565b600083015250602061354f848285016132f4565b6020830152506040613563848285016132f4565b6040830152506060613577848285016132f4565b606083015250608061358b848285016132f4565b60808301525060a061359f848285016132f4565b60a08301525060c06135b3848285016132f4565b60c08301525060e06135c7848285016132f4565b60e0830152506101006135dc848285016132f4565b610100830152506101206135f2848285016132f4565b61012083015250610140613608848285016132f4565b6101408301525061016061361e848285016132f4565b61016083015250610180613634848285016132f4565b610180830152506101a061364a848285016132f4565b6101a0830152506101c0613660848285016132f4565b6101c0830152506101e0613676848285016132f4565b6101e08301525061020061368c848285016132f4565b610200830152506102206136a2848285016132f4565b610220830152506102406136b8848285016132f4565b610240830152506102606136ce848285016132f4565b610260830152506102806136e4848285016132f4565b610280830152506102a06136fa848285016132f4565b6102a0830152506102c0613710848285016132f4565b6102c0830152506102e0613726848285016132f4565b6102e08301525061030061373c848285016132f4565b61030083015250610320613752848285016132f4565b61032083015250610340613768848285016132f4565b6103408301525061036061377e848285016132f4565b61036083015250610380613794848285016132f4565b610380830152506103a06137aa848285016132f4565b6103a0830152506103c06137c0848285016134d8565b6103c0830152506103e06137d6848285016132f4565b6103e08301525092915050565b6000602082840312156137f9576137f86127a1565b5b600082015167ffffffffffffffff811115613817576138166127a6565b5b613823848285016134ed565b91505092915050565b61383581612dbf565b811461384057600080fd5b50565b6000815190506138528161382c565b92915050565b60006101a0828403121561386f5761386e6127ab565b5b61387a6101a0612821565b9050600082015167ffffffffffffffff81111561389a5761389961283c565b5b6138a6848285016134aa565b60008301525060206138ba848285016132f4565b60208301525060406138ce848285016132f4565b60408301525060606138e2848285016132f4565b60608301525060806138f6848285016132f4565b60808301525060a061390a848285016132f4565b60a08301525060c061391e848285016132f4565b60c08301525060e0613932848285016132f4565b60e083015250610100613947848285016134d8565b6101008301525061012061395d848285016132f4565b61012083015250610140613973848285016132f4565b6101408301525061016061398984828501613843565b6101608301525061018061399f848285016132f4565b6101808301525092915050565b6000602082840312156139c2576139c16127a1565b5b600082015167ffffffffffffffff8111156139e0576139df6127a6565b5b6139ec84828501613858565b91505092915050565b600081519050919050565b600082825260208201905092915050565b6000613a1c826139f5565b613a268185613a00565b9350613a36818560208601613435565b613a3f816127b0565b840191505092915050565b613a53816128fb565b82525050565b613a6281612951565b82525050565b6000610400830160008301518482036000860152613a868282613a11565b9150506020830151613a9b6020860182613a4a565b506040830151613aae6040860182613a4a565b506060830151613ac16060860182613a4a565b506080830151613ad46080860182613a4a565b5060a0830151613ae760a0860182613a4a565b5060c0830151613afa60c0860182613a4a565b5060e0830151613b0d60e0860182613a4a565b50610100830151613b22610100860182613a4a565b50610120830151613b37610120860182613a4a565b50610140830151613b4c610140860182613a4a565b50610160830151613b61610160860182613a4a565b50610180830151613b76610180860182613a4a565b506101a0830151613b8b6101a0860182613a4a565b506101c0830151613ba06101c0860182613a4a565b506101e0830151613bb56101e0860182613a4a565b50610200830151613bca610200860182613a4a565b50610220830151613bdf610220860182613a4a565b50610240830151613bf4610240860182613a4a565b50610260830151613c09610260860182613a4a565b50610280830151613c1e610280860182613a4a565b506102a0830151613c336102a0860182613a4a565b506102c0830151613c486102c0860182613a4a565b506102e0830151613c5d6102e0860182613a4a565b50610300830151613c72610300860182613a4a565b50610320830151613c87610320860182613a4a565b50610340830151613c9c610340860182613a4a565b50610360830151613cb1610360860182613a4a565b50610380830151613cc6610380860182613a4a565b506103a0830151613cdb6103a0860182613a4a565b506103c0830151613cf06103c0860182613a59565b506103e0830151613d056103e0860182613a4a565b508091505092915050565b6000604082019050613d256000830185612d10565b8181036020830152613d378184613a68565b90509392505050565b600082825260208201905092915050565b7f416363657373436f6e74726f6c3a2063616e206f6e6c792072656e6f756e636560008201527f20726f6c657320666f722073656c660000000000000000000000000000000000602082015250565b6000613dad602f83613d40565b9150613db882613d51565b604082019050919050565b60006020820190508181036000830152613ddc81613da0565b9050919050565b6000819050919050565b6000613e08613e03613dfe84613de3565b613389565b6128fb565b9050919050565b613e1881613ded565b82525050565b6000602082019050613e336000830184613e0f565b92915050565b6000604082019050613e4e6000830185612d10565b613e5b6020830184612d10565b9392505050565b600060208284031215613e7857613e776127a1565b5b6000613e86848285016134d8565b91505092915050565b600081905092915050565b7f416363657373436f6e74726f6c3a206163636f756e7420000000000000000000600082015250565b6000613ed0601783613e8f565b9150613edb82613e9a565b601782019050919050565b6000613ef1826139f5565b613efb8185613e8f565b9350613f0b818560208601613435565b80840191505092915050565b7f206973206d697373696e6720726f6c6520000000000000000000000000000000600082015250565b6000613f4d601183613e8f565b9150613f5882613f17565b601182019050919050565b6000613f6e82613ec3565b9150613f7a8285613ee6565b9150613f8582613f40565b9150613f918284613ee6565b91508190509392505050565b6000613fa8826139f5565b613fb28185613d40565b9350613fc2818560208601613435565b613fcb816127b0565b840191505092915050565b60006020820190508181036000830152613ff08184613f9d565b905092915050565b7f4e487b7100000000000000000000000000000000000000000000000000000000600052603260045260246000fd5b6000614032826128fb565b9150600082141561404657614045613181565b5b600182039050919050565b7f537472696e67733a20686578206c656e67746820696e73756666696369656e74600082015250565b6000614087602083613d40565b915061409282614051565b602082019050919050565b600060208201905081810360008301526140b68161407a565b905091905056fea2646970667358221220fc6245599c5a1b7f9a8ddcdf90a99347a193922e356268580de0456683dcb68f64736f6c634300080a0033",
  "immutableReferences": {},
  "source": "// SPDX-License-Identifier: UNLICENSED\r\npragma solidity >=0.4.22 <0.9.0;\r\n\r\n/**\r\n * @title SampleBEP20Token\r\n * @dev Very simple BEP20 Token example, where all tokens are pre-assigned to the creator.\r\n * Note they can later distribute these tokens as they wish using `transfer` and other\r\n * `BEP20` functions.\r\n * USE IT ONLY FOR LEARNING PURPOSES. SHOULD BE MODIFIED FOR PRODUCTION\r\n */\r\n\r\nimport \"../../node_modules/@openzeppelin/contracts/token/ERC721/IERC721Receiver.sol\";\r\nimport \"./../utils/Admin.sol\";\r\nimport \"./../utils/Utils.sol\";\r\n\r\nimport \"./../tokens/Character.sol\";\r\nimport \"./../tokens/GANG.sol\";\r\nimport \"./../tokens/GameItem.sol\";\r\nimport \"./../CoreInGame.sol\";\r\n\r\ncontract CharacterUtils is Admin, IERC721Receiver {\r\n    address private _contractowner;\r\n    address private _secondowner;\r\n\r\n    uint256 private bnbBalance;\r\n\r\n    Utils private utils;\r\n    Character private crimeChar;\r\n    GameItem private crimeItem;\r\n    bool private Initialized;\r\n\r\n    constructor(Utils _util, Character _character, GameItem _gameItem) Admin()\r\n    {\r\n        _contractowner = msg.sender;\r\n        _secondowner = address(0xbf752Eb4b851B241A36e22767b304ef28242198A);\r\n        bnbBalance = 0;\r\n        crimeChar = _character;\r\n        utils = _util;\r\n        crimeItem = _gameItem;\r\n\r\n        _setRoleAdmin(DEFAULT_ADMIN_ROLE, DEFAULT_ADMIN_ROLE);\r\n        _setRoleAdmin(DEFAULT_CORE_ROLE, DEFAULT_ADMIN_ROLE);\r\n        _setupRole(DEFAULT_ADMIN_ROLE, msg.sender);\r\n        _setupRole(DEFAULT_ADMIN_ROLE, _secondowner);\r\n        Initialized = false;\r\n    }\r\n\r\n    function changeAdmin(address newAdmin) public onlyRole(DEFAULT_ADMIN_ROLE)\r\n    {\r\n        _contractowner = newAdmin;\r\n    }\r\n\r\n    function onERC721Received(address, address, uint256, bytes memory) public virtual override returns (bytes4) {\r\n        return this.onERC721Received.selector;\r\n    }\r\n\r\n    function supportsInterface(bytes4 interfaceId) public pure returns (bool) {\r\n        return interfaceId == type(IERC721Receiver).interfaceId;\r\n    }\r\n\r\n    function Initialize(address _Core, address _CoreIn, address _Robbery, address _PvP, address _Equipment) public\r\n    {\r\n        if(Initialized == false)\r\n        {\r\n            _setupRole(DEFAULT_CORE_ROLE, _Core);\r\n            _setupRole(DEFAULT_CORE_ROLE, _CoreIn);\r\n            _setupRole(DEFAULT_CORE_ROLE, _Robbery);\r\n            _setupRole(DEFAULT_CORE_ROLE, _PvP);\r\n            _setupRole(DEFAULT_CORE_ROLE, _Equipment);\r\n            _setupRole(DEFAULT_ADMIN_ROLE, msg.sender);\r\n            Initialized = true;\r\n        }\r\n    }\r\n    function createExpedition(address addr, uint256 tokenId) onlyCore() public returns (uint256){\r\n        uint256 returnValue = 0;\r\n\r\n        if(crimeChar.ownerOf(tokenId) != addr) return returnValue;\r\n\r\n        CharacterDetail memory char = crimeChar.getCharacter(tokenId);\r\n\r\n        if((block.timestamp < char.lastExpedition) && (char.lastExpedition != 0)) return returnValue;\r\n\r\n        char.lastExpedition = block.timestamp + (1 days);\r\n\r\n        crimeChar.UpdateCharacter(tokenId, char);\r\n        returnValue = 10;\r\n\r\n        return returnValue;\r\n    }\r\n\r\n    function createPvP(address addr, uint256 tokenId) onlyCore() public returns (uint256){\r\n        uint256 returnValue = 0;\r\n\r\n        if(crimeChar.ownerOf(tokenId) != addr) return returnValue;\r\n        CharacterDetail memory char = crimeChar.getCharacter(tokenId);\r\n\r\n        if((block.timestamp < char.lastPvP) && (char.lastPvP != 0)) return returnValue;\r\n\r\n        char.lastPvP = block.timestamp + (1 days);\r\n\r\n        crimeChar.UpdateCharacter(tokenId, char);\r\n        returnValue = 10;\r\n\r\n        return returnValue;\r\n    }\r\n\r\n    function UpdateCharacterItemBonus(uint256 tokenId, uint256 gameItemTokenId) onlyCore() public\r\n    {\r\n        CharacterDetail memory char = crimeChar.getCharacter(tokenId);\r\n\r\n        if(gameItemTokenId == 0)\r\n        {\r\n            uint256 weaponId = char.weaponId;\r\n            _GameItem memory item = crimeItem.getGameItem(weaponId);\r\n            char.power += item.powerBonus;\r\n            char._str += item.strBonus;\r\n            char._int += item.intBonus;\r\n            char._cha += item.chaBonus;\r\n            char._res += item.resBonus;\r\n        }\r\n        else\r\n        {\r\n            _GameItem memory item = crimeItem.getGameItem(gameItemTokenId);\r\n            char.power -= item.powerBonus;\r\n            char._str -= item.strBonus;\r\n            char._int -= item.intBonus;\r\n            char._cha -= item.chaBonus;\r\n            char._res -= item.resBonus;\r\n        }\r\n        crimeChar.UpdateCharacter(tokenId, char);\r\n    }\r\n\r\n    function UpdateExpeditioResult(CharacterDetail memory char, uint256 result, uint256 roll, uint256 _exp, uint256 _respect, uint256 baseDamage) onlyCore() public returns (uint256) {\r\n        char.lastExpeditionResult = result;\r\n        char.respect += _respect;\r\n        char.exp += _exp;\r\n        char.lastExpeditionRoll = roll;\r\n        uint256 returnValue = 0;\r\n        if(char.exp >= utils.getExperienceTable(char.level))\r\n        {\r\n            char.level++; //level\r\n            // (1 = ladrao, 2 = gangster, 3 = empresario, 4 = traficante)\r\n            if(char.class == 1) char._str += 1;\r\n            else if(char.class == 2) char._int += 1;\r\n            else if(char.class == 3) char._cha += 1;\r\n            else char._res += 1;\r\n\r\n            char.maxHp += 50;\r\n            char._str += 1;\r\n            char._int += 1;\r\n            char._cha += 1;\r\n            char._res += 1;\r\n            char.curHp = char.maxHp;\r\n            char.power += (char.power / 100); // 1% de more Power\r\n        }\r\n\r\n        if(char.level <= 2) baseDamage = ((char.maxHp * 30) / 100);\r\n\r\n        if(char.coleteTime > block.timestamp) baseDamage = baseDamage / 2; //Colete\r\n        else char.coleteTime = 0;\r\n        \r\n        if(baseDamage >= char.curHp)\r\n        {\r\n            char.curHp = 0; //curHP\r\n            char.nurseTime = block.timestamp + (1 days) + (12 hours); // Nurse\r\n            char.prisonTime = 0; // Prison\r\n            char.hospitalPrice = ((char.power / 100) * (utils.getMintPrice() / 65));\r\n            returnValue = 1;\r\n        }\r\n        else\r\n        {\r\n            char.curHp -= baseDamage;\r\n        }\r\n        char.maxHp += baseDamage;\r\n        if(returnValue == 0 && result != 100)\r\n        {\r\n            uint256 _rd = utils.rand(100);\r\n            if(_rd <= utils.getBasePrisonChance(char.rarity, char.vicio))\r\n            {\r\n                char.prisonTime = block.timestamp + (1 days) + (12 hours); //Prison\r\n                char.nurseTime = 0;\r\n                char.prisonPrice = ((char.power / 100) * (utils.getMintPrice() / 65));\r\n            }\r\n            returnValue = 2;\r\n        }\r\n        crimeChar.UpdateCharacter(char.tokenId, char);\r\n        return returnValue;\r\n    }\r\n\r\n    function UpdatePvPHPResult(CharacterDetail memory attacker, CharacterDetail memory defensor, uint256 baseDamage, uint256 defDamage) internal {\r\n        uint256 bDmg = baseDamage;\r\n        uint256 dDmg = defDamage;\r\n\r\n        if(attacker.coleteTime > block.timestamp) bDmg = ((bDmg * 65) / 100); //Colete\r\n        else attacker.coleteTime = 0;\r\n\r\n        if(defensor.coleteTime > block.timestamp) dDmg = ((dDmg * 65) / 100); //Colete def\r\n        else defensor.coleteTime = 0;\r\n        \r\n        if(dDmg >= attacker.curHp)\r\n        {\r\n            attacker.curHp = 0; //curHP\r\n            attacker.nurseTime = block.timestamp + (1 days) + (12 hours); // Nurse\r\n            attacker.prisonTime = 0; // Prison\r\n            attacker.hospitalPrice = ((attacker.power / 100) * utils.getMintPrice() / 65);\r\n        }\r\n        else\r\n        {\r\n            attacker.curHp -= dDmg;\r\n        }\r\n\r\n        if(bDmg >= defensor.curHp)\r\n        {\r\n            defensor.curHp = 0; //curHP\r\n            defensor.nurseTime = block.timestamp + (1 days) + (12 hours); // Nurse\r\n            defensor.prisonTime = 0; // Prison\r\n            defensor.hospitalPrice = ((defensor.power / 100) * utils.getMintPrice() / 65);\r\n        }\r\n        else\r\n        {\r\n            defensor.curHp -= bDmg;\r\n        }\r\n\r\n        crimeChar.UpdateCharacter(attacker.tokenId, attacker);\r\n        crimeChar.UpdateCharacter(defensor.tokenId, defensor);\r\n    }\r\n\r\n    function UpdatePvPResult(CharacterDetail memory attacker, CharacterDetail memory defensor, uint256 result) onlyCore() public returns (uint256) {\r\n        uint256 baseDamage = 0;\r\n        uint256 defDamage = 0;\r\n        attacker.lastPvPResult = result;\r\n\r\n        if(result == 100)\r\n        {\r\n            attacker.respect += ((defensor.respect * 40) / 100); //respect \r\n            attacker.exp += 7; //exp\r\n            if(attacker.respect / 10 > defensor.respect) defensor.respect = 0;\r\n            else defensor.respect -= attacker.respect / 10;\r\n            \r\n            if(attacker.exp >= utils.getExperienceTable(attacker.level))\r\n            {\r\n                attacker.level++; //level\r\n                // (1 = ladrao, 2 = gangster, 3 = empresario, 4 = traficante)\r\n                if(attacker.class == 1) attacker._str += 1;\r\n                else if(attacker.class == 2) attacker._int += 1;\r\n                else if(attacker.class == 3) attacker._cha += 1;\r\n                else attacker._res += 1;\r\n\r\n                attacker._str += 1;\r\n                attacker._int += 1;\r\n                attacker._cha += 1;\r\n                attacker._res += 1;\r\n                attacker.curHp = attacker.maxHp;\r\n                attacker.power += (attacker.power / 100); // 1% de more Power9***\r\n            }\r\n            baseDamage = ((defensor.maxHp * (2 + utils.rand(6))) / 100);\r\n            defDamage = ((attacker.maxHp * (4 + utils.rand(10))) / 100);\r\n        }\r\n        else\r\n        {\r\n            defensor.respect += ((defensor.respect * 25) / 100); //respect \r\n            if(defensor.respect / 10 > attacker.respect) attacker.respect = 0;\r\n            else attacker.respect -= attacker.respect / 10;\r\n            defensor.exp += 2;\r\n            if(defensor.exp >= utils.getExperienceTable(defensor.level))\r\n            {\r\n                defensor.level++; //level\r\n                // (1 = ladrao, 2 = gangster, 3 = empresario, 4 = traficante)\r\n                if(defensor.class == 1) defensor._str += 1;\r\n                else if(defensor.class == 2) defensor._int += 1;\r\n                else if(defensor.class == 3) defensor._cha += 1;\r\n                else defensor._res += 1;\r\n\r\n                defensor._str += 1;\r\n                defensor._int += 1;\r\n                defensor._cha += 1;\r\n                defensor._res += 1;\r\n                defensor.curHp = defensor.maxHp;\r\n                defensor.power += (defensor.power / 100); // 1% de more Power\r\n            }\r\n            baseDamage = ((defensor.maxHp * (4 + utils.rand(10))) / 100);\r\n            defDamage = ((attacker.maxHp * (2 + utils.rand(6))) / 100);\r\n        }\r\n\r\n        UpdatePvPHPResult(attacker, defensor, baseDamage, defDamage);\r\n        \r\n        uint256 returnValue = 0;\r\n        return returnValue;\r\n    }\r\n}",
  "sourcePath": "C:\\Users\\MMMJR\\Desktop\\BlockChain\\CrimeCity\\contracts\\utils\\CharacterUtils.sol",
  "compiler": {
    "name": "solc",
    "version": "0.8.10+commit.fc410830.Emscripten.clang"
  },
  "schemaVersion": "3.4.3",
  "updatedAt": "2022-10-04T14:10:11.293Z",
  "devdoc": {
    "kind": "dev",
    "methods": {
      "getRoleAdmin(uint256)": {
        "details": "Returns the admin role that controls `role`. See {grantRole} and {revokeRole}. To change a role's admin, use {_setRoleAdmin}."
      },
      "grantRole(uint256,address)": {
        "details": "Grants `role` to `account`. If `account` had not been already granted `role`, emits a {RoleGranted} event. Requirements: - the caller must have ``role``'s admin role."
      },
      "hasRole(uint256,address)": {
        "details": "Returns `true` if `account` has been granted `role`."
      },
      "renounceRole(uint256,address)": {
        "details": "Revokes `role` from the calling account. Roles are often managed via {grantRole} and {revokeRole}: this function's purpose is to provide a mechanism for accounts to lose their privileges if they are compromised (such as when a trusted device is misplaced). If the calling account had been granted `role`, emits a {RoleRevoked} event. Requirements: - the caller must be `account`."
      },
      "revokeRole(uint256,address)": {
        "details": "Revokes `role` from `account`. If `account` had been granted `role`, emits a {RoleRevoked} event. Requirements: - the caller must have ``role``'s admin role."
      }
    },
    "version": 1
  },
  "userdoc": {
    "kind": "user",
    "methods": {},
    "version": 1
  }
}