{
  "contractName": "Character",
  "abi": [
    {
      "inputs": [
        {
          "internalType": "string",
          "name": "name",
          "type": "string"
        },
        {
          "internalType": "string",
          "name": "symbol",
          "type": "string"
        },
        {
          "internalType": "contract Utils",
          "name": "_ut",
          "type": "address"
        }
      ],
      "stateMutability": "nonpayable",
      "type": "constructor"
    },
    {
      "anonymous": false,
      "inputs": [
        {
          "indexed": true,
          "internalType": "address",
          "name": "owner",
          "type": "address"
        },
        {
          "indexed": true,
          "internalType": "address",
          "name": "approved",
          "type": "address"
        },
        {
          "indexed": true,
          "internalType": "uint256",
          "name": "tokenId",
          "type": "uint256"
        }
      ],
      "name": "Approval",
      "type": "event"
    },
    {
      "anonymous": false,
      "inputs": [
        {
          "indexed": true,
          "internalType": "address",
          "name": "owner",
          "type": "address"
        },
        {
          "indexed": true,
          "internalType": "address",
          "name": "operator",
          "type": "address"
        },
        {
          "indexed": false,
          "internalType": "bool",
          "name": "approved",
          "type": "bool"
        }
      ],
      "name": "ApprovalForAll",
      "type": "event"
    },
    {
      "anonymous": false,
      "inputs": [
        {
          "indexed": true,
          "internalType": "uint256",
          "name": "role",
          "type": "uint256"
        },
        {
          "indexed": true,
          "internalType": "uint256",
          "name": "previousAdminRole",
          "type": "uint256"
        },
        {
          "indexed": true,
          "internalType": "uint256",
          "name": "newAdminRole",
          "type": "uint256"
        }
      ],
      "name": "RoleAdminChanged",
      "type": "event"
    },
    {
      "anonymous": false,
      "inputs": [
        {
          "indexed": true,
          "internalType": "uint256",
          "name": "role",
          "type": "uint256"
        },
        {
          "indexed": true,
          "internalType": "address",
          "name": "account",
          "type": "address"
        },
        {
          "indexed": true,
          "internalType": "address",
          "name": "sender",
          "type": "address"
        }
      ],
      "name": "RoleGranted",
      "type": "event"
    },
    {
      "anonymous": false,
      "inputs": [
        {
          "indexed": true,
          "internalType": "uint256",
          "name": "role",
          "type": "uint256"
        },
        {
          "indexed": true,
          "internalType": "address",
          "name": "account",
          "type": "address"
        },
        {
          "indexed": true,
          "internalType": "address",
          "name": "sender",
          "type": "address"
        }
      ],
      "name": "RoleRevoked",
      "type": "event"
    },
    {
      "anonymous": false,
      "inputs": [
        {
          "indexed": true,
          "internalType": "address",
          "name": "from",
          "type": "address"
        },
        {
          "indexed": true,
          "internalType": "address",
          "name": "to",
          "type": "address"
        },
        {
          "indexed": true,
          "internalType": "uint256",
          "name": "tokenId",
          "type": "uint256"
        }
      ],
      "name": "Transfer",
      "type": "event"
    },
    {
      "inputs": [],
      "name": "DEFAULT_ADMIN_ROLE",
      "outputs": [
        {
          "internalType": "uint256",
          "name": "",
          "type": "uint256"
        }
      ],
      "stateMutability": "view",
      "type": "function"
    },
    {
      "inputs": [],
      "name": "DEFAULT_CORE_ROLE",
      "outputs": [
        {
          "internalType": "uint256",
          "name": "",
          "type": "uint256"
        }
      ],
      "stateMutability": "view",
      "type": "function"
    },
    {
      "inputs": [
        {
          "internalType": "address",
          "name": "to",
          "type": "address"
        },
        {
          "internalType": "uint256",
          "name": "tokenId",
          "type": "uint256"
        }
      ],
      "name": "approve",
      "outputs": [],
      "stateMutability": "nonpayable",
      "type": "function"
    },
    {
      "inputs": [
        {
          "internalType": "address",
          "name": "owner",
          "type": "address"
        }
      ],
      "name": "balanceOf",
      "outputs": [
        {
          "internalType": "uint256",
          "name": "",
          "type": "uint256"
        }
      ],
      "stateMutability": "view",
      "type": "function"
    },
    {
      "inputs": [
        {
          "internalType": "uint256",
          "name": "tokenId",
          "type": "uint256"
        }
      ],
      "name": "getApproved",
      "outputs": [
        {
          "internalType": "address",
          "name": "",
          "type": "address"
        }
      ],
      "stateMutability": "view",
      "type": "function"
    },
    {
      "inputs": [
        {
          "internalType": "uint256",
          "name": "role",
          "type": "uint256"
        }
      ],
      "name": "getRoleAdmin",
      "outputs": [
        {
          "internalType": "uint256",
          "name": "",
          "type": "uint256"
        }
      ],
      "stateMutability": "view",
      "type": "function"
    },
    {
      "inputs": [
        {
          "internalType": "uint256",
          "name": "role",
          "type": "uint256"
        },
        {
          "internalType": "address",
          "name": "account",
          "type": "address"
        }
      ],
      "name": "grantRole",
      "outputs": [],
      "stateMutability": "nonpayable",
      "type": "function"
    },
    {
      "inputs": [
        {
          "internalType": "uint256",
          "name": "role",
          "type": "uint256"
        },
        {
          "internalType": "address",
          "name": "account",
          "type": "address"
        }
      ],
      "name": "hasRole",
      "outputs": [
        {
          "internalType": "bool",
          "name": "",
          "type": "bool"
        }
      ],
      "stateMutability": "view",
      "type": "function"
    },
    {
      "inputs": [
        {
          "internalType": "address",
          "name": "owner",
          "type": "address"
        },
        {
          "internalType": "address",
          "name": "operator",
          "type": "address"
        }
      ],
      "name": "isApprovedForAll",
      "outputs": [
        {
          "internalType": "bool",
          "name": "",
          "type": "bool"
        }
      ],
      "stateMutability": "view",
      "type": "function"
    },
    {
      "inputs": [],
      "name": "name",
      "outputs": [
        {
          "internalType": "string",
          "name": "",
          "type": "string"
        }
      ],
      "stateMutability": "view",
      "type": "function"
    },
    {
      "inputs": [
        {
          "internalType": "uint256",
          "name": "tokenId",
          "type": "uint256"
        }
      ],
      "name": "ownerOf",
      "outputs": [
        {
          "internalType": "address",
          "name": "",
          "type": "address"
        }
      ],
      "stateMutability": "view",
      "type": "function"
    },
    {
      "inputs": [
        {
          "internalType": "uint256",
          "name": "role",
          "type": "uint256"
        },
        {
          "internalType": "address",
          "name": "account",
          "type": "address"
        }
      ],
      "name": "renounceRole",
      "outputs": [],
      "stateMutability": "nonpayable",
      "type": "function"
    },
    {
      "inputs": [
        {
          "internalType": "uint256",
          "name": "role",
          "type": "uint256"
        },
        {
          "internalType": "address",
          "name": "account",
          "type": "address"
        }
      ],
      "name": "revokeRole",
      "outputs": [],
      "stateMutability": "nonpayable",
      "type": "function"
    },
    {
      "inputs": [
        {
          "internalType": "address",
          "name": "from",
          "type": "address"
        },
        {
          "internalType": "address",
          "name": "to",
          "type": "address"
        },
        {
          "internalType": "uint256",
          "name": "tokenId",
          "type": "uint256"
        }
      ],
      "name": "safeTransferFrom",
      "outputs": [],
      "stateMutability": "nonpayable",
      "type": "function"
    },
    {
      "inputs": [
        {
          "internalType": "address",
          "name": "from",
          "type": "address"
        },
        {
          "internalType": "address",
          "name": "to",
          "type": "address"
        },
        {
          "internalType": "uint256",
          "name": "tokenId",
          "type": "uint256"
        },
        {
          "internalType": "bytes",
          "name": "_data",
          "type": "bytes"
        }
      ],
      "name": "safeTransferFrom",
      "outputs": [],
      "stateMutability": "nonpayable",
      "type": "function"
    },
    {
      "inputs": [
        {
          "internalType": "address",
          "name": "operator",
          "type": "address"
        },
        {
          "internalType": "bool",
          "name": "approved",
          "type": "bool"
        }
      ],
      "name": "setApprovalForAll",
      "outputs": [],
      "stateMutability": "nonpayable",
      "type": "function"
    },
    {
      "inputs": [
        {
          "internalType": "bytes4",
          "name": "interfaceId",
          "type": "bytes4"
        }
      ],
      "name": "supportsInterface",
      "outputs": [
        {
          "internalType": "bool",
          "name": "",
          "type": "bool"
        }
      ],
      "stateMutability": "view",
      "type": "function"
    },
    {
      "inputs": [],
      "name": "symbol",
      "outputs": [
        {
          "internalType": "string",
          "name": "",
          "type": "string"
        }
      ],
      "stateMutability": "view",
      "type": "function"
    },
    {
      "inputs": [
        {
          "internalType": "uint256",
          "name": "tokenId",
          "type": "uint256"
        }
      ],
      "name": "tokenURI",
      "outputs": [
        {
          "internalType": "string",
          "name": "",
          "type": "string"
        }
      ],
      "stateMutability": "view",
      "type": "function"
    },
    {
      "inputs": [
        {
          "internalType": "address",
          "name": "from",
          "type": "address"
        },
        {
          "internalType": "address",
          "name": "to",
          "type": "address"
        },
        {
          "internalType": "uint256",
          "name": "tokenId",
          "type": "uint256"
        }
      ],
      "name": "transferFrom",
      "outputs": [],
      "stateMutability": "nonpayable",
      "type": "function"
    },
    {
      "inputs": [
        {
          "internalType": "address",
          "name": "_characterUtils",
          "type": "address"
        },
        {
          "internalType": "address",
          "name": "_ranking",
          "type": "address"
        },
        {
          "internalType": "address",
          "name": "_Core",
          "type": "address"
        },
        {
          "internalType": "address",
          "name": "_CoreIn",
          "type": "address"
        },
        {
          "internalType": "address",
          "name": "_Robbery",
          "type": "address"
        },
        {
          "internalType": "address",
          "name": "_PvP",
          "type": "address"
        },
        {
          "internalType": "address",
          "name": "_Equipment",
          "type": "address"
        },
        {
          "internalType": "address",
          "name": "_HospitalPrice",
          "type": "address"
        }
      ],
      "name": "Initialize",
      "outputs": [],
      "stateMutability": "nonpayable",
      "type": "function"
    },
    {
      "inputs": [],
      "name": "getIndexSlot",
      "outputs": [
        {
          "internalType": "uint256",
          "name": "",
          "type": "uint256"
        }
      ],
      "stateMutability": "view",
      "type": "function"
    },
    {
      "inputs": [
        {
          "internalType": "address",
          "name": "newAdmin",
          "type": "address"
        }
      ],
      "name": "changeAdmin",
      "outputs": [],
      "stateMutability": "nonpayable",
      "type": "function"
    },
    {
      "inputs": [
        {
          "internalType": "uint256",
          "name": "tokenId",
          "type": "uint256"
        }
      ],
      "name": "getCharacter",
      "outputs": [
        {
          "components": [
            {
              "internalType": "string",
              "name": "name",
              "type": "string"
            },
            {
              "internalType": "uint256",
              "name": "class",
              "type": "uint256"
            },
            {
              "internalType": "uint256",
              "name": "rarity",
              "type": "uint256"
            },
            {
              "internalType": "uint256",
              "name": "respect",
              "type": "uint256"
            },
            {
              "internalType": "uint256",
              "name": "vicio",
              "type": "uint256"
            },
            {
              "internalType": "uint256",
              "name": "power",
              "type": "uint256"
            },
            {
              "internalType": "uint256",
              "name": "level",
              "type": "uint256"
            },
            {
              "internalType": "uint256",
              "name": "exp",
              "type": "uint256"
            },
            {
              "internalType": "uint256",
              "name": "maxHp",
              "type": "uint256"
            },
            {
              "internalType": "uint256",
              "name": "curHp",
              "type": "uint256"
            },
            {
              "internalType": "uint256",
              "name": "_str",
              "type": "uint256"
            },
            {
              "internalType": "uint256",
              "name": "_int",
              "type": "uint256"
            },
            {
              "internalType": "uint256",
              "name": "_cha",
              "type": "uint256"
            },
            {
              "internalType": "uint256",
              "name": "_res",
              "type": "uint256"
            },
            {
              "internalType": "uint256",
              "name": "lastExpedition",
              "type": "uint256"
            },
            {
              "internalType": "uint256",
              "name": "lastExpeditionResult",
              "type": "uint256"
            },
            {
              "internalType": "uint256",
              "name": "lastExpeditionRoll",
              "type": "uint256"
            },
            {
              "internalType": "uint256",
              "name": "prisonTime",
              "type": "uint256"
            },
            {
              "internalType": "uint256",
              "name": "nurseTime",
              "type": "uint256"
            },
            {
              "internalType": "uint256",
              "name": "coleteTime",
              "type": "uint256"
            },
            {
              "internalType": "uint256",
              "name": "lastPvP",
              "type": "uint256"
            },
            {
              "internalType": "uint256",
              "name": "lastPvPResult",
              "type": "uint256"
            },
            {
              "internalType": "uint256",
              "name": "lastPvPRoll",
              "type": "uint256"
            },
            {
              "internalType": "uint256",
              "name": "pvpDefeatCount",
              "type": "uint256"
            },
            {
              "internalType": "uint256",
              "name": "pvpDefeatTime",
              "type": "uint256"
            },
            {
              "internalType": "uint256",
              "name": "guildId",
              "type": "uint256"
            },
            {
              "internalType": "uint256",
              "name": "weaponId",
              "type": "uint256"
            },
            {
              "internalType": "uint256",
              "name": "seasonId",
              "type": "uint256"
            },
            {
              "internalType": "uint256",
              "name": "prisonPrice",
              "type": "uint256"
            },
            {
              "internalType": "uint256",
              "name": "hospitalPrice",
              "type": "uint256"
            },
            {
              "internalType": "address",
              "name": "owner",
              "type": "address"
            },
            {
              "internalType": "uint256",
              "name": "tokenId",
              "type": "uint256"
            }
          ],
          "internalType": "struct CharacterDetail",
          "name": "",
          "type": "tuple"
        }
      ],
      "stateMutability": "view",
      "type": "function"
    },
    {
      "inputs": [
        {
          "internalType": "uint256",
          "name": "tokenId",
          "type": "uint256"
        },
        {
          "components": [
            {
              "internalType": "string",
              "name": "name",
              "type": "string"
            },
            {
              "internalType": "uint256",
              "name": "class",
              "type": "uint256"
            },
            {
              "internalType": "uint256",
              "name": "rarity",
              "type": "uint256"
            },
            {
              "internalType": "uint256",
              "name": "respect",
              "type": "uint256"
            },
            {
              "internalType": "uint256",
              "name": "vicio",
              "type": "uint256"
            },
            {
              "internalType": "uint256",
              "name": "power",
              "type": "uint256"
            },
            {
              "internalType": "uint256",
              "name": "level",
              "type": "uint256"
            },
            {
              "internalType": "uint256",
              "name": "exp",
              "type": "uint256"
            },
            {
              "internalType": "uint256",
              "name": "maxHp",
              "type": "uint256"
            },
            {
              "internalType": "uint256",
              "name": "curHp",
              "type": "uint256"
            },
            {
              "internalType": "uint256",
              "name": "_str",
              "type": "uint256"
            },
            {
              "internalType": "uint256",
              "name": "_int",
              "type": "uint256"
            },
            {
              "internalType": "uint256",
              "name": "_cha",
              "type": "uint256"
            },
            {
              "internalType": "uint256",
              "name": "_res",
              "type": "uint256"
            },
            {
              "internalType": "uint256",
              "name": "lastExpedition",
              "type": "uint256"
            },
            {
              "internalType": "uint256",
              "name": "lastExpeditionResult",
              "type": "uint256"
            },
            {
              "internalType": "uint256",
              "name": "lastExpeditionRoll",
              "type": "uint256"
            },
            {
              "internalType": "uint256",
              "name": "prisonTime",
              "type": "uint256"
            },
            {
              "internalType": "uint256",
              "name": "nurseTime",
              "type": "uint256"
            },
            {
              "internalType": "uint256",
              "name": "coleteTime",
              "type": "uint256"
            },
            {
              "internalType": "uint256",
              "name": "lastPvP",
              "type": "uint256"
            },
            {
              "internalType": "uint256",
              "name": "lastPvPResult",
              "type": "uint256"
            },
            {
              "internalType": "uint256",
              "name": "lastPvPRoll",
              "type": "uint256"
            },
            {
              "internalType": "uint256",
              "name": "pvpDefeatCount",
              "type": "uint256"
            },
            {
              "internalType": "uint256",
              "name": "pvpDefeatTime",
              "type": "uint256"
            },
            {
              "internalType": "uint256",
              "name": "guildId",
              "type": "uint256"
            },
            {
              "internalType": "uint256",
              "name": "weaponId",
              "type": "uint256"
            },
            {
              "internalType": "uint256",
              "name": "seasonId",
              "type": "uint256"
            },
            {
              "internalType": "uint256",
              "name": "prisonPrice",
              "type": "uint256"
            },
            {
              "internalType": "uint256",
              "name": "hospitalPrice",
              "type": "uint256"
            },
            {
              "internalType": "address",
              "name": "owner",
              "type": "address"
            },
            {
              "internalType": "uint256",
              "name": "tokenId",
              "type": "uint256"
            }
          ],
          "internalType": "struct CharacterDetail",
          "name": "_char",
          "type": "tuple"
        }
      ],
      "name": "UpdateCharacter",
      "outputs": [],
      "stateMutability": "nonpayable",
      "type": "function"
    },
    {
      "inputs": [],
      "name": "getContractOwner",
      "outputs": [
        {
          "internalType": "address",
          "name": "",
          "type": "address"
        }
      ],
      "stateMutability": "view",
      "type": "function"
    },
    {
      "inputs": [],
      "name": "getTotalSupply",
      "outputs": [
        {
          "internalType": "uint256",
          "name": "",
          "type": "uint256"
        }
      ],
      "stateMutability": "view",
      "type": "function"
    },
    {
      "inputs": [
        {
          "internalType": "address",
          "name": "addr",
          "type": "address"
        },
        {
          "internalType": "string",
          "name": "_name",
          "type": "string"
        }
      ],
      "name": "mint",
      "outputs": [],
      "stateMutability": "nonpayable",
      "type": "function"
    },
    {
      "inputs": [
        {
          "internalType": "address",
          "name": "from",
          "type": "address"
        },
        {
          "internalType": "address",
          "name": "to",
          "type": "address"
        },
        {
          "internalType": "uint256[]",
          "name": "tokenIds",
          "type": "uint256[]"
        }
      ],
      "name": "transferFromAll",
      "outputs": [],
      "stateMutability": "nonpayable",
      "type": "function"
    },
    {
      "inputs": [
        {
          "internalType": "uint256",
          "name": "tokenId",
          "type": "uint256"
        }
      ],
      "name": "exists",
      "outputs": [
        {
          "internalType": "bool",
          "name": "",
          "type": "bool"
        }
      ],
      "stateMutability": "view",
      "type": "function"
    },
    {
      "inputs": [],
      "name": "burnAllCharactersInSeason",
      "outputs": [],
      "stateMutability": "nonpayable",
      "type": "function"
    },
    {
      "inputs": [
        {
          "internalType": "uint256",
          "name": "tokenId",
          "type": "uint256"
        }
      ],
      "name": "burn",
      "outputs": [],
      "stateMutability": "nonpayable",
      "type": "function"
    }
  ],
  "bytecode": "0x608060405260006009556001600b553480156200001b57600080fd5b5060405162005882380380620058828339818101604052810190620000419190620006a6565b828281600090805190602001906200005b929190620003e0565b50806001908051906020019062000074929190620003e0565b50505033600760006101000a81548173ffffffffffffffffffffffffffffffffffffffff021916908373ffffffffffffffffffffffffffffffffffffffff16021790555073bf752eb4b851b241a36e22767b304ef28242198a600860006101000a81548173ffffffffffffffffffffffffffffffffffffffff021916908373ffffffffffffffffffffffffffffffffffffffff16021790555080600a60006101000a81548173ffffffffffffffffffffffffffffffffffffffff021916908373ffffffffffffffffffffffffffffffffffffffff16021790555062000161601e80620001e160201b60201c565b62000175601f601e620001e160201b60201c565b62000188601e336200024560201b60201c565b620001bd601e600860009054906101000a900473ffffffffffffffffffffffffffffffffffffffff166200024560201b60201c565b6000600c60006101000a81548160ff021916908315150217905550505050620007a5565b6000620001f4836200025b60201b60201c565b90508160066000858152602001908152602001600020600101819055508181847f6620dedee755c284a7e221a3279487b734830c1f76c026c797b4d019c6b4b2f460405160405180910390a4505050565b6200025782826200027b60201b60201c565b5050565b600060066000838152602001908152602001600020600101549050919050565b6200028d82826200036d60201b60201c565b620003695760016006600084815260200190815260200160002060000160008373ffffffffffffffffffffffffffffffffffffffff1673ffffffffffffffffffffffffffffffffffffffff16815260200190815260200160002060006101000a81548160ff0219169083151502179055506200030e620003d860201b60201c565b73ffffffffffffffffffffffffffffffffffffffff168173ffffffffffffffffffffffffffffffffffffffff16837f1ec1667fba5e43c5c76fff54e76d7a4a20a4fecf7b49724ad8d52a3f726e9dbd60405160405180910390a45b5050565b60006006600084815260200190815260200160002060000160008373ffffffffffffffffffffffffffffffffffffffff1673ffffffffffffffffffffffffffffffffffffffff16815260200190815260200160002060009054906101000a900460ff16905092915050565b600033905090565b828054620003ee906200076f565b90600052602060002090601f0160209004810192826200041257600085556200045e565b82601f106200042d57805160ff19168380011785556200045e565b828001600101855582156200045e579182015b828111156200045d57825182559160200191906001019062000440565b5b5090506200046d919062000471565b5090565b5b808211156200048c57600081600090555060010162000472565b5090565b6000604051905090565b600080fd5b600080fd5b600080fd5b600080fd5b6000601f19601f8301169050919050565b7f4e487b7100000000000000000000000000000000000000000000000000000000600052604160045260246000fd5b620004f982620004ae565b810181811067ffffffffffffffff821117156200051b576200051a620004bf565b5b80604052505050565b60006200053062000490565b90506200053e8282620004ee565b919050565b600067ffffffffffffffff821115620005615762000560620004bf565b5b6200056c82620004ae565b9050602081019050919050565b60005b83811015620005995780820151818401526020810190506200057c565b83811115620005a9576000848401525b50505050565b6000620005c6620005c08462000543565b62000524565b905082815260208101848484011115620005e557620005e4620004a9565b5b620005f284828562000579565b509392505050565b600082601f830112620006125762000611620004a4565b5b815162000624848260208601620005af565b91505092915050565b600073ffffffffffffffffffffffffffffffffffffffff82169050919050565b60006200065a826200062d565b9050919050565b60006200066e826200064d565b9050919050565b620006808162000661565b81146200068c57600080fd5b50565b600081519050620006a08162000675565b92915050565b600080600060608486031215620006c257620006c16200049a565b5b600084015167ffffffffffffffff811115620006e357620006e26200049f565b5b620006f186828701620005fa565b935050602084015167ffffffffffffffff8111156200071557620007146200049f565b5b6200072386828701620005fa565b925050604062000736868287016200068f565b9150509250925092565b7f4e487b7100000000000000000000000000000000000000000000000000000000600052602260045260246000fd5b600060028204905060018216806200078857607f821691505b602082108114156200079f576200079e62000740565b5b50919050565b6150cd80620007b56000396000f3fe608060405234801561001057600080fd5b50600436106101f05760003560e01c806370a082311161010f578063c87b56dd116100a2578063e985e9c511610071578063e985e9c51461058d578063ec2606c0146105bd578063f8973b9a146105ed578063fb2990ad14610609576101f0565b8063c87b56dd14610507578063d0def52114610537578063dabb053114610553578063e01d6be614610583576101f0565b8063a217fddf116100de578063a217fddf14610493578063a22cb465146104b1578063b88d4fde146104cd578063c4e41b22146104e9576101f0565b806370a082311461040d5780637ee82bee1461043d5780638f2839701461045957806395d89b4114610475576101f0565b806323b872dd116101875780634c2ac399116101565780634c2ac399146103735780634f558e791461038f5780636352211e146103bf5780636f45e4e5146103ef576101f0565b806323b872dd1461030157806342842e0e1461031d57806342966c6814610339578063442890d514610355576101f0565b80631ae4a969116101c35780631ae4a9691461028f5780631d0b19e7146102ad5780631fe5f589146102c95780632308d236146102e5576101f0565b806301ffc9a7146101f557806306fdde0314610225578063081812fc14610243578063095ea7b314610273575b600080fd5b61020f600480360381019061020a91906131c8565b610639565b60405161021c9190613210565b60405180910390f35b61022d61071b565b60405161023a91906132c4565b60405180910390f35b61025d6004803603810190610258919061331c565b6107ad565b60405161026a919061338a565b60405180910390f35b61028d600480360381019061028891906133d1565b610832565b005b61029761094a565b6040516102a49190613420565b60405180910390f35b6102c760048036038101906102c2919061343b565b610998565b005b6102e360048036038101906102de919061343b565b6109c1565b005b6102ff60048036038101906102fa919061343b565b6109ea565b005b61031b6004803603810190610316919061347b565b610a6d565b005b6103376004803603810190610332919061347b565b610acd565b005b610353600480360381019061034e919061331c565b610aed565b005b61035d610b0b565b60405161036a919061338a565b60405180910390f35b61038d60048036038101906103889190613903565b610b35565b005b6103a960048036038101906103a4919061331c565b610d52565b6040516103b69190613210565b60405180910390f35b6103d960048036038101906103d4919061331c565b610d64565b6040516103e6919061338a565b60405180910390f35b6103f7610e16565b6040516104049190613420565b60405180910390f35b6104276004803603810190610422919061395f565b610e1b565b6040516104349190613420565b60405180910390f35b61045760048036038101906104529190613a54565b610ed3565b005b610473600480360381019061046e919061395f565b610f40565b005b61047d610f98565b60405161048a91906132c4565b60405180910390f35b61049b61102a565b6040516104a89190613420565b60405180910390f35b6104cb60048036038101906104c69190613aef565b61102f565b005b6104e760048036038101906104e29190613bd0565b6111b0565b005b6104f1611212565b6040516104fe9190613420565b60405180910390f35b610521600480360381019061051c919061331c565b61121c565b60405161052e91906132c4565b60405180910390f35b610551600480360381019061054c9190613c53565b6112c3565b005b61056d6004803603810190610568919061331c565b611ac3565b60405161057a9190613fbf565b60405180910390f35b61058b611d05565b005b6105a760048036038101906105a29190613fe1565b611d75565b6040516105b49190613210565b60405180910390f35b6105d760048036038101906105d2919061343b565b611e09565b6040516105e49190613210565b60405180910390f35b61060760048036038101906106029190614021565b611e74565b005b610623600480360381019061061e919061331c565b611f19565b6040516106309190613420565b60405180910390f35b60007f80ac58cd000000000000000000000000000000000000000000000000000000007bffffffffffffffffffffffffffffffffffffffffffffffffffffffff1916827bffffffffffffffffffffffffffffffffffffffffffffffffffffffff1916148061070457507f5b5e139f000000000000000000000000000000000000000000000000000000007bffffffffffffffffffffffffffffffffffffffffffffffffffffffff1916827bffffffffffffffffffffffffffffffffffffffffffffffffffffffff1916145b80610714575061071382611f39565b5b9050919050565b60606000805461072a90614106565b80601f016020809104026020016040519081016040528092919081815260200182805461075690614106565b80156107a35780601f10610778576101008083540402835291602001916107a3565b820191906000526020600020905b81548152906001019060200180831161078657829003601f168201915b5050505050905090565b60006107b882611fa3565b6107f7576040517f08c379a00000000000000000000000000000000000000000000000000000000081526004016107ee906141aa565b60405180910390fd5b6004600083815260200190815260200160002060009054906101000a900473ffffffffffffffffffffffffffffffffffffffff169050919050565b600061083d82610d64565b90508073ffffffffffffffffffffffffffffffffffffffff168373ffffffffffffffffffffffffffffffffffffffff1614156108ae576040517f08c379a00000000000000000000000000000000000000000000000000000000081526004016108a59061423c565b60405180910390fd5b8073ffffffffffffffffffffffffffffffffffffffff166108cd61200f565b73ffffffffffffffffffffffffffffffffffffffff1614806108fc57506108fb816108f661200f565b611d75565b5b61093b576040517f08c379a0000000000000000000000000000000000000000000000000000000008152600401610932906142ce565b60405180910390fd5b6109458383612017565b505050565b600080600b5490506000600190505b600b54811161098f5761096b81611fa3565b61097c578091508192505050610995565b80806109879061431d565b915050610959565b50809150505b90565b6109a182611f19565b6109b2816109ad61200f565b6120d0565b6109bc838361216a565b505050565b6109ca82611f19565b6109db816109d661200f565b6120d0565b6109e5838361224c565b505050565b6109f261200f565b73ffffffffffffffffffffffffffffffffffffffff168173ffffffffffffffffffffffffffffffffffffffff1614610a5f576040517f08c379a0000000000000000000000000000000000000000000000000000000008152600401610a56906143d8565b60405180910390fd5b610a69828261216a565b5050565b610a7e610a7861200f565b8261232d565b610abd576040517f08c379a0000000000000000000000000000000000000000000000000000000008152600401610ab49061446a565b60405180910390fd5b610ac883838361240b565b505050565b610ae8838383604051806020016040528060008152506111b0565b505050565b610aff601f610afa61200f565b6120d0565b610b0881612667565b50565b6000600760009054906101000a900473ffffffffffffffffffffffffffffffffffffffff16905090565b610b47601f610b4261200f565b6120d0565b610b5082611fa3565b610b8f576040517f08c379a0000000000000000000000000000000000000000000000000000000008152600401610b86906144d6565b60405180910390fd5b80600d60008481526020019081526020016000206000820151816000019080519060200190610bbf929190612fb6565b506020820151816001015560408201518160020155606082015181600301556080820151816004015560a0820151816005015560c0820151816006015560e082015181600701556101008201518160080155610120820151816009015561014082015181600a015561016082015181600b015561018082015181600c01556101a082015181600d01556101c082015181600e01556101e082015181600f0155610200820151816010015561022082015181601101556102408201518160120155610260820151816013015561028082015181601401556102a082015181601501556102c082015181601601556102e082015181601701556103008201518160180155610320820151816019015561034082015181601a015561036082015181601b015561038082015181601c01556103a082015181601d01556103c082015181601e0160006101000a81548173ffffffffffffffffffffffffffffffffffffffff021916908373ffffffffffffffffffffffffffffffffffffffff1602179055506103e082015181601f01559050505050565b6000610d5d82611fa3565b9050919050565b6000806002600084815260200190815260200160002060009054906101000a900473ffffffffffffffffffffffffffffffffffffffff169050600073ffffffffffffffffffffffffffffffffffffffff168173ffffffffffffffffffffffffffffffffffffffff161415610e0d576040517f08c379a0000000000000000000000000000000000000000000000000000000008152600401610e0490614568565b60405180910390fd5b80915050919050565b601f81565b60008073ffffffffffffffffffffffffffffffffffffffff168273ffffffffffffffffffffffffffffffffffffffff161415610e8c576040517f08c379a0000000000000000000000000000000000000000000000000000000008152600401610e83906145fa565b60405180910390fd5b600360008373ffffffffffffffffffffffffffffffffffffffff1673ffffffffffffffffffffffffffffffffffffffff168152602001908152602001600020549050919050565b601f610ee681610ee161200f565b6120d0565b6000825111610ef457610f3a565b60005b8251811015610f3857610f258585858481518110610f1857610f1761461a565b5b6020026020010151610a6d565b8080610f309061431d565b915050610ef7565b505b50505050565b601e610f5381610f4e61200f565b6120d0565b81600760006101000a81548173ffffffffffffffffffffffffffffffffffffffff021916908373ffffffffffffffffffffffffffffffffffffffff1602179055505050565b606060018054610fa790614106565b80601f0160208091040260200160405190810160405280929190818152602001828054610fd390614106565b80156110205780601f10610ff557610100808354040283529160200191611020565b820191906000526020600020905b81548152906001019060200180831161100357829003601f168201915b5050505050905090565b601e81565b61103761200f565b73ffffffffffffffffffffffffffffffffffffffff168273ffffffffffffffffffffffffffffffffffffffff1614156110a5576040517f08c379a000000000000000000000000000000000000000000000000000000000815260040161109c90614695565b60405180910390fd5b80600560006110b261200f565b73ffffffffffffffffffffffffffffffffffffffff1673ffffffffffffffffffffffffffffffffffffffff16815260200190815260200160002060008473ffffffffffffffffffffffffffffffffffffffff1673ffffffffffffffffffffffffffffffffffffffff16815260200190815260200160002060006101000a81548160ff0219169083151502179055508173ffffffffffffffffffffffffffffffffffffffff1661115f61200f565b73ffffffffffffffffffffffffffffffffffffffff167f17307eab39ab6107e8899845ad3d59bd9653f200f220920489ca2b5937696c31836040516111a49190613210565b60405180910390a35050565b6111c16111bb61200f565b8361232d565b611200576040517f08c379a00000000000000000000000000000000000000000000000000000000081526004016111f79061446a565b60405180910390fd5b61120c84848484612778565b50505050565b6000600b54905090565b606061122782611fa3565b611266576040517f08c379a000000000000000000000000000000000000000000000000000000000815260040161125d90614727565b60405180910390fd5b60006112706127d4565b9050600081511161129057604051806020016040528060008152506112bb565b8061129a846127eb565b6040516020016112ab929190614783565b6040516020818303038152906040525b915050919050565b6112d5601f6112d061200f565b6120d0565b6000600a60009054906101000a900473ffffffffffffffffffffffffffffffffffffffff1673ffffffffffffffffffffffffffffffffffffffff16632530c90560646040518263ffffffff1660e01b815260040161133391906147ec565b6020604051808303816000875af1158015611352573d6000803e3d6000fd5b505050506040513d601f19601f82011682018060405250810190611376919061481c565b9050600060019050600060019050600080600080601987116113ab576005935060039250600291506004905060019550611404565b603287116113cc576002935060059250600491506003905060029550611403565b604b87116113ed576002935060049250600591506003905060039550611402565b60049350600392506002915060059050600495505b5b5b6000600a60009054906101000a900473ffffffffffffffffffffffffffffffffffffffff1673ffffffffffffffffffffffffffffffffffffffff16632530c90560646040518263ffffffff1660e01b815260040161146291906147ec565b6020604051808303816000875af1158015611481573d6000803e3d6000fd5b505050506040513d601f19601f820116820180604052508101906114a5919061481c565b9050603c81116114b857600195506114e1565b605981116114c957600295506114e0565b606081116114da57600395506114df565b600495505b5b5b6000600187141561159e57600a60009054906101000a900473ffffffffffffffffffffffffffffffffffffffff1673ffffffffffffffffffffffffffffffffffffffff16632530c90560e16040518263ffffffff1660e01b81526004016115489190614884565b6020604051808303816000875af1158015611567573d6000803e3d6000fd5b505050506040513d601f19601f8201168201806040525081019061158b919061481c565b604b611597919061489f565b90506117c8565b600287141561165a57600a60009054906101000a900473ffffffffffffffffffffffffffffffffffffffff1673ffffffffffffffffffffffffffffffffffffffff16632530c90560fa6040518263ffffffff1660e01b81526004016116039190614930565b6020604051808303816000875af1158015611622573d6000803e3d6000fd5b505050506040513d601f19601f82011682018060405250810190611646919061481c565b61012c611653919061489f565b90506117c7565b600387141561171657600a60009054906101000a900473ffffffffffffffffffffffffffffffffffffffff1673ffffffffffffffffffffffffffffffffffffffff16632530c90560fa6040518263ffffffff1660e01b81526004016116bf9190614930565b6020604051808303816000875af11580156116de573d6000803e3d6000fd5b505050506040513d601f19601f82011682018060405250810190611702919061481c565b61022661170f919061489f565b90506117c6565b600a60009054906101000a900473ffffffffffffffffffffffffffffffffffffffff1673ffffffffffffffffffffffffffffffffffffffff16632530c90561012c6040518263ffffffff1660e01b81526004016117739190614986565b6020604051808303816000875af1158015611792573d6000803e3d6000fd5b505050506040513d601f19601f820116820180604052508101906117b6919061481c565b6103206117c3919061489f565b90505b5b5b60006117d261094a565b90506040518061040001604052808c81526020018a8152602001898152602001600281526020016000815260200183815260200160018152602001600081526020016032815260200160328152602001888152602001878152602001868152602001858152602001600081526020016000815260200160008152602001600081526020016000815260200160008152602001600081526020016000815260200160008152602001600081526020016000815260200160008152602001600081526020016000815260200160008152602001600081526020018d73ffffffffffffffffffffffffffffffffffffffff16815260200182815250600d600083815260200190815260200160002060008201518160000190805190602001906118f9929190612fb6565b506020820151816001015560408201518160020155606082015181600301556080820151816004015560a0820151816005015560c0820151816006015560e082015181600701556101008201518160080155610120820151816009015561014082015181600a015561016082015181600b015561018082015181600c01556101a082015181600d01556101c082015181600e01556101e082015181600f0155610200820151816010015561022082015181601101556102408201518160120155610260820151816013015561028082015181601401556102a082015181601501556102c082015181601601556102e082015181601701556103008201518160180155610320820151816019015561034082015181601a015561036082015181601b015561038082015181601c01556103a082015181601d01556103c082015181601e0160006101000a81548173ffffffffffffffffffffffffffffffffffffffff021916908373ffffffffffffffffffffffffffffffffffffffff1602179055506103e082015181601f0155905050611a928c8261294c565b600b54811415611ab557600b6000815480929190611aaf9061431d565b91905055505b505050505050505050505050565b611acb61303c565b600d600083815260200190815260200160002060405180610400016040529081600082018054611afa90614106565b80601f0160208091040260200160405190810160405280929190818152602001828054611b2690614106565b8015611b735780601f10611b4857610100808354040283529160200191611b73565b820191906000526020600020905b815481529060010190602001808311611b5657829003601f168201915b50505050508152602001600182015481526020016002820154815260200160038201548152602001600482015481526020016005820154815260200160068201548152602001600782015481526020016008820154815260200160098201548152602001600a8201548152602001600b8201548152602001600c8201548152602001600d8201548152602001600e8201548152602001600f820154815260200160108201548152602001601182015481526020016012820154815260200160138201548152602001601482015481526020016015820154815260200160168201548152602001601782015481526020016018820154815260200160198201548152602001601a8201548152602001601b8201548152602001601c8201548152602001601d8201548152602001601e820160009054906101000a900473ffffffffffffffffffffffffffffffffffffffff1673ffffffffffffffffffffffffffffffffffffffff1673ffffffffffffffffffffffffffffffffffffffff168152602001601f820154815250509050919050565b611d17601f611d1261200f565b6120d0565b6000600190505b600b54811015611d7257611d3181611fa3565b15611d5f576000600d6000838152602001908152602001600020601b015414611d5e57611d5d81612667565b5b5b8080611d6a9061431d565b915050611d1e565b50565b6000600560008473ffffffffffffffffffffffffffffffffffffffff1673ffffffffffffffffffffffffffffffffffffffff16815260200190815260200160002060008373ffffffffffffffffffffffffffffffffffffffff1673ffffffffffffffffffffffffffffffffffffffff16815260200190815260200160002060009054906101000a900460ff16905092915050565b60006006600084815260200190815260200160002060000160008373ffffffffffffffffffffffffffffffffffffffff1673ffffffffffffffffffffffffffffffffffffffff16815260200190815260200160002060009054906101000a900460ff16905092915050565b60001515600c60009054906101000a900460ff1615151415611f0f57611e9b601f89612b1a565b611ea6601f88612b1a565b611eb1601f87612b1a565b611ebc601f86612b1a565b611ec7601f85612b1a565b611ed2601f84612b1a565b611edd601f83612b1a565b611ee8601f82612b1a565b611ef3601e33612b1a565b6001600c60006101000a81548160ff0219169083151502179055505b5050505050505050565b600060066000838152602001908152602001600020600101549050919050565b60007f01ffc9a7000000000000000000000000000000000000000000000000000000007bffffffffffffffffffffffffffffffffffffffffffffffffffffffff1916827bffffffffffffffffffffffffffffffffffffffffffffffffffffffff1916149050919050565b60008073ffffffffffffffffffffffffffffffffffffffff166002600084815260200190815260200160002060009054906101000a900473ffffffffffffffffffffffffffffffffffffffff1673ffffffffffffffffffffffffffffffffffffffff1614159050919050565b600033905090565b816004600083815260200190815260200160002060006101000a81548173ffffffffffffffffffffffffffffffffffffffff021916908373ffffffffffffffffffffffffffffffffffffffff160217905550808273ffffffffffffffffffffffffffffffffffffffff1661208a83610d64565b73ffffffffffffffffffffffffffffffffffffffff167f8c5be1e5ebec7d5bd14f71427d1e84f3dd0314c0f7b2291e5b200ac8c7c3b92560405160405180910390a45050565b6120da8282611e09565b612166576120ff8173ffffffffffffffffffffffffffffffffffffffff166014612b28565b61210a836020612b28565b60405160200161211b929190614a39565b6040516020818303038152906040526040517f08c379a000000000000000000000000000000000000000000000000000000000815260040161215d91906132c4565b60405180910390fd5b5050565b6121748282611e09565b156122485760006006600084815260200190815260200160002060000160008373ffffffffffffffffffffffffffffffffffffffff1673ffffffffffffffffffffffffffffffffffffffff16815260200190815260200160002060006101000a81548160ff0219169083151502179055506121ed61200f565b73ffffffffffffffffffffffffffffffffffffffff168173ffffffffffffffffffffffffffffffffffffffff16837fe0df21b65c73c27081b8f042a012b124085b41d78d27b7e3c4780f5650f5ebb860405160405180910390a45b5050565b6122568282611e09565b6123295760016006600084815260200190815260200160002060000160008373ffffffffffffffffffffffffffffffffffffffff1673ffffffffffffffffffffffffffffffffffffffff16815260200190815260200160002060006101000a81548160ff0219169083151502179055506122ce61200f565b73ffffffffffffffffffffffffffffffffffffffff168173ffffffffffffffffffffffffffffffffffffffff16837f1ec1667fba5e43c5c76fff54e76d7a4a20a4fecf7b49724ad8d52a3f726e9dbd60405160405180910390a45b5050565b600061233882611fa3565b612377576040517f08c379a000000000000000000000000000000000000000000000000000000000815260040161236e90614ae5565b60405180910390fd5b600061238283610d64565b90508073ffffffffffffffffffffffffffffffffffffffff168473ffffffffffffffffffffffffffffffffffffffff1614806123f157508373ffffffffffffffffffffffffffffffffffffffff166123d9846107ad565b73ffffffffffffffffffffffffffffffffffffffff16145b8061240257506124018185611d75565b5b91505092915050565b8273ffffffffffffffffffffffffffffffffffffffff1661242b82610d64565b73ffffffffffffffffffffffffffffffffffffffff1614612481576040517f08c379a000000000000000000000000000000000000000000000000000000000815260040161247890614b77565b60405180910390fd5b600073ffffffffffffffffffffffffffffffffffffffff168273ffffffffffffffffffffffffffffffffffffffff1614156124f1576040517f08c379a00000000000000000000000000000000000000000000000000000000081526004016124e890614c09565b60405180910390fd5b6124fc838383612d64565b612507600082612017565b6001600360008573ffffffffffffffffffffffffffffffffffffffff1673ffffffffffffffffffffffffffffffffffffffff16815260200190815260200160002060008282546125579190614c29565b925050819055506001600360008473ffffffffffffffffffffffffffffffffffffffff1673ffffffffffffffffffffffffffffffffffffffff16815260200190815260200160002060008282546125ae919061489f565b92505081905550816002600083815260200190815260200160002060006101000a81548173ffffffffffffffffffffffffffffffffffffffff021916908373ffffffffffffffffffffffffffffffffffffffff160217905550808273ffffffffffffffffffffffffffffffffffffffff168473ffffffffffffffffffffffffffffffffffffffff167fddf252ad1be2c89b69c2b068fc378daa952ba7f163c4a11628f55a4df523b3ef60405160405180910390a4505050565b600061267282610d64565b905061268081600084612d64565b61268b600083612017565b6001600360008373ffffffffffffffffffffffffffffffffffffffff1673ffffffffffffffffffffffffffffffffffffffff16815260200190815260200160002060008282546126db9190614c29565b925050819055506002600083815260200190815260200160002060006101000a81549073ffffffffffffffffffffffffffffffffffffffff021916905581600073ffffffffffffffffffffffffffffffffffffffff168273ffffffffffffffffffffffffffffffffffffffff167fddf252ad1be2c89b69c2b068fc378daa952ba7f163c4a11628f55a4df523b3ef60405160405180910390a45050565b61278384848461240b565b61278f84848484612e1b565b6127ce576040517f08c379a00000000000000000000000000000000000000000000000000000000081526004016127c590614ccf565b60405180910390fd5b50505050565b606060405180602001604052806000815250905090565b60606000821415612833576040518060400160405280600181526020017f30000000000000000000000000000000000000000000000000000000000000008152509050612947565b600082905060005b6000821461286557808061284e9061431d565b915050600a8261285e9190614d1e565b915061283b565b60008167ffffffffffffffff811115612881576128806134d3565b5b6040519080825280601f01601f1916602001820160405280156128b35781602001600182028036833780820191505090505b5090505b60008514612940576001826128cc9190614c29565b9150600a856128db9190614d4f565b60306128e7919061489f565b60f81b8183815181106128fd576128fc61461a565b5b60200101907effffffffffffffffffffffffffffffffffffffffffffffffffffffffffffff1916908160001a905350600a856129399190614d1e565b94506128b7565b8093505050505b919050565b600073ffffffffffffffffffffffffffffffffffffffff168273ffffffffffffffffffffffffffffffffffffffff1614156129bc576040517f08c379a00000000000000000000000000000000000000000000000000000000081526004016129b390614dcc565b60405180910390fd5b6129c581611fa3565b15612a05576040517f08c379a00000000000000000000000000000000000000000000000000000000081526004016129fc90614e38565b60405180910390fd5b612a1160008383612d64565b6001600360008473ffffffffffffffffffffffffffffffffffffffff1673ffffffffffffffffffffffffffffffffffffffff1681526020019081526020016000206000828254612a61919061489f565b92505081905550816002600083815260200190815260200160002060006101000a81548173ffffffffffffffffffffffffffffffffffffffff021916908373ffffffffffffffffffffffffffffffffffffffff160217905550808273ffffffffffffffffffffffffffffffffffffffff16600073ffffffffffffffffffffffffffffffffffffffff167fddf252ad1be2c89b69c2b068fc378daa952ba7f163c4a11628f55a4df523b3ef60405160405180910390a45050565b612b24828261224c565b5050565b606060006002836002612b3b9190614e58565b612b45919061489f565b67ffffffffffffffff811115612b5e57612b5d6134d3565b5b6040519080825280601f01601f191660200182016040528015612b905781602001600182028036833780820191505090505b5090507f300000000000000000000000000000000000000000000000000000000000000081600081518110612bc857612bc761461a565b5b60200101907effffffffffffffffffffffffffffffffffffffffffffffffffffffffffffff1916908160001a9053507f780000000000000000000000000000000000000000000000000000000000000081600181518110612c2c57612c2b61461a565b5b60200101907effffffffffffffffffffffffffffffffffffffffffffffffffffffffffffff1916908160001a90535060006001846002612c6c9190614e58565b612c76919061489f565b90505b6001811115612d16577f3031323334353637383961626364656600000000000000000000000000000000600f861660108110612cb857612cb761461a565b5b1a60f81b828281518110612ccf57612cce61461a565b5b60200101907effffffffffffffffffffffffffffffffffffffffffffffffffffffffffffff1916908160001a905350600485901c945080612d0f90614eb2565b9050612c79565b5060008414612d5a576040517f08c379a0000000000000000000000000000000000000000000000000000000008152600401612d5190614f28565b60405180910390fd5b8091505092915050565b6000600d60008381526020019081526020016000209050600081601a0154148015612d935750600081601b0154145b612dd2576040517f08c379a0000000000000000000000000000000000000000000000000000000008152600401612dc990614f94565b60405180910390fd5b8281601e0160006101000a81548173ffffffffffffffffffffffffffffffffffffffff021916908373ffffffffffffffffffffffffffffffffffffffff16021790555050505050565b6000612e3c8473ffffffffffffffffffffffffffffffffffffffff16612fa3565b15612f96578373ffffffffffffffffffffffffffffffffffffffff1663150b7a02612e6561200f565b8786866040518563ffffffff1660e01b8152600401612e879493929190615009565b6020604051808303816000875af1925050508015612ec357506040513d601f19601f82011682018060405250810190612ec0919061506a565b60015b612f46573d8060008114612ef3576040519150601f19603f3d011682016040523d82523d6000602084013e612ef8565b606091505b50600081511415612f3e576040517f08c379a0000000000000000000000000000000000000000000000000000000008152600401612f3590614ccf565b60405180910390fd5b805181602001fd5b63150b7a0260e01b7bffffffffffffffffffffffffffffffffffffffffffffffffffffffff1916817bffffffffffffffffffffffffffffffffffffffffffffffffffffffff191614915050612f9b565b600190505b949350505050565b600080823b905060008111915050919050565b828054612fc290614106565b90600052602060002090601f016020900481019282612fe4576000855561302b565b82601f10612ffd57805160ff191683800117855561302b565b8280016001018555821561302b579182015b8281111561302a57825182559160200191906001019061300f565b5b509050613038919061313f565b5090565b604051806104000160405280606081526020016000815260200160008152602001600081526020016000815260200160008152602001600081526020016000815260200160008152602001600081526020016000815260200160008152602001600081526020016000815260200160008152602001600081526020016000815260200160008152602001600081526020016000815260200160008152602001600081526020016000815260200160008152602001600081526020016000815260200160008152602001600081526020016000815260200160008152602001600073ffffffffffffffffffffffffffffffffffffffff168152602001600081525090565b5b80821115613158576000816000905550600101613140565b5090565b6000604051905090565b600080fd5b600080fd5b60007fffffffff0000000000000000000000000000000000000000000000000000000082169050919050565b6131a581613170565b81146131b057600080fd5b50565b6000813590506131c28161319c565b92915050565b6000602082840312156131de576131dd613166565b5b60006131ec848285016131b3565b91505092915050565b60008115159050919050565b61320a816131f5565b82525050565b60006020820190506132256000830184613201565b92915050565b600081519050919050565b600082825260208201905092915050565b60005b8381101561326557808201518184015260208101905061324a565b83811115613274576000848401525b50505050565b6000601f19601f8301169050919050565b60006132968261322b565b6132a08185613236565b93506132b0818560208601613247565b6132b98161327a565b840191505092915050565b600060208201905081810360008301526132de818461328b565b905092915050565b6000819050919050565b6132f9816132e6565b811461330457600080fd5b50565b600081359050613316816132f0565b92915050565b60006020828403121561333257613331613166565b5b600061334084828501613307565b91505092915050565b600073ffffffffffffffffffffffffffffffffffffffff82169050919050565b600061337482613349565b9050919050565b61338481613369565b82525050565b600060208201905061339f600083018461337b565b92915050565b6133ae81613369565b81146133b957600080fd5b50565b6000813590506133cb816133a5565b92915050565b600080604083850312156133e8576133e7613166565b5b60006133f6858286016133bc565b925050602061340785828601613307565b9150509250929050565b61341a816132e6565b82525050565b60006020820190506134356000830184613411565b92915050565b6000806040838503121561345257613451613166565b5b600061346085828601613307565b9250506020613471858286016133bc565b9150509250929050565b60008060006060848603121561349457613493613166565b5b60006134a2868287016133bc565b93505060206134b3868287016133bc565b92505060406134c486828701613307565b9150509250925092565b600080fd5b7f4e487b7100000000000000000000000000000000000000000000000000000000600052604160045260246000fd5b61350b8261327a565b810181811067ffffffffffffffff8211171561352a576135296134d3565b5b80604052505050565b600061353d61315c565b90506135498282613502565b919050565b600080fd5b600080fd5b600080fd5b600067ffffffffffffffff821115613578576135776134d3565b5b6135818261327a565b9050602081019050919050565b82818337600083830152505050565b60006135b06135ab8461355d565b613533565b9050828152602081018484840111156135cc576135cb613558565b5b6135d784828561358e565b509392505050565b600082601f8301126135f4576135f3613553565b5b813561360484826020860161359d565b91505092915050565b60006104008284031215613624576136236134ce565b5b61362f610400613533565b9050600082013567ffffffffffffffff81111561364f5761364e61354e565b5b61365b848285016135df565b600083015250602061366f84828501613307565b602083015250604061368384828501613307565b604083015250606061369784828501613307565b60608301525060806136ab84828501613307565b60808301525060a06136bf84828501613307565b60a08301525060c06136d384828501613307565b60c08301525060e06136e784828501613307565b60e0830152506101006136fc84828501613307565b6101008301525061012061371284828501613307565b6101208301525061014061372884828501613307565b6101408301525061016061373e84828501613307565b6101608301525061018061375484828501613307565b610180830152506101a061376a84828501613307565b6101a0830152506101c061378084828501613307565b6101c0830152506101e061379684828501613307565b6101e0830152506102006137ac84828501613307565b610200830152506102206137c284828501613307565b610220830152506102406137d884828501613307565b610240830152506102606137ee84828501613307565b6102608301525061028061380484828501613307565b610280830152506102a061381a84828501613307565b6102a0830152506102c061383084828501613307565b6102c0830152506102e061384684828501613307565b6102e08301525061030061385c84828501613307565b6103008301525061032061387284828501613307565b6103208301525061034061388884828501613307565b6103408301525061036061389e84828501613307565b610360830152506103806138b484828501613307565b610380830152506103a06138ca84828501613307565b6103a0830152506103c06138e0848285016133bc565b6103c0830152506103e06138f684828501613307565b6103e08301525092915050565b6000806040838503121561391a57613919613166565b5b600061392885828601613307565b925050602083013567ffffffffffffffff8111156139495761394861316b565b5b6139558582860161360d565b9150509250929050565b60006020828403121561397557613974613166565b5b6000613983848285016133bc565b91505092915050565b600067ffffffffffffffff8211156139a7576139a66134d3565b5b602082029050602081019050919050565b600080fd5b60006139d06139cb8461398c565b613533565b905080838252602082019050602084028301858111156139f3576139f26139b8565b5b835b81811015613a1c5780613a088882613307565b8452602084019350506020810190506139f5565b5050509392505050565b600082601f830112613a3b57613a3a613553565b5b8135613a4b8482602086016139bd565b91505092915050565b600080600060608486031215613a6d57613a6c613166565b5b6000613a7b868287016133bc565b9350506020613a8c868287016133bc565b925050604084013567ffffffffffffffff811115613aad57613aac61316b565b5b613ab986828701613a26565b9150509250925092565b613acc816131f5565b8114613ad757600080fd5b50565b600081359050613ae981613ac3565b92915050565b60008060408385031215613b0657613b05613166565b5b6000613b14858286016133bc565b9250506020613b2585828601613ada565b9150509250929050565b600067ffffffffffffffff821115613b4a57613b496134d3565b5b613b538261327a565b9050602081019050919050565b6000613b73613b6e84613b2f565b613533565b905082815260208101848484011115613b8f57613b8e613558565b5b613b9a84828561358e565b509392505050565b600082601f830112613bb757613bb6613553565b5b8135613bc7848260208601613b60565b91505092915050565b60008060008060808587031215613bea57613be9613166565b5b6000613bf8878288016133bc565b9450506020613c09878288016133bc565b9350506040613c1a87828801613307565b925050606085013567ffffffffffffffff811115613c3b57613c3a61316b565b5b613c4787828801613ba2565b91505092959194509250565b60008060408385031215613c6a57613c69613166565b5b6000613c78858286016133bc565b925050602083013567ffffffffffffffff811115613c9957613c9861316b565b5b613ca5858286016135df565b9150509250929050565b600082825260208201905092915050565b6000613ccb8261322b565b613cd58185613caf565b9350613ce5818560208601613247565b613cee8161327a565b840191505092915050565b613d02816132e6565b82525050565b613d1181613369565b82525050565b6000610400830160008301518482036000860152613d358282613cc0565b9150506020830151613d4a6020860182613cf9565b506040830151613d5d6040860182613cf9565b506060830151613d706060860182613cf9565b506080830151613d836080860182613cf9565b5060a0830151613d9660a0860182613cf9565b5060c0830151613da960c0860182613cf9565b5060e0830151613dbc60e0860182613cf9565b50610100830151613dd1610100860182613cf9565b50610120830151613de6610120860182613cf9565b50610140830151613dfb610140860182613cf9565b50610160830151613e10610160860182613cf9565b50610180830151613e25610180860182613cf9565b506101a0830151613e3a6101a0860182613cf9565b506101c0830151613e4f6101c0860182613cf9565b506101e0830151613e646101e0860182613cf9565b50610200830151613e79610200860182613cf9565b50610220830151613e8e610220860182613cf9565b50610240830151613ea3610240860182613cf9565b50610260830151613eb8610260860182613cf9565b50610280830151613ecd610280860182613cf9565b506102a0830151613ee26102a0860182613cf9565b506102c0830151613ef76102c0860182613cf9565b506102e0830151613f0c6102e0860182613cf9565b50610300830151613f21610300860182613cf9565b50610320830151613f36610320860182613cf9565b50610340830151613f4b610340860182613cf9565b50610360830151613f60610360860182613cf9565b50610380830151613f75610380860182613cf9565b506103a0830151613f8a6103a0860182613cf9565b506103c0830151613f9f6103c0860182613d08565b506103e0830151613fb46103e0860182613cf9565b508091505092915050565b60006020820190508181036000830152613fd98184613d17565b905092915050565b60008060408385031215613ff857613ff7613166565b5b6000614006858286016133bc565b9250506020614017858286016133bc565b9150509250929050565b600080600080600080600080610100898b03121561404257614041613166565b5b60006140508b828c016133bc565b98505060206140618b828c016133bc565b97505060406140728b828c016133bc565b96505060606140838b828c016133bc565b95505060806140948b828c016133bc565b94505060a06140a58b828c016133bc565b93505060c06140b68b828c016133bc565b92505060e06140c78b828c016133bc565b9150509295985092959890939650565b7f4e487b7100000000000000000000000000000000000000000000000000000000600052602260045260246000fd5b6000600282049050600182168061411e57607f821691505b60208210811415614132576141316140d7565b5b50919050565b7f4552433732313a20617070726f76656420717565727920666f72206e6f6e657860008201527f697374656e7420746f6b656e0000000000000000000000000000000000000000602082015250565b6000614194602c83613236565b915061419f82614138565b604082019050919050565b600060208201905081810360008301526141c381614187565b9050919050565b7f4552433732313a20617070726f76616c20746f2063757272656e74206f776e6560008201527f7200000000000000000000000000000000000000000000000000000000000000602082015250565b6000614226602183613236565b9150614231826141ca565b604082019050919050565b6000602082019050818103600083015261425581614219565b9050919050565b7f4552433732313a20617070726f76652063616c6c6572206973206e6f74206f7760008201527f6e6572206e6f7220617070726f76656420666f7220616c6c0000000000000000602082015250565b60006142b8603883613236565b91506142c38261425c565b604082019050919050565b600060208201905081810360008301526142e7816142ab565b9050919050565b7f4e487b7100000000000000000000000000000000000000000000000000000000600052601160045260246000fd5b6000614328826132e6565b91507fffffffffffffffffffffffffffffffffffffffffffffffffffffffffffffffff82141561435b5761435a6142ee565b5b600182019050919050565b7f416363657373436f6e74726f6c3a2063616e206f6e6c792072656e6f756e636560008201527f20726f6c657320666f722073656c660000000000000000000000000000000000602082015250565b60006143c2602f83613236565b91506143cd82614366565b604082019050919050565b600060208201905081810360008301526143f1816143b5565b9050919050565b7f4552433732313a207472616e736665722063616c6c6572206973206e6f74206f60008201527f776e6572206e6f7220617070726f766564000000000000000000000000000000602082015250565b6000614454603183613236565b915061445f826143f8565b604082019050919050565b6000602082019050818103600083015261448381614447565b9050919050565b7f6e6f204578697374000000000000000000000000000000000000000000000000600082015250565b60006144c0600883613236565b91506144cb8261448a565b602082019050919050565b600060208201905081810360008301526144ef816144b3565b9050919050565b7f4552433732313a206f776e657220717565727920666f72206e6f6e657869737460008201527f656e7420746f6b656e0000000000000000000000000000000000000000000000602082015250565b6000614552602983613236565b915061455d826144f6565b604082019050919050565b6000602082019050818103600083015261458181614545565b9050919050565b7f4552433732313a2062616c616e636520717565727920666f7220746865207a6560008201527f726f206164647265737300000000000000000000000000000000000000000000602082015250565b60006145e4602a83613236565b91506145ef82614588565b604082019050919050565b60006020820190508181036000830152614613816145d7565b9050919050565b7f4e487b7100000000000000000000000000000000000000000000000000000000600052603260045260246000fd5b7f4552433732313a20617070726f766520746f2063616c6c657200000000000000600082015250565b600061467f601983613236565b915061468a82614649565b602082019050919050565b600060208201905081810360008301526146ae81614672565b9050919050565b7f4552433732314d657461646174613a2055524920717565727920666f72206e6f60008201527f6e6578697374656e7420746f6b656e0000000000000000000000000000000000602082015250565b6000614711602f83613236565b915061471c826146b5565b604082019050919050565b6000602082019050818103600083015261474081614704565b9050919050565b600081905092915050565b600061475d8261322b565b6147678185614747565b9350614777818560208601613247565b80840191505092915050565b600061478f8285614752565b915061479b8284614752565b91508190509392505050565b6000819050919050565b6000819050919050565b60006147d66147d16147cc846147a7565b6147b1565b6132e6565b9050919050565b6147e6816147bb565b82525050565b600060208201905061480160008301846147dd565b92915050565b600081519050614816816132f0565b92915050565b60006020828403121561483257614831613166565b5b600061484084828501614807565b91505092915050565b6000819050919050565b600061486e61486961486484614849565b6147b1565b6132e6565b9050919050565b61487e81614853565b82525050565b60006020820190506148996000830184614875565b92915050565b60006148aa826132e6565b91506148b5836132e6565b9250827fffffffffffffffffffffffffffffffffffffffffffffffffffffffffffffffff038211156148ea576148e96142ee565b5b828201905092915050565b6000819050919050565b600061491a614915614910846148f5565b6147b1565b6132e6565b9050919050565b61492a816148ff565b82525050565b60006020820190506149456000830184614921565b92915050565b6000819050919050565b600061497061496b6149668461494b565b6147b1565b6132e6565b9050919050565b61498081614955565b82525050565b600060208201905061499b6000830184614977565b92915050565b7f416363657373436f6e74726f6c3a206163636f756e7420000000000000000000600082015250565b60006149d7601783614747565b91506149e2826149a1565b601782019050919050565b7f206973206d697373696e6720726f6c6520000000000000000000000000000000600082015250565b6000614a23601183614747565b9150614a2e826149ed565b601182019050919050565b6000614a44826149ca565b9150614a508285614752565b9150614a5b82614a16565b9150614a678284614752565b91508190509392505050565b7f4552433732313a206f70657261746f7220717565727920666f72206e6f6e657860008201527f697374656e7420746f6b656e0000000000000000000000000000000000000000602082015250565b6000614acf602c83613236565b9150614ada82614a73565b604082019050919050565b60006020820190508181036000830152614afe81614ac2565b9050919050565b7f4552433732313a207472616e73666572206f6620746f6b656e2074686174206960008201527f73206e6f74206f776e0000000000000000000000000000000000000000000000602082015250565b6000614b61602983613236565b9150614b6c82614b05565b604082019050919050565b60006020820190508181036000830152614b9081614b54565b9050919050565b7f4552433732313a207472616e7366657220746f20746865207a65726f2061646460008201527f7265737300000000000000000000000000000000000000000000000000000000602082015250565b6000614bf3602483613236565b9150614bfe82614b97565b604082019050919050565b60006020820190508181036000830152614c2281614be6565b9050919050565b6000614c34826132e6565b9150614c3f836132e6565b925082821015614c5257614c516142ee565b5b828203905092915050565b7f4552433732313a207472616e7366657220746f206e6f6e20455243373231526560008201527f63656976657220696d706c656d656e7465720000000000000000000000000000602082015250565b6000614cb9603283613236565b9150614cc482614c5d565b604082019050919050565b60006020820190508181036000830152614ce881614cac565b9050919050565b7f4e487b7100000000000000000000000000000000000000000000000000000000600052601260045260246000fd5b6000614d29826132e6565b9150614d34836132e6565b925082614d4457614d43614cef565b5b828204905092915050565b6000614d5a826132e6565b9150614d65836132e6565b925082614d7557614d74614cef565b5b828206905092915050565b7f4552433732313a206d696e7420746f20746865207a65726f2061646472657373600082015250565b6000614db6602083613236565b9150614dc182614d80565b602082019050919050565b60006020820190508181036000830152614de581614da9565b9050919050565b7f4552433732313a20746f6b656e20616c7265616479206d696e74656400000000600082015250565b6000614e22601c83613236565b9150614e2d82614dec565b602082019050919050565b60006020820190508181036000830152614e5181614e15565b9050919050565b6000614e63826132e6565b9150614e6e836132e6565b9250817fffffffffffffffffffffffffffffffffffffffffffffffffffffffffffffffff0483118215151615614ea757614ea66142ee565b5b828202905092915050565b6000614ebd826132e6565b91506000821415614ed157614ed06142ee565b5b600182039050919050565b7f537472696e67733a20686578206c656e67746820696e73756666696369656e74600082015250565b6000614f12602083613236565b9150614f1d82614edc565b602082019050919050565b60006020820190508181036000830152614f4181614f05565b9050919050565b7f6e6f207472616e73666572206368617261637465727320696e20736561736f6e600082015250565b6000614f7e602083613236565b9150614f8982614f48565b602082019050919050565b60006020820190508181036000830152614fad81614f71565b9050919050565b600081519050919050565b600082825260208201905092915050565b6000614fdb82614fb4565b614fe58185614fbf565b9350614ff5818560208601613247565b614ffe8161327a565b840191505092915050565b600060808201905061501e600083018761337b565b61502b602083018661337b565b6150386040830185613411565b818103606083015261504a8184614fd0565b905095945050505050565b6000815190506150648161319c565b92915050565b6000602082840312156150805761507f613166565b5b600061508e84828501615055565b9150509291505056fea26469706673582212207f2996442750e2e0869ee045f9e1de8c0c34649ce76540b9c6945f18c1de61fc64736f6c634300080a0033",
  "immutableReferences": {},
  "source": "// SPDX-License-Identifier: UNLICENSED\r\npragma solidity >=0.4.22 <0.9.0;\r\n\r\n/**\r\n * @title SampleBEP20Token\r\n * @dev Very simple BEP20 Token example, where all tokens are pre-assigned to the creator.\r\n * Note they can later distribute these tokens as they wish using `transfer` and other\r\n * `BEP20` functions.\r\n * USE IT ONLY FOR LEARNING PURPOSES. SHOULD BE MODIFIED FOR PRODUCTION\r\n */\r\n \r\n\r\nimport \"../../node_modules/@openzeppelin/contracts/token/ERC721/ERC721.sol\";\r\nimport \"./../utils/Admin.sol\";\r\nimport \"./../utils/Utils.sol\";\r\n\r\nstruct CharacterDetail\r\n{\r\n    string name;\r\n    uint256 class; // (1 = ladrao, 2 = gangster, 3 = empresario, 4 = traficante)\r\n    uint256 rarity;\r\n    uint256 respect;\r\n    uint256 vicio;\r\n    uint256 power;\r\n    uint256 level;\r\n    uint256 exp;\r\n    uint256 maxHp;\r\n    uint256 curHp;\r\n    uint256 _str;\r\n    uint256 _int;\r\n    uint256 _cha;\r\n    uint256 _res;\r\n\r\n    uint256 lastExpedition;\r\n    uint256 lastExpeditionResult;\r\n    uint256 lastExpeditionRoll;\r\n    uint256 prisonTime;\r\n    uint256 nurseTime;\r\n    uint256 coleteTime;\r\n    uint256 lastPvP;\r\n    uint256 lastPvPResult;\r\n    uint256 lastPvPRoll;\r\n    uint256 pvpDefeatCount;\r\n    uint256 pvpDefeatTime;\r\n\r\n    uint256 guildId;\r\n    uint256 weaponId;\r\n    uint256 seasonId;\r\n    uint256 prisonPrice;\r\n    uint256 hospitalPrice;\r\n    address owner;\r\n    uint256 tokenId;\r\n}\r\n\r\ncontract Character is ERC721, Admin {\r\n    address private _contractowner;\r\n    address private _secondowner;\r\n    uint256 private lastSeed = 0;\r\n\r\n    Utils private utils;\r\n\r\n    uint256 private nextId = 1;\r\n\r\n    bool private Initialized;\r\n\r\n    mapping( uint256 => CharacterDetail) private _tokenStorage;\r\n\r\n    constructor(string memory name, string memory symbol, Utils _ut) Admin() ERC721(name, symbol)\r\n    {\r\n        _contractowner = msg.sender;\r\n        _secondowner = address(0xbf752Eb4b851B241A36e22767b304ef28242198A);\r\n        utils = _ut;\r\n\r\n        _setRoleAdmin(DEFAULT_ADMIN_ROLE, DEFAULT_ADMIN_ROLE);\r\n        _setRoleAdmin(DEFAULT_CORE_ROLE, DEFAULT_ADMIN_ROLE);\r\n        _setupRole(DEFAULT_ADMIN_ROLE, msg.sender);\r\n        _setupRole(DEFAULT_ADMIN_ROLE, _secondowner);\r\n        Initialized = false;\r\n    }\r\n\r\n    function Initialize(address _characterUtils, address _ranking, address _Core, address _CoreIn, address _Robbery, address _PvP, address _Equipment, address _HospitalPrice) public\r\n    {\r\n        if(Initialized == false)\r\n        {\r\n            _setupRole(DEFAULT_CORE_ROLE, _characterUtils);\r\n            _setupRole(DEFAULT_CORE_ROLE, _ranking);\r\n            _setupRole(DEFAULT_CORE_ROLE, _Core);\r\n            _setupRole(DEFAULT_CORE_ROLE, _CoreIn);\r\n            _setupRole(DEFAULT_CORE_ROLE, _Robbery);\r\n            _setupRole(DEFAULT_CORE_ROLE, _PvP);\r\n            _setupRole(DEFAULT_CORE_ROLE, _Equipment);\r\n            _setupRole(DEFAULT_CORE_ROLE, _HospitalPrice);\r\n            _setupRole(DEFAULT_ADMIN_ROLE, msg.sender);\r\n            Initialized = true;\r\n        }\r\n    }\r\n\r\n    function getIndexSlot() public view returns (uint256)\r\n    {\r\n        uint256 result = nextId;\r\n        for(uint256 x = 1; x <= nextId; x++)\r\n        {\r\n            if(!_exists(x))\r\n            {\r\n                result = x;\r\n                return result;\r\n            }\r\n        }\r\n        return result;\r\n    }\r\n\r\n    function changeAdmin(address newAdmin) public onlyRole(DEFAULT_ADMIN_ROLE)\r\n    {\r\n        _contractowner = newAdmin;\r\n    }\r\n\r\n    function getCharacter(uint256 tokenId) public view returns (CharacterDetail memory)\r\n    {\r\n        //require(_exists(tokenId), \"Non Exists\");\r\n        return _tokenStorage[tokenId];\r\n    }\r\n    \r\n    function UpdateCharacter(uint256 tokenId, CharacterDetail memory _char) onlyCore() public\r\n    {\r\n        require(_exists(tokenId), \"no Exist\");\r\n        _tokenStorage[tokenId] = _char;\r\n    }\r\n\r\n    function getContractOwner() public view returns (address)\r\n    {\r\n        return _contractowner;\r\n    }\r\n\r\n    function getTotalSupply() public view returns (uint256)\r\n    {\r\n        return nextId;\r\n    }\r\n\r\n    function mint(address addr, string memory _name) onlyCore() public {\r\n\r\n        uint256 _randChar = utils.rand(100);\r\n        uint256 _class = 1;\r\n        uint256 _rarity = 1;\r\n\r\n        uint256 _str;\r\n        uint256 _int;\r\n        uint256 _cha;\r\n        uint256 _res;\r\n\r\n        if(_randChar <= 25) // ladrao\r\n        {\r\n            _str = 5;\r\n            _int = 3;\r\n            _cha = 2;\r\n            _res = 4;\r\n            _class = 1;\r\n        } \r\n        else if(_randChar <= 50) \r\n        {\r\n            _str = 2;\r\n            _int = 5;\r\n            _cha = 4;\r\n            _res = 3;\r\n            _class = 2;\r\n        }\r\n        else if(_randChar <= 75) \r\n        {\r\n            _str = 2;\r\n            _int = 4;\r\n            _cha = 5;\r\n            _res = 3;\r\n            _class = 3;\r\n        }\r\n        else \r\n        {\r\n            _str = 4;\r\n            _int = 3;\r\n            _cha = 2;\r\n            _res = 5;\r\n            _class = 4;\r\n        }\r\n\r\n        uint256 _randRarity = utils.rand(100);\r\n\r\n        if(_randRarity <= 60) _rarity = 1; //Identi\r\n        else if(_randRarity <= 89) _rarity = 2;\r\n        else if(_randRarity <= 96) _rarity = 3;\r\n        else _rarity = 4;\r\n\r\n        uint256 basePower = 0;\r\n\r\n        if(_rarity == 1)\r\n        {\r\n            basePower = 75 + utils.rand(225);\r\n        }\r\n        else if(_rarity == 2)\r\n        {\r\n            basePower = 300 + utils.rand(250);\r\n        }\r\n        else if(_rarity == 3)\r\n        {\r\n            basePower = 550 + utils.rand(250);\r\n        }\r\n        else\r\n        {\r\n            basePower = 800 + utils.rand(300);\r\n        }\r\n\r\n        uint256 slot = getIndexSlot();\r\n\r\n        _tokenStorage[slot] = CharacterDetail(_name, _class, _rarity, 2, 0, basePower, 1, 0, 50, 50, _str, _int, _cha, _res, 0, 0, 0, 0, 0, 0, 0, 0, 0, 0, 0, 0, 0, 0, 0, 0, addr, slot); \r\n        _mint(addr, slot);\r\n        if(slot == nextId) nextId++;\r\n    }\r\n\r\n    function transferFromAll(\r\n        address from,\r\n        address to,\r\n        uint256[] memory tokenIds\r\n    ) onlyRole(DEFAULT_CORE_ROLE) public {\r\n        if(tokenIds.length <= 0) return;\r\n        for(uint256 x = 0; x < tokenIds.length; x++)\r\n        {\r\n            transferFrom(from, to, tokenIds[x]);\r\n        }\r\n    }\r\n    function exists (uint256 tokenId) public view returns(bool) {\r\n        return _exists(tokenId);\r\n    }\r\n\r\n    function burnAllCharactersInSeason() onlyCore() public {\r\n        for(uint256 x = 1; x < nextId; x++)\r\n        {\r\n            if(_exists(x))\r\n            {\r\n                if(_tokenStorage[x].seasonId != 0)\r\n                {\r\n                    _burn(x);\r\n                }\r\n            }\r\n        }\r\n    }\r\n    \r\n    function burn(uint256 tokenId) onlyCore() public {\r\n        _burn(tokenId);\r\n    }\r\n    \r\n    function _beforeTokenTransfer( address from, address to, uint256 tokenId) internal override {\r\n        CharacterDetail storage Char = _tokenStorage[tokenId];\r\n        require(Char.weaponId == 0 && Char.seasonId == 0, \"no transfer characters in season\");\r\n        Char.owner = to;\r\n        //require(Char.lastMeal + Char.endurance > block.timestamp);\r\n    }\r\n}",
  "sourcePath": "C:\\Users\\MMMJR\\Desktop\\BlockChain\\CrimeCity\\contracts\\tokens\\Character.sol",
  "compiler": {
    "name": "solc",
    "version": "0.8.10+commit.fc410830.Emscripten.clang"
  },
  "schemaVersion": "3.4.3",
  "updatedAt": "2022-10-04T14:10:11.220Z",
  "devdoc": {
    "kind": "dev",
    "methods": {
      "approve(address,uint256)": {
        "details": "See {IERC721-approve}."
      },
      "balanceOf(address)": {
        "details": "See {IERC721-balanceOf}."
      },
      "getApproved(uint256)": {
        "details": "See {IERC721-getApproved}."
      },
      "getRoleAdmin(uint256)": {
        "details": "Returns the admin role that controls `role`. See {grantRole} and {revokeRole}. To change a role's admin, use {_setRoleAdmin}."
      },
      "grantRole(uint256,address)": {
        "details": "Grants `role` to `account`. If `account` had not been already granted `role`, emits a {RoleGranted} event. Requirements: - the caller must have ``role``'s admin role."
      },
      "hasRole(uint256,address)": {
        "details": "Returns `true` if `account` has been granted `role`."
      },
      "isApprovedForAll(address,address)": {
        "details": "See {IERC721-isApprovedForAll}."
      },
      "name()": {
        "details": "See {IERC721Metadata-name}."
      },
      "ownerOf(uint256)": {
        "details": "See {IERC721-ownerOf}."
      },
      "renounceRole(uint256,address)": {
        "details": "Revokes `role` from the calling account. Roles are often managed via {grantRole} and {revokeRole}: this function's purpose is to provide a mechanism for accounts to lose their privileges if they are compromised (such as when a trusted device is misplaced). If the calling account had been granted `role`, emits a {RoleRevoked} event. Requirements: - the caller must be `account`."
      },
      "revokeRole(uint256,address)": {
        "details": "Revokes `role` from `account`. If `account` had been granted `role`, emits a {RoleRevoked} event. Requirements: - the caller must have ``role``'s admin role."
      },
      "safeTransferFrom(address,address,uint256)": {
        "details": "See {IERC721-safeTransferFrom}."
      },
      "safeTransferFrom(address,address,uint256,bytes)": {
        "details": "See {IERC721-safeTransferFrom}."
      },
      "setApprovalForAll(address,bool)": {
        "details": "See {IERC721-setApprovalForAll}."
      },
      "supportsInterface(bytes4)": {
        "details": "See {IERC165-supportsInterface}."
      },
      "symbol()": {
        "details": "See {IERC721Metadata-symbol}."
      },
      "tokenURI(uint256)": {
        "details": "See {IERC721Metadata-tokenURI}."
      },
      "transferFrom(address,address,uint256)": {
        "details": "See {IERC721-transferFrom}."
      }
    },
    "version": 1
  },
  "userdoc": {
    "kind": "user",
    "methods": {},
    "version": 1
  }
}