{
  "contractName": "Core",
  "abi": [
    {
      "inputs": [
        {
          "internalType": "contract Utils",
          "name": "_util",
          "type": "address"
        },
        {
          "internalType": "contract GANG",
          "name": "_gangToken",
          "type": "address"
        },
        {
          "internalType": "contract Character",
          "name": "_character",
          "type": "address"
        },
        {
          "internalType": "contract GameItem",
          "name": "_gameItem",
          "type": "address"
        },
        {
          "internalType": "contract CoreInGame",
          "name": "_InGame",
          "type": "address"
        },
        {
          "internalType": "contract Factory",
          "name": "_crimeFactory",
          "type": "address"
        },
        {
          "internalType": "contract SeasonManager",
          "name": "_season",
          "type": "address"
        }
      ],
      "stateMutability": "nonpayable",
      "type": "constructor"
    },
    {
      "anonymous": false,
      "inputs": [
        {
          "indexed": true,
          "internalType": "uint256",
          "name": "role",
          "type": "uint256"
        },
        {
          "indexed": true,
          "internalType": "uint256",
          "name": "previousAdminRole",
          "type": "uint256"
        },
        {
          "indexed": true,
          "internalType": "uint256",
          "name": "newAdminRole",
          "type": "uint256"
        }
      ],
      "name": "RoleAdminChanged",
      "type": "event"
    },
    {
      "anonymous": false,
      "inputs": [
        {
          "indexed": true,
          "internalType": "uint256",
          "name": "role",
          "type": "uint256"
        },
        {
          "indexed": true,
          "internalType": "address",
          "name": "account",
          "type": "address"
        },
        {
          "indexed": true,
          "internalType": "address",
          "name": "sender",
          "type": "address"
        }
      ],
      "name": "RoleGranted",
      "type": "event"
    },
    {
      "anonymous": false,
      "inputs": [
        {
          "indexed": true,
          "internalType": "uint256",
          "name": "role",
          "type": "uint256"
        },
        {
          "indexed": true,
          "internalType": "address",
          "name": "account",
          "type": "address"
        },
        {
          "indexed": true,
          "internalType": "address",
          "name": "sender",
          "type": "address"
        }
      ],
      "name": "RoleRevoked",
      "type": "event"
    },
    {
      "inputs": [],
      "name": "DEFAULT_ADMIN_ROLE",
      "outputs": [
        {
          "internalType": "uint256",
          "name": "",
          "type": "uint256"
        }
      ],
      "stateMutability": "view",
      "type": "function"
    },
    {
      "inputs": [],
      "name": "DEFAULT_CORE_ROLE",
      "outputs": [
        {
          "internalType": "uint256",
          "name": "",
          "type": "uint256"
        }
      ],
      "stateMutability": "view",
      "type": "function"
    },
    {
      "inputs": [
        {
          "internalType": "uint256",
          "name": "role",
          "type": "uint256"
        }
      ],
      "name": "getRoleAdmin",
      "outputs": [
        {
          "internalType": "uint256",
          "name": "",
          "type": "uint256"
        }
      ],
      "stateMutability": "view",
      "type": "function"
    },
    {
      "inputs": [
        {
          "internalType": "uint256",
          "name": "role",
          "type": "uint256"
        },
        {
          "internalType": "address",
          "name": "account",
          "type": "address"
        }
      ],
      "name": "grantRole",
      "outputs": [],
      "stateMutability": "nonpayable",
      "type": "function"
    },
    {
      "inputs": [
        {
          "internalType": "uint256",
          "name": "role",
          "type": "uint256"
        },
        {
          "internalType": "address",
          "name": "account",
          "type": "address"
        }
      ],
      "name": "hasRole",
      "outputs": [
        {
          "internalType": "bool",
          "name": "",
          "type": "bool"
        }
      ],
      "stateMutability": "view",
      "type": "function"
    },
    {
      "inputs": [
        {
          "internalType": "uint256",
          "name": "role",
          "type": "uint256"
        },
        {
          "internalType": "address",
          "name": "account",
          "type": "address"
        }
      ],
      "name": "renounceRole",
      "outputs": [],
      "stateMutability": "nonpayable",
      "type": "function"
    },
    {
      "inputs": [
        {
          "internalType": "uint256",
          "name": "role",
          "type": "uint256"
        },
        {
          "internalType": "address",
          "name": "account",
          "type": "address"
        }
      ],
      "name": "revokeRole",
      "outputs": [],
      "stateMutability": "nonpayable",
      "type": "function"
    },
    {
      "inputs": [
        {
          "internalType": "address",
          "name": "newAdmin",
          "type": "address"
        }
      ],
      "name": "changeAdmin",
      "outputs": [],
      "stateMutability": "nonpayable",
      "type": "function"
    },
    {
      "inputs": [
        {
          "internalType": "address",
          "name": "_Robbery",
          "type": "address"
        },
        {
          "internalType": "address",
          "name": "_PvP",
          "type": "address"
        },
        {
          "internalType": "address",
          "name": "_Equipment",
          "type": "address"
        },
        {
          "internalType": "address",
          "name": "_HospitalPrice",
          "type": "address"
        }
      ],
      "name": "Initialize",
      "outputs": [],
      "stateMutability": "nonpayable",
      "type": "function"
    },
    {
      "inputs": [
        {
          "internalType": "address",
          "name": "",
          "type": "address"
        },
        {
          "internalType": "address",
          "name": "",
          "type": "address"
        },
        {
          "internalType": "uint256",
          "name": "",
          "type": "uint256"
        },
        {
          "internalType": "bytes",
          "name": "",
          "type": "bytes"
        }
      ],
      "name": "onERC721Received",
      "outputs": [
        {
          "internalType": "bytes4",
          "name": "",
          "type": "bytes4"
        }
      ],
      "stateMutability": "nonpayable",
      "type": "function"
    },
    {
      "inputs": [
        {
          "internalType": "bytes4",
          "name": "interfaceId",
          "type": "bytes4"
        }
      ],
      "name": "supportsInterface",
      "outputs": [
        {
          "internalType": "bool",
          "name": "",
          "type": "bool"
        }
      ],
      "stateMutability": "pure",
      "type": "function"
    },
    {
      "inputs": [],
      "name": "bnbWithdraw",
      "outputs": [],
      "stateMutability": "nonpayable",
      "type": "function"
    },
    {
      "inputs": [
        {
          "internalType": "uint256",
          "name": "rarity",
          "type": "uint256"
        }
      ],
      "name": "getBurnPrice",
      "outputs": [
        {
          "internalType": "uint256",
          "name": "",
          "type": "uint256"
        }
      ],
      "stateMutability": "view",
      "type": "function"
    },
    {
      "inputs": [
        {
          "internalType": "uint256",
          "name": "tokenId",
          "type": "uint256"
        }
      ],
      "name": "burnCharacter",
      "outputs": [],
      "stateMutability": "payable",
      "type": "function"
    },
    {
      "inputs": [
        {
          "internalType": "string",
          "name": "name",
          "type": "string"
        }
      ],
      "name": "mintCharacter",
      "outputs": [],
      "stateMutability": "payable",
      "type": "function"
    },
    {
      "inputs": [
        {
          "internalType": "uint256",
          "name": "itemId",
          "type": "uint256"
        }
      ],
      "name": "mintGameItem",
      "outputs": [],
      "stateMutability": "payable",
      "type": "function"
    },
    {
      "inputs": [],
      "name": "mintFactory",
      "outputs": [],
      "stateMutability": "payable",
      "type": "function"
    }
  ],
  "bytecode": "0x60806040526000600460146101000a81548160ff02191690831515021790555060016005553480156200003157600080fd5b506040516200509638038062005096833981810160405281019062000057919062000814565b33600160006101000a81548173ffffffffffffffffffffffffffffffffffffffff021916908373ffffffffffffffffffffffffffffffffffffffff1602179055507329a47ca226f7c4330c06d21e4d435bb1d4230787600260006101000a81548173ffffffffffffffffffffffffffffffffffffffff021916908373ffffffffffffffffffffffffffffffffffffffff16021790555073c1f16dabb8b6914f747089d007be3ea92bfcb16a600360006101000a81548173ffffffffffffffffffffffffffffffffffffffff021916908373ffffffffffffffffffffffffffffffffffffffff16021790555073bf752eb4b851b241a36e22767b304ef28242198a600460006101000a81548173ffffffffffffffffffffffffffffffffffffffff021916908373ffffffffffffffffffffffffffffffffffffffff160217905550600060068190555085600a60006101000a81548173ffffffffffffffffffffffffffffffffffffffff021916908373ffffffffffffffffffffffffffffffffffffffff16021790555084600860006101000a81548173ffffffffffffffffffffffffffffffffffffffff021916908373ffffffffffffffffffffffffffffffffffffffff16021790555083600960006101000a81548173ffffffffffffffffffffffffffffffffffffffff021916908373ffffffffffffffffffffffffffffffffffffffff16021790555086600760006101000a81548173ffffffffffffffffffffffffffffffffffffffff021916908373ffffffffffffffffffffffffffffffffffffffff16021790555082600b60006101000a81548173ffffffffffffffffffffffffffffffffffffffff021916908373ffffffffffffffffffffffffffffffffffffffff16021790555081600c60006101000a81548173ffffffffffffffffffffffffffffffffffffffff021916908373ffffffffffffffffffffffffffffffffffffffff16021790555080600d60006101000a81548173ffffffffffffffffffffffffffffffffffffffff021916908373ffffffffffffffffffffffffffffffffffffffff16021790555062000379601e80620003fd60201b60201c565b6200038d601f601e620003fd60201b60201c565b620003a0601e336200046060201b60201c565b620003d5601e600460009054906101000a900473ffffffffffffffffffffffffffffffffffffffff166200046060201b60201c565b6000600d60146101000a81548160ff02191690831515021790555050505050505050620008c7565b600062000410836200047660201b60201c565b905081600080858152602001908152602001600020600101819055508181847f6620dedee755c284a7e221a3279487b734830c1f76c026c797b4d019c6b4b2f460405160405180910390a4505050565b6200047282826200049560201b60201c565b5050565b6000806000838152602001908152602001600020600101549050919050565b620004a782826200058660201b60201c565b6200058257600160008084815260200190815260200160002060000160008373ffffffffffffffffffffffffffffffffffffffff1673ffffffffffffffffffffffffffffffffffffffff16815260200190815260200160002060006101000a81548160ff02191690831515021790555062000527620005f060201b60201c565b73ffffffffffffffffffffffffffffffffffffffff168173ffffffffffffffffffffffffffffffffffffffff16837f1ec1667fba5e43c5c76fff54e76d7a4a20a4fecf7b49724ad8d52a3f726e9dbd60405160405180910390a45b5050565b600080600084815260200190815260200160002060000160008373ffffffffffffffffffffffffffffffffffffffff1673ffffffffffffffffffffffffffffffffffffffff16815260200190815260200160002060009054906101000a900460ff16905092915050565b600033905090565b600080fd5b600073ffffffffffffffffffffffffffffffffffffffff82169050919050565b60006200062a82620005fd565b9050919050565b60006200063e826200061d565b9050919050565b620006508162000631565b81146200065c57600080fd5b50565b600081519050620006708162000645565b92915050565b600062000683826200061d565b9050919050565b620006958162000676565b8114620006a157600080fd5b50565b600081519050620006b5816200068a565b92915050565b6000620006c8826200061d565b9050919050565b620006da81620006bb565b8114620006e657600080fd5b50565b600081519050620006fa81620006cf565b92915050565b60006200070d826200061d565b9050919050565b6200071f8162000700565b81146200072b57600080fd5b50565b6000815190506200073f8162000714565b92915050565b600062000752826200061d565b9050919050565b620007648162000745565b81146200077057600080fd5b50565b600081519050620007848162000759565b92915050565b600062000797826200061d565b9050919050565b620007a9816200078a565b8114620007b557600080fd5b50565b600081519050620007c9816200079e565b92915050565b6000620007dc826200061d565b9050919050565b620007ee81620007cf565b8114620007fa57600080fd5b50565b6000815190506200080e81620007e3565b92915050565b600080600080600080600060e0888a031215620008365762000835620005f8565b5b6000620008468a828b016200065f565b9750506020620008598a828b01620006a4565b96505060406200086c8a828b01620006e9565b95505060606200087f8a828b016200072e565b9450506080620008928a828b0162000773565b93505060a0620008a58a828b01620007b8565b92505060c0620008b88a828b01620007fd565b91505092959891949750929550565b6147bf80620008d76000396000f3fe6080604052600436106100fe5760003560e01c80636f45e4e5116100955780639483fbbf116100645780639483fbbf14610301578063a217fddf1461030b578063d51b810514610336578063ec2606c014610352578063fb2990ad1461038f576100fe565b80636f45e4e51461027a57806375bbeee7146102a55780638a499b71146102bc5780638f283970146102d8576100fe565b80632308d236116100d15780632308d236146101cf5780632b1d5039146101f8578063346fd5dd14610214578063420f11aa14610251576100fe565b806301ffc9a714610103578063150b7a02146101405780631d0b19e71461017d5780631fe5f589146101a6575b600080fd5b34801561010f57600080fd5b5061012a60048036038101906101259190613025565b6103cc565b604051610137919061306d565b60405180910390f35b34801561014c57600080fd5b5061016760048036038101906101629190613262565b610436565b60405161017491906132f4565b60405180910390f35b34801561018957600080fd5b506101a4600480360381019061019f919061330f565b61044a565b005b3480156101b257600080fd5b506101cd60048036038101906101c8919061330f565b610473565b005b3480156101db57600080fd5b506101f660048036038101906101f1919061330f565b61049c565b005b610212600480360381019061020d91906133f0565b61051f565b005b34801561022057600080fd5b5061023b60048036038101906102369190613439565b610cd3565b6040516102489190613475565b60405180910390f35b34801561025d57600080fd5b5061027860048036038101906102739190613490565b610e09565b005b34801561028657600080fd5b5061028f610e7e565b60405161029c9190613475565b60405180910390f35b3480156102b157600080fd5b506102ba610e83565b005b6102d660048036038101906102d19190613439565b610f2d565b005b3480156102e457600080fd5b506102ff60048036038101906102fa91906134f7565b61176b565b005b6103096117c3565b005b34801561031757600080fd5b506103206120b2565b60405161032d9190613475565b60405180910390f35b610350600480360381019061034b9190613439565b6120b7565b005b34801561035e57600080fd5b506103796004803603810190610374919061330f565b612a83565b604051610386919061306d565b60405180910390f35b34801561039b57600080fd5b506103b660048036038101906103b19190613439565b612aed565b6040516103c39190613475565b60405180910390f35b60007f150b7a02000000000000000000000000000000000000000000000000000000007bffffffffffffffffffffffffffffffffffffffffffffffffffffffff1916827bffffffffffffffffffffffffffffffffffffffffffffffffffffffff1916149050919050565b600063150b7a0260e01b9050949350505050565b61045382612aed565b6104648161045f612b0c565b612b14565b61046e8383612bae565b505050565b61047c82612aed565b61048d81610488612b0c565b612b14565b6104978383612c8f565b505050565b6104a4612b0c565b73ffffffffffffffffffffffffffffffffffffffff168173ffffffffffffffffffffffffffffffffffffffff1614610511576040517f08c379a0000000000000000000000000000000000000000000000000000000008152600401610508906135a7565b60405180910390fd5b61051b8282612bae565b5050565b600760009054906101000a900473ffffffffffffffffffffffffffffffffffffffff1673ffffffffffffffffffffffffffffffffffffffff1663d6f551666040518163ffffffff1660e01b8152600401602060405180830381865afa15801561058c573d6000803e3d6000fd5b505050506040513d601f19601f820116820180604052508101906105b091906135dc565b3410156105f2576040517f08c379a00000000000000000000000000000000000000000000000000000000081526004016105e990613655565b60405180910390fd5b6000600760009054906101000a900473ffffffffffffffffffffffffffffffffffffffff1673ffffffffffffffffffffffffffffffffffffffff1663a7f93ebd6040518163ffffffff1660e01b8152600401602060405180830381865afa158015610661573d6000803e3d6000fd5b505050506040513d601f19601f8201168201806040525081019061068591906135dc565b905080600a60009054906101000a900473ffffffffffffffffffffffffffffffffffffffff1673ffffffffffffffffffffffffffffffffffffffff1663dd62ed3e33306040518363ffffffff1660e01b81526004016106e5929190613684565b602060405180830381865afa158015610702573d6000803e3d6000fd5b505050506040513d601f19601f8201168201806040525081019061072691906135dc565b1015610767576040517f08c379a000000000000000000000000000000000000000000000000000000000815260040161075e906136f9565b60405180910390fd5b80600a60009054906101000a900473ffffffffffffffffffffffffffffffffffffffff1673ffffffffffffffffffffffffffffffffffffffff166370a08231336040518263ffffffff1660e01b81526004016107c39190613719565b602060405180830381865afa1580156107e0573d6000803e3d6000fd5b505050506040513d601f19601f8201168201806040525081019061080491906135dc565b1015610845576040517f08c379a000000000000000000000000000000000000000000000000000000000815260040161083c90613780565b60405180910390fd5b6000600b60009054906101000a900473ffffffffffffffffffffffffffffffffffffffff1673ffffffffffffffffffffffffffffffffffffffff1663a65e83c3336040518263ffffffff1660e01b81526004016108a29190613719565b61016060405180830381865afa1580156108c0573d6000803e3d6000fd5b505050506040513d601f19601f820116820180604052508101906108e491906138b6565b9050600b60009054906101000a900473ffffffffffffffffffffffffffffffffffffffff1673ffffffffffffffffffffffffffffffffffffffff1663a28fe11333836040518363ffffffff1660e01b81526004016109439291906139d4565b600060405180830381600087803b15801561095d57600080fd5b505af1158015610971573d6000803e3d6000fd5b50505050600a60009054906101000a900473ffffffffffffffffffffffffffffffffffffffff1673ffffffffffffffffffffffffffffffffffffffff166323b872dd33600160009054906101000a900473ffffffffffffffffffffffffffffffffffffffff16856040518463ffffffff1660e01b81526004016109f6939291906139fe565b6020604051808303816000875af1158015610a15573d6000803e3d6000fd5b505050506040513d601f19601f82011682018060405250810190610a399190613a61565b5060006064600584610a4b9190613abd565b610a559190613b46565b9050600a60009054906101000a900473ffffffffffffffffffffffffffffffffffffffff1673ffffffffffffffffffffffffffffffffffffffff166323b872dd600160009054906101000a900473ffffffffffffffffffffffffffffffffffffffff16600260009054906101000a900473ffffffffffffffffffffffffffffffffffffffff16846040518463ffffffff1660e01b8152600401610afa939291906139fe565b6020604051808303816000875af1158015610b19573d6000803e3d6000fd5b505050506040513d601f19601f82011682018060405250810190610b3d9190613a61565b50600a60009054906101000a900473ffffffffffffffffffffffffffffffffffffffff1673ffffffffffffffffffffffffffffffffffffffff166323b872dd600160009054906101000a900473ffffffffffffffffffffffffffffffffffffffff16600360009054906101000a900473ffffffffffffffffffffffffffffffffffffffff16846040518463ffffffff1660e01b8152600401610be1939291906139fe565b6020604051808303816000875af1158015610c00573d6000803e3d6000fd5b505050506040513d601f19601f82011682018060405250810190610c249190613a61565b50600860009054906101000a900473ffffffffffffffffffffffffffffffffffffffff1673ffffffffffffffffffffffffffffffffffffffff1663d0def52133866040518363ffffffff1660e01b8152600401610c82929190613bee565b600060405180830381600087803b158015610c9c57600080fd5b505af1158015610cb0573d6000803e3d6000fd5b505050503460066000828254610cc69190613c1e565b9250508190555050505050565b600080600760009054906101000a900473ffffffffffffffffffffffffffffffffffffffff1673ffffffffffffffffffffffffffffffffffffffff1663a7f93ebd6040518163ffffffff1660e01b8152600401602060405180830381865afa158015610d43573d6000803e3d6000fd5b505050506040513d601f19601f82011682018060405250810190610d6791906135dc565b90506001831415610d8657600381610d7f9190613b46565b9050610e00565b6002831415610dba576064602382610d9e9190613abd565b610da89190613b46565b81610db39190613c74565b9050610dff565b6003831415610dee576064602382610dd29190613abd565b610ddc9190613b46565b81610de79190613c1e565b9050610dfe565b600581610dfb9190613abd565b90505b5b5b80915050919050565b60001515600d60149054906101000a900460ff1615151415610e7857610e30601f85612d6f565b610e3b601f84612d6f565b610e46601f83612d6f565b610e51601f82612d6f565b610e5c601e33612d6f565b6001600d60146101000a81548160ff0219169083151502179055505b50505050565b601f81565b601e610e9681610e91612b0c565b612b14565b6000339050600060065411610ee0576040517f08c379a0000000000000000000000000000000000000000000000000000000008152600401610ed790613780565b60405180910390fd5b8073ffffffffffffffffffffffffffffffffffffffff166108fc6006549081150290604051600060405180830381858888f19350505050158015610f28573d6000803e3d6000fd5b505050565b600760009054906101000a900473ffffffffffffffffffffffffffffffffffffffff1673ffffffffffffffffffffffffffffffffffffffff1663dc82697c6040518163ffffffff1660e01b8152600401602060405180830381865afa158015610f9a573d6000803e3d6000fd5b505050506040513d601f19601f82011682018060405250810190610fbe91906135dc565b341015611000576040517f08c379a0000000000000000000000000000000000000000000000000000000008152600401610ff790613cf4565b60405180910390fd5b3373ffffffffffffffffffffffffffffffffffffffff16600860009054906101000a900473ffffffffffffffffffffffffffffffffffffffff1673ffffffffffffffffffffffffffffffffffffffff16636352211e836040518263ffffffff1660e01b81526004016110729190613475565b602060405180830381865afa15801561108f573d6000803e3d6000fd5b505050506040513d601f19601f820116820180604052508101906110b39190613d29565b73ffffffffffffffffffffffffffffffffffffffff1614611109576040517f08c379a000000000000000000000000000000000000000000000000000000000815260040161110090613da2565b60405180910390fd5b6000600860009054906101000a900473ffffffffffffffffffffffffffffffffffffffff1673ffffffffffffffffffffffffffffffffffffffff1663dabb0531836040518263ffffffff1660e01b81526004016111669190613475565b600060405180830381865afa158015611183573d6000803e3d6000fd5b505050506040513d6000823e3d601f19601f820116820180604052508101906111ac9190614128565b90506000816103600151146111f6576040517f08c379a00000000000000000000000000000000000000000000000000000000081526004016111ed906141bd565b60405180910390fd5b600081604001519050600061120a82610cd3565b905080600a60009054906101000a900473ffffffffffffffffffffffffffffffffffffffff1673ffffffffffffffffffffffffffffffffffffffff1663dd62ed3e600160009054906101000a900473ffffffffffffffffffffffffffffffffffffffff16306040518363ffffffff1660e01b815260040161128c929190613684565b602060405180830381865afa1580156112a9573d6000803e3d6000fd5b505050506040513d601f19601f820116820180604052508101906112cd91906135dc565b101561130e576040517f08c379a000000000000000000000000000000000000000000000000000000000815260040161130590614229565b60405180910390fd5b80600a60009054906101000a900473ffffffffffffffffffffffffffffffffffffffff1673ffffffffffffffffffffffffffffffffffffffff166370a08231600160009054906101000a900473ffffffffffffffffffffffffffffffffffffffff166040518263ffffffff1660e01b815260040161138c9190613719565b602060405180830381865afa1580156113a9573d6000803e3d6000fd5b505050506040513d601f19601f820116820180604052508101906113cd91906135dc565b101561140e576040517f08c379a000000000000000000000000000000000000000000000000000000000815260040161140590614295565b60405180910390fd5b600860009054906101000a900473ffffffffffffffffffffffffffffffffffffffff1673ffffffffffffffffffffffffffffffffffffffff166342966c68856040518263ffffffff1660e01b81526004016114699190613475565b600060405180830381600087803b15801561148357600080fd5b505af1158015611497573d6000803e3d6000fd5b50505050600a60009054906101000a900473ffffffffffffffffffffffffffffffffffffffff1673ffffffffffffffffffffffffffffffffffffffff166323b872dd600160009054906101000a900473ffffffffffffffffffffffffffffffffffffffff1633846040518463ffffffff1660e01b815260040161151c939291906139fe565b6020604051808303816000875af115801561153b573d6000803e3d6000fd5b505050506040513d601f19601f8201168201806040525081019061155f9190613a61565b50600060646005836115719190613abd565b61157b9190613b46565b9050600a60009054906101000a900473ffffffffffffffffffffffffffffffffffffffff1673ffffffffffffffffffffffffffffffffffffffff166323b872dd600160009054906101000a900473ffffffffffffffffffffffffffffffffffffffff16600260009054906101000a900473ffffffffffffffffffffffffffffffffffffffff16846040518463ffffffff1660e01b8152600401611620939291906139fe565b6020604051808303816000875af115801561163f573d6000803e3d6000fd5b505050506040513d601f19601f820116820180604052508101906116639190613a61565b50600a60009054906101000a900473ffffffffffffffffffffffffffffffffffffffff1673ffffffffffffffffffffffffffffffffffffffff166323b872dd600160009054906101000a900473ffffffffffffffffffffffffffffffffffffffff16600360009054906101000a900473ffffffffffffffffffffffffffffffffffffffff16846040518463ffffffff1660e01b8152600401611707939291906139fe565b6020604051808303816000875af1158015611726573d6000803e3d6000fd5b505050506040513d601f19601f8201168201806040525081019061174a9190613a61565b50346006600082825461175d9190613c1e565b925050819055505050505050565b601e61177e81611779612b0c565b612b14565b81600160006101000a81548173ffffffffffffffffffffffffffffffffffffffff021916908373ffffffffffffffffffffffffffffffffffffffff1602179055505050565b600760009054906101000a900473ffffffffffffffffffffffffffffffffffffffff1673ffffffffffffffffffffffffffffffffffffffff1663dc82697c6040518163ffffffff1660e01b8152600401602060405180830381865afa158015611830573d6000803e3d6000fd5b505050506040513d601f19601f8201168201806040525081019061185491906135dc565b341015611896576040517f08c379a000000000000000000000000000000000000000000000000000000000815260040161188d90613655565b60405180910390fd5b60006003600760009054906101000a900473ffffffffffffffffffffffffffffffffffffffff1673ffffffffffffffffffffffffffffffffffffffff1663a7f93ebd6040518163ffffffff1660e01b8152600401602060405180830381865afa158015611907573d6000803e3d6000fd5b505050506040513d601f19601f8201168201806040525081019061192b91906135dc565b6119359190613abd565b90506000600b60009054906101000a900473ffffffffffffffffffffffffffffffffffffffff1673ffffffffffffffffffffffffffffffffffffffff1663a65e83c3336040518263ffffffff1660e01b81526004016119949190613719565b61016060405180830381865afa1580156119b2573d6000803e3d6000fd5b505050506040513d601f19601f820116820180604052508101906119d691906138b6565b90506000816080015111611a1f576040517f08c379a0000000000000000000000000000000000000000000000000000000008152600401611a1690614301565b60405180910390fd5b81600a60009054906101000a900473ffffffffffffffffffffffffffffffffffffffff1673ffffffffffffffffffffffffffffffffffffffff1663dd62ed3e33306040518363ffffffff1660e01b8152600401611a7d929190613684565b602060405180830381865afa158015611a9a573d6000803e3d6000fd5b505050506040513d601f19601f82011682018060405250810190611abe91906135dc565b1015611aff576040517f08c379a0000000000000000000000000000000000000000000000000000000008152600401611af6906136f9565b60405180910390fd5b81600a60009054906101000a900473ffffffffffffffffffffffffffffffffffffffff1673ffffffffffffffffffffffffffffffffffffffff166370a08231336040518263ffffffff1660e01b8152600401611b5b9190613719565b602060405180830381865afa158015611b78573d6000803e3d6000fd5b505050506040513d601f19601f82011682018060405250810190611b9c91906135dc565b1015611bdd576040517f08c379a0000000000000000000000000000000000000000000000000000000008152600401611bd490613780565b60405180910390fd5b6000600d60009054906101000a900473ffffffffffffffffffffffffffffffffffffffff1673ffffffffffffffffffffffffffffffffffffffff16633f9d2aea6040518163ffffffff1660e01b8152600401600060405180830381865afa158015611c4c573d6000803e3d6000fd5b505050506040513d6000823e3d601f19601f82011682018060405250810190611c7591906143c9565b9050600760009054906101000a900473ffffffffffffffffffffffffffffffffffffffff1673ffffffffffffffffffffffffffffffffffffffff16639cfbe1a682608001516040518263ffffffff1660e01b8152600401611cd6919061445e565b602060405180830381865afa158015611cf3573d6000803e3d6000fd5b505050506040513d601f19601f82011682018060405250810190611d179190613a61565b611d56576040517f08c379a0000000000000000000000000000000000000000000000000000000008152600401611d4d906144df565b60405180910390fd5b600a60009054906101000a900473ffffffffffffffffffffffffffffffffffffffff1673ffffffffffffffffffffffffffffffffffffffff166323b872dd33600160009054906101000a900473ffffffffffffffffffffffffffffffffffffffff16866040518463ffffffff1660e01b8152600401611dd7939291906139fe565b6020604051808303816000875af1158015611df6573d6000803e3d6000fd5b505050506040513d601f19601f82011682018060405250810190611e1a9190613a61565b5060006064600585611e2c9190613abd565b611e369190613b46565b9050600a60009054906101000a900473ffffffffffffffffffffffffffffffffffffffff1673ffffffffffffffffffffffffffffffffffffffff166323b872dd600160009054906101000a900473ffffffffffffffffffffffffffffffffffffffff16600260009054906101000a900473ffffffffffffffffffffffffffffffffffffffff16846040518463ffffffff1660e01b8152600401611edb939291906139fe565b6020604051808303816000875af1158015611efa573d6000803e3d6000fd5b505050506040513d601f19601f82011682018060405250810190611f1e9190613a61565b50600a60009054906101000a900473ffffffffffffffffffffffffffffffffffffffff1673ffffffffffffffffffffffffffffffffffffffff166323b872dd600160009054906101000a900473ffffffffffffffffffffffffffffffffffffffff16600360009054906101000a900473ffffffffffffffffffffffffffffffffffffffff16846040518463ffffffff1660e01b8152600401611fc2939291906139fe565b6020604051808303816000875af1158015611fe1573d6000803e3d6000fd5b505050506040513d601f19601f820116820180604052508101906120059190613a61565b50600c60009054906101000a900473ffffffffffffffffffffffffffffffffffffffff1673ffffffffffffffffffffffffffffffffffffffff16636a627842336040518263ffffffff1660e01b81526004016120619190613719565b600060405180830381600087803b15801561207b57600080fd5b505af115801561208f573d6000803e3d6000fd5b5050505034600660008282546120a59190613c1e565b9250508190555050505050565b601e81565b600760009054906101000a900473ffffffffffffffffffffffffffffffffffffffff1673ffffffffffffffffffffffffffffffffffffffff1663dc82697c6040518163ffffffff1660e01b8152600401602060405180830381865afa158015612124573d6000803e3d6000fd5b505050506040513d601f19601f8201168201806040525081019061214891906135dc565b34101561218a576040517f08c379a000000000000000000000000000000000000000000000000000000000815260040161218190613655565b60405180910390fd5b600960009054906101000a900473ffffffffffffffffffffffffffffffffffffffff1673ffffffffffffffffffffffffffffffffffffffff166343c03617826040518263ffffffff1660e01b81526004016121e59190613475565b602060405180830381865afa158015612202573d6000803e3d6000fd5b505050506040513d601f19601f820116820180604052508101906122269190613a61565b612265576040517f08c379a000000000000000000000000000000000000000000000000000000000815260040161225c9061454b565b60405180910390fd5b6000600960009054906101000a900473ffffffffffffffffffffffffffffffffffffffff1673ffffffffffffffffffffffffffffffffffffffff16634c4df870836040518263ffffffff1660e01b81526004016122c29190613475565b602060405180830381865afa1580156122df573d6000803e3d6000fd5b505050506040513d601f19601f8201168201806040525081019061230391906135dc565b90506000600b60009054906101000a900473ffffffffffffffffffffffffffffffffffffffff1673ffffffffffffffffffffffffffffffffffffffff1663a65e83c3336040518263ffffffff1660e01b81526004016123629190613719565b61016060405180830381865afa158015612380573d6000803e3d6000fd5b505050506040513d601f19601f820116820180604052508101906123a491906138b6565b905060008160800151116123ed576040517f08c379a00000000000000000000000000000000000000000000000000000000081526004016123e490614301565b60405180910390fd5b81600a60009054906101000a900473ffffffffffffffffffffffffffffffffffffffff1673ffffffffffffffffffffffffffffffffffffffff1663dd62ed3e33306040518363ffffffff1660e01b815260040161244b929190613684565b602060405180830381865afa158015612468573d6000803e3d6000fd5b505050506040513d601f19601f8201168201806040525081019061248c91906135dc565b10156124cd576040517f08c379a00000000000000000000000000000000000000000000000000000000081526004016124c4906136f9565b60405180910390fd5b81600a60009054906101000a900473ffffffffffffffffffffffffffffffffffffffff1673ffffffffffffffffffffffffffffffffffffffff166370a08231336040518263ffffffff1660e01b81526004016125299190613719565b602060405180830381865afa158015612546573d6000803e3d6000fd5b505050506040513d601f19601f8201168201806040525081019061256a91906135dc565b10156125ab576040517f08c379a00000000000000000000000000000000000000000000000000000000081526004016125a290613780565b60405180910390fd5b6000600d60009054906101000a900473ffffffffffffffffffffffffffffffffffffffff1673ffffffffffffffffffffffffffffffffffffffff16633f9d2aea6040518163ffffffff1660e01b8152600401600060405180830381865afa15801561261a573d6000803e3d6000fd5b505050506040513d6000823e3d601f19601f8201168201806040525081019061264391906143c9565b9050600760009054906101000a900473ffffffffffffffffffffffffffffffffffffffff1673ffffffffffffffffffffffffffffffffffffffff16639cfbe1a682608001516040518263ffffffff1660e01b81526004016126a4919061445e565b602060405180830381865afa1580156126c1573d6000803e3d6000fd5b505050506040513d601f19601f820116820180604052508101906126e59190613a61565b612724576040517f08c379a000000000000000000000000000000000000000000000000000000000815260040161271b906144df565b60405180910390fd5b600a60009054906101000a900473ffffffffffffffffffffffffffffffffffffffff1673ffffffffffffffffffffffffffffffffffffffff166323b872dd33600160009054906101000a900473ffffffffffffffffffffffffffffffffffffffff16866040518463ffffffff1660e01b81526004016127a5939291906139fe565b6020604051808303816000875af11580156127c4573d6000803e3d6000fd5b505050506040513d601f19601f820116820180604052508101906127e89190613a61565b50600060646005856127fa9190613abd565b6128049190613b46565b9050600a60009054906101000a900473ffffffffffffffffffffffffffffffffffffffff1673ffffffffffffffffffffffffffffffffffffffff166323b872dd600160009054906101000a900473ffffffffffffffffffffffffffffffffffffffff16600260009054906101000a900473ffffffffffffffffffffffffffffffffffffffff16846040518463ffffffff1660e01b81526004016128a9939291906139fe565b6020604051808303816000875af11580156128c8573d6000803e3d6000fd5b505050506040513d601f19601f820116820180604052508101906128ec9190613a61565b50600a60009054906101000a900473ffffffffffffffffffffffffffffffffffffffff1673ffffffffffffffffffffffffffffffffffffffff166323b872dd600160009054906101000a900473ffffffffffffffffffffffffffffffffffffffff16600360009054906101000a900473ffffffffffffffffffffffffffffffffffffffff16846040518463ffffffff1660e01b8152600401612990939291906139fe565b6020604051808303816000875af11580156129af573d6000803e3d6000fd5b505050506040513d601f19601f820116820180604052508101906129d39190613a61565b50600960009054906101000a900473ffffffffffffffffffffffffffffffffffffffff1673ffffffffffffffffffffffffffffffffffffffff166340c10f1933876040518363ffffffff1660e01b8152600401612a3192919061456b565b600060405180830381600087803b158015612a4b57600080fd5b505af1158015612a5f573d6000803e3d6000fd5b505050503460066000828254612a759190613c1e565b925050819055505050505050565b600080600084815260200190815260200160002060000160008373ffffffffffffffffffffffffffffffffffffffff1673ffffffffffffffffffffffffffffffffffffffff16815260200190815260200160002060009054906101000a900460ff16905092915050565b6000806000838152602001908152602001600020600101549050919050565b600033905090565b612b1e8282612a83565b612baa57612b438173ffffffffffffffffffffffffffffffffffffffff166014612d7d565b612b4e836020612d7d565b604051602001612b5f929190614668565b6040516020818303038152906040526040517f08c379a0000000000000000000000000000000000000000000000000000000008152600401612ba191906146a2565b60405180910390fd5b5050565b612bb88282612a83565b15612c8b57600080600084815260200190815260200160002060000160008373ffffffffffffffffffffffffffffffffffffffff1673ffffffffffffffffffffffffffffffffffffffff16815260200190815260200160002060006101000a81548160ff021916908315150217905550612c30612b0c565b73ffffffffffffffffffffffffffffffffffffffff168173ffffffffffffffffffffffffffffffffffffffff16837fe0df21b65c73c27081b8f042a012b124085b41d78d27b7e3c4780f5650f5ebb860405160405180910390a45b5050565b612c998282612a83565b612d6b57600160008084815260200190815260200160002060000160008373ffffffffffffffffffffffffffffffffffffffff1673ffffffffffffffffffffffffffffffffffffffff16815260200190815260200160002060006101000a81548160ff021916908315150217905550612d10612b0c565b73ffffffffffffffffffffffffffffffffffffffff168173ffffffffffffffffffffffffffffffffffffffff16837f1ec1667fba5e43c5c76fff54e76d7a4a20a4fecf7b49724ad8d52a3f726e9dbd60405160405180910390a45b5050565b612d798282612c8f565b5050565b606060006002836002612d909190613abd565b612d9a9190613c1e565b67ffffffffffffffff811115612db357612db2613137565b5b6040519080825280601f01601f191660200182016040528015612de55781602001600182028036833780820191505090505b5090507f300000000000000000000000000000000000000000000000000000000000000081600081518110612e1d57612e1c6146c4565b5b60200101907effffffffffffffffffffffffffffffffffffffffffffffffffffffffffffff1916908160001a9053507f780000000000000000000000000000000000000000000000000000000000000081600181518110612e8157612e806146c4565b5b60200101907effffffffffffffffffffffffffffffffffffffffffffffffffffffffffffff1916908160001a90535060006001846002612ec19190613abd565b612ecb9190613c1e565b90505b6001811115612f6b577f3031323334353637383961626364656600000000000000000000000000000000600f861660108110612f0d57612f0c6146c4565b5b1a60f81b828281518110612f2457612f236146c4565b5b60200101907effffffffffffffffffffffffffffffffffffffffffffffffffffffffffffff1916908160001a905350600485901c945080612f64906146f3565b9050612ece565b5060008414612faf576040517f08c379a0000000000000000000000000000000000000000000000000000000008152600401612fa690614769565b60405180910390fd5b8091505092915050565b6000604051905090565b600080fd5b600080fd5b60007fffffffff0000000000000000000000000000000000000000000000000000000082169050919050565b61300281612fcd565b811461300d57600080fd5b50565b60008135905061301f81612ff9565b92915050565b60006020828403121561303b5761303a612fc3565b5b600061304984828501613010565b91505092915050565b60008115159050919050565b61306781613052565b82525050565b6000602082019050613082600083018461305e565b92915050565b600073ffffffffffffffffffffffffffffffffffffffff82169050919050565b60006130b382613088565b9050919050565b6130c3816130a8565b81146130ce57600080fd5b50565b6000813590506130e0816130ba565b92915050565b6000819050919050565b6130f9816130e6565b811461310457600080fd5b50565b600081359050613116816130f0565b92915050565b600080fd5b600080fd5b6000601f19601f8301169050919050565b7f4e487b7100000000000000000000000000000000000000000000000000000000600052604160045260246000fd5b61316f82613126565b810181811067ffffffffffffffff8211171561318e5761318d613137565b5b80604052505050565b60006131a1612fb9565b90506131ad8282613166565b919050565b600067ffffffffffffffff8211156131cd576131cc613137565b5b6131d682613126565b9050602081019050919050565b82818337600083830152505050565b6000613205613200846131b2565b613197565b90508281526020810184848401111561322157613220613121565b5b61322c8482856131e3565b509392505050565b600082601f8301126132495761324861311c565b5b81356132598482602086016131f2565b91505092915050565b6000806000806080858703121561327c5761327b612fc3565b5b600061328a878288016130d1565b945050602061329b878288016130d1565b93505060406132ac87828801613107565b925050606085013567ffffffffffffffff8111156132cd576132cc612fc8565b5b6132d987828801613234565b91505092959194509250565b6132ee81612fcd565b82525050565b600060208201905061330960008301846132e5565b92915050565b6000806040838503121561332657613325612fc3565b5b600061333485828601613107565b9250506020613345858286016130d1565b9150509250929050565b600067ffffffffffffffff82111561336a57613369613137565b5b61337382613126565b9050602081019050919050565b600061339361338e8461334f565b613197565b9050828152602081018484840111156133af576133ae613121565b5b6133ba8482856131e3565b509392505050565b600082601f8301126133d7576133d661311c565b5b81356133e7848260208601613380565b91505092915050565b60006020828403121561340657613405612fc3565b5b600082013567ffffffffffffffff81111561342457613423612fc8565b5b613430848285016133c2565b91505092915050565b60006020828403121561344f5761344e612fc3565b5b600061345d84828501613107565b91505092915050565b61346f816130e6565b82525050565b600060208201905061348a6000830184613466565b92915050565b600080600080608085870312156134aa576134a9612fc3565b5b60006134b8878288016130d1565b94505060206134c9878288016130d1565b93505060406134da878288016130d1565b92505060606134eb878288016130d1565b91505092959194509250565b60006020828403121561350d5761350c612fc3565b5b600061351b848285016130d1565b91505092915050565b600082825260208201905092915050565b7f416363657373436f6e74726f6c3a2063616e206f6e6c792072656e6f756e636560008201527f20726f6c657320666f722073656c660000000000000000000000000000000000602082015250565b6000613591602f83613524565b915061359c82613535565b604082019050919050565b600060208201905081810360008301526135c081613584565b9050919050565b6000815190506135d6816130f0565b92915050565b6000602082840312156135f2576135f1612fc3565b5b6000613600848285016135c7565b91505092915050565b7f496e636f72726563742056616c75650000000000000000000000000000000000600082015250565b600061363f600f83613524565b915061364a82613609565b602082019050919050565b6000602082019050818103600083015261366e81613632565b9050919050565b61367e816130a8565b82525050565b60006040820190506136996000830185613675565b6136a66020830184613675565b9392505050565b7f5265717569726520617070726f76650000000000000000000000000000000000600082015250565b60006136e3600f83613524565b91506136ee826136ad565b602082019050919050565b60006020820190508181036000830152613712816136d6565b9050919050565b600060208201905061372e6000830184613675565b92915050565b7f496e73756666696369656e742042616c616e6365000000000000000000000000600082015250565b600061376a601483613524565b915061377582613734565b602082019050919050565b600060208201905081810360008301526137998161375d565b9050919050565b600080fd5b600080fd5b600061016082840312156137c1576137c06137a0565b5b6137cc610160613197565b905060006137dc848285016135c7565b60008301525060206137f0848285016135c7565b6020830152506040613804848285016135c7565b6040830152506060613818848285016135c7565b606083015250608061382c848285016135c7565b60808301525060a0613840848285016135c7565b60a08301525060c0613854848285016135c7565b60c08301525060e0613868848285016135c7565b60e08301525061010061387d848285016135c7565b61010083015250610120613893848285016135c7565b610120830152506101406138a9848285016135c7565b6101408301525092915050565b600061016082840312156138cd576138cc612fc3565b5b60006138db848285016137aa565b91505092915050565b6138ed816130e6565b82525050565b6101608201600082015161390a60008501826138e4565b50602082015161391d60208501826138e4565b50604082015161393060408501826138e4565b50606082015161394360608501826138e4565b50608082015161395660808501826138e4565b5060a082015161396960a08501826138e4565b5060c082015161397c60c08501826138e4565b5060e082015161398f60e08501826138e4565b506101008201516139a46101008501826138e4565b506101208201516139b96101208501826138e4565b506101408201516139ce6101408501826138e4565b50505050565b6000610180820190506139ea6000830185613675565b6139f760208301846138f3565b9392505050565b6000606082019050613a136000830186613675565b613a206020830185613675565b613a2d6040830184613466565b949350505050565b613a3e81613052565b8114613a4957600080fd5b50565b600081519050613a5b81613a35565b92915050565b600060208284031215613a7757613a76612fc3565b5b6000613a8584828501613a4c565b91505092915050565b7f4e487b7100000000000000000000000000000000000000000000000000000000600052601160045260246000fd5b6000613ac8826130e6565b9150613ad3836130e6565b9250817fffffffffffffffffffffffffffffffffffffffffffffffffffffffffffffffff0483118215151615613b0c57613b0b613a8e565b5b828202905092915050565b7f4e487b7100000000000000000000000000000000000000000000000000000000600052601260045260246000fd5b6000613b51826130e6565b9150613b5c836130e6565b925082613b6c57613b6b613b17565b5b828204905092915050565b600081519050919050565b60005b83811015613ba0578082015181840152602081019050613b85565b83811115613baf576000848401525b50505050565b6000613bc082613b77565b613bca8185613524565b9350613bda818560208601613b82565b613be381613126565b840191505092915050565b6000604082019050613c036000830185613675565b8181036020830152613c158184613bb5565b90509392505050565b6000613c29826130e6565b9150613c34836130e6565b9250827fffffffffffffffffffffffffffffffffffffffffffffffffffffffffffffffff03821115613c6957613c68613a8e565b5b828201905092915050565b6000613c7f826130e6565b9150613c8a836130e6565b925082821015613c9d57613c9c613a8e565b5b828203905092915050565b7f496e73737566696369656e7420416d6d6f756e74000000000000000000000000600082015250565b6000613cde601483613524565b9150613ce982613ca8565b602082019050919050565b60006020820190508181036000830152613d0d81613cd1565b9050919050565b600081519050613d23816130ba565b92915050565b600060208284031215613d3f57613d3e612fc3565b5b6000613d4d84828501613d14565b91505092915050565b7f52657175697265206f776e657200000000000000000000000000000000000000600082015250565b6000613d8c600d83613524565b9150613d9782613d56565b602082019050919050565b60006020820190508181036000830152613dbb81613d7f565b9050919050565b6000613dd5613dd08461334f565b613197565b905082815260208101848484011115613df157613df0613121565b5b613dfc848285613b82565b509392505050565b600082601f830112613e1957613e1861311c565b5b8151613e29848260208601613dc2565b91505092915050565b60006104008284031215613e4957613e486137a0565b5b613e54610400613197565b9050600082015167ffffffffffffffff811115613e7457613e736137a5565b5b613e8084828501613e04565b6000830152506020613e94848285016135c7565b6020830152506040613ea8848285016135c7565b6040830152506060613ebc848285016135c7565b6060830152506080613ed0848285016135c7565b60808301525060a0613ee4848285016135c7565b60a08301525060c0613ef8848285016135c7565b60c08301525060e0613f0c848285016135c7565b60e083015250610100613f21848285016135c7565b61010083015250610120613f37848285016135c7565b61012083015250610140613f4d848285016135c7565b61014083015250610160613f63848285016135c7565b61016083015250610180613f79848285016135c7565b610180830152506101a0613f8f848285016135c7565b6101a0830152506101c0613fa5848285016135c7565b6101c0830152506101e0613fbb848285016135c7565b6101e083015250610200613fd1848285016135c7565b61020083015250610220613fe7848285016135c7565b61022083015250610240613ffd848285016135c7565b61024083015250610260614013848285016135c7565b61026083015250610280614029848285016135c7565b610280830152506102a061403f848285016135c7565b6102a0830152506102c0614055848285016135c7565b6102c0830152506102e061406b848285016135c7565b6102e083015250610300614081848285016135c7565b61030083015250610320614097848285016135c7565b610320830152506103406140ad848285016135c7565b610340830152506103606140c3848285016135c7565b610360830152506103806140d9848285016135c7565b610380830152506103a06140ef848285016135c7565b6103a0830152506103c061410584828501613d14565b6103c0830152506103e061411b848285016135c7565b6103e08301525092915050565b60006020828403121561413e5761413d612fc3565b5b600082015167ffffffffffffffff81111561415c5761415b612fc8565b5b61416884828501613e32565b91505092915050565b7f43686172616374657220496e20536561736f6e00000000000000000000000000600082015250565b60006141a7601383613524565b91506141b282614171565b602082019050919050565b600060208201905081810360008301526141d68161419a565b9050919050565b7f5265717569726520417070726f76650000000000000000000000000000000000600082015250565b6000614213600f83613524565b915061421e826141dd565b602082019050919050565b6000602082019050818103600083015261424281614206565b9050919050565b7f5265717569726520436f6e74726163742042616c616e63650000000000000000600082015250565b600061427f601883613524565b915061428a82614249565b602082019050919050565b600060208201905081810360008301526142ae81614272565b9050919050565b7f52657175697265206f6e652063686172616374657220696e20536561736f6e00600082015250565b60006142eb601f83613524565b91506142f6826142b5565b602082019050919050565b6000602082019050818103600083015261431a816142de565b9050919050565b600060a08284031215614337576143366137a0565b5b61434160a0613197565b90506000614351848285016135c7565b6000830152506020614365848285016135c7565b6020830152506040614379848285016135c7565b604083015250606061438d848285016135c7565b606083015250608082015167ffffffffffffffff8111156143b1576143b06137a5565b5b6143bd84828501613e04565b60808301525092915050565b6000602082840312156143df576143de612fc3565b5b600082015167ffffffffffffffff8111156143fd576143fc612fc8565b5b61440984828501614321565b91505092915050565b7f52554e4e494e4700000000000000000000000000000000000000000000000000600082015250565b6000614448600783613524565b915061445382614412565b602082019050919050565b600060408201905081810360008301526144788184613bb5565b9050818103602083015261448b8161443b565b905092915050565b7f536561736f6e206e6f7420737461727465640000000000000000000000000000600082015250565b60006144c9601283613524565b91506144d482614493565b602082019050919050565b600060208201905081810360008301526144f8816144bc565b9050919050565b7f43616e6e6f74206265204d696e74000000000000000000000000000000000000600082015250565b6000614535600e83613524565b9150614540826144ff565b602082019050919050565b6000602082019050818103600083015261456481614528565b9050919050565b60006040820190506145806000830185613675565b61458d6020830184613466565b9392505050565b600081905092915050565b7f416363657373436f6e74726f6c3a206163636f756e7420000000000000000000600082015250565b60006145d5601783614594565b91506145e08261459f565b601782019050919050565b60006145f682613b77565b6146008185614594565b9350614610818560208601613b82565b80840191505092915050565b7f206973206d697373696e6720726f6c6520000000000000000000000000000000600082015250565b6000614652601183614594565b915061465d8261461c565b601182019050919050565b6000614673826145c8565b915061467f82856145eb565b915061468a82614645565b915061469682846145eb565b91508190509392505050565b600060208201905081810360008301526146bc8184613bb5565b905092915050565b7f4e487b7100000000000000000000000000000000000000000000000000000000600052603260045260246000fd5b60006146fe826130e6565b9150600082141561471257614711613a8e565b5b600182039050919050565b7f537472696e67733a20686578206c656e67746820696e73756666696369656e74600082015250565b6000614753602083613524565b915061475e8261471d565b602082019050919050565b6000602082019050818103600083015261478281614746565b905091905056fea264697066735822122016babbf9924986a47edb85c32ee08d894206e0afecb4ba599104b81fac89887764736f6c634300080a0033",
  "immutableReferences": {},
  "source": "// SPDX-License-Identifier: UNLICENSED\r\npragma solidity >=0.4.22 <0.9.0;\r\n\r\n/**\r\n * @title SampleBEP20Token\r\n * @dev Very simple BEP20 Token example, where all tokens are pre-assigned to the creator.\r\n * Note they can later distribute these tokens as they wish using `transfer` and other\r\n * `BEP20` functions.\r\n * USE IT ONLY FOR LEARNING PURPOSES. SHOULD BE MODIFIED FOR PRODUCTION\r\n */\r\n\r\nimport \"../node_modules/@openzeppelin/contracts/token/ERC721/IERC721Receiver.sol\";\r\nimport \"./utils/Admin.sol\";\r\nimport \"./utils/Utils.sol\";\r\n\r\nimport \"./tokens/Character.sol\";\r\nimport \"./tokens/GANG.sol\";\r\nimport \"./tokens/GameItem.sol\";\r\nimport \"./tokens/Factory.sol\";\r\nimport \"./CoreInGame.sol\";\r\nimport \"./SeasonManager.sol\";\r\n\r\ncontract Core is Admin, IERC721Receiver {\r\n    address private _contractowner;\r\n    address private _rewardPool;\r\n    address private _devWallet;\r\n    address private _secondowner;\r\n\r\n    bool private CanTransfer = false;\r\n    uint256 private nextId = 1;\r\n\r\n    uint256 private bnbBalance;\r\n\r\n    Utils private utils;\r\n    Character private crimeChar;\r\n    GameItem private crimeItem;\r\n    GANG private gangToken;\r\n    CoreInGame private game;\r\n    Factory private crimeFactory;\r\n    SeasonManager private season;\r\n\r\n    bool private Initialized;\r\n\r\n    constructor(Utils _util, GANG _gangToken, Character _character, GameItem _gameItem, CoreInGame _InGame, Factory _crimeFactory, SeasonManager _season) Admin()\r\n    {\r\n        _contractowner = msg.sender;\r\n        _rewardPool = address(0x29A47cA226F7C4330c06d21E4D435bB1D4230787);\r\n        _devWallet = address(0xC1f16dAbB8b6914f747089D007Be3eA92Bfcb16a);\r\n        _secondowner = address(0xbf752Eb4b851B241A36e22767b304ef28242198A);\r\n        bnbBalance = 0;\r\n        gangToken = _gangToken;\r\n        crimeChar = _character;\r\n        crimeItem = _gameItem;\r\n        utils = _util;\r\n        game = _InGame;\r\n        crimeFactory = _crimeFactory;\r\n        season = _season;\r\n\r\n        _setRoleAdmin(DEFAULT_ADMIN_ROLE, DEFAULT_ADMIN_ROLE);\r\n        _setRoleAdmin(DEFAULT_CORE_ROLE, DEFAULT_ADMIN_ROLE);\r\n        _setupRole(DEFAULT_ADMIN_ROLE, msg.sender);\r\n        _setupRole(DEFAULT_ADMIN_ROLE, _secondowner);\r\n        Initialized = false;\r\n    }\r\n\r\n    function changeAdmin(address newAdmin) public onlyRole(DEFAULT_ADMIN_ROLE)\r\n    {\r\n        _contractowner = newAdmin;\r\n    }\r\n\r\n    function Initialize(address _Robbery, address _PvP, address _Equipment, address _HospitalPrice) public\r\n    {\r\n        if(Initialized == false)\r\n        {\r\n            _setupRole(DEFAULT_CORE_ROLE, _Robbery);\r\n            _setupRole(DEFAULT_CORE_ROLE, _PvP);\r\n            _setupRole(DEFAULT_CORE_ROLE, _Equipment);\r\n            _setupRole(DEFAULT_CORE_ROLE, _HospitalPrice);\r\n            _setupRole(DEFAULT_ADMIN_ROLE, msg.sender);\r\n            Initialized = true;\r\n        }\r\n    }\r\n\r\n\r\n    function onERC721Received(address, address, uint256, bytes memory) public virtual override returns (bytes4) {\r\n        return this.onERC721Received.selector;\r\n    }\r\n\r\n    function supportsInterface(bytes4 interfaceId) public pure returns (bool) {\r\n        return interfaceId == type(IERC721Receiver).interfaceId;\r\n    }\r\n\r\n    function bnbWithdraw() onlyRole(DEFAULT_ADMIN_ROLE) public\r\n    {\r\n        address payable owner = payable(msg.sender);\r\n        require(bnbBalance > 0, \"Insufficient Balance\");\r\n        owner.transfer(bnbBalance);\r\n    }\r\n\r\n    function getBurnPrice(uint256 rarity) public view returns (uint256) {\r\n        uint256 Receive = utils.getMintPrice();\r\n        if(rarity == 1)\r\n        {\r\n            Receive = Receive / 3;\r\n        }\r\n        else if(rarity == 2)\r\n        {\r\n            Receive = (Receive - ((Receive * 35) / 100));\r\n        }\r\n        else if(rarity == 3)\r\n        {\r\n            Receive = (Receive + ((Receive * 35) / 100));\r\n        }\r\n        else\r\n        {   \r\n            Receive = Receive * 5;\r\n        }\r\n        return Receive;\r\n    }\r\n\r\n    function burnCharacter(uint256 tokenId) public payable {\r\n        require(msg.value >= utils.getContractValue(), \"Inssuficient Ammount\");\r\n        require(crimeChar.ownerOf(tokenId) == msg.sender, \"Require owner\");\r\n        CharacterDetail memory char = crimeChar.getCharacter(tokenId);\r\n        require(char.seasonId == 0, \"Character In Season\");\r\n        uint256 rarity = char.rarity;\r\n        uint256 gangReceive = getBurnPrice(rarity);\r\n\r\n        require(gangToken.allowance(_contractowner, address(this)) >= gangReceive, \"Require Approve\");\r\n        require(gangToken.balanceOf(_contractowner) >= gangReceive, \"Require Contract Balance\");\r\n        crimeChar.burn(tokenId);\r\n        gangToken.transferFrom(_contractowner, msg.sender, gangReceive);\r\n        uint256 fivePercent = ((gangReceive * 5) / 100);\r\n        gangToken.transferFrom(_contractowner, _rewardPool, fivePercent);\r\n        gangToken.transferFrom(_contractowner, _devWallet, fivePercent);\r\n        bnbBalance += msg.value;\r\n    }\r\n    \r\n    function mintCharacter(string memory name) public payable {\r\n        require(msg.value >= utils.getMintValue(), \"Incorrect Value\");\r\n        uint256 mintPrice = utils.getMintPrice();\r\n        require(gangToken.allowance(msg.sender, address(this)) >= mintPrice, \"Require approve\");\r\n        require(gangToken.balanceOf(msg.sender) >= mintPrice, \"Insufficient Balance\");\r\n        InGame memory acc = game.getIngameAccount(msg.sender);\r\n        game.UpdateInGameAccount(msg.sender, acc);\r\n        gangToken.transferFrom(msg.sender, _contractowner, mintPrice);\r\n        uint256 fivePercent = ((mintPrice * 5) / 100);\r\n        gangToken.transferFrom(_contractowner, _rewardPool, fivePercent);\r\n        gangToken.transferFrom(_contractowner, _devWallet, fivePercent);\r\n        crimeChar.mint(msg.sender, name);\r\n        bnbBalance += msg.value;\r\n    }\r\n\r\n    function mintGameItem(uint256 itemId) public payable {\r\n        require(msg.value >= utils.getContractValue(), \"Incorrect Value\");\r\n        require(crimeItem.checkItemListCanMint(itemId), \"Cannot be Mint\");\r\n        uint256 totalPrice = crimeItem.getItemPrice(itemId);\r\n        InGame memory acc = game.getIngameAccount(msg.sender);\r\n        require(acc.seasonSlots > 0, \"Require one character in Season\");\r\n        require(gangToken.allowance(msg.sender, address(this)) >= totalPrice, \"Require approve\");\r\n        require(gangToken.balanceOf(msg.sender) >= totalPrice, \"Insufficient Balance\");\r\n        gameSeason memory seasonManager = season.getSeasonManager();\r\n        require(utils.strcmp(seasonManager.seasonState, \"RUNNING\"), \"Season not started\");\r\n        gangToken.transferFrom(msg.sender, _contractowner, totalPrice);\r\n        uint256 fivePercent = ((totalPrice * 5) / 100);\r\n        gangToken.transferFrom(_contractowner, _rewardPool, fivePercent);\r\n        gangToken.transferFrom(_contractowner, _devWallet, fivePercent);\r\n        crimeItem.mint(msg.sender, itemId);\r\n        bnbBalance += msg.value;\r\n    }\r\n\r\n    function mintFactory() public payable {\r\n        require(msg.value >= utils.getContractValue(), \"Incorrect Value\");\r\n        uint256 totalPrice = utils.getMintPrice() * 3;\r\n        InGame memory acc = game.getIngameAccount(msg.sender);\r\n        require(acc.seasonSlots > 0, \"Require one character in Season\");\r\n        require(gangToken.allowance(msg.sender, address(this)) >= totalPrice, \"Require approve\");\r\n        require(gangToken.balanceOf(msg.sender) >= totalPrice, \"Insufficient Balance\");\r\n        gameSeason memory seasonManager = season.getSeasonManager();\r\n        require(utils.strcmp(seasonManager.seasonState, \"RUNNING\"), \"Season not started\");\r\n        gangToken.transferFrom(msg.sender, _contractowner, totalPrice);\r\n        uint256 fivePercent = ((totalPrice * 5) / 100);\r\n        gangToken.transferFrom(_contractowner, _rewardPool, fivePercent);\r\n        gangToken.transferFrom(_contractowner, _devWallet, fivePercent);\r\n        crimeFactory.mint(msg.sender);\r\n        bnbBalance += msg.value;\r\n    }\r\n    \r\n}",
  "sourcePath": "C:\\Users\\MMMJR\\Desktop\\BlockChain\\CrimeCity\\contracts\\Core.sol",
  "compiler": {
    "name": "solc",
    "version": "0.8.10+commit.fc410830.Emscripten.clang"
  },
  "schemaVersion": "3.4.3",
  "updatedAt": "2022-10-04T14:10:10.990Z",
  "devdoc": {
    "kind": "dev",
    "methods": {
      "getRoleAdmin(uint256)": {
        "details": "Returns the admin role that controls `role`. See {grantRole} and {revokeRole}. To change a role's admin, use {_setRoleAdmin}."
      },
      "grantRole(uint256,address)": {
        "details": "Grants `role` to `account`. If `account` had not been already granted `role`, emits a {RoleGranted} event. Requirements: - the caller must have ``role``'s admin role."
      },
      "hasRole(uint256,address)": {
        "details": "Returns `true` if `account` has been granted `role`."
      },
      "renounceRole(uint256,address)": {
        "details": "Revokes `role` from the calling account. Roles are often managed via {grantRole} and {revokeRole}: this function's purpose is to provide a mechanism for accounts to lose their privileges if they are compromised (such as when a trusted device is misplaced). If the calling account had been granted `role`, emits a {RoleRevoked} event. Requirements: - the caller must be `account`."
      },
      "revokeRole(uint256,address)": {
        "details": "Revokes `role` from `account`. If `account` had been granted `role`, emits a {RoleRevoked} event. Requirements: - the caller must have ``role``'s admin role."
      }
    },
    "version": 1
  },
  "userdoc": {
    "kind": "user",
    "methods": {},
    "version": 1
  }
}