{
  "contractName": "CoreInGame",
  "abi": [
    {
      "inputs": [
        {
          "internalType": "contract Utils",
          "name": "_util",
          "type": "address"
        },
        {
          "internalType": "contract GANG",
          "name": "_gangToken",
          "type": "address"
        },
        {
          "internalType": "contract Character",
          "name": "_character",
          "type": "address"
        },
        {
          "internalType": "contract GameItem",
          "name": "_gameItem",
          "type": "address"
        },
        {
          "internalType": "contract CharacterUtils",
          "name": "_charUtils",
          "type": "address"
        },
        {
          "internalType": "contract Factory",
          "name": "_crimeFac",
          "type": "address"
        },
        {
          "internalType": "contract SeasonManager",
          "name": "_season",
          "type": "address"
        }
      ],
      "stateMutability": "nonpayable",
      "type": "constructor"
    },
    {
      "anonymous": false,
      "inputs": [
        {
          "indexed": true,
          "internalType": "uint256",
          "name": "role",
          "type": "uint256"
        },
        {
          "indexed": true,
          "internalType": "uint256",
          "name": "previousAdminRole",
          "type": "uint256"
        },
        {
          "indexed": true,
          "internalType": "uint256",
          "name": "newAdminRole",
          "type": "uint256"
        }
      ],
      "name": "RoleAdminChanged",
      "type": "event"
    },
    {
      "anonymous": false,
      "inputs": [
        {
          "indexed": true,
          "internalType": "uint256",
          "name": "role",
          "type": "uint256"
        },
        {
          "indexed": true,
          "internalType": "address",
          "name": "account",
          "type": "address"
        },
        {
          "indexed": true,
          "internalType": "address",
          "name": "sender",
          "type": "address"
        }
      ],
      "name": "RoleGranted",
      "type": "event"
    },
    {
      "anonymous": false,
      "inputs": [
        {
          "indexed": true,
          "internalType": "uint256",
          "name": "role",
          "type": "uint256"
        },
        {
          "indexed": true,
          "internalType": "address",
          "name": "account",
          "type": "address"
        },
        {
          "indexed": true,
          "internalType": "address",
          "name": "sender",
          "type": "address"
        }
      ],
      "name": "RoleRevoked",
      "type": "event"
    },
    {
      "inputs": [],
      "name": "DEFAULT_ADMIN_ROLE",
      "outputs": [
        {
          "internalType": "uint256",
          "name": "",
          "type": "uint256"
        }
      ],
      "stateMutability": "view",
      "type": "function"
    },
    {
      "inputs": [],
      "name": "DEFAULT_CORE_ROLE",
      "outputs": [
        {
          "internalType": "uint256",
          "name": "",
          "type": "uint256"
        }
      ],
      "stateMutability": "view",
      "type": "function"
    },
    {
      "inputs": [
        {
          "internalType": "uint256",
          "name": "role",
          "type": "uint256"
        }
      ],
      "name": "getRoleAdmin",
      "outputs": [
        {
          "internalType": "uint256",
          "name": "",
          "type": "uint256"
        }
      ],
      "stateMutability": "view",
      "type": "function"
    },
    {
      "inputs": [
        {
          "internalType": "uint256",
          "name": "role",
          "type": "uint256"
        },
        {
          "internalType": "address",
          "name": "account",
          "type": "address"
        }
      ],
      "name": "grantRole",
      "outputs": [],
      "stateMutability": "nonpayable",
      "type": "function"
    },
    {
      "inputs": [
        {
          "internalType": "uint256",
          "name": "role",
          "type": "uint256"
        },
        {
          "internalType": "address",
          "name": "account",
          "type": "address"
        }
      ],
      "name": "hasRole",
      "outputs": [
        {
          "internalType": "bool",
          "name": "",
          "type": "bool"
        }
      ],
      "stateMutability": "view",
      "type": "function"
    },
    {
      "inputs": [
        {
          "internalType": "uint256",
          "name": "role",
          "type": "uint256"
        },
        {
          "internalType": "address",
          "name": "account",
          "type": "address"
        }
      ],
      "name": "renounceRole",
      "outputs": [],
      "stateMutability": "nonpayable",
      "type": "function"
    },
    {
      "inputs": [
        {
          "internalType": "uint256",
          "name": "role",
          "type": "uint256"
        },
        {
          "internalType": "address",
          "name": "account",
          "type": "address"
        }
      ],
      "name": "revokeRole",
      "outputs": [],
      "stateMutability": "nonpayable",
      "type": "function"
    },
    {
      "inputs": [
        {
          "internalType": "address",
          "name": "_Robbery",
          "type": "address"
        },
        {
          "internalType": "address",
          "name": "_PvP",
          "type": "address"
        },
        {
          "internalType": "address",
          "name": "_Equipment",
          "type": "address"
        },
        {
          "internalType": "address",
          "name": "_HospitalPrice",
          "type": "address"
        },
        {
          "internalType": "address",
          "name": "_Core",
          "type": "address"
        },
        {
          "internalType": "address",
          "name": "_MarketPlace",
          "type": "address"
        },
        {
          "internalType": "address",
          "name": "_BlackMarket",
          "type": "address"
        }
      ],
      "name": "Initialize",
      "outputs": [],
      "stateMutability": "nonpayable",
      "type": "function"
    },
    {
      "inputs": [
        {
          "internalType": "address",
          "name": "",
          "type": "address"
        },
        {
          "internalType": "address",
          "name": "",
          "type": "address"
        },
        {
          "internalType": "uint256",
          "name": "",
          "type": "uint256"
        },
        {
          "internalType": "bytes",
          "name": "",
          "type": "bytes"
        }
      ],
      "name": "onERC721Received",
      "outputs": [
        {
          "internalType": "bytes4",
          "name": "",
          "type": "bytes4"
        }
      ],
      "stateMutability": "nonpayable",
      "type": "function"
    },
    {
      "inputs": [
        {
          "internalType": "bytes4",
          "name": "interfaceId",
          "type": "bytes4"
        }
      ],
      "name": "supportsInterface",
      "outputs": [
        {
          "internalType": "bool",
          "name": "",
          "type": "bool"
        }
      ],
      "stateMutability": "pure",
      "type": "function"
    },
    {
      "inputs": [],
      "name": "bnbWithdraw",
      "outputs": [],
      "stateMutability": "nonpayable",
      "type": "function"
    },
    {
      "inputs": [],
      "name": "resetAccsInSeason",
      "outputs": [],
      "stateMutability": "nonpayable",
      "type": "function"
    },
    {
      "inputs": [
        {
          "internalType": "address",
          "name": "newAdmin",
          "type": "address"
        }
      ],
      "name": "changeAdmin",
      "outputs": [],
      "stateMutability": "nonpayable",
      "type": "function"
    },
    {
      "inputs": [
        {
          "internalType": "uint256",
          "name": "amount",
          "type": "uint256"
        }
      ],
      "name": "depositGANG",
      "outputs": [],
      "stateMutability": "nonpayable",
      "type": "function"
    },
    {
      "inputs": [
        {
          "internalType": "address",
          "name": "addr",
          "type": "address"
        },
        {
          "internalType": "uint256",
          "name": "tokenId",
          "type": "uint256"
        }
      ],
      "name": "checkCharacterCanRun",
      "outputs": [
        {
          "internalType": "bool",
          "name": "",
          "type": "bool"
        }
      ],
      "stateMutability": "view",
      "type": "function"
    },
    {
      "inputs": [],
      "name": "getSeasonId",
      "outputs": [
        {
          "internalType": "uint256",
          "name": "",
          "type": "uint256"
        }
      ],
      "stateMutability": "view",
      "type": "function"
    },
    {
      "inputs": [
        {
          "internalType": "address",
          "name": "addr",
          "type": "address"
        },
        {
          "internalType": "uint256",
          "name": "tokenId",
          "type": "uint256"
        }
      ],
      "name": "checkCharacterCanRunHP",
      "outputs": [
        {
          "internalType": "bool",
          "name": "",
          "type": "bool"
        }
      ],
      "stateMutability": "view",
      "type": "function"
    },
    {
      "inputs": [
        {
          "internalType": "uint256",
          "name": "tokenId",
          "type": "uint256"
        }
      ],
      "name": "claimFactory",
      "outputs": [],
      "stateMutability": "nonpayable",
      "type": "function"
    },
    {
      "inputs": [
        {
          "internalType": "uint256",
          "name": "tokenId",
          "type": "uint256"
        }
      ],
      "name": "applyCharacterinSeason",
      "outputs": [],
      "stateMutability": "nonpayable",
      "type": "function"
    },
    {
      "inputs": [
        {
          "internalType": "address",
          "name": "addr",
          "type": "address"
        }
      ],
      "name": "getClaimTax",
      "outputs": [
        {
          "internalType": "uint256",
          "name": "",
          "type": "uint256"
        }
      ],
      "stateMutability": "view",
      "type": "function"
    },
    {
      "inputs": [
        {
          "internalType": "address",
          "name": "addr",
          "type": "address"
        }
      ],
      "name": "getClaimReal",
      "outputs": [
        {
          "internalType": "uint256",
          "name": "",
          "type": "uint256"
        }
      ],
      "stateMutability": "view",
      "type": "function"
    },
    {
      "inputs": [],
      "name": "claim",
      "outputs": [],
      "stateMutability": "payable",
      "type": "function"
    },
    {
      "inputs": [
        {
          "internalType": "address",
          "name": "addr",
          "type": "address"
        }
      ],
      "name": "getIngameAccount",
      "outputs": [
        {
          "components": [
            {
              "internalType": "uint256",
              "name": "balance",
              "type": "uint256"
            },
            {
              "internalType": "uint256",
              "name": "claimTime",
              "type": "uint256"
            },
            {
              "internalType": "uint256",
              "name": "lastClaim",
              "type": "uint256"
            },
            {
              "internalType": "uint256",
              "name": "claimTax",
              "type": "uint256"
            },
            {
              "internalType": "uint256",
              "name": "seasonSlots",
              "type": "uint256"
            },
            {
              "internalType": "uint256",
              "name": "prisonPrice",
              "type": "uint256"
            },
            {
              "internalType": "uint256",
              "name": "beer",
              "type": "uint256"
            },
            {
              "internalType": "uint256",
              "name": "cannabis",
              "type": "uint256"
            },
            {
              "internalType": "uint256",
              "name": "opio",
              "type": "uint256"
            },
            {
              "internalType": "uint256",
              "name": "cocaine",
              "type": "uint256"
            },
            {
              "internalType": "uint256",
              "name": "vip",
              "type": "uint256"
            }
          ],
          "internalType": "struct InGame",
          "name": "",
          "type": "tuple"
        }
      ],
      "stateMutability": "view",
      "type": "function"
    },
    {
      "inputs": [
        {
          "internalType": "address",
          "name": "addr",
          "type": "address"
        },
        {
          "components": [
            {
              "internalType": "uint256",
              "name": "balance",
              "type": "uint256"
            },
            {
              "internalType": "uint256",
              "name": "claimTime",
              "type": "uint256"
            },
            {
              "internalType": "uint256",
              "name": "lastClaim",
              "type": "uint256"
            },
            {
              "internalType": "uint256",
              "name": "claimTax",
              "type": "uint256"
            },
            {
              "internalType": "uint256",
              "name": "seasonSlots",
              "type": "uint256"
            },
            {
              "internalType": "uint256",
              "name": "prisonPrice",
              "type": "uint256"
            },
            {
              "internalType": "uint256",
              "name": "beer",
              "type": "uint256"
            },
            {
              "internalType": "uint256",
              "name": "cannabis",
              "type": "uint256"
            },
            {
              "internalType": "uint256",
              "name": "opio",
              "type": "uint256"
            },
            {
              "internalType": "uint256",
              "name": "cocaine",
              "type": "uint256"
            },
            {
              "internalType": "uint256",
              "name": "vip",
              "type": "uint256"
            }
          ],
          "internalType": "struct InGame",
          "name": "acc",
          "type": "tuple"
        }
      ],
      "name": "UpdateInGameAccount",
      "outputs": [],
      "stateMutability": "nonpayable",
      "type": "function"
    },
    {
      "inputs": [
        {
          "internalType": "address",
          "name": "addr",
          "type": "address"
        }
      ],
      "name": "getRemaingClaimTime",
      "outputs": [
        {
          "internalType": "int256",
          "name": "",
          "type": "int256"
        }
      ],
      "stateMutability": "view",
      "type": "function"
    },
    {
      "inputs": [
        {
          "internalType": "address",
          "name": "addr",
          "type": "address"
        }
      ],
      "name": "canClaim",
      "outputs": [
        {
          "internalType": "bool",
          "name": "",
          "type": "bool"
        }
      ],
      "stateMutability": "view",
      "type": "function"
    },
    {
      "inputs": [
        {
          "internalType": "uint256",
          "name": "itemId",
          "type": "uint256"
        }
      ],
      "name": "mintGameItem",
      "outputs": [],
      "stateMutability": "payable",
      "type": "function"
    }
  ],
  "bytecode": "0x60806040526000600c553480156200001657600080fd5b506040516200669f3803806200669f83398181016040528101906200003c91906200074f565b33600160006101000a81548173ffffffffffffffffffffffffffffffffffffffff021916908373ffffffffffffffffffffffffffffffffffffffff16021790555073bf752eb4b851b241a36e22767b304ef28242198a600260006101000a81548173ffffffffffffffffffffffffffffffffffffffff021916908373ffffffffffffffffffffffffffffffffffffffff160217905550600060038190555085600a60006101000a81548173ffffffffffffffffffffffffffffffffffffffff021916908373ffffffffffffffffffffffffffffffffffffffff16021790555084600660006101000a81548173ffffffffffffffffffffffffffffffffffffffff021916908373ffffffffffffffffffffffffffffffffffffffff16021790555083600860006101000a81548173ffffffffffffffffffffffffffffffffffffffff021916908373ffffffffffffffffffffffffffffffffffffffff16021790555086600560006101000a81548173ffffffffffffffffffffffffffffffffffffffff021916908373ffffffffffffffffffffffffffffffffffffffff16021790555082600760006101000a81548173ffffffffffffffffffffffffffffffffffffffff021916908373ffffffffffffffffffffffffffffffffffffffff16021790555081600960006101000a81548173ffffffffffffffffffffffffffffffffffffffff021916908373ffffffffffffffffffffffffffffffffffffffff16021790555080600b60006101000a81548173ffffffffffffffffffffffffffffffffffffffff021916908373ffffffffffffffffffffffffffffffffffffffff160217905550620002b4601e806200033860201b60201c565b620002c8601f601e6200033860201b60201c565b620002db601e336200039b60201b60201c565b62000310601e600260009054906101000a900473ffffffffffffffffffffffffffffffffffffffff166200039b60201b60201c565b6000600a60146101000a81548160ff0219169083151502179055505050505050505062000802565b60006200034b83620003b160201b60201c565b905081600080858152602001908152602001600020600101819055508181847f6620dedee755c284a7e221a3279487b734830c1f76c026c797b4d019c6b4b2f460405160405180910390a4505050565b620003ad8282620003d060201b60201c565b5050565b6000806000838152602001908152602001600020600101549050919050565b620003e28282620004c160201b60201c565b620004bd57600160008084815260200190815260200160002060000160008373ffffffffffffffffffffffffffffffffffffffff1673ffffffffffffffffffffffffffffffffffffffff16815260200190815260200160002060006101000a81548160ff021916908315150217905550620004626200052b60201b60201c565b73ffffffffffffffffffffffffffffffffffffffff168173ffffffffffffffffffffffffffffffffffffffff16837f1ec1667fba5e43c5c76fff54e76d7a4a20a4fecf7b49724ad8d52a3f726e9dbd60405160405180910390a45b5050565b600080600084815260200190815260200160002060000160008373ffffffffffffffffffffffffffffffffffffffff1673ffffffffffffffffffffffffffffffffffffffff16815260200190815260200160002060009054906101000a900460ff16905092915050565b600033905090565b600080fd5b600073ffffffffffffffffffffffffffffffffffffffff82169050919050565b6000620005658262000538565b9050919050565b6000620005798262000558565b9050919050565b6200058b816200056c565b81146200059757600080fd5b50565b600081519050620005ab8162000580565b92915050565b6000620005be8262000558565b9050919050565b620005d081620005b1565b8114620005dc57600080fd5b50565b600081519050620005f081620005c5565b92915050565b6000620006038262000558565b9050919050565b6200061581620005f6565b81146200062157600080fd5b50565b60008151905062000635816200060a565b92915050565b6000620006488262000558565b9050919050565b6200065a816200063b565b81146200066657600080fd5b50565b6000815190506200067a816200064f565b92915050565b60006200068d8262000558565b9050919050565b6200069f8162000680565b8114620006ab57600080fd5b50565b600081519050620006bf8162000694565b92915050565b6000620006d28262000558565b9050919050565b620006e481620006c5565b8114620006f057600080fd5b50565b6000815190506200070481620006d9565b92915050565b6000620007178262000558565b9050919050565b62000729816200070a565b81146200073557600080fd5b50565b60008151905062000749816200071e565b92915050565b600080600080600080600060e0888a03121562000771576200077062000533565b5b6000620007818a828b016200059a565b9750506020620007948a828b01620005df565b9650506040620007a78a828b0162000624565b9550506060620007ba8a828b0162000669565b9450506080620007cd8a828b01620006ae565b93505060a0620007e08a828b01620006f3565b92505060c0620007f38a828b0162000738565b91505092959891949750929550565b615e8d80620008126000396000f3fe60806040526004361061019c5760003560e01c8063804b54ab116100ec578063d458716e1161008a578063ec2606c011610064578063ec2606c0146105a4578063f7a6ab8e146105e1578063f81efff61461060c578063fb2990ad146106495761019c565b8063d458716e14610522578063d45e61e71461055f578063d51b8105146105885761019c565b8063a28fe113116100c6578063a28fe11314610456578063a65e83c31461047f578063ba903958146104bc578063bf3506c1146104e55761019c565b8063804b54ab146103c55780638f28397014610402578063a217fddf1461042b5761019c565b80632580a45411610159578063580e2e2311610133578063580e2e231461031d578063638999491461035a5780636f45e4e51461038357806375bbeee7146103ae5761019c565b80632580a454146102d35780634ba8d74b146102fc5780634e71d92d146103135761019c565b806301ffc9a7146101a15780630eea7dab146101de578063150b7a021461021b5780631d0b19e7146102585780631fe5f589146102815780632308d236146102aa575b600080fd5b3480156101ad57600080fd5b506101c860048036038101906101c39190613cc4565b610686565b6040516101d59190613d0c565b60405180910390f35b3480156101ea57600080fd5b5061020560048036038101906102009190613d85565b6106f0565b6040516102129190613dcb565b60405180910390f35b34801561022757600080fd5b50610242600480360381019061023d9190613f62565b610747565b60405161024f9190613ff4565b60405180910390f35b34801561026457600080fd5b5061027f600480360381019061027a919061400f565b61075b565b005b34801561028d57600080fd5b506102a860048036038101906102a3919061400f565b610784565b005b3480156102b657600080fd5b506102d160048036038101906102cc919061400f565b6107ad565b005b3480156102df57600080fd5b506102fa60048036038101906102f5919061404f565b610830565b005b34801561030857600080fd5b506103116108c9565b005b61031b610be6565b005b34801561032957600080fd5b50610344600480360381019061033f9190613d85565b611119565b6040516103519190614100565b60405180910390f35b34801561036657600080fd5b50610381600480360381019061037c919061411b565b611294565b005b34801561038f57600080fd5b50610398611649565b6040516103a59190614100565b60405180910390f35b3480156103ba57600080fd5b506103c361164e565b005b3480156103d157600080fd5b506103ec60048036038101906103e79190614148565b6116f8565b6040516103f99190613d0c565b60405180910390f35b34801561040e57600080fd5b5061042960048036038101906104249190613d85565b611afd565b005b34801561043757600080fd5b50610440611b55565b60405161044d9190614100565b60405180910390f35b34801561046257600080fd5b5061047d6004803603810190610478919061429e565b611b5a565b005b34801561048b57600080fd5b506104a660048036038101906104a19190613d85565b611e73565b6040516104b391906143cf565b60405180910390f35b3480156104c857600080fd5b506104e360048036038101906104de919061411b565b611f3b565b005b3480156104f157600080fd5b5061050c60048036038101906105079190613d85565b61254c565b6040516105199190613d0c565b60405180910390f35b34801561052e57600080fd5b5061054960048036038101906105449190614148565b61259b565b6040516105569190613d0c565b60405180910390f35b34801561056b57600080fd5b506105866004803603810190610581919061411b565b612a30565b005b6105a2600480360381019061059d919061411b565b613057565b005b3480156105b057600080fd5b506105cb60048036038101906105c6919061400f565b61342f565b6040516105d89190613d0c565b60405180910390f35b3480156105ed57600080fd5b506105f6613499565b6040516106039190614100565b60405180910390f35b34801561061857600080fd5b50610633600480360381019061062e9190613d85565b61353f565b6040516106409190614100565b60405180910390f35b34801561065557600080fd5b50610670600480360381019061066b919061411b565b613732565b60405161067d9190614100565b60405180910390f35b60007f150b7a02000000000000000000000000000000000000000000000000000000007bffffffffffffffffffffffffffffffffffffffffffffffffffffffff1916827bffffffffffffffffffffffffffffffffffffffffffffffffffffffff1916149050919050565b6000600460008373ffffffffffffffffffffffffffffffffffffffff1673ffffffffffffffffffffffffffffffffffffffff1681526020019081526020016000206001015442610740919061441a565b9050919050565b600063150b7a0260e01b9050949350505050565b61076482613732565b61077581610770613751565b613759565b61077f83836137f3565b505050565b61078d82613732565b61079e81610799613751565b613759565b6107a883836138d4565b505050565b6107b5613751565b73ffffffffffffffffffffffffffffffffffffffff168173ffffffffffffffffffffffffffffffffffffffff1614610822576040517f08c379a0000000000000000000000000000000000000000000000000000000008152600401610819906144d1565b60405180910390fd5b61082c82826137f3565b5050565b60001515600a60149054906101000a900460ff16151514156108c057610857601f866139b4565b610862601f856139b4565b61086d601f886139b4565b610878601f876139b4565b610883601f846139b4565b61088e601f836139b4565b610899601f826139b4565b6108a4601e336139b4565b6001600a60146101000a81548160ff0219169083151502179055505b50505050505050565b601e6108dc816108d7613751565b613759565b6000600b60009054906101000a900473ffffffffffffffffffffffffffffffffffffffff1673ffffffffffffffffffffffffffffffffffffffff1663c3309a616040518163ffffffff1660e01b8152600401600060405180830381865afa15801561094b573d6000803e3d6000fd5b505050506040513d6000823e3d601f19601f8201168201806040525081019061097491906145ce565b905060005b8151811015610be15760006004600084848151811061099b5761099a614617565b5b602002602001015173ffffffffffffffffffffffffffffffffffffffff1673ffffffffffffffffffffffffffffffffffffffff168152602001908152602001600020600401819055506000600460008484815181106109fd576109fc614617565b5b602002602001015173ffffffffffffffffffffffffffffffffffffffff1673ffffffffffffffffffffffffffffffffffffffff16815260200190815260200160002060050181905550600060046000848481518110610a5f57610a5e614617565b5b602002602001015173ffffffffffffffffffffffffffffffffffffffff1673ffffffffffffffffffffffffffffffffffffffff16815260200190815260200160002060060181905550600060046000848481518110610ac157610ac0614617565b5b602002602001015173ffffffffffffffffffffffffffffffffffffffff1673ffffffffffffffffffffffffffffffffffffffff16815260200190815260200160002060070181905550600060046000848481518110610b2357610b22614617565b5b602002602001015173ffffffffffffffffffffffffffffffffffffffff1673ffffffffffffffffffffffffffffffffffffffff16815260200190815260200160002060080181905550600060046000848481518110610b8557610b84614617565b5b602002602001015173ffffffffffffffffffffffffffffffffffffffff1673ffffffffffffffffffffffffffffffffffffffff168152602001908152602001600020600901819055508080610bd990614646565b915050610979565b505050565b600560009054906101000a900473ffffffffffffffffffffffffffffffffffffffff1673ffffffffffffffffffffffffffffffffffffffff1663dc82697c6040518163ffffffff1660e01b8152600401602060405180830381865afa158015610c53573d6000803e3d6000fd5b505050506040513d601f19601f82011682018060405250810190610c7791906146a4565b341015610cb9576040517f08c379a0000000000000000000000000000000000000000000000000000000008152600401610cb09061471d565b60405180910390fd5b600560009054906101000a900473ffffffffffffffffffffffffffffffffffffffff1673ffffffffffffffffffffffffffffffffffffffff16630483d5756040518163ffffffff1660e01b8152600401602060405180830381865afa158015610d26573d6000803e3d6000fd5b505050506040513d601f19601f82011682018060405250810190610d4a91906146a4565b600460003373ffffffffffffffffffffffffffffffffffffffff1673ffffffffffffffffffffffffffffffffffffffff168152602001908152602001600020600001541015610dce576040517f08c379a0000000000000000000000000000000000000000000000000000000008152600401610dc590614789565b60405180910390fd5b600460003373ffffffffffffffffffffffffffffffffffffffff1673ffffffffffffffffffffffffffffffffffffffff16815260200190815260200160002060010154421015610e53576040517f08c379a0000000000000000000000000000000000000000000000000000000008152600401610e4a906147f5565b60405180910390fd5b6000600460003373ffffffffffffffffffffffffffffffffffffffff1673ffffffffffffffffffffffffffffffffffffffff16815260200190815260200160002060000154905080600a60009054906101000a900473ffffffffffffffffffffffffffffffffffffffff1673ffffffffffffffffffffffffffffffffffffffff166370a08231600160009054906101000a900473ffffffffffffffffffffffffffffffffffffffff166040518263ffffffff1660e01b8152600401610f189190614824565b602060405180830381865afa158015610f35573d6000803e3d6000fd5b505050506040513d601f19601f82011682018060405250810190610f5991906146a4565b1015610f9a576040517f08c379a0000000000000000000000000000000000000000000000000000000008152600401610f919061488b565b60405180910390fd5b6000610fa53361353f565b90506000600460003373ffffffffffffffffffffffffffffffffffffffff1673ffffffffffffffffffffffffffffffffffffffff168152602001908152602001600020600001819055506000600460003373ffffffffffffffffffffffffffffffffffffffff1673ffffffffffffffffffffffffffffffffffffffff16815260200190815260200160002060010181905550346003600082825461104991906148ab565b92505081905550600a60009054906101000a900473ffffffffffffffffffffffffffffffffffffffff1673ffffffffffffffffffffffffffffffffffffffff166323b872dd600160009054906101000a900473ffffffffffffffffffffffffffffffffffffffff1633846040518463ffffffff1660e01b81526004016110d193929190614901565b6020604051808303816000875af11580156110f0573d6000803e3d6000fd5b505050506040513d601f19601f820116820180604052508101906111149190614964565b505050565b600080600090506000600460008573ffffffffffffffffffffffffffffffffffffffff1673ffffffffffffffffffffffffffffffffffffffff1681526020019081526020016000206000015411611173578091505061128f565b600460008473ffffffffffffffffffffffffffffffffffffffff1673ffffffffffffffffffffffffffffffffffffffff16815260200190815260200160002060010154421061128a576000600460008573ffffffffffffffffffffffffffffffffffffffff1673ffffffffffffffffffffffffffffffffffffffff168152602001908152602001600020600101544261120c919061441a565b90506000604b9050600062015180831061127b57620151808361122f91906149c0565b905060028161123e91906149f1565b905060018161124d91906148ab565b9050600e81111561125d57600e90505b60058161126a91906149f1565b82611275919061441a565b91508193505b8193508394505050505061128f565b809150505b919050565b600081116112d7576040517f08c379a00000000000000000000000000000000000000000000000000000000081526004016112ce90614a97565b60405180910390fd5b80600a60009054906101000a900473ffffffffffffffffffffffffffffffffffffffff1673ffffffffffffffffffffffffffffffffffffffff1663dd62ed3e33306040518363ffffffff1660e01b8152600401611335929190614ab7565b602060405180830381865afa158015611352573d6000803e3d6000fd5b505050506040513d601f19601f8201168201806040525081019061137691906146a4565b10156113b7576040517f08c379a00000000000000000000000000000000000000000000000000000000081526004016113ae90614b2c565b60405180910390fd5b80600a60009054906101000a900473ffffffffffffffffffffffffffffffffffffffff1673ffffffffffffffffffffffffffffffffffffffff166370a08231336040518263ffffffff1660e01b81526004016114139190614824565b602060405180830381865afa158015611430573d6000803e3d6000fd5b505050506040513d601f19601f8201168201806040525081019061145491906146a4565b1015611495576040517f08c379a000000000000000000000000000000000000000000000000000000000815260040161148c90614b98565b60405180910390fd5b600a60009054906101000a900473ffffffffffffffffffffffffffffffffffffffff1673ffffffffffffffffffffffffffffffffffffffff166323b872dd33600160009054906101000a900473ffffffffffffffffffffffffffffffffffffffff16846040518463ffffffff1660e01b815260040161151693929190614901565b6020604051808303816000875af1158015611535573d6000803e3d6000fd5b505050506040513d601f19601f820116820180604052508101906115599190614964565b5080600460003373ffffffffffffffffffffffffffffffffffffffff1673ffffffffffffffffffffffffffffffffffffffff16815260200190815260200160002060000160008282546115ac91906148ab565b925050819055506000600460003373ffffffffffffffffffffffffffffffffffffffff1673ffffffffffffffffffffffffffffffffffffffff1681526020019081526020016000206001015414156116465742600460003373ffffffffffffffffffffffffffffffffffffffff1673ffffffffffffffffffffffffffffffffffffffff168152602001908152602001600020600101819055505b50565b601f81565b601e6116618161165c613751565b613759565b60003390506000600354116116ab576040517f08c379a00000000000000000000000000000000000000000000000000000000081526004016116a290614b98565b60405180910390fd5b8073ffffffffffffffffffffffffffffffffffffffff166108fc6003549081150290604051600060405180830381858888f193505050501580156116f3573d6000803e3d6000fd5b505050565b60008273ffffffffffffffffffffffffffffffffffffffff16600660009054906101000a900473ffffffffffffffffffffffffffffffffffffffff1673ffffffffffffffffffffffffffffffffffffffff16636352211e846040518263ffffffff1660e01b815260040161176c9190614100565b602060405180830381865afa158015611789573d6000803e3d6000fd5b505050506040513d601f19601f820116820180604052508101906117ad9190614bb8565b73ffffffffffffffffffffffffffffffffffffffff1614611803576040517f08c379a00000000000000000000000000000000000000000000000000000000081526004016117fa90614c31565b60405180910390fd5b6000600660009054906101000a900473ffffffffffffffffffffffffffffffffffffffff1673ffffffffffffffffffffffffffffffffffffffff1663dabb0531846040518263ffffffff1660e01b81526004016118609190614100565b600060405180830381865afa15801561187d573d6000803e3d6000fd5b505050506040513d6000823e3d601f19601f820116820180604052508101906118a6919061501b565b90506000600b60009054906101000a900473ffffffffffffffffffffffffffffffffffffffff1673ffffffffffffffffffffffffffffffffffffffff16633f9d2aea6040518163ffffffff1660e01b8152600401600060405180830381865afa158015611917573d6000803e3d6000fd5b505050506040513d6000823e3d601f19601f82011682018060405250810190611940919061510c565b9050600560009054906101000a900473ffffffffffffffffffffffffffffffffffffffff1673ffffffffffffffffffffffffffffffffffffffff16639cfbe1a682608001516040518263ffffffff1660e01b81526004016119a191906151e5565b602060405180830381865afa1580156119be573d6000803e3d6000fd5b505050506040513d601f19601f820116820180604052508101906119e29190614964565b611a21576040517f08c379a0000000000000000000000000000000000000000000000000000000008152600401611a1890615266565b60405180910390fd5b806000015182610360015114611a6c576040517f08c379a0000000000000000000000000000000000000000000000000000000008152600401611a63906152d2565b60405180910390fd5b6000600460008773ffffffffffffffffffffffffffffffffffffffff1673ffffffffffffffffffffffffffffffffffffffff1681526020019081526020016000206004015411611af1576040517f08c379a0000000000000000000000000000000000000000000000000000000008152600401611ae890615266565b60405180910390fd5b60019250505092915050565b601e611b1081611b0b613751565b613759565b81600160006101000a81548173ffffffffffffffffffffffffffffffffffffffff021916908373ffffffffffffffffffffffffffffffffffffffff1602179055505050565b601e81565b611b6c601f611b67613751565b613759565b80600460008473ffffffffffffffffffffffffffffffffffffffff1673ffffffffffffffffffffffffffffffffffffffff168152602001908152602001600020600082015181600001556020820151816001015560408201518160020155606082015181600301556080820151816004015560a0820151816005015560c0820151816006015560e082015181600701556101008201518160080155610120820151816009015561014082015181600a01559050506000600460008473ffffffffffffffffffffffffffffffffffffffff1673ffffffffffffffffffffffffffffffffffffffff168152602001908152602001600020600a01819055506000600660009054906101000a900473ffffffffffffffffffffffffffffffffffffffff1673ffffffffffffffffffffffffffffffffffffffff166370a08231846040518263ffffffff1660e01b8152600401611cc59190614824565b602060405180830381865afa158015611ce2573d6000803e3d6000fd5b505050506040513d601f19601f82011682018060405250810190611d0691906146a4565b905060058110158015611d195750600a81105b15611d6b576001600460008573ffffffffffffffffffffffffffffffffffffffff1673ffffffffffffffffffffffffffffffffffffffff168152602001908152602001600020600a0181905550611e6e565b600a8110158015611d7c5750600f81105b15611dce576002600460008573ffffffffffffffffffffffffffffffffffffffff1673ffffffffffffffffffffffffffffffffffffffff168152602001908152602001600020600a0181905550611e6d565b600f8110611e23576003600460008573ffffffffffffffffffffffffffffffffffffffff1673ffffffffffffffffffffffffffffffffffffffff168152602001908152602001600020600a0181905550611e6c565b6000600460008573ffffffffffffffffffffffffffffffffffffffff1673ffffffffffffffffffffffffffffffffffffffff168152602001908152602001600020600a01819055505b5b5b505050565b611e7b613bfe565b600460008373ffffffffffffffffffffffffffffffffffffffff1673ffffffffffffffffffffffffffffffffffffffff1681526020019081526020016000206040518061016001604052908160008201548152602001600182015481526020016002820154815260200160038201548152602001600482015481526020016005820154815260200160068201548152602001600782015481526020016008820154815260200160098201548152602001600a820154815250509050919050565b3373ffffffffffffffffffffffffffffffffffffffff16600960009054906101000a900473ffffffffffffffffffffffffffffffffffffffff1673ffffffffffffffffffffffffffffffffffffffff16636352211e836040518263ffffffff1660e01b8152600401611fad9190614100565b602060405180830381865afa158015611fca573d6000803e3d6000fd5b505050506040513d601f19601f82011682018060405250810190611fee9190614bb8565b73ffffffffffffffffffffffffffffffffffffffff1614612044576040517f08c379a000000000000000000000000000000000000000000000000000000000815260040161203b90614c31565b60405180910390fd5b6000600960009054906101000a900473ffffffffffffffffffffffffffffffffffffffff1673ffffffffffffffffffffffffffffffffffffffff166355a204f9836040518263ffffffff1660e01b81526004016120a19190614100565b61010060405180830381865afa1580156120bf573d6000803e3d6000fd5b505050506040513d601f19601f820116820180604052508101906120e391906153bc565b90506000600b60009054906101000a900473ffffffffffffffffffffffffffffffffffffffff1673ffffffffffffffffffffffffffffffffffffffff16633f9d2aea6040518163ffffffff1660e01b8152600401600060405180830381865afa158015612154573d6000803e3d6000fd5b505050506040513d6000823e3d601f19601f8201168201806040525081019061217d919061510c565b9050600082604001519050600a81101580156121995750600e81105b6121d8576040517f08c379a00000000000000000000000000000000000000000000000000000000081526004016121cf90615436565b60405180910390fd5b600560009054906101000a900473ffffffffffffffffffffffffffffffffffffffff1673ffffffffffffffffffffffffffffffffffffffff16639cfbe1a683608001516040518263ffffffff1660e01b815260040161223791906151e5565b602060405180830381865afa158015612254573d6000803e3d6000fd5b505050506040513d601f19601f820116820180604052508101906122789190614964565b6122b7576040517f08c379a00000000000000000000000000000000000000000000000000000000081526004016122ae90615266565b60405180910390fd5b8260a001514210156122fe576040517f08c379a00000000000000000000000000000000000000000000000000000000081526004016122f5906154a2565b60405180910390fd5b620151804261230d91906148ab565b8360a0018181525050600a811415612381578260600151600460003373ffffffffffffffffffffffffffffffffffffffff1673ffffffffffffffffffffffffffffffffffffffff168152602001908152602001600020600601600082825461237591906148ab565b925050819055506124b7565b600b8114156123ec578260600151600460003373ffffffffffffffffffffffffffffffffffffffff1673ffffffffffffffffffffffffffffffffffffffff16815260200190815260200160002060070160008282546123e091906148ab565b925050819055506124b6565b600c811415612457578260600151600460003373ffffffffffffffffffffffffffffffffffffffff1673ffffffffffffffffffffffffffffffffffffffff168152602001908152602001600020600801600082825461244b91906148ab565b925050819055506124b5565b8260600151600460003373ffffffffffffffffffffffffffffffffffffffff1673ffffffffffffffffffffffffffffffffffffffff16815260200190815260200160002060090160008282546124ad91906148ab565b925050819055505b5b5b600960009054906101000a900473ffffffffffffffffffffffffffffffffffffffff1673ffffffffffffffffffffffffffffffffffffffff166356c5112e85856040518363ffffffff1660e01b8152600401612514929190615582565b600060405180830381600087803b15801561252e57600080fd5b505af1158015612542573d6000803e3d6000fd5b5050505050505050565b6000600460008373ffffffffffffffffffffffffffffffffffffffff1673ffffffffffffffffffffffffffffffffffffffff168152602001908152602001600020600101544210159050919050565b60008273ffffffffffffffffffffffffffffffffffffffff16600660009054906101000a900473ffffffffffffffffffffffffffffffffffffffff1673ffffffffffffffffffffffffffffffffffffffff16636352211e846040518263ffffffff1660e01b815260040161260f9190614100565b602060405180830381865afa15801561262c573d6000803e3d6000fd5b505050506040513d601f19601f820116820180604052508101906126509190614bb8565b73ffffffffffffffffffffffffffffffffffffffff16146126a6576040517f08c379a000000000000000000000000000000000000000000000000000000000815260040161269d90614c31565b60405180910390fd5b6000600660009054906101000a900473ffffffffffffffffffffffffffffffffffffffff1673ffffffffffffffffffffffffffffffffffffffff1663dabb0531846040518263ffffffff1660e01b81526004016127039190614100565b600060405180830381865afa158015612720573d6000803e3d6000fd5b505050506040513d6000823e3d601f19601f82011682018060405250810190612749919061501b565b90506000600b60009054906101000a900473ffffffffffffffffffffffffffffffffffffffff1673ffffffffffffffffffffffffffffffffffffffff16633f9d2aea6040518163ffffffff1660e01b8152600401600060405180830381865afa1580156127ba573d6000803e3d6000fd5b505050506040513d6000823e3d601f19601f820116820180604052508101906127e3919061510c565b9050600560009054906101000a900473ffffffffffffffffffffffffffffffffffffffff1673ffffffffffffffffffffffffffffffffffffffff16639cfbe1a682608001516040518263ffffffff1660e01b815260040161284491906151e5565b602060405180830381865afa158015612861573d6000803e3d6000fd5b505050506040513d601f19601f820116820180604052508101906128859190614964565b6128c4576040517f08c379a00000000000000000000000000000000000000000000000000000000081526004016128bb90615266565b60405180910390fd5b80600001518261036001511461290f576040517f08c379a0000000000000000000000000000000000000000000000000000000008152600401612906906152d2565b60405180910390fd5b6000600460008773ffffffffffffffffffffffffffffffffffffffff1673ffffffffffffffffffffffffffffffffffffffff1681526020019081526020016000206004015411612994576040517f08c379a000000000000000000000000000000000000000000000000000000000815260040161298b90615266565b60405180910390fd5b6000826102400151146129dc576040517f08c379a00000000000000000000000000000000000000000000000000000000081526004016129d3906155f8565b60405180910390fd5b600082610220015114612a24576040517f08c379a0000000000000000000000000000000000000000000000000000000008152600401612a1b90615664565b60405180910390fd5b60019250505092915050565b3373ffffffffffffffffffffffffffffffffffffffff16600660009054906101000a900473ffffffffffffffffffffffffffffffffffffffff1673ffffffffffffffffffffffffffffffffffffffff16636352211e836040518263ffffffff1660e01b8152600401612aa29190614100565b602060405180830381865afa158015612abf573d6000803e3d6000fd5b505050506040513d601f19601f82011682018060405250810190612ae39190614bb8565b73ffffffffffffffffffffffffffffffffffffffff1614612b39576040517f08c379a0000000000000000000000000000000000000000000000000000000008152600401612b30906156d0565b60405180910390fd5b6000600660009054906101000a900473ffffffffffffffffffffffffffffffffffffffff1673ffffffffffffffffffffffffffffffffffffffff1663dabb0531836040518263ffffffff1660e01b8152600401612b969190614100565b600060405180830381865afa158015612bb3573d6000803e3d6000fd5b505050506040513d6000823e3d601f19601f82011682018060405250810190612bdc919061501b565b90506000600b60009054906101000a900473ffffffffffffffffffffffffffffffffffffffff1673ffffffffffffffffffffffffffffffffffffffff16633f9d2aea6040518163ffffffff1660e01b8152600401600060405180830381865afa158015612c4d573d6000803e3d6000fd5b505050506040513d6000823e3d601f19601f82011682018060405250810190612c76919061510c565b9050600082610360015114612cc0576040517f08c379a0000000000000000000000000000000000000000000000000000000008152600401612cb79061573c565b60405180910390fd5b6005600460003373ffffffffffffffffffffffffffffffffffffffff1673ffffffffffffffffffffffffffffffffffffffff1681526020019081526020016000206004015410612d45576040517f08c379a0000000000000000000000000000000000000000000000000000000008152600401612d3c906157a8565b60405180910390fd5b600560009054906101000a900473ffffffffffffffffffffffffffffffffffffffff1673ffffffffffffffffffffffffffffffffffffffff16639cfbe1a682608001516040518263ffffffff1660e01b8152600401612da491906151e5565b602060405180830381865afa158015612dc1573d6000803e3d6000fd5b505050506040513d601f19601f82011682018060405250810190612de59190614964565b612e24576040517f08c379a0000000000000000000000000000000000000000000000000000000008152600401612e1b90615266565b60405180910390fd5b6000600460003373ffffffffffffffffffffffffffffffffffffffff1673ffffffffffffffffffffffffffffffffffffffff168152602001908152602001600020600101541415612eb75742600460003373ffffffffffffffffffffffffffffffffffffffff1673ffffffffffffffffffffffffffffffffffffffff168152602001908152602001600020600101819055505b806020018051809190612ec990614646565b81525050806000015182610360018181525050600b60009054906101000a900473ffffffffffffffffffffffffffffffffffffffff1673ffffffffffffffffffffffffffffffffffffffff1663edea1a7982336040518363ffffffff1660e01b8152600401612f39929190615888565b600060405180830381600087803b158015612f5357600080fd5b505af1158015612f67573d6000803e3d6000fd5b50505050600660009054906101000a900473ffffffffffffffffffffffffffffffffffffffff1673ffffffffffffffffffffffffffffffffffffffff16634c2ac39984846040518363ffffffff1660e01b8152600401612fc8929190615b60565b600060405180830381600087803b158015612fe257600080fd5b505af1158015612ff6573d6000803e3d6000fd5b50505050600460003373ffffffffffffffffffffffffffffffffffffffff1673ffffffffffffffffffffffffffffffffffffffff168152602001908152602001600020600401600081548092919061304d90614646565b9190505550505050565b600560009054906101000a900473ffffffffffffffffffffffffffffffffffffffff1673ffffffffffffffffffffffffffffffffffffffff1663dc82697c6040518163ffffffff1660e01b8152600401602060405180830381865afa1580156130c4573d6000803e3d6000fd5b505050506040513d601f19601f820116820180604052508101906130e891906146a4565b34101561312a576040517f08c379a000000000000000000000000000000000000000000000000000000000815260040161312190615bdc565b60405180910390fd5b600860009054906101000a900473ffffffffffffffffffffffffffffffffffffffff1673ffffffffffffffffffffffffffffffffffffffff166343c03617826040518263ffffffff1660e01b81526004016131859190614100565b602060405180830381865afa1580156131a2573d6000803e3d6000fd5b505050506040513d601f19601f820116820180604052508101906131c69190614964565b613205576040517f08c379a00000000000000000000000000000000000000000000000000000000081526004016131fc90615c48565b60405180910390fd5b6000600860009054906101000a900473ffffffffffffffffffffffffffffffffffffffff1673ffffffffffffffffffffffffffffffffffffffff16634c4df870836040518263ffffffff1660e01b81526004016132629190614100565b602060405180830381865afa15801561327f573d6000803e3d6000fd5b505050506040513d601f19601f820116820180604052508101906132a391906146a4565b905080600460003373ffffffffffffffffffffffffffffffffffffffff1673ffffffffffffffffffffffffffffffffffffffff16815260200190815260200160002060000154101561332a576040517f08c379a00000000000000000000000000000000000000000000000000000000081526004016133219061471d565b60405180910390fd5b80600460003373ffffffffffffffffffffffffffffffffffffffff1673ffffffffffffffffffffffffffffffffffffffff168152602001908152602001600020600001600082825461337c919061441a565b92505081905550600860009054906101000a900473ffffffffffffffffffffffffffffffffffffffff1673ffffffffffffffffffffffffffffffffffffffff166340c10f1933846040518363ffffffff1660e01b81526004016133e0929190615c68565b600060405180830381600087803b1580156133fa57600080fd5b505af115801561340e573d6000803e3d6000fd5b50505050346003600082825461342491906148ab565b925050819055505050565b600080600084815260200190815260200160002060000160008373ffffffffffffffffffffffffffffffffffffffff1673ffffffffffffffffffffffffffffffffffffffff16815260200190815260200160002060009054906101000a900460ff16905092915050565b600080600b60009054906101000a900473ffffffffffffffffffffffffffffffffffffffff1673ffffffffffffffffffffffffffffffffffffffff16633f9d2aea6040518163ffffffff1660e01b8152600401600060405180830381865afa158015613509573d6000803e3d6000fd5b505050506040513d6000823e3d601f19601f82011682018060405250810190613532919061510c565b9050806000015191505090565b600080600460003373ffffffffffffffffffffffffffffffffffffffff1673ffffffffffffffffffffffffffffffffffffffff168152602001908152602001600020600001549050600080600460008673ffffffffffffffffffffffffffffffffffffffff1673ffffffffffffffffffffffffffffffffffffffff16815260200190815260200160002060000154116135dc57809250505061372d565b600460008573ffffffffffffffffffffffffffffffffffffffff1673ffffffffffffffffffffffffffffffffffffffff16815260200190815260200160002060010154421015801561362e5750600082115b15613727576000600460008673ffffffffffffffffffffffffffffffffffffffff1673ffffffffffffffffffffffffffffffffffffffff1681526020019081526020016000206001015442613683919061441a565b90506000604b90506000806201518084106136f05762015180846136a791906149c0565b91506002826136b691906149f1565b91506001826136c591906148ab565b9150600e8211156136d557600e91505b6005826136e291906149f1565b836136ed919061441a565b92505b60648360646136ff919061441a565b8761370a91906149f1565b61371491906149c0565b905080945084965050505050505061372d565b80925050505b919050565b6000806000838152602001908152602001600020600101549050919050565b600033905090565b613763828261342f565b6137ef576137888173ffffffffffffffffffffffffffffffffffffffff1660146139c2565b6137938360206139c2565b6040516020016137a4929190615d65565b6040516020818303038152906040526040517f08c379a00000000000000000000000000000000000000000000000000000000081526004016137e69190615d9f565b60405180910390fd5b5050565b6137fd828261342f565b156138d057600080600084815260200190815260200160002060000160008373ffffffffffffffffffffffffffffffffffffffff1673ffffffffffffffffffffffffffffffffffffffff16815260200190815260200160002060006101000a81548160ff021916908315150217905550613875613751565b73ffffffffffffffffffffffffffffffffffffffff168173ffffffffffffffffffffffffffffffffffffffff16837fe0df21b65c73c27081b8f042a012b124085b41d78d27b7e3c4780f5650f5ebb860405160405180910390a45b5050565b6138de828261342f565b6139b057600160008084815260200190815260200160002060000160008373ffffffffffffffffffffffffffffffffffffffff1673ffffffffffffffffffffffffffffffffffffffff16815260200190815260200160002060006101000a81548160ff021916908315150217905550613955613751565b73ffffffffffffffffffffffffffffffffffffffff168173ffffffffffffffffffffffffffffffffffffffff16837f1ec1667fba5e43c5c76fff54e76d7a4a20a4fecf7b49724ad8d52a3f726e9dbd60405160405180910390a45b5050565b6139be82826138d4565b5050565b6060600060028360026139d591906149f1565b6139df91906148ab565b67ffffffffffffffff8111156139f8576139f7613e37565b5b6040519080825280601f01601f191660200182016040528015613a2a5781602001600182028036833780820191505090505b5090507f300000000000000000000000000000000000000000000000000000000000000081600081518110613a6257613a61614617565b5b60200101907effffffffffffffffffffffffffffffffffffffffffffffffffffffffffffff1916908160001a9053507f780000000000000000000000000000000000000000000000000000000000000081600181518110613ac657613ac5614617565b5b60200101907effffffffffffffffffffffffffffffffffffffffffffffffffffffffffffff1916908160001a90535060006001846002613b0691906149f1565b613b1091906148ab565b90505b6001811115613bb0577f3031323334353637383961626364656600000000000000000000000000000000600f861660108110613b5257613b51614617565b5b1a60f81b828281518110613b6957613b68614617565b5b60200101907effffffffffffffffffffffffffffffffffffffffffffffffffffffffffffff1916908160001a905350600485901c945080613ba990615dc1565b9050613b13565b5060008414613bf4576040517f08c379a0000000000000000000000000000000000000000000000000000000008152600401613beb90615e37565b60405180910390fd5b8091505092915050565b60405180610160016040528060008152602001600081526020016000815260200160008152602001600081526020016000815260200160008152602001600081526020016000815260200160008152602001600081525090565b6000604051905090565b600080fd5b600080fd5b60007fffffffff0000000000000000000000000000000000000000000000000000000082169050919050565b613ca181613c6c565b8114613cac57600080fd5b50565b600081359050613cbe81613c98565b92915050565b600060208284031215613cda57613cd9613c62565b5b6000613ce884828501613caf565b91505092915050565b60008115159050919050565b613d0681613cf1565b82525050565b6000602082019050613d216000830184613cfd565b92915050565b600073ffffffffffffffffffffffffffffffffffffffff82169050919050565b6000613d5282613d27565b9050919050565b613d6281613d47565b8114613d6d57600080fd5b50565b600081359050613d7f81613d59565b92915050565b600060208284031215613d9b57613d9a613c62565b5b6000613da984828501613d70565b91505092915050565b6000819050919050565b613dc581613db2565b82525050565b6000602082019050613de06000830184613dbc565b92915050565b6000819050919050565b613df981613de6565b8114613e0457600080fd5b50565b600081359050613e1681613df0565b92915050565b600080fd5b600080fd5b6000601f19601f8301169050919050565b7f4e487b7100000000000000000000000000000000000000000000000000000000600052604160045260246000fd5b613e6f82613e26565b810181811067ffffffffffffffff82111715613e8e57613e8d613e37565b5b80604052505050565b6000613ea1613c58565b9050613ead8282613e66565b919050565b600067ffffffffffffffff821115613ecd57613ecc613e37565b5b613ed682613e26565b9050602081019050919050565b82818337600083830152505050565b6000613f05613f0084613eb2565b613e97565b905082815260208101848484011115613f2157613f20613e21565b5b613f2c848285613ee3565b509392505050565b600082601f830112613f4957613f48613e1c565b5b8135613f59848260208601613ef2565b91505092915050565b60008060008060808587031215613f7c57613f7b613c62565b5b6000613f8a87828801613d70565b9450506020613f9b87828801613d70565b9350506040613fac87828801613e07565b925050606085013567ffffffffffffffff811115613fcd57613fcc613c67565b5b613fd987828801613f34565b91505092959194509250565b613fee81613c6c565b82525050565b60006020820190506140096000830184613fe5565b92915050565b6000806040838503121561402657614025613c62565b5b600061403485828601613e07565b925050602061404585828601613d70565b9150509250929050565b600080600080600080600060e0888a03121561406e5761406d613c62565b5b600061407c8a828b01613d70565b975050602061408d8a828b01613d70565b965050604061409e8a828b01613d70565b95505060606140af8a828b01613d70565b94505060806140c08a828b01613d70565b93505060a06140d18a828b01613d70565b92505060c06140e28a828b01613d70565b91505092959891949750929550565b6140fa81613de6565b82525050565b600060208201905061411560008301846140f1565b92915050565b60006020828403121561413157614130613c62565b5b600061413f84828501613e07565b91505092915050565b6000806040838503121561415f5761415e613c62565b5b600061416d85828601613d70565b925050602061417e85828601613e07565b9150509250929050565b600080fd5b600080fd5b600061016082840312156141a9576141a8614188565b5b6141b4610160613e97565b905060006141c484828501613e07565b60008301525060206141d884828501613e07565b60208301525060406141ec84828501613e07565b604083015250606061420084828501613e07565b606083015250608061421484828501613e07565b60808301525060a061422884828501613e07565b60a08301525060c061423c84828501613e07565b60c08301525060e061425084828501613e07565b60e08301525061010061426584828501613e07565b6101008301525061012061427b84828501613e07565b6101208301525061014061429184828501613e07565b6101408301525092915050565b60008061018083850312156142b6576142b5613c62565b5b60006142c485828601613d70565b92505060206142d585828601614192565b9150509250929050565b6142e881613de6565b82525050565b6101608201600082015161430560008501826142df565b50602082015161431860208501826142df565b50604082015161432b60408501826142df565b50606082015161433e60608501826142df565b50608082015161435160808501826142df565b5060a082015161436460a08501826142df565b5060c082015161437760c08501826142df565b5060e082015161438a60e08501826142df565b5061010082015161439f6101008501826142df565b506101208201516143b46101208501826142df565b506101408201516143c96101408501826142df565b50505050565b6000610160820190506143e560008301846142ee565b92915050565b7f4e487b7100000000000000000000000000000000000000000000000000000000600052601160045260246000fd5b600061442582613de6565b915061443083613de6565b925082821015614443576144426143eb565b5b828203905092915050565b600082825260208201905092915050565b7f416363657373436f6e74726f6c3a2063616e206f6e6c792072656e6f756e636560008201527f20726f6c657320666f722073656c660000000000000000000000000000000000602082015250565b60006144bb602f8361444e565b91506144c68261445f565b604082019050919050565b600060208201905081810360008301526144ea816144ae565b9050919050565b600067ffffffffffffffff82111561450c5761450b613e37565b5b602082029050602081019050919050565b600080fd5b60008151905061453181613d59565b92915050565b600061454a614545846144f1565b613e97565b9050808382526020820190506020840283018581111561456d5761456c61451d565b5b835b8181101561459657806145828882614522565b84526020840193505060208101905061456f565b5050509392505050565b600082601f8301126145b5576145b4613e1c565b5b81516145c5848260208601614537565b91505092915050565b6000602082840312156145e4576145e3613c62565b5b600082015167ffffffffffffffff81111561460257614601613c67565b5b61460e848285016145a0565b91505092915050565b7f4e487b7100000000000000000000000000000000000000000000000000000000600052603260045260246000fd5b600061465182613de6565b91507fffffffffffffffffffffffffffffffffffffffffffffffffffffffffffffffff821415614684576146836143eb565b5b600182019050919050565b60008151905061469e81613df0565b92915050565b6000602082840312156146ba576146b9613c62565b5b60006146c88482850161468f565b91505092915050565b7f496e73737566696369656e7420416d6d6f756e74000000000000000000000000600082015250565b600061470760148361444e565b9150614712826146d1565b602082019050919050565b60006020820190508181036000830152614736816146fa565b9050919050565b7f4d696e20746f20436c61696d0000000000000000000000000000000000000000600082015250565b6000614773600c8361444e565b915061477e8261473d565b602082019050919050565b600060208201905081810360008301526147a281614766565b9050919050565b7f4e656564206d6f72652054696d65000000000000000000000000000000000000600082015250565b60006147df600e8361444e565b91506147ea826147a9565b602082019050919050565b6000602082019050818103600083015261480e816147d2565b9050919050565b61481e81613d47565b82525050565b60006020820190506148396000830184614815565b92915050565b7f5265717569726520436f6e74726163742042616c616e63650000000000000000600082015250565b600061487560188361444e565b91506148808261483f565b602082019050919050565b600060208201905081810360008301526148a481614868565b9050919050565b60006148b682613de6565b91506148c183613de6565b9250827fffffffffffffffffffffffffffffffffffffffffffffffffffffffffffffffff038211156148f6576148f56143eb565b5b828201905092915050565b60006060820190506149166000830186614815565b6149236020830185614815565b61493060408301846140f1565b949350505050565b61494181613cf1565b811461494c57600080fd5b50565b60008151905061495e81614938565b92915050565b60006020828403121561497a57614979613c62565b5b60006149888482850161494f565b91505092915050565b7f4e487b7100000000000000000000000000000000000000000000000000000000600052601260045260246000fd5b60006149cb82613de6565b91506149d683613de6565b9250826149e6576149e5614991565b5b828204905092915050565b60006149fc82613de6565b9150614a0783613de6565b9250817fffffffffffffffffffffffffffffffffffffffffffffffffffffffffffffffff0483118215151615614a4057614a3f6143eb565b5b828202905092915050565b7f496e707574204572726f72000000000000000000000000000000000000000000600082015250565b6000614a81600b8361444e565b9150614a8c82614a4b565b602082019050919050565b60006020820190508181036000830152614ab081614a74565b9050919050565b6000604082019050614acc6000830185614815565b614ad96020830184614815565b9392505050565b7f5265717569726520617070726f76650000000000000000000000000000000000600082015250565b6000614b16600f8361444e565b9150614b2182614ae0565b602082019050919050565b60006020820190508181036000830152614b4581614b09565b9050919050565b7f496e73756666696369656e742042616c616e6365000000000000000000000000600082015250565b6000614b8260148361444e565b9150614b8d82614b4c565b602082019050919050565b60006020820190508181036000830152614bb181614b75565b9050919050565b600060208284031215614bce57614bcd613c62565b5b6000614bdc84828501614522565b91505092915050565b7f4e6f204f776e6572000000000000000000000000000000000000000000000000600082015250565b6000614c1b60088361444e565b9150614c2682614be5565b602082019050919050565b60006020820190508181036000830152614c4a81614c0e565b9050919050565b600067ffffffffffffffff821115614c6c57614c6b613e37565b5b614c7582613e26565b9050602081019050919050565b60005b83811015614ca0578082015181840152602081019050614c85565b83811115614caf576000848401525b50505050565b6000614cc8614cc384614c51565b613e97565b905082815260208101848484011115614ce457614ce3613e21565b5b614cef848285614c82565b509392505050565b600082601f830112614d0c57614d0b613e1c565b5b8151614d1c848260208601614cb5565b91505092915050565b60006104008284031215614d3c57614d3b614188565b5b614d47610400613e97565b9050600082015167ffffffffffffffff811115614d6757614d6661418d565b5b614d7384828501614cf7565b6000830152506020614d878482850161468f565b6020830152506040614d9b8482850161468f565b6040830152506060614daf8482850161468f565b6060830152506080614dc38482850161468f565b60808301525060a0614dd78482850161468f565b60a08301525060c0614deb8482850161468f565b60c08301525060e0614dff8482850161468f565b60e083015250610100614e148482850161468f565b61010083015250610120614e2a8482850161468f565b61012083015250610140614e408482850161468f565b61014083015250610160614e568482850161468f565b61016083015250610180614e6c8482850161468f565b610180830152506101a0614e828482850161468f565b6101a0830152506101c0614e988482850161468f565b6101c0830152506101e0614eae8482850161468f565b6101e083015250610200614ec48482850161468f565b61020083015250610220614eda8482850161468f565b61022083015250610240614ef08482850161468f565b61024083015250610260614f068482850161468f565b61026083015250610280614f1c8482850161468f565b610280830152506102a0614f328482850161468f565b6102a0830152506102c0614f488482850161468f565b6102c0830152506102e0614f5e8482850161468f565b6102e083015250610300614f748482850161468f565b61030083015250610320614f8a8482850161468f565b61032083015250610340614fa08482850161468f565b61034083015250610360614fb68482850161468f565b61036083015250610380614fcc8482850161468f565b610380830152506103a0614fe28482850161468f565b6103a0830152506103c0614ff884828501614522565b6103c0830152506103e061500e8482850161468f565b6103e08301525092915050565b60006020828403121561503157615030613c62565b5b600082015167ffffffffffffffff81111561504f5761504e613c67565b5b61505b84828501614d25565b91505092915050565b600060a0828403121561507a57615079614188565b5b61508460a0613e97565b905060006150948482850161468f565b60008301525060206150a88482850161468f565b60208301525060406150bc8482850161468f565b60408301525060606150d08482850161468f565b606083015250608082015167ffffffffffffffff8111156150f4576150f361418d565b5b61510084828501614cf7565b60808301525092915050565b60006020828403121561512257615121613c62565b5b600082015167ffffffffffffffff8111156151405761513f613c67565b5b61514c84828501615064565b91505092915050565b600081519050919050565b600061516b82615155565b615175818561444e565b9350615185818560208601614c82565b61518e81613e26565b840191505092915050565b7f52554e4e494e4700000000000000000000000000000000000000000000000000600082015250565b60006151cf60078361444e565b91506151da82615199565b602082019050919050565b600060408201905081810360008301526151ff8184615160565b90508181036020830152615212816151c2565b905092915050565b7f536561736f6e206e6f7420737461727465640000000000000000000000000000600082015250565b600061525060128361444e565b915061525b8261521a565b602082019050919050565b6000602082019050818103600083015261527f81615243565b9050919050565b7f436861726163746572206e6f7420696e20736561736f6e000000000000000000600082015250565b60006152bc60178361444e565b91506152c782615286565b602082019050919050565b600060208201905081810360008301526152eb816152af565b9050919050565b6000610100828403121561530957615308614188565b5b615314610100613e97565b905060006153248482850161468f565b60008301525060206153388482850161468f565b602083015250604061534c8482850161468f565b60408301525060606153608482850161468f565b606083015250608061537484828501614522565b60808301525060a06153888482850161468f565b60a08301525060c061539c8482850161468f565b60c08301525060e06153b08482850161494f565b60e08301525092915050565b600061010082840312156153d3576153d2613c62565b5b60006153e1848285016152f2565b91505092915050565b7f43616e6e6f742062652050726f647563652074686973206974656d0000000000600082015250565b6000615420601b8361444e565b915061542b826153ea565b602082019050919050565b6000602082019050818103600083015261544f81615413565b9050919050565b7f436c61696d2054696d6500000000000000000000000000000000000000000000600082015250565b600061548c600a8361444e565b915061549782615456565b602082019050919050565b600060208201905081810360008301526154bb8161547f565b9050919050565b6154cb81613d47565b82525050565b6154da81613cf1565b82525050565b610100820160008201516154f760008501826142df565b50602082015161550a60208501826142df565b50604082015161551d60408501826142df565b50606082015161553060608501826142df565b50608082015161554360808501826154c2565b5060a082015161555660a08501826142df565b5060c082015161556960c08501826142df565b5060e082015161557c60e08501826154d1565b50505050565b60006101208201905061559860008301856140f1565b6155a560208301846154e0565b9392505050565b7f43686172616374657220696e20486f73706974616c0000000000000000000000600082015250565b60006155e260158361444e565b91506155ed826155ac565b602082019050919050565b60006020820190508181036000830152615611816155d5565b9050919050565b7f43686172616374657220696e20507269736f6e00000000000000000000000000600082015250565b600061564e60138361444e565b915061565982615618565b602082019050919050565b6000602082019050818103600083015261567d81615641565b9050919050565b7f52657175697265204f776e657200000000000000000000000000000000000000600082015250565b60006156ba600d8361444e565b91506156c582615684565b602082019050919050565b600060208201905081810360008301526156e9816156ad565b9050919050565b7f43686172616374657220696e20736561736f6e00000000000000000000000000600082015250565b600061572660138361444e565b9150615731826156f0565b602082019050919050565b6000602082019050818103600083015261575581615719565b9050919050565b7f4d6178696d756d20746872656520736c6f747300000000000000000000000000600082015250565b600061579260138361444e565b915061579d8261575c565b602082019050919050565b600060208201905081810360008301526157c181615785565b9050919050565b600082825260208201905092915050565b60006157e482615155565b6157ee81856157c8565b93506157fe818560208601614c82565b61580781613e26565b840191505092915050565b600060a08301600083015161582a60008601826142df565b50602083015161583d60208601826142df565b50604083015161585060408601826142df565b50606083015161586360608601826142df565b506080830151848203608086015261587b82826157d9565b9150508091505092915050565b600060408201905081810360008301526158a28185615812565b90506158b16020830184614815565b9392505050565b60006104008301600083015184820360008601526158d682826157d9565b91505060208301516158eb60208601826142df565b5060408301516158fe60408601826142df565b50606083015161591160608601826142df565b50608083015161592460808601826142df565b5060a083015161593760a08601826142df565b5060c083015161594a60c08601826142df565b5060e083015161595d60e08601826142df565b506101008301516159726101008601826142df565b506101208301516159876101208601826142df565b5061014083015161599c6101408601826142df565b506101608301516159b16101608601826142df565b506101808301516159c66101808601826142df565b506101a08301516159db6101a08601826142df565b506101c08301516159f06101c08601826142df565b506101e0830151615a056101e08601826142df565b50610200830151615a1a6102008601826142df565b50610220830151615a2f6102208601826142df565b50610240830151615a446102408601826142df565b50610260830151615a596102608601826142df565b50610280830151615a6e6102808601826142df565b506102a0830151615a836102a08601826142df565b506102c0830151615a986102c08601826142df565b506102e0830151615aad6102e08601826142df565b50610300830151615ac26103008601826142df565b50610320830151615ad76103208601826142df565b50610340830151615aec6103408601826142df565b50610360830151615b016103608601826142df565b50610380830151615b166103808601826142df565b506103a0830151615b2b6103a08601826142df565b506103c0830151615b406103c08601826154c2565b506103e0830151615b556103e08601826142df565b508091505092915050565b6000604082019050615b7560008301856140f1565b8181036020830152615b8781846158b8565b90509392505050565b7f496e636f72726563742056616c75650000000000000000000000000000000000600082015250565b6000615bc6600f8361444e565b9150615bd182615b90565b602082019050919050565b60006020820190508181036000830152615bf581615bb9565b9050919050565b7f43616e6e6f74206265204d696e74000000000000000000000000000000000000600082015250565b6000615c32600e8361444e565b9150615c3d82615bfc565b602082019050919050565b60006020820190508181036000830152615c6181615c25565b9050919050565b6000604082019050615c7d6000830185614815565b615c8a60208301846140f1565b9392505050565b600081905092915050565b7f416363657373436f6e74726f6c3a206163636f756e7420000000000000000000600082015250565b6000615cd2601783615c91565b9150615cdd82615c9c565b601782019050919050565b6000615cf382615155565b615cfd8185615c91565b9350615d0d818560208601614c82565b80840191505092915050565b7f206973206d697373696e6720726f6c6520000000000000000000000000000000600082015250565b6000615d4f601183615c91565b9150615d5a82615d19565b601182019050919050565b6000615d7082615cc5565b9150615d7c8285615ce8565b9150615d8782615d42565b9150615d938284615ce8565b91508190509392505050565b60006020820190508181036000830152615db98184615160565b905092915050565b6000615dcc82613de6565b91506000821415615de057615ddf6143eb565b5b600182039050919050565b7f537472696e67733a20686578206c656e67746820696e73756666696369656e74600082015250565b6000615e2160208361444e565b9150615e2c82615deb565b602082019050919050565b60006020820190508181036000830152615e5081615e14565b905091905056fea2646970667358221220f091c97d466dfa7af485a36a7a469218bf760401f631c136b5fcc609c31fdb9864736f6c634300080a0033",
  "immutableReferences": {},
  "source": "// SPDX-License-Identifier: UNLICENSED\r\npragma solidity >=0.4.22 <0.9.0;\r\n\r\n/**\r\n * @title SampleBEP20Token\r\n * @dev Very simple BEP20 Token example, where all tokens are pre-assigned to the creator.\r\n * Note they can later distribute these tokens as they wish using `transfer` and other\r\n * `BEP20` functions.\r\n * USE IT ONLY FOR LEARNING PURPOSES. SHOULD BE MODIFIED FOR PRODUCTION\r\n */\r\n\r\nimport \"../node_modules/@openzeppelin/contracts/token/ERC721/IERC721Receiver.sol\";\r\nimport \"./utils/Admin.sol\";\r\nimport \"./utils/Utils.sol\";\r\nimport \"./utils/CharacterUtils.sol\";\r\nimport \"./tokens/Character.sol\";\r\nimport \"./tokens/GameItem.sol\";\r\nimport \"./tokens/GANG.sol\";\r\nimport \"./tokens/Factory.sol\";\r\nimport \"./SeasonManager.sol\";\r\n\r\n//Programar: RewardPool para o ranking\r\n//Programar: MarketPlace\r\n//Programar Admin: ChangeMintPrice, changeOwnerOfAllContracts;\r\n//Programar remedios para curar vicio;\r\n\r\nstruct InGame\r\n{\r\n    uint256 balance;\r\n    uint256 claimTime;\r\n    uint256 lastClaim;\r\n    uint256 claimTax;\r\n    uint256 seasonSlots;\r\n    uint256 prisonPrice;\r\n    uint256 beer;\r\n    uint256 cannabis;\r\n    uint256 opio;\r\n    uint256 cocaine;\r\n    uint256 vip;\r\n}\r\n\r\ncontract CoreInGame is Admin, IERC721Receiver {\r\n\r\n    address _contractowner;\r\n    address private _secondowner;\r\n\r\n    uint256 private bnbBalance;\r\n\r\n    mapping(address => InGame) private _IngameAccount;\r\n\r\n\r\n    Utils private utils;\r\n    Character private crimeChar;\r\n    CharacterUtils private charUtils;\r\n    GameItem private crimeItem;\r\n    Factory private crimeFactory;\r\n    GANG private gangToken;\r\n    bool private Initialized;\r\n    SeasonManager private season;\r\n\r\n    uint256 private investersId = 0;\r\n\r\n    //finalize season, burnMarket, resetAccsInGame, burnAllInvesters\r\n\r\n    constructor(Utils _util, GANG _gangToken, Character _character, GameItem _gameItem, CharacterUtils _charUtils, Factory _crimeFac, SeasonManager _season) Admin()\r\n    {\r\n        _contractowner = msg.sender;\r\n        _secondowner = address(0xbf752Eb4b851B241A36e22767b304ef28242198A);\r\n        bnbBalance = 0;\r\n        gangToken = _gangToken;\r\n        crimeChar = _character;\r\n        crimeItem = _gameItem;\r\n        utils = _util;\r\n        charUtils = _charUtils;\r\n        crimeFactory = _crimeFac;\r\n        season = _season;\r\n\r\n        _setRoleAdmin(DEFAULT_ADMIN_ROLE, DEFAULT_ADMIN_ROLE);\r\n        _setRoleAdmin(DEFAULT_CORE_ROLE, DEFAULT_ADMIN_ROLE);\r\n        _setupRole(DEFAULT_ADMIN_ROLE, msg.sender);\r\n        _setupRole(DEFAULT_ADMIN_ROLE, _secondowner);\r\n        Initialized = false;\r\n    }\r\n\r\n    function Initialize(address _Robbery, address _PvP, address _Equipment, address _HospitalPrice, address _Core, address _MarketPlace, address _BlackMarket) public\r\n    {\r\n        if(Initialized == false)\r\n        {\r\n            _setupRole(DEFAULT_CORE_ROLE, _Equipment);\r\n            _setupRole(DEFAULT_CORE_ROLE, _HospitalPrice);\r\n            _setupRole(DEFAULT_CORE_ROLE, _Robbery);\r\n            _setupRole(DEFAULT_CORE_ROLE, _PvP);\r\n            _setupRole(DEFAULT_CORE_ROLE, _Core);\r\n            _setupRole(DEFAULT_CORE_ROLE, _MarketPlace);\r\n            _setupRole(DEFAULT_CORE_ROLE, _BlackMarket);\r\n            _setupRole(DEFAULT_ADMIN_ROLE, msg.sender);\r\n            Initialized = true;\r\n        }\r\n    }\r\n\r\n    function onERC721Received(address, address, uint256, bytes memory) public virtual override returns (bytes4) {\r\n        return this.onERC721Received.selector;\r\n    }\r\n\r\n    function supportsInterface(bytes4 interfaceId) public pure returns (bool) {\r\n        return interfaceId == type(IERC721Receiver).interfaceId;\r\n    }\r\n\r\n    function bnbWithdraw() onlyRole(DEFAULT_ADMIN_ROLE) public\r\n    {\r\n        address payable owner = payable(msg.sender);\r\n        require(bnbBalance > 0, \"Insufficient Balance\");\r\n        owner.transfer(bnbBalance);\r\n    }\r\n\r\n    function resetAccsInSeason() public onlyRole(DEFAULT_ADMIN_ROLE) {\r\n        address[] memory _Investers = season.getAllInvesters();\r\n        for(uint256 x = 0; x < _Investers.length; x++)\r\n        {\r\n                _IngameAccount[_Investers[x]].seasonSlots = 0;\r\n                _IngameAccount[_Investers[x]].prisonPrice = 0;\r\n                _IngameAccount[_Investers[x]].beer = 0;\r\n                _IngameAccount[_Investers[x]].cannabis = 0;\r\n                _IngameAccount[_Investers[x]].opio = 0;\r\n                _IngameAccount[_Investers[x]].cocaine = 0;\r\n        }\r\n        \r\n    }\r\n\r\n    function changeAdmin(address newAdmin) public onlyRole(DEFAULT_ADMIN_ROLE)\r\n    {\r\n        _contractowner = newAdmin;\r\n    }\r\n\r\n    function depositGANG(uint256 amount) public \r\n    {\r\n        require(amount > 0, \"Input Error\");\r\n        require(gangToken.allowance(msg.sender, address(this)) >= amount, \"Require approve\");\r\n        require(gangToken.balanceOf(msg.sender) >= amount, \"Insufficient Balance\");\r\n        gangToken.transferFrom(msg.sender, _contractowner, amount);\r\n        _IngameAccount[msg.sender].balance += amount;\r\n        if(_IngameAccount[msg.sender].claimTime == 0)\r\n        {\r\n            _IngameAccount[msg.sender].claimTime = block.timestamp;\r\n        }\r\n    }\r\n\r\n    function checkCharacterCanRun(address addr, uint256 tokenId) public view returns(bool) {\r\n        require(crimeChar.ownerOf(tokenId) == addr, \"No Owner\");\r\n        CharacterDetail memory char = crimeChar.getCharacter(tokenId);\r\n        gameSeason memory seasonManager = season.getSeasonManager();\r\n        require(utils.strcmp(seasonManager.seasonState, \"RUNNING\"), \"Season not started\");\r\n        require(char.seasonId == seasonManager.seasonId, \"Character not in season\");\r\n        require(_IngameAccount[addr].seasonSlots > 0, \"Season not started\");\r\n        require(char.nurseTime == 0, \"Character in Hospital\"); //**** */\r\n        require(char.prisonTime == 0, \"Character in Prison\");\r\n        return true;\r\n    }\r\n\r\n    function getSeasonId() public view returns (uint256)\r\n    {\r\n        gameSeason memory seasonManager = season.getSeasonManager();\r\n        return seasonManager.seasonId;\r\n    }\r\n\r\n    function checkCharacterCanRunHP(address addr, uint256 tokenId) public view returns(bool) {\r\n        require(crimeChar.ownerOf(tokenId) == addr, \"No Owner\");\r\n        CharacterDetail memory char = crimeChar.getCharacter(tokenId);\r\n        gameSeason memory seasonManager = season.getSeasonManager();\r\n        require(utils.strcmp(seasonManager.seasonState, \"RUNNING\"), \"Season not started\");\r\n        require(char.seasonId == seasonManager.seasonId, \"Character not in season\");\r\n        require(_IngameAccount[addr].seasonSlots > 0, \"Season not started\");\r\n        return true;\r\n    }\r\n\r\n    function claimFactory(uint256 tokenId) public {\r\n        require(crimeFactory.ownerOf(tokenId) == msg.sender, \"No Owner\");\r\n        _Factory memory fac = crimeFactory.getFactory(tokenId);\r\n        gameSeason memory seasonManager = season.getSeasonManager();\r\n        uint256 itemId = fac.itemIdProduce;\r\n        require(itemId >= 10 && itemId < 14, \"Cannot be Produce this item\");\r\n        require(utils.strcmp(seasonManager.seasonState, \"RUNNING\"), \"Season not started\");\r\n        require(block.timestamp >= fac.claimTime, \"Claim Time\");\r\n        fac.claimTime = block.timestamp + (1 days);\r\n        if(itemId == 10) _IngameAccount[msg.sender].beer += fac.quantity;\r\n        else if(itemId == 11) _IngameAccount[msg.sender].cannabis += fac.quantity;\r\n        else if(itemId == 12) _IngameAccount[msg.sender].opio += fac.quantity;\r\n        else _IngameAccount[msg.sender].cocaine += fac.quantity;\r\n        crimeFactory.UpdateFactory(tokenId, fac);\r\n    }\r\n\r\n    function applyCharacterinSeason(uint256 tokenId) public {\r\n        require(crimeChar.ownerOf(tokenId) == msg.sender, \"Require Owner\");\r\n        CharacterDetail memory char = crimeChar.getCharacter(tokenId);\r\n        gameSeason memory seasonManager = season.getSeasonManager();\r\n        require(char.seasonId == 0, \"Character in season\");\r\n        require(_IngameAccount[msg.sender].seasonSlots < 5, \"Maximum three slots\");\r\n        require(utils.strcmp(seasonManager.seasonState, \"RUNNING\"), \"Season not started\");\r\n        if(_IngameAccount[msg.sender].claimTime == 0)\r\n        {\r\n            _IngameAccount[msg.sender].claimTime = block.timestamp;\r\n        }\r\n        seasonManager.charactersInSeason++;\r\n        char.seasonId = seasonManager.seasonId;\r\n        season.UpdateSeasonManager(seasonManager, msg.sender);\r\n        crimeChar.UpdateCharacter(tokenId, char);\r\n        _IngameAccount[msg.sender].seasonSlots++;\r\n    }\r\n\r\n    function getClaimTax(address addr) public view returns (uint256) {\r\n        uint256 returnValue = 0;\r\n        if(_IngameAccount[addr].balance <= 0) return returnValue;\r\n        if(block.timestamp >= _IngameAccount[addr].claimTime)\r\n        {\r\n            uint256 timePassed = block.timestamp - _IngameAccount[addr].claimTime;\r\n            uint256 baseClaimTax = 75;\r\n            uint256 dayPassed = 0;\r\n            if(timePassed >= (1 days))\r\n            {\r\n                dayPassed = (timePassed / (1 days));\r\n                dayPassed = dayPassed * 2;\r\n                dayPassed += 1;\r\n                if(dayPassed > 14) dayPassed = 14;\r\n                baseClaimTax = baseClaimTax - (dayPassed * 5);\r\n                returnValue = baseClaimTax;\r\n            }\r\n            returnValue = baseClaimTax;\r\n            return returnValue;\r\n        }\r\n        else return returnValue;\r\n    }\r\n\r\n    function getClaimReal(address addr) public view returns (uint256) {\r\n        uint256 ClaimTokens = _IngameAccount[msg.sender].balance;\r\n        uint256 returnValue = 0;\r\n        if(_IngameAccount[addr].balance <= 0) return returnValue;\r\n        if(block.timestamp >= _IngameAccount[addr].claimTime && ClaimTokens > 0)\r\n        {\r\n            uint256 timePassed = block.timestamp - _IngameAccount[addr].claimTime;\r\n            uint256 baseClaimTax = 75;\r\n            uint256 dayPassed = 0;\r\n            uint256 receiveTokens = 0;\r\n            if(timePassed >= (1 days))\r\n            {\r\n                dayPassed = (timePassed / (1 days));\r\n                dayPassed = dayPassed * 2;\r\n                dayPassed += 1;\r\n                if(dayPassed > 14) dayPassed = 14;\r\n                baseClaimTax = baseClaimTax - (dayPassed * 5);\r\n            }\r\n            receiveTokens = ((ClaimTokens * (100 - baseClaimTax)) / 100);\r\n            returnValue = receiveTokens;\r\n            return returnValue;\r\n        }\r\n        else return returnValue;\r\n    }\r\n\r\n    function claim() public payable {\r\n        require(msg.value >= utils.getContractValue(), \"Inssuficient Ammount\");\r\n        require(_IngameAccount[msg.sender].balance >= utils.getMinToClaim(), \"Min to Claim\");\r\n        require(block.timestamp >= _IngameAccount[msg.sender].claimTime, \"Need more Time\");\r\n        uint256 ClaimTokens = _IngameAccount[msg.sender].balance;\r\n\r\n        require(gangToken.balanceOf(_contractowner) >= ClaimTokens, \"Require Contract Balance\");\r\n\r\n        uint256 receiveTokens = getClaimReal(msg.sender);\r\n\r\n        _IngameAccount[msg.sender].balance = 0;\r\n        _IngameAccount[msg.sender].claimTime = 0;\r\n        bnbBalance += msg.value;\r\n        gangToken.transferFrom(_contractowner, msg.sender, receiveTokens);\r\n    }\r\n\r\n    function getIngameAccount(address addr) public view returns (InGame memory)\r\n    {\r\n        return _IngameAccount[addr];\r\n    }\r\n\r\n    function UpdateInGameAccount(address addr, InGame memory acc) onlyCore() public {\r\n        _IngameAccount[addr] = acc;\r\n        _IngameAccount[addr].vip = 0;\r\n        uint256 balanceOfCharacters = crimeChar.balanceOf(addr);\r\n\r\n        if(balanceOfCharacters >= 5 && balanceOfCharacters < 10)\r\n        {\r\n            _IngameAccount[addr].vip = 1;\r\n        }\r\n        else if(balanceOfCharacters >= 10 && balanceOfCharacters < 15)\r\n        {\r\n            _IngameAccount[addr].vip = 2;\r\n        }\r\n        else if(balanceOfCharacters >= 15)\r\n        {\r\n            _IngameAccount[addr].vip = 3;\r\n        }\r\n        else _IngameAccount[addr].vip = 0;\r\n    }\r\n\r\n    function getRemaingClaimTime(address addr) public view returns (int256)\r\n    {\r\n        return int256(block.timestamp - _IngameAccount[addr].claimTime);\r\n    }\r\n\r\n    function canClaim(address addr) public view returns (bool)\r\n    {\r\n        return (block.timestamp >= _IngameAccount[addr].claimTime);\r\n    }\r\n\r\n    function mintGameItem(uint256 itemId) public payable {\r\n        require(msg.value >= utils.getContractValue(), \"Incorrect Value\");\r\n        require(crimeItem.checkItemListCanMint(itemId), \"Cannot be Mint\");\r\n        uint256 totalPrice = crimeItem.getItemPrice(itemId);\r\n        require(_IngameAccount[msg.sender].balance >= totalPrice, \"Inssuficient Ammount\");\r\n        _IngameAccount[msg.sender].balance -= totalPrice;\r\n        crimeItem.mint(msg.sender, itemId);\r\n        bnbBalance += msg.value;\r\n    }\r\n}",
  "sourcePath": "C:\\Users\\MMMJR\\Desktop\\BlockChain\\CrimeCity\\contracts\\CoreInGame.sol",
  "compiler": {
    "name": "solc",
    "version": "0.8.10+commit.fc410830.Emscripten.clang"
  },
  "schemaVersion": "3.4.3",
  "updatedAt": "2022-10-04T14:10:11.029Z",
  "devdoc": {
    "kind": "dev",
    "methods": {
      "getRoleAdmin(uint256)": {
        "details": "Returns the admin role that controls `role`. See {grantRole} and {revokeRole}. To change a role's admin, use {_setRoleAdmin}."
      },
      "grantRole(uint256,address)": {
        "details": "Grants `role` to `account`. If `account` had not been already granted `role`, emits a {RoleGranted} event. Requirements: - the caller must have ``role``'s admin role."
      },
      "hasRole(uint256,address)": {
        "details": "Returns `true` if `account` has been granted `role`."
      },
      "renounceRole(uint256,address)": {
        "details": "Revokes `role` from the calling account. Roles are often managed via {grantRole} and {revokeRole}: this function's purpose is to provide a mechanism for accounts to lose their privileges if they are compromised (such as when a trusted device is misplaced). If the calling account had been granted `role`, emits a {RoleRevoked} event. Requirements: - the caller must be `account`."
      },
      "revokeRole(uint256,address)": {
        "details": "Revokes `role` from `account`. If `account` had been granted `role`, emits a {RoleRevoked} event. Requirements: - the caller must have ``role``'s admin role."
      }
    },
    "version": 1
  },
  "userdoc": {
    "kind": "user",
    "methods": {},
    "version": 1
  }
}