{
  "contractName": "Factory",
  "abi": [
    {
      "inputs": [
        {
          "internalType": "string",
          "name": "name",
          "type": "string"
        },
        {
          "internalType": "string",
          "name": "symbol",
          "type": "string"
        },
        {
          "internalType": "contract Utils",
          "name": "_ut",
          "type": "address"
        },
        {
          "internalType": "contract ItemList",
          "name": "_itemList",
          "type": "address"
        }
      ],
      "stateMutability": "nonpayable",
      "type": "constructor"
    },
    {
      "anonymous": false,
      "inputs": [
        {
          "indexed": true,
          "internalType": "address",
          "name": "owner",
          "type": "address"
        },
        {
          "indexed": true,
          "internalType": "address",
          "name": "approved",
          "type": "address"
        },
        {
          "indexed": true,
          "internalType": "uint256",
          "name": "tokenId",
          "type": "uint256"
        }
      ],
      "name": "Approval",
      "type": "event"
    },
    {
      "anonymous": false,
      "inputs": [
        {
          "indexed": true,
          "internalType": "address",
          "name": "owner",
          "type": "address"
        },
        {
          "indexed": true,
          "internalType": "address",
          "name": "operator",
          "type": "address"
        },
        {
          "indexed": false,
          "internalType": "bool",
          "name": "approved",
          "type": "bool"
        }
      ],
      "name": "ApprovalForAll",
      "type": "event"
    },
    {
      "anonymous": false,
      "inputs": [
        {
          "indexed": true,
          "internalType": "uint256",
          "name": "role",
          "type": "uint256"
        },
        {
          "indexed": true,
          "internalType": "uint256",
          "name": "previousAdminRole",
          "type": "uint256"
        },
        {
          "indexed": true,
          "internalType": "uint256",
          "name": "newAdminRole",
          "type": "uint256"
        }
      ],
      "name": "RoleAdminChanged",
      "type": "event"
    },
    {
      "anonymous": false,
      "inputs": [
        {
          "indexed": true,
          "internalType": "uint256",
          "name": "role",
          "type": "uint256"
        },
        {
          "indexed": true,
          "internalType": "address",
          "name": "account",
          "type": "address"
        },
        {
          "indexed": true,
          "internalType": "address",
          "name": "sender",
          "type": "address"
        }
      ],
      "name": "RoleGranted",
      "type": "event"
    },
    {
      "anonymous": false,
      "inputs": [
        {
          "indexed": true,
          "internalType": "uint256",
          "name": "role",
          "type": "uint256"
        },
        {
          "indexed": true,
          "internalType": "address",
          "name": "account",
          "type": "address"
        },
        {
          "indexed": true,
          "internalType": "address",
          "name": "sender",
          "type": "address"
        }
      ],
      "name": "RoleRevoked",
      "type": "event"
    },
    {
      "anonymous": false,
      "inputs": [
        {
          "indexed": true,
          "internalType": "address",
          "name": "from",
          "type": "address"
        },
        {
          "indexed": true,
          "internalType": "address",
          "name": "to",
          "type": "address"
        },
        {
          "indexed": true,
          "internalType": "uint256",
          "name": "tokenId",
          "type": "uint256"
        }
      ],
      "name": "Transfer",
      "type": "event"
    },
    {
      "inputs": [],
      "name": "DEFAULT_ADMIN_ROLE",
      "outputs": [
        {
          "internalType": "uint256",
          "name": "",
          "type": "uint256"
        }
      ],
      "stateMutability": "view",
      "type": "function"
    },
    {
      "inputs": [],
      "name": "DEFAULT_CORE_ROLE",
      "outputs": [
        {
          "internalType": "uint256",
          "name": "",
          "type": "uint256"
        }
      ],
      "stateMutability": "view",
      "type": "function"
    },
    {
      "inputs": [
        {
          "internalType": "address",
          "name": "to",
          "type": "address"
        },
        {
          "internalType": "uint256",
          "name": "tokenId",
          "type": "uint256"
        }
      ],
      "name": "approve",
      "outputs": [],
      "stateMutability": "nonpayable",
      "type": "function"
    },
    {
      "inputs": [
        {
          "internalType": "address",
          "name": "owner",
          "type": "address"
        }
      ],
      "name": "balanceOf",
      "outputs": [
        {
          "internalType": "uint256",
          "name": "",
          "type": "uint256"
        }
      ],
      "stateMutability": "view",
      "type": "function"
    },
    {
      "inputs": [
        {
          "internalType": "uint256",
          "name": "tokenId",
          "type": "uint256"
        }
      ],
      "name": "getApproved",
      "outputs": [
        {
          "internalType": "address",
          "name": "",
          "type": "address"
        }
      ],
      "stateMutability": "view",
      "type": "function"
    },
    {
      "inputs": [
        {
          "internalType": "uint256",
          "name": "role",
          "type": "uint256"
        }
      ],
      "name": "getRoleAdmin",
      "outputs": [
        {
          "internalType": "uint256",
          "name": "",
          "type": "uint256"
        }
      ],
      "stateMutability": "view",
      "type": "function"
    },
    {
      "inputs": [
        {
          "internalType": "uint256",
          "name": "role",
          "type": "uint256"
        },
        {
          "internalType": "address",
          "name": "account",
          "type": "address"
        }
      ],
      "name": "grantRole",
      "outputs": [],
      "stateMutability": "nonpayable",
      "type": "function"
    },
    {
      "inputs": [
        {
          "internalType": "uint256",
          "name": "role",
          "type": "uint256"
        },
        {
          "internalType": "address",
          "name": "account",
          "type": "address"
        }
      ],
      "name": "hasRole",
      "outputs": [
        {
          "internalType": "bool",
          "name": "",
          "type": "bool"
        }
      ],
      "stateMutability": "view",
      "type": "function"
    },
    {
      "inputs": [
        {
          "internalType": "address",
          "name": "owner",
          "type": "address"
        },
        {
          "internalType": "address",
          "name": "operator",
          "type": "address"
        }
      ],
      "name": "isApprovedForAll",
      "outputs": [
        {
          "internalType": "bool",
          "name": "",
          "type": "bool"
        }
      ],
      "stateMutability": "view",
      "type": "function"
    },
    {
      "inputs": [],
      "name": "name",
      "outputs": [
        {
          "internalType": "string",
          "name": "",
          "type": "string"
        }
      ],
      "stateMutability": "view",
      "type": "function"
    },
    {
      "inputs": [
        {
          "internalType": "uint256",
          "name": "tokenId",
          "type": "uint256"
        }
      ],
      "name": "ownerOf",
      "outputs": [
        {
          "internalType": "address",
          "name": "",
          "type": "address"
        }
      ],
      "stateMutability": "view",
      "type": "function"
    },
    {
      "inputs": [
        {
          "internalType": "uint256",
          "name": "role",
          "type": "uint256"
        },
        {
          "internalType": "address",
          "name": "account",
          "type": "address"
        }
      ],
      "name": "renounceRole",
      "outputs": [],
      "stateMutability": "nonpayable",
      "type": "function"
    },
    {
      "inputs": [
        {
          "internalType": "uint256",
          "name": "role",
          "type": "uint256"
        },
        {
          "internalType": "address",
          "name": "account",
          "type": "address"
        }
      ],
      "name": "revokeRole",
      "outputs": [],
      "stateMutability": "nonpayable",
      "type": "function"
    },
    {
      "inputs": [
        {
          "internalType": "address",
          "name": "from",
          "type": "address"
        },
        {
          "internalType": "address",
          "name": "to",
          "type": "address"
        },
        {
          "internalType": "uint256",
          "name": "tokenId",
          "type": "uint256"
        }
      ],
      "name": "safeTransferFrom",
      "outputs": [],
      "stateMutability": "nonpayable",
      "type": "function"
    },
    {
      "inputs": [
        {
          "internalType": "address",
          "name": "from",
          "type": "address"
        },
        {
          "internalType": "address",
          "name": "to",
          "type": "address"
        },
        {
          "internalType": "uint256",
          "name": "tokenId",
          "type": "uint256"
        },
        {
          "internalType": "bytes",
          "name": "_data",
          "type": "bytes"
        }
      ],
      "name": "safeTransferFrom",
      "outputs": [],
      "stateMutability": "nonpayable",
      "type": "function"
    },
    {
      "inputs": [
        {
          "internalType": "address",
          "name": "operator",
          "type": "address"
        },
        {
          "internalType": "bool",
          "name": "approved",
          "type": "bool"
        }
      ],
      "name": "setApprovalForAll",
      "outputs": [],
      "stateMutability": "nonpayable",
      "type": "function"
    },
    {
      "inputs": [
        {
          "internalType": "bytes4",
          "name": "interfaceId",
          "type": "bytes4"
        }
      ],
      "name": "supportsInterface",
      "outputs": [
        {
          "internalType": "bool",
          "name": "",
          "type": "bool"
        }
      ],
      "stateMutability": "view",
      "type": "function"
    },
    {
      "inputs": [],
      "name": "symbol",
      "outputs": [
        {
          "internalType": "string",
          "name": "",
          "type": "string"
        }
      ],
      "stateMutability": "view",
      "type": "function"
    },
    {
      "inputs": [
        {
          "internalType": "uint256",
          "name": "tokenId",
          "type": "uint256"
        }
      ],
      "name": "tokenURI",
      "outputs": [
        {
          "internalType": "string",
          "name": "",
          "type": "string"
        }
      ],
      "stateMutability": "view",
      "type": "function"
    },
    {
      "inputs": [
        {
          "internalType": "address",
          "name": "from",
          "type": "address"
        },
        {
          "internalType": "address",
          "name": "to",
          "type": "address"
        },
        {
          "internalType": "uint256",
          "name": "tokenId",
          "type": "uint256"
        }
      ],
      "name": "transferFrom",
      "outputs": [],
      "stateMutability": "nonpayable",
      "type": "function"
    },
    {
      "inputs": [
        {
          "internalType": "address",
          "name": "newAdmin",
          "type": "address"
        }
      ],
      "name": "changeAdmin",
      "outputs": [],
      "stateMutability": "nonpayable",
      "type": "function"
    },
    {
      "inputs": [
        {
          "internalType": "address",
          "name": "_Core",
          "type": "address"
        },
        {
          "internalType": "address",
          "name": "_CoreIn",
          "type": "address"
        }
      ],
      "name": "Initialize",
      "outputs": [],
      "stateMutability": "nonpayable",
      "type": "function"
    },
    {
      "inputs": [
        {
          "internalType": "address",
          "name": "addr",
          "type": "address"
        }
      ],
      "name": "mint",
      "outputs": [],
      "stateMutability": "nonpayable",
      "type": "function"
    },
    {
      "inputs": [
        {
          "internalType": "uint256",
          "name": "tokenId",
          "type": "uint256"
        },
        {
          "components": [
            {
              "internalType": "uint256",
              "name": "rarity",
              "type": "uint256"
            },
            {
              "internalType": "uint256",
              "name": "class",
              "type": "uint256"
            },
            {
              "internalType": "uint256",
              "name": "itemIdProduce",
              "type": "uint256"
            },
            {
              "internalType": "uint256",
              "name": "quantity",
              "type": "uint256"
            },
            {
              "internalType": "address",
              "name": "owner",
              "type": "address"
            },
            {
              "internalType": "uint256",
              "name": "claimTime",
              "type": "uint256"
            },
            {
              "internalType": "uint256",
              "name": "tokenId",
              "type": "uint256"
            },
            {
              "internalType": "bool",
              "name": "transfer",
              "type": "bool"
            }
          ],
          "internalType": "struct _Factory",
          "name": "_factory",
          "type": "tuple"
        }
      ],
      "name": "UpdateFactory",
      "outputs": [],
      "stateMutability": "nonpayable",
      "type": "function"
    },
    {
      "inputs": [
        {
          "internalType": "uint256",
          "name": "tokenId",
          "type": "uint256"
        }
      ],
      "name": "getFactory",
      "outputs": [
        {
          "components": [
            {
              "internalType": "uint256",
              "name": "rarity",
              "type": "uint256"
            },
            {
              "internalType": "uint256",
              "name": "class",
              "type": "uint256"
            },
            {
              "internalType": "uint256",
              "name": "itemIdProduce",
              "type": "uint256"
            },
            {
              "internalType": "uint256",
              "name": "quantity",
              "type": "uint256"
            },
            {
              "internalType": "address",
              "name": "owner",
              "type": "address"
            },
            {
              "internalType": "uint256",
              "name": "claimTime",
              "type": "uint256"
            },
            {
              "internalType": "uint256",
              "name": "tokenId",
              "type": "uint256"
            },
            {
              "internalType": "bool",
              "name": "transfer",
              "type": "bool"
            }
          ],
          "internalType": "struct _Factory",
          "name": "",
          "type": "tuple"
        }
      ],
      "stateMutability": "view",
      "type": "function"
    },
    {
      "inputs": [],
      "name": "getContractOwner",
      "outputs": [
        {
          "internalType": "address",
          "name": "",
          "type": "address"
        }
      ],
      "stateMutability": "view",
      "type": "function"
    },
    {
      "inputs": [],
      "name": "getIndexSlot",
      "outputs": [
        {
          "internalType": "uint256",
          "name": "",
          "type": "uint256"
        }
      ],
      "stateMutability": "view",
      "type": "function"
    },
    {
      "inputs": [],
      "name": "getTotalSupply",
      "outputs": [
        {
          "internalType": "uint256",
          "name": "",
          "type": "uint256"
        }
      ],
      "stateMutability": "view",
      "type": "function"
    },
    {
      "inputs": [
        {
          "internalType": "uint256",
          "name": "tokenId",
          "type": "uint256"
        }
      ],
      "name": "exists",
      "outputs": [
        {
          "internalType": "bool",
          "name": "",
          "type": "bool"
        }
      ],
      "stateMutability": "view",
      "type": "function"
    },
    {
      "inputs": [
        {
          "internalType": "address",
          "name": "from",
          "type": "address"
        },
        {
          "internalType": "address",
          "name": "to",
          "type": "address"
        },
        {
          "internalType": "uint256[]",
          "name": "tokenIds",
          "type": "uint256[]"
        }
      ],
      "name": "transferFromAll",
      "outputs": [],
      "stateMutability": "nonpayable",
      "type": "function"
    },
    {
      "inputs": [],
      "name": "burnAllFactorysInSeason",
      "outputs": [],
      "stateMutability": "nonpayable",
      "type": "function"
    },
    {
      "inputs": [
        {
          "internalType": "address",
          "name": "user",
          "type": "address"
        }
      ],
      "name": "getAllFactorysForUser",
      "outputs": [
        {
          "internalType": "uint256[]",
          "name": "",
          "type": "uint256[]"
        }
      ],
      "stateMutability": "view",
      "type": "function"
    },
    {
      "inputs": [
        {
          "internalType": "int256",
          "name": "max",
          "type": "int256"
        },
        {
          "internalType": "int256",
          "name": "min",
          "type": "int256"
        },
        {
          "internalType": "int256[]",
          "name": "tokenIds",
          "type": "int256[]"
        }
      ],
      "name": "getAllFactorysByTokenIds",
      "outputs": [
        {
          "components": [
            {
              "internalType": "uint256",
              "name": "rarity",
              "type": "uint256"
            },
            {
              "internalType": "uint256",
              "name": "class",
              "type": "uint256"
            },
            {
              "internalType": "uint256",
              "name": "itemIdProduce",
              "type": "uint256"
            },
            {
              "internalType": "uint256",
              "name": "quantity",
              "type": "uint256"
            },
            {
              "internalType": "address",
              "name": "owner",
              "type": "address"
            },
            {
              "internalType": "uint256",
              "name": "claimTime",
              "type": "uint256"
            },
            {
              "internalType": "uint256",
              "name": "tokenId",
              "type": "uint256"
            },
            {
              "internalType": "bool",
              "name": "transfer",
              "type": "bool"
            }
          ],
          "internalType": "struct _Factory[]",
          "name": "",
          "type": "tuple[]"
        }
      ],
      "stateMutability": "view",
      "type": "function"
    },
    {
      "inputs": [
        {
          "internalType": "uint256",
          "name": "tokenId",
          "type": "uint256"
        }
      ],
      "name": "burn",
      "outputs": [],
      "stateMutability": "nonpayable",
      "type": "function"
    }
  ],
  "bytecode": "0x60806040526001600b556000600c60006101000a81548160ff0219169083151502179055503480156200003157600080fd5b506040516200516638038062005166833981810160405281019062000057919062000728565b83838160009080519060200190620000719291906200041d565b5080600190805190602001906200008a9291906200041d565b50505033600760006101000a81548173ffffffffffffffffffffffffffffffffffffffff021916908373ffffffffffffffffffffffffffffffffffffffff16021790555073bf752eb4b851b241a36e22767b304ef28242198a600860006101000a81548173ffffffffffffffffffffffffffffffffffffffff021916908373ffffffffffffffffffffffffffffffffffffffff16021790555081600960006101000a81548173ffffffffffffffffffffffffffffffffffffffff021916908373ffffffffffffffffffffffffffffffffffffffff16021790555080600a60006101000a81548173ffffffffffffffffffffffffffffffffffffffff021916908373ffffffffffffffffffffffffffffffffffffffff160217905550620001b8601e806200021e60201b60201c565b620001cc601f601e6200021e60201b60201c565b620001df601e336200028260201b60201c565b62000214601e600860009054906101000a900473ffffffffffffffffffffffffffffffffffffffff166200028260201b60201c565b505050506200083d565b600062000231836200029860201b60201c565b90508160066000858152602001908152602001600020600101819055508181847f6620dedee755c284a7e221a3279487b734830c1f76c026c797b4d019c6b4b2f460405160405180910390a4505050565b620002948282620002b860201b60201c565b5050565b600060066000838152602001908152602001600020600101549050919050565b620002ca8282620003aa60201b60201c565b620003a65760016006600084815260200190815260200160002060000160008373ffffffffffffffffffffffffffffffffffffffff1673ffffffffffffffffffffffffffffffffffffffff16815260200190815260200160002060006101000a81548160ff0219169083151502179055506200034b6200041560201b60201c565b73ffffffffffffffffffffffffffffffffffffffff168173ffffffffffffffffffffffffffffffffffffffff16837f1ec1667fba5e43c5c76fff54e76d7a4a20a4fecf7b49724ad8d52a3f726e9dbd60405160405180910390a45b5050565b60006006600084815260200190815260200160002060000160008373ffffffffffffffffffffffffffffffffffffffff1673ffffffffffffffffffffffffffffffffffffffff16815260200190815260200160002060009054906101000a900460ff16905092915050565b600033905090565b8280546200042b9062000807565b90600052602060002090601f0160209004810192826200044f57600085556200049b565b82601f106200046a57805160ff19168380011785556200049b565b828001600101855582156200049b579182015b828111156200049a5782518255916020019190600101906200047d565b5b509050620004aa9190620004ae565b5090565b5b80821115620004c9576000816000905550600101620004af565b5090565b6000604051905090565b600080fd5b600080fd5b600080fd5b600080fd5b6000601f19601f8301169050919050565b7f4e487b7100000000000000000000000000000000000000000000000000000000600052604160045260246000fd5b6200053682620004eb565b810181811067ffffffffffffffff82111715620005585762000557620004fc565b5b80604052505050565b60006200056d620004cd565b90506200057b82826200052b565b919050565b600067ffffffffffffffff8211156200059e576200059d620004fc565b5b620005a982620004eb565b9050602081019050919050565b60005b83811015620005d6578082015181840152602081019050620005b9565b83811115620005e6576000848401525b50505050565b600062000603620005fd8462000580565b62000561565b905082815260208101848484011115620006225762000621620004e6565b5b6200062f848285620005b6565b509392505050565b600082601f8301126200064f576200064e620004e1565b5b815162000661848260208601620005ec565b91505092915050565b600073ffffffffffffffffffffffffffffffffffffffff82169050919050565b600062000697826200066a565b9050919050565b6000620006ab826200068a565b9050919050565b620006bd816200069e565b8114620006c957600080fd5b50565b600081519050620006dd81620006b2565b92915050565b6000620006f0826200068a565b9050919050565b6200070281620006e3565b81146200070e57600080fd5b50565b6000815190506200072281620006f7565b92915050565b60008060008060808587031215620007455762000744620004d7565b5b600085015167ffffffffffffffff811115620007665762000765620004dc565b5b620007748782880162000637565b945050602085015167ffffffffffffffff811115620007985762000797620004dc565b5b620007a68782880162000637565b9350506040620007b987828801620006cc565b9250506060620007cc8782880162000711565b91505092959194509250565b7f4e487b7100000000000000000000000000000000000000000000000000000000600052602260045260246000fd5b600060028204905060018216806200082057607f821691505b60208210811415620008375762000836620007d8565b5b50919050565b614919806200084d6000396000f3fe608060405234801561001057600080fd5b50600436106102065760003560e01c80636352211e1161011a578063a22cb465116100ad578063dc90fed01161007c578063dc90fed0146105f9578063e725e0f614610615578063e985e9c51461061f578063ec2606c01461064f578063fb2990ad1461067f57610206565b8063a22cb46514610573578063b88d4fde1461058f578063c4e41b22146105ab578063c87b56dd146105c957610206565b80637ee82bee116100e95780637ee82bee146104ff5780638f2839701461051b57806395d89b4114610537578063a217fddf1461055557610206565b80636352211e146104655780636a627842146104955780636f45e4e5146104b157806370a08231146104cf57610206565b80632308d2361161019d57806342966c681161016c57806342966c68146103af578063442890d5146103cb5780634f558e79146103e957806355a204f91461041957806356c5112e1461044957610206565b80632308d2361461032b57806323b872dd1461034757806332c124e31461036357806342842e0e1461039357610206565b80631ae4a969116101d95780631ae4a969146102a55780631d0b19e7146102c35780631eec1d94146102df5780631fe5f5891461030f57610206565b806301ffc9a71461020b57806306fdde031461023b578063081812fc14610259578063095ea7b314610289575b600080fd5b61022560048036038101906102209190612cfa565b6106af565b6040516102329190612d42565b60405180910390f35b610243610791565b6040516102509190612df6565b60405180910390f35b610273600480360381019061026e9190612e4e565b610823565b6040516102809190612ebc565b60405180910390f35b6102a3600480360381019061029e9190612f03565b6108a8565b005b6102ad6109c0565b6040516102ba9190612f52565b60405180910390f35b6102dd60048036038101906102d89190612f6d565b610a0e565b005b6102f960048036038101906102f49190612fad565b610a37565b6040516103069190613098565b60405180910390f35b61032960048036038101906103249190612f6d565b610bad565b005b61034560048036038101906103409190612f6d565b610bd6565b005b610361600480360381019061035c91906130ba565b610c59565b005b61037d6004803603810190610378919061328b565b610cb9565b60405161038a919061346a565b60405180910390f35b6103ad60048036038101906103a891906130ba565b610e3e565b005b6103c960048036038101906103c49190612e4e565b610e5e565b005b6103d3610e7c565b6040516103e09190612ebc565b60405180910390f35b61040360048036038101906103fe9190612e4e565b610ea6565b6040516104109190612d42565b60405180910390f35b610433600480360381019061042e9190612e4e565b610eb8565b604051610440919061352e565b60405180910390f35b610463600480360381019061045e9190613645565b610fdb565b005b61047f600480360381019061047a9190612e4e565b6110f3565b60405161048c9190612ebc565b60405180910390f35b6104af60048036038101906104aa9190612fad565b6111a5565b005b6104b96114fe565b6040516104c69190612f52565b60405180910390f35b6104e960048036038101906104e49190612fad565b611503565b6040516104f69190612f52565b60405180910390f35b61051960048036038101906105149190613749565b6115bb565b005b61053560048036038101906105309190612fad565b611628565b005b61053f611680565b60405161054c9190612df6565b60405180910390f35b61055d611712565b60405161056a9190612f52565b60405180910390f35b61058d600480360381019061058891906137b8565b611717565b005b6105a960048036038101906105a491906138ad565b611898565b005b6105b36118fa565b6040516105c09190612f52565b60405180910390f35b6105e360048036038101906105de9190612e4e565b611904565b6040516105f09190612df6565b60405180910390f35b610613600480360381019061060e9190613930565b6119ab565b005b61061d611a08565b005b61063960048036038101906106349190613930565b611a59565b6040516106469190612d42565b60405180910390f35b61066960048036038101906106649190612f6d565b611aed565b6040516106769190612d42565b60405180910390f35b61069960048036038101906106949190612e4e565b611b58565b6040516106a69190612f52565b60405180910390f35b60007f80ac58cd000000000000000000000000000000000000000000000000000000007bffffffffffffffffffffffffffffffffffffffffffffffffffffffff1916827bffffffffffffffffffffffffffffffffffffffffffffffffffffffff1916148061077a57507f5b5e139f000000000000000000000000000000000000000000000000000000007bffffffffffffffffffffffffffffffffffffffffffffffffffffffff1916827bffffffffffffffffffffffffffffffffffffffffffffffffffffffff1916145b8061078a575061078982611b78565b5b9050919050565b6060600080546107a09061399f565b80601f01602080910402602001604051908101604052809291908181526020018280546107cc9061399f565b80156108195780601f106107ee57610100808354040283529160200191610819565b820191906000526020600020905b8154815290600101906020018083116107fc57829003601f168201915b5050505050905090565b600061082e82611be2565b61086d576040517f08c379a000000000000000000000000000000000000000000000000000000000815260040161086490613a43565b60405180910390fd5b6004600083815260200190815260200160002060009054906101000a900473ffffffffffffffffffffffffffffffffffffffff169050919050565b60006108b3826110f3565b90508073ffffffffffffffffffffffffffffffffffffffff168373ffffffffffffffffffffffffffffffffffffffff161415610924576040517f08c379a000000000000000000000000000000000000000000000000000000000815260040161091b90613ad5565b60405180910390fd5b8073ffffffffffffffffffffffffffffffffffffffff16610943611c4e565b73ffffffffffffffffffffffffffffffffffffffff16148061097257506109718161096c611c4e565b611a59565b5b6109b1576040517f08c379a00000000000000000000000000000000000000000000000000000000081526004016109a890613b67565b60405180910390fd5b6109bb8383611c56565b505050565b600080600b5490506000600190505b600b548111610a05576109e181611be2565b6109f2578091508192505050610a0b565b80806109fd90613bb6565b9150506109cf565b50809150505b90565b610a1782611b58565b610a2881610a23611c4e565b611d0f565b610a328383611da9565b505050565b60606000610a4483611503565b90506000811415610aa157600067ffffffffffffffff811115610a6a57610a69613148565b5b604051908082528060200260200182016040528015610a985781602001602082028036833780820191505090505b50915050610ba8565b60008167ffffffffffffffff811115610abd57610abc613148565b5b604051908082528060200260200182016040528015610aeb5781602001602082028036833780820191505090505b5090506000610af86118fa565b905060008060009050600191505b82821015610b9f57610b1782610ea6565b610b2057610b8c565b8673ffffffffffffffffffffffffffffffffffffffff16610b40836110f3565b73ffffffffffffffffffffffffffffffffffffffff161415610b8b5781848281518110610b7057610b6f613bff565b5b6020026020010181815250508080610b8790613bb6565b9150505b5b8180610b9790613bb6565b925050610b06565b83955050505050505b919050565b610bb682611b58565b610bc781610bc2611c4e565b611d0f565b610bd18383611e8b565b505050565b610bde611c4e565b73ffffffffffffffffffffffffffffffffffffffff168173ffffffffffffffffffffffffffffffffffffffff1614610c4b576040517f08c379a0000000000000000000000000000000000000000000000000000000008152600401610c4290613ca0565b60405180910390fd5b610c558282611da9565b5050565b610c6a610c64611c4e565b82611f6c565b610ca9576040517f08c379a0000000000000000000000000000000000000000000000000000000008152600401610ca090613d32565b60405180910390fd5b610cb483838361204a565b505050565b60606000825190506000811415610d2757600067ffffffffffffffff811115610ce557610ce4613148565b5b604051908082528060200260200182016040528015610d1e57816020015b610d0b612c31565b815260200190600190039081610d035790505b50915050610e37565b60008167ffffffffffffffff811115610d4357610d42613148565b5b604051908082528060200260200182016040528015610d7c57816020015b610d69612c31565b815260200190600190039081610d615790505b509050600080600090508791505b868212610e2f5760008212610e1b57610dbc868381518110610daf57610dae613bff565b5b6020026020010151610ea6565b610dc557610e1c565b6000610dea878481518110610ddd57610ddc613bff565b5b6020026020010151610eb8565b905080848381518110610e0057610dff613bff565b5b60200260200101819052508180610e1690613bb6565b925050505b5b8180610e2790613d52565b925050610d8a565b829450505050505b9392505050565b610e5983838360405180602001604052806000815250611898565b505050565b610e70601f610e6b611c4e565b611d0f565b610e79816122a6565b50565b6000600760009054906101000a900473ffffffffffffffffffffffffffffffffffffffff16905090565b6000610eb182611be2565b9050919050565b610ec0612c31565b610ec982611be2565b610f08576040517f08c379a0000000000000000000000000000000000000000000000000000000008152600401610eff90613de7565b60405180910390fd5b600d600083815260200190815260200160002060405180610100016040529081600082015481526020016001820154815260200160028201548152602001600382015481526020016004820160009054906101000a900473ffffffffffffffffffffffffffffffffffffffff1673ffffffffffffffffffffffffffffffffffffffff1673ffffffffffffffffffffffffffffffffffffffff16815260200160058201548152602001600682015481526020016007820160009054906101000a900460ff1615151515815250509050919050565b610fed601f610fe8611c4e565b611d0f565b610ff682611be2565b611035576040517f08c379a000000000000000000000000000000000000000000000000000000000815260040161102c90613e53565b60405180910390fd5b80600d60008481526020019081526020016000206000820151816000015560208201518160010155604082015181600201556060820151816003015560808201518160040160006101000a81548173ffffffffffffffffffffffffffffffffffffffff021916908373ffffffffffffffffffffffffffffffffffffffff16021790555060a0820151816005015560c0820151816006015560e08201518160070160006101000a81548160ff0219169083151502179055509050505050565b6000806002600084815260200190815260200160002060009054906101000a900473ffffffffffffffffffffffffffffffffffffffff169050600073ffffffffffffffffffffffffffffffffffffffff168173ffffffffffffffffffffffffffffffffffffffff16141561119c576040517f08c379a000000000000000000000000000000000000000000000000000000000815260040161119390613ee5565b60405180910390fd5b80915050919050565b6111b7601f6111b2611c4e565b611d0f565b6000600960009054906101000a900473ffffffffffffffffffffffffffffffffffffffff1673ffffffffffffffffffffffffffffffffffffffff16632530c90560646040518263ffffffff1660e01b81526004016112159190613f4a565b6020604051808303816000875af1158015611234573d6000803e3d6000fd5b505050506040513d601f19601f820116820180604052508101906112589190613f7a565b90506000600190506000600190506000600a905060006005905060004290506028861161128c5760019450600a92506112c1565b604686116112a15760029450600b92506112c0565b605a86116112b65760039450600c92506112bf565b60049450600d92505b5b5b6000600960009054906101000a900473ffffffffffffffffffffffffffffffffffffffff1673ffffffffffffffffffffffffffffffffffffffff16632530c90560646040518263ffffffff1660e01b815260040161131f9190613f4a565b6020604051808303816000875af115801561133e573d6000803e3d6000fd5b505050506040513d601f19601f820116820180604052508101906113629190613f7a565b9050603781116113795760019450600592506113ae565b6050811161138e5760029450600992506113ad565b605f81116113a35760039450600d92506113ac565b60049450601192505b5b5b60006113b86109c0565b90506040518061010001604052808781526020018881526020018681526020018581526020018a73ffffffffffffffffffffffffffffffffffffffff16815260200184815260200182815260200160011515815250600d60008381526020019081526020016000206000820151816000015560208201518160010155604082015181600201556060820151816003015560808201518160040160006101000a81548173ffffffffffffffffffffffffffffffffffffffff021916908373ffffffffffffffffffffffffffffffffffffffff16021790555060a0820151816005015560c0820151816006015560e08201518160070160006101000a81548160ff0219169083151502179055509050506114d089826123b7565b600b548114156114f357600b60008154809291906114ed90613bb6565b91905055505b505050505050505050565b601f81565b60008073ffffffffffffffffffffffffffffffffffffffff168273ffffffffffffffffffffffffffffffffffffffff161415611574576040517f08c379a000000000000000000000000000000000000000000000000000000000815260040161156b90614019565b60405180910390fd5b600360008373ffffffffffffffffffffffffffffffffffffffff1673ffffffffffffffffffffffffffffffffffffffff168152602001908152602001600020549050919050565b601f6115ce816115c9611c4e565b611d0f565b60008251116115dc57611622565b60005b82518110156116205761160d8585858481518110611600576115ff613bff565b5b6020026020010151610c59565b808061161890613bb6565b9150506115df565b505b50505050565b601e61163b81611636611c4e565b611d0f565b81600760006101000a81548173ffffffffffffffffffffffffffffffffffffffff021916908373ffffffffffffffffffffffffffffffffffffffff1602179055505050565b60606001805461168f9061399f565b80601f01602080910402602001604051908101604052809291908181526020018280546116bb9061399f565b80156117085780601f106116dd57610100808354040283529160200191611708565b820191906000526020600020905b8154815290600101906020018083116116eb57829003601f168201915b5050505050905090565b601e81565b61171f611c4e565b73ffffffffffffffffffffffffffffffffffffffff168273ffffffffffffffffffffffffffffffffffffffff16141561178d576040517f08c379a000000000000000000000000000000000000000000000000000000000815260040161178490614085565b60405180910390fd5b806005600061179a611c4e565b73ffffffffffffffffffffffffffffffffffffffff1673ffffffffffffffffffffffffffffffffffffffff16815260200190815260200160002060008473ffffffffffffffffffffffffffffffffffffffff1673ffffffffffffffffffffffffffffffffffffffff16815260200190815260200160002060006101000a81548160ff0219169083151502179055508173ffffffffffffffffffffffffffffffffffffffff16611847611c4e565b73ffffffffffffffffffffffffffffffffffffffff167f17307eab39ab6107e8899845ad3d59bd9653f200f220920489ca2b5937696c318360405161188c9190612d42565b60405180910390a35050565b6118a96118a3611c4e565b83611f6c565b6118e8576040517f08c379a00000000000000000000000000000000000000000000000000000000081526004016118df90613d32565b60405180910390fd5b6118f484848484612585565b50505050565b6000600b54905090565b606061190f82611be2565b61194e576040517f08c379a000000000000000000000000000000000000000000000000000000000815260040161194590614117565b60405180910390fd5b60006119586125e1565b9050600081511161197857604051806020016040528060008152506119a3565b80611982846125f8565b604051602001611993929190614173565b6040516020818303038152906040525b915050919050565b60001515600c60009054906101000a900460ff1615151415611a04576119d2601f83612759565b6119dd601f82612759565b6119e8601e33612759565b6001600c60006101000a81548160ff0219169083151502179055505b5050565b611a1a601f611a15611c4e565b611d0f565b6000600190505b600b54811015611a5657611a3481611be2565b15611a4357611a42816122a6565b5b8080611a4e90613bb6565b915050611a21565b50565b6000600560008473ffffffffffffffffffffffffffffffffffffffff1673ffffffffffffffffffffffffffffffffffffffff16815260200190815260200160002060008373ffffffffffffffffffffffffffffffffffffffff1673ffffffffffffffffffffffffffffffffffffffff16815260200190815260200160002060009054906101000a900460ff16905092915050565b60006006600084815260200190815260200160002060000160008373ffffffffffffffffffffffffffffffffffffffff1673ffffffffffffffffffffffffffffffffffffffff16815260200190815260200160002060009054906101000a900460ff16905092915050565b600060066000838152602001908152602001600020600101549050919050565b60007f01ffc9a7000000000000000000000000000000000000000000000000000000007bffffffffffffffffffffffffffffffffffffffffffffffffffffffff1916827bffffffffffffffffffffffffffffffffffffffffffffffffffffffff1916149050919050565b60008073ffffffffffffffffffffffffffffffffffffffff166002600084815260200190815260200160002060009054906101000a900473ffffffffffffffffffffffffffffffffffffffff1673ffffffffffffffffffffffffffffffffffffffff1614159050919050565b600033905090565b816004600083815260200190815260200160002060006101000a81548173ffffffffffffffffffffffffffffffffffffffff021916908373ffffffffffffffffffffffffffffffffffffffff160217905550808273ffffffffffffffffffffffffffffffffffffffff16611cc9836110f3565b73ffffffffffffffffffffffffffffffffffffffff167f8c5be1e5ebec7d5bd14f71427d1e84f3dd0314c0f7b2291e5b200ac8c7c3b92560405160405180910390a45050565b611d198282611aed565b611da557611d3e8173ffffffffffffffffffffffffffffffffffffffff166014612767565b611d49836020612767565b604051602001611d5a92919061422f565b6040516020818303038152906040526040517f08c379a0000000000000000000000000000000000000000000000000000000008152600401611d9c9190612df6565b60405180910390fd5b5050565b611db38282611aed565b15611e875760006006600084815260200190815260200160002060000160008373ffffffffffffffffffffffffffffffffffffffff1673ffffffffffffffffffffffffffffffffffffffff16815260200190815260200160002060006101000a81548160ff021916908315150217905550611e2c611c4e565b73ffffffffffffffffffffffffffffffffffffffff168173ffffffffffffffffffffffffffffffffffffffff16837fe0df21b65c73c27081b8f042a012b124085b41d78d27b7e3c4780f5650f5ebb860405160405180910390a45b5050565b611e958282611aed565b611f685760016006600084815260200190815260200160002060000160008373ffffffffffffffffffffffffffffffffffffffff1673ffffffffffffffffffffffffffffffffffffffff16815260200190815260200160002060006101000a81548160ff021916908315150217905550611f0d611c4e565b73ffffffffffffffffffffffffffffffffffffffff168173ffffffffffffffffffffffffffffffffffffffff16837f1ec1667fba5e43c5c76fff54e76d7a4a20a4fecf7b49724ad8d52a3f726e9dbd60405160405180910390a45b5050565b6000611f7782611be2565b611fb6576040517f08c379a0000000000000000000000000000000000000000000000000000000008152600401611fad906142db565b60405180910390fd5b6000611fc1836110f3565b90508073ffffffffffffffffffffffffffffffffffffffff168473ffffffffffffffffffffffffffffffffffffffff16148061203057508373ffffffffffffffffffffffffffffffffffffffff1661201884610823565b73ffffffffffffffffffffffffffffffffffffffff16145b8061204157506120408185611a59565b5b91505092915050565b8273ffffffffffffffffffffffffffffffffffffffff1661206a826110f3565b73ffffffffffffffffffffffffffffffffffffffff16146120c0576040517f08c379a00000000000000000000000000000000000000000000000000000000081526004016120b79061436d565b60405180910390fd5b600073ffffffffffffffffffffffffffffffffffffffff168273ffffffffffffffffffffffffffffffffffffffff161415612130576040517f08c379a0000000000000000000000000000000000000000000000000000000008152600401612127906143ff565b60405180910390fd5b61213b8383836129a3565b612146600082611c56565b6001600360008573ffffffffffffffffffffffffffffffffffffffff1673ffffffffffffffffffffffffffffffffffffffff1681526020019081526020016000206000828254612196919061441f565b925050819055506001600360008473ffffffffffffffffffffffffffffffffffffffff1673ffffffffffffffffffffffffffffffffffffffff16815260200190815260200160002060008282546121ed9190614453565b92505081905550816002600083815260200190815260200160002060006101000a81548173ffffffffffffffffffffffffffffffffffffffff021916908373ffffffffffffffffffffffffffffffffffffffff160217905550808273ffffffffffffffffffffffffffffffffffffffff168473ffffffffffffffffffffffffffffffffffffffff167fddf252ad1be2c89b69c2b068fc378daa952ba7f163c4a11628f55a4df523b3ef60405160405180910390a4505050565b60006122b1826110f3565b90506122bf816000846129a3565b6122ca600083611c56565b6001600360008373ffffffffffffffffffffffffffffffffffffffff1673ffffffffffffffffffffffffffffffffffffffff168152602001908152602001600020600082825461231a919061441f565b925050819055506002600083815260200190815260200160002060006101000a81549073ffffffffffffffffffffffffffffffffffffffff021916905581600073ffffffffffffffffffffffffffffffffffffffff168273ffffffffffffffffffffffffffffffffffffffff167fddf252ad1be2c89b69c2b068fc378daa952ba7f163c4a11628f55a4df523b3ef60405160405180910390a45050565b600073ffffffffffffffffffffffffffffffffffffffff168273ffffffffffffffffffffffffffffffffffffffff161415612427576040517f08c379a000000000000000000000000000000000000000000000000000000000815260040161241e906144f5565b60405180910390fd5b61243081611be2565b15612470576040517f08c379a000000000000000000000000000000000000000000000000000000000815260040161246790614561565b60405180910390fd5b61247c600083836129a3565b6001600360008473ffffffffffffffffffffffffffffffffffffffff1673ffffffffffffffffffffffffffffffffffffffff16815260200190815260200160002060008282546124cc9190614453565b92505081905550816002600083815260200190815260200160002060006101000a81548173ffffffffffffffffffffffffffffffffffffffff021916908373ffffffffffffffffffffffffffffffffffffffff160217905550808273ffffffffffffffffffffffffffffffffffffffff16600073ffffffffffffffffffffffffffffffffffffffff167fddf252ad1be2c89b69c2b068fc378daa952ba7f163c4a11628f55a4df523b3ef60405160405180910390a45050565b61259084848461204a565b61259c84848484612a96565b6125db576040517f08c379a00000000000000000000000000000000000000000000000000000000081526004016125d2906145f3565b60405180910390fd5b50505050565b606060405180602001604052806000815250905090565b60606000821415612640576040518060400160405280600181526020017f30000000000000000000000000000000000000000000000000000000000000008152509050612754565b600082905060005b6000821461267257808061265b90613bb6565b915050600a8261266b9190614642565b9150612648565b60008167ffffffffffffffff81111561268e5761268d613148565b5b6040519080825280601f01601f1916602001820160405280156126c05781602001600182028036833780820191505090505b5090505b6000851461274d576001826126d9919061441f565b9150600a856126e89190614673565b60306126f49190614453565b60f81b81838151811061270a57612709613bff565b5b60200101907effffffffffffffffffffffffffffffffffffffffffffffffffffffffffffff1916908160001a905350600a856127469190614642565b94506126c4565b8093505050505b919050565b6127638282611e8b565b5050565b60606000600283600261277a91906146a4565b6127849190614453565b67ffffffffffffffff81111561279d5761279c613148565b5b6040519080825280601f01601f1916602001820160405280156127cf5781602001600182028036833780820191505090505b5090507f30000000000000000000000000000000000000000000000000000000000000008160008151811061280757612806613bff565b5b60200101907effffffffffffffffffffffffffffffffffffffffffffffffffffffffffffff1916908160001a9053507f78000000000000000000000000000000000000000000000000000000000000008160018151811061286b5761286a613bff565b5b60200101907effffffffffffffffffffffffffffffffffffffffffffffffffffffffffffff1916908160001a905350600060018460026128ab91906146a4565b6128b59190614453565b90505b6001811115612955577f3031323334353637383961626364656600000000000000000000000000000000600f8616601081106128f7576128f6613bff565b5b1a60f81b82828151811061290e5761290d613bff565b5b60200101907effffffffffffffffffffffffffffffffffffffffffffffffffffffffffffff1916908160001a905350600485901c94508061294e906146fe565b90506128b8565b5060008414612999576040517f08c379a000000000000000000000000000000000000000000000000000000000815260040161299090614774565b60405180910390fd5b8091505092915050565b60011515600d600083815260200190815260200160002060070160009054906101000a900460ff16151514612a0d576040517f08c379a0000000000000000000000000000000000000000000000000000000008152600401612a04906147e0565b60405180910390fd5b6000600d600083815260200190815260200160002060070160006101000a81548160ff02191690831515021790555081600d600083815260200190815260200160002060040160006101000a81548173ffffffffffffffffffffffffffffffffffffffff021916908373ffffffffffffffffffffffffffffffffffffffff160217905550505050565b6000612ab78473ffffffffffffffffffffffffffffffffffffffff16612c1e565b15612c11578373ffffffffffffffffffffffffffffffffffffffff1663150b7a02612ae0611c4e565b8786866040518563ffffffff1660e01b8152600401612b029493929190614855565b6020604051808303816000875af1925050508015612b3e57506040513d601f19601f82011682018060405250810190612b3b91906148b6565b60015b612bc1573d8060008114612b6e576040519150601f19603f3d011682016040523d82523d6000602084013e612b73565b606091505b50600081511415612bb9576040517f08c379a0000000000000000000000000000000000000000000000000000000008152600401612bb0906145f3565b60405180910390fd5b805181602001fd5b63150b7a0260e01b7bffffffffffffffffffffffffffffffffffffffffffffffffffffffff1916817bffffffffffffffffffffffffffffffffffffffffffffffffffffffff191614915050612c16565b600190505b949350505050565b600080823b905060008111915050919050565b60405180610100016040528060008152602001600081526020016000815260200160008152602001600073ffffffffffffffffffffffffffffffffffffffff16815260200160008152602001600081526020016000151581525090565b6000604051905090565b600080fd5b600080fd5b60007fffffffff0000000000000000000000000000000000000000000000000000000082169050919050565b612cd781612ca2565b8114612ce257600080fd5b50565b600081359050612cf481612cce565b92915050565b600060208284031215612d1057612d0f612c98565b5b6000612d1e84828501612ce5565b91505092915050565b60008115159050919050565b612d3c81612d27565b82525050565b6000602082019050612d576000830184612d33565b92915050565b600081519050919050565b600082825260208201905092915050565b60005b83811015612d97578082015181840152602081019050612d7c565b83811115612da6576000848401525b50505050565b6000601f19601f8301169050919050565b6000612dc882612d5d565b612dd28185612d68565b9350612de2818560208601612d79565b612deb81612dac565b840191505092915050565b60006020820190508181036000830152612e108184612dbd565b905092915050565b6000819050919050565b612e2b81612e18565b8114612e3657600080fd5b50565b600081359050612e4881612e22565b92915050565b600060208284031215612e6457612e63612c98565b5b6000612e7284828501612e39565b91505092915050565b600073ffffffffffffffffffffffffffffffffffffffff82169050919050565b6000612ea682612e7b565b9050919050565b612eb681612e9b565b82525050565b6000602082019050612ed16000830184612ead565b92915050565b612ee081612e9b565b8114612eeb57600080fd5b50565b600081359050612efd81612ed7565b92915050565b60008060408385031215612f1a57612f19612c98565b5b6000612f2885828601612eee565b9250506020612f3985828601612e39565b9150509250929050565b612f4c81612e18565b82525050565b6000602082019050612f676000830184612f43565b92915050565b60008060408385031215612f8457612f83612c98565b5b6000612f9285828601612e39565b9250506020612fa385828601612eee565b9150509250929050565b600060208284031215612fc357612fc2612c98565b5b6000612fd184828501612eee565b91505092915050565b600081519050919050565b600082825260208201905092915050565b6000819050602082019050919050565b61300f81612e18565b82525050565b60006130218383613006565b60208301905092915050565b6000602082019050919050565b600061304582612fda565b61304f8185612fe5565b935061305a83612ff6565b8060005b8381101561308b5781516130728882613015565b975061307d8361302d565b92505060018101905061305e565b5085935050505092915050565b600060208201905081810360008301526130b2818461303a565b905092915050565b6000806000606084860312156130d3576130d2612c98565b5b60006130e186828701612eee565b93505060206130f286828701612eee565b925050604061310386828701612e39565b9150509250925092565b6000819050919050565b6131208161310d565b811461312b57600080fd5b50565b60008135905061313d81613117565b92915050565b600080fd5b7f4e487b7100000000000000000000000000000000000000000000000000000000600052604160045260246000fd5b61318082612dac565b810181811067ffffffffffffffff8211171561319f5761319e613148565b5b80604052505050565b60006131b2612c8e565b90506131be8282613177565b919050565b600067ffffffffffffffff8211156131de576131dd613148565b5b602082029050602081019050919050565b600080fd5b6000613207613202846131c3565b6131a8565b9050808382526020820190506020840283018581111561322a576132296131ef565b5b835b81811015613253578061323f888261312e565b84526020840193505060208101905061322c565b5050509392505050565b600082601f83011261327257613271613143565b5b81356132828482602086016131f4565b91505092915050565b6000806000606084860312156132a4576132a3612c98565b5b60006132b28682870161312e565b93505060206132c38682870161312e565b925050604084013567ffffffffffffffff8111156132e4576132e3612c9d565b5b6132f08682870161325d565b9150509250925092565b600081519050919050565b600082825260208201905092915050565b6000819050602082019050919050565b61332f81612e9b565b82525050565b61333e81612d27565b82525050565b6101008201600082015161335b6000850182613006565b50602082015161336e6020850182613006565b5060408201516133816040850182613006565b5060608201516133946060850182613006565b5060808201516133a76080850182613326565b5060a08201516133ba60a0850182613006565b5060c08201516133cd60c0850182613006565b5060e08201516133e060e0850182613335565b50505050565b60006133f28383613344565b6101008301905092915050565b6000602082019050919050565b6000613417826132fa565b6134218185613305565b935061342c83613316565b8060005b8381101561345d57815161344488826133e6565b975061344f836133ff565b925050600181019050613430565b5085935050505092915050565b60006020820190508181036000830152613484818461340c565b905092915050565b610100820160008201516134a36000850182613006565b5060208201516134b66020850182613006565b5060408201516134c96040850182613006565b5060608201516134dc6060850182613006565b5060808201516134ef6080850182613326565b5060a082015161350260a0850182613006565b5060c082015161351560c0850182613006565b5060e082015161352860e0850182613335565b50505050565b600061010082019050613544600083018461348c565b92915050565b600080fd5b61355881612d27565b811461356357600080fd5b50565b6000813590506135758161354f565b92915050565b600061010082840312156135925761359161354a565b5b61359d6101006131a8565b905060006135ad84828501612e39565b60008301525060206135c184828501612e39565b60208301525060406135d584828501612e39565b60408301525060606135e984828501612e39565b60608301525060806135fd84828501612eee565b60808301525060a061361184828501612e39565b60a08301525060c061362584828501612e39565b60c08301525060e061363984828501613566565b60e08301525092915050565b600080610120838503121561365d5761365c612c98565b5b600061366b85828601612e39565b925050602061367c8582860161357b565b9150509250929050565b600067ffffffffffffffff8211156136a1576136a0613148565b5b602082029050602081019050919050565b60006136c56136c084613686565b6131a8565b905080838252602082019050602084028301858111156136e8576136e76131ef565b5b835b8181101561371157806136fd8882612e39565b8452602084019350506020810190506136ea565b5050509392505050565b600082601f8301126137305761372f613143565b5b81356137408482602086016136b2565b91505092915050565b60008060006060848603121561376257613761612c98565b5b600061377086828701612eee565b935050602061378186828701612eee565b925050604084013567ffffffffffffffff8111156137a2576137a1612c9d565b5b6137ae8682870161371b565b9150509250925092565b600080604083850312156137cf576137ce612c98565b5b60006137dd85828601612eee565b92505060206137ee85828601613566565b9150509250929050565b600080fd5b600067ffffffffffffffff82111561381857613817613148565b5b61382182612dac565b9050602081019050919050565b82818337600083830152505050565b600061385061384b846137fd565b6131a8565b90508281526020810184848401111561386c5761386b6137f8565b5b61387784828561382e565b509392505050565b600082601f83011261389457613893613143565b5b81356138a484826020860161383d565b91505092915050565b600080600080608085870312156138c7576138c6612c98565b5b60006138d587828801612eee565b94505060206138e687828801612eee565b93505060406138f787828801612e39565b925050606085013567ffffffffffffffff81111561391857613917612c9d565b5b6139248782880161387f565b91505092959194509250565b6000806040838503121561394757613946612c98565b5b600061395585828601612eee565b925050602061396685828601612eee565b9150509250929050565b7f4e487b7100000000000000000000000000000000000000000000000000000000600052602260045260246000fd5b600060028204905060018216806139b757607f821691505b602082108114156139cb576139ca613970565b5b50919050565b7f4552433732313a20617070726f76656420717565727920666f72206e6f6e657860008201527f697374656e7420746f6b656e0000000000000000000000000000000000000000602082015250565b6000613a2d602c83612d68565b9150613a38826139d1565b604082019050919050565b60006020820190508181036000830152613a5c81613a20565b9050919050565b7f4552433732313a20617070726f76616c20746f2063757272656e74206f776e6560008201527f7200000000000000000000000000000000000000000000000000000000000000602082015250565b6000613abf602183612d68565b9150613aca82613a63565b604082019050919050565b60006020820190508181036000830152613aee81613ab2565b9050919050565b7f4552433732313a20617070726f76652063616c6c6572206973206e6f74206f7760008201527f6e6572206e6f7220617070726f76656420666f7220616c6c0000000000000000602082015250565b6000613b51603883612d68565b9150613b5c82613af5565b604082019050919050565b60006020820190508181036000830152613b8081613b44565b9050919050565b7f4e487b7100000000000000000000000000000000000000000000000000000000600052601160045260246000fd5b6000613bc182612e18565b91507fffffffffffffffffffffffffffffffffffffffffffffffffffffffffffffffff821415613bf457613bf3613b87565b5b600182019050919050565b7f4e487b7100000000000000000000000000000000000000000000000000000000600052603260045260246000fd5b7f416363657373436f6e74726f6c3a2063616e206f6e6c792072656e6f756e636560008201527f20726f6c657320666f722073656c660000000000000000000000000000000000602082015250565b6000613c8a602f83612d68565b9150613c9582613c2e565b604082019050919050565b60006020820190508181036000830152613cb981613c7d565b9050919050565b7f4552433732313a207472616e736665722063616c6c6572206973206e6f74206f60008201527f776e6572206e6f7220617070726f766564000000000000000000000000000000602082015250565b6000613d1c603183612d68565b9150613d2782613cc0565b604082019050919050565b60006020820190508181036000830152613d4b81613d0f565b9050919050565b6000613d5d8261310d565b91507f8000000000000000000000000000000000000000000000000000000000000000821415613d9057613d8f613b87565b5b600182039050919050565b7f4e6f204578697374000000000000000000000000000000000000000000000000600082015250565b6000613dd1600883612d68565b9150613ddc82613d9b565b602082019050919050565b60006020820190508181036000830152613e0081613dc4565b9050919050565b7f6e6f204578697374000000000000000000000000000000000000000000000000600082015250565b6000613e3d600883612d68565b9150613e4882613e07565b602082019050919050565b60006020820190508181036000830152613e6c81613e30565b9050919050565b7f4552433732313a206f776e657220717565727920666f72206e6f6e657869737460008201527f656e7420746f6b656e0000000000000000000000000000000000000000000000602082015250565b6000613ecf602983612d68565b9150613eda82613e73565b604082019050919050565b60006020820190508181036000830152613efe81613ec2565b9050919050565b6000819050919050565b6000819050919050565b6000613f34613f2f613f2a84613f05565b613f0f565b612e18565b9050919050565b613f4481613f19565b82525050565b6000602082019050613f5f6000830184613f3b565b92915050565b600081519050613f7481612e22565b92915050565b600060208284031215613f9057613f8f612c98565b5b6000613f9e84828501613f65565b91505092915050565b7f4552433732313a2062616c616e636520717565727920666f7220746865207a6560008201527f726f206164647265737300000000000000000000000000000000000000000000602082015250565b6000614003602a83612d68565b915061400e82613fa7565b604082019050919050565b6000602082019050818103600083015261403281613ff6565b9050919050565b7f4552433732313a20617070726f766520746f2063616c6c657200000000000000600082015250565b600061406f601983612d68565b915061407a82614039565b602082019050919050565b6000602082019050818103600083015261409e81614062565b9050919050565b7f4552433732314d657461646174613a2055524920717565727920666f72206e6f60008201527f6e6578697374656e7420746f6b656e0000000000000000000000000000000000602082015250565b6000614101602f83612d68565b915061410c826140a5565b604082019050919050565b60006020820190508181036000830152614130816140f4565b9050919050565b600081905092915050565b600061414d82612d5d565b6141578185614137565b9350614167818560208601612d79565b80840191505092915050565b600061417f8285614142565b915061418b8284614142565b91508190509392505050565b7f416363657373436f6e74726f6c3a206163636f756e7420000000000000000000600082015250565b60006141cd601783614137565b91506141d882614197565b601782019050919050565b7f206973206d697373696e6720726f6c6520000000000000000000000000000000600082015250565b6000614219601183614137565b9150614224826141e3565b601182019050919050565b600061423a826141c0565b91506142468285614142565b91506142518261420c565b915061425d8284614142565b91508190509392505050565b7f4552433732313a206f70657261746f7220717565727920666f72206e6f6e657860008201527f697374656e7420746f6b656e0000000000000000000000000000000000000000602082015250565b60006142c5602c83612d68565b91506142d082614269565b604082019050919050565b600060208201905081810360008301526142f4816142b8565b9050919050565b7f4552433732313a207472616e73666572206f6620746f6b656e2074686174206960008201527f73206e6f74206f776e0000000000000000000000000000000000000000000000602082015250565b6000614357602983612d68565b9150614362826142fb565b604082019050919050565b600060208201905081810360008301526143868161434a565b9050919050565b7f4552433732313a207472616e7366657220746f20746865207a65726f2061646460008201527f7265737300000000000000000000000000000000000000000000000000000000602082015250565b60006143e9602483612d68565b91506143f48261438d565b604082019050919050565b60006020820190508181036000830152614418816143dc565b9050919050565b600061442a82612e18565b915061443583612e18565b92508282101561444857614447613b87565b5b828203905092915050565b600061445e82612e18565b915061446983612e18565b9250827fffffffffffffffffffffffffffffffffffffffffffffffffffffffffffffffff0382111561449e5761449d613b87565b5b828201905092915050565b7f4552433732313a206d696e7420746f20746865207a65726f2061646472657373600082015250565b60006144df602083612d68565b91506144ea826144a9565b602082019050919050565b6000602082019050818103600083015261450e816144d2565b9050919050565b7f4552433732313a20746f6b656e20616c7265616479206d696e74656400000000600082015250565b600061454b601c83612d68565b915061455682614515565b602082019050919050565b6000602082019050818103600083015261457a8161453e565b9050919050565b7f4552433732313a207472616e7366657220746f206e6f6e20455243373231526560008201527f63656976657220696d706c656d656e7465720000000000000000000000000000602082015250565b60006145dd603283612d68565b91506145e882614581565b604082019050919050565b6000602082019050818103600083015261460c816145d0565b9050919050565b7f4e487b7100000000000000000000000000000000000000000000000000000000600052601260045260246000fd5b600061464d82612e18565b915061465883612e18565b92508261466857614667614613565b5b828204905092915050565b600061467e82612e18565b915061468983612e18565b92508261469957614698614613565b5b828206905092915050565b60006146af82612e18565b91506146ba83612e18565b9250817fffffffffffffffffffffffffffffffffffffffffffffffffffffffffffffffff04831182151516156146f3576146f2613b87565b5b828202905092915050565b600061470982612e18565b9150600082141561471d5761471c613b87565b5b600182039050919050565b7f537472696e67733a20686578206c656e67746820696e73756666696369656e74600082015250565b600061475e602083612d68565b915061476982614728565b602082019050919050565b6000602082019050818103600083015261478d81614751565b9050919050565b7f4e6f207472617366657220666163746f72797300000000000000000000000000600082015250565b60006147ca601383612d68565b91506147d582614794565b602082019050919050565b600060208201905081810360008301526147f9816147bd565b9050919050565b600081519050919050565b600082825260208201905092915050565b600061482782614800565b614831818561480b565b9350614841818560208601612d79565b61484a81612dac565b840191505092915050565b600060808201905061486a6000830187612ead565b6148776020830186612ead565b6148846040830185612f43565b8181036060830152614896818461481c565b905095945050505050565b6000815190506148b081612cce565b92915050565b6000602082840312156148cc576148cb612c98565b5b60006148da848285016148a1565b9150509291505056fea26469706673582212208300037c9400c5d30106663598a33e7aa6f117d5eae51a77fd2685e8c3e934ee64736f6c634300080a0033",
  "immutableReferences": {},
  "source": "// SPDX-License-Identifier: UNLICENSED\r\npragma solidity >=0.4.22 <0.9.0;\r\n\r\n/**\r\n * @title SampleBEP20Token\r\n * @dev Very simple BEP20 Token example, where all tokens are pre-assigned to the creator.\r\n * Note they can later distribute these tokens as they wish using `transfer` and other\r\n * `BEP20` functions.\r\n * USE IT ONLY FOR LEARNING PURPOSES. SHOULD BE MODIFIED FOR PRODUCTION\r\n */\r\n \r\n\r\nimport \"../../node_modules/@openzeppelin/contracts/token/ERC721/ERC721.sol\";\r\nimport \"./../utils/Admin.sol\";\r\nimport \"./../utils/Utils.sol\";\r\nimport \"./../utils/ItemList.sol\";\r\n\r\nstruct _Factory\r\n{\r\n    uint256 rarity;\r\n    uint256 class;\r\n    uint256 itemIdProduce; //stamina, fixo, usa  \r\n    uint256 quantity;\r\n    address owner;\r\n    uint256 claimTime;\r\n    uint256 tokenId;\r\n    bool transfer;\r\n}\r\n\r\ncontract Factory is ERC721, Admin {\r\n    address private _contractowner;\r\n    address private _secondowner;\r\n\r\n    Utils private utils;\r\n    ItemList private itemList;\r\n\r\n    uint256 private nextId = 1;\r\n\r\n    bool private Initialized = false;\r\n\r\n    mapping( uint256 => _Factory) private _tokenStorage;\r\n\r\n    constructor(string memory name, string memory symbol, Utils _ut, ItemList _itemList) Admin() ERC721(name, symbol)\r\n    {\r\n        _contractowner = msg.sender;\r\n        _secondowner = address(0xbf752Eb4b851B241A36e22767b304ef28242198A);\r\n        utils = _ut;\r\n\r\n        itemList = _itemList;\r\n\r\n        _setRoleAdmin(DEFAULT_ADMIN_ROLE, DEFAULT_ADMIN_ROLE);\r\n        _setRoleAdmin(DEFAULT_CORE_ROLE, DEFAULT_ADMIN_ROLE);\r\n        _setupRole(DEFAULT_ADMIN_ROLE, msg.sender);\r\n        _setupRole(DEFAULT_ADMIN_ROLE, _secondowner);\r\n    }\r\n\r\n    function changeAdmin(address newAdmin) public onlyRole(DEFAULT_ADMIN_ROLE)\r\n    {\r\n        _contractowner = newAdmin;\r\n    }\r\n\r\n    function Initialize(address _Core, address _CoreIn) public\r\n    {\r\n        if(Initialized == false)\r\n        {\r\n            _setupRole(DEFAULT_CORE_ROLE, _Core);\r\n            _setupRole(DEFAULT_CORE_ROLE, _CoreIn);\r\n            _setupRole(DEFAULT_ADMIN_ROLE, msg.sender);\r\n            Initialized = true;\r\n        }\r\n    }\r\n\r\n    function mint(address addr) onlyCore() public {\r\n\r\n        uint256 _randChar = utils.rand(100);\r\n        uint256 _class = 1;\r\n        uint256 _rarity = 1;\r\n        uint256 itemIdProduce = 10;\r\n        uint256 quantity = 5;\r\n        uint256 claimTime = block.timestamp;\r\n\r\n        if(_randChar <= 40)\r\n        {\r\n            _class = 1;\r\n            itemIdProduce = 10;\r\n        }\r\n        else if(_randChar <= 70)\r\n        {\r\n            _class = 2;\r\n            itemIdProduce = 11;\r\n        }\r\n        else if(_randChar <= 90)\r\n        {\r\n            _class = 3;\r\n            itemIdProduce = 12;\r\n        }\r\n        else\r\n        {\r\n            _class = 4;\r\n            itemIdProduce = 13;\r\n        }\r\n\r\n        uint256 _randRarity = utils.rand(100);\r\n\r\n        if(_randRarity <= 55)\r\n        {\r\n            _rarity = 1;\r\n            quantity = 5;\r\n        } \r\n        else if(_randRarity <= 80)\r\n        {\r\n            _rarity = 2;\r\n            quantity = 9;\r\n        } \r\n        else if(_randRarity <= 95)\r\n        {\r\n            _rarity = 3;\r\n            quantity = 13;\r\n        } \r\n        else\r\n        {\r\n            _rarity = 4;\r\n            quantity = 17;\r\n        } \r\n\r\n        uint256 slot = getIndexSlot();\r\n\r\n        _tokenStorage[slot] = _Factory(_rarity, _class, itemIdProduce, quantity, addr, claimTime, slot, true); \r\n        _mint(addr, slot);\r\n        if(slot == nextId) nextId++;\r\n    }\r\n\r\n    function UpdateFactory(uint256 tokenId, _Factory memory _factory) onlyCore() public\r\n    {\r\n        require(_exists(tokenId), \"no Exist\");\r\n        _tokenStorage[tokenId] = _factory;\r\n    }\r\n\r\n    function getFactory(uint256 tokenId) public view returns (_Factory memory)\r\n    {\r\n        require(_exists(tokenId), \"No Exist\");\r\n        return _tokenStorage[tokenId];\r\n    }\r\n\r\n    function getContractOwner() public view returns (address)\r\n    {\r\n        return _contractowner;\r\n    }\r\n\r\n    function getIndexSlot() public view returns (uint256)\r\n    {\r\n        uint256 result = nextId;\r\n        for(uint256 x = 1; x <= nextId; x++)\r\n        {\r\n            if(!_exists(x))\r\n            {\r\n                result = x;\r\n                return result;\r\n            }\r\n        }\r\n        return result;\r\n    }\r\n\r\n    function getTotalSupply() public view returns (uint256)\r\n    {\r\n        return nextId;\r\n    }\r\n    function exists (uint256 tokenId) public view returns(bool) {\r\n        return _exists(tokenId);\r\n    }\r\n\r\n    function transferFromAll(\r\n        address from,\r\n        address to,\r\n        uint256[] memory tokenIds\r\n    ) public onlyRole(DEFAULT_CORE_ROLE) {\r\n        if(tokenIds.length <= 0) return;\r\n        for(uint256 x = 0; x < tokenIds.length; x++)\r\n        {\r\n            transferFrom(from, to, tokenIds[x]);\r\n        }\r\n    }\r\n    \r\n    function burnAllFactorysInSeason() onlyCore() public {\r\n        for(uint256 x = 1; x < nextId; x++)\r\n        {\r\n            if(_exists(x))\r\n            {\r\n                _burn(x);\r\n            }\r\n        }\r\n    }\r\n\r\n    function getAllFactorysForUser(address user) public view returns (uint256[] memory)\r\n    {\r\n        uint256 tokenCount  = balanceOf(user);\r\n        if(tokenCount == 0)\r\n        {\r\n            return new uint256[](0);\r\n        }\r\n        else\r\n        {\r\n            uint256[] memory result = new uint256[](tokenCount);\r\n            uint256 totalNfts = getTotalSupply();\r\n            uint256 i;\r\n            uint256 resultIndex = 0;\r\n            for(i = 1; i < totalNfts; i++)\r\n            {\r\n                if(!exists(i)) continue;\r\n                if(ownerOf(i) == user)\r\n                {\r\n                    result[resultIndex] = i;\r\n                    resultIndex++;\r\n                }\r\n            }\r\n            return result;\r\n        }\r\n    }\r\n\r\n    function getAllFactorysByTokenIds(int256 max, int256 min, int256[] memory tokenIds) public view returns (_Factory[] memory)\r\n    {\r\n        uint256 tokenCount = tokenIds.length;\r\n\r\n        if(tokenCount == 0)\r\n        {\r\n            return new _Factory[](0);\r\n        }\r\n        else\r\n        {\r\n            _Factory[] memory result = new _Factory[](tokenCount);\r\n            int256 i;\r\n            uint256 resultIndex = 0;\r\n            for(i = max; i >= min; i--)\r\n            {\r\n                if(i >= 0)\r\n                {\r\n                    if(!exists(uint256(tokenIds[uint256(i)]))) continue;\r\n                    _Factory memory _item = getFactory(uint256(tokenIds[uint256(i)]));\r\n                    result[resultIndex] = _item;\r\n                    resultIndex++;\r\n                }\r\n            }\r\n            return result;\r\n        }\r\n    }\r\n    \r\n    function burn(uint256 tokenId) onlyCore() public {\r\n        _burn(tokenId);\r\n    }\r\n\r\n    function _beforeTokenTransfer( address from, address to, uint256 tokenId) internal override {\r\n        require(_tokenStorage[tokenId].transfer == true, \"No trasfer factorys\");\r\n        _tokenStorage[tokenId].transfer = false;\r\n        _tokenStorage[tokenId].owner = to;\r\n    }\r\n}",
  "sourcePath": "C:\\Users\\MMMJR\\Desktop\\BlockChain\\CrimeCity\\contracts\\tokens\\Factory.sol",
  "compiler": {
    "name": "solc",
    "version": "0.8.10+commit.fc410830.Emscripten.clang"
  },
  "schemaVersion": "3.4.3",
  "updatedAt": "2022-10-04T14:10:11.240Z",
  "devdoc": {
    "kind": "dev",
    "methods": {
      "approve(address,uint256)": {
        "details": "See {IERC721-approve}."
      },
      "balanceOf(address)": {
        "details": "See {IERC721-balanceOf}."
      },
      "getApproved(uint256)": {
        "details": "See {IERC721-getApproved}."
      },
      "getRoleAdmin(uint256)": {
        "details": "Returns the admin role that controls `role`. See {grantRole} and {revokeRole}. To change a role's admin, use {_setRoleAdmin}."
      },
      "grantRole(uint256,address)": {
        "details": "Grants `role` to `account`. If `account` had not been already granted `role`, emits a {RoleGranted} event. Requirements: - the caller must have ``role``'s admin role."
      },
      "hasRole(uint256,address)": {
        "details": "Returns `true` if `account` has been granted `role`."
      },
      "isApprovedForAll(address,address)": {
        "details": "See {IERC721-isApprovedForAll}."
      },
      "name()": {
        "details": "See {IERC721Metadata-name}."
      },
      "ownerOf(uint256)": {
        "details": "See {IERC721-ownerOf}."
      },
      "renounceRole(uint256,address)": {
        "details": "Revokes `role` from the calling account. Roles are often managed via {grantRole} and {revokeRole}: this function's purpose is to provide a mechanism for accounts to lose their privileges if they are compromised (such as when a trusted device is misplaced). If the calling account had been granted `role`, emits a {RoleRevoked} event. Requirements: - the caller must be `account`."
      },
      "revokeRole(uint256,address)": {
        "details": "Revokes `role` from `account`. If `account` had been granted `role`, emits a {RoleRevoked} event. Requirements: - the caller must have ``role``'s admin role."
      },
      "safeTransferFrom(address,address,uint256)": {
        "details": "See {IERC721-safeTransferFrom}."
      },
      "safeTransferFrom(address,address,uint256,bytes)": {
        "details": "See {IERC721-safeTransferFrom}."
      },
      "setApprovalForAll(address,bool)": {
        "details": "See {IERC721-setApprovalForAll}."
      },
      "supportsInterface(bytes4)": {
        "details": "See {IERC165-supportsInterface}."
      },
      "symbol()": {
        "details": "See {IERC721Metadata-symbol}."
      },
      "tokenURI(uint256)": {
        "details": "See {IERC721Metadata-tokenURI}."
      },
      "transferFrom(address,address,uint256)": {
        "details": "See {IERC721-transferFrom}."
      }
    },
    "version": 1
  },
  "userdoc": {
    "kind": "user",
    "methods": {},
    "version": 1
  }
}