{
  "contractName": "GameItem",
  "abi": [
    {
      "inputs": [
        {
          "internalType": "string",
          "name": "name",
          "type": "string"
        },
        {
          "internalType": "string",
          "name": "symbol",
          "type": "string"
        },
        {
          "internalType": "contract Utils",
          "name": "_ut",
          "type": "address"
        },
        {
          "internalType": "contract ItemList",
          "name": "_itemList",
          "type": "address"
        }
      ],
      "stateMutability": "nonpayable",
      "type": "constructor"
    },
    {
      "anonymous": false,
      "inputs": [
        {
          "indexed": true,
          "internalType": "address",
          "name": "owner",
          "type": "address"
        },
        {
          "indexed": true,
          "internalType": "address",
          "name": "approved",
          "type": "address"
        },
        {
          "indexed": true,
          "internalType": "uint256",
          "name": "tokenId",
          "type": "uint256"
        }
      ],
      "name": "Approval",
      "type": "event"
    },
    {
      "anonymous": false,
      "inputs": [
        {
          "indexed": true,
          "internalType": "address",
          "name": "owner",
          "type": "address"
        },
        {
          "indexed": true,
          "internalType": "address",
          "name": "operator",
          "type": "address"
        },
        {
          "indexed": false,
          "internalType": "bool",
          "name": "approved",
          "type": "bool"
        }
      ],
      "name": "ApprovalForAll",
      "type": "event"
    },
    {
      "anonymous": false,
      "inputs": [
        {
          "indexed": true,
          "internalType": "uint256",
          "name": "role",
          "type": "uint256"
        },
        {
          "indexed": true,
          "internalType": "uint256",
          "name": "previousAdminRole",
          "type": "uint256"
        },
        {
          "indexed": true,
          "internalType": "uint256",
          "name": "newAdminRole",
          "type": "uint256"
        }
      ],
      "name": "RoleAdminChanged",
      "type": "event"
    },
    {
      "anonymous": false,
      "inputs": [
        {
          "indexed": true,
          "internalType": "uint256",
          "name": "role",
          "type": "uint256"
        },
        {
          "indexed": true,
          "internalType": "address",
          "name": "account",
          "type": "address"
        },
        {
          "indexed": true,
          "internalType": "address",
          "name": "sender",
          "type": "address"
        }
      ],
      "name": "RoleGranted",
      "type": "event"
    },
    {
      "anonymous": false,
      "inputs": [
        {
          "indexed": true,
          "internalType": "uint256",
          "name": "role",
          "type": "uint256"
        },
        {
          "indexed": true,
          "internalType": "address",
          "name": "account",
          "type": "address"
        },
        {
          "indexed": true,
          "internalType": "address",
          "name": "sender",
          "type": "address"
        }
      ],
      "name": "RoleRevoked",
      "type": "event"
    },
    {
      "anonymous": false,
      "inputs": [
        {
          "indexed": true,
          "internalType": "address",
          "name": "from",
          "type": "address"
        },
        {
          "indexed": true,
          "internalType": "address",
          "name": "to",
          "type": "address"
        },
        {
          "indexed": true,
          "internalType": "uint256",
          "name": "tokenId",
          "type": "uint256"
        }
      ],
      "name": "Transfer",
      "type": "event"
    },
    {
      "inputs": [],
      "name": "DEFAULT_ADMIN_ROLE",
      "outputs": [
        {
          "internalType": "uint256",
          "name": "",
          "type": "uint256"
        }
      ],
      "stateMutability": "view",
      "type": "function"
    },
    {
      "inputs": [],
      "name": "DEFAULT_CORE_ROLE",
      "outputs": [
        {
          "internalType": "uint256",
          "name": "",
          "type": "uint256"
        }
      ],
      "stateMutability": "view",
      "type": "function"
    },
    {
      "inputs": [
        {
          "internalType": "address",
          "name": "to",
          "type": "address"
        },
        {
          "internalType": "uint256",
          "name": "tokenId",
          "type": "uint256"
        }
      ],
      "name": "approve",
      "outputs": [],
      "stateMutability": "nonpayable",
      "type": "function"
    },
    {
      "inputs": [
        {
          "internalType": "address",
          "name": "owner",
          "type": "address"
        }
      ],
      "name": "balanceOf",
      "outputs": [
        {
          "internalType": "uint256",
          "name": "",
          "type": "uint256"
        }
      ],
      "stateMutability": "view",
      "type": "function"
    },
    {
      "inputs": [
        {
          "internalType": "uint256",
          "name": "tokenId",
          "type": "uint256"
        }
      ],
      "name": "getApproved",
      "outputs": [
        {
          "internalType": "address",
          "name": "",
          "type": "address"
        }
      ],
      "stateMutability": "view",
      "type": "function"
    },
    {
      "inputs": [
        {
          "internalType": "uint256",
          "name": "role",
          "type": "uint256"
        }
      ],
      "name": "getRoleAdmin",
      "outputs": [
        {
          "internalType": "uint256",
          "name": "",
          "type": "uint256"
        }
      ],
      "stateMutability": "view",
      "type": "function"
    },
    {
      "inputs": [
        {
          "internalType": "uint256",
          "name": "role",
          "type": "uint256"
        },
        {
          "internalType": "address",
          "name": "account",
          "type": "address"
        }
      ],
      "name": "grantRole",
      "outputs": [],
      "stateMutability": "nonpayable",
      "type": "function"
    },
    {
      "inputs": [
        {
          "internalType": "uint256",
          "name": "role",
          "type": "uint256"
        },
        {
          "internalType": "address",
          "name": "account",
          "type": "address"
        }
      ],
      "name": "hasRole",
      "outputs": [
        {
          "internalType": "bool",
          "name": "",
          "type": "bool"
        }
      ],
      "stateMutability": "view",
      "type": "function"
    },
    {
      "inputs": [
        {
          "internalType": "address",
          "name": "owner",
          "type": "address"
        },
        {
          "internalType": "address",
          "name": "operator",
          "type": "address"
        }
      ],
      "name": "isApprovedForAll",
      "outputs": [
        {
          "internalType": "bool",
          "name": "",
          "type": "bool"
        }
      ],
      "stateMutability": "view",
      "type": "function"
    },
    {
      "inputs": [],
      "name": "name",
      "outputs": [
        {
          "internalType": "string",
          "name": "",
          "type": "string"
        }
      ],
      "stateMutability": "view",
      "type": "function"
    },
    {
      "inputs": [
        {
          "internalType": "uint256",
          "name": "tokenId",
          "type": "uint256"
        }
      ],
      "name": "ownerOf",
      "outputs": [
        {
          "internalType": "address",
          "name": "",
          "type": "address"
        }
      ],
      "stateMutability": "view",
      "type": "function"
    },
    {
      "inputs": [
        {
          "internalType": "uint256",
          "name": "role",
          "type": "uint256"
        },
        {
          "internalType": "address",
          "name": "account",
          "type": "address"
        }
      ],
      "name": "renounceRole",
      "outputs": [],
      "stateMutability": "nonpayable",
      "type": "function"
    },
    {
      "inputs": [
        {
          "internalType": "uint256",
          "name": "role",
          "type": "uint256"
        },
        {
          "internalType": "address",
          "name": "account",
          "type": "address"
        }
      ],
      "name": "revokeRole",
      "outputs": [],
      "stateMutability": "nonpayable",
      "type": "function"
    },
    {
      "inputs": [
        {
          "internalType": "address",
          "name": "from",
          "type": "address"
        },
        {
          "internalType": "address",
          "name": "to",
          "type": "address"
        },
        {
          "internalType": "uint256",
          "name": "tokenId",
          "type": "uint256"
        }
      ],
      "name": "safeTransferFrom",
      "outputs": [],
      "stateMutability": "nonpayable",
      "type": "function"
    },
    {
      "inputs": [
        {
          "internalType": "address",
          "name": "from",
          "type": "address"
        },
        {
          "internalType": "address",
          "name": "to",
          "type": "address"
        },
        {
          "internalType": "uint256",
          "name": "tokenId",
          "type": "uint256"
        },
        {
          "internalType": "bytes",
          "name": "_data",
          "type": "bytes"
        }
      ],
      "name": "safeTransferFrom",
      "outputs": [],
      "stateMutability": "nonpayable",
      "type": "function"
    },
    {
      "inputs": [
        {
          "internalType": "address",
          "name": "operator",
          "type": "address"
        },
        {
          "internalType": "bool",
          "name": "approved",
          "type": "bool"
        }
      ],
      "name": "setApprovalForAll",
      "outputs": [],
      "stateMutability": "nonpayable",
      "type": "function"
    },
    {
      "inputs": [
        {
          "internalType": "bytes4",
          "name": "interfaceId",
          "type": "bytes4"
        }
      ],
      "name": "supportsInterface",
      "outputs": [
        {
          "internalType": "bool",
          "name": "",
          "type": "bool"
        }
      ],
      "stateMutability": "view",
      "type": "function"
    },
    {
      "inputs": [],
      "name": "symbol",
      "outputs": [
        {
          "internalType": "string",
          "name": "",
          "type": "string"
        }
      ],
      "stateMutability": "view",
      "type": "function"
    },
    {
      "inputs": [
        {
          "internalType": "uint256",
          "name": "tokenId",
          "type": "uint256"
        }
      ],
      "name": "tokenURI",
      "outputs": [
        {
          "internalType": "string",
          "name": "",
          "type": "string"
        }
      ],
      "stateMutability": "view",
      "type": "function"
    },
    {
      "inputs": [
        {
          "internalType": "address",
          "name": "from",
          "type": "address"
        },
        {
          "internalType": "address",
          "name": "to",
          "type": "address"
        },
        {
          "internalType": "uint256",
          "name": "tokenId",
          "type": "uint256"
        }
      ],
      "name": "transferFrom",
      "outputs": [],
      "stateMutability": "nonpayable",
      "type": "function"
    },
    {
      "inputs": [
        {
          "internalType": "address",
          "name": "newAdmin",
          "type": "address"
        }
      ],
      "name": "changeAdmin",
      "outputs": [],
      "stateMutability": "nonpayable",
      "type": "function"
    },
    {
      "inputs": [
        {
          "internalType": "address",
          "name": "_characterUtils",
          "type": "address"
        },
        {
          "internalType": "address",
          "name": "_Core",
          "type": "address"
        },
        {
          "internalType": "address",
          "name": "_CoreIn",
          "type": "address"
        },
        {
          "internalType": "address",
          "name": "_Robbery",
          "type": "address"
        },
        {
          "internalType": "address",
          "name": "_PvP",
          "type": "address"
        },
        {
          "internalType": "address",
          "name": "_Equipment",
          "type": "address"
        },
        {
          "internalType": "address",
          "name": "_HospitalPrice",
          "type": "address"
        },
        {
          "internalType": "address",
          "name": "_BlackMarket",
          "type": "address"
        }
      ],
      "name": "Initialize",
      "outputs": [],
      "stateMutability": "nonpayable",
      "type": "function"
    },
    {
      "inputs": [
        {
          "internalType": "uint256",
          "name": "tokenId",
          "type": "uint256"
        }
      ],
      "name": "getGameItem",
      "outputs": [
        {
          "components": [
            {
              "internalType": "string",
              "name": "name",
              "type": "string"
            },
            {
              "internalType": "uint256",
              "name": "rarity",
              "type": "uint256"
            },
            {
              "internalType": "uint256",
              "name": "img",
              "type": "uint256"
            },
            {
              "internalType": "uint256",
              "name": "powerBonus",
              "type": "uint256"
            },
            {
              "internalType": "uint256",
              "name": "strBonus",
              "type": "uint256"
            },
            {
              "internalType": "uint256",
              "name": "intBonus",
              "type": "uint256"
            },
            {
              "internalType": "uint256",
              "name": "chaBonus",
              "type": "uint256"
            },
            {
              "internalType": "uint256",
              "name": "resBonus",
              "type": "uint256"
            },
            {
              "internalType": "address",
              "name": "owner",
              "type": "address"
            },
            {
              "internalType": "uint256",
              "name": "itemId",
              "type": "uint256"
            },
            {
              "internalType": "uint256",
              "name": "tokenId",
              "type": "uint256"
            },
            {
              "internalType": "bool",
              "name": "equiped",
              "type": "bool"
            },
            {
              "internalType": "uint256",
              "name": "equipedTime",
              "type": "uint256"
            }
          ],
          "internalType": "struct _GameItem",
          "name": "",
          "type": "tuple"
        }
      ],
      "stateMutability": "view",
      "type": "function"
    },
    {
      "inputs": [
        {
          "internalType": "uint256",
          "name": "tokenId",
          "type": "uint256"
        },
        {
          "components": [
            {
              "internalType": "string",
              "name": "name",
              "type": "string"
            },
            {
              "internalType": "uint256",
              "name": "rarity",
              "type": "uint256"
            },
            {
              "internalType": "uint256",
              "name": "img",
              "type": "uint256"
            },
            {
              "internalType": "uint256",
              "name": "powerBonus",
              "type": "uint256"
            },
            {
              "internalType": "uint256",
              "name": "strBonus",
              "type": "uint256"
            },
            {
              "internalType": "uint256",
              "name": "intBonus",
              "type": "uint256"
            },
            {
              "internalType": "uint256",
              "name": "chaBonus",
              "type": "uint256"
            },
            {
              "internalType": "uint256",
              "name": "resBonus",
              "type": "uint256"
            },
            {
              "internalType": "address",
              "name": "owner",
              "type": "address"
            },
            {
              "internalType": "uint256",
              "name": "itemId",
              "type": "uint256"
            },
            {
              "internalType": "uint256",
              "name": "tokenId",
              "type": "uint256"
            },
            {
              "internalType": "bool",
              "name": "equiped",
              "type": "bool"
            },
            {
              "internalType": "uint256",
              "name": "equipedTime",
              "type": "uint256"
            }
          ],
          "internalType": "struct _GameItem",
          "name": "_item",
          "type": "tuple"
        }
      ],
      "name": "UpdateGameItem",
      "outputs": [],
      "stateMutability": "nonpayable",
      "type": "function"
    },
    {
      "inputs": [
        {
          "internalType": "uint256",
          "name": "tokenId",
          "type": "uint256"
        }
      ],
      "name": "getItemListData",
      "outputs": [
        {
          "components": [
            {
              "internalType": "string",
              "name": "name",
              "type": "string"
            },
            {
              "internalType": "uint256",
              "name": "img",
              "type": "uint256"
            },
            {
              "internalType": "uint256",
              "name": "powerBonus",
              "type": "uint256"
            },
            {
              "internalType": "uint256",
              "name": "strBonus",
              "type": "uint256"
            },
            {
              "internalType": "uint256",
              "name": "intBonus",
              "type": "uint256"
            },
            {
              "internalType": "uint256",
              "name": "chaBonus",
              "type": "uint256"
            },
            {
              "internalType": "uint256",
              "name": "resBonus",
              "type": "uint256"
            },
            {
              "internalType": "uint256",
              "name": "price",
              "type": "uint256"
            },
            {
              "internalType": "bool",
              "name": "canMint",
              "type": "bool"
            }
          ],
          "internalType": "struct _ItemList",
          "name": "",
          "type": "tuple"
        }
      ],
      "stateMutability": "view",
      "type": "function"
    },
    {
      "inputs": [],
      "name": "getContractOwner",
      "outputs": [
        {
          "internalType": "address",
          "name": "",
          "type": "address"
        }
      ],
      "stateMutability": "view",
      "type": "function"
    },
    {
      "inputs": [],
      "name": "getIndexSlot",
      "outputs": [
        {
          "internalType": "uint256",
          "name": "",
          "type": "uint256"
        }
      ],
      "stateMutability": "view",
      "type": "function"
    },
    {
      "inputs": [],
      "name": "getTotalSupply",
      "outputs": [
        {
          "internalType": "uint256",
          "name": "",
          "type": "uint256"
        }
      ],
      "stateMutability": "view",
      "type": "function"
    },
    {
      "inputs": [
        {
          "internalType": "uint256",
          "name": "tokenId",
          "type": "uint256"
        }
      ],
      "name": "exists",
      "outputs": [
        {
          "internalType": "bool",
          "name": "",
          "type": "bool"
        }
      ],
      "stateMutability": "view",
      "type": "function"
    },
    {
      "inputs": [
        {
          "internalType": "uint256",
          "name": "tokenId",
          "type": "uint256"
        }
      ],
      "name": "checkItemIsEquiped",
      "outputs": [
        {
          "internalType": "bool",
          "name": "",
          "type": "bool"
        }
      ],
      "stateMutability": "view",
      "type": "function"
    },
    {
      "inputs": [
        {
          "internalType": "uint256",
          "name": "itemId",
          "type": "uint256"
        }
      ],
      "name": "checkItemListCanMint",
      "outputs": [
        {
          "internalType": "bool",
          "name": "",
          "type": "bool"
        }
      ],
      "stateMutability": "view",
      "type": "function"
    },
    {
      "inputs": [
        {
          "internalType": "uint256",
          "name": "itemId",
          "type": "uint256"
        }
      ],
      "name": "checkWeaponList",
      "outputs": [
        {
          "internalType": "bool",
          "name": "",
          "type": "bool"
        }
      ],
      "stateMutability": "view",
      "type": "function"
    },
    {
      "inputs": [
        {
          "internalType": "uint256",
          "name": "itemId",
          "type": "uint256"
        }
      ],
      "name": "getItemPrice",
      "outputs": [
        {
          "internalType": "uint256",
          "name": "",
          "type": "uint256"
        }
      ],
      "stateMutability": "view",
      "type": "function"
    },
    {
      "inputs": [
        {
          "internalType": "address",
          "name": "addr",
          "type": "address"
        },
        {
          "internalType": "uint256",
          "name": "itemId",
          "type": "uint256"
        }
      ],
      "name": "mint",
      "outputs": [],
      "stateMutability": "nonpayable",
      "type": "function"
    },
    {
      "inputs": [
        {
          "internalType": "address",
          "name": "from",
          "type": "address"
        },
        {
          "internalType": "address",
          "name": "to",
          "type": "address"
        },
        {
          "internalType": "uint256[]",
          "name": "tokenIds",
          "type": "uint256[]"
        }
      ],
      "name": "transferFromAll",
      "outputs": [],
      "stateMutability": "nonpayable",
      "type": "function"
    },
    {
      "inputs": [],
      "name": "burnAllItemsInSeason",
      "outputs": [],
      "stateMutability": "nonpayable",
      "type": "function"
    },
    {
      "inputs": [
        {
          "internalType": "uint256",
          "name": "tokenId",
          "type": "uint256"
        }
      ],
      "name": "burn",
      "outputs": [],
      "stateMutability": "nonpayable",
      "type": "function"
    },
    {
      "inputs": [
        {
          "internalType": "uint256[]",
          "name": "tokenIds",
          "type": "uint256[]"
        }
      ],
      "name": "burnItems",
      "outputs": [],
      "stateMutability": "nonpayable",
      "type": "function"
    }
  ],
  "bytecode": "0x608060405260006009556001600c556000600d60006101000a81548160ff0219169083151502179055503480156200003657600080fd5b50604051620060ab380380620060ab83398181016040528101906200005c91906200072d565b838381600090805190602001906200007692919062000422565b5080600190805190602001906200008f92919062000422565b50505033600760006101000a81548173ffffffffffffffffffffffffffffffffffffffff021916908373ffffffffffffffffffffffffffffffffffffffff16021790555073bf752eb4b851b241a36e22767b304ef28242198a600860006101000a81548173ffffffffffffffffffffffffffffffffffffffff021916908373ffffffffffffffffffffffffffffffffffffffff16021790555081600a60006101000a81548173ffffffffffffffffffffffffffffffffffffffff021916908373ffffffffffffffffffffffffffffffffffffffff16021790555080600b60006101000a81548173ffffffffffffffffffffffffffffffffffffffff021916908373ffffffffffffffffffffffffffffffffffffffff160217905550620001bd601e806200022360201b60201c565b620001d1601f601e6200022360201b60201c565b620001e4601e336200028760201b60201c565b62000219601e600860009054906101000a900473ffffffffffffffffffffffffffffffffffffffff166200028760201b60201c565b5050505062000842565b600062000236836200029d60201b60201c565b90508160066000858152602001908152602001600020600101819055508181847f6620dedee755c284a7e221a3279487b734830c1f76c026c797b4d019c6b4b2f460405160405180910390a4505050565b620002998282620002bd60201b60201c565b5050565b600060066000838152602001908152602001600020600101549050919050565b620002cf8282620003af60201b60201c565b620003ab5760016006600084815260200190815260200160002060000160008373ffffffffffffffffffffffffffffffffffffffff1673ffffffffffffffffffffffffffffffffffffffff16815260200190815260200160002060006101000a81548160ff021916908315150217905550620003506200041a60201b60201c565b73ffffffffffffffffffffffffffffffffffffffff168173ffffffffffffffffffffffffffffffffffffffff16837f1ec1667fba5e43c5c76fff54e76d7a4a20a4fecf7b49724ad8d52a3f726e9dbd60405160405180910390a45b5050565b60006006600084815260200190815260200160002060000160008373ffffffffffffffffffffffffffffffffffffffff1673ffffffffffffffffffffffffffffffffffffffff16815260200190815260200160002060009054906101000a900460ff16905092915050565b600033905090565b82805462000430906200080c565b90600052602060002090601f016020900481019282620004545760008555620004a0565b82601f106200046f57805160ff1916838001178555620004a0565b82800160010185558215620004a0579182015b828111156200049f57825182559160200191906001019062000482565b5b509050620004af9190620004b3565b5090565b5b80821115620004ce576000816000905550600101620004b4565b5090565b6000604051905090565b600080fd5b600080fd5b600080fd5b600080fd5b6000601f19601f8301169050919050565b7f4e487b7100000000000000000000000000000000000000000000000000000000600052604160045260246000fd5b6200053b82620004f0565b810181811067ffffffffffffffff821117156200055d576200055c62000501565b5b80604052505050565b600062000572620004d2565b905062000580828262000530565b919050565b600067ffffffffffffffff821115620005a357620005a262000501565b5b620005ae82620004f0565b9050602081019050919050565b60005b83811015620005db578082015181840152602081019050620005be565b83811115620005eb576000848401525b50505050565b600062000608620006028462000585565b62000566565b905082815260208101848484011115620006275762000626620004eb565b5b62000634848285620005bb565b509392505050565b600082601f830112620006545762000653620004e6565b5b815162000666848260208601620005f1565b91505092915050565b600073ffffffffffffffffffffffffffffffffffffffff82169050919050565b60006200069c826200066f565b9050919050565b6000620006b0826200068f565b9050919050565b620006c281620006a3565b8114620006ce57600080fd5b50565b600081519050620006e281620006b7565b92915050565b6000620006f5826200068f565b9050919050565b6200070781620006e8565b81146200071357600080fd5b50565b6000815190506200072781620006fc565b92915050565b600080600080608085870312156200074a5762000749620004dc565b5b600085015167ffffffffffffffff8111156200076b576200076a620004e1565b5b62000779878288016200063c565b945050602085015167ffffffffffffffff8111156200079d576200079c620004e1565b5b620007ab878288016200063c565b9350506040620007be87828801620006d1565b9250506060620007d18782880162000716565b91505092959194509250565b7f4e487b7100000000000000000000000000000000000000000000000000000000600052602260045260246000fd5b600060028204905060018216806200082557607f821691505b602082108114156200083c576200083b620007dd565b5b50919050565b61585980620008526000396000f3fe608060405234801561001057600080fd5b50600436106102325760003560e01c80636352211e11610130578063a22cb465116100b8578063ec2606c01161007c578063ec2606c0146106bf578063f7e23738146106ef578063f8973b9a1461070b578063fb2990ad14610727578063fc53c21a1461075757610232565b8063a22cb46514610609578063b88d4fde14610625578063c4e41b2214610641578063c87b56dd1461065f578063e985e9c51461068f57610232565b80637ee82bee116100ff5780637ee82bee146105655780638f2839701461058157806394f13f4a1461059d57806395d89b41146105cd578063a217fddf146105eb57610232565b80636352211e146104cb5780636e470953146104fb5780636f45e4e51461051757806370a082311461053557610232565b8063399bab9c116101be578063442890d511610182578063442890d5146103ed5780634c4df8701461040b5780634f558e791461043b5780635c8ced3c1461046b57806360502d191461049b57610232565b8063399bab9c1461035f57806340c10f191461036957806342842e0e1461038557806342966c68146103a157806343c03617146103bd57610232565b80631ae4a969116102055780631ae4a969146102d15780631d0b19e7146102ef5780631fe5f5891461030b5780632308d2361461032757806323b872dd1461034357610232565b806301ffc9a71461023757806306fdde0314610267578063081812fc14610285578063095ea7b3146102b5575b600080fd5b610251600480360381019061024c91906138f5565b610787565b60405161025e919061393d565b60405180910390f35b61026f610869565b60405161027c91906139f1565b60405180910390f35b61029f600480360381019061029a9190613a49565b6108fb565b6040516102ac9190613ab7565b60405180910390f35b6102cf60048036038101906102ca9190613afe565b610980565b005b6102d9610a98565b6040516102e69190613b4d565b60405180910390f35b61030960048036038101906103049190613b68565b610ae6565b005b61032560048036038101906103209190613b68565b610b0f565b005b610341600480360381019061033c9190613b68565b610b38565b005b61035d60048036038101906103589190613ba8565b610bbb565b005b610367610c1b565b005b610383600480360381019061037e9190613afe565b610c6c565b005b61039f600480360381019061039a9190613ba8565b611472565b005b6103bb60048036038101906103b69190613a49565b611492565b005b6103d760048036038101906103d29190613a49565b6114b0565b6040516103e4919061393d565b60405180910390f35b6103f5611630565b6040516104029190613ab7565b60405180910390f35b61042560048036038101906104209190613a49565b61165a565b6040516104329190613b4d565b60405180910390f35b61045560048036038101906104509190613a49565b6117e9565b604051610462919061393d565b60405180910390f35b61048560048036038101906104809190613a49565b6117fb565b6040516104929190613d28565b60405180910390f35b6104b560048036038101906104b09190613a49565b6119ea565b6040516104c2919061393d565b60405180910390f35b6104e560048036038101906104e09190613a49565b611a17565b6040516104f29190613ab7565b60405180910390f35b61051560048036038101906105109190614009565b611ac9565b005b61051f611c2b565b60405161052c9190613b4d565b60405180910390f35b61054f600480360381019061054a9190614065565b611c30565b60405161055c9190613b4d565b60405180910390f35b61057f600480360381019061057a919061415a565b611ce8565b005b61059b60048036038101906105969190614065565b611d55565b005b6105b760048036038101906105b29190613a49565b611dad565b6040516105c491906142f1565b60405180910390f35b6105d5611f8a565b6040516105e291906139f1565b60405180910390f35b6105f361201c565b6040516106009190613b4d565b60405180910390f35b610623600480360381019061061e9190614313565b612021565b005b61063f600480360381019061063a91906143f4565b6121a2565b005b610649612204565b6040516106569190613b4d565b60405180910390f35b61067960048036038101906106749190613a49565b61220e565b60405161068691906139f1565b60405180910390f35b6106a960048036038101906106a49190614477565b6122b5565b6040516106b6919061393d565b60405180910390f35b6106d960048036038101906106d49190613b68565b612349565b6040516106e6919061393d565b60405180910390f35b610709600480360381019061070491906144b7565b6123b4565b005b61072560048036038101906107209190614500565b61240c565b005b610741600480360381019061073c9190613a49565b6124b1565b60405161074e9190613b4d565b60405180910390f35b610771600480360381019061076c9190613a49565b6124d1565b60405161077e919061393d565b60405180910390f35b60007f80ac58cd000000000000000000000000000000000000000000000000000000007bffffffffffffffffffffffffffffffffffffffffffffffffffffffff1916827bffffffffffffffffffffffffffffffffffffffffffffffffffffffff1916148061085257507f5b5e139f000000000000000000000000000000000000000000000000000000007bffffffffffffffffffffffffffffffffffffffffffffffffffffffff1916827bffffffffffffffffffffffffffffffffffffffffffffffffffffffff1916145b8061086257506108618261269a565b5b9050919050565b606060008054610878906145e5565b80601f01602080910402602001604051908101604052809291908181526020018280546108a4906145e5565b80156108f15780601f106108c6576101008083540402835291602001916108f1565b820191906000526020600020905b8154815290600101906020018083116108d457829003601f168201915b5050505050905090565b600061090682612704565b610945576040517f08c379a000000000000000000000000000000000000000000000000000000000815260040161093c90614689565b60405180910390fd5b6004600083815260200190815260200160002060009054906101000a900473ffffffffffffffffffffffffffffffffffffffff169050919050565b600061098b82611a17565b90508073ffffffffffffffffffffffffffffffffffffffff168373ffffffffffffffffffffffffffffffffffffffff1614156109fc576040517f08c379a00000000000000000000000000000000000000000000000000000000081526004016109f39061471b565b60405180910390fd5b8073ffffffffffffffffffffffffffffffffffffffff16610a1b612770565b73ffffffffffffffffffffffffffffffffffffffff161480610a4a5750610a4981610a44612770565b6122b5565b5b610a89576040517f08c379a0000000000000000000000000000000000000000000000000000000008152600401610a80906147ad565b60405180910390fd5b610a938383612778565b505050565b600080600c5490506000600190505b600c548111610add57610ab981612704565b610aca578091508192505050610ae3565b8080610ad5906147fc565b915050610aa7565b50809150505b90565b610aef826124b1565b610b0081610afb612770565b612831565b610b0a83836128cb565b505050565b610b18826124b1565b610b2981610b24612770565b612831565b610b3383836129ad565b505050565b610b40612770565b73ffffffffffffffffffffffffffffffffffffffff168173ffffffffffffffffffffffffffffffffffffffff1614610bad576040517f08c379a0000000000000000000000000000000000000000000000000000000008152600401610ba4906148b7565b60405180910390fd5b610bb782826128cb565b5050565b610bcc610bc6612770565b82612a8e565b610c0b576040517f08c379a0000000000000000000000000000000000000000000000000000000008152600401610c0290614949565b60405180910390fd5b610c16838383612b6c565b505050565b610c2d601f610c28612770565b612831565b6000600190505b600c54811015610c6957610c4781612704565b15610c5657610c5581612dc8565b5b8080610c61906147fc565b915050610c34565b50565b610c7e601f610c79612770565b612831565b600b60009054906101000a900473ffffffffffffffffffffffffffffffffffffffff1673ffffffffffffffffffffffffffffffffffffffff1663101a8f79826040518263ffffffff1660e01b8152600401610cd99190613b4d565b602060405180830381865afa158015610cf6573d6000803e3d6000fd5b505050506040513d601f19601f82011682018060405250810190610d1a919061497e565b610d59576040517f08c379a0000000000000000000000000000000000000000000000000000000008152600401610d50906149f7565b60405180910390fd5b6000600b60009054906101000a900473ffffffffffffffffffffffffffffffffffffffff1673ffffffffffffffffffffffffffffffffffffffff16635c8ced3c836040518263ffffffff1660e01b8152600401610db69190613b4d565b600060405180830381865afa158015610dd3573d6000803e3d6000fd5b505050506040513d6000823e3d601f19601f82011682018060405250810190610dfc9190614b98565b905060008160400151905060006001905060008360600151905060008460800151905060008560a00151905060008660c001519050610e3a886124d1565b156112b0576000600a60009054906101000a900473ffffffffffffffffffffffffffffffffffffffff1673ffffffffffffffffffffffffffffffffffffffff16632530c90560646040518263ffffffff1660e01b8152600401610e9d9190614c26565b6020604051808303816000875af1158015610ebc573d6000803e3d6000fd5b505050506040513d601f19601f82011682018060405250810190610ee09190614c41565b905060378111610ef35760019550610f1c565b60508111610f045760029550610f1b565b605f8111610f155760039550610f1a565b600495505b5b5b6000600190506000600a60009054906101000a900473ffffffffffffffffffffffffffffffffffffffff1673ffffffffffffffffffffffffffffffffffffffff16632530c90560646040518263ffffffff1660e01b8152600401610f809190614c26565b6020604051808303816000875af1158015610f9f573d6000803e3d6000fd5b505050506040513d601f19601f82011682018060405250810190610fc39190614c41565b905060198111610fd65760019150610fff565b60328111610fe75760029150610ffe565b604b8111610ff85760039150610ffd565b600491505b5b5b600288141561109857606460148a6110179190614c6e565b6110219190614cf7565b8961102c9190614d28565b9850600182141561104a578680611042906147fc565b975050611093565b600282141561106657858061105e906147fc565b965050611092565b600382141561108257848061107a906147fc565b955050611091565b838061108d906147fc565b9450505b5b5b6112ac565b60038814156111d9576064602d8a6110b09190614c6e565b6110ba9190614cf7565b896110c59190614d28565b9850600182141561110d5786806110db906147fc565b97505086806110e9906147fc565b97505085806110f7906147fc565b9650508480611105906147fc565b9550506111d4565b6002821415611153578580611121906147fc565b965050858061112f906147fc565b965050848061113d906147fc565b955050838061114b906147fc565b9450506111d3565b6003821415611199578480611167906147fc565b9550508480611175906147fc565b9550508380611183906147fc565b9450508680611191906147fc565b9750506111d2565b83806111a4906147fc565b94505083806111b2906147fc565b94505086806111c0906147fc565b97505085806111ce906147fc565b9650505b5b5b6112ab565b60048814156112aa576064604b8a6111f19190614c6e565b6111fb9190614cf7565b896112069190614d28565b98506003876112159190614d28565b96506003866112249190614d28565b95506003856112339190614d28565b94506003846112429190614d28565b93506001821415611260578680611258906147fc565b9750506112a9565b600282141561127c578580611274906147fc565b9650506112a8565b6003821415611298578480611290906147fc565b9550506112a7565b83806112a3906147fc565b9450505b5b5b5b5b5b5050505b60006112ba610a98565b9050604051806101a0016040528089600001518152602001878152602001896020015181526020018881526020018681526020018581526020018481526020018381526020018b73ffffffffffffffffffffffffffffffffffffffff1681526020018a81526020018281526020016000151581526020016000815250600e60008381526020019081526020016000206000820151816000019080519060200190611365929190613718565b506020820151816001015560408201518160020155606082015181600301556080820151816004015560a0820151816005015560c0820151816006015560e082015181600701556101008201518160080160006101000a81548173ffffffffffffffffffffffffffffffffffffffff021916908373ffffffffffffffffffffffffffffffffffffffff160217905550610120820151816009015561014082015181600a015561016082015181600b0160006101000a81548160ff02191690831515021790555061018082015181600c01559050506114438a82612ed9565b600c5481141561146657600c6000815480929190611460906147fc565b91905055505b50505050505050505050565b61148d838383604051806020016040528060008152506121a2565b505050565b6114a4601f61149f612770565b612831565b6114ad81612dc8565b50565b6000600b60009054906101000a900473ffffffffffffffffffffffffffffffffffffffff1673ffffffffffffffffffffffffffffffffffffffff1663101a8f79836040518263ffffffff1660e01b815260040161150d9190613b4d565b602060405180830381865afa15801561152a573d6000803e3d6000fd5b505050506040513d601f19601f8201168201806040525081019061154e919061497e565b61158d576040517f08c379a0000000000000000000000000000000000000000000000000000000008152600401611584906149f7565b60405180910390fd5b600b60009054906101000a900473ffffffffffffffffffffffffffffffffffffffff1673ffffffffffffffffffffffffffffffffffffffff1663c57653bf836040518263ffffffff1660e01b81526004016115e89190613b4d565b602060405180830381865afa158015611605573d6000803e3d6000fd5b505050506040513d601f19601f82011682018060405250810190611629919061497e565b9050919050565b6000600760009054906101000a900473ffffffffffffffffffffffffffffffffffffffff16905090565b6000600b60009054906101000a900473ffffffffffffffffffffffffffffffffffffffff1673ffffffffffffffffffffffffffffffffffffffff1663101a8f79836040518263ffffffff1660e01b81526004016116b79190613b4d565b602060405180830381865afa1580156116d4573d6000803e3d6000fd5b505050506040513d601f19601f820116820180604052508101906116f8919061497e565b611737576040517f08c379a000000000000000000000000000000000000000000000000000000000815260040161172e906149f7565b60405180910390fd5b6000600b60009054906101000a900473ffffffffffffffffffffffffffffffffffffffff1673ffffffffffffffffffffffffffffffffffffffff16635c8ced3c846040518263ffffffff1660e01b81526004016117949190613b4d565b600060405180830381865afa1580156117b1573d6000803e3d6000fd5b505050506040513d6000823e3d601f19601f820116820180604052508101906117da9190614b98565b90508060e00151915050919050565b60006117f482612704565b9050919050565b61180361379e565b61180c82612704565b61184b576040517f08c379a000000000000000000000000000000000000000000000000000000000815260040161184290614dca565b60405180910390fd5b6000600e6000848152602001908152602001600020600901549050600b60009054906101000a900473ffffffffffffffffffffffffffffffffffffffff1673ffffffffffffffffffffffffffffffffffffffff1663101a8f79826040518263ffffffff1660e01b81526004016118c19190613b4d565b602060405180830381865afa1580156118de573d6000803e3d6000fd5b505050506040513d601f19601f82011682018060405250810190611902919061497e565b611941576040517f08c379a0000000000000000000000000000000000000000000000000000000008152600401611938906149f7565b60405180910390fd5b600b60009054906101000a900473ffffffffffffffffffffffffffffffffffffffff1673ffffffffffffffffffffffffffffffffffffffff16635c8ced3c826040518263ffffffff1660e01b815260040161199c9190613b4d565b600060405180830381865afa1580156119b9573d6000803e3d6000fd5b505050506040513d6000823e3d601f19601f820116820180604052508101906119e29190614b98565b915050919050565b6000600e6000838152602001908152602001600020600b0160009054906101000a900460ff169050919050565b6000806002600084815260200190815260200160002060009054906101000a900473ffffffffffffffffffffffffffffffffffffffff169050600073ffffffffffffffffffffffffffffffffffffffff168173ffffffffffffffffffffffffffffffffffffffff161415611ac0576040517f08c379a0000000000000000000000000000000000000000000000000000000008152600401611ab790614e5c565b60405180910390fd5b80915050919050565b611adb601f611ad6612770565b612831565b611ae482612704565b611b23576040517f08c379a0000000000000000000000000000000000000000000000000000000008152600401611b1a90614ec8565b60405180910390fd5b80600e60008481526020019081526020016000206000820151816000019080519060200190611b53929190613718565b506020820151816001015560408201518160020155606082015181600301556080820151816004015560a0820151816005015560c0820151816006015560e082015181600701556101008201518160080160006101000a81548173ffffffffffffffffffffffffffffffffffffffff021916908373ffffffffffffffffffffffffffffffffffffffff160217905550610120820151816009015561014082015181600a015561016082015181600b0160006101000a81548160ff02191690831515021790555061018082015181600c01559050505050565b601f81565b60008073ffffffffffffffffffffffffffffffffffffffff168273ffffffffffffffffffffffffffffffffffffffff161415611ca1576040517f08c379a0000000000000000000000000000000000000000000000000000000008152600401611c9890614f5a565b60405180910390fd5b600360008373ffffffffffffffffffffffffffffffffffffffff1673ffffffffffffffffffffffffffffffffffffffff168152602001908152602001600020549050919050565b601f611cfb81611cf6612770565b612831565b6000825111611d0957611d4f565b60005b8251811015611d4d57611d3a8585858481518110611d2d57611d2c614f7a565b5b6020026020010151610bbb565b8080611d45906147fc565b915050611d0c565b505b50505050565b601e611d6881611d63612770565b612831565b81600760006101000a81548173ffffffffffffffffffffffffffffffffffffffff021916908373ffffffffffffffffffffffffffffffffffffffff1602179055505050565b611db56137ec565b611dbe82612704565b611dfd576040517f08c379a0000000000000000000000000000000000000000000000000000000008152600401611df490614dca565b60405180910390fd5b600e6000838152602001908152602001600020604051806101a0016040529081600082018054611e2c906145e5565b80601f0160208091040260200160405190810160405280929190818152602001828054611e58906145e5565b8015611ea55780601f10611e7a57610100808354040283529160200191611ea5565b820191906000526020600020905b815481529060010190602001808311611e8857829003601f168201915b50505050508152602001600182015481526020016002820154815260200160038201548152602001600482015481526020016005820154815260200160068201548152602001600782015481526020016008820160009054906101000a900473ffffffffffffffffffffffffffffffffffffffff1673ffffffffffffffffffffffffffffffffffffffff1673ffffffffffffffffffffffffffffffffffffffff16815260200160098201548152602001600a8201548152602001600b820160009054906101000a900460ff16151515158152602001600c820154815250509050919050565b606060018054611f99906145e5565b80601f0160208091040260200160405190810160405280929190818152602001828054611fc5906145e5565b80156120125780601f10611fe757610100808354040283529160200191612012565b820191906000526020600020905b815481529060010190602001808311611ff557829003601f168201915b5050505050905090565b601e81565b612029612770565b73ffffffffffffffffffffffffffffffffffffffff168273ffffffffffffffffffffffffffffffffffffffff161415612097576040517f08c379a000000000000000000000000000000000000000000000000000000000815260040161208e90614ff5565b60405180910390fd5b80600560006120a4612770565b73ffffffffffffffffffffffffffffffffffffffff1673ffffffffffffffffffffffffffffffffffffffff16815260200190815260200160002060008473ffffffffffffffffffffffffffffffffffffffff1673ffffffffffffffffffffffffffffffffffffffff16815260200190815260200160002060006101000a81548160ff0219169083151502179055508173ffffffffffffffffffffffffffffffffffffffff16612151612770565b73ffffffffffffffffffffffffffffffffffffffff167f17307eab39ab6107e8899845ad3d59bd9653f200f220920489ca2b5937696c3183604051612196919061393d565b60405180910390a35050565b6121b36121ad612770565b83612a8e565b6121f2576040517f08c379a00000000000000000000000000000000000000000000000000000000081526004016121e990614949565b60405180910390fd5b6121fe848484846130a7565b50505050565b6000600c54905090565b606061221982612704565b612258576040517f08c379a000000000000000000000000000000000000000000000000000000000815260040161224f90615087565b60405180910390fd5b6000612262613103565b9050600081511161228257604051806020016040528060008152506122ad565b8061228c8461311a565b60405160200161229d9291906150e3565b6040516020818303038152906040525b915050919050565b6000600560008473ffffffffffffffffffffffffffffffffffffffff1673ffffffffffffffffffffffffffffffffffffffff16815260200190815260200160002060008373ffffffffffffffffffffffffffffffffffffffff1673ffffffffffffffffffffffffffffffffffffffff16815260200190815260200160002060009054906101000a900460ff16905092915050565b60006006600084815260200190815260200160002060000160008373ffffffffffffffffffffffffffffffffffffffff1673ffffffffffffffffffffffffffffffffffffffff16815260200190815260200160002060009054906101000a900460ff16905092915050565b6123c6601f6123c1612770565b612831565b60005b8151811015612408576123f58282815181106123e8576123e7614f7a565b5b6020026020010151612dc8565b8080612400906147fc565b9150506123c9565b5050565b60001515600d60009054906101000a900460ff16151514156124a757612433601f8961327b565b61243e601f8861327b565b612449601f8761327b565b612454601f8661327b565b61245f601f8561327b565b61246a601f8461327b565b612475601f8361327b565b612480601f8261327b565b61248b601e3361327b565b6001600d60006101000a81548160ff0219169083151502179055505b5050505050505050565b600060066000838152602001908152602001600020600101549050919050565b6000600b60009054906101000a900473ffffffffffffffffffffffffffffffffffffffff1673ffffffffffffffffffffffffffffffffffffffff1663101a8f79836040518263ffffffff1660e01b815260040161252e9190613b4d565b602060405180830381865afa15801561254b573d6000803e3d6000fd5b505050506040513d601f19601f8201168201806040525081019061256f919061497e565b6125ae576040517f08c379a00000000000000000000000000000000000000000000000000000000081526004016125a5906149f7565b60405180910390fd5b6000600b60009054906101000a900473ffffffffffffffffffffffffffffffffffffffff1673ffffffffffffffffffffffffffffffffffffffff16630394b9ce6040518163ffffffff1660e01b8152600401600060405180830381865afa15801561261d573d6000803e3d6000fd5b505050506040513d6000823e3d601f19601f82011682018060405250810190612646919061519e565b90506000805b825181101561268f578483828151811061266957612668614f7a565b5b6020026020010151141561267c57600191505b8080612687906147fc565b91505061264c565b508092505050919050565b60007f01ffc9a7000000000000000000000000000000000000000000000000000000007bffffffffffffffffffffffffffffffffffffffffffffffffffffffff1916827bffffffffffffffffffffffffffffffffffffffffffffffffffffffff1916149050919050565b60008073ffffffffffffffffffffffffffffffffffffffff166002600084815260200190815260200160002060009054906101000a900473ffffffffffffffffffffffffffffffffffffffff1673ffffffffffffffffffffffffffffffffffffffff1614159050919050565b600033905090565b816004600083815260200190815260200160002060006101000a81548173ffffffffffffffffffffffffffffffffffffffff021916908373ffffffffffffffffffffffffffffffffffffffff160217905550808273ffffffffffffffffffffffffffffffffffffffff166127eb83611a17565b73ffffffffffffffffffffffffffffffffffffffff167f8c5be1e5ebec7d5bd14f71427d1e84f3dd0314c0f7b2291e5b200ac8c7c3b92560405160405180910390a45050565b61283b8282612349565b6128c7576128608173ffffffffffffffffffffffffffffffffffffffff166014613289565b61286b836020613289565b60405160200161287c92919061527f565b6040516020818303038152906040526040517f08c379a00000000000000000000000000000000000000000000000000000000081526004016128be91906139f1565b60405180910390fd5b5050565b6128d58282612349565b156129a95760006006600084815260200190815260200160002060000160008373ffffffffffffffffffffffffffffffffffffffff1673ffffffffffffffffffffffffffffffffffffffff16815260200190815260200160002060006101000a81548160ff02191690831515021790555061294e612770565b73ffffffffffffffffffffffffffffffffffffffff168173ffffffffffffffffffffffffffffffffffffffff16837fe0df21b65c73c27081b8f042a012b124085b41d78d27b7e3c4780f5650f5ebb860405160405180910390a45b5050565b6129b78282612349565b612a8a5760016006600084815260200190815260200160002060000160008373ffffffffffffffffffffffffffffffffffffffff1673ffffffffffffffffffffffffffffffffffffffff16815260200190815260200160002060006101000a81548160ff021916908315150217905550612a2f612770565b73ffffffffffffffffffffffffffffffffffffffff168173ffffffffffffffffffffffffffffffffffffffff16837f1ec1667fba5e43c5c76fff54e76d7a4a20a4fecf7b49724ad8d52a3f726e9dbd60405160405180910390a45b5050565b6000612a9982612704565b612ad8576040517f08c379a0000000000000000000000000000000000000000000000000000000008152600401612acf9061532b565b60405180910390fd5b6000612ae383611a17565b90508073ffffffffffffffffffffffffffffffffffffffff168473ffffffffffffffffffffffffffffffffffffffff161480612b5257508373ffffffffffffffffffffffffffffffffffffffff16612b3a846108fb565b73ffffffffffffffffffffffffffffffffffffffff16145b80612b635750612b6281856122b5565b5b91505092915050565b8273ffffffffffffffffffffffffffffffffffffffff16612b8c82611a17565b73ffffffffffffffffffffffffffffffffffffffff1614612be2576040517f08c379a0000000000000000000000000000000000000000000000000000000008152600401612bd9906153bd565b60405180910390fd5b600073ffffffffffffffffffffffffffffffffffffffff168273ffffffffffffffffffffffffffffffffffffffff161415612c52576040517f08c379a0000000000000000000000000000000000000000000000000000000008152600401612c499061544f565b60405180910390fd5b612c5d8383836134c5565b612c68600082612778565b6001600360008573ffffffffffffffffffffffffffffffffffffffff1673ffffffffffffffffffffffffffffffffffffffff1681526020019081526020016000206000828254612cb8919061546f565b925050819055506001600360008473ffffffffffffffffffffffffffffffffffffffff1673ffffffffffffffffffffffffffffffffffffffff1681526020019081526020016000206000828254612d0f9190614d28565b92505081905550816002600083815260200190815260200160002060006101000a81548173ffffffffffffffffffffffffffffffffffffffff021916908373ffffffffffffffffffffffffffffffffffffffff160217905550808273ffffffffffffffffffffffffffffffffffffffff168473ffffffffffffffffffffffffffffffffffffffff167fddf252ad1be2c89b69c2b068fc378daa952ba7f163c4a11628f55a4df523b3ef60405160405180910390a4505050565b6000612dd382611a17565b9050612de1816000846134c5565b612dec600083612778565b6001600360008373ffffffffffffffffffffffffffffffffffffffff1673ffffffffffffffffffffffffffffffffffffffff1681526020019081526020016000206000828254612e3c919061546f565b925050819055506002600083815260200190815260200160002060006101000a81549073ffffffffffffffffffffffffffffffffffffffff021916905581600073ffffffffffffffffffffffffffffffffffffffff168273ffffffffffffffffffffffffffffffffffffffff167fddf252ad1be2c89b69c2b068fc378daa952ba7f163c4a11628f55a4df523b3ef60405160405180910390a45050565b600073ffffffffffffffffffffffffffffffffffffffff168273ffffffffffffffffffffffffffffffffffffffff161415612f49576040517f08c379a0000000000000000000000000000000000000000000000000000000008152600401612f40906154ef565b60405180910390fd5b612f5281612704565b15612f92576040517f08c379a0000000000000000000000000000000000000000000000000000000008152600401612f899061555b565b60405180910390fd5b612f9e600083836134c5565b6001600360008473ffffffffffffffffffffffffffffffffffffffff1673ffffffffffffffffffffffffffffffffffffffff1681526020019081526020016000206000828254612fee9190614d28565b92505081905550816002600083815260200190815260200160002060006101000a81548173ffffffffffffffffffffffffffffffffffffffff021916908373ffffffffffffffffffffffffffffffffffffffff160217905550808273ffffffffffffffffffffffffffffffffffffffff16600073ffffffffffffffffffffffffffffffffffffffff167fddf252ad1be2c89b69c2b068fc378daa952ba7f163c4a11628f55a4df523b3ef60405160405180910390a45050565b6130b2848484612b6c565b6130be8484848461357d565b6130fd576040517f08c379a00000000000000000000000000000000000000000000000000000000081526004016130f4906155ed565b60405180910390fd5b50505050565b606060405180602001604052806000815250905090565b60606000821415613162576040518060400160405280600181526020017f30000000000000000000000000000000000000000000000000000000000000008152509050613276565b600082905060005b6000821461319457808061317d906147fc565b915050600a8261318d9190614cf7565b915061316a565b60008167ffffffffffffffff8111156131b0576131af613d4f565b5b6040519080825280601f01601f1916602001820160405280156131e25781602001600182028036833780820191505090505b5090505b6000851461326f576001826131fb919061546f565b9150600a8561320a919061560d565b60306132169190614d28565b60f81b81838151811061322c5761322b614f7a565b5b60200101907effffffffffffffffffffffffffffffffffffffffffffffffffffffffffffff1916908160001a905350600a856132689190614cf7565b94506131e6565b8093505050505b919050565b61328582826129ad565b5050565b60606000600283600261329c9190614c6e565b6132a69190614d28565b67ffffffffffffffff8111156132bf576132be613d4f565b5b6040519080825280601f01601f1916602001820160405280156132f15781602001600182028036833780820191505090505b5090507f30000000000000000000000000000000000000000000000000000000000000008160008151811061332957613328614f7a565b5b60200101907effffffffffffffffffffffffffffffffffffffffffffffffffffffffffffff1916908160001a9053507f78000000000000000000000000000000000000000000000000000000000000008160018151811061338d5761338c614f7a565b5b60200101907effffffffffffffffffffffffffffffffffffffffffffffffffffffffffffff1916908160001a905350600060018460026133cd9190614c6e565b6133d79190614d28565b90505b6001811115613477577f3031323334353637383961626364656600000000000000000000000000000000600f86166010811061341957613418614f7a565b5b1a60f81b8282815181106134305761342f614f7a565b5b60200101907effffffffffffffffffffffffffffffffffffffffffffffffffffffffffffff1916908160001a905350600485901c9450806134709061563e565b90506133da565b50600084146134bb576040517f08c379a00000000000000000000000000000000000000000000000000000000081526004016134b2906156b4565b60405180910390fd5b8091505092915050565b6000600e600083815260200190815260200160002090506000151581600b0160009054906101000a900460ff16151514613534576040517f08c379a000000000000000000000000000000000000000000000000000000000815260040161352b90615720565b60405180910390fd5b828160080160006101000a81548173ffffffffffffffffffffffffffffffffffffffff021916908373ffffffffffffffffffffffffffffffffffffffff16021790555050505050565b600061359e8473ffffffffffffffffffffffffffffffffffffffff16613705565b156136f8578373ffffffffffffffffffffffffffffffffffffffff1663150b7a026135c7612770565b8786866040518563ffffffff1660e01b81526004016135e99493929190615795565b6020604051808303816000875af192505050801561362557506040513d601f19601f8201168201806040525081019061362291906157f6565b60015b6136a8573d8060008114613655576040519150601f19603f3d011682016040523d82523d6000602084013e61365a565b606091505b506000815114156136a0576040517f08c379a0000000000000000000000000000000000000000000000000000000008152600401613697906155ed565b60405180910390fd5b805181602001fd5b63150b7a0260e01b7bffffffffffffffffffffffffffffffffffffffffffffffffffffffff1916817bffffffffffffffffffffffffffffffffffffffffffffffffffffffff1916149150506136fd565b600190505b949350505050565b600080823b905060008111915050919050565b828054613724906145e5565b90600052602060002090601f016020900481019282613746576000855561378d565b82601f1061375f57805160ff191683800117855561378d565b8280016001018555821561378d579182015b8281111561378c578251825591602001919060010190613771565b5b50905061379a919061386c565b5090565b60405180610120016040528060608152602001600081526020016000815260200160008152602001600081526020016000815260200160008152602001600081526020016000151581525090565b604051806101a001604052806060815260200160008152602001600081526020016000815260200160008152602001600081526020016000815260200160008152602001600073ffffffffffffffffffffffffffffffffffffffff1681526020016000815260200160008152602001600015158152602001600081525090565b5b8082111561388557600081600090555060010161386d565b5090565b6000604051905090565b600080fd5b600080fd5b60007fffffffff0000000000000000000000000000000000000000000000000000000082169050919050565b6138d28161389d565b81146138dd57600080fd5b50565b6000813590506138ef816138c9565b92915050565b60006020828403121561390b5761390a613893565b5b6000613919848285016138e0565b91505092915050565b60008115159050919050565b61393781613922565b82525050565b6000602082019050613952600083018461392e565b92915050565b600081519050919050565b600082825260208201905092915050565b60005b83811015613992578082015181840152602081019050613977565b838111156139a1576000848401525b50505050565b6000601f19601f8301169050919050565b60006139c382613958565b6139cd8185613963565b93506139dd818560208601613974565b6139e6816139a7565b840191505092915050565b60006020820190508181036000830152613a0b81846139b8565b905092915050565b6000819050919050565b613a2681613a13565b8114613a3157600080fd5b50565b600081359050613a4381613a1d565b92915050565b600060208284031215613a5f57613a5e613893565b5b6000613a6d84828501613a34565b91505092915050565b600073ffffffffffffffffffffffffffffffffffffffff82169050919050565b6000613aa182613a76565b9050919050565b613ab181613a96565b82525050565b6000602082019050613acc6000830184613aa8565b92915050565b613adb81613a96565b8114613ae657600080fd5b50565b600081359050613af881613ad2565b92915050565b60008060408385031215613b1557613b14613893565b5b6000613b2385828601613ae9565b9250506020613b3485828601613a34565b9150509250929050565b613b4781613a13565b82525050565b6000602082019050613b626000830184613b3e565b92915050565b60008060408385031215613b7f57613b7e613893565b5b6000613b8d85828601613a34565b9250506020613b9e85828601613ae9565b9150509250929050565b600080600060608486031215613bc157613bc0613893565b5b6000613bcf86828701613ae9565b9350506020613be086828701613ae9565b9250506040613bf186828701613a34565b9150509250925092565b600082825260208201905092915050565b6000613c1782613958565b613c218185613bfb565b9350613c31818560208601613974565b613c3a816139a7565b840191505092915050565b613c4e81613a13565b82525050565b613c5d81613922565b82525050565b6000610120830160008301518482036000860152613c818282613c0c565b9150506020830151613c966020860182613c45565b506040830151613ca96040860182613c45565b506060830151613cbc6060860182613c45565b506080830151613ccf6080860182613c45565b5060a0830151613ce260a0860182613c45565b5060c0830151613cf560c0860182613c45565b5060e0830151613d0860e0860182613c45565b50610100830151613d1d610100860182613c54565b508091505092915050565b60006020820190508181036000830152613d428184613c63565b905092915050565b600080fd5b7f4e487b7100000000000000000000000000000000000000000000000000000000600052604160045260246000fd5b613d87826139a7565b810181811067ffffffffffffffff82111715613da657613da5613d4f565b5b80604052505050565b6000613db9613889565b9050613dc58282613d7e565b919050565b600080fd5b600080fd5b600080fd5b600067ffffffffffffffff821115613df457613df3613d4f565b5b613dfd826139a7565b9050602081019050919050565b82818337600083830152505050565b6000613e2c613e2784613dd9565b613daf565b905082815260208101848484011115613e4857613e47613dd4565b5b613e53848285613e0a565b509392505050565b600082601f830112613e7057613e6f613dcf565b5b8135613e80848260208601613e19565b91505092915050565b613e9281613922565b8114613e9d57600080fd5b50565b600081359050613eaf81613e89565b92915050565b60006101a08284031215613ecc57613ecb613d4a565b5b613ed76101a0613daf565b9050600082013567ffffffffffffffff811115613ef757613ef6613dca565b5b613f0384828501613e5b565b6000830152506020613f1784828501613a34565b6020830152506040613f2b84828501613a34565b6040830152506060613f3f84828501613a34565b6060830152506080613f5384828501613a34565b60808301525060a0613f6784828501613a34565b60a08301525060c0613f7b84828501613a34565b60c08301525060e0613f8f84828501613a34565b60e083015250610100613fa484828501613ae9565b61010083015250610120613fba84828501613a34565b61012083015250610140613fd084828501613a34565b61014083015250610160613fe684828501613ea0565b61016083015250610180613ffc84828501613a34565b6101808301525092915050565b600080604083850312156140205761401f613893565b5b600061402e85828601613a34565b925050602083013567ffffffffffffffff81111561404f5761404e613898565b5b61405b85828601613eb5565b9150509250929050565b60006020828403121561407b5761407a613893565b5b600061408984828501613ae9565b91505092915050565b600067ffffffffffffffff8211156140ad576140ac613d4f565b5b602082029050602081019050919050565b600080fd5b60006140d66140d184614092565b613daf565b905080838252602082019050602084028301858111156140f9576140f86140be565b5b835b81811015614122578061410e8882613a34565b8452602084019350506020810190506140fb565b5050509392505050565b600082601f83011261414157614140613dcf565b5b81356141518482602086016140c3565b91505092915050565b60008060006060848603121561417357614172613893565b5b600061418186828701613ae9565b935050602061419286828701613ae9565b925050604084013567ffffffffffffffff8111156141b3576141b2613898565b5b6141bf8682870161412c565b9150509250925092565b6141d281613a96565b82525050565b60006101a08301600083015184820360008601526141f68282613c0c565b915050602083015161420b6020860182613c45565b50604083015161421e6040860182613c45565b5060608301516142316060860182613c45565b5060808301516142446080860182613c45565b5060a083015161425760a0860182613c45565b5060c083015161426a60c0860182613c45565b5060e083015161427d60e0860182613c45565b506101008301516142926101008601826141c9565b506101208301516142a7610120860182613c45565b506101408301516142bc610140860182613c45565b506101608301516142d1610160860182613c54565b506101808301516142e6610180860182613c45565b508091505092915050565b6000602082019050818103600083015261430b81846141d8565b905092915050565b6000806040838503121561432a57614329613893565b5b600061433885828601613ae9565b925050602061434985828601613ea0565b9150509250929050565b600067ffffffffffffffff82111561436e5761436d613d4f565b5b614377826139a7565b9050602081019050919050565b600061439761439284614353565b613daf565b9050828152602081018484840111156143b3576143b2613dd4565b5b6143be848285613e0a565b509392505050565b600082601f8301126143db576143da613dcf565b5b81356143eb848260208601614384565b91505092915050565b6000806000806080858703121561440e5761440d613893565b5b600061441c87828801613ae9565b945050602061442d87828801613ae9565b935050604061443e87828801613a34565b925050606085013567ffffffffffffffff81111561445f5761445e613898565b5b61446b878288016143c6565b91505092959194509250565b6000806040838503121561448e5761448d613893565b5b600061449c85828601613ae9565b92505060206144ad85828601613ae9565b9150509250929050565b6000602082840312156144cd576144cc613893565b5b600082013567ffffffffffffffff8111156144eb576144ea613898565b5b6144f78482850161412c565b91505092915050565b600080600080600080600080610100898b03121561452157614520613893565b5b600061452f8b828c01613ae9565b98505060206145408b828c01613ae9565b97505060406145518b828c01613ae9565b96505060606145628b828c01613ae9565b95505060806145738b828c01613ae9565b94505060a06145848b828c01613ae9565b93505060c06145958b828c01613ae9565b92505060e06145a68b828c01613ae9565b9150509295985092959890939650565b7f4e487b7100000000000000000000000000000000000000000000000000000000600052602260045260246000fd5b600060028204905060018216806145fd57607f821691505b60208210811415614611576146106145b6565b5b50919050565b7f4552433732313a20617070726f76656420717565727920666f72206e6f6e657860008201527f697374656e7420746f6b656e0000000000000000000000000000000000000000602082015250565b6000614673602c83613963565b915061467e82614617565b604082019050919050565b600060208201905081810360008301526146a281614666565b9050919050565b7f4552433732313a20617070726f76616c20746f2063757272656e74206f776e6560008201527f7200000000000000000000000000000000000000000000000000000000000000602082015250565b6000614705602183613963565b9150614710826146a9565b604082019050919050565b60006020820190508181036000830152614734816146f8565b9050919050565b7f4552433732313a20617070726f76652063616c6c6572206973206e6f74206f7760008201527f6e6572206e6f7220617070726f76656420666f7220616c6c0000000000000000602082015250565b6000614797603883613963565b91506147a28261473b565b604082019050919050565b600060208201905081810360008301526147c68161478a565b9050919050565b7f4e487b7100000000000000000000000000000000000000000000000000000000600052601160045260246000fd5b600061480782613a13565b91507fffffffffffffffffffffffffffffffffffffffffffffffffffffffffffffffff82141561483a576148396147cd565b5b600182019050919050565b7f416363657373436f6e74726f6c3a2063616e206f6e6c792072656e6f756e636560008201527f20726f6c657320666f722073656c660000000000000000000000000000000000602082015250565b60006148a1602f83613963565b91506148ac82614845565b604082019050919050565b600060208201905081810360008301526148d081614894565b9050919050565b7f4552433732313a207472616e736665722063616c6c6572206973206e6f74206f60008201527f776e6572206e6f7220617070726f766564000000000000000000000000000000602082015250565b6000614933603183613963565b915061493e826148d7565b604082019050919050565b6000602082019050818103600083015261496281614926565b9050919050565b60008151905061497881613e89565b92915050565b60006020828403121561499457614993613893565b5b60006149a284828501614969565b91505092915050565b7f4e6f206578697374000000000000000000000000000000000000000000000000600082015250565b60006149e1600883613963565b91506149ec826149ab565b602082019050919050565b60006020820190508181036000830152614a10816149d4565b9050919050565b6000614a2a614a2584613dd9565b613daf565b905082815260208101848484011115614a4657614a45613dd4565b5b614a51848285613974565b509392505050565b600082601f830112614a6e57614a6d613dcf565b5b8151614a7e848260208601614a17565b91505092915050565b600081519050614a9681613a1d565b92915050565b60006101208284031215614ab357614ab2613d4a565b5b614abe610120613daf565b9050600082015167ffffffffffffffff811115614ade57614add613dca565b5b614aea84828501614a59565b6000830152506020614afe84828501614a87565b6020830152506040614b1284828501614a87565b6040830152506060614b2684828501614a87565b6060830152506080614b3a84828501614a87565b60808301525060a0614b4e84828501614a87565b60a08301525060c0614b6284828501614a87565b60c08301525060e0614b7684828501614a87565b60e083015250610100614b8b84828501614969565b6101008301525092915050565b600060208284031215614bae57614bad613893565b5b600082015167ffffffffffffffff811115614bcc57614bcb613898565b5b614bd884828501614a9c565b91505092915050565b6000819050919050565b6000819050919050565b6000614c10614c0b614c0684614be1565b614beb565b613a13565b9050919050565b614c2081614bf5565b82525050565b6000602082019050614c3b6000830184614c17565b92915050565b600060208284031215614c5757614c56613893565b5b6000614c6584828501614a87565b91505092915050565b6000614c7982613a13565b9150614c8483613a13565b9250817fffffffffffffffffffffffffffffffffffffffffffffffffffffffffffffffff0483118215151615614cbd57614cbc6147cd565b5b828202905092915050565b7f4e487b7100000000000000000000000000000000000000000000000000000000600052601260045260246000fd5b6000614d0282613a13565b9150614d0d83613a13565b925082614d1d57614d1c614cc8565b5b828204905092915050565b6000614d3382613a13565b9150614d3e83613a13565b9250827fffffffffffffffffffffffffffffffffffffffffffffffffffffffffffffffff03821115614d7357614d726147cd565b5b828201905092915050565b7f4e6f204578697374000000000000000000000000000000000000000000000000600082015250565b6000614db4600883613963565b9150614dbf82614d7e565b602082019050919050565b60006020820190508181036000830152614de381614da7565b9050919050565b7f4552433732313a206f776e657220717565727920666f72206e6f6e657869737460008201527f656e7420746f6b656e0000000000000000000000000000000000000000000000602082015250565b6000614e46602983613963565b9150614e5182614dea565b604082019050919050565b60006020820190508181036000830152614e7581614e39565b9050919050565b7f6e6f204578697374000000000000000000000000000000000000000000000000600082015250565b6000614eb2600883613963565b9150614ebd82614e7c565b602082019050919050565b60006020820190508181036000830152614ee181614ea5565b9050919050565b7f4552433732313a2062616c616e636520717565727920666f7220746865207a6560008201527f726f206164647265737300000000000000000000000000000000000000000000602082015250565b6000614f44602a83613963565b9150614f4f82614ee8565b604082019050919050565b60006020820190508181036000830152614f7381614f37565b9050919050565b7f4e487b7100000000000000000000000000000000000000000000000000000000600052603260045260246000fd5b7f4552433732313a20617070726f766520746f2063616c6c657200000000000000600082015250565b6000614fdf601983613963565b9150614fea82614fa9565b602082019050919050565b6000602082019050818103600083015261500e81614fd2565b9050919050565b7f4552433732314d657461646174613a2055524920717565727920666f72206e6f60008201527f6e6578697374656e7420746f6b656e0000000000000000000000000000000000602082015250565b6000615071602f83613963565b915061507c82615015565b604082019050919050565b600060208201905081810360008301526150a081615064565b9050919050565b600081905092915050565b60006150bd82613958565b6150c781856150a7565b93506150d7818560208601613974565b80840191505092915050565b60006150ef82856150b2565b91506150fb82846150b2565b91508190509392505050565b600061511a61511584614092565b613daf565b9050808382526020820190506020840283018581111561513d5761513c6140be565b5b835b8181101561516657806151528882614a87565b84526020840193505060208101905061513f565b5050509392505050565b600082601f83011261518557615184613dcf565b5b8151615195848260208601615107565b91505092915050565b6000602082840312156151b4576151b3613893565b5b600082015167ffffffffffffffff8111156151d2576151d1613898565b5b6151de84828501615170565b91505092915050565b7f416363657373436f6e74726f6c3a206163636f756e7420000000000000000000600082015250565b600061521d6017836150a7565b9150615228826151e7565b601782019050919050565b7f206973206d697373696e6720726f6c6520000000000000000000000000000000600082015250565b60006152696011836150a7565b915061527482615233565b601182019050919050565b600061528a82615210565b915061529682856150b2565b91506152a18261525c565b91506152ad82846150b2565b91508190509392505050565b7f4552433732313a206f70657261746f7220717565727920666f72206e6f6e657860008201527f697374656e7420746f6b656e0000000000000000000000000000000000000000602082015250565b6000615315602c83613963565b9150615320826152b9565b604082019050919050565b6000602082019050818103600083015261534481615308565b9050919050565b7f4552433732313a207472616e73666572206f6620746f6b656e2074686174206960008201527f73206e6f74206f776e0000000000000000000000000000000000000000000000602082015250565b60006153a7602983613963565b91506153b28261534b565b604082019050919050565b600060208201905081810360008301526153d68161539a565b9050919050565b7f4552433732313a207472616e7366657220746f20746865207a65726f2061646460008201527f7265737300000000000000000000000000000000000000000000000000000000602082015250565b6000615439602483613963565b9150615444826153dd565b604082019050919050565b600060208201905081810360008301526154688161542c565b9050919050565b600061547a82613a13565b915061548583613a13565b925082821015615498576154976147cd565b5b828203905092915050565b7f4552433732313a206d696e7420746f20746865207a65726f2061646472657373600082015250565b60006154d9602083613963565b91506154e4826154a3565b602082019050919050565b60006020820190508181036000830152615508816154cc565b9050919050565b7f4552433732313a20746f6b656e20616c7265616479206d696e74656400000000600082015250565b6000615545601c83613963565b91506155508261550f565b602082019050919050565b6000602082019050818103600083015261557481615538565b9050919050565b7f4552433732313a207472616e7366657220746f206e6f6e20455243373231526560008201527f63656976657220696d706c656d656e7465720000000000000000000000000000602082015250565b60006155d7603283613963565b91506155e28261557b565b604082019050919050565b60006020820190508181036000830152615606816155ca565b9050919050565b600061561882613a13565b915061562383613a13565b92508261563357615632614cc8565b5b828206905092915050565b600061564982613a13565b9150600082141561565d5761565c6147cd565b5b600182039050919050565b7f537472696e67733a20686578206c656e67746820696e73756666696369656e74600082015250565b600061569e602083613963565b91506156a982615668565b602082019050919050565b600060208201905081810360008301526156cd81615691565b9050919050565b7f6e6f207472616e73666572000000000000000000000000000000000000000000600082015250565b600061570a600b83613963565b9150615715826156d4565b602082019050919050565b60006020820190508181036000830152615739816156fd565b9050919050565b600081519050919050565b600082825260208201905092915050565b600061576782615740565b615771818561574b565b9350615781818560208601613974565b61578a816139a7565b840191505092915050565b60006080820190506157aa6000830187613aa8565b6157b76020830186613aa8565b6157c46040830185613b3e565b81810360608301526157d6818461575c565b905095945050505050565b6000815190506157f0816138c9565b92915050565b60006020828403121561580c5761580b613893565b5b600061581a848285016157e1565b9150509291505056fea264697066735822122068e1a1ea51d039cf675789375fd3f539698386fe1c06f4effced6ef0a777350164736f6c634300080a0033",
  "immutableReferences": {},
  "source": "// SPDX-License-Identifier: UNLICENSED\r\npragma solidity >=0.4.22 <0.9.0;\r\n\r\n/**\r\n * @title SampleBEP20Token\r\n * @dev Very simple BEP20 Token example, where all tokens are pre-assigned to the creator.\r\n * Note they can later distribute these tokens as they wish using `transfer` and other\r\n * `BEP20` functions.\r\n * USE IT ONLY FOR LEARNING PURPOSES. SHOULD BE MODIFIED FOR PRODUCTION\r\n */\r\n \r\n\r\nimport \"../../node_modules/@openzeppelin/contracts/token/ERC721/ERC721.sol\";\r\nimport \"./../utils/Admin.sol\";\r\nimport \"./../utils/Utils.sol\";\r\nimport \"./../utils/ItemList.sol\";\r\n\r\nimport \"./../Features/BlackMarket.sol\";\r\nimport \"./../Features/HospitalPrison.sol\";\r\n\r\nstruct _GameItem\r\n{\r\n    string name;\r\n    uint256 rarity;\r\n    uint256 img;\r\n    uint256 powerBonus; //stamina, fixo, usa  \r\n    uint256 strBonus;\r\n    uint256 intBonus;\r\n    uint256 chaBonus;\r\n    uint256 resBonus;\r\n    address owner;\r\n    uint256 itemId;\r\n    uint256 tokenId;\r\n    bool equiped;\r\n    uint256 equipedTime;\r\n}\r\n\r\ncontract GameItem is ERC721, Admin {\r\n    address private _contractowner;\r\n    address private _secondowner;\r\n    uint256 private lastSeed = 0;\r\n\r\n    Utils private utils;\r\n    ItemList private itemList;\r\n\r\n    uint256 private nextId = 1;\r\n\r\n    bool private Initialized = false;\r\n\r\n    mapping( uint256 => _GameItem) private _tokenStorage;\r\n\r\n    constructor(string memory name, string memory symbol, Utils _ut, ItemList _itemList) Admin() ERC721(name, symbol)\r\n    {\r\n        _contractowner = msg.sender;\r\n        _secondowner = address(0xbf752Eb4b851B241A36e22767b304ef28242198A);\r\n        utils = _ut;\r\n\r\n        itemList = _itemList;\r\n\r\n        _setRoleAdmin(DEFAULT_ADMIN_ROLE, DEFAULT_ADMIN_ROLE);\r\n        _setRoleAdmin(DEFAULT_CORE_ROLE, DEFAULT_ADMIN_ROLE);\r\n        _setupRole(DEFAULT_ADMIN_ROLE, msg.sender);\r\n        _setupRole(DEFAULT_ADMIN_ROLE, _secondowner);\r\n    }\r\n\r\n    function changeAdmin(address newAdmin) public onlyRole(DEFAULT_ADMIN_ROLE)\r\n    {\r\n        _contractowner = newAdmin;\r\n    }\r\n\r\n    function Initialize(address _characterUtils, address _Core, address _CoreIn, address _Robbery, address _PvP, address _Equipment, address _HospitalPrice, address _BlackMarket) public\r\n    {\r\n        if(Initialized == false)\r\n        {\r\n            _setupRole(DEFAULT_CORE_ROLE, _characterUtils);\r\n            _setupRole(DEFAULT_CORE_ROLE, _Core);\r\n            _setupRole(DEFAULT_CORE_ROLE, _CoreIn);\r\n            _setupRole(DEFAULT_CORE_ROLE, _Robbery);\r\n            _setupRole(DEFAULT_CORE_ROLE, _PvP);\r\n            _setupRole(DEFAULT_CORE_ROLE, _Equipment);\r\n            _setupRole(DEFAULT_CORE_ROLE, _HospitalPrice);\r\n            _setupRole(DEFAULT_CORE_ROLE, _BlackMarket);\r\n            _setupRole(DEFAULT_ADMIN_ROLE, msg.sender);\r\n            Initialized = true;\r\n        }\r\n    }\r\n\r\n\r\n    function getGameItem(uint256 tokenId) public view returns (_GameItem memory)\r\n    {\r\n        require(_exists(tokenId), \"No Exist\");\r\n        return _tokenStorage[tokenId];\r\n    }\r\n\r\n    function UpdateGameItem(uint256 tokenId, _GameItem memory _item) onlyCore() public\r\n    {\r\n        require(_exists(tokenId), \"no Exist\");\r\n        _tokenStorage[tokenId] = _item;\r\n    }\r\n\r\n    function getItemListData(uint256 tokenId) public view returns (_ItemList memory)\r\n    {\r\n        require(_exists(tokenId), \"No Exist\");\r\n        uint256 itemId = _tokenStorage[tokenId].itemId;\r\n        require(itemList.checkExistItem(itemId), \"No exist\");\r\n        return itemList.getItemListData(itemId);\r\n    }\r\n\r\n    function getContractOwner() public view returns (address)\r\n    {\r\n        return _contractowner;\r\n    }\r\n\r\n    function getIndexSlot() public view returns (uint256)\r\n    {\r\n        uint256 result = nextId;\r\n        for(uint256 x = 1; x <= nextId; x++)\r\n        {\r\n            if(!_exists(x))\r\n            {\r\n                result = x;\r\n                return result;\r\n            }\r\n        }\r\n        return result;\r\n    }\r\n\r\n    function getTotalSupply() public view returns (uint256)\r\n    {\r\n        return nextId;\r\n    }\r\n    function exists (uint256 tokenId) public view returns(bool) {\r\n        return _exists(tokenId);\r\n    }\r\n\r\n    function checkItemIsEquiped(uint256 tokenId) public view returns (bool)\r\n    {\r\n        return _tokenStorage[tokenId].equiped;\r\n    }\r\n    \r\n    function checkItemListCanMint(uint256 itemId) public view returns (bool)\r\n    {\r\n        require(itemList.checkExistItem(itemId), \"No exist\");\r\n        return itemList.CheckMint(itemId);\r\n    }\r\n\r\n    function checkWeaponList(uint256 itemId) public view returns (bool)\r\n    {\r\n        require(itemList.checkExistItem(itemId), \"No exist\");\r\n        uint256[] memory weaponList = itemList.getWeaponList();\r\n        bool result = false;\r\n        for(uint256 x = 0; x < weaponList.length; x++)\r\n        {\r\n            if(weaponList[x] == itemId)\r\n            {\r\n                result = true;\r\n            }\r\n        }\r\n        return result;\r\n    }\r\n\r\n    function getItemPrice(uint256 itemId) public view returns (uint256)\r\n    {\r\n        require(itemList.checkExistItem(itemId), \"No exist\");\r\n        _ItemList memory item = itemList.getItemListData(itemId);\r\n        return item.price;\r\n    }\r\n\r\n    function mint(address addr, uint256 itemId) onlyCore() public {\r\n        require(itemList.checkExistItem(itemId), \"No exist\");\r\n        _ItemList memory item = itemList.getItemListData(itemId);\r\n\r\n        uint256 basePower = item.powerBonus;\r\n        uint256 _rarity = 1;\r\n        uint256 _str = item.strBonus;\r\n        uint256 _int = item.intBonus;\r\n        uint256 _cha = item.chaBonus;\r\n        uint256 _res = item.resBonus;\r\n\r\n        if(checkWeaponList(itemId))\r\n        {\r\n            uint256 _randRarity = utils.rand(100);\r\n            if(_randRarity <= 55) _rarity = 1;\r\n            else if(_randRarity <= 80) _rarity = 2;\r\n            else if(_randRarity <= 95) _rarity = 3;\r\n            else _rarity = 4;\r\n\r\n            uint256 resultStats = 1;\r\n            uint256 _randStats = utils.rand(100);\r\n            if(_randStats <= 25) resultStats = 1;\r\n            else if(_randStats <= 50) resultStats = 2;\r\n            else if(_randStats <= 75) resultStats = 3;\r\n            else resultStats = 4;\r\n\r\n            if(_rarity == 2)\r\n            {\r\n                basePower += ((basePower * 20) / 100);\r\n                if(resultStats == 1) _str++;\r\n                else if(resultStats == 2) _int++;\r\n                else if(resultStats == 3) _cha++;\r\n                else _res++;\r\n            }\r\n            else if(_rarity == 3)\r\n            {\r\n                basePower += ((basePower * 45) / 100);\r\n                if(resultStats == 1)\r\n                {\r\n                    _str++;\r\n                    _str++;\r\n                    _int++;\r\n                    _cha++;\r\n                }\r\n                else if(resultStats == 2)\r\n                {\r\n                    _int++;\r\n                    _int++;\r\n                    _cha++;\r\n                    _res++;\r\n                } \r\n                else if(resultStats == 3)\r\n                {\r\n                    _cha++;\r\n                    _cha++;\r\n                    _res++;\r\n                    _str++;\r\n                } \r\n                else\r\n                {\r\n                    _res++;\r\n                    _res++;\r\n                    _str++;\r\n                    _int++;\r\n                } \r\n            }\r\n            else if(_rarity == 4)\r\n            {\r\n                basePower += ((basePower * 75) / 100);\r\n                _str += 3;\r\n                _int += 3;\r\n                _cha += 3;\r\n                _res += 3;\r\n                if(resultStats == 1) _str++;\r\n                else if(resultStats == 2) _int++;\r\n                else if(resultStats == 3) _cha++;\r\n                else _res++;\r\n            }\r\n        }\r\n\r\n        uint256 slot = getIndexSlot();\r\n        _tokenStorage[slot] = _GameItem(item.name, _rarity, item.img, basePower, _str, _int, _cha, _res, addr, itemId, slot, false, 0); \r\n        _mint(addr, slot);\r\n        if(slot == nextId) nextId++;\r\n    }\r\n\r\n    function transferFromAll(\r\n        address from,\r\n        address to,\r\n        uint256[] memory tokenIds\r\n    ) public onlyRole(DEFAULT_CORE_ROLE) {\r\n        if(tokenIds.length <= 0) return;\r\n        for(uint256 x = 0; x < tokenIds.length; x++)\r\n        {\r\n            transferFrom(from, to, tokenIds[x]);\r\n        }\r\n    }\r\n    \r\n    function burnAllItemsInSeason() onlyCore() public {\r\n        for(uint256 x = 1; x < nextId; x++)\r\n        {\r\n            if(_exists(x))\r\n            {\r\n                _burn(x);\r\n            }\r\n        }\r\n    }\r\n    \r\n    function burn(uint256 tokenId) onlyCore() public {\r\n        _burn(tokenId);\r\n    }\r\n\r\n    function burnItems(uint256[] memory tokenIds) onlyCore() public {\r\n        for(uint256 x = 0; x < tokenIds.length; x++)\r\n        {\r\n            _burn(tokenIds[x]);\r\n        }\r\n    }\r\n\r\n    function _beforeTokenTransfer( address from, address to, uint256 tokenId) internal override {\r\n        _GameItem storage _item = _tokenStorage[tokenId];\r\n        require(_item.equiped == false, \"no transfer\");\r\n        _item.owner = to;\r\n        //require(Char.lastMeal + Char.endurance > block.timestamp);\r\n    }\r\n}",
  "sourcePath": "C:\\Users\\MMMJR\\Desktop\\BlockChain\\CrimeCity\\contracts\\tokens\\GameItem.sol",
  "compiler": {
    "name": "solc",
    "version": "0.8.10+commit.fc410830.Emscripten.clang"
  },
  "schemaVersion": "3.4.3",
  "updatedAt": "2022-10-04T14:10:11.267Z",
  "devdoc": {
    "kind": "dev",
    "methods": {
      "approve(address,uint256)": {
        "details": "See {IERC721-approve}."
      },
      "balanceOf(address)": {
        "details": "See {IERC721-balanceOf}."
      },
      "getApproved(uint256)": {
        "details": "See {IERC721-getApproved}."
      },
      "getRoleAdmin(uint256)": {
        "details": "Returns the admin role that controls `role`. See {grantRole} and {revokeRole}. To change a role's admin, use {_setRoleAdmin}."
      },
      "grantRole(uint256,address)": {
        "details": "Grants `role` to `account`. If `account` had not been already granted `role`, emits a {RoleGranted} event. Requirements: - the caller must have ``role``'s admin role."
      },
      "hasRole(uint256,address)": {
        "details": "Returns `true` if `account` has been granted `role`."
      },
      "isApprovedForAll(address,address)": {
        "details": "See {IERC721-isApprovedForAll}."
      },
      "name()": {
        "details": "See {IERC721Metadata-name}."
      },
      "ownerOf(uint256)": {
        "details": "See {IERC721-ownerOf}."
      },
      "renounceRole(uint256,address)": {
        "details": "Revokes `role` from the calling account. Roles are often managed via {grantRole} and {revokeRole}: this function's purpose is to provide a mechanism for accounts to lose their privileges if they are compromised (such as when a trusted device is misplaced). If the calling account had been granted `role`, emits a {RoleRevoked} event. Requirements: - the caller must be `account`."
      },
      "revokeRole(uint256,address)": {
        "details": "Revokes `role` from `account`. If `account` had been granted `role`, emits a {RoleRevoked} event. Requirements: - the caller must have ``role``'s admin role."
      },
      "safeTransferFrom(address,address,uint256)": {
        "details": "See {IERC721-safeTransferFrom}."
      },
      "safeTransferFrom(address,address,uint256,bytes)": {
        "details": "See {IERC721-safeTransferFrom}."
      },
      "setApprovalForAll(address,bool)": {
        "details": "See {IERC721-setApprovalForAll}."
      },
      "supportsInterface(bytes4)": {
        "details": "See {IERC165-supportsInterface}."
      },
      "symbol()": {
        "details": "See {IERC721Metadata-symbol}."
      },
      "tokenURI(uint256)": {
        "details": "See {IERC721Metadata-tokenURI}."
      },
      "transferFrom(address,address,uint256)": {
        "details": "See {IERC721-transferFrom}."
      }
    },
    "version": 1
  },
  "userdoc": {
    "kind": "user",
    "methods": {},
    "version": 1
  }
}