{
  "contractName": "HospitalPrison",
  "abi": [
    {
      "inputs": [
        {
          "internalType": "contract Utils",
          "name": "_util",
          "type": "address"
        },
        {
          "internalType": "contract Character",
          "name": "_character",
          "type": "address"
        },
        {
          "internalType": "contract GameItem",
          "name": "_gameItem",
          "type": "address"
        },
        {
          "internalType": "contract CoreInGame",
          "name": "_game",
          "type": "address"
        }
      ],
      "stateMutability": "nonpayable",
      "type": "constructor"
    },
    {
      "anonymous": false,
      "inputs": [
        {
          "indexed": true,
          "internalType": "uint256",
          "name": "role",
          "type": "uint256"
        },
        {
          "indexed": true,
          "internalType": "uint256",
          "name": "previousAdminRole",
          "type": "uint256"
        },
        {
          "indexed": true,
          "internalType": "uint256",
          "name": "newAdminRole",
          "type": "uint256"
        }
      ],
      "name": "RoleAdminChanged",
      "type": "event"
    },
    {
      "anonymous": false,
      "inputs": [
        {
          "indexed": true,
          "internalType": "uint256",
          "name": "role",
          "type": "uint256"
        },
        {
          "indexed": true,
          "internalType": "address",
          "name": "account",
          "type": "address"
        },
        {
          "indexed": true,
          "internalType": "address",
          "name": "sender",
          "type": "address"
        }
      ],
      "name": "RoleGranted",
      "type": "event"
    },
    {
      "anonymous": false,
      "inputs": [
        {
          "indexed": true,
          "internalType": "uint256",
          "name": "role",
          "type": "uint256"
        },
        {
          "indexed": true,
          "internalType": "address",
          "name": "account",
          "type": "address"
        },
        {
          "indexed": true,
          "internalType": "address",
          "name": "sender",
          "type": "address"
        }
      ],
      "name": "RoleRevoked",
      "type": "event"
    },
    {
      "inputs": [],
      "name": "DEFAULT_ADMIN_ROLE",
      "outputs": [
        {
          "internalType": "uint256",
          "name": "",
          "type": "uint256"
        }
      ],
      "stateMutability": "view",
      "type": "function"
    },
    {
      "inputs": [],
      "name": "DEFAULT_CORE_ROLE",
      "outputs": [
        {
          "internalType": "uint256",
          "name": "",
          "type": "uint256"
        }
      ],
      "stateMutability": "view",
      "type": "function"
    },
    {
      "inputs": [
        {
          "internalType": "uint256",
          "name": "role",
          "type": "uint256"
        }
      ],
      "name": "getRoleAdmin",
      "outputs": [
        {
          "internalType": "uint256",
          "name": "",
          "type": "uint256"
        }
      ],
      "stateMutability": "view",
      "type": "function"
    },
    {
      "inputs": [
        {
          "internalType": "uint256",
          "name": "role",
          "type": "uint256"
        },
        {
          "internalType": "address",
          "name": "account",
          "type": "address"
        }
      ],
      "name": "grantRole",
      "outputs": [],
      "stateMutability": "nonpayable",
      "type": "function"
    },
    {
      "inputs": [
        {
          "internalType": "uint256",
          "name": "role",
          "type": "uint256"
        },
        {
          "internalType": "address",
          "name": "account",
          "type": "address"
        }
      ],
      "name": "hasRole",
      "outputs": [
        {
          "internalType": "bool",
          "name": "",
          "type": "bool"
        }
      ],
      "stateMutability": "view",
      "type": "function"
    },
    {
      "inputs": [
        {
          "internalType": "uint256",
          "name": "role",
          "type": "uint256"
        },
        {
          "internalType": "address",
          "name": "account",
          "type": "address"
        }
      ],
      "name": "renounceRole",
      "outputs": [],
      "stateMutability": "nonpayable",
      "type": "function"
    },
    {
      "inputs": [
        {
          "internalType": "uint256",
          "name": "role",
          "type": "uint256"
        },
        {
          "internalType": "address",
          "name": "account",
          "type": "address"
        }
      ],
      "name": "revokeRole",
      "outputs": [],
      "stateMutability": "nonpayable",
      "type": "function"
    },
    {
      "inputs": [
        {
          "internalType": "address",
          "name": "",
          "type": "address"
        },
        {
          "internalType": "address",
          "name": "",
          "type": "address"
        },
        {
          "internalType": "uint256",
          "name": "",
          "type": "uint256"
        },
        {
          "internalType": "bytes",
          "name": "",
          "type": "bytes"
        }
      ],
      "name": "onERC721Received",
      "outputs": [
        {
          "internalType": "bytes4",
          "name": "",
          "type": "bytes4"
        }
      ],
      "stateMutability": "nonpayable",
      "type": "function"
    },
    {
      "inputs": [
        {
          "internalType": "bytes4",
          "name": "interfaceId",
          "type": "bytes4"
        }
      ],
      "name": "supportsInterface",
      "outputs": [
        {
          "internalType": "bool",
          "name": "",
          "type": "bool"
        }
      ],
      "stateMutability": "pure",
      "type": "function"
    },
    {
      "inputs": [
        {
          "internalType": "address",
          "name": "newAdmin",
          "type": "address"
        }
      ],
      "name": "changeAdmin",
      "outputs": [],
      "stateMutability": "nonpayable",
      "type": "function"
    },
    {
      "inputs": [],
      "name": "bnbWithdraw",
      "outputs": [],
      "stateMutability": "nonpayable",
      "type": "function"
    },
    {
      "inputs": [
        {
          "internalType": "uint256",
          "name": "tokenId",
          "type": "uint256"
        }
      ],
      "name": "getNurseCountDown",
      "outputs": [
        {
          "internalType": "uint256",
          "name": "",
          "type": "uint256"
        }
      ],
      "stateMutability": "view",
      "type": "function"
    },
    {
      "inputs": [
        {
          "internalType": "uint256",
          "name": "tokenId",
          "type": "uint256"
        }
      ],
      "name": "getPrisonCountDown",
      "outputs": [
        {
          "internalType": "uint256",
          "name": "",
          "type": "uint256"
        }
      ],
      "stateMutability": "view",
      "type": "function"
    },
    {
      "inputs": [
        {
          "internalType": "uint256",
          "name": "tokenId",
          "type": "uint256"
        }
      ],
      "name": "treatAddict",
      "outputs": [],
      "stateMutability": "nonpayable",
      "type": "function"
    },
    {
      "inputs": [
        {
          "internalType": "uint256",
          "name": "tokenId",
          "type": "uint256"
        }
      ],
      "name": "reviveHospital",
      "outputs": [],
      "stateMutability": "nonpayable",
      "type": "function"
    },
    {
      "inputs": [
        {
          "internalType": "uint256",
          "name": "tokenId",
          "type": "uint256"
        }
      ],
      "name": "withdrawPrison",
      "outputs": [],
      "stateMutability": "nonpayable",
      "type": "function"
    },
    {
      "inputs": [
        {
          "internalType": "uint256",
          "name": "tokenId",
          "type": "uint256"
        }
      ],
      "name": "getColetePrice",
      "outputs": [
        {
          "internalType": "uint256",
          "name": "",
          "type": "uint256"
        }
      ],
      "stateMutability": "view",
      "type": "function"
    },
    {
      "inputs": [
        {
          "internalType": "uint256",
          "name": "charId",
          "type": "uint256"
        },
        {
          "internalType": "uint256",
          "name": "itemId",
          "type": "uint256"
        },
        {
          "internalType": "uint256",
          "name": "quantity",
          "type": "uint256"
        }
      ],
      "name": "useItem",
      "outputs": [],
      "stateMutability": "nonpayable",
      "type": "function"
    },
    {
      "inputs": [
        {
          "internalType": "uint256",
          "name": "tokenId",
          "type": "uint256"
        }
      ],
      "name": "activeBulletProof",
      "outputs": [],
      "stateMutability": "nonpayable",
      "type": "function"
    }
  ],
  "bytecode": "0x60806040523480156200001157600080fd5b5060405162004a0838038062004a0883398181016040528101906200003791906200059a565b33600160006101000a81548173ffffffffffffffffffffffffffffffffffffffff021916908373ffffffffffffffffffffffffffffffffffffffff16021790555073bf752eb4b851b241a36e22767b304ef28242198a600260006101000a81548173ffffffffffffffffffffffffffffffffffffffff021916908373ffffffffffffffffffffffffffffffffffffffff160217905550600060038190555082600560006101000a81548173ffffffffffffffffffffffffffffffffffffffff021916908373ffffffffffffffffffffffffffffffffffffffff16021790555081600660006101000a81548173ffffffffffffffffffffffffffffffffffffffff021916908373ffffffffffffffffffffffffffffffffffffffff16021790555083600460006101000a81548173ffffffffffffffffffffffffffffffffffffffff021916908373ffffffffffffffffffffffffffffffffffffffff16021790555080600760006101000a81548173ffffffffffffffffffffffffffffffffffffffff021916908373ffffffffffffffffffffffffffffffffffffffff160217905550620001ec601e806200025260201b60201c565b62000200601f601e6200025260201b60201c565b62000213601e33620002b560201b60201c565b62000248601e600260009054906101000a900473ffffffffffffffffffffffffffffffffffffffff16620002b560201b60201c565b505050506200060c565b60006200026583620002cb60201b60201c565b905081600080858152602001908152602001600020600101819055508181847f6620dedee755c284a7e221a3279487b734830c1f76c026c797b4d019c6b4b2f460405160405180910390a4505050565b620002c78282620002ea60201b60201c565b5050565b6000806000838152602001908152602001600020600101549050919050565b620002fc8282620003db60201b60201c565b620003d757600160008084815260200190815260200160002060000160008373ffffffffffffffffffffffffffffffffffffffff1673ffffffffffffffffffffffffffffffffffffffff16815260200190815260200160002060006101000a81548160ff0219169083151502179055506200037c6200044560201b60201c565b73ffffffffffffffffffffffffffffffffffffffff168173ffffffffffffffffffffffffffffffffffffffff16837f1ec1667fba5e43c5c76fff54e76d7a4a20a4fecf7b49724ad8d52a3f726e9dbd60405160405180910390a45b5050565b600080600084815260200190815260200160002060000160008373ffffffffffffffffffffffffffffffffffffffff1673ffffffffffffffffffffffffffffffffffffffff16815260200190815260200160002060009054906101000a900460ff16905092915050565b600033905090565b600080fd5b600073ffffffffffffffffffffffffffffffffffffffff82169050919050565b60006200047f8262000452565b9050919050565b6000620004938262000472565b9050919050565b620004a58162000486565b8114620004b157600080fd5b50565b600081519050620004c5816200049a565b92915050565b6000620004d88262000472565b9050919050565b620004ea81620004cb565b8114620004f657600080fd5b50565b6000815190506200050a81620004df565b92915050565b60006200051d8262000472565b9050919050565b6200052f8162000510565b81146200053b57600080fd5b50565b6000815190506200054f8162000524565b92915050565b6000620005628262000472565b9050919050565b620005748162000555565b81146200058057600080fd5b50565b600081519050620005948162000569565b92915050565b60008060008060808587031215620005b757620005b66200044d565b5b6000620005c787828801620004b4565b9450506020620005da87828801620004f9565b9350506040620005ed878288016200053e565b9250506060620006008782880162000583565b91505092959194509250565b6143ec806200061c6000396000f3fe608060405234801561001057600080fd5b50600436106101215760003560e01c80638f283970116100ad578063d739f0d611610071578063d739f0d6146102f0578063ec2606c014610320578063edd1956414610350578063fb1a0b9a1461036c578063fb2990ad1461038857610121565b80638f2839701461024e578063965252f91461026a578063a02cd8a11461029a578063a217fddf146102b6578063c0db8698146102d457610121565b80632308d236116100f45780632308d236146101be578063255a8b86146101da57806353319101146101f65780636f45e4e51461022657806375bbeee71461024457610121565b806301ffc9a714610126578063150b7a02146101565780631d0b19e7146101865780631fe5f589146101a2575b600080fd5b610140600480360381019061013b9190612c13565b6103b8565b60405161014d9190612c5b565b60405180910390f35b610170600480360381019061016b9190612e50565b610422565b60405161017d9190612ee2565b60405180910390f35b6101a0600480360381019061019b9190612efd565b610436565b005b6101bc60048036038101906101b79190612efd565b61045f565b005b6101d860048036038101906101d39190612efd565b610488565b005b6101f460048036038101906101ef9190612f3d565b61050b565b005b610210600480360381019061020b9190612f90565b610c31565b60405161021d9190612fcc565b60405180910390f35b61022e610ece565b60405161023b9190612fcc565b60405180910390f35b61024c610ed3565b005b61026860048036038101906102639190612fe7565b610f7d565b005b610284600480360381019061027f9190612f90565b610fd5565b6040516102919190612fcc565b60405180910390f35b6102b460048036038101906102af9190612f90565b61112f565b005b6102be61154e565b6040516102cb9190612fcc565b60405180910390f35b6102ee60048036038101906102e99190612f90565b611553565b005b61030a60048036038101906103059190612f90565b611982565b6040516103179190612fcc565b60405180910390f35b61033a60048036038101906103359190612efd565b611c1f565b6040516103479190612c5b565b60405180910390f35b61036a60048036038101906103659190612f90565b611c89565b005b61038660048036038101906103819190612f90565b61224f565b005b6103a2600480360381019061039d9190612f90565b6126e9565b6040516103af9190612fcc565b60405180910390f35b60007f150b7a02000000000000000000000000000000000000000000000000000000007bffffffffffffffffffffffffffffffffffffffffffffffffffffffff1916827bffffffffffffffffffffffffffffffffffffffffffffffffffffffff1916149050919050565b600063150b7a0260e01b9050949350505050565b61043f826126e9565b6104508161044b612708565b612710565b61045a83836127aa565b505050565b610468826126e9565b61047981610474612708565b612710565b610483838361288b565b505050565b610490612708565b73ffffffffffffffffffffffffffffffffffffffff168173ffffffffffffffffffffffffffffffffffffffff16146104fd576040517f08c379a00000000000000000000000000000000000000000000000000000000081526004016104f490613097565b60405180910390fd5b61050782826127aa565b5050565b600760009054906101000a900473ffffffffffffffffffffffffffffffffffffffff1673ffffffffffffffffffffffffffffffffffffffff1663804b54ab33856040518363ffffffff1660e01b81526004016105689291906130c6565b602060405180830381865afa158015610585573d6000803e3d6000fd5b505050506040513d601f19601f820116820180604052508101906105a9919061311b565b6105e8576040517f08c379a00000000000000000000000000000000000000000000000000000000081526004016105df90613194565b60405180910390fd5b3373ffffffffffffffffffffffffffffffffffffffff16600560009054906101000a900473ffffffffffffffffffffffffffffffffffffffff1673ffffffffffffffffffffffffffffffffffffffff16636352211e856040518263ffffffff1660e01b815260040161065a9190612fcc565b602060405180830381865afa158015610677573d6000803e3d6000fd5b505050506040513d601f19601f8201168201806040525081019061069b91906131c9565b73ffffffffffffffffffffffffffffffffffffffff16146106f1576040517f08c379a00000000000000000000000000000000000000000000000000000000081526004016106e890613242565b60405180910390fd5b6000600560009054906101000a900473ffffffffffffffffffffffffffffffffffffffff1673ffffffffffffffffffffffffffffffffffffffff1663dabb0531856040518263ffffffff1660e01b815260040161074e9190612fcc565b600060405180830381865afa15801561076b573d6000803e3d6000fd5b505050506040513d6000823e3d601f19601f82011682018060405250810190610794919061364b565b9050600080600a85101580156107aa5750600e85105b6107e9576040517f08c379a00000000000000000000000000000000000000000000000000000000081526004016107e0906136e0565b60405180910390fd5b6000600760009054906101000a900473ffffffffffffffffffffffffffffffffffffffff1673ffffffffffffffffffffffffffffffffffffffff1663a65e83c3336040518263ffffffff1660e01b81526004016108469190613700565b61016060405180830381865afa158015610864573d6000803e3d6000fd5b505050506040513d601f19601f820116820180604052508101906108889190613827565b9050600a86141561090057848160c0015110156108da576040517f08c379a00000000000000000000000000000000000000000000000000000000081526004016108d1906138a1565b60405180910390fd5b60329250600a9150848160c0018181516108f491906138f0565b91508181525050610a5c565b600b86141561097657848160e001511015610950576040517f08c379a0000000000000000000000000000000000000000000000000000000008152600401610947906138a1565b60405180910390fd5b60649250600a9150848160e00181815161096a91906138f0565b91508181525050610a5b565b600c8614156109ee578481610100015110156109c7576040517f08c379a00000000000000000000000000000000000000000000000000000000081526004016109be906138a1565b60405180910390fd5b60c89250600f91508481610100018181516109e291906138f0565b91508181525050610a5a565b848161012001511015610a36576040517f08c379a0000000000000000000000000000000000000000000000000000000008152600401610a2d906138a1565b60405180910390fd5b6101f4925060149150848161012001818151610a5291906138f0565b915081815250505b5b5b60005b85811015610b095784610100015184866101200151610a7e9190613924565b1115610a995784610100015185610120018181525050610ab4565b838561012001818151610aac9190613924565b915081815250505b6064838660800151610ac69190613924565b1115610adc576064856080018181525050610af6565b8285608001818151610aee9190613924565b915081815250505b8080610b019061397a565b915050610a5f565b50600760009054906101000a900473ffffffffffffffffffffffffffffffffffffffff1673ffffffffffffffffffffffffffffffffffffffff1663a28fe11333836040518363ffffffff1660e01b8152600401610b67929190613ab3565b600060405180830381600087803b158015610b8157600080fd5b505af1158015610b95573d6000803e3d6000fd5b50505050600560009054906101000a900473ffffffffffffffffffffffffffffffffffffffff1673ffffffffffffffffffffffffffffffffffffffff16634c2ac39988866040518363ffffffff1660e01b8152600401610bf6929190613de9565b600060405180830381600087803b158015610c1057600080fd5b505af1158015610c24573d6000803e3d6000fd5b5050505050505050505050565b6000600560009054906101000a900473ffffffffffffffffffffffffffffffffffffffff1673ffffffffffffffffffffffffffffffffffffffff16634f558e79836040518263ffffffff1660e01b8152600401610c8e9190612fcc565b602060405180830381865afa158015610cab573d6000803e3d6000fd5b505050506040513d601f19601f82011682018060405250810190610ccf919061311b565b610d0e576040517f08c379a0000000000000000000000000000000000000000000000000000000008152600401610d0590613e65565b60405180910390fd5b6000600560009054906101000a900473ffffffffffffffffffffffffffffffffffffffff1673ffffffffffffffffffffffffffffffffffffffff1663dabb0531846040518263ffffffff1660e01b8152600401610d6b9190612fcc565b600060405180830381865afa158015610d88573d6000803e3d6000fd5b505050506040513d6000823e3d601f19601f82011682018060405250810190610db1919061364b565b9050600760009054906101000a900473ffffffffffffffffffffffffffffffffffffffff1673ffffffffffffffffffffffffffffffffffffffff1663f7a6ab8e6040518163ffffffff1660e01b8152600401602060405180830381865afa158015610e20573d6000803e3d6000fd5b505050506040513d601f19601f82011682018060405250810190610e449190613e85565b81610360015114610e8a576040517f08c379a0000000000000000000000000000000000000000000000000000000008152600401610e8190613efe565b60405180910390fd5b6000428261024001511115610ec457600042836102400151610eac91906138f0565b90506201518081610ebd9190613f4d565b9050809150505b8092505050919050565b601f81565b601e610ee681610ee1612708565b612710565b6000339050600060035411610f30576040517f08c379a0000000000000000000000000000000000000000000000000000000008152600401610f2790613fca565b60405180910390fd5b8073ffffffffffffffffffffffffffffffffffffffff166108fc6003549081150290604051600060405180830381858888f19350505050158015610f78573d6000803e3d6000fd5b505050565b601e610f9081610f8b612708565b612710565b81600160006101000a81548173ffffffffffffffffffffffffffffffffffffffff021916908373ffffffffffffffffffffffffffffffffffffffff1602179055505050565b600080600560009054906101000a900473ffffffffffffffffffffffffffffffffffffffff1673ffffffffffffffffffffffffffffffffffffffff1663dabb0531846040518263ffffffff1660e01b81526004016110339190612fcc565b600060405180830381865afa158015611050573d6000803e3d6000fd5b505050506040513d6000823e3d601f19601f82011682018060405250810190611079919061364b565b90508060c001516028600460009054906101000a900473ffffffffffffffffffffffffffffffffffffffff1673ffffffffffffffffffffffffffffffffffffffff1663a7f93ebd6040518163ffffffff1660e01b8152600401602060405180830381865afa1580156110ef573d6000803e3d6000fd5b505050506040513d601f19601f820116820180604052508101906111139190613e85565b61111d9190613f4d565b6111279190613fea565b915050919050565b600760009054906101000a900473ffffffffffffffffffffffffffffffffffffffff1673ffffffffffffffffffffffffffffffffffffffff1663804b54ab33836040518363ffffffff1660e01b815260040161118c9291906130c6565b602060405180830381865afa1580156111a9573d6000803e3d6000fd5b505050506040513d601f19601f820116820180604052508101906111cd919061311b565b61120c576040517f08c379a000000000000000000000000000000000000000000000000000000000815260040161120390613194565b60405180910390fd5b6000600560009054906101000a900473ffffffffffffffffffffffffffffffffffffffff1673ffffffffffffffffffffffffffffffffffffffff1663dabb0531836040518263ffffffff1660e01b81526004016112699190612fcc565b600060405180830381865afa158015611286573d6000803e3d6000fd5b505050506040513d6000823e3d601f19601f820116820180604052508101906112af919061364b565b90506000816102200151116112f9576040517f08c379a00000000000000000000000000000000000000000000000000000000081526004016112f090614090565b60405180910390fd5b600081610380015190506000600760009054906101000a900473ffffffffffffffffffffffffffffffffffffffff1673ffffffffffffffffffffffffffffffffffffffff1663a65e83c3336040518263ffffffff1660e01b81526004016113609190613700565b61016060405180830381865afa15801561137e573d6000803e3d6000fd5b505050506040513d601f19601f820116820180604052508101906113a29190613827565b90508261022001514210156114a15781816000015110156113f8576040517f08c379a00000000000000000000000000000000000000000000000000000000081526004016113ef90613fca565b60405180910390fd5b818160000181815161140a91906138f0565b91508181525050600760009054906101000a900473ffffffffffffffffffffffffffffffffffffffff1673ffffffffffffffffffffffffffffffffffffffff1663a28fe11333836040518363ffffffff1660e01b815260040161146e929190613ab3565b600060405180830381600087803b15801561148857600080fd5b505af115801561149c573d6000803e3d6000fd5b505050505b600083610380018181525050600083610220018181525050600560009054906101000a900473ffffffffffffffffffffffffffffffffffffffff1673ffffffffffffffffffffffffffffffffffffffff16634c2ac39985856040518363ffffffff1660e01b8152600401611516929190613de9565b600060405180830381600087803b15801561153057600080fd5b505af1158015611544573d6000803e3d6000fd5b5050505050505050565b601e81565b600760009054906101000a900473ffffffffffffffffffffffffffffffffffffffff1673ffffffffffffffffffffffffffffffffffffffff1663804b54ab33836040518363ffffffff1660e01b81526004016115b09291906130c6565b602060405180830381865afa1580156115cd573d6000803e3d6000fd5b505050506040513d601f19601f820116820180604052508101906115f1919061311b565b611630576040517f08c379a000000000000000000000000000000000000000000000000000000000815260040161162790613194565b60405180910390fd5b6000600560009054906101000a900473ffffffffffffffffffffffffffffffffffffffff1673ffffffffffffffffffffffffffffffffffffffff1663dabb0531836040518263ffffffff1660e01b815260040161168d9190612fcc565b600060405180830381865afa1580156116aa573d6000803e3d6000fd5b505050506040513d6000823e3d601f19601f820116820180604052508101906116d3919061364b565b905060008161024001511161171d576040517f08c379a0000000000000000000000000000000000000000000000000000000008152600401611714906140fc565b60405180910390fd5b6000816103a0015190506000600760009054906101000a900473ffffffffffffffffffffffffffffffffffffffff1673ffffffffffffffffffffffffffffffffffffffff1663a65e83c3336040518263ffffffff1660e01b81526004016117849190613700565b61016060405180830381865afa1580156117a2573d6000803e3d6000fd5b505050506040513d601f19601f820116820180604052508101906117c69190613827565b90508261024001514210156118c557818160000151101561181c576040517f08c379a000000000000000000000000000000000000000000000000000000000815260040161181390613fca565b60405180910390fd5b818160000181815161182e91906138f0565b91508181525050600760009054906101000a900473ffffffffffffffffffffffffffffffffffffffff1673ffffffffffffffffffffffffffffffffffffffff1663a28fe11333836040518363ffffffff1660e01b8152600401611892929190613ab3565b600060405180830381600087803b1580156118ac57600080fd5b505af11580156118c0573d6000803e3d6000fd5b505050505b826101000151836101200181815250506000836103a0018181525050600083610240018181525050600560009054906101000a900473ffffffffffffffffffffffffffffffffffffffff1673ffffffffffffffffffffffffffffffffffffffff16634c2ac39985856040518363ffffffff1660e01b815260040161194a929190613de9565b600060405180830381600087803b15801561196457600080fd5b505af1158015611978573d6000803e3d6000fd5b5050505050505050565b6000600560009054906101000a900473ffffffffffffffffffffffffffffffffffffffff1673ffffffffffffffffffffffffffffffffffffffff16634f558e79836040518263ffffffff1660e01b81526004016119df9190612fcc565b602060405180830381865afa1580156119fc573d6000803e3d6000fd5b505050506040513d601f19601f82011682018060405250810190611a20919061311b565b611a5f576040517f08c379a0000000000000000000000000000000000000000000000000000000008152600401611a5690613e65565b60405180910390fd5b6000600560009054906101000a900473ffffffffffffffffffffffffffffffffffffffff1673ffffffffffffffffffffffffffffffffffffffff1663dabb0531846040518263ffffffff1660e01b8152600401611abc9190612fcc565b600060405180830381865afa158015611ad9573d6000803e3d6000fd5b505050506040513d6000823e3d601f19601f82011682018060405250810190611b02919061364b565b9050600760009054906101000a900473ffffffffffffffffffffffffffffffffffffffff1673ffffffffffffffffffffffffffffffffffffffff1663f7a6ab8e6040518163ffffffff1660e01b8152600401602060405180830381865afa158015611b71573d6000803e3d6000fd5b505050506040513d601f19601f82011682018060405250810190611b959190613e85565b81610360015114611bdb576040517f08c379a0000000000000000000000000000000000000000000000000000000008152600401611bd290613efe565b60405180910390fd5b6000428261022001511115611c1557600042836102200151611bfd91906138f0565b90506201518081611c0e9190613f4d565b9050809150505b8092505050919050565b600080600084815260200190815260200160002060000160008373ffffffffffffffffffffffffffffffffffffffff1673ffffffffffffffffffffffffffffffffffffffff16815260200190815260200160002060009054906101000a900460ff16905092915050565b600760009054906101000a900473ffffffffffffffffffffffffffffffffffffffff1673ffffffffffffffffffffffffffffffffffffffff1663804b54ab33836040518363ffffffff1660e01b8152600401611ce69291906130c6565b602060405180830381865afa158015611d03573d6000803e3d6000fd5b505050506040513d601f19601f82011682018060405250810190611d27919061311b565b611d66576040517f08c379a0000000000000000000000000000000000000000000000000000000008152600401611d5d90613194565b60405180910390fd5b6000600560009054906101000a900473ffffffffffffffffffffffffffffffffffffffff1673ffffffffffffffffffffffffffffffffffffffff1663dabb0531836040518263ffffffff1660e01b8152600401611dc39190612fcc565b600060405180830381865afa158015611de0573d6000803e3d6000fd5b505050506040513d6000823e3d601f19601f82011682018060405250810190611e09919061364b565b905060008160c001516028600460009054906101000a900473ffffffffffffffffffffffffffffffffffffffff1673ffffffffffffffffffffffffffffffffffffffff1663a7f93ebd6040518163ffffffff1660e01b8152600401602060405180830381865afa158015611e81573d6000803e3d6000fd5b505050506040513d601f19601f82011682018060405250810190611ea59190613e85565b611eaf9190613f4d565b611eb99190613fea565b90506000600760009054906101000a900473ffffffffffffffffffffffffffffffffffffffff1673ffffffffffffffffffffffffffffffffffffffff1663a65e83c3336040518263ffffffff1660e01b8152600401611f189190613700565b61016060405180830381865afa158015611f36573d6000803e3d6000fd5b505050506040513d601f19601f82011682018060405250810190611f5a9190613827565b90508181600001511015611fa3576040517f08c379a0000000000000000000000000000000000000000000000000000000008152600401611f9a90614168565b60405180910390fd5b6000600460009054906101000a900473ffffffffffffffffffffffffffffffffffffffff1673ffffffffffffffffffffffffffffffffffffffff16631f3557a56040518163ffffffff1660e01b8152600401602060405180830381865afa158015612012573d6000803e3d6000fd5b505050506040513d601f19601f820116820180604052508101906120369190613e85565b90508084610260015111156120675762069780846102600181815161205b9190613924565b91508181525050612111565b62069780600460009054906101000a900473ffffffffffffffffffffffffffffffffffffffff1673ffffffffffffffffffffffffffffffffffffffff16631f3557a56040518163ffffffff1660e01b8152600401602060405180830381865afa1580156120d8573d6000803e3d6000fd5b505050506040513d601f19601f820116820180604052508101906120fc9190613e85565b6121069190613924565b846102600181815250505b828260000181815161212391906138f0565b91508181525050600760009054906101000a900473ffffffffffffffffffffffffffffffffffffffff1673ffffffffffffffffffffffffffffffffffffffff1663a28fe11333846040518363ffffffff1660e01b8152600401612187929190613ab3565b600060405180830381600087803b1580156121a157600080fd5b505af11580156121b5573d6000803e3d6000fd5b50505050600560009054906101000a900473ffffffffffffffffffffffffffffffffffffffff1673ffffffffffffffffffffffffffffffffffffffff16634c2ac39986866040518363ffffffff1660e01b8152600401612216929190613de9565b600060405180830381600087803b15801561223057600080fd5b505af1158015612244573d6000803e3d6000fd5b505050505050505050565b600760009054906101000a900473ffffffffffffffffffffffffffffffffffffffff1673ffffffffffffffffffffffffffffffffffffffff1663804b54ab33836040518363ffffffff1660e01b81526004016122ac9291906130c6565b602060405180830381865afa1580156122c9573d6000803e3d6000fd5b505050506040513d601f19601f820116820180604052508101906122ed919061311b565b61232c576040517f08c379a000000000000000000000000000000000000000000000000000000000815260040161232390613194565b60405180910390fd5b6000600560009054906101000a900473ffffffffffffffffffffffffffffffffffffffff1673ffffffffffffffffffffffffffffffffffffffff1663dabb0531836040518263ffffffff1660e01b81526004016123899190612fcc565b600060405180830381865afa1580156123a6573d6000803e3d6000fd5b505050506040513d6000823e3d601f19601f820116820180604052508101906123cf919061364b565b90506000816080015111612418576040517f08c379a000000000000000000000000000000000000000000000000000000000815260040161240f906140fc565b60405180910390fd5b60006028600460009054906101000a900473ffffffffffffffffffffffffffffffffffffffff1673ffffffffffffffffffffffffffffffffffffffff1663a7f93ebd6040518163ffffffff1660e01b8152600401602060405180830381865afa158015612489573d6000803e3d6000fd5b505050506040513d601f19601f820116820180604052508101906124ad9190613e85565b6124b79190613f4d565b90506000600760009054906101000a900473ffffffffffffffffffffffffffffffffffffffff1673ffffffffffffffffffffffffffffffffffffffff1663a65e83c3336040518263ffffffff1660e01b81526004016125169190613700565b61016060405180830381865afa158015612534573d6000803e3d6000fd5b505050506040513d601f19601f820116820180604052508101906125589190613827565b905081816000015110156125a1576040517f08c379a000000000000000000000000000000000000000000000000000000000815260040161259890613fca565b60405180910390fd5b81816000018181516125b391906138f0565b91508181525050600760009054906101000a900473ffffffffffffffffffffffffffffffffffffffff1673ffffffffffffffffffffffffffffffffffffffff1663a28fe11333836040518363ffffffff1660e01b8152600401612617929190613ab3565b600060405180830381600087803b15801561263157600080fd5b505af1158015612645573d6000803e3d6000fd5b505050506000836080018181525050600560009054906101000a900473ffffffffffffffffffffffffffffffffffffffff1673ffffffffffffffffffffffffffffffffffffffff16634c2ac39985856040518363ffffffff1660e01b81526004016126b1929190613de9565b600060405180830381600087803b1580156126cb57600080fd5b505af11580156126df573d6000803e3d6000fd5b5050505050505050565b6000806000838152602001908152602001600020600101549050919050565b600033905090565b61271a8282611c1f565b6127a65761273f8173ffffffffffffffffffffffffffffffffffffffff16601461296b565b61274a83602061296b565b60405160200161275b92919061425c565b6040516020818303038152906040526040517f08c379a000000000000000000000000000000000000000000000000000000000815260040161279d91906142cf565b60405180910390fd5b5050565b6127b48282611c1f565b1561288757600080600084815260200190815260200160002060000160008373ffffffffffffffffffffffffffffffffffffffff1673ffffffffffffffffffffffffffffffffffffffff16815260200190815260200160002060006101000a81548160ff02191690831515021790555061282c612708565b73ffffffffffffffffffffffffffffffffffffffff168173ffffffffffffffffffffffffffffffffffffffff16837fe0df21b65c73c27081b8f042a012b124085b41d78d27b7e3c4780f5650f5ebb860405160405180910390a45b5050565b6128958282611c1f565b61296757600160008084815260200190815260200160002060000160008373ffffffffffffffffffffffffffffffffffffffff1673ffffffffffffffffffffffffffffffffffffffff16815260200190815260200160002060006101000a81548160ff02191690831515021790555061290c612708565b73ffffffffffffffffffffffffffffffffffffffff168173ffffffffffffffffffffffffffffffffffffffff16837f1ec1667fba5e43c5c76fff54e76d7a4a20a4fecf7b49724ad8d52a3f726e9dbd60405160405180910390a45b5050565b60606000600283600261297e9190613fea565b6129889190613924565b67ffffffffffffffff8111156129a1576129a0612d25565b5b6040519080825280601f01601f1916602001820160405280156129d35781602001600182028036833780820191505090505b5090507f300000000000000000000000000000000000000000000000000000000000000081600081518110612a0b57612a0a6142f1565b5b60200101907effffffffffffffffffffffffffffffffffffffffffffffffffffffffffffff1916908160001a9053507f780000000000000000000000000000000000000000000000000000000000000081600181518110612a6f57612a6e6142f1565b5b60200101907effffffffffffffffffffffffffffffffffffffffffffffffffffffffffffff1916908160001a90535060006001846002612aaf9190613fea565b612ab99190613924565b90505b6001811115612b59577f3031323334353637383961626364656600000000000000000000000000000000600f861660108110612afb57612afa6142f1565b5b1a60f81b828281518110612b1257612b116142f1565b5b60200101907effffffffffffffffffffffffffffffffffffffffffffffffffffffffffffff1916908160001a905350600485901c945080612b5290614320565b9050612abc565b5060008414612b9d576040517f08c379a0000000000000000000000000000000000000000000000000000000008152600401612b9490614396565b60405180910390fd5b8091505092915050565b6000604051905090565b600080fd5b600080fd5b60007fffffffff0000000000000000000000000000000000000000000000000000000082169050919050565b612bf081612bbb565b8114612bfb57600080fd5b50565b600081359050612c0d81612be7565b92915050565b600060208284031215612c2957612c28612bb1565b5b6000612c3784828501612bfe565b91505092915050565b60008115159050919050565b612c5581612c40565b82525050565b6000602082019050612c706000830184612c4c565b92915050565b600073ffffffffffffffffffffffffffffffffffffffff82169050919050565b6000612ca182612c76565b9050919050565b612cb181612c96565b8114612cbc57600080fd5b50565b600081359050612cce81612ca8565b92915050565b6000819050919050565b612ce781612cd4565b8114612cf257600080fd5b50565b600081359050612d0481612cde565b92915050565b600080fd5b600080fd5b6000601f19601f8301169050919050565b7f4e487b7100000000000000000000000000000000000000000000000000000000600052604160045260246000fd5b612d5d82612d14565b810181811067ffffffffffffffff82111715612d7c57612d7b612d25565b5b80604052505050565b6000612d8f612ba7565b9050612d9b8282612d54565b919050565b600067ffffffffffffffff821115612dbb57612dba612d25565b5b612dc482612d14565b9050602081019050919050565b82818337600083830152505050565b6000612df3612dee84612da0565b612d85565b905082815260208101848484011115612e0f57612e0e612d0f565b5b612e1a848285612dd1565b509392505050565b600082601f830112612e3757612e36612d0a565b5b8135612e47848260208601612de0565b91505092915050565b60008060008060808587031215612e6a57612e69612bb1565b5b6000612e7887828801612cbf565b9450506020612e8987828801612cbf565b9350506040612e9a87828801612cf5565b925050606085013567ffffffffffffffff811115612ebb57612eba612bb6565b5b612ec787828801612e22565b91505092959194509250565b612edc81612bbb565b82525050565b6000602082019050612ef76000830184612ed3565b92915050565b60008060408385031215612f1457612f13612bb1565b5b6000612f2285828601612cf5565b9250506020612f3385828601612cbf565b9150509250929050565b600080600060608486031215612f5657612f55612bb1565b5b6000612f6486828701612cf5565b9350506020612f7586828701612cf5565b9250506040612f8686828701612cf5565b9150509250925092565b600060208284031215612fa657612fa5612bb1565b5b6000612fb484828501612cf5565b91505092915050565b612fc681612cd4565b82525050565b6000602082019050612fe16000830184612fbd565b92915050565b600060208284031215612ffd57612ffc612bb1565b5b600061300b84828501612cbf565b91505092915050565b600082825260208201905092915050565b7f416363657373436f6e74726f6c3a2063616e206f6e6c792072656e6f756e636560008201527f20726f6c657320666f722073656c660000000000000000000000000000000000602082015250565b6000613081602f83613014565b915061308c82613025565b604082019050919050565b600060208201905081810360008301526130b081613074565b9050919050565b6130c081612c96565b82525050565b60006040820190506130db60008301856130b7565b6130e86020830184612fbd565b9392505050565b6130f881612c40565b811461310357600080fd5b50565b600081519050613115816130ef565b92915050565b60006020828403121561313157613130612bb1565b5b600061313f84828501613106565b91505092915050565b7f4e6f742052756e20696e207468697320536561736f6e00000000000000000000600082015250565b600061317e601683613014565b915061318982613148565b602082019050919050565b600060208201905081810360008301526131ad81613171565b9050919050565b6000815190506131c381612ca8565b92915050565b6000602082840312156131df576131de612bb1565b5b60006131ed848285016131b4565b91505092915050565b7f4e6f204f776e6572000000000000000000000000000000000000000000000000600082015250565b600061322c600883613014565b9150613237826131f6565b602082019050919050565b6000602082019050818103600083015261325b8161321f565b9050919050565b600080fd5b600080fd5b600067ffffffffffffffff82111561328757613286612d25565b5b61329082612d14565b9050602081019050919050565b60005b838110156132bb5780820151818401526020810190506132a0565b838111156132ca576000848401525b50505050565b60006132e36132de8461326c565b612d85565b9050828152602081018484840111156132ff576132fe612d0f565b5b61330a84828561329d565b509392505050565b600082601f83011261332757613326612d0a565b5b81516133378482602086016132d0565b91505092915050565b60008151905061334f81612cde565b92915050565b6000610400828403121561336c5761336b613262565b5b613377610400612d85565b9050600082015167ffffffffffffffff81111561339757613396613267565b5b6133a384828501613312565b60008301525060206133b784828501613340565b60208301525060406133cb84828501613340565b60408301525060606133df84828501613340565b60608301525060806133f384828501613340565b60808301525060a061340784828501613340565b60a08301525060c061341b84828501613340565b60c08301525060e061342f84828501613340565b60e08301525061010061344484828501613340565b6101008301525061012061345a84828501613340565b6101208301525061014061347084828501613340565b6101408301525061016061348684828501613340565b6101608301525061018061349c84828501613340565b610180830152506101a06134b284828501613340565b6101a0830152506101c06134c884828501613340565b6101c0830152506101e06134de84828501613340565b6101e0830152506102006134f484828501613340565b6102008301525061022061350a84828501613340565b6102208301525061024061352084828501613340565b6102408301525061026061353684828501613340565b6102608301525061028061354c84828501613340565b610280830152506102a061356284828501613340565b6102a0830152506102c061357884828501613340565b6102c0830152506102e061358e84828501613340565b6102e0830152506103006135a484828501613340565b610300830152506103206135ba84828501613340565b610320830152506103406135d084828501613340565b610340830152506103606135e684828501613340565b610360830152506103806135fc84828501613340565b610380830152506103a061361284828501613340565b6103a0830152506103c0613628848285016131b4565b6103c0830152506103e061363e84828501613340565b6103e08301525092915050565b60006020828403121561366157613660612bb1565b5b600082015167ffffffffffffffff81111561367f5761367e612bb6565b5b61368b84828501613355565b91505092915050565b7f4f6e6c7920647275677320757365000000000000000000000000000000000000600082015250565b60006136ca600e83613014565b91506136d582613694565b602082019050919050565b600060208201905081810360008301526136f9816136bd565b9050919050565b600060208201905061371560008301846130b7565b92915050565b6000610160828403121561373257613731613262565b5b61373d610160612d85565b9050600061374d84828501613340565b600083015250602061376184828501613340565b602083015250604061377584828501613340565b604083015250606061378984828501613340565b606083015250608061379d84828501613340565b60808301525060a06137b184828501613340565b60a08301525060c06137c584828501613340565b60c08301525060e06137d984828501613340565b60e0830152506101006137ee84828501613340565b6101008301525061012061380484828501613340565b6101208301525061014061381a84828501613340565b6101408301525092915050565b6000610160828403121561383e5761383d612bb1565b5b600061384c8482850161371b565b91505092915050565b7f496e73756666696369656e7420416d6f756e7400000000000000000000000000600082015250565b600061388b601383613014565b915061389682613855565b602082019050919050565b600060208201905081810360008301526138ba8161387e565b9050919050565b7f4e487b7100000000000000000000000000000000000000000000000000000000600052601160045260246000fd5b60006138fb82612cd4565b915061390683612cd4565b925082821015613919576139186138c1565b5b828203905092915050565b600061392f82612cd4565b915061393a83612cd4565b9250827fffffffffffffffffffffffffffffffffffffffffffffffffffffffffffffffff0382111561396f5761396e6138c1565b5b828201905092915050565b600061398582612cd4565b91507fffffffffffffffffffffffffffffffffffffffffffffffffffffffffffffffff8214156139b8576139b76138c1565b5b600182019050919050565b6139cc81612cd4565b82525050565b610160820160008201516139e960008501826139c3565b5060208201516139fc60208501826139c3565b506040820151613a0f60408501826139c3565b506060820151613a2260608501826139c3565b506080820151613a3560808501826139c3565b5060a0820151613a4860a08501826139c3565b5060c0820151613a5b60c08501826139c3565b5060e0820151613a6e60e08501826139c3565b50610100820151613a836101008501826139c3565b50610120820151613a986101208501826139c3565b50610140820151613aad6101408501826139c3565b50505050565b600061018082019050613ac960008301856130b7565b613ad660208301846139d2565b9392505050565b600081519050919050565b600082825260208201905092915050565b6000613b0482613add565b613b0e8185613ae8565b9350613b1e81856020860161329d565b613b2781612d14565b840191505092915050565b613b3b81612c96565b82525050565b6000610400830160008301518482036000860152613b5f8282613af9565b9150506020830151613b7460208601826139c3565b506040830151613b8760408601826139c3565b506060830151613b9a60608601826139c3565b506080830151613bad60808601826139c3565b5060a0830151613bc060a08601826139c3565b5060c0830151613bd360c08601826139c3565b5060e0830151613be660e08601826139c3565b50610100830151613bfb6101008601826139c3565b50610120830151613c106101208601826139c3565b50610140830151613c256101408601826139c3565b50610160830151613c3a6101608601826139c3565b50610180830151613c4f6101808601826139c3565b506101a0830151613c646101a08601826139c3565b506101c0830151613c796101c08601826139c3565b506101e0830151613c8e6101e08601826139c3565b50610200830151613ca36102008601826139c3565b50610220830151613cb86102208601826139c3565b50610240830151613ccd6102408601826139c3565b50610260830151613ce26102608601826139c3565b50610280830151613cf76102808601826139c3565b506102a0830151613d0c6102a08601826139c3565b506102c0830151613d216102c08601826139c3565b506102e0830151613d366102e08601826139c3565b50610300830151613d4b6103008601826139c3565b50610320830151613d606103208601826139c3565b50610340830151613d756103408601826139c3565b50610360830151613d8a6103608601826139c3565b50610380830151613d9f6103808601826139c3565b506103a0830151613db46103a08601826139c3565b506103c0830151613dc96103c0860182613b32565b506103e0830151613dde6103e08601826139c3565b508091505092915050565b6000604082019050613dfe6000830185612fbd565b8181036020830152613e108184613b41565b90509392505050565b7f4e6f204578697374730000000000000000000000000000000000000000000000600082015250565b6000613e4f600983613014565b9150613e5a82613e19565b602082019050919050565b60006020820190508181036000830152613e7e81613e42565b9050919050565b600060208284031215613e9b57613e9a612bb1565b5b6000613ea984828501613340565b91505092915050565b7f4572726f7220536561736f6e2049640000000000000000000000000000000000600082015250565b6000613ee8600f83613014565b9150613ef382613eb2565b602082019050919050565b60006020820190508181036000830152613f1781613edb565b9050919050565b7f4e487b7100000000000000000000000000000000000000000000000000000000600052601260045260246000fd5b6000613f5882612cd4565b9150613f6383612cd4565b925082613f7357613f72613f1e565b5b828204905092915050565b7f496e73756666696369656e742042616c616e6365000000000000000000000000600082015250565b6000613fb4601483613014565b9150613fbf82613f7e565b602082019050919050565b60006020820190508181036000830152613fe381613fa7565b9050919050565b6000613ff582612cd4565b915061400083612cd4565b9250817fffffffffffffffffffffffffffffffffffffffffffffffffffffffffffffffff0483118215151615614039576140386138c1565b5b828202905092915050565b7f436861726163746572204e6f7420696e20507269736f6e000000000000000000600082015250565b600061407a601783613014565b915061408582614044565b602082019050919050565b600060208201905081810360008301526140a98161406d565b9050919050565b7f436861726163746572204e6f7420696e20486f7374706974616c000000000000600082015250565b60006140e6601a83613014565b91506140f1826140b0565b602082019050919050565b60006020820190508181036000830152614115816140d9565b9050919050565b7f496e73737566696369656e7420416d6d6f756e74000000000000000000000000600082015250565b6000614152601483613014565b915061415d8261411c565b602082019050919050565b6000602082019050818103600083015261418181614145565b9050919050565b600081905092915050565b7f416363657373436f6e74726f6c3a206163636f756e7420000000000000000000600082015250565b60006141c9601783614188565b91506141d482614193565b601782019050919050565b60006141ea82613add565b6141f48185614188565b935061420481856020860161329d565b80840191505092915050565b7f206973206d697373696e6720726f6c6520000000000000000000000000000000600082015250565b6000614246601183614188565b915061425182614210565b601182019050919050565b6000614267826141bc565b915061427382856141df565b915061427e82614239565b915061428a82846141df565b91508190509392505050565b60006142a182613add565b6142ab8185613014565b93506142bb81856020860161329d565b6142c481612d14565b840191505092915050565b600060208201905081810360008301526142e98184614296565b905092915050565b7f4e487b7100000000000000000000000000000000000000000000000000000000600052603260045260246000fd5b600061432b82612cd4565b9150600082141561433f5761433e6138c1565b5b600182039050919050565b7f537472696e67733a20686578206c656e67746820696e73756666696369656e74600082015250565b6000614380602083613014565b915061438b8261434a565b602082019050919050565b600060208201905081810360008301526143af81614373565b905091905056fea264697066735822122028774f57a2ede38c342ccf1eba9e6fcc5af8aafe42352bbd560fe44927a933cd64736f6c634300080a0033",
  "immutableReferences": {},
  "source": "// SPDX-License-Identifier: UNLICENSED\r\npragma solidity >=0.4.22 <0.9.0;\r\n\r\n/**\r\n * @title SampleBEP20Token\r\n * @dev Very simple BEP20 Token example, where all tokens are pre-assigned to the creator.\r\n * Note they can later distribute these tokens as they wish using `transfer` and other\r\n * `BEP20` functions.\r\n * USE IT ONLY FOR LEARNING PURPOSES. SHOULD BE MODIFIED FOR PRODUCTION\r\n */\r\n\r\nimport \"../../node_modules/@openzeppelin/contracts/token/ERC721/IERC721Receiver.sol\";\r\nimport \"./../utils/Admin.sol\";\r\nimport \"./../utils/Utils.sol\";\r\nimport \"./../utils/CharacterUtils.sol\";\r\n\r\nimport \"./../tokens/Character.sol\";\r\nimport \"./../tokens/GANG.sol\";\r\nimport \"./../tokens/GameItem.sol\";\r\nimport \"./../CoreInGame.sol\";\r\n\r\ncontract HospitalPrison is Admin, IERC721Receiver {\r\n    address private _contractowner;\r\n    address private _secondowner;\r\n\r\n    uint256 private bnbBalance;\r\n\r\n    Utils private utils;\r\n    Character private crimeChar;\r\n    GameItem private crimeItem;\r\n    CoreInGame private game;\r\n\r\n    constructor(Utils _util, Character _character, GameItem _gameItem, CoreInGame _game) Admin()\r\n    {\r\n        _contractowner = msg.sender;\r\n        _secondowner = address(0xbf752Eb4b851B241A36e22767b304ef28242198A);\r\n        bnbBalance = 0;\r\n        crimeChar = _character;\r\n        crimeItem = _gameItem;\r\n        utils = _util;\r\n        game = _game;\r\n\r\n        _setRoleAdmin(DEFAULT_ADMIN_ROLE, DEFAULT_ADMIN_ROLE);\r\n        _setRoleAdmin(DEFAULT_CORE_ROLE, DEFAULT_ADMIN_ROLE);\r\n        _setupRole(DEFAULT_ADMIN_ROLE, msg.sender);\r\n        _setupRole(DEFAULT_ADMIN_ROLE, _secondowner);\r\n    }\r\n\r\n    function onERC721Received(address, address, uint256, bytes memory) public virtual override returns (bytes4) {\r\n        return this.onERC721Received.selector;\r\n    }\r\n\r\n    function supportsInterface(bytes4 interfaceId) public pure returns (bool) {\r\n        return interfaceId == type(IERC721Receiver).interfaceId;\r\n    }\r\n    \r\n    function changeAdmin(address newAdmin) public onlyRole(DEFAULT_ADMIN_ROLE)\r\n    {\r\n        _contractowner = newAdmin;\r\n    }\r\n\r\n    function bnbWithdraw() onlyRole(DEFAULT_ADMIN_ROLE) public\r\n    {\r\n        address payable owner = payable(msg.sender);\r\n        require(bnbBalance > 0, \"Insufficient Balance\");\r\n        owner.transfer(bnbBalance);\r\n    }\r\n\r\n    function getNurseCountDown(uint256 tokenId) public view returns (uint256)\r\n    {\r\n        require(crimeChar.exists(tokenId), \"No Exists\");\r\n        CharacterDetail memory char = crimeChar.getCharacter(tokenId);\r\n\r\n        require(char.seasonId == game.getSeasonId(), \"Error Season Id\");\r\n        uint256 result = 0;\r\n        if(char.nurseTime > block.timestamp)\r\n        {\r\n            uint256 diff= char.nurseTime - block.timestamp;\r\n            diff = diff / (1 days);\r\n            result = diff;\r\n        }\r\n        return result;\r\n    }\r\n\r\n    function getPrisonCountDown(uint256 tokenId) public view returns (uint256)\r\n    {\r\n        require(crimeChar.exists(tokenId), \"No Exists\");\r\n        CharacterDetail memory char = crimeChar.getCharacter(tokenId);\r\n\r\n        require(char.seasonId == game.getSeasonId(), \"Error Season Id\");\r\n        uint256 result = 0;\r\n        if(char.prisonTime > block.timestamp)\r\n        {\r\n            uint256 diff= char.prisonTime - block.timestamp;\r\n            diff = diff / (1 days);\r\n            result = diff;\r\n        }\r\n        return result;\r\n    }\r\n\r\n    function treatAddict(uint256 tokenId) public{\r\n        require(game.checkCharacterCanRunHP(msg.sender, tokenId), \"Not Run in this Season\");\r\n        CharacterDetail memory char = crimeChar.getCharacter(tokenId);\r\n        require(char.vicio > 0, \"Character Not in Hostpital\");\r\n        uint256 totalPrice = utils.getMintPrice() / 40;\r\n        InGame memory acc = game.getIngameAccount(msg.sender);\r\n        require(acc.balance >= totalPrice, \"Insufficient Balance\");\r\n        acc.balance -= totalPrice;\r\n        game.UpdateInGameAccount(msg.sender, acc);\r\n        char.vicio = 0;\r\n        crimeChar.UpdateCharacter(tokenId, char);\r\n    }\r\n    \r\n    function reviveHospital(uint256 tokenId) public{\r\n        require(game.checkCharacterCanRunHP(msg.sender, tokenId), \"Not Run in this Season\");\r\n        CharacterDetail memory char = crimeChar.getCharacter(tokenId);\r\n        require(char.nurseTime > 0, \"Character Not in Hostpital\");\r\n        uint256 totalPrice = char.hospitalPrice;\r\n        InGame memory acc = game.getIngameAccount(msg.sender);\r\n        if(block.timestamp < char.nurseTime)\r\n        {\r\n             require(acc.balance >= totalPrice, \"Insufficient Balance\");\r\n             acc.balance -= totalPrice;\r\n             game.UpdateInGameAccount(msg.sender, acc);\r\n        }\r\n        char.curHp = char.maxHp;\r\n        char.hospitalPrice = 0;\r\n        char.nurseTime = 0;\r\n        crimeChar.UpdateCharacter(tokenId, char);\r\n    }\r\n\r\n    function withdrawPrison(uint256 tokenId) public{\r\n        require(game.checkCharacterCanRunHP(msg.sender, tokenId), \"Not Run in this Season\");\r\n        CharacterDetail memory char = crimeChar.getCharacter(tokenId);\r\n        require(char.prisonTime > 0, \"Character Not in Prison\");\r\n        uint256 totalPrice = char.prisonPrice;\r\n        InGame memory acc = game.getIngameAccount(msg.sender);\r\n        if(block.timestamp < char.prisonTime)\r\n        {\r\n             require(acc.balance >= totalPrice, \"Insufficient Balance\");\r\n             acc.balance -= totalPrice;\r\n             game.UpdateInGameAccount(msg.sender, acc);\r\n        }\r\n        char.prisonPrice = 0;\r\n        char.prisonTime = 0;\r\n        crimeChar.UpdateCharacter(tokenId, char);\r\n    }\r\n\r\n    function getColetePrice(uint256 tokenId) public view returns (uint256)\r\n    {\r\n        CharacterDetail memory char = crimeChar.getCharacter(tokenId);\r\n         return ((utils.getMintPrice() / 40) * char.level);\r\n    }\r\n\r\n    function useItem(uint256 charId, uint256 itemId, uint256 quantity) public\r\n    {\r\n        require(game.checkCharacterCanRunHP(msg.sender, charId), \"Not Run in this Season\");\r\n        require(crimeChar.ownerOf(charId) == msg.sender, \"No Owner\");\r\n        CharacterDetail memory char = crimeChar.getCharacter(charId);\r\n        uint256 hp = 0;\r\n        uint256 vicio = 0;\r\n        require(itemId >= 10 && itemId < 14, \"Only drugs use\");\r\n        InGame memory acc = game.getIngameAccount(msg.sender);\r\n        if(itemId == 10)\r\n        {\r\n            require(acc.beer >= quantity, \"Insufficient Amount\");\r\n            hp = 50;\r\n            vicio = 10;\r\n            acc.beer -= quantity;\r\n        }\r\n        else if(itemId == 11)\r\n        {\r\n            require(acc.cannabis >= quantity, \"Insufficient Amount\");\r\n            hp = 100;\r\n            vicio = 10;\r\n            acc.cannabis -= quantity;\r\n        }\r\n        else if(itemId == 12)\r\n        {\r\n            require(acc.opio >= quantity, \"Insufficient Amount\");\r\n            hp = 200;\r\n            vicio = 15;\r\n            acc.opio -= quantity;\r\n        }\r\n        else\r\n        {\r\n            require(acc.cocaine >= quantity, \"Insufficient Amount\");\r\n            hp = 500;\r\n            vicio = 20;\r\n            acc.cocaine -= quantity;\r\n        }\r\n\r\n        for(uint256 x = 0; x < quantity; x++)\r\n        {\r\n            if((char.curHp + hp) > char.maxHp)\r\n            {\r\n                char.curHp = char.maxHp;\r\n            }\r\n            else char.curHp += hp;\r\n\r\n            if((char.vicio + vicio) > 100)\r\n            {\r\n                char.vicio = 100;\r\n            }\r\n            else char.vicio += vicio;\r\n        }\r\n        game.UpdateInGameAccount(msg.sender, acc);\r\n        crimeChar.UpdateCharacter(charId, char);\r\n    }\r\n\r\n    function activeBulletProof(uint256 tokenId) public {\r\n        require(game.checkCharacterCanRunHP(msg.sender, tokenId), \"Not Run in this Season\");\r\n        CharacterDetail memory char = crimeChar.getCharacter(tokenId);\r\n        uint256 cost = ((utils.getMintPrice() / 40) * char.level);\r\n        InGame memory acc = game.getIngameAccount(msg.sender);\r\n        require(acc.balance >= cost, \"Inssuficient Ammount\");\r\n        uint256 btime = utils.getBlockChainTime();\r\n        if(char.coleteTime > btime)\r\n        {\r\n            char.coleteTime += (5 days);\r\n        }\r\n        else\r\n        {\r\n            char.coleteTime = utils.getBlockChainTime() + (5 days);\r\n        }\r\n        acc.balance -= cost;\r\n        game.UpdateInGameAccount(msg.sender, acc);\r\n        crimeChar.UpdateCharacter(tokenId, char);\r\n    }\r\n}",
  "sourcePath": "C:\\Users\\MMMJR\\Desktop\\BlockChain\\CrimeCity\\contracts\\Features\\HospitalPrison.sol",
  "compiler": {
    "name": "solc",
    "version": "0.8.10+commit.fc410830.Emscripten.clang"
  },
  "schemaVersion": "3.4.3",
  "updatedAt": "2022-10-04T14:10:11.090Z",
  "devdoc": {
    "kind": "dev",
    "methods": {
      "getRoleAdmin(uint256)": {
        "details": "Returns the admin role that controls `role`. See {grantRole} and {revokeRole}. To change a role's admin, use {_setRoleAdmin}."
      },
      "grantRole(uint256,address)": {
        "details": "Grants `role` to `account`. If `account` had not been already granted `role`, emits a {RoleGranted} event. Requirements: - the caller must have ``role``'s admin role."
      },
      "hasRole(uint256,address)": {
        "details": "Returns `true` if `account` has been granted `role`."
      },
      "renounceRole(uint256,address)": {
        "details": "Revokes `role` from the calling account. Roles are often managed via {grantRole} and {revokeRole}: this function's purpose is to provide a mechanism for accounts to lose their privileges if they are compromised (such as when a trusted device is misplaced). If the calling account had been granted `role`, emits a {RoleRevoked} event. Requirements: - the caller must be `account`."
      },
      "revokeRole(uint256,address)": {
        "details": "Revokes `role` from `account`. If `account` had been granted `role`, emits a {RoleRevoked} event. Requirements: - the caller must have ``role``'s admin role."
      }
    },
    "version": 1
  },
  "userdoc": {
    "kind": "user",
    "methods": {},
    "version": 1
  }
}