{
  "contractName": "ItemList",
  "abi": [
    {
      "inputs": [],
      "stateMutability": "nonpayable",
      "type": "constructor"
    },
    {
      "anonymous": false,
      "inputs": [
        {
          "indexed": true,
          "internalType": "uint256",
          "name": "role",
          "type": "uint256"
        },
        {
          "indexed": true,
          "internalType": "uint256",
          "name": "previousAdminRole",
          "type": "uint256"
        },
        {
          "indexed": true,
          "internalType": "uint256",
          "name": "newAdminRole",
          "type": "uint256"
        }
      ],
      "name": "RoleAdminChanged",
      "type": "event"
    },
    {
      "anonymous": false,
      "inputs": [
        {
          "indexed": true,
          "internalType": "uint256",
          "name": "role",
          "type": "uint256"
        },
        {
          "indexed": true,
          "internalType": "address",
          "name": "account",
          "type": "address"
        },
        {
          "indexed": true,
          "internalType": "address",
          "name": "sender",
          "type": "address"
        }
      ],
      "name": "RoleGranted",
      "type": "event"
    },
    {
      "anonymous": false,
      "inputs": [
        {
          "indexed": true,
          "internalType": "uint256",
          "name": "role",
          "type": "uint256"
        },
        {
          "indexed": true,
          "internalType": "address",
          "name": "account",
          "type": "address"
        },
        {
          "indexed": true,
          "internalType": "address",
          "name": "sender",
          "type": "address"
        }
      ],
      "name": "RoleRevoked",
      "type": "event"
    },
    {
      "inputs": [],
      "name": "DEFAULT_ADMIN_ROLE",
      "outputs": [
        {
          "internalType": "uint256",
          "name": "",
          "type": "uint256"
        }
      ],
      "stateMutability": "view",
      "type": "function"
    },
    {
      "inputs": [],
      "name": "DEFAULT_CORE_ROLE",
      "outputs": [
        {
          "internalType": "uint256",
          "name": "",
          "type": "uint256"
        }
      ],
      "stateMutability": "view",
      "type": "function"
    },
    {
      "inputs": [
        {
          "internalType": "uint256",
          "name": "role",
          "type": "uint256"
        }
      ],
      "name": "getRoleAdmin",
      "outputs": [
        {
          "internalType": "uint256",
          "name": "",
          "type": "uint256"
        }
      ],
      "stateMutability": "view",
      "type": "function"
    },
    {
      "inputs": [
        {
          "internalType": "uint256",
          "name": "role",
          "type": "uint256"
        },
        {
          "internalType": "address",
          "name": "account",
          "type": "address"
        }
      ],
      "name": "grantRole",
      "outputs": [],
      "stateMutability": "nonpayable",
      "type": "function"
    },
    {
      "inputs": [
        {
          "internalType": "uint256",
          "name": "role",
          "type": "uint256"
        },
        {
          "internalType": "address",
          "name": "account",
          "type": "address"
        }
      ],
      "name": "hasRole",
      "outputs": [
        {
          "internalType": "bool",
          "name": "",
          "type": "bool"
        }
      ],
      "stateMutability": "view",
      "type": "function"
    },
    {
      "inputs": [
        {
          "internalType": "uint256",
          "name": "role",
          "type": "uint256"
        },
        {
          "internalType": "address",
          "name": "account",
          "type": "address"
        }
      ],
      "name": "renounceRole",
      "outputs": [],
      "stateMutability": "nonpayable",
      "type": "function"
    },
    {
      "inputs": [
        {
          "internalType": "uint256",
          "name": "role",
          "type": "uint256"
        },
        {
          "internalType": "address",
          "name": "account",
          "type": "address"
        }
      ],
      "name": "revokeRole",
      "outputs": [],
      "stateMutability": "nonpayable",
      "type": "function"
    },
    {
      "inputs": [
        {
          "internalType": "address",
          "name": "newAdmin",
          "type": "address"
        }
      ],
      "name": "changeAdmin",
      "outputs": [],
      "stateMutability": "nonpayable",
      "type": "function"
    },
    {
      "inputs": [],
      "name": "getMaxItemList",
      "outputs": [
        {
          "internalType": "uint256",
          "name": "",
          "type": "uint256"
        }
      ],
      "stateMutability": "view",
      "type": "function"
    },
    {
      "inputs": [
        {
          "internalType": "uint256",
          "name": "tokenId",
          "type": "uint256"
        }
      ],
      "name": "CheckMint",
      "outputs": [
        {
          "internalType": "bool",
          "name": "",
          "type": "bool"
        }
      ],
      "stateMutability": "view",
      "type": "function"
    },
    {
      "inputs": [
        {
          "internalType": "uint256",
          "name": "tokenId",
          "type": "uint256"
        }
      ],
      "name": "checkExistItem",
      "outputs": [
        {
          "internalType": "bool",
          "name": "",
          "type": "bool"
        }
      ],
      "stateMutability": "view",
      "type": "function"
    },
    {
      "inputs": [
        {
          "internalType": "uint256",
          "name": "itemId",
          "type": "uint256"
        }
      ],
      "name": "getItemListData",
      "outputs": [
        {
          "components": [
            {
              "internalType": "string",
              "name": "name",
              "type": "string"
            },
            {
              "internalType": "uint256",
              "name": "img",
              "type": "uint256"
            },
            {
              "internalType": "uint256",
              "name": "powerBonus",
              "type": "uint256"
            },
            {
              "internalType": "uint256",
              "name": "strBonus",
              "type": "uint256"
            },
            {
              "internalType": "uint256",
              "name": "intBonus",
              "type": "uint256"
            },
            {
              "internalType": "uint256",
              "name": "chaBonus",
              "type": "uint256"
            },
            {
              "internalType": "uint256",
              "name": "resBonus",
              "type": "uint256"
            },
            {
              "internalType": "uint256",
              "name": "price",
              "type": "uint256"
            },
            {
              "internalType": "bool",
              "name": "canMint",
              "type": "bool"
            }
          ],
          "internalType": "struct _ItemList",
          "name": "",
          "type": "tuple"
        }
      ],
      "stateMutability": "view",
      "type": "function"
    },
    {
      "inputs": [
        {
          "internalType": "int256[]",
          "name": "tokenIds",
          "type": "int256[]"
        }
      ],
      "name": "getAllItemDataByTokenIds",
      "outputs": [
        {
          "components": [
            {
              "internalType": "string",
              "name": "name",
              "type": "string"
            },
            {
              "internalType": "uint256",
              "name": "img",
              "type": "uint256"
            },
            {
              "internalType": "uint256",
              "name": "powerBonus",
              "type": "uint256"
            },
            {
              "internalType": "uint256",
              "name": "strBonus",
              "type": "uint256"
            },
            {
              "internalType": "uint256",
              "name": "intBonus",
              "type": "uint256"
            },
            {
              "internalType": "uint256",
              "name": "chaBonus",
              "type": "uint256"
            },
            {
              "internalType": "uint256",
              "name": "resBonus",
              "type": "uint256"
            },
            {
              "internalType": "uint256",
              "name": "price",
              "type": "uint256"
            },
            {
              "internalType": "bool",
              "name": "canMint",
              "type": "bool"
            }
          ],
          "internalType": "struct _ItemList[]",
          "name": "",
          "type": "tuple[]"
        }
      ],
      "stateMutability": "view",
      "type": "function"
    },
    {
      "inputs": [],
      "name": "getWeaponList",
      "outputs": [
        {
          "internalType": "uint256[]",
          "name": "",
          "type": "uint256[]"
        }
      ],
      "stateMutability": "view",
      "type": "function"
    },
    {
      "inputs": [
        {
          "internalType": "string",
          "name": "name",
          "type": "string"
        },
        {
          "internalType": "uint256",
          "name": "_img",
          "type": "uint256"
        },
        {
          "internalType": "uint256",
          "name": "respect",
          "type": "uint256"
        },
        {
          "internalType": "uint256",
          "name": "_str",
          "type": "uint256"
        },
        {
          "internalType": "uint256",
          "name": "_cha",
          "type": "uint256"
        },
        {
          "internalType": "uint256",
          "name": "_int",
          "type": "uint256"
        },
        {
          "internalType": "uint256",
          "name": "_res",
          "type": "uint256"
        },
        {
          "internalType": "uint256",
          "name": "_price",
          "type": "uint256"
        },
        {
          "internalType": "bool",
          "name": "_canMint",
          "type": "bool"
        }
      ],
      "name": "addItem",
      "outputs": [],
      "stateMutability": "nonpayable",
      "type": "function"
    }
  ],
  "bytecode": "0x6080604052600060035567d02ab486cedc0000600455604051806101400160405280600060ff168152602001600160ff168152602001600260ff168152602001600360ff168152602001600460ff168152602001600560ff168152602001600660ff168152602001600760ff168152602001600860ff168152602001600960ff16815250600590600a620000959291906200146b565b506000600655348015620000a857600080fd5b5073bf752eb4b851b241a36e22767b304ef28242198a600260006101000a81548173ffffffffffffffffffffffffffffffffffffffff021916908373ffffffffffffffffffffffffffffffffffffffff16021790555033600160006101000a81548173ffffffffffffffffffffffffffffffffffffffff021916908373ffffffffffffffffffffffffffffffffffffffff16021790555062000152601e806200127060201b60201c565b62000166601f601e6200127060201b60201c565b62000179601e33620012d360201b60201c565b620001ae601e600260009054906101000a900473ffffffffffffffffffffffffffffffffffffffff16620012d360201b60201c565b6000600a9050600060045490506040518061012001604052806040518060400160405280600c81526020017f4261736562616c6c20626174000000000000000000000000000000000000000081525081526020016000815260200183815260200160008152602001600081526020016000815260200160008152602001602b836200023a9190620015da565b81526020016001151581525060076000808152602001908152602001600020600082015181600001908051906020019062000277929190620014c2565b506020820151816001015560408201518160020155606082015181600301556080820151816004015560a0820151816005015560c0820151816006015560e082015181600701556101008201518160080160006101000a81548160ff021916908315150217905550905050600782620002f1919062001612565b91506040518061012001604052806040518060400160405280600e81526020017f4272617373206b6e75636b6c657300000000000000000000000000000000000081525081526020016001815260200183815260200160008152602001600081526020016000815260200160008152602001602383620003729190620015da565b81526020016001151581525060076000600181526020019081526020016000206000820151816000019080519060200190620003b0929190620014c2565b506020820151816001015560408201518160020155606082015181600301556080820151816004015560a0820151816005015560c0820151816006015560e082015181600701556101008201518160080160006101000a81548160ff021916908315150217905550905050600a826200042a919062001612565b91506040518061012001604052806040518060400160405280600581526020017f4b6e69666500000000000000000000000000000000000000000000000000000081525081526020016002815260200183815260200160008152602001600081526020016000815260200160008152602001601783620004ab9190620015da565b81526020016001151581525060076000600281526020019081526020016000206000820151816000019080519060200190620004e9929190620014c2565b506020820151816001015560408201518160020155606082015181600301556080820151816004015560a0820151816005015560c0820151816006015560e082015181600701556101008201518160080160006101000a81548160ff021916908315150217905550905050600a8262000563919062001612565b91506040518061012001604052806040518060400160405280600781526020017f4772656e6164650000000000000000000000000000000000000000000000000081525081526020016003815260200183815260200160008152602001600081526020016000815260200160008152602001600f83620005e49190620015da565b8152602001600115158152506007600060038152602001908152602001600020600082015181600001908051906020019062000622929190620014c2565b506020820151816001015560408201518160020155606082015181600301556080820151816004015560a0820151816005015560c0820151816006015560e082015181600701556101008201518160080160006101000a81548160ff021916908315150217905550905050600f826200069c919062001612565b91506040518061012001604052806040518060400160405280600581526020017f476c6f636b000000000000000000000000000000000000000000000000000000815250815260200160048152602001838152602001600181526020016001815260200160018152602001600181526020016008836200071d9190620015da565b815260200160011515815250600760006004815260200190815260200160002060008201518160000190805190602001906200075b929190620014c2565b506020820151816001015560408201518160020155606082015181600301556080820151816004015560a0820151816005015560c0820151816006015560e082015181600701556101008201518160080160006101000a81548160ff021916908315150217905550905050600c82620007d5919062001612565b91506040518061012001604052806040518060400160405280600c81526020017f446573657274204561676c65000000000000000000000000000000000000000081525081526020016005815260200183815260200160018152602001600181526020016001815260200160018152602001600683620008569190620015da565b8152602001600115158152506007600060058152602001908152602001600020600082015181600001908051906020019062000894929190620014c2565b506020820151816001015560408201518160020155606082015181600301556080820151816004015560a0820151816005015560c0820151816006015560e082015181600701556101008201518160080160006101000a81548160ff021916908315150217905550905050600c826200090e919062001612565b91506040518061012001604052806040518060400160405280600381526020017f4d50350000000000000000000000000000000000000000000000000000000000815250815260200160068152602001838152602001600281526020016002815260200160028152602001600281526020016003836200098f9190620015da565b81526020016001151581525060076000600681526020019081526020016000206000820151816000019080519060200190620009cd929190620014c2565b506020820151816001015560408201518160020155606082015181600301556080820151816004015560a0820151816005015560c0820151816006015560e082015181600701556101008201518160080160006101000a81548160ff021916908315150217905550905050600a8262000a47919062001612565b91506040518061012001604052806040518060400160405280600381526020017f50393000000000000000000000000000000000000000000000000000000000008152508152602001600781526020018381526020016003815260200160038152602001600381526020016003815260200160028362000ac89190620015da565b8152602001600115158152506007600060078152602001908152602001600020600082015181600001908051906020019062000b06929190620014c2565b506020820151816001015560408201518160020155606082015181600301556080820151816004015560a0820151816005015560c0820151816006015560e082015181600701556101008201518160080160006101000a81548160ff021916908315150217905550905050600c8262000b80919062001612565b91506040518061012001604052806040518060400160405280600481526020017f4d3441310000000000000000000000000000000000000000000000000000000081525081526020016008815260200183815260200160038152602001600381526020016003815260200160038152602001828152602001600115158152506007600060088152602001908152602001600020600082015181600001908051906020019062000c31929190620014c2565b506020820151816001015560408201518160020155606082015181600301556080820151816004015560a0820151816005015560c0820151816006015560e082015181600701556101008201518160080160006101000a81548160ff021916908315150217905550905050600a8262000cab919062001612565b91506040518061012001604052806040518060400160405280600581526020017f414b2d343700000000000000000000000000000000000000000000000000000081525081526020016009815260200183815260200160058152602001600581526020016005815260200160058152602001606460148462000d2e91906200166f565b62000d3a9190620015da565b8362000d47919062001612565b8152602001600115158152506007600060098152602001908152602001600020600082015181600001908051906020019062000d85929190620014c2565b506020820151816001015560408201518160020155606082015181600301556080820151816004015560a0820151816005015560c0820151816006015560e082015181600701556101008201518160080160006101000a81548160ff0219169083151502179055509050506040518061012001604052806040518060400160405280600481526020017f42656572000000000000000000000000000000000000000000000000000000008152508152602001600981526020016000815260200160008152602001600081526020016000815260200160008152602001600081526020016000151581525060076000600a8152602001908152602001600020600082015181600001908051906020019062000ea1929190620014c2565b506020820151816001015560408201518160020155606082015181600301556080820151816004015560a0820151816005015560c0820151816006015560e082015181600701556101008201518160080160006101000a81548160ff0219169083151502179055509050506040518061012001604052806040518060400160405280600881526020017f43616e6e616269730000000000000000000000000000000000000000000000008152508152602001600981526020016000815260200160008152602001600081526020016000815260200160008152602001600081526020016000151581525060076000600b8152602001908152602001600020600082015181600001908051906020019062000fbd929190620014c2565b506020820151816001015560408201518160020155606082015181600301556080820151816004015560a0820151816005015560c0820151816006015560e082015181600701556101008201518160080160006101000a81548160ff0219169083151502179055509050506040518061012001604052806040518060400160405280600481526020017f4f70696f000000000000000000000000000000000000000000000000000000008152508152602001600981526020016000815260200160008152602001600081526020016000815260200160008152602001600081526020016000151581525060076000600c81526020019081526020016000206000820151816000019080519060200190620010d9929190620014c2565b506020820151816001015560408201518160020155606082015181600301556080820151816004015560a0820151816005015560c0820151816006015560e082015181600701556101008201518160080160006101000a81548160ff0219169083151502179055509050506040518061012001604052806040518060400160405280600781526020017f436f6361696e65000000000000000000000000000000000000000000000000008152508152602001600981526020016000815260200160008152602001600081526020016000815260200160008152602001600081526020016000151581525060076000600d81526020019081526020016000206000820151816000019080519060200190620011f5929190620014c2565b506020820151816001015560408201518160020155606082015181600301556080820151816004015560a0820151816005015560c0820151816006015560e082015181600701556101008201518160080160006101000a81548160ff021916908315150217905550905050600e600681905550505062001735565b60006200128383620012e960201b60201c565b905081600080858152602001908152602001600020600101819055508181847f6620dedee755c284a7e221a3279487b734830c1f76c026c797b4d019c6b4b2f460405160405180910390a4505050565b620012e582826200130860201b60201c565b5050565b6000806000838152602001908152602001600020600101549050919050565b6200131a8282620013f960201b60201c565b620013f557600160008084815260200190815260200160002060000160008373ffffffffffffffffffffffffffffffffffffffff1673ffffffffffffffffffffffffffffffffffffffff16815260200190815260200160002060006101000a81548160ff0219169083151502179055506200139a6200146360201b60201c565b73ffffffffffffffffffffffffffffffffffffffff168173ffffffffffffffffffffffffffffffffffffffff16837f1ec1667fba5e43c5c76fff54e76d7a4a20a4fecf7b49724ad8d52a3f726e9dbd60405160405180910390a45b5050565b600080600084815260200190815260200160002060000160008373ffffffffffffffffffffffffffffffffffffffff1673ffffffffffffffffffffffffffffffffffffffff16815260200190815260200160002060009054906101000a900460ff16905092915050565b600033905090565b828054828255906000526020600020908101928215620014af579160200282015b82811115620014ae578251829060ff169055916020019190600101906200148c565b5b509050620014be919062001553565b5090565b828054620014d090620016ff565b90600052602060002090601f016020900481019282620014f4576000855562001540565b82601f106200150f57805160ff191683800117855562001540565b8280016001018555821562001540579182015b828111156200153f57825182559160200191906001019062001522565b5b5090506200154f919062001553565b5090565b5b808211156200156e57600081600090555060010162001554565b5090565b6000819050919050565b7f4e487b7100000000000000000000000000000000000000000000000000000000600052601260045260246000fd5b7f4e487b7100000000000000000000000000000000000000000000000000000000600052601160045260246000fd5b6000620015e78262001572565b9150620015f48362001572565b9250826200160757620016066200157c565b5b828204905092915050565b60006200161f8262001572565b91506200162c8362001572565b9250827fffffffffffffffffffffffffffffffffffffffffffffffffffffffffffffffff03821115620016645762001663620015ab565b5b828201905092915050565b60006200167c8262001572565b9150620016898362001572565b9250817fffffffffffffffffffffffffffffffffffffffffffffffffffffffffffffffff0483118215151615620016c557620016c4620015ab565b5b828202905092915050565b7f4e487b7100000000000000000000000000000000000000000000000000000000600052602260045260246000fd5b600060028204905060018216806200171857607f821691505b602082108114156200172f576200172e620016d0565b5b50919050565b611ded80620017456000396000f3fe608060405234801561001057600080fd5b50600436106100f55760003560e01c80636f45e4e511610097578063c57653bf11610066578063c57653bf14610272578063df524646146102a2578063ec2606c0146102be578063fb2990ad146102ee576100f5565b80636f45e4e5146101ea5780638f28397014610208578063a217fddf14610224578063bbab719a14610242576100f5565b80631fe5f589116100d35780631fe5f589146101645780632308d2361461018057806327d49bfb1461019c5780635c8ced3c146101ba576100f5565b80630394b9ce146100fa578063101a8f79146101185780631d0b19e714610148575b600080fd5b61010261031e565b60405161010f9190611028565b60405180910390f35b610132600480360381019061012d919061108a565b610376565b60405161013f91906110d2565b60405180910390f35b610162600480360381019061015d919061114b565b6103a1565b005b61017e6004803603810190610179919061114b565b6103ca565b005b61019a6004803603810190610195919061114b565b6103f3565b005b6101a4610476565b6040516101b1919061119a565b60405180910390f35b6101d460048036038101906101cf919061108a565b610480565b6040516101e19190611322565b60405180910390f35b6101f26105f8565b6040516101ff919061119a565b60405180910390f35b610222600480360381019061021d9190611344565b6105fd565b005b61022c610655565b604051610239919061119a565b60405180910390f35b61025c600480360381019061025791906114ef565b61065a565b60405161026991906116bf565b60405180910390f35b61028c6004803603810190610287919061108a565b610799565b60405161029991906110d2565b60405180910390f35b6102bc60048036038101906102b791906117c2565b610816565b005b6102d860048036038101906102d3919061114b565b610846565b6040516102e591906110d2565b60405180910390f35b6103086004803603810190610303919061108a565b6108b0565b604051610315919061119a565b60405180910390f35b6060600580548060200260200160405190810160405280929190818152602001828054801561036c57602002820191906000526020600020905b815481526020019060010190808311610358575b5050505050905090565b6000808210158015610389575060065482105b15610397576001905061039c565b600090505b919050565b6103aa826108b0565b6103bb816103b66108cf565b6108d7565b6103c58383610971565b505050565b6103d3826108b0565b6103e4816103df6108cf565b6108d7565b6103ee8383610a52565b505050565b6103fb6108cf565b73ffffffffffffffffffffffffffffffffffffffff168173ffffffffffffffffffffffffffffffffffffffff1614610468576040517f08c379a000000000000000000000000000000000000000000000000000000000815260040161045f9061192b565b60405180910390fd5b6104728282610971565b5050565b6000600654905090565b610488610e6f565b6000821015801561049a575060065482105b6104d9576040517f08c379a00000000000000000000000000000000000000000000000000000000081526004016104d090611997565b60405180910390fd5b6000600760008481526020019081526020016000206040518061012001604052908160008201805461050a906119e6565b80601f0160208091040260200160405190810160405280929190818152602001828054610536906119e6565b80156105835780601f1061055857610100808354040283529160200191610583565b820191906000526020600020905b81548152906001019060200180831161056657829003601f168201915b50505050508152602001600182015481526020016002820154815260200160038201548152602001600482015481526020016005820154815260200160068201548152602001600782015481526020016008820160009054906101000a900460ff161515151581525050905080915050919050565b601f81565b601e6106108161060b6108cf565b6108d7565b81600160006101000a81548173ffffffffffffffffffffffffffffffffffffffff021916908373ffffffffffffffffffffffffffffffffffffffff1602179055505050565b601e81565b606060008251905060008114156106c857600067ffffffffffffffff81111561068657610685611376565b5b6040519080825280602002602001820160405280156106bf57816020015b6106ac610e6f565b8152602001906001900390816106a45790505b50915050610794565b60008167ffffffffffffffff8111156106e4576106e3611376565b5b60405190808252806020026020018201604052801561071d57816020015b61070a610e6f565b8152602001906001900390816107025790505b50905060008060009050600091505b855182121561078c576000821261077957600061074883610480565b90508084838151811061075e5761075d611a18565b5b6020026020010181905250818061077490611a76565b925050505b818061078490611abf565b92505061072c565b829450505050505b919050565b60008082101580156107ac575060065482105b6107eb576040517f08c379a00000000000000000000000000000000000000000000000000000000081526004016107e290611997565b60405180910390fd5b6007600083815260200190815260200160002060080160009054906101000a900460ff169050919050565b601e610829816108246108cf565b6108d7565b61083a8a8a8a8a8a8a8a8a8a610b32565b50505050505050505050565b600080600084815260200190815260200160002060000160008373ffffffffffffffffffffffffffffffffffffffff1673ffffffffffffffffffffffffffffffffffffffff16815260200190815260200160002060009054906101000a900460ff16905092915050565b6000806000838152602001908152602001600020600101549050919050565b600033905090565b6108e18282610846565b61096d576109068173ffffffffffffffffffffffffffffffffffffffff166014610c33565b610911836020610c33565b604051602001610922929190611bdc565b6040516020818303038152906040526040517f08c379a00000000000000000000000000000000000000000000000000000000081526004016109649190611c4f565b60405180910390fd5b5050565b61097b8282610846565b15610a4e57600080600084815260200190815260200160002060000160008373ffffffffffffffffffffffffffffffffffffffff1673ffffffffffffffffffffffffffffffffffffffff16815260200190815260200160002060006101000a81548160ff0219169083151502179055506109f36108cf565b73ffffffffffffffffffffffffffffffffffffffff168173ffffffffffffffffffffffffffffffffffffffff16837fe0df21b65c73c27081b8f042a012b124085b41d78d27b7e3c4780f5650f5ebb860405160405180910390a45b5050565b610a5c8282610846565b610b2e57600160008084815260200190815260200160002060000160008373ffffffffffffffffffffffffffffffffffffffff1673ffffffffffffffffffffffffffffffffffffffff16815260200190815260200160002060006101000a81548160ff021916908315150217905550610ad36108cf565b73ffffffffffffffffffffffffffffffffffffffff168173ffffffffffffffffffffffffffffffffffffffff16837f1ec1667fba5e43c5c76fff54e76d7a4a20a4fecf7b49724ad8d52a3f726e9dbd60405160405180910390a45b5050565b6040518061012001604052808a81526020018981526020018881526020018781526020018681526020018581526020018481526020018381526020018215158152506007600060065481526020019081526020016000206000820151816000019080519060200190610ba5929190610ebd565b506020820151816001015560408201518160020155606082015181600301556080820151816004015560a0820151816005015560c0820151816006015560e082015181600701556101008201518160080160006101000a81548160ff02191690831515021790555090505060066000815480929190610c2390611a76565b9190505550505050505050505050565b606060006002836002610c469190611c71565b610c509190611ccb565b67ffffffffffffffff811115610c6957610c68611376565b5b6040519080825280601f01601f191660200182016040528015610c9b5781602001600182028036833780820191505090505b5090507f300000000000000000000000000000000000000000000000000000000000000081600081518110610cd357610cd2611a18565b5b60200101907effffffffffffffffffffffffffffffffffffffffffffffffffffffffffffff1916908160001a9053507f780000000000000000000000000000000000000000000000000000000000000081600181518110610d3757610d36611a18565b5b60200101907effffffffffffffffffffffffffffffffffffffffffffffffffffffffffffff1916908160001a90535060006001846002610d779190611c71565b610d819190611ccb565b90505b6001811115610e21577f3031323334353637383961626364656600000000000000000000000000000000600f861660108110610dc357610dc2611a18565b5b1a60f81b828281518110610dda57610dd9611a18565b5b60200101907effffffffffffffffffffffffffffffffffffffffffffffffffffffffffffff1916908160001a905350600485901c945080610e1a90611d21565b9050610d84565b5060008414610e65576040517f08c379a0000000000000000000000000000000000000000000000000000000008152600401610e5c90611d97565b60405180910390fd5b8091505092915050565b60405180610120016040528060608152602001600081526020016000815260200160008152602001600081526020016000815260200160008152602001600081526020016000151581525090565b828054610ec9906119e6565b90600052602060002090601f016020900481019282610eeb5760008555610f32565b82601f10610f0457805160ff1916838001178555610f32565b82800160010185558215610f32579182015b82811115610f31578251825591602001919060010190610f16565b5b509050610f3f9190610f43565b5090565b5b80821115610f5c576000816000905550600101610f44565b5090565b600081519050919050565b600082825260208201905092915050565b6000819050602082019050919050565b6000819050919050565b610f9f81610f8c565b82525050565b6000610fb18383610f96565b60208301905092915050565b6000602082019050919050565b6000610fd582610f60565b610fdf8185610f6b565b9350610fea83610f7c565b8060005b8381101561101b5781516110028882610fa5565b975061100d83610fbd565b925050600181019050610fee565b5085935050505092915050565b600060208201905081810360008301526110428184610fca565b905092915050565b6000604051905090565b600080fd5b600080fd5b61106781610f8c565b811461107257600080fd5b50565b6000813590506110848161105e565b92915050565b6000602082840312156110a05761109f611054565b5b60006110ae84828501611075565b91505092915050565b60008115159050919050565b6110cc816110b7565b82525050565b60006020820190506110e760008301846110c3565b92915050565b600073ffffffffffffffffffffffffffffffffffffffff82169050919050565b6000611118826110ed565b9050919050565b6111288161110d565b811461113357600080fd5b50565b6000813590506111458161111f565b92915050565b6000806040838503121561116257611161611054565b5b600061117085828601611075565b925050602061118185828601611136565b9150509250929050565b61119481610f8c565b82525050565b60006020820190506111af600083018461118b565b92915050565b600081519050919050565b600082825260208201905092915050565b60005b838110156111ef5780820151818401526020810190506111d4565b838111156111fe576000848401525b50505050565b6000601f19601f8301169050919050565b6000611220826111b5565b61122a81856111c0565b935061123a8185602086016111d1565b61124381611204565b840191505092915050565b611257816110b7565b82525050565b600061012083016000830151848203600086015261127b8282611215565b91505060208301516112906020860182610f96565b5060408301516112a36040860182610f96565b5060608301516112b66060860182610f96565b5060808301516112c96080860182610f96565b5060a08301516112dc60a0860182610f96565b5060c08301516112ef60c0860182610f96565b5060e083015161130260e0860182610f96565b5061010083015161131761010086018261124e565b508091505092915050565b6000602082019050818103600083015261133c818461125d565b905092915050565b60006020828403121561135a57611359611054565b5b600061136884828501611136565b91505092915050565b600080fd5b7f4e487b7100000000000000000000000000000000000000000000000000000000600052604160045260246000fd5b6113ae82611204565b810181811067ffffffffffffffff821117156113cd576113cc611376565b5b80604052505050565b60006113e061104a565b90506113ec82826113a5565b919050565b600067ffffffffffffffff82111561140c5761140b611376565b5b602082029050602081019050919050565b600080fd5b6000819050919050565b61143581611422565b811461144057600080fd5b50565b6000813590506114528161142c565b92915050565b600061146b611466846113f1565b6113d6565b9050808382526020820190506020840283018581111561148e5761148d61141d565b5b835b818110156114b757806114a38882611443565b845260208401935050602081019050611490565b5050509392505050565b600082601f8301126114d6576114d5611371565b5b81356114e6848260208601611458565b91505092915050565b60006020828403121561150557611504611054565b5b600082013567ffffffffffffffff81111561152357611522611059565b5b61152f848285016114c1565b91505092915050565b600081519050919050565b600082825260208201905092915050565b6000819050602082019050919050565b60006101208301600083015184820360008601526115828282611215565b91505060208301516115976020860182610f96565b5060408301516115aa6040860182610f96565b5060608301516115bd6060860182610f96565b5060808301516115d06080860182610f96565b5060a08301516115e360a0860182610f96565b5060c08301516115f660c0860182610f96565b5060e083015161160960e0860182610f96565b5061010083015161161e61010086018261124e565b508091505092915050565b60006116358383611564565b905092915050565b6000602082019050919050565b600061165582611538565b61165f8185611543565b93508360208202850161167185611554565b8060005b858110156116ad578484038952815161168e8582611629565b94506116998361163d565b925060208a01995050600181019050611675565b50829750879550505050505092915050565b600060208201905081810360008301526116d9818461164a565b905092915050565b600080fd5b600067ffffffffffffffff82111561170157611700611376565b5b61170a82611204565b9050602081019050919050565b82818337600083830152505050565b6000611739611734846116e6565b6113d6565b905082815260208101848484011115611755576117546116e1565b5b611760848285611717565b509392505050565b600082601f83011261177d5761177c611371565b5b813561178d848260208601611726565b91505092915050565b61179f816110b7565b81146117aa57600080fd5b50565b6000813590506117bc81611796565b92915050565b60008060008060008060008060006101208a8c0312156117e5576117e4611054565b5b60008a013567ffffffffffffffff81111561180357611802611059565b5b61180f8c828d01611768565b99505060206118208c828d01611075565b98505060406118318c828d01611075565b97505060606118428c828d01611075565b96505060806118538c828d01611075565b95505060a06118648c828d01611075565b94505060c06118758c828d01611075565b93505060e06118868c828d01611075565b9250506101006118988c828d016117ad565b9150509295985092959850929598565b600082825260208201905092915050565b7f416363657373436f6e74726f6c3a2063616e206f6e6c792072656e6f756e636560008201527f20726f6c657320666f722073656c660000000000000000000000000000000000602082015250565b6000611915602f836118a8565b9150611920826118b9565b604082019050919050565b6000602082019050818103600083015261194481611908565b9050919050565b7f496e70757420496e636f72726563740000000000000000000000000000000000600082015250565b6000611981600f836118a8565b915061198c8261194b565b602082019050919050565b600060208201905081810360008301526119b081611974565b9050919050565b7f4e487b7100000000000000000000000000000000000000000000000000000000600052602260045260246000fd5b600060028204905060018216806119fe57607f821691505b60208210811415611a1257611a116119b7565b5b50919050565b7f4e487b7100000000000000000000000000000000000000000000000000000000600052603260045260246000fd5b7f4e487b7100000000000000000000000000000000000000000000000000000000600052601160045260246000fd5b6000611a8182610f8c565b91507fffffffffffffffffffffffffffffffffffffffffffffffffffffffffffffffff821415611ab457611ab3611a47565b5b600182019050919050565b6000611aca82611422565b91507f7fffffffffffffffffffffffffffffffffffffffffffffffffffffffffffffff821415611afd57611afc611a47565b5b600182019050919050565b600081905092915050565b7f416363657373436f6e74726f6c3a206163636f756e7420000000000000000000600082015250565b6000611b49601783611b08565b9150611b5482611b13565b601782019050919050565b6000611b6a826111b5565b611b748185611b08565b9350611b848185602086016111d1565b80840191505092915050565b7f206973206d697373696e6720726f6c6520000000000000000000000000000000600082015250565b6000611bc6601183611b08565b9150611bd182611b90565b601182019050919050565b6000611be782611b3c565b9150611bf38285611b5f565b9150611bfe82611bb9565b9150611c0a8284611b5f565b91508190509392505050565b6000611c21826111b5565b611c2b81856118a8565b9350611c3b8185602086016111d1565b611c4481611204565b840191505092915050565b60006020820190508181036000830152611c698184611c16565b905092915050565b6000611c7c82610f8c565b9150611c8783610f8c565b9250817fffffffffffffffffffffffffffffffffffffffffffffffffffffffffffffffff0483118215151615611cc057611cbf611a47565b5b828202905092915050565b6000611cd682610f8c565b9150611ce183610f8c565b9250827fffffffffffffffffffffffffffffffffffffffffffffffffffffffffffffffff03821115611d1657611d15611a47565b5b828201905092915050565b6000611d2c82610f8c565b91506000821415611d4057611d3f611a47565b5b600182039050919050565b7f537472696e67733a20686578206c656e67746820696e73756666696369656e74600082015250565b6000611d816020836118a8565b9150611d8c82611d4b565b602082019050919050565b60006020820190508181036000830152611db081611d74565b905091905056fea2646970667358221220882d31548f47329ad53b6f52d3dce929f030cca58410b883405db49c57f73f1864736f6c634300080a0033",
  "immutableReferences": {},
  "source": "// SPDX-License-Identifier: UNLICENSED\r\npragma solidity >=0.4.22 <0.9.0;\r\n\r\n/**\r\n * @title SampleBEP20Token\r\n * @dev Very simple BEP20 Token example, where all tokens are pre-assigned to the creator.\r\n * Note they can later distribute these tokens as they wish using `transfer` and other\r\n * `BEP20` functions.\r\n * USE IT ONLY FOR LEARNING PURPOSES. SHOULD BE MODIFIED FOR PRODUCTION\r\n */\r\n\r\nimport \"../../node_modules/@openzeppelin/contracts/token/ERC721/IERC721Receiver.sol\";\r\n\r\nimport \"./Admin.sol\";\r\n\r\nstruct _ItemList\r\n{\r\n    string name;\r\n    uint256 img;\r\n    uint256 powerBonus;\r\n    uint256 strBonus;\r\n    uint256 intBonus;\r\n    uint256 chaBonus;\r\n    uint256 resBonus;\r\n    uint256 price;\r\n    bool canMint;\r\n}\r\n\r\ncontract ItemList is Admin {\r\n    address private _contractowner;\r\n    address private _secondowner;\r\n\r\n    uint256 private maxItemList = 0;\r\n\r\n    \r\n    uint256 mintPrice = 15000000000000000000;\r\n    \r\n    uint256[] private weapons = [\r\n             0, 1, 2, 3, 4,\r\n             5, 6, 7, 8, 9 ];\r\n\r\n    uint256 private nextId = 0;\r\n\r\n    mapping( uint256 => _ItemList) private _itemList;\r\n\r\n    constructor() Admin()\r\n    {\r\n        _secondowner = address(0xbf752Eb4b851B241A36e22767b304ef28242198A);\r\n        _contractowner = msg.sender;\r\n        _setRoleAdmin(DEFAULT_ADMIN_ROLE, DEFAULT_ADMIN_ROLE);\r\n        _setRoleAdmin(DEFAULT_CORE_ROLE, DEFAULT_ADMIN_ROLE);\r\n        _setupRole(DEFAULT_ADMIN_ROLE, msg.sender);\r\n        _setupRole(DEFAULT_ADMIN_ROLE, _secondowner);\r\n\r\n        uint256 power = 10;\r\n        uint256 r = mintPrice;\r\n\r\n        _itemList[0] = _ItemList(\"Baseball bat\", 0, power, 0, 0, 0, 0, (r / 43), true);\r\n        power += 7;\r\n        _itemList[1] = _ItemList(\"Brass knuckles\", 1, power, 0, 0, 0, 0, (r / 35), true);\r\n        power += 10;\r\n        _itemList[2] = _ItemList(\"Knife\", 2, power, 0, 0, 0, 0, (r / 23), true);\r\n        power += 10;\r\n        _itemList[3] = _ItemList(\"Grenade\", 3, power, 0, 0, 0, 0, (r / 15), true);\r\n        power += 15;\r\n        _itemList[4] = _ItemList(\"Glock\", 4, power, 1, 1, 1, 1, (r / 8), true);\r\n        power += 12;\r\n        _itemList[5] = _ItemList(\"Desert Eagle\", 5, power, 1, 1, 1, 1, (r / 6), true);\r\n        power += 12;\r\n        _itemList[6] = _ItemList(\"MP5\", 6, power, 2, 2, 2, 2, (r / 3), true);\r\n        power += 10;\r\n        _itemList[7] = _ItemList(\"P90\", 7, power, 3, 3, 3, 3, (r / 2), true);\r\n        power += 12;\r\n        _itemList[8] = _ItemList(\"M4A1\", 8, power, 3, 3, 3, 3, r, true);\r\n        power += 10;\r\n        _itemList[9] = _ItemList(\"AK-47\", 9, power, 5, 5, 5, 5, (r + ((r * 20) / 100)), true);\r\n        _itemList[10] = _ItemList(\"Beer\", 9, 0, 0, 0, 0, 0, 0, false);\r\n        _itemList[11] = _ItemList(\"Cannabis\", 9, 0, 0, 0, 0, 0, 0, false);\r\n        _itemList[12] = _ItemList(\"Opio\", 9, 0, 0, 0, 0, 0, 0, false);\r\n        _itemList[13] = _ItemList(\"Cocaine\", 9, 0, 0, 0, 0, 0, 0, false);\r\n        nextId = 14;\r\n    }\r\n\r\n    function changeAdmin(address newAdmin) public onlyRole(DEFAULT_ADMIN_ROLE)\r\n    {\r\n        _contractowner = newAdmin;\r\n    }\r\n\r\n    function getMaxItemList() public view returns (uint256)\r\n    {\r\n        return nextId;\r\n    }\r\n\r\n    function CheckMint(uint256 tokenId) public view returns (bool)\r\n    {\r\n        require(tokenId >= 0 && tokenId < nextId, \"Input Incorrect\");\r\n        return _itemList[tokenId].canMint;\r\n    }\r\n\r\n    function checkExistItem(uint256 tokenId) public view returns (bool)\r\n    {\r\n        if(tokenId >= 0 && tokenId < nextId)\r\n        {\r\n            return true;\r\n        }\r\n        else return false;\r\n    }\r\n\r\n    function getItemListData(uint256 itemId) public view returns (_ItemList memory)\r\n    {\r\n        require(itemId >= 0 && itemId < nextId, \"Input Incorrect\");\r\n        _ItemList memory result = _itemList[itemId];\r\n        return result;\r\n    }\r\n\r\n    function getAllItemDataByTokenIds(int256[] memory tokenIds) public view returns (_ItemList[] memory)\r\n    {\r\n        uint256 tokenCount = tokenIds.length;\r\n\r\n        if(tokenCount == 0)\r\n        {\r\n            return new _ItemList[](0);\r\n        }\r\n        else\r\n        {\r\n            _ItemList[] memory result = new _ItemList[](tokenCount);\r\n            int256 i;\r\n            uint256 resultIndex = 0;\r\n            for(i = 0; i < int256(tokenIds.length); i++)\r\n            {\r\n                if(i >= 0)\r\n                {\r\n                    _ItemList memory itemWeb = getItemListData(uint256(i));\r\n                    result[resultIndex] = itemWeb;\r\n                    resultIndex++;\r\n                }\r\n            }\r\n            return result;\r\n        }\r\n    }\r\n\r\n    function getWeaponList() public view returns (uint256[] memory)\r\n    {\r\n        return weapons;\r\n    }\r\n    \r\n    function addItem(string memory name, uint256 _img, uint256 respect, uint256 _str, uint256 _cha, uint256 _int, uint256 _res, uint256 _price, bool _canMint) onlyRole(DEFAULT_ADMIN_ROLE) public\r\n    {\r\n        _addItem(name, _img, respect, _str, _cha, _int, _res, _price, _canMint);\r\n    }\r\n\r\n    function _addItem(string memory name, uint256 _img, uint256 respect, uint256 _str, uint256 _cha, uint256 _int, uint256 _res, uint256 _price, bool _canMint) internal\r\n    {\r\n        _itemList[nextId] = _ItemList(name, _img, respect, _str, _cha, _int, _res, _price, _canMint);\r\n        nextId++;\r\n    }\r\n}",
  "sourcePath": "C:\\Users\\MMMJR\\Desktop\\BlockChain\\CrimeCity\\contracts\\utils\\ItemList.sol",
  "compiler": {
    "name": "solc",
    "version": "0.8.10+commit.fc410830.Emscripten.clang"
  },
  "schemaVersion": "3.4.3",
  "updatedAt": "2022-10-04T14:10:11.327Z",
  "devdoc": {
    "kind": "dev",
    "methods": {
      "getRoleAdmin(uint256)": {
        "details": "Returns the admin role that controls `role`. See {grantRole} and {revokeRole}. To change a role's admin, use {_setRoleAdmin}."
      },
      "grantRole(uint256,address)": {
        "details": "Grants `role` to `account`. If `account` had not been already granted `role`, emits a {RoleGranted} event. Requirements: - the caller must have ``role``'s admin role."
      },
      "hasRole(uint256,address)": {
        "details": "Returns `true` if `account` has been granted `role`."
      },
      "renounceRole(uint256,address)": {
        "details": "Revokes `role` from the calling account. Roles are often managed via {grantRole} and {revokeRole}: this function's purpose is to provide a mechanism for accounts to lose their privileges if they are compromised (such as when a trusted device is misplaced). If the calling account had been granted `role`, emits a {RoleRevoked} event. Requirements: - the caller must be `account`."
      },
      "revokeRole(uint256,address)": {
        "details": "Revokes `role` from `account`. If `account` had been granted `role`, emits a {RoleRevoked} event. Requirements: - the caller must have ``role``'s admin role."
      }
    },
    "version": 1
  },
  "userdoc": {
    "kind": "user",
    "methods": {},
    "version": 1
  }
}