{
  "contractName": "PvP",
  "abi": [
    {
      "inputs": [
        {
          "internalType": "contract Utils",
          "name": "_util",
          "type": "address"
        },
        {
          "internalType": "contract Character",
          "name": "_character",
          "type": "address"
        },
        {
          "internalType": "contract GameItem",
          "name": "_gameItem",
          "type": "address"
        },
        {
          "internalType": "contract CharacterUtils",
          "name": "_charUtils",
          "type": "address"
        },
        {
          "internalType": "contract CoreInGame",
          "name": "_game",
          "type": "address"
        }
      ],
      "stateMutability": "nonpayable",
      "type": "constructor"
    },
    {
      "anonymous": false,
      "inputs": [
        {
          "indexed": true,
          "internalType": "uint256",
          "name": "role",
          "type": "uint256"
        },
        {
          "indexed": true,
          "internalType": "uint256",
          "name": "previousAdminRole",
          "type": "uint256"
        },
        {
          "indexed": true,
          "internalType": "uint256",
          "name": "newAdminRole",
          "type": "uint256"
        }
      ],
      "name": "RoleAdminChanged",
      "type": "event"
    },
    {
      "anonymous": false,
      "inputs": [
        {
          "indexed": true,
          "internalType": "uint256",
          "name": "role",
          "type": "uint256"
        },
        {
          "indexed": true,
          "internalType": "address",
          "name": "account",
          "type": "address"
        },
        {
          "indexed": true,
          "internalType": "address",
          "name": "sender",
          "type": "address"
        }
      ],
      "name": "RoleGranted",
      "type": "event"
    },
    {
      "anonymous": false,
      "inputs": [
        {
          "indexed": true,
          "internalType": "uint256",
          "name": "role",
          "type": "uint256"
        },
        {
          "indexed": true,
          "internalType": "address",
          "name": "account",
          "type": "address"
        },
        {
          "indexed": true,
          "internalType": "address",
          "name": "sender",
          "type": "address"
        }
      ],
      "name": "RoleRevoked",
      "type": "event"
    },
    {
      "inputs": [],
      "name": "DEFAULT_ADMIN_ROLE",
      "outputs": [
        {
          "internalType": "uint256",
          "name": "",
          "type": "uint256"
        }
      ],
      "stateMutability": "view",
      "type": "function"
    },
    {
      "inputs": [],
      "name": "DEFAULT_CORE_ROLE",
      "outputs": [
        {
          "internalType": "uint256",
          "name": "",
          "type": "uint256"
        }
      ],
      "stateMutability": "view",
      "type": "function"
    },
    {
      "inputs": [
        {
          "internalType": "uint256",
          "name": "role",
          "type": "uint256"
        }
      ],
      "name": "getRoleAdmin",
      "outputs": [
        {
          "internalType": "uint256",
          "name": "",
          "type": "uint256"
        }
      ],
      "stateMutability": "view",
      "type": "function"
    },
    {
      "inputs": [
        {
          "internalType": "uint256",
          "name": "role",
          "type": "uint256"
        },
        {
          "internalType": "address",
          "name": "account",
          "type": "address"
        }
      ],
      "name": "grantRole",
      "outputs": [],
      "stateMutability": "nonpayable",
      "type": "function"
    },
    {
      "inputs": [
        {
          "internalType": "uint256",
          "name": "role",
          "type": "uint256"
        },
        {
          "internalType": "address",
          "name": "account",
          "type": "address"
        }
      ],
      "name": "hasRole",
      "outputs": [
        {
          "internalType": "bool",
          "name": "",
          "type": "bool"
        }
      ],
      "stateMutability": "view",
      "type": "function"
    },
    {
      "inputs": [
        {
          "internalType": "uint256",
          "name": "role",
          "type": "uint256"
        },
        {
          "internalType": "address",
          "name": "account",
          "type": "address"
        }
      ],
      "name": "renounceRole",
      "outputs": [],
      "stateMutability": "nonpayable",
      "type": "function"
    },
    {
      "inputs": [
        {
          "internalType": "uint256",
          "name": "role",
          "type": "uint256"
        },
        {
          "internalType": "address",
          "name": "account",
          "type": "address"
        }
      ],
      "name": "revokeRole",
      "outputs": [],
      "stateMutability": "nonpayable",
      "type": "function"
    },
    {
      "inputs": [
        {
          "internalType": "address",
          "name": "",
          "type": "address"
        },
        {
          "internalType": "address",
          "name": "",
          "type": "address"
        },
        {
          "internalType": "uint256",
          "name": "",
          "type": "uint256"
        },
        {
          "internalType": "bytes",
          "name": "",
          "type": "bytes"
        }
      ],
      "name": "onERC721Received",
      "outputs": [
        {
          "internalType": "bytes4",
          "name": "",
          "type": "bytes4"
        }
      ],
      "stateMutability": "nonpayable",
      "type": "function"
    },
    {
      "inputs": [
        {
          "internalType": "address",
          "name": "newAdmin",
          "type": "address"
        }
      ],
      "name": "changeAdmin",
      "outputs": [],
      "stateMutability": "nonpayable",
      "type": "function"
    },
    {
      "inputs": [
        {
          "internalType": "bytes4",
          "name": "interfaceId",
          "type": "bytes4"
        }
      ],
      "name": "supportsInterface",
      "outputs": [
        {
          "internalType": "bool",
          "name": "",
          "type": "bool"
        }
      ],
      "stateMutability": "pure",
      "type": "function"
    },
    {
      "inputs": [],
      "name": "bnbWithdraw",
      "outputs": [],
      "stateMutability": "nonpayable",
      "type": "function"
    },
    {
      "inputs": [
        {
          "internalType": "uint256",
          "name": "tokenId",
          "type": "uint256"
        },
        {
          "internalType": "uint256",
          "name": "defenseId",
          "type": "uint256"
        }
      ],
      "name": "beginPvP",
      "outputs": [
        {
          "internalType": "uint256",
          "name": "",
          "type": "uint256"
        }
      ],
      "stateMutability": "nonpayable",
      "type": "function"
    },
    {
      "inputs": [
        {
          "internalType": "uint256",
          "name": "tokenId",
          "type": "uint256"
        }
      ],
      "name": "getPvPCountDown",
      "outputs": [
        {
          "internalType": "uint256",
          "name": "",
          "type": "uint256"
        }
      ],
      "stateMutability": "view",
      "type": "function"
    },
    {
      "inputs": [
        {
          "components": [
            {
              "internalType": "string",
              "name": "name",
              "type": "string"
            },
            {
              "internalType": "uint256",
              "name": "class",
              "type": "uint256"
            },
            {
              "internalType": "uint256",
              "name": "rarity",
              "type": "uint256"
            },
            {
              "internalType": "uint256",
              "name": "respect",
              "type": "uint256"
            },
            {
              "internalType": "uint256",
              "name": "vicio",
              "type": "uint256"
            },
            {
              "internalType": "uint256",
              "name": "power",
              "type": "uint256"
            },
            {
              "internalType": "uint256",
              "name": "level",
              "type": "uint256"
            },
            {
              "internalType": "uint256",
              "name": "exp",
              "type": "uint256"
            },
            {
              "internalType": "uint256",
              "name": "maxHp",
              "type": "uint256"
            },
            {
              "internalType": "uint256",
              "name": "curHp",
              "type": "uint256"
            },
            {
              "internalType": "uint256",
              "name": "_str",
              "type": "uint256"
            },
            {
              "internalType": "uint256",
              "name": "_int",
              "type": "uint256"
            },
            {
              "internalType": "uint256",
              "name": "_cha",
              "type": "uint256"
            },
            {
              "internalType": "uint256",
              "name": "_res",
              "type": "uint256"
            },
            {
              "internalType": "uint256",
              "name": "lastExpedition",
              "type": "uint256"
            },
            {
              "internalType": "uint256",
              "name": "lastExpeditionResult",
              "type": "uint256"
            },
            {
              "internalType": "uint256",
              "name": "lastExpeditionRoll",
              "type": "uint256"
            },
            {
              "internalType": "uint256",
              "name": "prisonTime",
              "type": "uint256"
            },
            {
              "internalType": "uint256",
              "name": "nurseTime",
              "type": "uint256"
            },
            {
              "internalType": "uint256",
              "name": "coleteTime",
              "type": "uint256"
            },
            {
              "internalType": "uint256",
              "name": "lastPvP",
              "type": "uint256"
            },
            {
              "internalType": "uint256",
              "name": "lastPvPResult",
              "type": "uint256"
            },
            {
              "internalType": "uint256",
              "name": "lastPvPRoll",
              "type": "uint256"
            },
            {
              "internalType": "uint256",
              "name": "pvpDefeatCount",
              "type": "uint256"
            },
            {
              "internalType": "uint256",
              "name": "pvpDefeatTime",
              "type": "uint256"
            },
            {
              "internalType": "uint256",
              "name": "guildId",
              "type": "uint256"
            },
            {
              "internalType": "uint256",
              "name": "weaponId",
              "type": "uint256"
            },
            {
              "internalType": "uint256",
              "name": "seasonId",
              "type": "uint256"
            },
            {
              "internalType": "uint256",
              "name": "prisonPrice",
              "type": "uint256"
            },
            {
              "internalType": "uint256",
              "name": "hospitalPrice",
              "type": "uint256"
            },
            {
              "internalType": "address",
              "name": "owner",
              "type": "address"
            },
            {
              "internalType": "uint256",
              "name": "tokenId",
              "type": "uint256"
            }
          ],
          "internalType": "struct CharacterDetail",
          "name": "char",
          "type": "tuple"
        },
        {
          "components": [
            {
              "internalType": "string",
              "name": "name",
              "type": "string"
            },
            {
              "internalType": "uint256",
              "name": "class",
              "type": "uint256"
            },
            {
              "internalType": "uint256",
              "name": "rarity",
              "type": "uint256"
            },
            {
              "internalType": "uint256",
              "name": "respect",
              "type": "uint256"
            },
            {
              "internalType": "uint256",
              "name": "vicio",
              "type": "uint256"
            },
            {
              "internalType": "uint256",
              "name": "power",
              "type": "uint256"
            },
            {
              "internalType": "uint256",
              "name": "level",
              "type": "uint256"
            },
            {
              "internalType": "uint256",
              "name": "exp",
              "type": "uint256"
            },
            {
              "internalType": "uint256",
              "name": "maxHp",
              "type": "uint256"
            },
            {
              "internalType": "uint256",
              "name": "curHp",
              "type": "uint256"
            },
            {
              "internalType": "uint256",
              "name": "_str",
              "type": "uint256"
            },
            {
              "internalType": "uint256",
              "name": "_int",
              "type": "uint256"
            },
            {
              "internalType": "uint256",
              "name": "_cha",
              "type": "uint256"
            },
            {
              "internalType": "uint256",
              "name": "_res",
              "type": "uint256"
            },
            {
              "internalType": "uint256",
              "name": "lastExpedition",
              "type": "uint256"
            },
            {
              "internalType": "uint256",
              "name": "lastExpeditionResult",
              "type": "uint256"
            },
            {
              "internalType": "uint256",
              "name": "lastExpeditionRoll",
              "type": "uint256"
            },
            {
              "internalType": "uint256",
              "name": "prisonTime",
              "type": "uint256"
            },
            {
              "internalType": "uint256",
              "name": "nurseTime",
              "type": "uint256"
            },
            {
              "internalType": "uint256",
              "name": "coleteTime",
              "type": "uint256"
            },
            {
              "internalType": "uint256",
              "name": "lastPvP",
              "type": "uint256"
            },
            {
              "internalType": "uint256",
              "name": "lastPvPResult",
              "type": "uint256"
            },
            {
              "internalType": "uint256",
              "name": "lastPvPRoll",
              "type": "uint256"
            },
            {
              "internalType": "uint256",
              "name": "pvpDefeatCount",
              "type": "uint256"
            },
            {
              "internalType": "uint256",
              "name": "pvpDefeatTime",
              "type": "uint256"
            },
            {
              "internalType": "uint256",
              "name": "guildId",
              "type": "uint256"
            },
            {
              "internalType": "uint256",
              "name": "weaponId",
              "type": "uint256"
            },
            {
              "internalType": "uint256",
              "name": "seasonId",
              "type": "uint256"
            },
            {
              "internalType": "uint256",
              "name": "prisonPrice",
              "type": "uint256"
            },
            {
              "internalType": "uint256",
              "name": "hospitalPrice",
              "type": "uint256"
            },
            {
              "internalType": "address",
              "name": "owner",
              "type": "address"
            },
            {
              "internalType": "uint256",
              "name": "tokenId",
              "type": "uint256"
            }
          ],
          "internalType": "struct CharacterDetail",
          "name": "defensor",
          "type": "tuple"
        },
        {
          "internalType": "uint256",
          "name": "vip",
          "type": "uint256"
        }
      ],
      "name": "calculatePvP",
      "outputs": [
        {
          "internalType": "uint256",
          "name": "",
          "type": "uint256"
        }
      ],
      "stateMutability": "nonpayable",
      "type": "function"
    }
  ],
  "bytecode": "0x60806040523480156200001157600080fd5b506040516200407d3803806200407d833981810160405281019062000037919062000621565b33600160006101000a81548173ffffffffffffffffffffffffffffffffffffffff021916908373ffffffffffffffffffffffffffffffffffffffff16021790555073bf752eb4b851b241a36e22767b304ef28242198a600260006101000a81548173ffffffffffffffffffffffffffffffffffffffff021916908373ffffffffffffffffffffffffffffffffffffffff160217905550600060038190555083600560006101000a81548173ffffffffffffffffffffffffffffffffffffffff021916908373ffffffffffffffffffffffffffffffffffffffff16021790555082600760006101000a81548173ffffffffffffffffffffffffffffffffffffffff021916908373ffffffffffffffffffffffffffffffffffffffff16021790555084600460006101000a81548173ffffffffffffffffffffffffffffffffffffffff021916908373ffffffffffffffffffffffffffffffffffffffff16021790555080600860006101000a81548173ffffffffffffffffffffffffffffffffffffffff021916908373ffffffffffffffffffffffffffffffffffffffff16021790555081600660006101000a81548173ffffffffffffffffffffffffffffffffffffffff021916908373ffffffffffffffffffffffffffffffffffffffff1602179055506200022d601e806200029460201b60201c565b62000241601f601e6200029460201b60201c565b62000254601e33620002f760201b60201c565b62000289601e600260009054906101000a900473ffffffffffffffffffffffffffffffffffffffff16620002f760201b60201c565b5050505050620006a9565b6000620002a7836200030d60201b60201c565b905081600080858152602001908152602001600020600101819055508181847f6620dedee755c284a7e221a3279487b734830c1f76c026c797b4d019c6b4b2f460405160405180910390a4505050565b6200030982826200032c60201b60201c565b5050565b6000806000838152602001908152602001600020600101549050919050565b6200033e82826200041d60201b60201c565b6200041957600160008084815260200190815260200160002060000160008373ffffffffffffffffffffffffffffffffffffffff1673ffffffffffffffffffffffffffffffffffffffff16815260200190815260200160002060006101000a81548160ff021916908315150217905550620003be6200048760201b60201c565b73ffffffffffffffffffffffffffffffffffffffff168173ffffffffffffffffffffffffffffffffffffffff16837f1ec1667fba5e43c5c76fff54e76d7a4a20a4fecf7b49724ad8d52a3f726e9dbd60405160405180910390a45b5050565b600080600084815260200190815260200160002060000160008373ffffffffffffffffffffffffffffffffffffffff1673ffffffffffffffffffffffffffffffffffffffff16815260200190815260200160002060009054906101000a900460ff16905092915050565b600033905090565b600080fd5b600073ffffffffffffffffffffffffffffffffffffffff82169050919050565b6000620004c18262000494565b9050919050565b6000620004d582620004b4565b9050919050565b620004e781620004c8565b8114620004f357600080fd5b50565b6000815190506200050781620004dc565b92915050565b60006200051a82620004b4565b9050919050565b6200052c816200050d565b81146200053857600080fd5b50565b6000815190506200054c8162000521565b92915050565b60006200055f82620004b4565b9050919050565b620005718162000552565b81146200057d57600080fd5b50565b600081519050620005918162000566565b92915050565b6000620005a482620004b4565b9050919050565b620005b68162000597565b8114620005c257600080fd5b50565b600081519050620005d681620005ab565b92915050565b6000620005e982620004b4565b9050919050565b620005fb81620005dc565b81146200060757600080fd5b50565b6000815190506200061b81620005f0565b92915050565b600080600080600060a0868803121562000640576200063f6200048f565b5b60006200065088828901620004f6565b955050602062000663888289016200053b565b9450506040620006768882890162000580565b93505060606200068988828901620005c5565b92505060806200069c888289016200060a565b9150509295509295909350565b6139c480620006b96000396000f3fe608060405234801561001057600080fd5b50600436106100ea5760003560e01c80636f45e4e51161008c5780638f283970116100665780638f2839701461025b578063a217fddf14610277578063ec2606c014610295578063fb2990ad146102c5576100ea565b80636f45e4e51461020357806375bbeee71461022157806381135d471461022b576100ea565b80631fe5f589116100c85780631fe5f5891461016b57806321214b44146101875780632308d236146101b7578063379086e1146101d3576100ea565b806301ffc9a7146100ef578063150b7a021461011f5780631d0b19e71461014f575b600080fd5b61010960048036038101906101049190611d58565b6102f5565b6040516101169190611da0565b60405180910390f35b61013960048036038101906101349190611f95565b61035f565b6040516101469190612027565b60405180910390f35b61016960048036038101906101649190612042565b610373565b005b61018560048036038101906101809190612042565b61039c565b005b6101a1600480360381019061019c9190612082565b6103c5565b6040516101ae91906120d1565b60405180910390f35b6101d160048036038101906101cc9190612042565b610e00565b005b6101ed60048036038101906101e8919061248d565b610e83565b6040516101fa91906120d1565b60405180910390f35b61020b61141b565b60405161021891906120d1565b60405180910390f35b610229611420565b005b61024560048036038101906102409190612518565b6114ca565b60405161025291906120d1565b60405180910390f35b61027560048036038101906102709190612545565b611767565b005b61027f6117bf565b60405161028c91906120d1565b60405180910390f35b6102af60048036038101906102aa9190612042565b6117c4565b6040516102bc9190611da0565b60405180910390f35b6102df60048036038101906102da9190612518565b61182e565b6040516102ec91906120d1565b60405180910390f35b60007f150b7a02000000000000000000000000000000000000000000000000000000007bffffffffffffffffffffffffffffffffffffffffffffffffffffffff1916827bffffffffffffffffffffffffffffffffffffffffffffffffffffffff1916149050919050565b600063150b7a0260e01b9050949350505050565b61037c8261182e565b61038d8161038861184d565b611855565b61039783836118ef565b505050565b6103a58261182e565b6103b6816103b161184d565b611855565b6103c083836119d0565b505050565b60003373ffffffffffffffffffffffffffffffffffffffff16600560009054906101000a900473ffffffffffffffffffffffffffffffffffffffff1673ffffffffffffffffffffffffffffffffffffffff16636352211e856040518263ffffffff1660e01b815260040161043991906120d1565b602060405180830381865afa158015610456573d6000803e3d6000fd5b505050506040513d601f19601f8201168201806040525081019061047a9190612587565b73ffffffffffffffffffffffffffffffffffffffff16146104d0576040517f08c379a00000000000000000000000000000000000000000000000000000000081526004016104c790612611565b60405180910390fd5b600860009054906101000a900473ffffffffffffffffffffffffffffffffffffffff1673ffffffffffffffffffffffffffffffffffffffff1663d458716e33856040518363ffffffff1660e01b815260040161052d929190612640565b602060405180830381865afa15801561054a573d6000803e3d6000fd5b505050506040513d601f19601f8201168201806040525081019061056e9190612695565b6105ad576040517f08c379a00000000000000000000000000000000000000000000000000000000081526004016105a49061270e565b60405180910390fd5b6000600560009054906101000a900473ffffffffffffffffffffffffffffffffffffffff1673ffffffffffffffffffffffffffffffffffffffff1663dabb0531856040518263ffffffff1660e01b815260040161060a91906120d1565b600060405180830381865afa158015610627573d6000803e3d6000fd5b505050506040513d6000823e3d601f19601f820116820180604052508101906106509190612adc565b90506000600560009054906101000a900473ffffffffffffffffffffffffffffffffffffffff1673ffffffffffffffffffffffffffffffffffffffff1663dabb0531856040518263ffffffff1660e01b81526004016106af91906120d1565b600060405180830381865afa1580156106cc573d6000803e3d6000fd5b505050506040513d6000823e3d601f19601f820116820180604052508101906106f59190612adc565b905060008261024001511461073f576040517f08c379a000000000000000000000000000000000000000000000000000000000815260040161073690612b71565b60405180910390fd5b600082610220015114610787576040517f08c379a000000000000000000000000000000000000000000000000000000000815260040161077e90612bdd565b60405180910390fd5b816102800151421015806107a057506000826102800151145b6107df576040517f08c379a00000000000000000000000000000000000000000000000000000000081526004016107d690612c49565b60405180910390fd5b600081610300015114806107f857508061030001514210155b610837576040517f08c379a000000000000000000000000000000000000000000000000000000000815260040161082e90612cb5565b60405180910390fd5b62015180426108469190612d04565b82610280018181525050806102e001805180919061086390612d5a565b815250506003816102e0015114801561088157506000816103000151145b156108a45762015180426108959190612d04565b816103000181815250506108dd565b6003816102e001511480156108be57508061030001514210155b156108dc576000816103000181815250506001816102e00181815250505b5b6000600860009054906101000a900473ffffffffffffffffffffffffffffffffffffffff1673ffffffffffffffffffffffffffffffffffffffff1663a65e83c3336040518263ffffffff1660e01b815260040161093a9190612da3565b61016060405180830381865afa158015610958573d6000803e3d6000fd5b505050506040513d601f19601f8201168201806040525081019061097c9190612eca565b905060008160200151141561099657428160200181815250505b60006109a88484846101400151610e83565b90506064811415610cc157600184604001511415610a7a576028600460009054906101000a900473ffffffffffffffffffffffffffffffffffffffff1673ffffffffffffffffffffffffffffffffffffffff1663a7f93ebd6040518163ffffffff1660e01b8152600401602060405180830381865afa158015610a2f573d6000803e3d6000fd5b505050506040513d601f19601f82011682018060405250810190610a539190612ef8565b610a5d9190612f54565b82600001818151610a6e9190612d04565b91508181525050610cc0565b600284604001511415610b4157601e600460009054906101000a900473ffffffffffffffffffffffffffffffffffffffff1673ffffffffffffffffffffffffffffffffffffffff1663a7f93ebd6040518163ffffffff1660e01b8152600401602060405180830381865afa158015610af6573d6000803e3d6000fd5b505050506040513d601f19601f82011682018060405250810190610b1a9190612ef8565b610b249190612f54565b82600001818151610b359190612d04565b91508181525050610cbf565b600384604001511415610c08576014600460009054906101000a900473ffffffffffffffffffffffffffffffffffffffff1673ffffffffffffffffffffffffffffffffffffffff1663a7f93ebd6040518163ffffffff1660e01b8152600401602060405180830381865afa158015610bbd573d6000803e3d6000fd5b505050506040513d601f19601f82011682018060405250810190610be19190612ef8565b610beb9190612f54565b82600001818151610bfc9190612d04565b91508181525050610cbe565b600d600460009054906101000a900473ffffffffffffffffffffffffffffffffffffffff1673ffffffffffffffffffffffffffffffffffffffff1663a7f93ebd6040518163ffffffff1660e01b8152600401602060405180830381865afa158015610c77573d6000803e3d6000fd5b505050506040513d601f19601f82011682018060405250810190610c9b9190612ef8565b610ca59190612f54565b82600001818151610cb69190612d04565b915081815250505b5b5b5b600860009054906101000a900473ffffffffffffffffffffffffffffffffffffffff1673ffffffffffffffffffffffffffffffffffffffff1663a28fe11333846040518363ffffffff1660e01b8152600401610d1e929190613075565b600060405180830381600087803b158015610d3857600080fd5b505af1158015610d4c573d6000803e3d6000fd5b50505050600660009054906101000a900473ffffffffffffffffffffffffffffffffffffffff1673ffffffffffffffffffffffffffffffffffffffff166301033d7a8585846040518463ffffffff1660e01b8152600401610daf939291906133ab565b6020604051808303816000875af1158015610dce573d6000803e3d6000fd5b505050506040513d601f19601f82011682018060405250810190610df29190612ef8565b508094505050505092915050565b610e0861184d565b73ffffffffffffffffffffffffffffffffffffffff168173ffffffffffffffffffffffffffffffffffffffff1614610e75576040517f08c379a0000000000000000000000000000000000000000000000000000000008152600401610e6c90613462565b60405180910390fd5b610e7f82826118ef565b5050565b600080600090506000600467ffffffffffffffff811115610ea757610ea6611e6a565b5b604051908082528060200260200182016040528015610ed55781602001602082028036833780820191505090505b50905085610140015181600081518110610ef257610ef1613482565b5b60200260200101818152505085610160015181600181518110610f1857610f17613482565b5b60200260200101818152505085610180015181600281518110610f3e57610f3d613482565b5b602002602001018181525050856101a0015181600381518110610f6457610f63613482565b5b6020026020010181815250506000600467ffffffffffffffff811115610f8d57610f8c611e6a565b5b604051908082528060200260200182016040528015610fbb5781602001602082028036833780820191505090505b50905085610140015181600081518110610fd857610fd7613482565b5b60200260200101818152505085610160015181600181518110610ffe57610ffd613482565b5b6020026020010181815250508561018001518160028151811061102457611023613482565b5b602002602001018181525050856101a001518160038151811061104a57611049613482565b5b60200260200101818152505060006001886020015161106991906134b1565b905060006001886020015161107e91906134b1565b90506000600460009054906101000a900473ffffffffffffffffffffffffffffffffffffffff1673ffffffffffffffffffffffffffffffffffffffff16632530c90560146040518263ffffffff1660e01b81526004016110de919061352a565b6020604051808303816000875af11580156110fd573d6000803e3d6000fd5b505050506040513d601f19601f820116820180604052508101906111219190612ef8565b8a60c0015186858151811061113957611138613482565b5b602002602001015161114b9190612d04565b6111559190612d04565b90506004886111649190613545565b8161116f9190612d04565b90506000600460009054906101000a900473ffffffffffffffffffffffffffffffffffffffff1673ffffffffffffffffffffffffffffffffffffffff16632530c905600f6040518263ffffffff1660e01b81526004016111cf91906135da565b6020604051808303816000875af11580156111ee573d6000803e3d6000fd5b505050506040513d601f19601f820116820180604052508101906112129190612ef8565b8a60c0015186858151811061122a57611229613482565b5b602002602001015161123c9190612d04565b6112469190612d04565b905060008183111561132f57818361125e91906134b1565b9050601981111561126e57601990505b6000600460009054906101000a900473ffffffffffffffffffffffffffffffffffffffff1673ffffffffffffffffffffffffffffffffffffffff16632530c90560646040518263ffffffff1660e01b81526004016112cc9190613630565b6020604051808303816000875af11580156112eb573d6000803e3d6000fd5b505050506040513d601f19601f8201168201806040525081019061130f9190612ef8565b905081603761131e9190612d04565b811161132957606498505b50611409565b828261133b91906134b1565b9050601981111561134b57601990505b6000600460009054906101000a900473ffffffffffffffffffffffffffffffffffffffff1673ffffffffffffffffffffffffffffffffffffffff16632530c90560646040518263ffffffff1660e01b81526004016113a99190613630565b6020604051808303816000875af11580156113c8573d6000803e3d6000fd5b505050506040513d601f19601f820116820180604052508101906113ec9190612ef8565b90508160286113fb9190612d04565b81111561140757606498505b505b87985050505050505050509392505050565b601f81565b601e6114338161142e61184d565b611855565b600033905060006003541161147d576040517f08c379a000000000000000000000000000000000000000000000000000000000815260040161147490613697565b60405180910390fd5b8073ffffffffffffffffffffffffffffffffffffffff166108fc6003549081150290604051600060405180830381858888f193505050501580156114c5573d6000803e3d6000fd5b505050565b6000600560009054906101000a900473ffffffffffffffffffffffffffffffffffffffff1673ffffffffffffffffffffffffffffffffffffffff16634f558e79836040518263ffffffff1660e01b815260040161152791906120d1565b602060405180830381865afa158015611544573d6000803e3d6000fd5b505050506040513d601f19601f820116820180604052508101906115689190612695565b6115a7576040517f08c379a000000000000000000000000000000000000000000000000000000000815260040161159e90613703565b60405180910390fd5b6000600560009054906101000a900473ffffffffffffffffffffffffffffffffffffffff1673ffffffffffffffffffffffffffffffffffffffff1663dabb0531846040518263ffffffff1660e01b815260040161160491906120d1565b600060405180830381865afa158015611621573d6000803e3d6000fd5b505050506040513d6000823e3d601f19601f8201168201806040525081019061164a9190612adc565b9050600860009054906101000a900473ffffffffffffffffffffffffffffffffffffffff1673ffffffffffffffffffffffffffffffffffffffff1663f7a6ab8e6040518163ffffffff1660e01b8152600401602060405180830381865afa1580156116b9573d6000803e3d6000fd5b505050506040513d601f19601f820116820180604052508101906116dd9190612ef8565b81610360015114611723576040517f08c379a000000000000000000000000000000000000000000000000000000000815260040161171a9061376f565b60405180910390fd5b600042826102800151111561175d5760004283610280015161174591906134b1565b905062015180816117569190612f54565b9050809150505b8092505050919050565b601e61177a8161177561184d565b611855565b81600160006101000a81548173ffffffffffffffffffffffffffffffffffffffff021916908373ffffffffffffffffffffffffffffffffffffffff1602179055505050565b601e81565b600080600084815260200190815260200160002060000160008373ffffffffffffffffffffffffffffffffffffffff1673ffffffffffffffffffffffffffffffffffffffff16815260200190815260200160002060009054906101000a900460ff16905092915050565b6000806000838152602001908152602001600020600101549050919050565b600033905090565b61185f82826117c4565b6118eb576118848173ffffffffffffffffffffffffffffffffffffffff166014611ab0565b61188f836020611ab0565b6040516020016118a0929190613863565b6040516020818303038152906040526040517f08c379a00000000000000000000000000000000000000000000000000000000081526004016118e291906138d6565b60405180910390fd5b5050565b6118f982826117c4565b156119cc57600080600084815260200190815260200160002060000160008373ffffffffffffffffffffffffffffffffffffffff1673ffffffffffffffffffffffffffffffffffffffff16815260200190815260200160002060006101000a81548160ff02191690831515021790555061197161184d565b73ffffffffffffffffffffffffffffffffffffffff168173ffffffffffffffffffffffffffffffffffffffff16837fe0df21b65c73c27081b8f042a012b124085b41d78d27b7e3c4780f5650f5ebb860405160405180910390a45b5050565b6119da82826117c4565b611aac57600160008084815260200190815260200160002060000160008373ffffffffffffffffffffffffffffffffffffffff1673ffffffffffffffffffffffffffffffffffffffff16815260200190815260200160002060006101000a81548160ff021916908315150217905550611a5161184d565b73ffffffffffffffffffffffffffffffffffffffff168173ffffffffffffffffffffffffffffffffffffffff16837f1ec1667fba5e43c5c76fff54e76d7a4a20a4fecf7b49724ad8d52a3f726e9dbd60405160405180910390a45b5050565b606060006002836002611ac39190613545565b611acd9190612d04565b67ffffffffffffffff811115611ae657611ae5611e6a565b5b6040519080825280601f01601f191660200182016040528015611b185781602001600182028036833780820191505090505b5090507f300000000000000000000000000000000000000000000000000000000000000081600081518110611b5057611b4f613482565b5b60200101907effffffffffffffffffffffffffffffffffffffffffffffffffffffffffffff1916908160001a9053507f780000000000000000000000000000000000000000000000000000000000000081600181518110611bb457611bb3613482565b5b60200101907effffffffffffffffffffffffffffffffffffffffffffffffffffffffffffff1916908160001a90535060006001846002611bf49190613545565b611bfe9190612d04565b90505b6001811115611c9e577f3031323334353637383961626364656600000000000000000000000000000000600f861660108110611c4057611c3f613482565b5b1a60f81b828281518110611c5757611c56613482565b5b60200101907effffffffffffffffffffffffffffffffffffffffffffffffffffffffffffff1916908160001a905350600485901c945080611c97906138f8565b9050611c01565b5060008414611ce2576040517f08c379a0000000000000000000000000000000000000000000000000000000008152600401611cd99061396e565b60405180910390fd5b8091505092915050565b6000604051905090565b600080fd5b600080fd5b60007fffffffff0000000000000000000000000000000000000000000000000000000082169050919050565b611d3581611d00565b8114611d4057600080fd5b50565b600081359050611d5281611d2c565b92915050565b600060208284031215611d6e57611d6d611cf6565b5b6000611d7c84828501611d43565b91505092915050565b60008115159050919050565b611d9a81611d85565b82525050565b6000602082019050611db56000830184611d91565b92915050565b600073ffffffffffffffffffffffffffffffffffffffff82169050919050565b6000611de682611dbb565b9050919050565b611df681611ddb565b8114611e0157600080fd5b50565b600081359050611e1381611ded565b92915050565b6000819050919050565b611e2c81611e19565b8114611e3757600080fd5b50565b600081359050611e4981611e23565b92915050565b600080fd5b600080fd5b6000601f19601f8301169050919050565b7f4e487b7100000000000000000000000000000000000000000000000000000000600052604160045260246000fd5b611ea282611e59565b810181811067ffffffffffffffff82111715611ec157611ec0611e6a565b5b80604052505050565b6000611ed4611cec565b9050611ee08282611e99565b919050565b600067ffffffffffffffff821115611f0057611eff611e6a565b5b611f0982611e59565b9050602081019050919050565b82818337600083830152505050565b6000611f38611f3384611ee5565b611eca565b905082815260208101848484011115611f5457611f53611e54565b5b611f5f848285611f16565b509392505050565b600082601f830112611f7c57611f7b611e4f565b5b8135611f8c848260208601611f25565b91505092915050565b60008060008060808587031215611faf57611fae611cf6565b5b6000611fbd87828801611e04565b9450506020611fce87828801611e04565b9350506040611fdf87828801611e3a565b925050606085013567ffffffffffffffff81111561200057611fff611cfb565b5b61200c87828801611f67565b91505092959194509250565b61202181611d00565b82525050565b600060208201905061203c6000830184612018565b92915050565b6000806040838503121561205957612058611cf6565b5b600061206785828601611e3a565b925050602061207885828601611e04565b9150509250929050565b6000806040838503121561209957612098611cf6565b5b60006120a785828601611e3a565b92505060206120b885828601611e3a565b9150509250929050565b6120cb81611e19565b82525050565b60006020820190506120e660008301846120c2565b92915050565b600080fd5b600080fd5b600067ffffffffffffffff82111561211157612110611e6a565b5b61211a82611e59565b9050602081019050919050565b600061213a612135846120f6565b611eca565b90508281526020810184848401111561215657612155611e54565b5b612161848285611f16565b509392505050565b600082601f83011261217e5761217d611e4f565b5b813561218e848260208601612127565b91505092915050565b600061040082840312156121ae576121ad6120ec565b5b6121b9610400611eca565b9050600082013567ffffffffffffffff8111156121d9576121d86120f1565b5b6121e584828501612169565b60008301525060206121f984828501611e3a565b602083015250604061220d84828501611e3a565b604083015250606061222184828501611e3a565b606083015250608061223584828501611e3a565b60808301525060a061224984828501611e3a565b60a08301525060c061225d84828501611e3a565b60c08301525060e061227184828501611e3a565b60e08301525061010061228684828501611e3a565b6101008301525061012061229c84828501611e3a565b610120830152506101406122b284828501611e3a565b610140830152506101606122c884828501611e3a565b610160830152506101806122de84828501611e3a565b610180830152506101a06122f484828501611e3a565b6101a0830152506101c061230a84828501611e3a565b6101c0830152506101e061232084828501611e3a565b6101e08301525061020061233684828501611e3a565b6102008301525061022061234c84828501611e3a565b6102208301525061024061236284828501611e3a565b6102408301525061026061237884828501611e3a565b6102608301525061028061238e84828501611e3a565b610280830152506102a06123a484828501611e3a565b6102a0830152506102c06123ba84828501611e3a565b6102c0830152506102e06123d084828501611e3a565b6102e0830152506103006123e684828501611e3a565b610300830152506103206123fc84828501611e3a565b6103208301525061034061241284828501611e3a565b6103408301525061036061242884828501611e3a565b6103608301525061038061243e84828501611e3a565b610380830152506103a061245484828501611e3a565b6103a0830152506103c061246a84828501611e04565b6103c0830152506103e061248084828501611e3a565b6103e08301525092915050565b6000806000606084860312156124a6576124a5611cf6565b5b600084013567ffffffffffffffff8111156124c4576124c3611cfb565b5b6124d086828701612197565b935050602084013567ffffffffffffffff8111156124f1576124f0611cfb565b5b6124fd86828701612197565b925050604061250e86828701611e3a565b9150509250925092565b60006020828403121561252e5761252d611cf6565b5b600061253c84828501611e3a565b91505092915050565b60006020828403121561255b5761255a611cf6565b5b600061256984828501611e04565b91505092915050565b60008151905061258181611ded565b92915050565b60006020828403121561259d5761259c611cf6565b5b60006125ab84828501612572565b91505092915050565b600082825260208201905092915050565b7f4572726f72203100000000000000000000000000000000000000000000000000600082015250565b60006125fb6007836125b4565b9150612606826125c5565b602082019050919050565b6000602082019050818103600083015261262a816125ee565b9050919050565b61263a81611ddb565b82525050565b60006040820190506126556000830185612631565b61266260208301846120c2565b9392505050565b61267281611d85565b811461267d57600080fd5b50565b60008151905061268f81612669565b92915050565b6000602082840312156126ab576126aa611cf6565b5b60006126b984828501612680565b91505092915050565b7f4e6f742052756e20696e207468697320536561736f6e00000000000000000000600082015250565b60006126f86016836125b4565b9150612703826126c2565b602082019050919050565b60006020820190508181036000830152612727816126eb565b9050919050565b60005b8381101561274c578082015181840152602081019050612731565b8381111561275b576000848401525b50505050565b600061277461276f846120f6565b611eca565b9050828152602081018484840111156127905761278f611e54565b5b61279b84828561272e565b509392505050565b600082601f8301126127b8576127b7611e4f565b5b81516127c8848260208601612761565b91505092915050565b6000815190506127e081611e23565b92915050565b600061040082840312156127fd576127fc6120ec565b5b612808610400611eca565b9050600082015167ffffffffffffffff811115612828576128276120f1565b5b612834848285016127a3565b6000830152506020612848848285016127d1565b602083015250604061285c848285016127d1565b6040830152506060612870848285016127d1565b6060830152506080612884848285016127d1565b60808301525060a0612898848285016127d1565b60a08301525060c06128ac848285016127d1565b60c08301525060e06128c0848285016127d1565b60e0830152506101006128d5848285016127d1565b610100830152506101206128eb848285016127d1565b61012083015250610140612901848285016127d1565b61014083015250610160612917848285016127d1565b6101608301525061018061292d848285016127d1565b610180830152506101a0612943848285016127d1565b6101a0830152506101c0612959848285016127d1565b6101c0830152506101e061296f848285016127d1565b6101e083015250610200612985848285016127d1565b6102008301525061022061299b848285016127d1565b610220830152506102406129b1848285016127d1565b610240830152506102606129c7848285016127d1565b610260830152506102806129dd848285016127d1565b610280830152506102a06129f3848285016127d1565b6102a0830152506102c0612a09848285016127d1565b6102c0830152506102e0612a1f848285016127d1565b6102e083015250610300612a35848285016127d1565b61030083015250610320612a4b848285016127d1565b61032083015250610340612a61848285016127d1565b61034083015250610360612a77848285016127d1565b61036083015250610380612a8d848285016127d1565b610380830152506103a0612aa3848285016127d1565b6103a0830152506103c0612ab984828501612572565b6103c0830152506103e0612acf848285016127d1565b6103e08301525092915050565b600060208284031215612af257612af1611cf6565b5b600082015167ffffffffffffffff811115612b1057612b0f611cfb565b5b612b1c848285016127e6565b91505092915050565b7f43686172616374657220696e20486f73706974616c0000000000000000000000600082015250565b6000612b5b6015836125b4565b9150612b6682612b25565b602082019050919050565b60006020820190508181036000830152612b8a81612b4e565b9050919050565b7f43686172616374657220696e20507269736f6e00000000000000000000000000600082015250565b6000612bc76013836125b4565b9150612bd282612b91565b602082019050919050565b60006020820190508181036000830152612bf681612bba565b9050919050565b7f4f6e652070657220446179000000000000000000000000000000000000000000600082015250565b6000612c33600b836125b4565b9150612c3e82612bfd565b602082019050919050565b60006020820190508181036000830152612c6281612c26565b9050919050565b7f546f6d6f72726f7720796f752063616e20646f20746869730000000000000000600082015250565b6000612c9f6018836125b4565b9150612caa82612c69565b602082019050919050565b60006020820190508181036000830152612cce81612c92565b9050919050565b7f4e487b7100000000000000000000000000000000000000000000000000000000600052601160045260246000fd5b6000612d0f82611e19565b9150612d1a83611e19565b9250827fffffffffffffffffffffffffffffffffffffffffffffffffffffffffffffffff03821115612d4f57612d4e612cd5565b5b828201905092915050565b6000612d6582611e19565b91507fffffffffffffffffffffffffffffffffffffffffffffffffffffffffffffffff821415612d9857612d97612cd5565b5b600182019050919050565b6000602082019050612db86000830184612631565b92915050565b60006101608284031215612dd557612dd46120ec565b5b612de0610160611eca565b90506000612df0848285016127d1565b6000830152506020612e04848285016127d1565b6020830152506040612e18848285016127d1565b6040830152506060612e2c848285016127d1565b6060830152506080612e40848285016127d1565b60808301525060a0612e54848285016127d1565b60a08301525060c0612e68848285016127d1565b60c08301525060e0612e7c848285016127d1565b60e083015250610100612e91848285016127d1565b61010083015250610120612ea7848285016127d1565b61012083015250610140612ebd848285016127d1565b6101408301525092915050565b60006101608284031215612ee157612ee0611cf6565b5b6000612eef84828501612dbe565b91505092915050565b600060208284031215612f0e57612f0d611cf6565b5b6000612f1c848285016127d1565b91505092915050565b7f4e487b7100000000000000000000000000000000000000000000000000000000600052601260045260246000fd5b6000612f5f82611e19565b9150612f6a83611e19565b925082612f7a57612f79612f25565b5b828204905092915050565b612f8e81611e19565b82525050565b61016082016000820151612fab6000850182612f85565b506020820151612fbe6020850182612f85565b506040820151612fd16040850182612f85565b506060820151612fe46060850182612f85565b506080820151612ff76080850182612f85565b5060a082015161300a60a0850182612f85565b5060c082015161301d60c0850182612f85565b5060e082015161303060e0850182612f85565b50610100820151613045610100850182612f85565b5061012082015161305a610120850182612f85565b5061014082015161306f610140850182612f85565b50505050565b60006101808201905061308b6000830185612631565b6130986020830184612f94565b9392505050565b600081519050919050565b600082825260208201905092915050565b60006130c68261309f565b6130d081856130aa565b93506130e081856020860161272e565b6130e981611e59565b840191505092915050565b6130fd81611ddb565b82525050565b600061040083016000830151848203600086015261312182826130bb565b91505060208301516131366020860182612f85565b5060408301516131496040860182612f85565b50606083015161315c6060860182612f85565b50608083015161316f6080860182612f85565b5060a083015161318260a0860182612f85565b5060c083015161319560c0860182612f85565b5060e08301516131a860e0860182612f85565b506101008301516131bd610100860182612f85565b506101208301516131d2610120860182612f85565b506101408301516131e7610140860182612f85565b506101608301516131fc610160860182612f85565b50610180830151613211610180860182612f85565b506101a08301516132266101a0860182612f85565b506101c083015161323b6101c0860182612f85565b506101e08301516132506101e0860182612f85565b50610200830151613265610200860182612f85565b5061022083015161327a610220860182612f85565b5061024083015161328f610240860182612f85565b506102608301516132a4610260860182612f85565b506102808301516132b9610280860182612f85565b506102a08301516132ce6102a0860182612f85565b506102c08301516132e36102c0860182612f85565b506102e08301516132f86102e0860182612f85565b5061030083015161330d610300860182612f85565b50610320830151613322610320860182612f85565b50610340830151613337610340860182612f85565b5061036083015161334c610360860182612f85565b50610380830151613361610380860182612f85565b506103a08301516133766103a0860182612f85565b506103c083015161338b6103c08601826130f4565b506103e08301516133a06103e0860182612f85565b508091505092915050565b600060608201905081810360008301526133c58186613103565b905081810360208301526133d98185613103565b90506133e860408301846120c2565b949350505050565b7f416363657373436f6e74726f6c3a2063616e206f6e6c792072656e6f756e636560008201527f20726f6c657320666f722073656c660000000000000000000000000000000000602082015250565b600061344c602f836125b4565b9150613457826133f0565b604082019050919050565b6000602082019050818103600083015261347b8161343f565b9050919050565b7f4e487b7100000000000000000000000000000000000000000000000000000000600052603260045260246000fd5b60006134bc82611e19565b91506134c783611e19565b9250828210156134da576134d9612cd5565b5b828203905092915050565b6000819050919050565b6000819050919050565b600061351461350f61350a846134e5565b6134ef565b611e19565b9050919050565b613524816134f9565b82525050565b600060208201905061353f600083018461351b565b92915050565b600061355082611e19565b915061355b83611e19565b9250817fffffffffffffffffffffffffffffffffffffffffffffffffffffffffffffffff048311821515161561359457613593612cd5565b5b828202905092915050565b6000819050919050565b60006135c46135bf6135ba8461359f565b6134ef565b611e19565b9050919050565b6135d4816135a9565b82525050565b60006020820190506135ef60008301846135cb565b92915050565b6000819050919050565b600061361a613615613610846135f5565b6134ef565b611e19565b9050919050565b61362a816135ff565b82525050565b60006020820190506136456000830184613621565b92915050565b7f496e73756666696369656e742042616c616e6365000000000000000000000000600082015250565b60006136816014836125b4565b915061368c8261364b565b602082019050919050565b600060208201905081810360008301526136b081613674565b9050919050565b7f4e6f204578697374730000000000000000000000000000000000000000000000600082015250565b60006136ed6009836125b4565b91506136f8826136b7565b602082019050919050565b6000602082019050818103600083015261371c816136e0565b9050919050565b7f4572726f7220536561736f6e2049640000000000000000000000000000000000600082015250565b6000613759600f836125b4565b915061376482613723565b602082019050919050565b600060208201905081810360008301526137888161374c565b9050919050565b600081905092915050565b7f416363657373436f6e74726f6c3a206163636f756e7420000000000000000000600082015250565b60006137d060178361378f565b91506137db8261379a565b601782019050919050565b60006137f18261309f565b6137fb818561378f565b935061380b81856020860161272e565b80840191505092915050565b7f206973206d697373696e6720726f6c6520000000000000000000000000000000600082015250565b600061384d60118361378f565b915061385882613817565b601182019050919050565b600061386e826137c3565b915061387a82856137e6565b915061388582613840565b915061389182846137e6565b91508190509392505050565b60006138a88261309f565b6138b281856125b4565b93506138c281856020860161272e565b6138cb81611e59565b840191505092915050565b600060208201905081810360008301526138f0818461389d565b905092915050565b600061390382611e19565b9150600082141561391757613916612cd5565b5b600182039050919050565b7f537472696e67733a20686578206c656e67746820696e73756666696369656e74600082015250565b60006139586020836125b4565b915061396382613922565b602082019050919050565b600060208201905081810360008301526139878161394b565b905091905056fea26469706673582212203e206aa7a3eb3508c17589408b749de9d585392152f8af4a76f47005db270bbc64736f6c634300080a0033",
  "immutableReferences": {},
  "source": "// SPDX-License-Identifier: UNLICENSED\r\npragma solidity >=0.4.22 <0.9.0;\r\n\r\n/**\r\n * @title SampleBEP20Token\r\n * @dev Very simple BEP20 Token example, where all tokens are pre-assigned to the creator.\r\n * Note they can later distribute these tokens as they wish using `transfer` and other\r\n * `BEP20` functions.\r\n * USE IT ONLY FOR LEARNING PURPOSES. SHOULD BE MODIFIED FOR PRODUCTION\r\n */\r\n\r\nimport \"../../node_modules/@openzeppelin/contracts/token/ERC721/IERC721Receiver.sol\";\r\nimport \"./../utils/Admin.sol\";\r\nimport \"./../utils/Utils.sol\";\r\nimport \"./../utils/CharacterUtils.sol\";\r\n\r\nimport \"./../tokens/Character.sol\";\r\nimport \"./../tokens/GANG.sol\";\r\nimport \"./../tokens/GameItem.sol\";\r\nimport \"./../CoreInGame.sol\";\r\n\r\ncontract PvP is Admin, IERC721Receiver {\r\n    address private _contractowner;\r\n    address private _secondowner;\r\n\r\n    uint256 private bnbBalance;\r\n\r\n    Utils private utils;\r\n    Character private crimeChar;\r\n    CharacterUtils private charUtils;\r\n    GameItem private crimeItem;\r\n    CoreInGame private game;\r\n\r\n    constructor(Utils _util, Character _character, GameItem _gameItem, CharacterUtils _charUtils, CoreInGame _game) Admin()\r\n    {\r\n        _contractowner = msg.sender;\r\n        _secondowner = address(0xbf752Eb4b851B241A36e22767b304ef28242198A);\r\n        bnbBalance = 0;\r\n        crimeChar = _character;\r\n        crimeItem = _gameItem;\r\n        utils = _util;\r\n        game = _game;\r\n        charUtils = _charUtils;\r\n\r\n        _setRoleAdmin(DEFAULT_ADMIN_ROLE, DEFAULT_ADMIN_ROLE);\r\n        _setRoleAdmin(DEFAULT_CORE_ROLE, DEFAULT_ADMIN_ROLE);\r\n        _setupRole(DEFAULT_ADMIN_ROLE, msg.sender);\r\n        _setupRole(DEFAULT_ADMIN_ROLE, _secondowner);\r\n    }\r\n\r\n    function onERC721Received(address, address, uint256, bytes memory) public virtual override returns (bytes4) {\r\n        return this.onERC721Received.selector;\r\n    }\r\n\r\n    function changeAdmin(address newAdmin) public onlyRole(DEFAULT_ADMIN_ROLE)\r\n    {\r\n        _contractowner = newAdmin;\r\n    }\r\n\r\n    function supportsInterface(bytes4 interfaceId) public pure returns (bool) {\r\n        return interfaceId == type(IERC721Receiver).interfaceId;\r\n    }\r\n\r\n    function bnbWithdraw() onlyRole(DEFAULT_ADMIN_ROLE) public\r\n    {\r\n        address payable owner = payable(msg.sender);\r\n        require(bnbBalance > 0, \"Insufficient Balance\");\r\n        owner.transfer(bnbBalance);\r\n    }\r\n\r\n    function beginPvP(uint256 tokenId, uint256 defenseId) public returns (uint256) {\r\n        require(crimeChar.ownerOf(tokenId) == msg.sender, \"Error 1\");\r\n        require(game.checkCharacterCanRun(msg.sender, tokenId), \"Not Run in this Season\");\r\n\r\n        CharacterDetail memory char = crimeChar.getCharacter(tokenId);\r\n        CharacterDetail memory defensor = crimeChar.getCharacter(defenseId);\r\n\r\n        require(char.nurseTime == 0, \"Character in Hospital\"); //**** *//*\r\n        require(char.prisonTime == 0, \"Character in Prison\");\r\n\r\n        require((block.timestamp >= char.lastPvP) || (char.lastPvP == 0), \"One per Day\"); //LastPvP\r\n\r\n        require((defensor.pvpDefeatTime == 0 || block.timestamp >= defensor.pvpDefeatTime), \"Tomorrow you can do this\"); //no in CD, \r\n\r\n        char.lastPvP = block.timestamp + (1 days);\r\n\r\n        defensor.pvpDefeatCount++;\r\n        if(defensor.pvpDefeatCount == 3 && defensor.pvpDefeatTime == 0)\r\n        {\r\n            defensor.pvpDefeatTime = block.timestamp + (1 days);\r\n        }\r\n        else if(defensor.pvpDefeatCount == 3 && block.timestamp >= defensor.pvpDefeatTime)\r\n        {\r\n            defensor.pvpDefeatTime = 0;\r\n            defensor.pvpDefeatCount = 1;\r\n        }\r\n        InGame memory acc = game.getIngameAccount(msg.sender);\r\n        \r\n        if(acc.claimTime == 0)\r\n        {\r\n            acc.claimTime = block.timestamp;\r\n        }\r\n\r\n        uint256 returnValue = calculatePvP(char, defensor, acc.vip);\r\n\r\n        if(returnValue == 100) \r\n        {\r\n            if(char.rarity == 1) acc.balance += utils.getMintPrice() / 40;\r\n            else if(char.rarity == 2) acc.balance += utils.getMintPrice() / 30;\r\n            else if(char.rarity == 3) acc.balance += utils.getMintPrice() / 20;\r\n            else acc.balance += utils.getMintPrice() / 13;\r\n        }\r\n\r\n        game.UpdateInGameAccount(msg.sender, acc);\r\n\r\n        charUtils.UpdatePvPResult(char, defensor, returnValue);\r\n    \r\n        return returnValue;\r\n    }\r\n\r\n    function getPvPCountDown(uint256 tokenId) public view returns (uint256)\r\n    {\r\n        require(crimeChar.exists(tokenId), \"No Exists\");\r\n        CharacterDetail memory char = crimeChar.getCharacter(tokenId);\r\n\r\n        require(char.seasonId == game.getSeasonId(), \"Error Season Id\");\r\n        uint256 result = 0;\r\n        if(char.lastPvP > block.timestamp)\r\n        {\r\n            uint256 diff= char.lastPvP - block.timestamp;\r\n            diff = diff / (1 days);\r\n            result = diff;\r\n        }\r\n        return result;\r\n    }\r\n\r\n    function calculatePvP(CharacterDetail memory char, CharacterDetail memory defensor, uint256 vip) public returns (uint256) {\r\n        uint256 returnValue = 0;\r\n        uint256[] memory _stats = new uint256[](4);\r\n        _stats[0] = char._str;\r\n        _stats[1] = char._int;\r\n        _stats[2] = char._cha;\r\n        _stats[3] = char._res;\r\n\r\n        uint256[] memory _defensorStats = new uint256[](4);\r\n        _defensorStats[0] = defensor._str;\r\n        _defensorStats[1] = defensor._int;\r\n        _defensorStats[2] = defensor._cha;\r\n        _defensorStats[3] = defensor._res;\r\n\r\n        uint256 astats = char.class - 1;\r\n        uint256 dstats = defensor.class - 1;\r\n        uint256 aPower = (_stats[astats] + char.level + utils.rand(20)); //statprincipal + level + rand\r\n        aPower += vip * 4;\r\n        uint256 bPower = (_defensorStats[dstats] + defensor.level + utils.rand(15));\r\n        uint256 diff = 0;\r\n\r\n        if(aPower > bPower)\r\n        {\r\n            diff = aPower - bPower;\r\n            if(diff > 25) diff = 25;\r\n            uint256 chance = utils.rand(100);\r\n            if(chance <=  (55 + diff))\r\n            {\r\n                returnValue = 100;\r\n            }\r\n        }\r\n        else\r\n        {\r\n            diff = bPower - aPower;\r\n            if(diff > 25) diff = 25;\r\n            uint256 chance = utils.rand(100);\r\n            if(chance > (40 + diff))\r\n            {\r\n                returnValue = 100;\r\n            }\r\n        }\r\n\r\n        return returnValue;\r\n    }\r\n}",
  "sourcePath": "C:\\Users\\MMMJR\\Desktop\\BlockChain\\CrimeCity\\contracts\\Features\\PvP.sol",
  "compiler": {
    "name": "solc",
    "version": "0.8.10+commit.fc410830.Emscripten.clang"
  },
  "schemaVersion": "3.4.3",
  "updatedAt": "2022-10-04T14:10:11.111Z",
  "devdoc": {
    "kind": "dev",
    "methods": {
      "getRoleAdmin(uint256)": {
        "details": "Returns the admin role that controls `role`. See {grantRole} and {revokeRole}. To change a role's admin, use {_setRoleAdmin}."
      },
      "grantRole(uint256,address)": {
        "details": "Grants `role` to `account`. If `account` had not been already granted `role`, emits a {RoleGranted} event. Requirements: - the caller must have ``role``'s admin role."
      },
      "hasRole(uint256,address)": {
        "details": "Returns `true` if `account` has been granted `role`."
      },
      "renounceRole(uint256,address)": {
        "details": "Revokes `role` from the calling account. Roles are often managed via {grantRole} and {revokeRole}: this function's purpose is to provide a mechanism for accounts to lose their privileges if they are compromised (such as when a trusted device is misplaced). If the calling account had been granted `role`, emits a {RoleRevoked} event. Requirements: - the caller must be `account`."
      },
      "revokeRole(uint256,address)": {
        "details": "Revokes `role` from `account`. If `account` had been granted `role`, emits a {RoleRevoked} event. Requirements: - the caller must have ``role``'s admin role."
      }
    },
    "version": 1
  },
  "userdoc": {
    "kind": "user",
    "methods": {},
    "version": 1
  }
}