{
  "contractName": "Robbery",
  "abi": [
    {
      "inputs": [
        {
          "internalType": "contract Utils",
          "name": "_util",
          "type": "address"
        },
        {
          "internalType": "contract Character",
          "name": "_character",
          "type": "address"
        },
        {
          "internalType": "contract GameItem",
          "name": "_gameItem",
          "type": "address"
        },
        {
          "internalType": "contract CharacterUtils",
          "name": "_charUtils",
          "type": "address"
        },
        {
          "internalType": "contract CoreInGame",
          "name": "_game",
          "type": "address"
        }
      ],
      "stateMutability": "nonpayable",
      "type": "constructor"
    },
    {
      "anonymous": false,
      "inputs": [
        {
          "indexed": true,
          "internalType": "uint256",
          "name": "role",
          "type": "uint256"
        },
        {
          "indexed": true,
          "internalType": "uint256",
          "name": "previousAdminRole",
          "type": "uint256"
        },
        {
          "indexed": true,
          "internalType": "uint256",
          "name": "newAdminRole",
          "type": "uint256"
        }
      ],
      "name": "RoleAdminChanged",
      "type": "event"
    },
    {
      "anonymous": false,
      "inputs": [
        {
          "indexed": true,
          "internalType": "uint256",
          "name": "role",
          "type": "uint256"
        },
        {
          "indexed": true,
          "internalType": "address",
          "name": "account",
          "type": "address"
        },
        {
          "indexed": true,
          "internalType": "address",
          "name": "sender",
          "type": "address"
        }
      ],
      "name": "RoleGranted",
      "type": "event"
    },
    {
      "anonymous": false,
      "inputs": [
        {
          "indexed": true,
          "internalType": "uint256",
          "name": "role",
          "type": "uint256"
        },
        {
          "indexed": true,
          "internalType": "address",
          "name": "account",
          "type": "address"
        },
        {
          "indexed": true,
          "internalType": "address",
          "name": "sender",
          "type": "address"
        }
      ],
      "name": "RoleRevoked",
      "type": "event"
    },
    {
      "inputs": [],
      "name": "DEFAULT_ADMIN_ROLE",
      "outputs": [
        {
          "internalType": "uint256",
          "name": "",
          "type": "uint256"
        }
      ],
      "stateMutability": "view",
      "type": "function"
    },
    {
      "inputs": [],
      "name": "DEFAULT_CORE_ROLE",
      "outputs": [
        {
          "internalType": "uint256",
          "name": "",
          "type": "uint256"
        }
      ],
      "stateMutability": "view",
      "type": "function"
    },
    {
      "inputs": [
        {
          "internalType": "uint256",
          "name": "role",
          "type": "uint256"
        }
      ],
      "name": "getRoleAdmin",
      "outputs": [
        {
          "internalType": "uint256",
          "name": "",
          "type": "uint256"
        }
      ],
      "stateMutability": "view",
      "type": "function"
    },
    {
      "inputs": [
        {
          "internalType": "uint256",
          "name": "role",
          "type": "uint256"
        },
        {
          "internalType": "address",
          "name": "account",
          "type": "address"
        }
      ],
      "name": "grantRole",
      "outputs": [],
      "stateMutability": "nonpayable",
      "type": "function"
    },
    {
      "inputs": [
        {
          "internalType": "uint256",
          "name": "role",
          "type": "uint256"
        },
        {
          "internalType": "address",
          "name": "account",
          "type": "address"
        }
      ],
      "name": "hasRole",
      "outputs": [
        {
          "internalType": "bool",
          "name": "",
          "type": "bool"
        }
      ],
      "stateMutability": "view",
      "type": "function"
    },
    {
      "inputs": [
        {
          "internalType": "uint256",
          "name": "role",
          "type": "uint256"
        },
        {
          "internalType": "address",
          "name": "account",
          "type": "address"
        }
      ],
      "name": "renounceRole",
      "outputs": [],
      "stateMutability": "nonpayable",
      "type": "function"
    },
    {
      "inputs": [
        {
          "internalType": "uint256",
          "name": "role",
          "type": "uint256"
        },
        {
          "internalType": "address",
          "name": "account",
          "type": "address"
        }
      ],
      "name": "revokeRole",
      "outputs": [],
      "stateMutability": "nonpayable",
      "type": "function"
    },
    {
      "inputs": [
        {
          "internalType": "address",
          "name": "newAdmin",
          "type": "address"
        }
      ],
      "name": "changeAdmin",
      "outputs": [],
      "stateMutability": "nonpayable",
      "type": "function"
    },
    {
      "inputs": [
        {
          "internalType": "address",
          "name": "",
          "type": "address"
        },
        {
          "internalType": "address",
          "name": "",
          "type": "address"
        },
        {
          "internalType": "uint256",
          "name": "",
          "type": "uint256"
        },
        {
          "internalType": "bytes",
          "name": "",
          "type": "bytes"
        }
      ],
      "name": "onERC721Received",
      "outputs": [
        {
          "internalType": "bytes4",
          "name": "",
          "type": "bytes4"
        }
      ],
      "stateMutability": "nonpayable",
      "type": "function"
    },
    {
      "inputs": [],
      "name": "getRobberyList",
      "outputs": [
        {
          "components": [
            {
              "internalType": "string",
              "name": "name",
              "type": "string"
            },
            {
              "internalType": "uint256",
              "name": "powerReq",
              "type": "uint256"
            },
            {
              "internalType": "uint256",
              "name": "bestStats",
              "type": "uint256"
            },
            {
              "internalType": "uint256",
              "name": "baseChance",
              "type": "uint256"
            },
            {
              "internalType": "uint256",
              "name": "reward",
              "type": "uint256"
            },
            {
              "internalType": "uint256",
              "name": "respectReward",
              "type": "uint256"
            },
            {
              "internalType": "uint256",
              "name": "baseDamage",
              "type": "uint256"
            }
          ],
          "internalType": "struct Robbery.RobberyStruct[]",
          "name": "",
          "type": "tuple[]"
        }
      ],
      "stateMutability": "view",
      "type": "function"
    },
    {
      "inputs": [
        {
          "internalType": "bytes4",
          "name": "interfaceId",
          "type": "bytes4"
        }
      ],
      "name": "supportsInterface",
      "outputs": [
        {
          "internalType": "bool",
          "name": "",
          "type": "bool"
        }
      ],
      "stateMutability": "pure",
      "type": "function"
    },
    {
      "inputs": [],
      "name": "bnbWithdraw",
      "outputs": [],
      "stateMutability": "nonpayable",
      "type": "function"
    },
    {
      "inputs": [
        {
          "internalType": "uint256",
          "name": "tokenId",
          "type": "uint256"
        }
      ],
      "name": "getRobberyCountDown",
      "outputs": [
        {
          "internalType": "uint256",
          "name": "",
          "type": "uint256"
        }
      ],
      "stateMutability": "view",
      "type": "function"
    },
    {
      "inputs": [
        {
          "internalType": "uint256",
          "name": "tokenId",
          "type": "uint256"
        },
        {
          "internalType": "uint256",
          "name": "expeditionId",
          "type": "uint256"
        }
      ],
      "name": "getChanceForRobbery",
      "outputs": [
        {
          "internalType": "uint256",
          "name": "",
          "type": "uint256"
        }
      ],
      "stateMutability": "view",
      "type": "function"
    },
    {
      "inputs": [
        {
          "internalType": "uint256",
          "name": "tokenId",
          "type": "uint256"
        },
        {
          "internalType": "uint256",
          "name": "expeditionId",
          "type": "uint256"
        }
      ],
      "name": "beginRobbery",
      "outputs": [
        {
          "internalType": "uint256",
          "name": "",
          "type": "uint256"
        }
      ],
      "stateMutability": "nonpayable",
      "type": "function"
    },
    {
      "inputs": [
        {
          "components": [
            {
              "internalType": "string",
              "name": "name",
              "type": "string"
            },
            {
              "internalType": "uint256",
              "name": "class",
              "type": "uint256"
            },
            {
              "internalType": "uint256",
              "name": "rarity",
              "type": "uint256"
            },
            {
              "internalType": "uint256",
              "name": "respect",
              "type": "uint256"
            },
            {
              "internalType": "uint256",
              "name": "vicio",
              "type": "uint256"
            },
            {
              "internalType": "uint256",
              "name": "power",
              "type": "uint256"
            },
            {
              "internalType": "uint256",
              "name": "level",
              "type": "uint256"
            },
            {
              "internalType": "uint256",
              "name": "exp",
              "type": "uint256"
            },
            {
              "internalType": "uint256",
              "name": "maxHp",
              "type": "uint256"
            },
            {
              "internalType": "uint256",
              "name": "curHp",
              "type": "uint256"
            },
            {
              "internalType": "uint256",
              "name": "_str",
              "type": "uint256"
            },
            {
              "internalType": "uint256",
              "name": "_int",
              "type": "uint256"
            },
            {
              "internalType": "uint256",
              "name": "_cha",
              "type": "uint256"
            },
            {
              "internalType": "uint256",
              "name": "_res",
              "type": "uint256"
            },
            {
              "internalType": "uint256",
              "name": "lastExpedition",
              "type": "uint256"
            },
            {
              "internalType": "uint256",
              "name": "lastExpeditionResult",
              "type": "uint256"
            },
            {
              "internalType": "uint256",
              "name": "lastExpeditionRoll",
              "type": "uint256"
            },
            {
              "internalType": "uint256",
              "name": "prisonTime",
              "type": "uint256"
            },
            {
              "internalType": "uint256",
              "name": "nurseTime",
              "type": "uint256"
            },
            {
              "internalType": "uint256",
              "name": "coleteTime",
              "type": "uint256"
            },
            {
              "internalType": "uint256",
              "name": "lastPvP",
              "type": "uint256"
            },
            {
              "internalType": "uint256",
              "name": "lastPvPResult",
              "type": "uint256"
            },
            {
              "internalType": "uint256",
              "name": "lastPvPRoll",
              "type": "uint256"
            },
            {
              "internalType": "uint256",
              "name": "pvpDefeatCount",
              "type": "uint256"
            },
            {
              "internalType": "uint256",
              "name": "pvpDefeatTime",
              "type": "uint256"
            },
            {
              "internalType": "uint256",
              "name": "guildId",
              "type": "uint256"
            },
            {
              "internalType": "uint256",
              "name": "weaponId",
              "type": "uint256"
            },
            {
              "internalType": "uint256",
              "name": "seasonId",
              "type": "uint256"
            },
            {
              "internalType": "uint256",
              "name": "prisonPrice",
              "type": "uint256"
            },
            {
              "internalType": "uint256",
              "name": "hospitalPrice",
              "type": "uint256"
            },
            {
              "internalType": "address",
              "name": "owner",
              "type": "address"
            },
            {
              "internalType": "uint256",
              "name": "tokenId",
              "type": "uint256"
            }
          ],
          "internalType": "struct CharacterDetail",
          "name": "char",
          "type": "tuple"
        },
        {
          "internalType": "uint256",
          "name": "expeditionId",
          "type": "uint256"
        },
        {
          "internalType": "uint256",
          "name": "vip",
          "type": "uint256"
        }
      ],
      "name": "calculateRobbery",
      "outputs": [
        {
          "internalType": "uint256[]",
          "name": "",
          "type": "uint256[]"
        }
      ],
      "stateMutability": "nonpayable",
      "type": "function"
    }
  ],
  "bytecode": "0x6080604052600060035567d02ab486cedc00006005553480156200002257600080fd5b5060405162005dcd38038062005dcd833981810160405281019062000048919062001c8d565b73bf752eb4b851b241a36e22767b304ef28242198a600260006101000a81548173ffffffffffffffffffffffffffffffffffffffff021916908373ffffffffffffffffffffffffffffffffffffffff160217905550620000b0601e806200185060201b60201c565b620000c4601f601e6200185060201b60201c565b620000d7601e33620018b360201b60201c565b6200010c601e600260009054906101000a900473ffffffffffffffffffffffffffffffffffffffff16620018b360201b60201c565b6000600760006101000a81548160ff02191690831515021790555033600160006101000a81548173ffffffffffffffffffffffffffffffffffffffff021916908373ffffffffffffffffffffffffffffffffffffffff160217905550600060068190555083600860006101000a81548173ffffffffffffffffffffffffffffffffffffffff021916908373ffffffffffffffffffffffffffffffffffffffff16021790555082600a60006101000a81548173ffffffffffffffffffffffffffffffffffffffff021916908373ffffffffffffffffffffffffffffffffffffffff16021790555084600760016101000a81548173ffffffffffffffffffffffffffffffffffffffff021916908373ffffffffffffffffffffffffffffffffffffffff16021790555080600b60006101000a81548173ffffffffffffffffffffffffffffffffffffffff021916908373ffffffffffffffffffffffffffffffffffffffff16021790555081600960006101000a81548173ffffffffffffffffffffffffffffffffffffffff021916908373ffffffffffffffffffffffffffffffffffffffff1602179055506000600554905060006002905060006005905060146003819055506040518060e001604052806040518060400160405280600b81526020017f24312c39392073746f726500000000000000000000000000000000000000000081525081526020016032815260200160018152602001604b8152602001603c856200033a919062001d7d565b8152602001838152602001828152506004600080815260200190815260200160002060008201518160000190805190602001906200037a92919062001a4b565b506020820151816001015560408201518160020155606082015181600301556080820151816004015560a0820151816005015560c082015181600601559050506040518060e001604052806040518060400160405280601781526020017f4f6c6420776f6d616e206f6e207468652073747265657400000000000000000081525081526020016064815260200160028152602001604b815260200160378562000424919062001d7d565b81526020018381526020016002836200043e919062001db5565b815250600460006001815260200190815260200160002060008201518160000190805190602001906200047392919062001a4b565b506020820151816001015560408201518160020155606082015181600301556080820151816004015560a0820151816005015560c08201518160060155905050600281620004c2919062001e16565b9050601482620004d3919062001e16565b91506040518060e001604052806040518060400160405280600981526020017f43617220526164696f000000000000000000000000000000000000000000000081525081526020016096815260200160038152602001604b81526020016032856200053f919062001d7d565b815260200183815260200160028362000559919062001db5565b815250600460006002815260200190815260200160002060008201518160000190805190602001906200058e92919062001a4b565b506020820151816001015560408201518160020155606082015181600301556080820151816004015560a0820151816005015560c08201518160060155905050600281620005dd919062001e16565b9050601482620005ee919062001e16565b91506040518060e001604052806040518060400160405280600481526020017f5461786900000000000000000000000000000000000000000000000000000000815250815260200160c8815260200160048152602001604b8152602001602d856200065a919062001d7d565b815260200183815260200160028362000674919062001db5565b81525060046000600381526020019081526020016000206000820151816000019080519060200190620006a992919062001a4b565b506020820151816001015560408201518160020155606082015181600301556080820151816004015560a0820151816005015560c08201518160060155905050600281620006f8919062001e16565b905060148262000709919062001e16565b91506040518060e001604052806040518060400160405280600d81526020017f537465616c206120686f75736500000000000000000000000000000000000000815250815260200160e18152602001600181526020016049815260200160288562000775919062001d7d565b81526020018381526020016002836200078f919062001db5565b81525060046000600481526020019081526020016000206000820151816000019080519060200190620007c492919062001a4b565b506020820151816001015560408201518160020155606082015181600301556080820151816004015560a0820151816005015560c0820151816006015590505060028162000813919062001e16565b905060148262000824919062001e16565b91506040518060e001604052806040518060400160405280600b81526020017f4761732053746174696f6e00000000000000000000000000000000000000000081525081526020016101138152602001600281526020016046815260200160238562000891919062001d7d565b8152602001838152602001600283620008ab919062001db5565b81525060046000600581526020019081526020016000206000820151816000019080519060200190620008e092919062001a4b565b506020820151816001015560408201518160020155606082015181600301556080820151816004015560a0820151816005015560c082015181600601559050506002816200092f919062001e16565b905060148262000940919062001e16565b91506040518060e001604052806040518060400160405280600d81526020017f546f626163636f2073746f726500000000000000000000000000000000000000815250815260200161014581526020016003815260200160418152602001602085620009ad919062001d7d565b8152602001838152602001600283620009c7919062001db5565b81525060046000600681526020019081526020016000206000820151816000019080519060200190620009fc92919062001a4b565b506020820151816001015560408201518160020155606082015181600301556080820151816004015560a0820151816005015560c0820151816006015590505060028162000a4b919062001e16565b905060148262000a5c919062001e16565b91506040518060e001604052806040518060400160405280600681526020017f4b69646e617000000000000000000000000000000000000000000000000000008152508152602001610177815260200160048152602001603f8152602001601c8562000ac9919062001d7d565b815260200183815260200160028362000ae3919062001db5565b8152506004600060078152602001908152602001600020600082015181600001908051906020019062000b1892919062001a4b565b506020820151816001015560408201518160020155606082015181600301556080820151816004015560a0820151816005015560c0820151816006015590505060028162000b67919062001e16565b905060148262000b78919062001e16565b91506040518060e001604052806040518060400160405280600d81526020017f4a6577656c72792053746f72650000000000000000000000000000000000000081525081526020016101a9815260200160018152602001603c815260200160188562000be5919062001d7d565b815260200183815260200160028362000bff919062001db5565b8152506004600060088152602001908152602001600020600082015181600001908051906020019062000c3492919062001a4b565b506020820151816001015560408201518160020155606082015181600301556080820151816004015560a0820151816005015560c0820151816006015590505060048162000c83919062001e16565b905060148262000c94919062001e16565b91506040518060e001604052806040518060400160405280600a81526020017f536d616c6c2062616e6b0000000000000000000000000000000000000000000081525081526020016101db815260200160028152602001603a815260200160148562000d01919062001d7d565b815260200183815260200160028362000d1b919062001db5565b8152506004600060098152602001908152602001600020600082015181600001908051906020019062000d5092919062001a4b565b506020820151816001015560408201518160020155606082015181600301556080820151816004015560a0820151816005015560c0820151816006015590505060048162000d9f919062001e16565b905060148262000db0919062001e16565b91506040518060e001604052806040518060400160405280600e81526020017f436172206465616c657273686970000000000000000000000000000000000000815250815260200161020d8152602001600381526020016038815260200160108562000e1d919062001d7d565b815260200183815260200160028362000e37919062001db5565b81525060046000600a8152602001908152602001600020600082015181600001908051906020019062000e6c92919062001a4b565b506020820151816001015560408201518160020155606082015181600301556080820151816004015560a0820151816005015560c0820151816006015590505060088162000ebb919062001e16565b905060148262000ecc919062001e16565b91506040518060e001604052806040518060400160405280600b81526020017f4c6f63616c207468756773000000000000000000000000000000000000000000815250815260200161023f81526020016004815260200160368152602001600c8562000f39919062001d7d565b815260200183815260200160028362000f53919062001db5565b81525060046000600b8152602001908152602001600020600082015181600001908051906020019062000f8892919062001a4b565b506020820151816001015560408201518160020155606082015181600301556080820151816004015560a0820151816005015560c0820151816006015590505060088162000fd7919062001e16565b905060148262000fe8919062001e16565b91506040518060e001604052806040518060400160405280600c81526020017f53616665206465706f736974000000000000000000000000000000000000000081525081526020016102718152602001600181526020016034815260200160098562001055919062001d7d565b81526020018381526020016002836200106f919062001db5565b81525060046000600c81526020019081526020016000206000820151816000019080519060200190620010a492919062001a4b565b506020820151816001015560408201518160020155606082015181600301556080820151816004015560a0820151816005015560c08201518160060155905050600881620010f3919062001e16565b905060148262001104919062001e16565b91506040518060e001604052806040518060400160405280600481526020017f436c75620000000000000000000000000000000000000000000000000000000081525081526020016102a38152602001600281526020016032815260200160068562001171919062001d7d565b81526020018381526020016002836200118b919062001db5565b81525060046000600d81526020019081526020016000206000820151816000019080519060200190620011c092919062001a4b565b506020820151816001015560408201518160020155606082015181600301556080820151816004015560a0820151816005015560c082015181600601559050506008816200120f919062001e16565b905060148262001220919062001e16565b91506040518060e001604052806040518060400160405280600881526020017f49542073746f726500000000000000000000000000000000000000000000000081525081526020016102d5815260200160038152602001603181526020016004856200128d919062001d7d565b8152602001838152602001600283620012a7919062001db5565b81525060046000600e81526020019081526020016000206000820151816000019080519060200190620012dc92919062001a4b565b506020820151816001015560408201518160020155606082015181600301556080820151816004015560a0820151816005015560c082015181600601559050506008816200132b919062001e16565b90506014826200133c919062001e16565b91506040518060e001604052806040518060400160405280601181526020017f4c6f63616c2064727567206465616c65720000000000000000000000000000008152508152602001610307815260200160048152602001602f8152602001600385620013a9919062001d7d565b8152602001838152602001600283620013c3919062001db5565b81525060046000600f81526020019081526020016000206000820151816000019080519060200190620013f892919062001a4b565b506020820151816001015560408201518160020155606082015181600301556080820151816004015560a0820151816005015560c0820151816006015590505060088162001447919062001e16565b905060148262001458919062001e16565b91506040518060e001604052806040518060400160405280601081526020017f4c6f63616c204d6166696120426f7373000000000000000000000000000000008152508152602001610352815260200160018152602001602d8152602001600285620014c5919062001d7d565b8152602001838152602001600283620014df919062001db5565b815250600460006010815260200190815260200160002060008201518160000190805190602001906200151492919062001a4b565b506020820151816001015560408201518160020155606082015181600301556080820151816004015560a0820151816005015560c082015181600601559050506040518060e001604052806040518060400160405280600f81526020017f4e6174696f6e616c204d757365756d00000000000000000000000000000000008152508152602001610352815260200160028152602001602d8152602001600285620015bf919062001d7d565b8152602001838152602001600283620015d9919062001db5565b815250600460006011815260200190815260200160002060008201518160000190805190602001906200160e92919062001a4b565b506020820151816001015560408201518160020155606082015181600301556080820151816004015560a0820151816005015560c082015181600601559050506040518060e001604052806040518060400160405280600681526020017f436173696e6f00000000000000000000000000000000000000000000000000008152508152602001610352815260200160038152602001602d8152602001600285620016b9919062001d7d565b8152602001838152602001600283620016d3919062001db5565b815250600460006012815260200190815260200160002060008201518160000190805190602001906200170892919062001a4b565b506020820151816001015560408201518160020155606082015181600301556080820151816004015560a0820151816005015560c082015181600601559050506040518060e001604052806040518060400160405280601481526020017f527573736f2c204b696e67206f662044727567730000000000000000000000008152508152602001610352815260200160038152602001602d8152602001600285620017b3919062001d7d565b8152602001838152602001600283620017cd919062001db5565b815250600460006013815260200190815260200160002060008201518160000190805190602001906200180292919062001a4b565b506020820151816001015560408201518160020155606082015181600301556080820151816004015560a0820151816005015560c08201518160060155905050505050505050505062001ed8565b60006200186383620018c960201b60201c565b905081600080858152602001908152602001600020600101819055508181847f6620dedee755c284a7e221a3279487b734830c1f76c026c797b4d019c6b4b2f460405160405180910390a4505050565b620018c58282620018e860201b60201c565b5050565b6000806000838152602001908152602001600020600101549050919050565b620018fa8282620019d960201b60201c565b620019d557600160008084815260200190815260200160002060000160008373ffffffffffffffffffffffffffffffffffffffff1673ffffffffffffffffffffffffffffffffffffffff16815260200190815260200160002060006101000a81548160ff0219169083151502179055506200197a62001a4360201b60201c565b73ffffffffffffffffffffffffffffffffffffffff168173ffffffffffffffffffffffffffffffffffffffff16837f1ec1667fba5e43c5c76fff54e76d7a4a20a4fecf7b49724ad8d52a3f726e9dbd60405160405180910390a45b5050565b600080600084815260200190815260200160002060000160008373ffffffffffffffffffffffffffffffffffffffff1673ffffffffffffffffffffffffffffffffffffffff16815260200190815260200160002060009054906101000a900460ff16905092915050565b600033905090565b82805462001a599062001ea2565b90600052602060002090601f01602090048101928262001a7d576000855562001ac9565b82601f1062001a9857805160ff191683800117855562001ac9565b8280016001018555821562001ac9579182015b8281111562001ac857825182559160200191906001019062001aab565b5b50905062001ad8919062001adc565b5090565b5b8082111562001af757600081600090555060010162001add565b5090565b600080fd5b600073ffffffffffffffffffffffffffffffffffffffff82169050919050565b600062001b2d8262001b00565b9050919050565b600062001b418262001b20565b9050919050565b62001b538162001b34565b811462001b5f57600080fd5b50565b60008151905062001b738162001b48565b92915050565b600062001b868262001b20565b9050919050565b62001b988162001b79565b811462001ba457600080fd5b50565b60008151905062001bb88162001b8d565b92915050565b600062001bcb8262001b20565b9050919050565b62001bdd8162001bbe565b811462001be957600080fd5b50565b60008151905062001bfd8162001bd2565b92915050565b600062001c108262001b20565b9050919050565b62001c228162001c03565b811462001c2e57600080fd5b50565b60008151905062001c428162001c17565b92915050565b600062001c558262001b20565b9050919050565b62001c678162001c48565b811462001c7357600080fd5b50565b60008151905062001c878162001c5c565b92915050565b600080600080600060a0868803121562001cac5762001cab62001afb565b5b600062001cbc8882890162001b62565b955050602062001ccf8882890162001ba7565b945050604062001ce28882890162001bec565b935050606062001cf58882890162001c31565b925050608062001d088882890162001c76565b9150509295509295909350565b6000819050919050565b7f4e487b7100000000000000000000000000000000000000000000000000000000600052601260045260246000fd5b7f4e487b7100000000000000000000000000000000000000000000000000000000600052601160045260246000fd5b600062001d8a8262001d15565b915062001d978362001d15565b92508262001daa5762001da962001d1f565b5b828204905092915050565b600062001dc28262001d15565b915062001dcf8362001d15565b9250817fffffffffffffffffffffffffffffffffffffffffffffffffffffffffffffffff048311821515161562001e0b5762001e0a62001d4e565b5b828202905092915050565b600062001e238262001d15565b915062001e308362001d15565b9250827fffffffffffffffffffffffffffffffffffffffffffffffffffffffffffffffff0382111562001e685762001e6762001d4e565b5b828201905092915050565b7f4e487b7100000000000000000000000000000000000000000000000000000000600052602260045260246000fd5b6000600282049050600182168062001ebb57607f821691505b6020821081141562001ed25762001ed162001e73565b5b50919050565b613ee58062001ee86000396000f3fe608060405234801561001057600080fd5b50600436106101005760003560e01c80636f45e4e511610097578063b10beaa911610066578063b10beaa9146102ab578063b4df17eb146102c9578063ec2606c0146102f9578063fb2990ad1461032957610100565b80636f45e4e51461024957806375bbeee7146102675780638f28397014610271578063a217fddf1461028d57610100565b80632308d236116100d35780632308d2361461019d57806339782d02146101b957806350b66e89146101e957806358b5809a1461021957610100565b806301ffc9a714610105578063150b7a02146101355780631d0b19e7146101655780631fe5f58914610181575b600080fd5b61011f600480360381019061011a9190612016565b610359565b60405161012c919061205e565b60405180910390f35b61014f600480360381019061014a9190612253565b6103c3565b60405161015c91906122e5565b60405180910390f35b61017f600480360381019061017a9190612300565b6103d7565b005b61019b60048036038101906101969190612300565b610400565b005b6101b760048036038101906101b29190612300565b610429565b005b6101d360048036038101906101ce9190612340565b6104ac565b6040516101e0919061238f565b60405180910390f35b61020360048036038101906101fe9190612340565b610cfa565b604051610210919061238f565b60405180910390f35b610233600480360381019061022e919061274b565b611156565b6040516102409190612878565b60405180910390f35b610251611510565b60405161025e919061238f565b60405180910390f35b61026f611515565b005b61028b6004803603810190610286919061289a565b6115bf565b005b610295611617565b6040516102a2919061238f565b60405180910390f35b6102b361161c565b6040516102c09190612aad565b60405180910390f35b6102e360048036038101906102de9190612acf565b6117a8565b6040516102f0919061238f565b60405180910390f35b610313600480360381019061030e9190612300565b611a45565b604051610320919061205e565b60405180910390f35b610343600480360381019061033e9190612acf565b611aaf565b604051610350919061238f565b60405180910390f35b60007f150b7a02000000000000000000000000000000000000000000000000000000007bffffffffffffffffffffffffffffffffffffffffffffffffffffffff1916827bffffffffffffffffffffffffffffffffffffffffffffffffffffffff1916149050919050565b600063150b7a0260e01b9050949350505050565b6103e082611aaf565b6103f1816103ec611ace565b611ad6565b6103fb8383611b70565b505050565b61040982611aaf565b61041a81610415611ace565b611ad6565b6104248383611c51565b505050565b610431611ace565b73ffffffffffffffffffffffffffffffffffffffff168173ffffffffffffffffffffffffffffffffffffffff161461049e576040517f08c379a000000000000000000000000000000000000000000000000000000000815260040161049590612b7f565b60405180910390fd5b6104a88282611b70565b5050565b60003373ffffffffffffffffffffffffffffffffffffffff16600860009054906101000a900473ffffffffffffffffffffffffffffffffffffffff1673ffffffffffffffffffffffffffffffffffffffff16636352211e856040518263ffffffff1660e01b8152600401610520919061238f565b602060405180830381865afa15801561053d573d6000803e3d6000fd5b505050506040513d601f19601f820116820180604052508101906105619190612bb4565b73ffffffffffffffffffffffffffffffffffffffff16146105b7576040517f08c379a00000000000000000000000000000000000000000000000000000000081526004016105ae90612c2d565b60405180910390fd5b600082101580156105c9575060035482105b610608576040517f08c379a00000000000000000000000000000000000000000000000000000000081526004016105ff90612c99565b60405180910390fd5b600b60009054906101000a900473ffffffffffffffffffffffffffffffffffffffff1673ffffffffffffffffffffffffffffffffffffffff1663d458716e33856040518363ffffffff1660e01b8152600401610665929190612cc8565b602060405180830381865afa158015610682573d6000803e3d6000fd5b505050506040513d601f19601f820116820180604052508101906106a69190612d1d565b6106e5576040517f08c379a00000000000000000000000000000000000000000000000000000000081526004016106dc90612d96565b60405180910390fd5b6000600860009054906101000a900473ffffffffffffffffffffffffffffffffffffffff1673ffffffffffffffffffffffffffffffffffffffff1663dabb0531856040518263ffffffff1660e01b8152600401610742919061238f565b600060405180830381865afa15801561075f573d6000803e3d6000fd5b505050506040513d6000823e3d601f19601f820116820180604052508101906107889190613131565b9050806101c00151421015806107a357506000816101c00151145b6107e2576040517f08c379a00000000000000000000000000000000000000000000000000000000081526004016107d9906131c6565b60405180910390fd5b60046000848152602001908152602001600020600101548160a00151101561083f576040517f08c379a000000000000000000000000000000000000000000000000000000000815260040161083690613232565b60405180910390fd5b6000600960009054906101000a900473ffffffffffffffffffffffffffffffffffffffff1673ffffffffffffffffffffffffffffffffffffffff16635aef31ac33876040518363ffffffff1660e01b815260040161089e929190612cc8565b6020604051808303816000875af11580156108bd573d6000803e3d6000fd5b505050506040513d601f19601f820116820180604052508101906108e19190613252565b905060008111610926576040517f08c379a000000000000000000000000000000000000000000000000000000000815260040161091d906132cb565b60405180910390fd5b6000600b60009054906101000a900473ffffffffffffffffffffffffffffffffffffffff1673ffffffffffffffffffffffffffffffffffffffff1663a65e83c3336040518263ffffffff1660e01b815260040161098391906132eb565b61016060405180830381865afa1580156109a1573d6000803e3d6000fd5b505050506040513d601f19601f820116820180604052508101906109c59190613412565b90506000816020015114156109df57428160200181815250505b62015180426109ee919061346f565b836101c00181815250506000600760019054906101000a900473ffffffffffffffffffffffffffffffffffffffff1673ffffffffffffffffffffffffffffffffffffffff16632530c90560046040518263ffffffff1660e01b8152600401610a56919061350a565b6020604051808303816000875af1158015610a75573d6000803e3d6000fd5b505050506040513d601f19601f82011682018060405250810190610a999190613252565b6003610aa5919061346f565b90506000610ab98588856101400151611156565b9050606481600081518110610ad157610ad0613525565b5b602002602001015114610ae357600091505b606481600081518110610af957610af8613525565b5b60200260200101511415610b3757600460008881526020019081526020016000206004015483600001818151610b2f919061346f565b915081815250505b600b60009054906101000a900473ffffffffffffffffffffffffffffffffffffffff1673ffffffffffffffffffffffffffffffffffffffff1663a28fe11333856040518363ffffffff1660e01b8152600401610b94929190613635565b600060405180830381600087803b158015610bae57600080fd5b505af1158015610bc2573d6000803e3d6000fd5b50505050600960009054906101000a900473ffffffffffffffffffffffffffffffffffffffff1673ffffffffffffffffffffffffffffffffffffffff16632e5bdb178683600081518110610c1957610c18613525565b5b602002602001015184600181518110610c3557610c34613525565b5b602002602001015186600460008e815260200190815260200160002060050154600460008f8152602001908152602001600020600601546040518763ffffffff1660e01b8152600401610c8d96959493929190613916565b6020604051808303816000875af1158015610cac573d6000803e3d6000fd5b505050506040513d601f19601f82011682018060405250810190610cd09190613252565b5080600081518110610ce557610ce4613525565b5b60200260200101519550505050505092915050565b60003373ffffffffffffffffffffffffffffffffffffffff16600860009054906101000a900473ffffffffffffffffffffffffffffffffffffffff1673ffffffffffffffffffffffffffffffffffffffff16636352211e856040518263ffffffff1660e01b8152600401610d6e919061238f565b602060405180830381865afa158015610d8b573d6000803e3d6000fd5b505050506040513d601f19601f82011682018060405250810190610daf9190612bb4565b73ffffffffffffffffffffffffffffffffffffffff1614610e05576040517f08c379a0000000000000000000000000000000000000000000000000000000008152600401610dfc90612c2d565b60405180910390fd5b60008210158015610e17575060035482105b610e56576040517f08c379a0000000000000000000000000000000000000000000000000000000008152600401610e4d90612c99565b60405180910390fd5b600060559050600060016004600086815260200190815260200160002060020154610e81919061397e565b90506000600860009054906101000a900473ffffffffffffffffffffffffffffffffffffffff1673ffffffffffffffffffffffffffffffffffffffff1663dabb0531876040518263ffffffff1660e01b8152600401610ee0919061238f565b600060405180830381865afa158015610efd573d6000803e3d6000fd5b505050506040513d6000823e3d601f19601f82011682018060405250810190610f269190613131565b90506000600467ffffffffffffffff811115610f4557610f44612128565b5b604051908082528060200260200182016040528015610f735781602001602082028036833780820191505090505b50905081610140015181600081518110610f9057610f8f613525565b5b60200260200101818152505081610160015181600181518110610fb657610fb5613525565b5b60200260200101818152505081610180015181600281518110610fdc57610fdb613525565b5b602002602001018181525050816101a001518160038151811061100257611001613525565b5b6020026020010181815250506000600382858151811061102557611024613525565b5b602002602001015161103791906139e1565b9050601281111561104757601290505b60018360400151141561106857600281611061919061346f565b90506110ca565b60028360400151141561108957600481611082919061346f565b90506110c9565b6003836040015114156110aa576006816110a3919061346f565b90506110c8565b6004836040015114156110c7576008816110c4919061346f565b90505b5b5b5b6004600088815260200190815260200160002060030154816110ec919061346f565b90506005836080015110611119576005836080015161110b91906139e1565b81611116919061397e565b90505b603c60046000898152602001908152602001600020600301541161113c57604694505b84811115611148578490505b809550505050505092915050565b60606000806001600460008781526020019081526020016000206002015461117e919061397e565b90506000600467ffffffffffffffff81111561119d5761119c612128565b5b6040519080825280602002602001820160405280156111cb5781602001602082028036833780820191505090505b509050866101400151816000815181106111e8576111e7613525565b5b6020026020010181815250508661016001518160018151811061120e5761120d613525565b5b6020026020010181815250508661018001518160028151811061123457611233613525565b5b602002602001018181525050866101a001518160038151811061125a57611259613525565b5b6020026020010181815250506000605090506000600383858151811061128357611282613525565b5b602002602001015161129591906139e1565b905060128111156112a557601290505b6001896020015114156112c6576002816112bf919061346f565b9050611328565b6002896020015114156112e7576004816112e0919061346f565b9050611327565b60028960200151141561130857600681611301919061346f565b9050611326565b60028960200151141561132557600881611322919061346f565b90505b5b5b5b6003876113359190613a12565b81611340919061346f565b9050600460008981526020019081526020016000206003015481611364919061346f565b90506005896080015110611391576005896080015161138391906139e1565b8161138e919061397e565b90505b603c600460008a815260200190815260200160002060030154116113b457604691505b818111156113c0578190505b6000600267ffffffffffffffff8111156113dd576113dc612128565b5b60405190808252806020026020018201604052801561140b5781602001602082028036833780820191505090505b5090506000600760019054906101000a900473ffffffffffffffffffffffffffffffffffffffff1673ffffffffffffffffffffffffffffffffffffffff16632530c905605a6040518263ffffffff1660e01b815260040161146c9190613aa7565b6020604051808303816000875af115801561148b573d6000803e3d6000fd5b505050506040513d601f19601f820116820180604052508101906114af9190613252565b90508281116114bd57606496505b86826000815181106114d2576114d1613525565b5b60200260200101818152505080826001815181106114f3576114f2613525565b5b602002602001018181525050819750505050505050509392505050565b601f81565b601e61152881611523611ace565b611ad6565b6000339050600060065411611572576040517f08c379a000000000000000000000000000000000000000000000000000000000815260040161156990613b0e565b60405180910390fd5b8073ffffffffffffffffffffffffffffffffffffffff166108fc6006549081150290604051600060405180830381858888f193505050501580156115ba573d6000803e3d6000fd5b505050565b601e6115d2816115cd611ace565b611ad6565b81600160006101000a81548173ffffffffffffffffffffffffffffffffffffffff021916908373ffffffffffffffffffffffffffffffffffffffff1602179055505050565b601e81565b60606000601467ffffffffffffffff81111561163b5761163a612128565b5b60405190808252806020026020018201604052801561167457816020015b611661611f6d565b8152602001906001900390816116595790505b50905060005b60148110156117a057600460008281526020019081526020016000206040518060e00160405290816000820180546116b190613b5d565b80601f01602080910402602001604051908101604052809291908181526020018280546116dd90613b5d565b801561172a5780601f106116ff5761010080835404028352916020019161172a565b820191906000526020600020905b81548152906001019060200180831161170d57829003601f168201915b50505050508152602001600182015481526020016002820154815260200160038201548152602001600482015481526020016005820154815260200160068201548152505082828151811061178257611781613525565b5b6020026020010181905250808061179890613b8f565b91505061167a565b508091505090565b6000600860009054906101000a900473ffffffffffffffffffffffffffffffffffffffff1673ffffffffffffffffffffffffffffffffffffffff16634f558e79836040518263ffffffff1660e01b8152600401611805919061238f565b602060405180830381865afa158015611822573d6000803e3d6000fd5b505050506040513d601f19601f820116820180604052508101906118469190612d1d565b611885576040517f08c379a000000000000000000000000000000000000000000000000000000000815260040161187c90613c24565b60405180910390fd5b6000600860009054906101000a900473ffffffffffffffffffffffffffffffffffffffff1673ffffffffffffffffffffffffffffffffffffffff1663dabb0531846040518263ffffffff1660e01b81526004016118e2919061238f565b600060405180830381865afa1580156118ff573d6000803e3d6000fd5b505050506040513d6000823e3d601f19601f820116820180604052508101906119289190613131565b9050600b60009054906101000a900473ffffffffffffffffffffffffffffffffffffffff1673ffffffffffffffffffffffffffffffffffffffff1663f7a6ab8e6040518163ffffffff1660e01b8152600401602060405180830381865afa158015611997573d6000803e3d6000fd5b505050506040513d601f19601f820116820180604052508101906119bb9190613252565b81610360015114611a01576040517f08c379a00000000000000000000000000000000000000000000000000000000081526004016119f890613c90565b60405180910390fd5b600042826101c001511115611a3b57600042836101c00151611a23919061397e565b90506201518081611a3491906139e1565b9050809150505b8092505050919050565b600080600084815260200190815260200160002060000160008373ffffffffffffffffffffffffffffffffffffffff1673ffffffffffffffffffffffffffffffffffffffff16815260200190815260200160002060009054906101000a900460ff16905092915050565b6000806000838152602001908152602001600020600101549050919050565b600033905090565b611ae08282611a45565b611b6c57611b058173ffffffffffffffffffffffffffffffffffffffff166014611d31565b611b10836020611d31565b604051602001611b21929190613d84565b6040516020818303038152906040526040517f08c379a0000000000000000000000000000000000000000000000000000000008152600401611b639190613df7565b60405180910390fd5b5050565b611b7a8282611a45565b15611c4d57600080600084815260200190815260200160002060000160008373ffffffffffffffffffffffffffffffffffffffff1673ffffffffffffffffffffffffffffffffffffffff16815260200190815260200160002060006101000a81548160ff021916908315150217905550611bf2611ace565b73ffffffffffffffffffffffffffffffffffffffff168173ffffffffffffffffffffffffffffffffffffffff16837fe0df21b65c73c27081b8f042a012b124085b41d78d27b7e3c4780f5650f5ebb860405160405180910390a45b5050565b611c5b8282611a45565b611d2d57600160008084815260200190815260200160002060000160008373ffffffffffffffffffffffffffffffffffffffff1673ffffffffffffffffffffffffffffffffffffffff16815260200190815260200160002060006101000a81548160ff021916908315150217905550611cd2611ace565b73ffffffffffffffffffffffffffffffffffffffff168173ffffffffffffffffffffffffffffffffffffffff16837f1ec1667fba5e43c5c76fff54e76d7a4a20a4fecf7b49724ad8d52a3f726e9dbd60405160405180910390a45b5050565b606060006002836002611d449190613a12565b611d4e919061346f565b67ffffffffffffffff811115611d6757611d66612128565b5b6040519080825280601f01601f191660200182016040528015611d995781602001600182028036833780820191505090505b5090507f300000000000000000000000000000000000000000000000000000000000000081600081518110611dd157611dd0613525565b5b60200101907effffffffffffffffffffffffffffffffffffffffffffffffffffffffffffff1916908160001a9053507f780000000000000000000000000000000000000000000000000000000000000081600181518110611e3557611e34613525565b5b60200101907effffffffffffffffffffffffffffffffffffffffffffffffffffffffffffff1916908160001a90535060006001846002611e759190613a12565b611e7f919061346f565b90505b6001811115611f1f577f3031323334353637383961626364656600000000000000000000000000000000600f861660108110611ec157611ec0613525565b5b1a60f81b828281518110611ed857611ed7613525565b5b60200101907effffffffffffffffffffffffffffffffffffffffffffffffffffffffffffff1916908160001a905350600485901c945080611f1890613e19565b9050611e82565b5060008414611f63576040517f08c379a0000000000000000000000000000000000000000000000000000000008152600401611f5a90613e8f565b60405180910390fd5b8091505092915050565b6040518060e00160405280606081526020016000815260200160008152602001600081526020016000815260200160008152602001600081525090565b6000604051905090565b600080fd5b600080fd5b60007fffffffff0000000000000000000000000000000000000000000000000000000082169050919050565b611ff381611fbe565b8114611ffe57600080fd5b50565b60008135905061201081611fea565b92915050565b60006020828403121561202c5761202b611fb4565b5b600061203a84828501612001565b91505092915050565b60008115159050919050565b61205881612043565b82525050565b6000602082019050612073600083018461204f565b92915050565b600073ffffffffffffffffffffffffffffffffffffffff82169050919050565b60006120a482612079565b9050919050565b6120b481612099565b81146120bf57600080fd5b50565b6000813590506120d1816120ab565b92915050565b6000819050919050565b6120ea816120d7565b81146120f557600080fd5b50565b600081359050612107816120e1565b92915050565b600080fd5b600080fd5b6000601f19601f8301169050919050565b7f4e487b7100000000000000000000000000000000000000000000000000000000600052604160045260246000fd5b61216082612117565b810181811067ffffffffffffffff8211171561217f5761217e612128565b5b80604052505050565b6000612192611faa565b905061219e8282612157565b919050565b600067ffffffffffffffff8211156121be576121bd612128565b5b6121c782612117565b9050602081019050919050565b82818337600083830152505050565b60006121f66121f1846121a3565b612188565b90508281526020810184848401111561221257612211612112565b5b61221d8482856121d4565b509392505050565b600082601f83011261223a5761223961210d565b5b813561224a8482602086016121e3565b91505092915050565b6000806000806080858703121561226d5761226c611fb4565b5b600061227b878288016120c2565b945050602061228c878288016120c2565b935050604061229d878288016120f8565b925050606085013567ffffffffffffffff8111156122be576122bd611fb9565b5b6122ca87828801612225565b91505092959194509250565b6122df81611fbe565b82525050565b60006020820190506122fa60008301846122d6565b92915050565b6000806040838503121561231757612316611fb4565b5b6000612325858286016120f8565b9250506020612336858286016120c2565b9150509250929050565b6000806040838503121561235757612356611fb4565b5b6000612365858286016120f8565b9250506020612376858286016120f8565b9150509250929050565b612389816120d7565b82525050565b60006020820190506123a46000830184612380565b92915050565b600080fd5b600080fd5b600067ffffffffffffffff8211156123cf576123ce612128565b5b6123d882612117565b9050602081019050919050565b60006123f86123f3846123b4565b612188565b90508281526020810184848401111561241457612413612112565b5b61241f8482856121d4565b509392505050565b600082601f83011261243c5761243b61210d565b5b813561244c8482602086016123e5565b91505092915050565b6000610400828403121561246c5761246b6123aa565b5b612477610400612188565b9050600082013567ffffffffffffffff811115612497576124966123af565b5b6124a384828501612427565b60008301525060206124b7848285016120f8565b60208301525060406124cb848285016120f8565b60408301525060606124df848285016120f8565b60608301525060806124f3848285016120f8565b60808301525060a0612507848285016120f8565b60a08301525060c061251b848285016120f8565b60c08301525060e061252f848285016120f8565b60e083015250610100612544848285016120f8565b6101008301525061012061255a848285016120f8565b61012083015250610140612570848285016120f8565b61014083015250610160612586848285016120f8565b6101608301525061018061259c848285016120f8565b610180830152506101a06125b2848285016120f8565b6101a0830152506101c06125c8848285016120f8565b6101c0830152506101e06125de848285016120f8565b6101e0830152506102006125f4848285016120f8565b6102008301525061022061260a848285016120f8565b61022083015250610240612620848285016120f8565b61024083015250610260612636848285016120f8565b6102608301525061028061264c848285016120f8565b610280830152506102a0612662848285016120f8565b6102a0830152506102c0612678848285016120f8565b6102c0830152506102e061268e848285016120f8565b6102e0830152506103006126a4848285016120f8565b610300830152506103206126ba848285016120f8565b610320830152506103406126d0848285016120f8565b610340830152506103606126e6848285016120f8565b610360830152506103806126fc848285016120f8565b610380830152506103a0612712848285016120f8565b6103a0830152506103c0612728848285016120c2565b6103c0830152506103e061273e848285016120f8565b6103e08301525092915050565b60008060006060848603121561276457612763611fb4565b5b600084013567ffffffffffffffff81111561278257612781611fb9565b5b61278e86828701612455565b935050602061279f868287016120f8565b92505060406127b0868287016120f8565b9150509250925092565b600081519050919050565b600082825260208201905092915050565b6000819050602082019050919050565b6127ef816120d7565b82525050565b600061280183836127e6565b60208301905092915050565b6000602082019050919050565b6000612825826127ba565b61282f81856127c5565b935061283a836127d6565b8060005b8381101561286b57815161285288826127f5565b975061285d8361280d565b92505060018101905061283e565b5085935050505092915050565b60006020820190508181036000830152612892818461281a565b905092915050565b6000602082840312156128b0576128af611fb4565b5b60006128be848285016120c2565b91505092915050565b600081519050919050565b600082825260208201905092915050565b6000819050602082019050919050565b600081519050919050565b600082825260208201905092915050565b60005b8381101561292d578082015181840152602081019050612912565b8381111561293c576000848401525b50505050565b600061294d826128f3565b61295781856128fe565b935061296781856020860161290f565b61297081612117565b840191505092915050565b600060e08301600083015184820360008601526129988282612942565b91505060208301516129ad60208601826127e6565b5060408301516129c060408601826127e6565b5060608301516129d360608601826127e6565b5060808301516129e660808601826127e6565b5060a08301516129f960a08601826127e6565b5060c0830151612a0c60c08601826127e6565b508091505092915050565b6000612a23838361297b565b905092915050565b6000602082019050919050565b6000612a43826128c7565b612a4d81856128d2565b935083602082028501612a5f856128e3565b8060005b85811015612a9b5784840389528151612a7c8582612a17565b9450612a8783612a2b565b925060208a01995050600181019050612a63565b50829750879550505050505092915050565b60006020820190508181036000830152612ac78184612a38565b905092915050565b600060208284031215612ae557612ae4611fb4565b5b6000612af3848285016120f8565b91505092915050565b600082825260208201905092915050565b7f416363657373436f6e74726f6c3a2063616e206f6e6c792072656e6f756e636560008201527f20726f6c657320666f722073656c660000000000000000000000000000000000602082015250565b6000612b69602f83612afc565b9150612b7482612b0d565b604082019050919050565b60006020820190508181036000830152612b9881612b5c565b9050919050565b600081519050612bae816120ab565b92915050565b600060208284031215612bca57612bc9611fb4565b5b6000612bd884828501612b9f565b91505092915050565b7f4572726f72203100000000000000000000000000000000000000000000000000600082015250565b6000612c17600783612afc565b9150612c2282612be1565b602082019050919050565b60006020820190508181036000830152612c4681612c0a565b9050919050565b7f496e707574204572726f72000000000000000000000000000000000000000000600082015250565b6000612c83600b83612afc565b9150612c8e82612c4d565b602082019050919050565b60006020820190508181036000830152612cb281612c76565b9050919050565b612cc281612099565b82525050565b6000604082019050612cdd6000830185612cb9565b612cea6020830184612380565b9392505050565b612cfa81612043565b8114612d0557600080fd5b50565b600081519050612d1781612cf1565b92915050565b600060208284031215612d3357612d32611fb4565b5b6000612d4184828501612d08565b91505092915050565b7f4e6f742052756e20696e207468697320536561736f6e00000000000000000000600082015250565b6000612d80601683612afc565b9150612d8b82612d4a565b602082019050919050565b60006020820190508181036000830152612daf81612d73565b9050919050565b6000612dc9612dc4846123b4565b612188565b905082815260208101848484011115612de557612de4612112565b5b612df084828561290f565b509392505050565b600082601f830112612e0d57612e0c61210d565b5b8151612e1d848260208601612db6565b91505092915050565b600081519050612e35816120e1565b92915050565b60006104008284031215612e5257612e516123aa565b5b612e5d610400612188565b9050600082015167ffffffffffffffff811115612e7d57612e7c6123af565b5b612e8984828501612df8565b6000830152506020612e9d84828501612e26565b6020830152506040612eb184828501612e26565b6040830152506060612ec584828501612e26565b6060830152506080612ed984828501612e26565b60808301525060a0612eed84828501612e26565b60a08301525060c0612f0184828501612e26565b60c08301525060e0612f1584828501612e26565b60e083015250610100612f2a84828501612e26565b61010083015250610120612f4084828501612e26565b61012083015250610140612f5684828501612e26565b61014083015250610160612f6c84828501612e26565b61016083015250610180612f8284828501612e26565b610180830152506101a0612f9884828501612e26565b6101a0830152506101c0612fae84828501612e26565b6101c0830152506101e0612fc484828501612e26565b6101e083015250610200612fda84828501612e26565b61020083015250610220612ff084828501612e26565b6102208301525061024061300684828501612e26565b6102408301525061026061301c84828501612e26565b6102608301525061028061303284828501612e26565b610280830152506102a061304884828501612e26565b6102a0830152506102c061305e84828501612e26565b6102c0830152506102e061307484828501612e26565b6102e08301525061030061308a84828501612e26565b610300830152506103206130a084828501612e26565b610320830152506103406130b684828501612e26565b610340830152506103606130cc84828501612e26565b610360830152506103806130e284828501612e26565b610380830152506103a06130f884828501612e26565b6103a0830152506103c061310e84828501612b9f565b6103c0830152506103e061312484828501612e26565b6103e08301525092915050565b60006020828403121561314757613146611fb4565b5b600082015167ffffffffffffffff81111561316557613164611fb9565b5b61317184828501612e3b565b91505092915050565b7f4f6e652070657220446179000000000000000000000000000000000000000000600082015250565b60006131b0600b83612afc565b91506131bb8261317a565b602082019050919050565b600060208201905081810360008301526131df816131a3565b9050919050565b7f5265717569726520526573706563740000000000000000000000000000000000600082015250565b600061321c600f83612afc565b9150613227826131e6565b602082019050919050565b6000602082019050818103600083015261324b8161320f565b9050919050565b60006020828403121561326857613267611fb4565b5b600061327684828501612e26565b91505092915050565b7f45787065646974696f6e204661696c6564000000000000000000000000000000600082015250565b60006132b5601183612afc565b91506132c08261327f565b602082019050919050565b600060208201905081810360008301526132e4816132a8565b9050919050565b60006020820190506133006000830184612cb9565b92915050565b6000610160828403121561331d5761331c6123aa565b5b613328610160612188565b9050600061333884828501612e26565b600083015250602061334c84828501612e26565b602083015250604061336084828501612e26565b604083015250606061337484828501612e26565b606083015250608061338884828501612e26565b60808301525060a061339c84828501612e26565b60a08301525060c06133b084828501612e26565b60c08301525060e06133c484828501612e26565b60e0830152506101006133d984828501612e26565b610100830152506101206133ef84828501612e26565b6101208301525061014061340584828501612e26565b6101408301525092915050565b6000610160828403121561342957613428611fb4565b5b600061343784828501613306565b91505092915050565b7f4e487b7100000000000000000000000000000000000000000000000000000000600052601160045260246000fd5b600061347a826120d7565b9150613485836120d7565b9250827fffffffffffffffffffffffffffffffffffffffffffffffffffffffffffffffff038211156134ba576134b9613440565b5b828201905092915050565b6000819050919050565b6000819050919050565b60006134f46134ef6134ea846134c5565b6134cf565b6120d7565b9050919050565b613504816134d9565b82525050565b600060208201905061351f60008301846134fb565b92915050565b7f4e487b7100000000000000000000000000000000000000000000000000000000600052603260045260246000fd5b6101608201600082015161356b60008501826127e6565b50602082015161357e60208501826127e6565b50604082015161359160408501826127e6565b5060608201516135a460608501826127e6565b5060808201516135b760808501826127e6565b5060a08201516135ca60a08501826127e6565b5060c08201516135dd60c08501826127e6565b5060e08201516135f060e08501826127e6565b506101008201516136056101008501826127e6565b5061012082015161361a6101208501826127e6565b5061014082015161362f6101408501826127e6565b50505050565b60006101808201905061364b6000830185612cb9565b6136586020830184613554565b9392505050565b61366881612099565b82525050565b600061040083016000830151848203600086015261368c8282612942565b91505060208301516136a160208601826127e6565b5060408301516136b460408601826127e6565b5060608301516136c760608601826127e6565b5060808301516136da60808601826127e6565b5060a08301516136ed60a08601826127e6565b5060c083015161370060c08601826127e6565b5060e083015161371360e08601826127e6565b506101008301516137286101008601826127e6565b5061012083015161373d6101208601826127e6565b506101408301516137526101408601826127e6565b506101608301516137676101608601826127e6565b5061018083015161377c6101808601826127e6565b506101a08301516137916101a08601826127e6565b506101c08301516137a66101c08601826127e6565b506101e08301516137bb6101e08601826127e6565b506102008301516137d06102008601826127e6565b506102208301516137e56102208601826127e6565b506102408301516137fa6102408601826127e6565b5061026083015161380f6102608601826127e6565b506102808301516138246102808601826127e6565b506102a08301516138396102a08601826127e6565b506102c083015161384e6102c08601826127e6565b506102e08301516138636102e08601826127e6565b506103008301516138786103008601826127e6565b5061032083015161388d6103208601826127e6565b506103408301516138a26103408601826127e6565b506103608301516138b76103608601826127e6565b506103808301516138cc6103808601826127e6565b506103a08301516138e16103a08601826127e6565b506103c08301516138f66103c086018261365f565b506103e083015161390b6103e08601826127e6565b508091505092915050565b600060c0820190508181036000830152613930818961366e565b905061393f6020830188612380565b61394c6040830187612380565b6139596060830186612380565b6139666080830185612380565b61397360a0830184612380565b979650505050505050565b6000613989826120d7565b9150613994836120d7565b9250828210156139a7576139a6613440565b5b828203905092915050565b7f4e487b7100000000000000000000000000000000000000000000000000000000600052601260045260246000fd5b60006139ec826120d7565b91506139f7836120d7565b925082613a0757613a066139b2565b5b828204905092915050565b6000613a1d826120d7565b9150613a28836120d7565b9250817fffffffffffffffffffffffffffffffffffffffffffffffffffffffffffffffff0483118215151615613a6157613a60613440565b5b828202905092915050565b6000819050919050565b6000613a91613a8c613a8784613a6c565b6134cf565b6120d7565b9050919050565b613aa181613a76565b82525050565b6000602082019050613abc6000830184613a98565b92915050565b7f496e73756666696369656e742042616c616e6365000000000000000000000000600082015250565b6000613af8601483612afc565b9150613b0382613ac2565b602082019050919050565b60006020820190508181036000830152613b2781613aeb565b9050919050565b7f4e487b7100000000000000000000000000000000000000000000000000000000600052602260045260246000fd5b60006002820490506001821680613b7557607f821691505b60208210811415613b8957613b88613b2e565b5b50919050565b6000613b9a826120d7565b91507fffffffffffffffffffffffffffffffffffffffffffffffffffffffffffffffff821415613bcd57613bcc613440565b5b600182019050919050565b7f4e6f204578697374730000000000000000000000000000000000000000000000600082015250565b6000613c0e600983612afc565b9150613c1982613bd8565b602082019050919050565b60006020820190508181036000830152613c3d81613c01565b9050919050565b7f4572726f7220536561736f6e2049640000000000000000000000000000000000600082015250565b6000613c7a600f83612afc565b9150613c8582613c44565b602082019050919050565b60006020820190508181036000830152613ca981613c6d565b9050919050565b600081905092915050565b7f416363657373436f6e74726f6c3a206163636f756e7420000000000000000000600082015250565b6000613cf1601783613cb0565b9150613cfc82613cbb565b601782019050919050565b6000613d12826128f3565b613d1c8185613cb0565b9350613d2c81856020860161290f565b80840191505092915050565b7f206973206d697373696e6720726f6c6520000000000000000000000000000000600082015250565b6000613d6e601183613cb0565b9150613d7982613d38565b601182019050919050565b6000613d8f82613ce4565b9150613d9b8285613d07565b9150613da682613d61565b9150613db28284613d07565b91508190509392505050565b6000613dc9826128f3565b613dd38185612afc565b9350613de381856020860161290f565b613dec81612117565b840191505092915050565b60006020820190508181036000830152613e118184613dbe565b905092915050565b6000613e24826120d7565b91506000821415613e3857613e37613440565b5b600182039050919050565b7f537472696e67733a20686578206c656e67746820696e73756666696369656e74600082015250565b6000613e79602083612afc565b9150613e8482613e43565b602082019050919050565b60006020820190508181036000830152613ea881613e6c565b905091905056fea26469706673582212204a94aebb66b699f5526fbb6d516a13954bcaff23896ba1dedbffa2f7cee8e6cd64736f6c634300080a0033",
  "immutableReferences": {},
  "source": "// SPDX-License-Identifier: UNLICENSED\r\npragma solidity >=0.4.22 <0.9.0;\r\n\r\n/**\r\n * @title SampleBEP20Token\r\n * @dev Very simple BEP20 Token example, where all tokens are pre-assigned to the creator.\r\n * Note they can later distribute these tokens as they wish using `transfer` and other\r\n * `BEP20` functions.\r\n * USE IT ONLY FOR LEARNING PURPOSES. SHOULD BE MODIFIED FOR PRODUCTION\r\n */\r\n\r\nimport \"../../node_modules/@openzeppelin/contracts/token/ERC721/IERC721Receiver.sol\";\r\nimport \"./../utils/Admin.sol\";\r\nimport \"./../utils/Utils.sol\";\r\nimport \"./../utils/CharacterUtils.sol\";\r\n\r\nimport \"./../tokens/Character.sol\";\r\nimport \"./../tokens/GANG.sol\";\r\nimport \"./../tokens/GameItem.sol\";\r\nimport \"./../CoreInGame.sol\";\r\n\r\ncontract Robbery is Admin, IERC721Receiver {\r\n    address private _contractowner;\r\n    address private _secondowner;\r\n\r\n    struct RobberyStruct\r\n    {\r\n        string name;\r\n        uint256 powerReq;\r\n        uint256 bestStats;\r\n        uint256 baseChance;\r\n        uint256 reward;\r\n        uint256 respectReward;\r\n        uint256 baseDamage;\r\n    }\r\n\r\n    uint256 private robberyMaxId = 0;\r\n\r\n    mapping( uint256 => RobberyStruct) private gameRoubo;\r\n\r\n    uint256 private mintPrice = 15000000000000000000;\r\n\r\n    uint256 private bnbBalance;\r\n\r\n    bool private Initialized;\r\n\r\n    Utils private utils;\r\n    Character private crimeChar;\r\n    CharacterUtils private charUtils;\r\n    GameItem private crimeItem;\r\n    CoreInGame private game;\r\n\r\n    constructor(Utils _util, Character _character, GameItem _gameItem, CharacterUtils _charUtils, CoreInGame _game) Admin()\r\n    {\r\n        _secondowner = address(0xbf752Eb4b851B241A36e22767b304ef28242198A);\r\n        _setRoleAdmin(DEFAULT_ADMIN_ROLE, DEFAULT_ADMIN_ROLE);\r\n        _setRoleAdmin(DEFAULT_CORE_ROLE, DEFAULT_ADMIN_ROLE);\r\n        _setupRole(DEFAULT_ADMIN_ROLE, msg.sender);\r\n        _setupRole(DEFAULT_ADMIN_ROLE, _secondowner);\r\n        Initialized = false;\r\n\r\n        _contractowner = msg.sender;\r\n        bnbBalance = 0;\r\n        crimeChar = _character;\r\n        crimeItem = _gameItem;\r\n        utils = _util;\r\n        game = _game; \r\n        charUtils = _charUtils;\r\n\r\n        uint256 r = mintPrice; \r\n        uint256 resp = 2;\r\n        uint256 bDmg = 5;\r\n        robberyMaxId = 20;\r\n\r\n        gameRoubo[0] = RobberyStruct(\"$1,99 store\", 50, 1, 75, (r / 60), resp, bDmg); \r\n        gameRoubo[1] = RobberyStruct(\"Old woman on the street\", 100, 2, 75, (r / 55), resp, bDmg * 2);\r\n        bDmg += 2;\r\n        resp += 20;\r\n        gameRoubo[2] = RobberyStruct(\"Car Radio\", 150, 3, 75, (r / 50), resp, bDmg * 2);\r\n        bDmg += 2;\r\n        resp += 20;\r\n        gameRoubo[3] = RobberyStruct(\"Taxi\", 200, 4, 75, (r / 45), resp, bDmg * 2);\r\n        bDmg += 2;\r\n        resp += 20;\r\n        gameRoubo[4] = RobberyStruct(\"Steal a house\", 225, 1, 73, (r / 40), resp, bDmg * 2);\r\n        bDmg += 2;\r\n        resp += 20;\r\n        gameRoubo[5] = RobberyStruct(\"Gas Station\", 275, 2, 70, (r / 35), resp, bDmg * 2);\r\n        bDmg += 2;\r\n        resp += 20;\r\n        gameRoubo[6] = RobberyStruct(\"Tobacco store\", 325, 3, 65, (r / 32), resp, bDmg * 2);\r\n        bDmg += 2;\r\n        resp += 20;\r\n        gameRoubo[7] = RobberyStruct(\"Kidnap\", 375, 4, 63, (r / 28), resp, bDmg * 2);\r\n        bDmg += 2;\r\n        resp += 20;\r\n        gameRoubo[8] = RobberyStruct(\"Jewelry Store\", 425, 1, 60, (r / 24), resp, bDmg * 2);\r\n        bDmg += 4;\r\n        resp += 20;\r\n        gameRoubo[9] = RobberyStruct(\"Small bank\", 475, 2, 58, (r / 20), resp, bDmg * 2);\r\n        bDmg += 4;\r\n        resp += 20;\r\n        gameRoubo[10] = RobberyStruct(\"Car dealership\", 525, 3, 56, (r / 16), resp, bDmg * 2);\r\n        bDmg += 8;\r\n        resp += 20;\r\n        gameRoubo[11] = RobberyStruct(\"Local thugs\", 575, 4, 54, (r / 12), resp, bDmg * 2);\r\n        bDmg += 8;\r\n        resp += 20;\r\n        gameRoubo[12] = RobberyStruct(\"Safe deposit\", 625, 1, 52, (r / 9), resp, bDmg * 2);\r\n        bDmg += 8;\r\n        resp += 20;\r\n        gameRoubo[13] = RobberyStruct(\"Club\", 675, 2, 50, (r / 6) , resp, bDmg * 2);\r\n        bDmg += 8;\r\n        resp += 20;\r\n        gameRoubo[14] = RobberyStruct(\"IT store\", 725, 3, 49, (r / 4), resp, bDmg * 2);\r\n        bDmg += 8;\r\n        resp += 20;\r\n        gameRoubo[15] = RobberyStruct(\"Local drug dealer\", 775, 4, 47, (r / 3), resp, bDmg * 2);\r\n        bDmg += 8;\r\n        resp += 20;\r\n        gameRoubo[16] = RobberyStruct(\"Local Mafia Boss\", 850, 1, 45, (r / 2), resp, bDmg * 2);\r\n        gameRoubo[17] = RobberyStruct(\"National Museum\", 850, 2, 45, (r / 2), resp, bDmg * 2);\r\n        gameRoubo[18] = RobberyStruct(\"Casino\", 850, 3, 45, (r / 2), resp, bDmg * 2);\r\n        gameRoubo[19] = RobberyStruct(\"Russo, King of Drugs\", 850, 3, 45, (r / 2), resp, bDmg * 2);\r\n    }\r\n\r\n    function changeAdmin(address newAdmin) public onlyRole(DEFAULT_ADMIN_ROLE)\r\n    {\r\n        _contractowner = newAdmin;\r\n    }\r\n\r\n    function onERC721Received(address, address, uint256, bytes memory) public virtual override returns (bytes4) {\r\n        return this.onERC721Received.selector;\r\n    }\r\n\r\n    function getRobberyList() public view returns (RobberyStruct[] memory)\r\n    {\r\n        RobberyStruct[] memory result = new RobberyStruct[](20);\r\n        for(uint256 x = 0; x < 20; x++)\r\n        {\r\n            result[x] = gameRoubo[x];\r\n        }\r\n        return result;\r\n    }\r\n\r\n    function supportsInterface(bytes4 interfaceId) public pure returns (bool) {\r\n        return interfaceId == type(IERC721Receiver).interfaceId;\r\n    }\r\n    function bnbWithdraw() onlyRole(DEFAULT_ADMIN_ROLE) public\r\n    {\r\n        address payable owner = payable(msg.sender);\r\n        require(bnbBalance > 0, \"Insufficient Balance\");\r\n        owner.transfer(bnbBalance);\r\n    }\r\n    function getRobberyCountDown(uint256 tokenId) public view returns (uint256)\r\n    {\r\n        require(crimeChar.exists(tokenId), \"No Exists\");\r\n        CharacterDetail memory char = crimeChar.getCharacter(tokenId);\r\n\r\n        require(char.seasonId == game.getSeasonId(), \"Error Season Id\");\r\n        uint256 result = 0;\r\n        if(char.lastExpedition > block.timestamp)\r\n        {\r\n            uint256 diff= char.lastExpedition - block.timestamp;\r\n            diff = diff / (1 days);\r\n            result = diff;\r\n        }\r\n        return result;\r\n    }\r\n    function getChanceForRobbery(uint256 tokenId, uint256 expeditionId) public view returns (uint256) {\r\n        require(crimeChar.ownerOf(tokenId) == msg.sender, \"Error 1\");\r\n        require(expeditionId >= 0 && expeditionId < robberyMaxId, \"Input Error\");\r\n        uint256 maxChance = 85;\r\n        uint256 bstats = gameRoubo[expeditionId].bestStats - 1;\r\n        CharacterDetail memory char = crimeChar.getCharacter(tokenId);\r\n        uint256[] memory _stats = new uint256[](4);\r\n        _stats[0] = char._str;\r\n        _stats[1] = char._int;\r\n        _stats[2] = char._cha;\r\n        _stats[3] = char._res;\r\n\r\n        uint256 chance = (_stats[bstats] / 3);\r\n\r\n        if(chance > 18) chance = 18;\r\n\r\n        if(char.rarity == 1) chance += 2;\r\n        else if(char.rarity == 2) chance += 4;\r\n        else if(char.rarity == 3) chance += 6;\r\n        else if(char.rarity == 4) chance += 8;\r\n\r\n        chance += gameRoubo[expeditionId].baseChance;\r\n\r\n        if(char.vicio >= 5)\r\n        {\r\n            chance -= (char.vicio / 5);\r\n        }\r\n        \r\n        if(gameRoubo[expeditionId].baseChance <= 60) maxChance = 70;\r\n        if(chance > maxChance) chance = maxChance;\r\n        return chance;\r\n    }\r\n\r\n    function beginRobbery(uint256 tokenId, uint256 expeditionId) public returns (uint256) {\r\n        require(crimeChar.ownerOf(tokenId) == msg.sender, \"Error 1\");\r\n        require(expeditionId >= 0 && expeditionId < robberyMaxId, \"Input Error\");\r\n        require(game.checkCharacterCanRun(msg.sender, tokenId), \"Not Run in this Season\");\r\n\r\n        CharacterDetail memory char = crimeChar.getCharacter(tokenId);\r\n\r\n        require((block.timestamp >= char.lastExpedition) || (char.lastExpedition == 0), \"One per Day\"); //Last Expedition\r\n\r\n        //Requerimentos para Fazer Roubo, respeito requerido, stamina requerida\r\n        require(char.power >= gameRoubo[expeditionId].powerReq, \"Require Respect\");\r\n\r\n        uint256 expeditionResult = charUtils.createExpedition(msg.sender, tokenId);\r\n        require(expeditionResult > 0, \"Expedition Failed\");\r\n        \r\n        InGame memory acc = game.getIngameAccount(msg.sender);\r\n        \r\n        if(acc.claimTime == 0)\r\n        {\r\n            acc.claimTime = block.timestamp;\r\n        }\r\n\r\n        char.lastExpedition = block.timestamp + (1 days);\r\n\r\n        uint256 exp = 3 + utils.rand(4);\r\n\r\n        uint256[] memory returnValue = calculateRobbery(char, expeditionId, acc.vip);\r\n\r\n        if(returnValue[0] != 100) exp = 0;\r\n\r\n        // add InGame Balance,\r\n        if(returnValue[0] == 100) acc.balance += gameRoubo[expeditionId].reward;\r\n        \r\n        game.UpdateInGameAccount(msg.sender, acc);\r\n\r\n        charUtils.UpdateExpeditioResult(char, returnValue[0], returnValue[1], exp, gameRoubo[expeditionId].respectReward, gameRoubo[expeditionId].baseDamage);\r\n\r\n        return returnValue[0];\r\n    }\r\n\r\n    function calculateRobbery(CharacterDetail memory char, uint256 expeditionId, uint256 vip) public returns(uint256[] memory) \r\n    {\r\n        uint256 returnValue = 0;\r\n        uint256 bstats = gameRoubo[expeditionId].bestStats - 1;\r\n        uint256[] memory _stats = new uint256[](4);\r\n        _stats[0] = char._str;\r\n        _stats[1] = char._int;\r\n        _stats[2] = char._cha;\r\n        _stats[3] = char._res;\r\n        uint256 maxChance = 80;\r\n\r\n        uint256 chance = (_stats[bstats] / 3);\r\n\r\n        if(chance > 18) chance = 18;\r\n\r\n        if(char.class == 1) chance += 2;\r\n        else if(char.class == 2) chance += 4;\r\n        else if(char.class == 2) chance += 6;\r\n        else if(char.class == 2) chance += 8;\r\n\r\n        chance += vip * 3;\r\n\r\n        chance += gameRoubo[expeditionId].baseChance;\r\n\r\n        if(char.vicio >= 5)\r\n        {\r\n            chance -= (char.vicio / 5);\r\n        }\r\n        \r\n        if(gameRoubo[expeditionId].baseChance <= 60) maxChance = 70;\r\n        if(chance > maxChance) chance = maxChance;\r\n\r\n        uint256[] memory result = new uint256[](2);\r\n\r\n        uint256 _random = utils.rand(90);\r\n        if(_random <= chance)\r\n        {\r\n            returnValue = 100;\r\n        }\r\n        result[0] = returnValue;\r\n        result[1] = _random;\r\n        return result;\r\n    }\r\n}",
  "sourcePath": "C:\\Users\\MMMJR\\Desktop\\BlockChain\\CrimeCity\\contracts\\Features\\Robbery.sol",
  "compiler": {
    "name": "solc",
    "version": "0.8.10+commit.fc410830.Emscripten.clang"
  },
  "schemaVersion": "3.4.3",
  "updatedAt": "2022-10-04T14:10:11.132Z",
  "devdoc": {
    "kind": "dev",
    "methods": {
      "getRoleAdmin(uint256)": {
        "details": "Returns the admin role that controls `role`. See {grantRole} and {revokeRole}. To change a role's admin, use {_setRoleAdmin}."
      },
      "grantRole(uint256,address)": {
        "details": "Grants `role` to `account`. If `account` had not been already granted `role`, emits a {RoleGranted} event. Requirements: - the caller must have ``role``'s admin role."
      },
      "hasRole(uint256,address)": {
        "details": "Returns `true` if `account` has been granted `role`."
      },
      "renounceRole(uint256,address)": {
        "details": "Revokes `role` from the calling account. Roles are often managed via {grantRole} and {revokeRole}: this function's purpose is to provide a mechanism for accounts to lose their privileges if they are compromised (such as when a trusted device is misplaced). If the calling account had been granted `role`, emits a {RoleRevoked} event. Requirements: - the caller must be `account`."
      },
      "revokeRole(uint256,address)": {
        "details": "Revokes `role` from `account`. If `account` had been granted `role`, emits a {RoleRevoked} event. Requirements: - the caller must have ``role``'s admin role."
      }
    },
    "version": 1
  },
  "userdoc": {
    "kind": "user",
    "methods": {},
    "version": 1
  }
}